:020000040800F2
:10000000F0FF0010E5680508B18A010839D2000840
:1000100085690508856905088569050800000000EF
:10002000000000000000000000000000BD8A010880
:10003000B98A010800000000B58A0108092C0108EE
:1000400085690508856905088569050885690508C4
:100050008569050885690508F5390108213B01080E
:10006000E53A0108A93A01086D3A0108CDF0040803
:10007000BDF00408ADF004089DF0040889F0040800
:1000800075F0040861F004088569050885690508AC
:10009000856905088569050885690508313A0108FB
:1000A000A9EA0008B91F0108D9E900088920010858
:1000B000F91E0108391E01086D1D0108A9F6040882
:1000C000B1F604089DF60408A5F60408856905083C
:1000D00085690508812D010885690508E52C010859
:1000E000B939010885690508A5D8010809E900089A
:1000F00079EB000839E8000859EC00084DF00408D5
:100100008569050885690508E11B010885690508F9
:10011000856905088569050801AD030889AB0308F1
:1001200039F0040825F0040811F00408FDEF040874
:10013000E9EF0408856905088569050885690508EA
:1001400085690508856905088569050879A5010897
:10015000D5EF0408C1EF0408ADEF0408492C0108ED
:1001600091F6040899F6040885690508856905086B
:100170008569050885690508856905088569050893
:08018000856905088569050881
:080188008C6405000100000079
:100190001A023C000C1A0020A81B002000000000DE
:1001A000697B020827000400EC180020E41B0020F3
:1001B000000000009407000814000300E035002050
:1001C0004C36002000000000980700080B30180093
:1001D000F025002050360020000000009C07000899
:1001E0001F30240008260020683600200000000090
:1001F000B407000805020400743100208C3600208A
:1002000000000000D807000803010A00482600206B
:100210009036002000000000DC07000813020400F4
:10022000242400209C36002000000000E60700087F
:1002300020320A00244F0020184F00200000000048
:1002400045E201081C0210008C4A0020304F0020BB
:10025000000000009171020804120200D04E00203C
:10026000404F002000000000EA0700080F020100D4
:10027000CC4E0020444F002000000000EC07000896
:1002800010100200484E0020484F002000000000DF
:10029000EE07000828101000384E00204C4F0020B8
:1002A00000000000BDE2010819000500304E0020EA
:1002B0005C4F002000000000F0070008F821060055
:1002C000284E0020644F002000000000F6070008C0
:1002D00001200800784900206C4F00200000000039
:1002E000FC0700080A702800F4480020744F002022
:1002F0000000000065E201080EA0740180470020A4
:100300009C4F002000000000F1E1030801010400FF
:10031000E446002010510020000000000000000012
:1003200000010400DC460020145100200000000001
:100330000408000802010300D846002018510020DC
:1003400000000000257904081E02060080520020EB
:10035000285B002000000000080800081F021000B1
:10036000405B0020305B0020000000004573020865
:100370000C109C00AC84002094940020000000002D
:10038000F9780408010205007C84002030950020E3
:1003900000000000DDDE0208000205007484002079
:1003A0003895002000000000000000001B02100033
:1003B000608400204095002000000000BD7102080C
:1003C0001E000600CC810020509500200000000097
:1003D0000E0800081B100C00D07C0020589500204F
:1003E0000000000075F502082102F000507B00209B
:1003F000649500200000000011E1020805100600CD
:1004000020870020549600200000000014080008F7
:1004100037102400FC8300205C96002000000000C0
:100420001A0800080E0202000887002080960020AB
:10043000000000003E08000816100600447B002063
:100440008496002000000000400800082F102200C1
:10045000709400208C9600200000000046080008E0
:1004600023100E0018810020B0960020000000002C
:10047000D7E20108F5518C007C7A0020C09600205C
:1004800000000000092B030826100C0058970020DC
:100490004C9700200000000031D402080A020A0034
:1004A0004C9F002094A1002000000000354D03085F
:1004B00003000100749A0020A0A1002000000000A9
:1004C000000000000312330060A10020A4A100205E
:1004D000000000006808000825102C01809F002003
:1004E000D8A1002000000000000000001A000E004B
:1004F0007CAE0020A4AE0020000000009C08000894
:10050000150070002CAA0020B4AE002000000000EE
:10051000000000002A0060001CAE002024AF002074
:1005200000000000C9E103082C00100094AF002077
:1005300084AF002000000000B9E003082B00240075
:10054000C8AF0020A4AF00200000000089E003082D
:1005500019021000E8A80020ECAF00200000000005
:10056000017202082920780000A80020FCAF0020BA
:100570000000000000000000070202003CB2002062
:1005800094B2002000000000AC080008F6210C0026
:1005900038B1002098B2002000000000B008000828
:1005A00002000C0048B10020A4B2002000000000AE
:1005B0000000000006020C0014B20020B0B20020BF
:1005C00000000000017C020808120F0064B1002046
:1005D000BCB200200000000001730208F701060011
:1005E00058B10020CCB2002000000000BC08000878
:1005F00010020100F8B20020F4B200200000000058
:10060000C20800080D003400F0E900208CEA002048
:1006100000000000498300080902010008E90020E9
:10062000C0EA002000000000C408000804008000A8
:1006300088E80020C4EA002000000000000000005C
:100640001300040068E8002044EB002000000000D4
:10065000C8080008FD01240044E8002048EB002001
:1006600000000000A9F6000818202E0010E8002065
:100670006CEB002000000000117D020806101A003B
:1006800010D600209CEB002000000000E5F10308DC
:10069000FB0101000CD60020B8EB00200000000098
:1006A0007D7D0208FC010900D8D40020BCEB0020AD
:1006B000000000008D7D020816023F0058D4002083
:1006C000C8EB002000000000217202083400100076
:1006D00088D3002008EC002000000000B9F10308D6
:1006E0001102080060D3002018EC00200000000078
:1006F000CC0800081212040058D3002020EC00207F
:1007000000000000D40800081220100048D3002088
:1007100024EC002000000000D8080008F9010400C3
:10072000BCCF002034EC00200000000021F70008BE
:10073000FA0102005CC9002038EC00200000000033
:100740003D7402080202030020B300203CEC0020AC
:1007500000000000000000000C0204000CB30020A8
:1007600040EC0020000000002D73020811000C0076
:10077000E5BD002044EC002000000000C980000816
:10078000FE011400C0BD002050EC0020000000005D
:04079000D171020819
:100794002003000003000000AE014A015E012C01A9
:1007A40064010100000001000A019A01001E0A0010
:1007B4000000000000010000000500000102030029
:1007C4000000000000000000000000000000000025
:1007D4000080070000000000040101006C16000006
:1007E4000000000001351118000000050000280178
:1007F40000000401F4011400E8036400040A000189
:100804009001000000000000000000000100000052
:1008140020000101000020003200C800D00796002B
:10082400140032002800B0044006000550001400F3
:100834000F0008006400010001000000C40900006A
:10084400190000000000000000000000000000008B
:100854000000000000000000000000000000000094
:100864000000000000000000000000000000000084
:100874000000000000000000000000000000000074
:100884000000000000000000000000000000000064
:1008940000000000000001007E05EA05B4053200F6
:1008A400E803D00700000000023C00000000000044
:1008B400010000000202000024010000000000000A
:1008C4002E0000000000443200000000010101017C
:1008D400FFFFFFFF000000010000054F4246340007
:0408E4000008000008
:1008E80001000000A00F0000B80B00000102FFFF8C
:1008F80001000000685E0C00656F0108516E010878
:100908002D9A010800000000CD690108E59501084D
:10091800A16D01085D9501080000000000000000BD
:10092800896901081D69010811690108618B0108BD
:100938007D8B0108458B0108298B01080D8B010867
:100948001D6F01082D6E01086D9901080000000057
:10095800A169010861950108756D0108BD94010838
:10096800000000000000000095690108FFFF00007A
:10097800FFFFFFFF144A06080000080205030300F2
:100988001C4A06080100080205040300F86B060863
:100998000200FE0101100300244A060803001402A5
:1009A800000300002C4A060804001F02010008008A
:1009B800344A060805001F0201010800040309045F
:1009C80012010002EF0201408304563200020102C4
:1009D8000301000012010002020200408304405794
:1009E800000201020301000009022000010104C005
:1009F800320904000002080650050705810240007C
:100A0800000705010240000009026400030100C05C
:100A1800320904000001030000000921110100014E
:100A28002226000705830308000A080B01020202B8
:100A3800010009040100010202010005240010015F
:100A48000524010002042402020524060102070508
:100A580082030800FF09040200020A0000000705DB
:100A6800010240000007058102400000090243001E
:100A7800020100C03209040000010202010005243D
:100A880000100105240100010424020205240600C7
:100A980001070582030800FF09040100020A00009B
:100AA8000007050102400000070581024000000020
:100AB800FF0000006CAD0508000000000000000009
:100AC800000000000000000000000000000000001E
:100AD80000000000000000000000000000FFFF0010
:100AE80000000000AA5505010000010040AD0508FE
:100AF80000000000000000000000000000000000EE
:100B080000000000000000000000000000000000DD
:100B180000000000FF1FFF1F05010905A101A1003A
:100B28000501093009310932093309350934094009
:100B380009381581257F750895088102C0C0000015
:100B480009022200010100E032090400000103014A
:100B5800020009211101000122260007058303086C
:100B6800000A00000000000001020304010203045F
:100B780006070809F5960108F9950108519A010830
:100B8800096A0108816F0108196A0108356A0108B4
:100B9800E1690108D16901080000000000000000B7
:100BA8002D202D2D202D2D2D2D202D2D2D2D0000EE
:100BB800000000000000000000000000000000AA83
:100BC800550B010000AA5507010000AA55090200AB
:100BD8000000AA5503009F0001000000C012000099
:100BE80020360020000000004436002000000000ED
:100BF800FFFFFFFF01000000EDD901080000000021
:100C080094AE050820700020702D7200FFFFFFFFD2
:100C18004257020000000106425702000000010688
:100C2800000101010001012D202D2D202D2D2D2D3C
:100C3800202D2D2D00000000000000000000000005
:100C4800000000000000000000000000000000009C
:100C580078C30508000000000000000004C405086F
:100C680001000000FA00000001000000010000007F
:100C7800010100004A49002000C80100494900203C
:100C88000050010048490020005A01004649002050
:100C980002000000F4B205085C5206086452060817
:100CA80076EA00200100C4090000000074EA002070
:100CB8000100C4090000000072EA00200100C40914
:100CC8000000000070EA00200100C40900000000D4
:100CD8006CEA00200100C409000000006EEA002050
:100CE8000100C409000000006AEA00200100C409EC
:100CF8000000000068EA00200100C40900000000AC
:100D0800FA4600200100C80001000000F846002053
:100D18003200307532000000F6460020055A050002
:100D2800F346002000FF0100F54600200100000006
:100D380040050020F14600200200000034D70508D5
:100D4800F246002000FF0100F446002001000000E8
:100D580040050020F04600200200000034D70508B6
:100D680084490020EE02CA080100000082490020E0
:100D780000C80100640000008149002000C801008B
:100D880064000000804900200200000000B305084C
:100D9800EA46002080C1803E05000000E8460020A9
:100DA80080C1803E05000000E246002080C1803EF0
:100DB80005000000E046002080C1803E05000000DC
:100DC800DB46002000FF0100D44600206400F40147
:100DD80001000000D3460020040000000CB3050801
:100DE800D24600200200000020B305087147002009
:100DF8000D0000002CB305086E47002000640100B8
:100E08006C470020320010270A0000006B470020C2
:100E18000D0000002CB305086A4700200D000000F3
:100E28002CB30508694700200200000064B30508D8
:100E3800000000000000000070B305082C310020FD
:100E48009CFF2C01000000001C4B0020E0150C1733
:100E580000000000E049002002000000A8B30508D7
:100E6800904900200100FF7F010000008F49002009
:100E780002000000B4B30508734700200300000017
:100E8800C4B305087247002003000000C4B3050876
:100E9800284900200000E80301000000264900203E
:100EA8000000E80301000000244900200000E803D6
:100EB80001000000224900200000E80301000000B2
:100EC800204900200000E803010000001E4900201E
:100ED8000000E803010000001D4900200014010083
:100EE8001C49002003000000D4B305083449002041
:100EF8000000F40101000000324900200000F40164
:100F080001000000304900200000F4010100000049
:100F18002E4900200000F401010000002C490020A7
:100F28000000803E010000002A4900200000803EA9
:100F3800010000005D490020196401005C4900209F
:100F480002000000E4B305085A490020E803D0076E
:100F58000A00000058490020006401000A0000004F
:100F68004D490020006401004C4900200064010044
:100F780054490020006401000A0000005349002081
:100F8800006401000A0000005249002000640100CA
:100F98000A00000057490020006401000A00000010
:100FA80056490020006401000A000000554900204D
:100FB800006401000A0000005149002001FF0100FF
:100FC8000A0000005049002001FF01000A0000004B
:100FD8004F49002001FF01000A0000007C47002063
:100FE8000000F401010000007A4700200000F4012D
:100FF80001000000784700200000F4010100000013
:10100800764700200000F40101000000744700202A
:101018000000F401010000004549002000640100BF
:101028004449002000640100434900200064010095
:1010380042490020FF0801004149002001640100E5
:10104800D5DF010899DF0108F0B305084049002001
:10105800006401003E4900201400E803010000007C
:101068003C490020E80330750A0000003A49002096
:1010780000C801003949002000C801003849002093
:1010880000C8010037490020006401000A00000080
:10109800744900200000D007010000006F490020BB
:1010A80000C801006E49002000C801006D490020F9
:1010B80000C80100724900200000D00701000000AC
:1010C8006C49002000C801006B49002000C80100DD
:1010D8006A49002000C80100704900200000D007BC
:1010E800010000006949002000C80100684900208B
:1010F80000C801006749002000C801000000000086
:1011080009DD010860B405086747002034000000C5
:10111800FCB405086647002000C8010064470020A9
:10112800E803D007010000004F4D4E494255534691
:1011380034000000EF46002000030100EE460020C6
:101148000003010069DC010841DC0108D0B505088D
:10115800FDDB0108B1DB010824B6050891DC0108B4
:1011680009E80108A4B60508EC46002001030100BF
:1011780035E1010809E1010898B905083DDB0108D6
:10118800F9DA0108FCB905081FDD010819FD010895
:1011980098BA05088DF301080000000040BB050857
:1011A800F1EB010895E10108DCBB050871DD0108D8
:1011B800000000005CBC050849DE0108F5DD0108F7
:1011C800C0BC0508D9DE01089DDE01085CBD050824
:1011D80011E0010859E00108DCBD05084B49002071
:1011E80001060100B9DD010885DD0108D8BE050842
:1011F80015DF01086DE8010848BF05088DE0010802
:10120800F1E8010828C0050836490020010301005B
:10121800D9DC0108A9DC0108FCC0050861E1010866
:101228000000000060C1050881DB0108D9E701085A
:10123800C4C10508000000000000000050C20508F5
:10124800E1E0010869E90108D0C20508CE4600209E
:1012580088136F1701000000D046002088136F170D
:1012680000000000A626002000000000000000008A
:10127800A42600200000000000000000A226002094
:101288000000000000000000A02600200000000070
:10129800000000009E260020000000000000000062
:1012A8009C260020000000000000000084040020AC
:1012B8000000000000000000A64600200200000018
:1012C80058C40508CC46002088136F170100000099
:1012D8006C31002088136F17000000008DDA0108B8
:1012E8000000000064C40508EB490020010000006C
:1012F800B8C405086E31002001000000C4C4050808
:101308006431002002000000CCC405080000000081
:1013180000000000D8C4050879DA010800000000C0
:1013280074C505080000000000000000C8C50508D5
:10133800000000000000000038C6050868310020E1
:10134800E0150C17000000001A0300000000000060
:101358000000000000000000000000000000000085
:10136800000000000403090412010002000000400C
:10137800830420570002010203010000FDB902089E
:10138800997302089573020891730208A97D0208EF
:101398008D73020889730208F8C90508518C010881
:1013A8000D6E010891970108000000000000000080
:1013B80095940108B19301080000000000000000A6
:1013C800000000004569010831740208257402080C
:1013D800D9820208F5820208DD730208BD8202087C
:1013E800A18202080068214C1F0000001C000000B8
:1013F8001F0000001E0000001F0000001E0000006B
:101408001F0000001F0000001E0000001F00000059
:101418001E0000001F000000FF01FF000100000087
:1014280000000100E0010000FFFFFFFFFFFF0801CF
:10143800FF0000000000803F0000000000000000E6
:10144800000000000000803FFFFFFFFFFFFFFFFFDD
:10145800FF00000001D601000000803F00000000EE
:1014680000000000000000000000803F00000000B5
:101478000000000000000000000000000000000064
:101488000000000000000000000000000000000054
:101498000000803F00000000000000000000000085
:1014A800010000000000000084B2002008000000D5
:1014B8000000000074B2002008000000E86D060873
:1014C800F46D0608006E06080C6E0608186E06080D
:1014D800246E06083860060854220608A02006086C
:1014E8008C6D06085C4E0608D86D0608DC6D06088B
:1014F800E06D0608E46D0608C86D0608CC6D0608A0
:10150800D06D0608AC1E0608D46D06081900C80080
:10151800F4012003C86D0608CC6D0608306E060875
:10152800D06D0608346E0608386E0608717A04080D
:10153800000000000000000000000000000004019E
:10154800000000000000000210000000070000007A
:10155800000000000000000001020304060708095B
:1015680008000000FFFFFFFF0D6901080969010875
:1015780005690108F9680108F568010801690108A9
:10158800FD68010801000000006002401060024090
:101598000000000000000000000B00000000000038
:1015A80000000000000000000060024028600240C7
:1015B8000100000000000000060C00000000000010
:1015C800000000000000000000600240406002408F
:1015D8000200000000000000100D000000000000E4
:1015E8000000000000000000006002405860024057
:1015F8000300000000000000160E000000000000BC
:10160800000000000000000000600240706002401E
:101618000400000000000000200F0000000000008F
:1016280000000000000000000060024088600240E6
:101638000500000000000000261000000000000067
:10164800000000000000000000600240A0600240AE
:10165800060000000000000030110000000000003B
:10166800000000000000000000600240B860024076
:101678000700000000000000362F000000000000F6
:1016880000000000000000000064024010640240F6
:10169800000000000000000000380000000000000A
:1016A80000000000000000000064024028640240BE
:1016B80001000000000000000639000000000000E2
:1016C8000000000000000000006402404064024086
:1016D8000200000000000000103A000000000000B6
:1016E800000000000000000000640240586402404E
:1016F8000300000000000000163B0000000000008E
:101708000000000000000000006402407064024015
:101718000400000000000000203C00000000000061
:1017280000000000000000000064024088640240DD
:101738000500000000000000264400000000000032
:10174800000000000000000000640240A0640240A5
:101758000600000000000000304500000000000006
:10176800000000000000000000640240B86402406D
:1017780007000000000000003646000000000000DE
:101788000000000000000000C04A0608686A060859
:101798000000000039790408A08601000400000058
:1017A8000000000000000000000000000000000031
:1017B8000000000000000000000000000000000021
:1017C8000000000000000000C04A06084C6E060831
:1017D8000000000041810008E80300000400000048
:1017E80000000000000000000000000000000000F1
:1017F80000000000000000000000000000000000E1
:10180800000000000000000000580608301F06080D
:1018180000000000055A03087D00000006000000D3
:1018280000000000000000000000000000000000B0
:1018380000000000000000000000000000000000A0
:101848000000000000000000F04906080000000049
:101858000000000019DF0008E80300000300000092
:101868000000000000000000000000000000000070
:101878000000000000000000000000000000000060
:101888000000000000000000546E06080000000080
:1018980000000000DD5B04081027000003000000C2
:1018A8000000000000000000000000000000000030
:1018B8000000000000000000000000000000000020
:1018C8000000000000000000204A06080000000098
:1018D8005DDE03088DC200085F7600000500000089
:1018E80000000000000000000000000000000000F0
:1018F80000000000000000000000000000000000E0
:101908000000000000000000D44C060800000000A1
:101918000000000029ED0008102700000100000069
:1019280000000000000000000000000000000000AF
:10193800000000000000000000000000000000009F
:101948000000000000000000606E060800000000B3
:101958000000000043810008E803000005000000C3
:10196800000000000000000000000000000000006F
:10197800000000000000000000000000000000005F
:1019880000000000000000006C6E06080000000067
:101998000000000025810408204E0000030000001C
:1019A800000000000000000000000000000000002F
:1019B800000000000000000000000000000000001F
:1019C80000000000000000007C6E06080000000017
:1019D80000000000297F0408204E000003000000DA
:1019E80000000000000000000000000000000000EF
:1019F80000000000000000000000000000000000DF
:101A080000000000000000008C6E060800000000C6
:101A18000000000071D30008400D0300030000001F
:101A280000000000000000000000000000000000AE
:101A3800000000000000000000000000000000009E
:101A48000000000000000000844B060800000000B1
:101A58000000000005C00008102700000100000079
:101A6800000000000000000000000000000000006E
:101A7800000000000000000000000000000000005E
:101A88000000000000000000084A060800000000EE
:101A980000000000D1000308102700000300000028
:101AA800000000000000000000000000000000002E
:101AB800000000000000000000000000000000001E
:101AC80000000000000000009C6E060800000000F6
:101AD80000000000E5680208A0860100010000007F
:101AE80000000000000000000000000000000000EE
:101AF80000000000000000000000000000000000DE
:101B08000000000000000000F44906080000000082
:101B180000000000F9A4000850C300000100000004
:101B280000000000000000000000000000000000AD
:101B3800000000000000000000000000000000009D
:101B48000000000000000000FC490608000000003A
:101B58000000000021D40208A08601000000000057
:101B6800000000000000000000000000000000006D
:101B7800000000000000000000000000000000005D
:101B880000000000000000002C54060800000000BF
:101B98000000000015A20008A86100000100000074
:101BA800000000000000000000000000000000002D
:101BB800000000000000000000000000000000001D
:101BC8000000000000000000A46E060800000000ED
:101BD80000000000553C0308A08601000100000039
:101BE80000000000000000000000000000000000ED
:101BF80000000000000000000000000000000000DD
:101C08000000000000000000DC4C06080000000096
:101C180000000000C9830008A00F000001000000B8
:101C280000000000000000000000000000000000AC
:101C3800000000000000000000000000000000009C
:101C48000000000000000000B06E06080000000060
:101C580000000000FD2B0308102700000100000011
:101C6800000000000000000000000000000000006C
:101C7800000000000000000000000000000000005C
:101C88000000000000000000B04B06080000000043
:101C98000000000001800008A00F00000100000003
:101CA800000000000000000000000000000000002C
:101CB800000000000000000000000000000000001C
:101CC80000000000000000008C4B06080000000027
:101CD80000000000B51F03081A41000001000000C1
:101CE80000000000000000000000000000000000EC
:101CF80000000000000000000000000000000000DC
:101D080000000000000000003C4D06080000000034
:101D180000000000397201081027000001000000CF
:101D280000000000000000000000000000000000AB
:101D3800000000000000000000000000000000009B
:101D480000000000000000007C6A06080000000097
:101D580000000000AD0402081A4100000100000064
:101D6800000000000000000000000000000000006B
:101D7800000000000000000000000000000000005B
:101D88000000000000000000BC6E06080000000013
:101D980000000000A1780108400D030000000000C9
:101DA800000000000000000000000000000000002B
:101DB800000000000000000000000000000000001B
:101DC8000000000000000000C46E060800000000CB
:101DD80000000000FF800008400D03000000000024
:101DE80000000000000000000000000000000000EB
:101DF80000000000000000000000000000000000DB
:101E08000000000000000000CC6E06080000000082
:101E1800000000007936030850C3000003000000EA
:101E280000000000000000000000000000000000AA
:101E3800000000000000000000000000000000009A
:101E48000000000000000000D86E06080000000036
:101E5800000000009D7E040840420F0000000000C2
:101E6800000000000000000000000000000000006A
:101E7800000000000000000000000000000000005A
:101E88000000000000000000E46E060800000000EA
:101E980000000000A183000850C3000000000000FB
:101EA800000000000000000000000000000000002A
:101EB800000000000000000000000000000000001A
:0C1EC80000000000000000000000803F4F
:10800000274B1B782DE9F041002B47D0254B1B78DF
:10801000002B43D0244C237803F0FF07002B3DD1E5
:10802000224B1A68821A002A38DB214A214D127825
:10803000D3F804E0DFF88C80013A062606FB0251F3
:1080400006FB02524FF00A0C89885288B1FBFCF102
:108050000EF1010C18F80EE0C3F804C001FB0EF19C
:108060001044BCF10E0F084488BF5F60186023788D
:1080700003F0FF01002BFAD1012323700E4B0F4AAE
:108080001B68128A5A600E4A12685162118841F0C8
:10809000010111801A6842F001021A60BDE8F08106
:1080A00047B1002070B20020E4BD00207817002006
:1080B000E5BD002058E3050868B20020F4BD0020AB
:1080C00060B20020788105080A4A0B4913680360F2
:1080D00010B55368436093688360002301EB43123B
:1080E0009479A40602D51379C37210BD01334E2BC7
:1080F000F4D1FAE7878105088CEA050870470C4B34
:108100001B78DB0700D570470A4A1368002BFAD0AA
:108110004FF47A7101FB03F39842F4D3064B1B78BA
:108120001BB9064B99681B690B60002313607047ED
:1081300052260020589F00204C9F00209C99002030
:10814000704770B50B4CA3689BB15A68821A002A1D
:108150000FDB0546002603E05A68AA1A002A08DB4E
:108160009A681E73A26018461A689047A368002B8D
:10817000F2D170BD781700202DE9F043077B91F80C
:1081800000C0DFF8B8E047610023C0E90677C0E926
:108190000877C0E90A77C0E90C77C0E90E73C0E937
:1081A0001033C0E91233C0E91433C0E916336FEA63
:1081B0000C0C5FFA8CFC03669846142405254CFAD7
:1081C00005F303F00103002B14BF19260A264344CC
:1081D00015F0010F04EB06015FFA83F889B214BFB2
:1081E000B9464FF00009234600EB830201339BB2EE
:1081F0009942C2F81490F7D1013D34446A1CA4B2EC
:10820000DDD118F0010F14BF19230A23E518ADB210
:10821000224600EB8201013292B2AA424F61F8D1AC
:1082200023449BB21A1D00EB820201339BB2002152
:108230005160AEF80C300361BDE8F0837817002080
:10824000254BDB890B332DE9F04F8A4601F1060BF4
:108250001FFA83F94FF00108002100251AF801EBFD
:108260002C464A460127A2F10B039BB207E00133DB
:108270009BB2B0F80CC0C6F814C093420AD000EB11
:108280008306002FF3D100EB830601339BB29342A8
:108290007761F4D1043300EB83030134092D596075
:1082A000E4B20CD0092C14D008FA05F313EA0E0F2F
:1082B00014BF012700270C3292B20135D3E709F130
:1082C0007809DA451FFA89F9C7D1034BD981BDE88E
:1082D000F08F0027EFE700BF781700202DE9F04767
:1082E000DFF860E0BEF8103004338A461FFA83FCE2
:1082F00001F1090801271AF8016BE1460025A9F1EF
:10830000040307FA05F29BB23240C2B1818900EB47
:10831000830401339BB24B456161F6D101350433CF
:10832000082D1FFA83F9EAD10CF1200CC2451FFA7F
:108330008CFCE0D10023AEF81030BDE8F087114688
:10834000E5E700BF78170020F8B532220446002187
:1083500002304FF0BDFE0C4F0022234605210425BC
:108360001046D65D9E700132062AD9701D71987133
:10837000597103F10803F4D101232380522384F8B7
:10838000323064232386F8BDFCE70508024A034B1C
:10839000127819784CF028BB45B1002046B1002076
:1083A00038B5084D002415F8013BFF2B184605D0C1
:1083B00040F064FA014620460BF0E2FA0134042C46
:1083C000F1D138BD5CD30020084B1B7803B1704756
:1083D0002DE9F04F064D2DED028B2B685905A9B004
:1083E00008D429B0BDEC028BBDE8F08FBC2E002074
:1083F00068E8002083461AF01DFBBC4B1B78012B5C
:1084000000F04682BA4B1B78002B38D0B94CBA4AE0
:10841000A36AABEB0303934200F2C282B74F97F813
:108420000090B9F1000F00F06382B54A136833B3CE
:10843000B44EE16BB068ABEB010181421FD394F8FD
:108440003860002E00F03D8794F84170AE4994F8F2
:1084500040C00868013EF6B2013784F83860FFB2C8
:10846000002E00F0C98613F8011B84F841708C447B
:10847000136084F840C00AF027FDC4F83CB00AF04D
:1084800097F8A24B93F8008000F57A70B8F1010FCD
:108490001E9000F0C5819E4B1B78002B00F0C7801A
:1084A0009C4F3B68002B00F0C2809B4B914CD3F853
:1084B00000A0A36CAAEB0303632B40F2B880DFF8A3
:1084C0009892964EDFF89482412014F00DFBB9F992
:1084D000023086FB0320DB17C3EBA00080B214F050
:1084E000E7FAB9F9003086FB0320DB17C3EBA000E5
:1084F00080B214F0DDFAB9F9043086FB0320DB17F3
:10850000C3EBA00080B214F0D3FA98F800103868DA
:108510000AF0DAFC94F84C6016F0010900F0778656
:10852000DFF83C92D9F800309A0672D57C4B7D4E2C
:108530001B789B0741F1FB80B37C042B8CBF03238A
:1085400002230393472014F0CFFA306814F07CFA2A
:10855000706814F079FAB389734A3868A2FB032370
:10856000C3F34713194602930AF0AEFC98F80010C3
:10857000D9F80020029B12F0140F83EA010388F857
:10858000003016BF694BB068186814F05DFA039BA1
:10859000B67C386843EA8606F6B231460AF094FCA7
:1085A00098F8003038685E40314688F800600AF07C
:1085B0008BFC94F84C6066BBDFF8A8914F2014F058
:1085C00093FAD9F8000014F03FFAD9F8040014F037
:1085D0003BFA304614F038FA012138680AF074FC8E
:1085E0004F4A98F800301678386806F00106314690
:1085F00083F0010388F800300AF066FC98F8003038
:1086000038685E40314688F800600AF05DFC94F8F6
:108610004C60474AC4F848A0731CDBB2A2FB0312AB
:10862000D20802EB8202A3EB420384F84C30414FA4
:108630003B78022B00F02E83324C637B032B00F03F
:108640003D833D4B1B787BB13C4B1B6863B1294C90
:1086500009F0AEFFA36D44F61F62C31A93420646AB
:1086600002D913F04DFBA665354B1B78002B40F06B
:10867000E482344D2B78002B00F08D80324B1B7838
:10868000002B3FF4AEAE1B4F304C314D07F17C0652
:1086900020680AF015FC00283FF4A3AE20680AF019
:1086A00007FC2B78804673B1013B20682B700AF0E1
:1086B00007FC00283FF495AE20680AF0F9FB2B7800
:1086C0008046002BF0D12349032230464FF0E7FCCF
:1086D00097F87C1087F87F80023911F0FF0100F0D5
:1086E000D582314432464FF6FF733DE0E1850020EC
:1086F000EE850020781700203F0D03001C36002077
:10870000183600208801002010360020EF85002058
:10871000FC850020E43500206CBD0020676666669D
:10872000842F0020DCE900201F85EB51D435002088
:10873000CDCCCCCC4EA7002004860020B83500203C
:108740008086002009A40020078600200C860020D7
:1087500010860020F517002038260020E83500207C
:10876000A4250020D835002012F8010B1B1A9142D5
:108770009BB2F9D11A0A1FFA88F8904588D197F868
:108780007E20DBB29A4283D1734813F059F82B78DC
:10879000184428707CE7714C94F86130012B40F24A
:1087A000218294F862006E4E6E4A411C184406EB1A
:1087B0008000A2FB01726C4ED0F8387130789208BC
:1087C00002EB82028A1A84F8622028B16749684A5B
:1087D0000968914200F00C82BFB1DFF8B881CDF892
:1087E0007C8028AEA8F1120946F8289D48F2A5021F
:1087F000152359463046A4F8642084F86630B847FB
:10880000002840F0518494F861305A4A0133A2FBA9
:108810000312520802EB42029B1A84F861302DE7E2
:10882000554F386800283FF436AE4FF000098DF8F8
:1088300070900AF045FB30B3504E484C38680AF04F
:1088400037FB83B27E2B00F08484327BD7F800C0E4
:10885000002A40F0728394F84310002900F0CA8186
:108860001B2B84F8432040F06F8360460AF028FBFE
:10887000002800F04785386886F80C800AF020FB55
:108880000028DBD100201EAA1CA914F047F902E63B
:108890003B4B1B68002B3FF4B5AD304C394AE369C4
:1088A000ABEB030393427FF7ADADDFF8EC9094F8A8
:1088B0002030D9F80070C4F81CB00133BA0784F82E
:1088C000203000F1078617F0340F40F0EF8594F860
:1088D00020603F0700F1A68516F0070700F01E850F
:1088E000282E00F0EE86284B5E201B68984789E50D
:1088F000DFF8A880D8F800000AF0E2FAC0B2012838
:108900000ED902281D4E40F0E0843378002B40F051
:108910000B86236B7268ABEB0303934280F00E87E8
:108920001A4A1368002B3FF4AAAD397800297FF466
:108930007FAD174BD8F800001B689B781E3B012BBE
:1089400040F2ED853430022114F0F4FE01220023C0
:108950003A7084F8403090E5F41700207817002032
:1089600078810508CDCCCCCC60940020604B0020F1
:1089700050B20020ABAAAAAA043600208801002029
:10898000B426002047E801004426002018360020C5
:1089900014360020F1170020A425002010360020F6
:1089A000CC4BCD481B88CD49CD4F4E7A3968CD4A46
:1089B0000533A0FB0303E06A081A4FF47A71DB0861
:1089C00001FB06F15FFA83FC00261B0A884282F84D
:1089D0001EC0D37782F814C053759670167180F05C
:1089E000F783C14BC1491B68C14EC248B6F900C0EC
:1089F0000768DFF84883806881FB03E6DB17C3EB79
:108A0000661303F5FA739BB293761B0AD37688FB41
:108A1000079388FB0098FF17C017C7EBA307C0EBAD
:108A2000A8000CF5EA43DFF818E3177782F8200076
:108A30003F1200123033577782F8210081FB0C87F8
:108A40004FEAEC701B12AC4E9EF800E082F8233027
:108A5000C0EB67107830A94B82F824000CF1300C81
:108A6000B07C03901EF0020F82F822C0987600F0CE
:108A7000F382D6F80080A248D6F804E0A14ADFF8D5
:108A8000C4A280FB08794FEAE87C80FB0E70CCEB37
:108A9000A95C4FEAEE77C7EBA05702FB0C8000EB16
:108AA000400002FB07E207EB8707400007EB870760
:108AB00002EB4202029005975200039F1046029A71
:108AC0000390052F029F8AFB022902464FEAA9491B
:108AD0008AFB022A4FEAE7774FEAD8780CEB8C0C36
:108AE0004FEAAA420CEB8C0C83F80980A9EB07082B
:108AF0000492B6F80CA0B6680696624647464FFA4E
:108B000088F8814E4FEAE07C08EB82080298049ACC
:108B100006FB1707A2EB0C00039A844606FB102005
:108B2000069A81FB02964FEAE279059A4FFA8CFC8D
:108B3000C9EB66164FEADE7E0CEB820283F80EE08C
:108B40000AEBCA0A81FB07CE81FB00C106F5FA7C5D
:108B50006E4EDFF8F4914FEA8A0AA6FB0A6A4FEAE2
:108B6000E070C0EB61106A4E58744FEA9A111FFA18
:108B700088F892B202914FEAE7774FEA122A3688D4
:108B8000DA73C7EB6E174FEA18218CF3100C029AB8
:108B9000B9F800E083F80A80D9724FEA2729CCF3AC
:108BA00007214FEA202883F810A0DE744FEA122232
:108BB0004FEA162634BF4FF0320A4FF0330A1F73C4
:108BC00083F80D9083F8128083F815C09975029987
:108BD000D9711A721E7583F81BA083F81CE0C4F8C3
:108BE00028B01BE44B4A02EB8302D2F83871F3E55C
:108BF000494FF2E57D2B00F09D8494F8462022B188
:108C000080F02003DBB284F84610B4F8442094F8D6
:108C100042101A44062992B229D804EB010E60468C
:108C20000131A4F844208EF8143084F842100AF080
:108C300047F900287FF402AE24E6384C227832B19E
:108C4000374B384918680AF00BF900232370364E69
:108C50003478002C7ED0DFF8F490D9F86050002DE5
:108C600040F08782314B3570C3F85CB001E5D3B278
:108C700003EB1222FF2A86F80C80A4F8442040F06F
:108C80005C8160460AF01CF92948FCE5FF224FF69A
:108C9000FF7370E509F08CFC264B1B68C01A40F688
:108CA000B833984200F25C81DFF8A48098F8043071
:108CB0003A2B00F0498400233B70C2E41E4B186835
:108CC0000AF0F2F800283FF4BCAC022200236273E1
:108CD0003B70B6E4CC2E0020CDCCCCCC08260020B6
:108CE0006CBD002024860020D43500201F85EB5168
:108CF000E62E00202C260020DCE9002050860020F3
:108D00006BCA5F6B806967FF40420F00D34D6210F2
:108D10000236002078810508C1800108E085002026
:108D20007C860020A0850020828600207817002005
:108D30008C17002054A70020C0A800206766666634
:108D4000842F002083DE1B43407B00209C86002074
:108D50003CA70020C24E3278002A40F00B81C14C63
:108D600094F82B31002B40F0B682BF4ABF491268FD
:108D7000096891422CD894F82021002A40F01487E9
:108D800094F82131002B40F0388694F82231002BE2
:108D900040F0428794F82331002B40F03B8794F851
:108DA0002431002B40F03C8794F82531002B40F013
:108DB000358794F82631002B40F0388794F8273116
:108DC000002B40F0318794F82831002B40F02A879F
:108DD000A74CA84FE26D3978A74B93FBF1F31344EE
:108DE0009B45FFF446ACA54A94F86030C4F85CB0EB
:108DF00012F8038018F0010F44D0DFF8A8929FED1D
:108E0000A08AB9F9023007EE903AF8EEE77A9D4B66
:108E10001F9367EE887A28AEFDEEE77AA3F13D0254
:108E200046F8282D17EE902A91B240F6C80223F892
:108E3000402C1E2203F83E2C304622F0D5F8B9F91A
:108E4000003007EE903AF8EEE77A304667EE887A1F
:108E5000FDEEE77A17EE903A99B222F0C5F8B9F92B
:108E6000043007EE903AF8EEE77A304667EE887AFB
:108E7000FDEEE77A17EE903A99B222F0B5F8304657
:108E800028F082FC18F0020F40F0E48518F0040F7F
:108E900040F0758518F0080F43D07A4B7A4E1F9337
:108EA00028ADA3F13D0245F8282D41F2C811022258
:108EB00003F83E2C23F8401C2846316822F07CF849
:108EC0002846716822F078F8B389242101FB03F168
:108ED0004FF064082846323191FBF8F189B222F054
:108EE00083F8F38903EB8303590089B2284622F003
:108EF0007BF8664B664A1B689342A8BF134623EA79
:108F0000E37393FBF8F303F57A7189B2284622F0F4
:108F10006BF81E9BB27C591C1E9128461A7028F0D3
:108F200033FC94F860303978013393FBF1F201FBA4
:108F3000123384F86030FFF79CBB604609F0C0FF35
:108F400000287FF47BAC9DE40D2B7FF494AC60464D
:108F5000A4F8442009F0B4FF00287FF46FAC91E43A
:108F6000434AB2F84E3000210133A2F84E30397036
:108F7000FFF767BB434D474B0093A5F13F01C8275F
:108F8000CDE91C1505F8407C434B444A44491EA8D2
:108F900021F046F81C9D6B1C1C932C701C9B2922F5
:108FA000591C1C911A701C9BEA22591C1C911A70A6
:108FB0001C9B5A1C1C921EA81F704CF0D1FD471C14
:108FC0001EA93A461C984DF05FFD1C9AD319013337
:108FD0001C93D4551C9B5A1C1C921C701C9B5A1C25
:108FE0001C921C701C9B5A1C1C921C701C9B5A1CB3
:108FF0001C921C701C9B5A1C1C921C701C9B5A1CA3
:109000001C921C701C9B5A1C1C921C701C9B5A1C92
:109010001C921C701C9B5A1C1C921C701C9B5A1C82
:109020001C921C701C9B5A1C1C921C701C9B5A1C72
:109030001C921C701C9B0122991828A81C911A7064
:1090400050F8303D5B1B2B7028F09EFB084B3470B2
:10905000C3F85CB0FFF70DBB2D22DA76BFE500BF89
:1090600081860020887D00206CBD0020C08000200B
:109070007817002098860020A086010094860020A2
:1090800058A08B41A0850020DCE90020D4350020C9
:1090900020A107004FD30020C4FF0508CCFF05081E
:1090A000D8FF0508382600201E9B4B4540F2D1838F
:1090B000A8F1130003F1FF3C002141F2210710F851
:1090C000012F81EA022212B293B2002AACBF5B00E8
:1090D00087EA43039BB21A0454BF5B0087EA430349
:1090E0009BB2190454BF5B0087EA43039BB21A0486
:1090F00054BF5B0087EA43039BB2190454BF5B0073
:1091000087EA43039BB21A0454BF5B0087EA430318
:109110009BB2190454BF5B0087EA43039BB21A0455
:1091200054BF5B0087EA4303844599B2C7D13046F8
:1091300021F080FFC9491E9EC948761A152EA8BF86
:10914000152632464DF0A0FC94F861302E70FFF7E2
:109150005CBB38688DF8709084F8429084F8438046
:1091600086F80C9009F0ACFE00287FF467ABFFF79F
:1091700089BB0024DFF83083254650270BE01C44D0
:10918000EFF3118387F31288D9F86020944218DA3C
:10919000DBB283F3118819F804A0601C51464844DF
:1091A000002212F09BFC0AF101030028E7D041469F
:1091B0003A2012F0F1FB0AF1010A0543EDB25444E2
:1091C000DEE70022DBB2C9F8602083F3118849E5AD
:1091D000A44B39681B78E162013B012B40F26B82A2
:1091E000A14B1B78013B012B3FF6FBAB1621012362
:1091F00091701371FFF7F5BB0CF10103614684F820
:10920000417084F8403009F05FFEFFF736B9974BA4
:109210001B88DE050CD4580600F18D82D90700F1B9
:10922000418313F0020F0CBF4FF004094FF00C09FB
:109230008F4A904B1678DB7806F001060BB146F0AA
:109240000206532013F050FC8B4B1B8803EB830367
:10925000580080B213F02CFC002013F029FC36F0EB
:10926000A5FD864BC0EB002083FB00231A18C31713
:10927000C3EB6223FF2BA8BFFF23DAB21146386885
:10928000029209F021FE029A98F8003038685340A3
:1092900049EA0606002188F8003009F015FE31463B
:1092A000386809F011FE98F8003038685E40F6B270
:1092B000314688F8006009F007FE94F84C60FFF72B
:1092C0007AB914F06FFAFFF7D8B814F05BFA0123FB
:1092D0003370FFF725BB6A4B84F82B2128A8A3F134
:1092E0003A02684940F8282D4FF4327243F8401C86
:1092F00023F83C2C1F9328F047FA634BC3F85CB06B
:10930000FFF7B7B938688DF8708086F80C8009F0DF
:10931000D7FD00287FF492AAFFF7B4BAFF2012F01D
:1093200017FA002800F0BA820378FF2B00F0B88209
:1093300090F90110022014F051FAFF2012F008FAFF
:10934000002800F0E5810378FF2B00F0E181B0F9FF
:109350000C304E494E4A097E03EB830303EB830333
:1093600049089B0093FBF1F382FB0312D917C1EB71
:10937000A20109B2474F032014F030FA7B7A002B88
:1093800040F06982D9F80030980640F1C3814FF46B
:10939000005028F033FA002840F0A1823E4E4FF4EE
:1093A000806028F02BFA002840F0E282318A94F89D
:1093B0002020B37CB1F5967F08D902F00F02072A6E
:1093C00004D842F20F738B4228BF0B46334FFA7911
:1093D000CAB1203B07EE903A9FED317AF8EEE77A7A
:1093E000F6EE006A67EE877ABEEE007AF5EEC07A96
:1093F000F1EE10FA58BFB0EE667A77EE877AFDEE9E
:10940000E77A17EE903A052019B214F0E7F94FF415
:10941000805028F0F3F9002840F07F8294F8206013
:10942000FFF75EBA4FF4007028F0E8F900283FF427
:1094300053AA16F003077FF44FAA1A4A0A23B2F977
:10944000041091FBF3F1142014F0C8F939461C20E4
:1094500014F0C4F994F82060FFF73EBADC1700203E
:10946000F4A3002074B000209CB00020E42E002063
:109470005226002054260020CC2E002003082080F5
:10948000A0850020C8057DEA7817002010D60020AE
:1094900067666666F0250020DCE9002008260020CB
:1094A000E4380E3F38260020BD1703084FF4006053
:1094B00028F0A4F928B1C44B3020B3F9001014F0FF
:1094C0008DF994F82060B30700F0A481D9F80070FA
:1094D000FFF7FFB9702028F091F900283FF4F3A9B5
:1094E000BA4F2426A7F12C08B7EC017AD8ED007A00
:1094F00067EE277A3046FDEEE77A013617EE903AAE
:10950000C3EB431103EB8103D90009B2F6B214F0A7
:1095100065F9272EE8D1D9F80070FFF7D4B90221F8
:1095200009F0BEFCFFF712BAC4F830B086F800901C
:10953000FFF7F6B9604684F8468009F0C1FC0028C0
:109540007FF47CA9FFF79EB998F80210404637F0E7
:1095500079F900287FF4AFAB9D4B186809F0B0FC97
:1095600000287FF469A89B4E9B4C98F80330B27B8F
:10957000039394F850300293042305927373002AE6
:1095800000F0AC8396F80F80944BDFF880A208F1CE
:1095900001085FFA88F808EB480903EB89095FFACC
:1095A00088F3152B41465046F37308F1010800F289
:1095B000ED8520F09BFA28B999F80830FF2B09F1C6
:1095C0000C09ECD1F27B864B06924FF00C0808FB9D
:1095D0000238DFF81892D8F82410059108464CF0AC
:1095E000BFFAD8F8283004935FFA80F818464CF098
:1095F000B7FA5FFA80FA069A059908EB0A00083074
:1096000089F8070022F00F0089F80A0002F00F0223
:109610000AEBC80089F80D2089F80E00424609F1CE
:109620000F004DF031FA049B08F10900194609F1C9
:109630000603524618444DF027FA99F8072002F124
:10964000010AC2B1013A09F10708664B58FA82F8DB
:1096500009F1060C00221CF8011F51408A00C808BD
:1096600082EA410200F018004A4043FA00F14A4001
:10967000E045D2B2EFD15C4B03980AF803204BF0DF
:109680007DFCB37B013B5FFA83F886F80E80B8F16E
:10969000000F00F0FB83DDF808A04D4B99F8022085
:1096A0001868524909F0DCFB032384F850A0737357
:1096B0003B70FEF7C6BF1021022391701371FFF7B4
:1096C00090B94B4A4B4B17684B4EA3FB07239B0BA0
:1096D000A6FB03214909C1EB0111A3EB8103190288
:1096E00009B20023172084F8203014F077F8434B98
:1096F000A3FB07239B09A6FB03125209C2EB02122C
:10970000A3EB820319B2182014F068F8FFF7EBB846
:1097100000212FE61E077FF581AE394B93E8030049
:109720001EAB83E80300184614F070F876E60123B8
:109730000393FEF707BF4FF0100979E54FF0010AD8
:10974000D8F8000086F800A009F0B2FB0290D8F823
:10975000000009F0ADFB029B8146580600F0A58091
:10976000B9F1800F00F032827F2B7FF4D9A8254A0F
:109770001378002B00F0B48409F0F003E02B7FF4A1
:10978000CFA894F83920204E09F00F09002A00F0E4
:1097900089840022737084F83920DFF874A09AF865
:1097A0000030002B00F0BE84A9F10709B9F1070FC2
:1097B00000F2B484DFE819F0DA04B204AA04B204B7
:1097C0007204B2046504E604E62E0020D400001002
:1097D000C0A8002088010020781700209C8105087F
:1097E000788105080007090EBAE90020B4E90020D5
:1097F0006CBD002073B2E74589888888D34D62101C
:109800009481050873840020DC7C00200836002049
:10981000609400204FF4806027F0F0FF00283FF4B0
:1098200055AEAE4AAE4B1768E2694FF064089A42F3
:1098300098BF0027102097FBF8F631B213F0CEFF47
:1098400008FB167109B2212013F0C8FF94F82060BC
:109850003CE600216BE4012027F0D0FF002840F017
:109860005F81BB7A002B3FF48DAD022027F0C6FF4D
:10987000002840F09283042027F0C0FF00283FF426
:1098800081ADBB89002B40F00082964B996881F333
:10989000100109B2042013F0A1FF73E5014649E568
:1098A000394647E54FF00809C2E48F4B1A78002A81
:1098B00040F09181B9F18A0F00F07881B9F18E0FF3
:1098C0007FF42EA83B78002B7EF4AFAD874A884BFF
:1098D00013602D2384F838301368FFF726B8854BC2
:1098E0001B78990700F1A4814FF4806027F086FF70
:1098F000814E00283FF45AAD4FF000084FF0640944
:10990000012098FBF9F739B213F068FF09FB1781C2
:1099100009B2092013F062FF48E5764B1A7800235C
:10992000CDE91C33930700F16A8194F82430012BB0
:1099300000F06581B7F90030DFED706A07EE103A8C
:10994000B7F9023007EE903AB8EEC77AF8EEE77A48
:1099500027EE267A67EEA67ABDEEC77AFDEEE77AA5
:109960001EA88DED1E7ACDED1F7A13F04FFF55E541
:10997000604B1B789A07BFD5D6F80880BEE7604BCE
:10998000DFF898A11F93C82223F8402C9AF80020F2
:10999000A3F140093D3B1E93D6074FF0210389F800
:1099A000023040F10483574B1B88590500F16B814D
:1099B0001A0500F14C83DE0500F10A83DD0700F192
:1099C0005283980740F147834F491EAE304621F03D
:1099D000D9FA9AF80030D90740F133831E9B4B4ADD
:1099E000591C1E91002119701E9B9B1A304689F844
:1099F000013027F0C9FEFFF74DBA0125404B94F81E
:109A00002A211F9328AFA3F13901A3F1400647F89B
:109A1000281DC821101D03F8401C4FF4E4734EF6B6
:109A20007D2170707180384602FB0541B380B571AD
:109A300021F0B8FA1E9B721C9B1A7370384627F0EF
:109A4000A3FE6319324A002183F82011C2F85CB0EA
:109A5000FEF70FBE2A4B2F4A2F49D27A1F9340F6AA
:109A6000C82023F8400C082003F83E0C3D3B1E9311
:109A70000B88002A40F0F9801EAE05330A213046DB
:109A800093FBF1F189B221F0AFFADFF858900A2286
:109A9000D9F8003093FBF2F3304699B221F0A4FAE2
:109AA0003EF014F9D9F808901E9B4FEA1942591C50
:109AB0001E911A701E9B4FEA1922591C1E911A7092
:109AC0001E9B5A1C1E9283F800901E9B5A1C1E92CD
:109AD0001870304627F058FEFFF7D8B9D43500206B
:109AE0003F4B4C002C2600207384002018360020A9
:109AF00024860020842F0020DCE900200050C3478A
:109B0000A0850020E42E0020B4FF05086185002018
:109B10007817002008260020CC2E00205226002096
:109B2000DFF8B081624E98F80020002A40F0B18042
:109B30001346110189B241EA0321C3F303231943F8
:109B400009B20620628413F049FE5A48618C3388BA
:109B5000067A98F800200131012E03F105034FF039
:109B60000A0C618493FBFCF399B200F05F82C37A24
:109B700001EB81018EB213B10AB196FBF2F64FF000
:109B8000640A3A20B6FBFAF80FFA88F113F026FEC1
:109B90000AFB186189B20A2305313B2091FBF3F1DE
:109BA00009B213F01BFE5CE61D4627E7424B1B681B
:109BB00099067EF5B5AE3B78002B7EF436AC3F4A75
:109BC0003F4B13602D2384F8383085E63D4B1A78DF
:109BD000002A3EF4A5AE626B002A07DD3A480A2A45
:109BE000B8BF0A220021C0F8902461634FF47A6262
:109BF00040F6B83172600022B1601A705AE6D6E9B8
:109C0000002301211CA884F82410CDE91C2313F0A3
:109C1000FDFD03E40325F1E60225EFE60525EDE66B
:109C20000425EBE60825E9E60725E7E60625E5E64F
:109C3000264E274BB1894FF4F36707FB01F1112042
:109C400091FBF3F109B213F0C9FDB389642107FB5D
:109C500003F393FBF1F393FBF1F201FB123109B231
:109C6000192013F0BBFDFFF79ABB1A4A1EAE1178FC
:109C700093FBF1F130460A23053191FBF3F189B2F0
:109C800021F0B2F901E714499FE63EF01FF801B256
:109C900000E6618C338891FBF2F04FF0640C02FB1C
:109CA00010100CFB0323510082B2B3FBF1F340E729
:109CB000CC2E002008260020A425002018360020E5
:109CC000508600207384002030100020DCE9002042
:109CD000A0860100D22E002098FF0508BD4ADFF8BB
:109CE0002CC3118BBC4BDFF838A3D3F800E092ED06
:109CF0000D7AD2ED0C7A92ED0B5A5A68069206EE66
:109D0000101ADCF800100491DCF808101B91996817
:109D10001591D989149199899B7C0C93BAF90030DB
:109D20001393AE4BAE4A1B881293B8EEC66AAD4B86
:109D3000B2F80080AC4AB3F900300B93C7EE066A64
:109D4000B2F904300A93B2F902300993B2F9003043
:109D50000893A64B11911B681A93069BA448DFF841
:109D6000C492DFEDA45A87EE867A5A14002BB8BF4E
:109D70005B4202F480424FEA6E4C194642F40052B4
:109D80008EEAEE73A3EBEE730CF4804AB1FBF0FEA7
:109D900000FB1E1142EA0E02C5EE067A069192B24F
:109DA000B3FBF0F100FB11334AEA010102980E9275
:109DB0004FF0060C069A89B200F0F00E0CFB03F38C
:109DC00066EEA56A1091049889F80AE04FF47A715A
:109DD000B3FBF1F39BB20EF1100A0CFB02F20F93EE
:109DE000B2FBF1F2FDEEE66A93B208FB00F00D93D0
:109DF0000A2290FBF1F327EE257A079308F1050379
:109E000093FBF2F319935FFA8AF3069316EE903AF6
:109E1000BDEEC77A1BB267EEA57A189317EE103A1B
:109E2000FDEEE77A1BB2179317EE903ADDF808A023
:109E30001BB209F10D0816935046069B83426ED95A
:109E40006D4B0C2202FB0032431E92F82CC04CEAF0
:109E5000001288F8002008F10101142B24D8DFE853
:109E600013F0060104010E010C010A010801C101F1
:109E7000BF01BD01BB01B301AB01A901A701A50150
:109E80002300A301A1019F019D019B015B4A2B6857
:109E900092F800A01A067FF500AC404613F03CFC97
:109EA00086F81080FFF7F9BB4FF0FF33524A624447
:109EB00092F82C21012A0DD9023AD2B202F1020EF7
:109EC000F0448E460EF8013BC6454FEA1323F9D104
:109ED00001321144BCF1090FDBB201F1010809D0D4
:109EE000454A4FF00C0C0CFB002223F0600392F863
:109EF0002D2013430B7013F0F5FB414BA8EB03022D
:109F0000029B83420BD23C490C2303FB001393F8C2
:109F10002C300B4493F82C311344102B8DDD384B2F
:109F2000DFF804E1A8EB03010631C9B241F04003B8
:109F3000824689F8073001F101080020059B12E0F4
:109F40009CF807C083EA0C0C4FEA8C034FEADC0252
:109F500083EA4C0302F0180283EA0C034EFA02F281
:109F600053400130DBB2C2B2914209EB000CE7D89A
:109F7000244A039808F802304BF000F8337C002B99
:109F80007FF48BAB204B1B689B067FF586AB13F0F1
:109F90009DFB01233374FFF780BB1C4A0A23116821
:109FA00091FBF3F1282009B213F018FC63E4184B7D
:109FB0001B68002B4DD12B6818067FF5F4AC154BB0
:109FC0001B7803F00303032B3FF4EDAC1249FCE4D0
:109FD0001249FAE4A8000010DCE900200236002053
:109FE000CC2E0020E62E002038260020D43500207C
:109FF0008096980000007A44788105080C3600208D
:10A00000C1E90020BAE90020A42500202C26002068
:10A01000F0350020842F002090FF0508A4FF0508DC
:10A02000407B0020B4E900200007090EC07A18B177
:10A0300012B193FBF2F399B209B2392013F0CEFBBF
:10A040000FE41E9B2A22591C1E911A70C6E4664911
:10A05000BBE46649B9E4664B66491A78664B002A48
:10A0600008BF1946B1E46549AFE4049B1EE7199B9C
:10A070001CE7089B1AE7079B18E71B9B16E71A9B30
:10A0800014E702204CF0A0FC3B78002B7EF4CDA915
:10A090005B4AAD23166084F838301DE401204CF093
:10A0A00093FCF1E77378012B7FF477ABA9F10709F3
:10A0B00084F83930B9F1070F30D801A353F829F0EB
:10A0C00061A100081DA1000809A100081DA1000848
:10A0D0009DA000081DA1000883A0000885A100081C
:10A0E0001EA802924CF092FC029A4648219B82F8EC
:10A0F00000A041F288314FF47A72C0F89024B26027
:10A1000063637160FFF738BBDFF804A19AF8003091
:10A1100023B13D4B012118681CF002FE00204CF0D9
:10A1200053FCB1E73948A9F1070916F008FD15F00D
:10A1300085FF7378B9F1070FF0D801A252F829F022
:10A1400075A100081DA100080DA100081DA10008AF
:10A150009DA000081DA1000883A0000885A100089B
:10A1600003204CF031FC15F069FF8DE703204CF023
:10A170002BFC89E7032002934CF026FC029B012B69
:10A1800082D1F0E704204CF01FFC7DE7162B04BFC2
:10A190000023F373FFF716BA189B87E6179B85E633
:10A1A000169B83E6159B81E6149B7FE6139B7DE659
:10A1B000129B7BE6119B79E60F9BA4F85430109B11
:10A1C000A4F85630636D71E60D9BA4F854300E9BD5
:10A1D000A4F85630636D69E60C9B67E60B9B65E659
:10A1E0000A9B63E6099B61E6A0FF050888FF050856
:10A1F000C4800020C0FF0508B8FF0508ACFF0508B3
:10A200001836002030100020604B002014860020FB
:10A21000609400202DE9F047A14ED6F8805046F218
:10A22000A713451B9D422DED028B03D8BDEC028B7D
:10A23000BDE8F0879B4BC6F880001C6814F0040052
:10A2400066D1844614F0200437D19FED978AA0464A
:10A25000A646964B964A1B78177813F001033FD118
:10A26000002F4ED0D6E924711370ACEB0706AEEB8D
:10A270000107002C3CD1002840F0F0808D4B1B786A
:10A280000E2BD3D1DFED8C7A8C4B8D49188828EEBC
:10A29000278A0022BDEEC88A134618EE104ABDEC8C
:10A2A000028B64F30F0267F30F0366F31F4260F340
:10A2B0001F43C1E90023BDE8F087824B1C7814F0EE
:10A2C00002046ED0804A8149138AD2F808E0B1F9BD
:10A2D0000080002B40F0CB809FED738A0124B8E70B
:10A2E0007FB90123C6E924CE13703E46002CC2D0AC
:10A2F000002840F09780764A704B1760A3F80080E2
:10A30000BCE7D6E92437ACEB0306AEEB0707B0E7B2
:10A31000DFF8DCA1DFF8DC819AF80630B8F80090AD
:10A32000D6F88470013BB7FBF3F7B9F1000F3DD0CD
:10A33000684A9FED690A5369002B1946B8BFD91DB9
:10A34000A3EBE1031F44002F3B46B8BFFB1DDB100E
:10A3500007EE903AF8EEE77A576127EE800A20F090
:10A3600053FDDFED5E7A20EE270A20F093FDF7EE35
:10A37000007A77EEC07A9FED5A0AD6F88C3067EEF5
:10A38000807A9F42FDEEE77AC6ED227A00F0818066
:10A3900009F1FF390020A8F80090C6F88C708446B7
:10A3A00050E79FED418AA046A64652E707EE907A15
:10A3B0009FED490A4B4FF8EE677AB7EE008A27EE19
:10A3C000800A20F021FDDFED457A20EE270A20F0FB
:10A3D00061FDDFED437A38EE400A20EE270A4CF0AB
:10A3E00031FCBAF80830DFED406A07EE103AD6F8D3
:10A3F0008830C01AB8EEC77A07EE900AA7EE668AD0
:10A40000B8EEE70AD7ED097AF8EEE77A20EE080A07
:10A4100067EEA67AA7EE270A4CF014FC8446786211
:10A4200001200FE7F7EE007A37EEC87A07EE906A60
:10A43000F8EEE77A264B67EE877A07EE107AB8EEE9
:10A44000C77A2946E7EE087A3046FDEEE77AC3ED93
:10A45000007A3CF08FFC194B18800FE71C4B294603
:10A4600030461E603CF086FC144B188006E707EE71
:10A47000903ADFED116A9FED1D7AF8EEE77A86EEED
:10A48000A78AB4EEC78AF1EE10FA88BFB0EE478A09
:10A4900024E700231846A8F800309C46D2E600BF07
:10A4A00078170020A42500209A99993E5226002072
:10A4B0002084002011B300200000C842E62E0020B6
:10A4C00014B30020842F0020DCE90020C08100208C
:10A4D000D43500208801002008942537B1DC423EA5
:10A4E000D048874AA82500206F12833A6666663FE7
:10A4F00058970020B69900202DE9F843314B1B688E
:10A500005B0701D4BDE8F8832F4C304D94F8989048
:10A51000B9F1010F41D1EB69284698472B692846CC
:10A5200098472B6A04F19C0104F1A0009847284A3F
:10A53000D4F884609179D4E92983D4E9272008F1FB
:10A540000107AA625A1C8F4208BF0027032AE8624B
:10A550002ED02049C4F8A82094F8AC2041F823005C
:10A560006ABB04EB880804EB8703C8F8B000D3F893
:10A57000B020AB89C4F8A470B61A30440022C4F8E5
:10A58000840084F89820002BBCD0134A0A2B126850
:10A59000B8BF0A231361BDE8F8836B692846984762
:10A5A000AB69284698470122EB8984F89820EAE7AE
:10A5B000084A84F8AC9000239060C4F8A8304AF0B0
:10A5C0001DF9CEE7A425002078170020A82500203B
:10A5D000589700207CE80020480F001070B5244AEE
:10A5E00024495378D47B12782348244E03EB430547
:10A5F000002C03EB8503224C224DC2EB421200EBF0
:10A60000430301EB820214BF2821202133602A601A
:10A6100021603CF0A3FF302200211B481B4C4DF071
:10A6200057FD28683AF06CF93CF0E4FE184A194BE3
:10A630001079194AC4F870216421C82211FB002145
:10A640000022C3E90112C3E90322C3E90522DA614A
:10A6500083F8202083F821201CF018FA94F8761152
:10A66000B4F874013BF082F9BDE8704028F07EBD7B
:10A6700048D3002080470020AC840020FC35002017
:10A6800018000010F8350020ECA0002078170020FA
:10A6900078490020542600201C8100202DE9F04F2D
:10A6A0002DED028BA0F10A0385B00C46ED2B01F2D3
:10A6B0002E81DFE813F0BE082C092C092C092C0987
:10A6C0002C092C092C092C092C092C092C092C09E2
:10A6D0002C092C092C092C092C092C092C092C09D2
:10A6E0002C092C092C099F082C092C092C098F08EE
:10A6F0002C092C092C09C8022C0957022C091A0212
:10A700002C0904022C09FC012C09D7012C09C301D6
:10A710002C092C092C09BC01B5012C09A2012C091A
:10A720002C099B012C092C092C092C092C098B01C3
:10A730002C092C092C092C096C012C094D012C0920
:10A7400037011D012C092C092C092C092C092C0975
:10A750002C09FF062C09B7062C0941062C097305A4
:10A760002C0945032C092C092C092C092803DC028F
:10A77000D50269075607BC074107EE07E1072C0918
:10A780003908FF002C092C092C092C09EE002C0992
:10A790002C0959032C092C092C0991037A03300444
:10A7A000EE032C092C092C09DF03A0033B05180537
:10A7B000ED04CF042C092C092C092C092C092C0997
:10A7C0002C092C092C092C092C092C092C092803EB
:10A7D0002C092C092C092C092C092C092C092C09D1
:10A7E0002C092C092C092C092C0999042C092C0959
:10A7F0002C092C092C092C092C092C092C092C09B1
:10A800002C092C092C092C092C092C092C092C09A0
:10A810002C092C092C092C098A042C092C092C0937
:10A820002C092C092C092C092C092C092C092C0980
:10A830002C092C092C092C092C092C092C092C0970
:10A840002C092C092C092C092C092C092C092C0960
:10A850002C092C092C092C092C092C092C092C0950
:10A860002C092C092C092C092C092C092C092C0940
:10A870002C092C092C092C092C092C092C096804F9
:10A880002C095D0401092C092C092C092C092C091F
:10A89000D108A24952232268501C2060137011F87D
:10A8A000013F002BF7D10125284605B0BDEC028BF6
:10A8B000BDE8F08F9A4800220168256802EB420348
:10A8C0005B0019446E1C097A2660297001682568AE
:10A8D00019446E1C497A26602970016825680B446A
:10A8E00001329B7A691C052A21602B70E4D1DAE7DA
:10A8F0000A688C4B8C490125501C20601570226819
:10A9000098785619266010702268501920601570CA
:10A91000226809785019206011701988204620F0AB
:10A9200089FBC1E70B6800255A1C0A601D700B6883
:10A930005A1C0A601D700B685A1C0A6029461D705B
:10A94000204620F05FFB2946204620F05BFBAAE76B
:10A95000764F3B78002BA6D0DFF8048200254646D0
:10A96000236818F81520591C21601A70717801EBC2
:10A97000810101EB810101F2EE21204620F05AFB1A
:10A980003B780135AB4206F10206E9DC8BE7684D06
:10A990000B682A79591C21601A7023686A79591C3E
:10A9A00021601A702988204620F044FB2368AA7988
:10A9B000591C21601A706988204620F03BFB2368EF
:10A9C000EA79591C216001251A706DE721F0B8FA67
:10A9D0000546002841F0488023685A1C0146226041
:10A9E0001870204620F00EFB2946A9E708460822E9
:10A9F000504920F0D7FA012556E70B684E4A581CFB
:10AA000051782060197023684C4A0021581C20603E
:10AA1000197023681279591C216001251A7043E7C7
:10AA20000B6801229918216015461A703CE7444BC7
:10AA30000846196A20F0E6FA012535E7414D424EF5
:10AA400005F1300795F90210404B93F906208A4230
:10AA500003F1080300F064879E42F6D10835AF4247
:10AA6000F0D120E73A4B03F5967522685979501CCE
:10AA70002060117022681978501C206011702268C3
:10AA80005978501C2060117022689978501C206001
:10AA900011702268D978501C2060117022681979D1
:10AAA0000A33501C9D4220601170DED1FBE60B681A
:10AAB000204A591CD27B216001251A70F4E6254DED
:10AAC00005F1800655F8041F204620F09BFAAE429F
:10AAD000F8D12368204A591C012521601D70236884
:10AAE000D278591921601A70DEE61C4D05F1400636
:10AAF000B5F88010204620F09DFA236895F8822052
:10AB0000591C21601A70236895F883200435591C5C
:10AB1000AE4221601A70EBD1C5E600BFCC820508B9
:10AB2000F835002020870020504C0020BC35002044
:10AB30007849002010E80020484E0020447B002087
:10AB4000A0D40020F0E9002054EA002024EA0020EC
:10AB5000809F00204C7B0020D07C0020507B002078
:10AB6000C8AF0020AF4D0B682A7AAF4E591C216048
:10AB70001A70E98A204620F05DFA698A204620F0A2
:10AB800059FAA98A204620F055FA23686A7B591C95
:10AB900021601A70E98B204620F04CFA298C20465F
:10ABA00020F048FA23682A7E591C21601A70236815
:10ABB000AA7E591C21601A702B7F03EB8303590076
:10ABC00001F57A71204620F035FA23683278591C55
:10ABD00021601A707168204620F014FA2368317AD7
:10ABE000924A581C206019702368E97E581C206026
:10ABF00019702368697E581C20601970236895F8C5
:10AC00002510581C20601970236895F82610581CD0
:10AC100020601970236895F82810581C206019705E
:10AC2000236895F82B10581C20601970236895F83C
:10AC30002C10581C2060197012782368591C216050
:10AC400001251A7030E60B68794A581C117820608B
:10AC5000197023685278591C216001251A7023E667
:10AC600008461022734920F09DF901251CE6724B1D
:10AC70001B8BB3F5006F00F2EE86B3F5806F00F228
:10AC80001D87B3F5007FB7EE008AF6EE007A28BF85
:10AC9000B0EE678A694D05F10C06B5EC010A28EEA5
:10ACA000000A4BF0CFFF81B2204620F0C3F9AE423C
:10ACB000F3D1634DDFF8B091DFF8B081614F05F15A
:10ACC0000C0699F80030B5EC010A012B14BF43467D
:10ACD0003B46D3ED077A80EE270A4BF0B3FF81B2F3
:10ACE000204620F0A7F9AE42EBD1574D05F10C06F6
:10ACF000B5EC010A4BF0A6FF81B2204620F09AF98C
:10AD0000AE42F5D1CFE5002306461D46DFF860814F
:10AD1000CDE90133994602E0282D00F02986294625
:10AD200040461EF0E3FEEFB201350028F4D038466D
:10AD30003DF0A4FD002840F0ED8509F10109EBE7A5
:10AD40000B68424A42499078424A5D1C256018705F
:10AD500023684979581C206019702368D278591CDF
:10AD6000216001251A709FE53B4D05F16006A98819
:10AD7000204620F05FF9E988204620F05BF9298918
:10AD8000204620F057F92368AA7A591C21601A70CE
:10AD90002368EA7A591C21601A7055F80C1B20466A
:10ADA00020F030F9AE42E2D17DE50A682B4B2C4908
:10ADB0001878551C2560107022685878551C25603D
:10ADC000107022689B78501C206013702046C98840
:10ADD00020F030F9012567E5214D0846298820F04B
:10ADE00029F96988204620F025F9A988204620F015
:10ADF00021F9012558E50A681A4B501C1978206082
:10AE0000117022685978501C20601170226899785E
:10AE1000501C206011702268DB78511C21600125D4
:10AE2000137041E510E80020E8A800202424002049
:10AE3000E03500207C4A0020A8000010D40000105B
:10AE4000380F0010300100109C8400201881002071
:10AE500058970020384E00201CAE0020304E0020B5
:10AE60007CAE0020CC810020500E0010C0070010E6
:10AE7000C4B00020B54D0846698A20F0DBF8A98AE5
:10AE8000204620F0D7F8E98A204620F0D3F80125A3
:10AE90000AE5DFF800C30027FEB2614600232268FE
:10AEA000501C206016702268501C206013702268AD
:10AEB00011F8010F0133551C062B25601070EED1DF
:10AEC0000137062F0CF1060CE6D1A14900232268B8
:10AED000501C206017702268501C2060137022687C
:10AEE00011F8010F0133551C0B2B25601070EED1AA
:10AEF0002368984A581C0721206019702368002194
:10AF0000581C20601970236892F8EF20591C2160AA
:10AF100001251A70C8E4904922680B798F4D012BE6
:10AF20008F4B02F101060CBFD87BD87926601070D8
:10AF30002268561C266010702268AD788948561C1D
:10AF40002660157022680078551C256010702268F4
:10AF50000979501C206011702268D979501C20603A
:10AF600011702268DB7B511C2160012513709BE46A
:10AF70007D4D0846A98920F05DF86989204620F0BA
:10AF800059F8012590E40B68784D591C1422216072
:10AF900005F178061A7028783DF0C2FC07466879FA
:10AFA0003DF0BEFC23683A7A591C21601A70236870
:10AFB0002A79591C21601A702368027A0635591CB7
:10AFC000B54221601A70E6D16DE40B68684A591CDD
:10AFD0001278216001A81A701FF0D0F823685A1C5B
:10AFE0002260012518705FE40B68624F591C3A78A3
:10AFF00021601A703B78002B3FF455ACDFF898C104
:10B000005D4D5E485E496346226813F8016B02F1AC
:10B01000010EC4F800E01670226815F8016B02F109
:10B02000010EC4F800E01670226810F8016B02F1FE
:10B03000010EC4F800E01670226811F8016B02F1ED
:10B04000010EC4F800E016703E78A3EB0C029642A5
:10B05000DADC28E44B4D084629891FF0EBFF6989AB
:10B0600020461FF0E7FFA98920461FF0E3FFE98A89
:10B0700020461FF0DFFF298B20461FF0DBFF698B86
:10B0800020461FF0D7FFE98920461FF0D3FF0AE4CE
:10B090003C4D084629881FF0CDFF698820461FF0E7
:10B0A000C9FFA98820461FF0C5FFE98820461FF088
:10B0B000C1FF298A20461FF0BDFF698A20461FF084
:10B0C000B9FFA98A20461FF0B5FF236895F8202014
:10B0D000591C21601A7023682A7F591C21600125A0
:10B0E0001A70FFF7E1BB284B1D6815F000653FF4AF
:10B0F000DBAB0B68254E591C327821601A7033780F
:10B10000002B3FF4D0AB0025E8B210F021FB236800
:10B110004278591C21601A70818920461FF08AFFED
:10B1200033780135AB42EFDCFFF7BDBB0B4B184961
:10B13000B3F9003081FB0321DB17C3EBA1012046EB
:10B1400089B21FF077FF0125FFF7AEBB10D60020B4
:10B15000337C0020507B0020F4480020384E002033
:10B160008C4A0020514E00201881002000A80020A9
:10B170004C4E0020F98100200C8200202C820020FF
:10B180001C820020FC83002068E80020A000001042
:10B19000676666660F7C0020FC8100200021204647
:10B1A0001FF048FF002120461FF044FF00212046E9
:10B1B0001FF040FF2368994D00265A1C22601E7024
:10B1C00023682A68591C92F8462021601A70236867
:10B1D0002A68591C92F8472021601A7023685A1C6B
:10B1E00022601E7023685A1C22601E7023685A1C3D
:10B1F00022601E7023685A1C22601E702B68204635
:10B20000198F1FF017FF2B682046D98E1FF012FFF1
:10B210002A68236892F82D20591C21601A7023682F
:10B220005A1C22601E702B682046598E1FF002FFA8
:10B230002B682046998E1FF0FDFE314620461FF0F8
:10B24000F9FE2A68236892F85120591C21601A706F
:10B250002A68236892F85220591C21601A702A68C3
:10B26000236892F85520591C21601A702A682368B7
:10B2700092F85320591C21601A702A68236892F8AA
:10B280005C20591C21601A702A68236892F84F20AC
:10B29000591C21601A702B6893F856202368591C9A
:10B2A00021601A702B68204699891FF0C3FE2B6815
:10B2B0002046598A1FF0BEFE2B682046198B1FF0CE
:10B2C000B9FE2A68236892F83020591C21601A7050
:10B2D0002A68236892F86E20591C21601A702A6827
:10B2E000236892F86F20591C21601A702A6823681D
:10B2F00092F87020591C21601A702A68236892F80D
:10B300007120591C21601A702A68236892F87220F3
:10B31000591C21601A702B6893F86B202368591C04
:10B3200021601A702A68236892F86C20591C2160E9
:10B3300001251A70FFF7B8BA394E0B68B279374D4C
:10B34000591C21601A702B68204659881FF072FE24
:10B350002B68204619881FF06DFE718920461FF06A
:10B3600069FEB18920461FF065FE2B68204699884A
:10B370001FF060FE2B682046D9881FF05BFEF18924
:10B3800020461FF057FE318A20461FF053FE2A68E0
:10B39000236892F82620591C21601A702368B2781D
:10B3A000591C21601A7023680022591C21601A70F0
:10B3B000F18820461FF03EFE318920461FF03AFEFC
:10B3C0002368727D591C21601A702368B27D591C54
:10B3D00021601A702B682046B3F84C101FF02AFE2B
:10B3E00023682A68591C92F8602021601A70B18B7A
:10B3F00020461FF01FFEF18B20461FF01BFE2B681E
:10B400002046B3F862101FF015FE2B682046B3F8F3
:10B4100064101FF00FFE0125FFF746BAF835002033
:10B42000F44800200B68A74EA74A7178A74D581C16
:10B430002060197023681278591C21601A702368E3
:10B440002A79591C21601A702368AA78591C216036
:10B450001A70298820461FF0EDFD298A20461FF02A
:10B46000E9FD23680022591C21601A702368EA78DC
:10B47000591C21601A7023683279591C21601A7096
:10B480002368F278591C21601A7023683278591C9D
:10B4900021601A70718B20461FF0CCFD718A204606
:10B4A0001FF0C8FD2368327D591C216001251A70E8
:10B4B000FFF7FAB9864B1E6800238DF80430002E82
:10B4C00000F0D08201A9304613F05AFF304613F045
:10B4D000F1FF33689B680746002B00F0038330467A
:10B4E0009847064623687B4D5A1C22601F702368CC
:10B4F0002A78591C21601A7023686A78591C2160C7
:10B500001A702368AA78591C21601A7023689DF864
:10B510000420591C21601A70A98820461FF08AFD5A
:10B5200023685A1C22601E7023682A7A591C2160E5
:10B5300001251A70FFF7B8B9674B084619881FF044
:10B5400079FD664B204619881FF074FD644B226814
:10B550001B78511C03F00103216001251370FFF7D4
:10B56000A3B9604F3B78002B3FF49DA95E4E0025A8
:10B5700036F9021B204689B21FF05CFD3B7801358D
:10B58000AB42F5DCFFF78FB9DFF88CA1DFF88CB1A7
:10B59000564E574F9FED578ADFF88481DFED568A6C
:10B5A000DFF880910AF1C0050EE0FCEEE77A17EEB5
:10B5B000903A99B220460AF1180A1FF03BFD554512
:10B5C0000BF1040B3FF46FA99AF811100029F1D088
:10B5D0003378DBED007A012BE7D13B68DB0440F1E7
:10B5E0002382F5EE407AF1EE10FA00F03882F4EEA4
:10B5F000C87AF1EE10FA00F13282BDEEE77AF4EE8D
:10B60000E87AF1EE10FA17EE103A00F25B82A3F13D
:10B6100030026FF4F97303FB02F389FB03121A443F
:10B62000D917C1EB622101F2DB5189B2C2E7334B7A
:10B630000A681B78324D511C03F00203216013701D
:10B640002368AA7C591C21601A70296820461FF0C3
:10B65000D9FC696820461FF0D5FCAB68294AD91788
:10B6600082FB0323C1EB631181F3100189B22046F1
:10B670001FF0E0FCA98903E5234B084619681FF079
:10B68000C1FC224B204619881FF0D4FC0125FFF78E
:10B690000BB91F4D084629881FF0CCFC698820464D
:10B6A0001FF0C8FCB5F904301A4AD91782FB0323EE
:10B6B000C1EBA301204689B21FF0BCFC0125FFF7B6
:10B6C000F3B800BFF4480020284E002010D6002018
:10B6D000C02E00204826002002360020407B00209B
:10B6E000E3830020BC35002068EA00202AD6002031
:10B6F00068E800200000404200E08244842F0020DF
:10B70000DCE900201F85EB51D4350020E62E002017
:10B710003826002067666666082E0010100F00109D
:10B72000DB9B9141210534838C4D0B682A68591CA1
:10B73000D27821601A702B6822689979531C236093
:10B74000002311702A6821681A440133527A481C78
:10B75000032B20600A70F5D12A682368127B591CDC
:10B7600021601A702A6823681278591C21601A70A7
:10B770002A6823685278591C21601A702B68204669
:10B78000D9891FF057FC2A682368127A591C216056
:10B790001A702A6823685279591C21601A702A6825
:10B7A00023681279591C21601A702A682368D2799B
:10B7B000591C21601A702A682368127C591C216068
:10B7C0001A702A682368527C591C216001251A705E
:10B7D000FFF76AB8624D084629881FF02BFCA9883C
:10B7E00020461FF027FC298920461FF023FC012555
:10B7F000FFF75AB85B4D05F1780628783DF090F8D0
:10B800002368027A591C21601A7023686A78591CCF
:10B8100021601A702368AA78591C21601A70236865
:10B82000EA780635591CAE4221601A70E5D1FFF75F
:10B830003AB84D4D28464AF093F900283FF433A812
:10B840002B460544226813F8011B501C9D422060C2
:10B850001170F7D1FFF727B801A81EF08FFC002860
:10B860003FF421A8BDF8041020461FF0E3FB236835
:10B870009DF80620591C21601A7023689DF8072046
:10B88000591C21601A7023689DF80820591C2160FA
:10B890001A7023689DF80920591C21601A702368CA
:10B8A0009DF80A20591C21601A702046BDF80C1022
:10B8B0001FF0C0FBFEF7F7BF2C4B03F170052268A9
:10B8C0001978501C2060117022685978501C206033
:10B8D000117022689978501C206011702268D97804
:10B8E000501C2060117022681979501C2060117062
:10B8F00022685979501C20601170226899790733A9
:10B90000501C9D4220601170D9D1FEF7CCBF00259C
:10B91000FEF7CABF494601A81EF0D8F8FFF70DBAD6
:10B9200023685A1C22601970298820461FF082FB68
:10B930002368EA78591C21601A7023682A79591CF7
:10B9400021601A702368AA79591C21601A70236833
:10B950006A79591C21601A70FFF780B8FC35002005
:10B9600048B1002000A80020709400202CAA0020DC
:10B970005D4B5E4DB3F89C1020461FF05BFB5C4BAB
:10B980002046B3F878111FF055FB5A4B19684B014C
:10B9900003F02002C1F340031343C1F3800243EAE2
:10B9A0004203C1F3C00243EA8203C1F3401243EAF7
:10B9B000C20301F01001194320461FF03BFB01A90F
:10B9C000042220461FF0EEFA236829784A4A581CC0
:10B9D0002060197011886429A8BF642120461FF0D7
:10B9E00029FB962E5FD0002120461FF023FB216803
:10B9F000B9F1190348BFA9F11203A3F3C4034A1C08
:10BA0000226020461A460B7002A91FF0CBFA236869
:10BA10003A4A581C152120601970204611681FF001
:10BA2000F1FA0125FEF740BFF4EEC87AF1EE10FA04
:10BA300036DBFDEEE77A40F2E73217EE903A303B24
:10BA400002FB03F388FB0321DB17C3EB612101F247
:10BA5000E93189B2AEE5B4EE008AFFF71BB940F2D6
:10BA6000DC51A7E5FF273DE520F072FA06461FF0FE
:10BA700091FE236846F002065A1C226007461E709B
:10BA8000018820461FF0BEFAB96820461FF0BAFAB6
:10BA90001FF07AFC014620461FF0B4FAFEF704BFFF
:10BAA0004FF47A7186E523680322591C21601A70CD
:10BAB00023686A78591C21601A7098E7B5EE008AED
:10BAC000FFF7E8B8A3F5836240F2F31303FB02F338
:10BAD00089FB03121A44D917C1EB622101F2DD512F
:10BAE00089B267E51846FCE43010002048D30020F6
:10BAF00078170020A4250020500F0010F0350020FA
:10BB000008B5064B9B78012B01D0002008BD1FF023
:10BB100041FE8068003018BF012008BD208700204A
:10BB200008B50E4B1978012913D00DD3022902D183
:10BB3000002007F0FFFB06F03BFD094B00F5F42069
:10BB400000F59070186008BD0021084607F00CFC55
:10BB5000F1E7002007F008FCEDE700BFBA990020EC
:10BB6000BC99002010B50446204607F09DF900B1AD
:10BB700010BD0A2006F0CCFDF6E710B5084A0023F8
:10BB800052F83310884202EBC30403D00133062B72
:10BB9000F6D110BD0021C162A18042F83310F8E750
:10BBA00024EA00202DE9F04F95B09246DDF8788028
:10BBB0009DF87C509DF88040BA4A029106469B460B
:10BBC0000027FB000393134493F90610B14260D0A1
:10BBD0000137062FF5D14FF0000931E01E2E44D079
:10BBE0001F2E4CD0142EF6D11B2007F081F918B16E
:10BBF0002323837180F8079044F00AFE18B12323B1
