:020000040800F2
:10000000F0FF01207D18050845DB0208215F030889
:10001000011905080119050801190508000000006B
:1000200000000000000000000000000055DB020896
:1000300051DB0208000000004DDB02089155030867
:100040000119050801190508011905080119050814
:1000500001190508011905085D6D03089D6E030867
:100060005D6E03081D6E0308DD6D030879910408B9
:1000700069910408599104084991040835910408CC
:10008000219104080D9104080119050800000000E1
:100090000000000000000000000000009D6D03084B
:1000A000594703080119050889460308454B030809
:1000B000854A0308C5490308F948030805B8040838
:1000C0000DB80408F5B70408FDB7040801190508C0
:1000D000011905086D560308D155030800000000FA
:1000E0001D6D0308011905086D20030800000000BC
:1000F000000000000000000000000000F99004086B
:100100000000000001190508294803080119050825
:1001100000000000000000000000000000000000DF
:10012000E5900408D1900408BD900408A990040843
:10013000959004080000000000000000000000008E
:100140000000000000000000000000002DEC02088C
:10015000819004086D90040859900408011905085D
:10016000E5B70408EDB70408000000000000000037
:10017000000000000000000000000000000000007F
:100180000000000001190508000000000000000048
:08019000011905080119050819
:08019800141405000100000031
:1001A0002C001000FC2E0020EC2E0020000000008F
:1001B000079400082B002400302F00200C2F002073
:1001C00000000000D993000819021000C02E002082
:1001D000542F002000000000A59503082920780076
:1001E000D42D0020642F002000000000000000003B
:1001F00020320A00E82F0020DC2F00200000000041
:10020000558800081C02100034280020F42F00201C
:100210000000000035950308281010000C2C002069
:100220000430002000000000CD88000801200800F4
:10023000201700201430002000000000F006000805
:100240000A7028009C1600201C30002000000000CE
:10025000758800080EA07401281500204430002085
:1002600000000000B97E0108010104009014002084
:10027000B831002000000000000000000001040070
:1002800088140020BC31002000000000F80600089F
:100290000201030084140020C0310020000000008F
:1002A0000900040803123300D43F00200840002056
:1002B00000000000FC06000825102C01F43D002081
:1002C0003C40002000000000000000001010020070
:1002D000D83D0020684100200000000030070008E1
:1002E0001A000E00883D00206C4100200000000034
:1002F0003207000819000500C43C00207C410020A2
:100300000000000040070008F8210600703A0020B5
:10031000844100200000000046070008150070001E
:10032000C43400208C4100200000000000000000C8
:100330002A006000283D0020FC4100200000000051
:10034000917E010809020100F47800208C790020D8
:10035000000000004C0700080C109C0054690020AD
:10036000907900200000000089FF030800020500CA
:10037000286900202C7A0020000000000000000006
:100380001B02100000690020347A002000000000E9
:100390005D9503081E0006006C660020447A00206C
:1003A000000000004E0700081B100C00A46B00208A
:1003B0004C7A0020000000005D6302082102F0007A
:1003C000B8610020587A002000000000B9500208EF
:1003D000371024009C680020487B002000000000AB
:1003E000540700080E020200746B00206C7B002092
:1003F000000000007807000816100600AC6100201D
:10040000707B0020000000007A0700082F102200F7
:1004100068790020787B0020000000008007000839
:1004200005100600246500209C7B002000000000D1
:10043000A20700081220100014650020A47B0020F1
:1004400000000000A807000823100E00BC65002073
:10045000B47B002000000000E5880008F5518C0006
:10046000E4600020C47B002000000000E99A02083C
:1004700026100C005C7C0020507C00200000000056
:100480001145020814000300AC96002018970020C4
:1004900000000000B80700080B301800708700202B
:1004A0001C97002000000000BC0700081F3024003B
:1004B000888700203497002000000000D40700083F
:1004C0000502040040920020589700200000000020
:1004D000F807000803010A00C88700205C97002085
:1004E00000000000FC070008130204009C850020A7
:1004F0006897002000000000060800081A023C006F
:10050000FC980020809B0020000000000D9C030848
:10051000270004004C980020BC9B00200000000035
:100520000A0800081F0210006C9C00205C9C002040
:1005300000000000C1960308070202008CAB0020F7
:10054000D4AB0020000000000E08000802000C00E0
:1005500064AB0020D8AB00200000000000000000C9
:1005600006020C0058AB0020E4AB002000000000A5
:100570009D9C030808120F00DCAA0020F0AB0020AD
:10058000000000009D9603080A020A0010A4002043
:1005900000AC0020000000000D060408030001006C
:1005A000F0A400200CAC00200000000000000000BF
:1005B0000202030034AC002030AC00200000000038
:1005C00000000000100201003CAC002038AC00200C
:1005D00000000000100800080400C00080D20020C5
:1005E000E8DD00200000000000000000F901040028
:1005F000F0D10020A8DE002000000000092303083D
:1006000013000400ECD10020ACDE0020000000004C
:1006100014080008FD012400C8D10020B0DE00202D
:10062000000000009122030818202E0094D1002021
:10063000D4DE002000000000859B030806101E0089
:1006400058BB002004DF002000000000DD7F01080F
:10065000FB01010034BA002024DF0020000000006C
:10066000AD9E0308FC01090000B9002028DF00202E
:1006700000000000BD9E030816023F00C0B8002025
:1006800034DF002000000000BD9503083400100096
:10069000F0B7002074DF002000000000B17F0108E7
:1006A00011020800C8B7002084DF0020000000000D
:1006B0001808000812120400C0B700208CDF0020C8
:1006C00000000000200800080D00340058AE002093
:1006D00090DF002000000000DD1F0108FE01140073
:1006E00004AE0020C4DF0020000000007195030864
:1006F000E8036400040A000190010000000000000B
:1007000000000000000000000000000000000000E9
:1007100000000000000000000000000000000000D9
:1007200000000000000000000000000000000100C8
:1007300000057E05EA05B4053200E803D007000095
:100740000000280100000401F4011400280000004A
:100750000100000020003200C800D00796001400FD
:1007600032002800B00440060005500014000F00BD
:1007700008006400010001000000C4090000190025
:100780000000000000000000000000000000000069
:100790000000000000000000000000000000000059
:1007A0000000200003010000000000010000054ED1
:1007B000343436000008000003000000AE014A0196
:1007C0005E012C0164000200000001000A019A0190
:1007D000001E0A00000000000001000000050000EB
:1007E0000102030000000000000000000000000003
:1007F000000000000080070000000000040101006C
:100800006C16000000000000010020030000023C04
:100810000000000000204030000000000101010144
:04082000FFFFFFFFD8
:10082400010000002180000800000000F4310508E8
:1008340020700020702D7200FFFFFFFF01010100F6
:100844000001010100D6012D202D2D202D2D2D2D4F
:10085400202D2D2D000000000000000000000000ED
:100864000000000000000000000000000000000084
:10087400B8460508000000000000000044470508D1
:1008840001000000FA000000010000000100000067
:1008940001010100F216002000C80100F116002039
:1008A40000500100F0160020005A0100EE1600204E
:1008B40002000000703605088C9905089499050813
:1008C400D2DD00200100C40900000000D0DD0020BA
:1008D4000100C40900000000CEDD00200100C409AD
:1008E40000000000CCDD00200100C409000000006D
:1008F400C8DD00200100C40900000000CADD00209A
:100904000100C40900000000C6DD00200100C40984
:1009140000000000C4DD00200100C4090000000044
:10092400A21400200100C80001000000A01400204F
:1009340032003075320000009F140020055A050073
:100944009C14002000FF01009E1400200100000000
:10095400980000209A14002002000000DC520508D0
:100964009B14002000FF01009D14002001000000E2
:10097400980000209914002002000000DC520508B1
:100984002C170020EE02CA08010000002A170020DC
:1009940000C80100640000002917002000C80100FD
:1009A4006400000028170020020000007C360508BF
:1009B4009614002080C1803E05000000941400209D
:1009C40080C1803E050000008E14002080C1803E5E
:1009D400050000008C14002080C1803E050000004A
:1009E4008714002000FF0100801400206400F4013B
:1009F400010000007F140020040000008836050870
:100A04007E140020020000009C3605081915002001
:100A14000D000000A836050816150020006401002A
:100A240014150020320010270A00000013150020BE
:100A34000D000000A8360508121500200D00000066
:100A4400A83605081115002002000000E03605084C
:100A54000000000000000000EC360508F8910020BA
:100A64009CFF2C0100000000541A0020E0150C1714
:100A740000000000561A0020020000002437050878
:100A8400381700200100FF7F010000003717002005
:100A940002000000303705081B1500200300000089
:100AA400403705081A1500200300000040370508E8
:100AB400D01600200000E80301000000CE1600203C
:100AC4000000E80301000000CC1600200000E80349
:100AD40001000000CA1600200000E8030100000025
:100AE400C81600200000E80301000000C61600201C
:100AF4000000E80301000000C516002000140100F6
:100B0400C41600200300000050370508DC1600203E
:100B14000000F40101000000DA1600200000F401D6
:100B240001000000D81600200000F40101000000BC
:100B3400D61600200000F40101000000D4160020A5
:100B44000000803E01000000D21600200000803E1C
:100B5400010000000517002019640100041700209B
:100B6400020000006037050802170020E803D007E0
:100B74000A00000000170020006401000A000000C1
:100B8400F516002000640100F41600200064010042
:100B9400FC160020006401000A000000FB1600207F
:100BA400006401000A000000FA160020006401003D
:100BB4000A000000FF160020006401000A00000083
:100BC400FE160020006401000A000000FD1600204B
:100BD400006401000A000000F916002001FF010072
:100BE4000A000000F816002001FF01000A000000BE
:100BF400F716002001FF01000A0000002415002060
:100C04000000F40101000000221500200000F4019E
:100C140001000000201500200000F4010100000084
:100C24001E1500200000F401010000001C15002026
:100C34000000F40101000000ED1600200064010032
:100C4400EC16002000640100EB1600200064010093
:100C5400EA160020FF080100E916002001640100E3
:100C6400E9850008AD8500086C370508E816002002
:100C740000640100E61600201400E80301000000EF
:100C8400E4160020E80330750A000000E216002094
:100C940000C80100E116002000C80100E016002091
:100CA40000C80100DF160020006401000A000000F3
:100CB4001C1700200000D0070100000017170020B7
:100CC40000C801001617002000C8010015170020F5
:100CD40000C801001A1700200000D007010000001E
:100CE4001417002000C801001317002000C80100D9
:100CF4001217002000C80100181700200000D007B8
:100D0400010000001117002000C801001017002086
:100D140000C801000F17002000C8010000000000F7
:100D24001D830008DC3705080F1500203300000080
:100D3400783805080E15002000C801000C150020A5
:100D4400E803D007010000004E55434C454F46349C
:100D540034365245000000007D82000855820008A8
:100D64004839050811820008C58100089C39050826
:100D7400A5820008559900081C3A0508981400201B
:100D840001030100498700081D870008103D05087C
:100D94006D8100082D810008743D05083383000827
:100DA400BDB40008103E05082595000800000000A9
:100DB400B83E0508E1960008A9870008543F0508D5
:100DC4008583000800000000C43F05085D84000816
:100DD4000984000828400508ED840008B18400084F
:100DE400C4400508258600086D86000844410508AE
:100DF400F316002001060100CD8300089983000842
:100E04004042050829850008B9990008B042050840
:100E1400A18600083D9A000890430508DE160020CC
:100E240001030100ED820008BD8200086444050846
:100E34007587000800000000C8440508AD8100085B
:100E44003D9900082C450508000000000000000042
:100E540090450508F5860008B59A0008104605086F
:100E64007A14002088136F17010000007C140020FE
:100E740088136F170000000026880020000000007F
:100E84000000000024880020000000000000000092
:100E940022880020000000000000000020880020BC
:100EA40000000000000000001E8800200000000078
:100EB400000000001C88002000000000000000006A
:100EC400300A002000000000000000005014002040
:100ED40002000000984705087814002088136F1753
:100EE400010000003892002088136F1700000000F2
:100EF400C180000800000000A44705089E1A0020D5
:100F040001000000F84705083A92002001000000A3
:100F14000448050830920020020000000C4805082F
:100F2400000000000000000018480508AD8000081B
:100F340000000000B44805080000000000000000A4
:100F44000849050800000000000000007849050871
:100F540034920020E0150C1700000000010000008E
:100F6400A00F0000B80B00000102FFFF0100000009
:100F7400685E0C00F1BF020895BD0208B1E00208EA
:100F84000000000091BA020881DD02085DBF02087A
:100F9400F9DC020800000000000000004DBA02085D
:100FA40061BF020855BD0208F1DF0208000000001D
:100FB40065BA0208FDDC020831BF020859DC0208E8
:100FC400000000000000000059BA02085C42002042
:100FD400FFFFFFFF0000803F000000000000000052
:100FE400000000000000803F00000000000000003E
:100FF40000000000000000000000000000000000ED
:101004000000000000000000000000000000803F1D
:1010140000000000000000000000000001000000CB
:10102400FFFFFFFF0000803F000000000000000001
:1010340000000000FF0000000100000000000100AB
:10104400FFFFFFFF0000803F0000803F01FFFFFF24
:101054000403090412010002EF0201408304563222
:10106400000201020301000012010002020200401A
:1010740083044057000201020301000009026400D6
:10108400030100C03209040000010300000009212B
:10109400110100012226000705830308000A080B3A
:1010A400010202020100090401000102020100051B
:1010B4002400100105240100020424020205240670
:1010C4000102070582030800FF09040200020A0066
:1010D40000000705010240000007058102400000EE
:1010E40009024300020100C03209040000010202A7
:1010F400010005240010010524010001042402025A
:101104000524060001070582030800FF0904010005
:10111400020A0000000705010240000007058102E1
:1011240040000000FF0000006855050800000000B2
:1011340000000000000000000000000000000000AB
:10114400000000000000000000000000000000009B
:1011540000FFFF0000000000AA5505010000010087
:101164003C550508000000000000000000000000DD
:10117400000000000000000000000000000000006B
:101184000000000000000000FF1FFF1F050109050B
:10119400A101A100050109300931093209330935DA
:1011A4000934094009381581257F7508950881029D
:1011B400C0C0000009022200010100E0320904005D
:1011C4000001030102000921110100012226000788
:1011D40005830308000A0000000000000102030464
:1011E400010203040607080991DE020895DD0208DE
:1011F400D5E00208CDBA020811BE0208DDBA020821
:10120400F9BA0208A5BA020895BA0208000000005B
:10121400000000002D202D2D202D2D2D2D202D2DD5
:101224002D2D000000000000000000000000000060
:10123400000000AA550B010000AA5507010000AAEE
:10124400550902000000AA5503009F000100000098
:10125400C0120000EC96002000000000109700204F
:1012640000000000FFFF000070E60508000008020F
:101274000503030078E605080100080205040300DD
:10128400140006080200FE0101100300FC9C05087E
:10129400030014020003000080E6050804001F0296
:1012A4000100080088E6050805001F020101080086
:1012B4004B5C6D7E8F0400004B304020000000002A
:1012C4000000000000000000ABACADAEAF000000B9
:1012D400E803000041BD42D4C2000000550F710C68
:1012E40000000000FFFFFFFF00000000C4AB00206F
:1012F4000800000000000000B4AB0020080000005B
:10130400200000000000803F94FE0508A0FE0508B0
:10131400ACFE0508B8FE0508C4FE0508D0FE0508A5
:101324000CA80508B0C0050804BF050838FE050868
:1013340084EA050884FE050888FE05088CFE050875
:1013440090FE050874FE050878FE05087CFE050875
:101354009CBD050880FE05081900C800F40120039F
:1013640074FE050878FE0508DCFE05087CFE050809
:10137400E0FE0508E4FE050833060408000000004A
:101384000000000000000000000004010000000054
:101394000000000210000000070000004926877DBD
:1013A4002F0000000000010001000100B1B9020893
:1013B40049DB0208ADB90208A1B902089DB90208C7
:1013C400A9B90208A5B9020825BA020819BA02087F
:1013D400F1B9020805BA0208DDB90208C9B9020860
:1013E400B5B902080100000000600240106002402C
:1013F4000000000000000000000B000000000000DE
:10140400000000000000000000600240286002406C
:101414000100000000000000060C000000000000B5
:101424000000000000000000006002404060024034
:101434000200000000000000100D00000000000089
:1014440000000000000000000060024058600240FC
:101454000300000000000000160E00000000000061
:1014640000000000000000000060024070600240C4
:101474000400000000000000200F00000000000035
:10148400000000000000000000600240886002408C
:10149400050000000000000026100000000000000D
:1014A400000000000000000000600240A060024054
:1014B40006000000000000003011000000000000E1
:1014C400000000000000000000600240B86002401C
:1014D4000700000000000000362F0000000000009C
:1014E400000000000000000000640240106402409C
:1014F40000000000000000000038000000000000B0
:101504000000000000000000006402402864024063
:101514000100000000000000063900000000000087
:10152400000000000000000000640240406402402B
:101534000200000000000000103A0000000000005B
:1015440000000000000000000064024058640240F3
:101554000300000000000000163B00000000000033
:1015640000000000000000000064024070640240BB
:101574000400000000000000203C00000000000007
:101584000000000000000000006402408864024083
:1015940005000000000000002644000000000000D8
:1015A400000000000000000000640240A06402404B
:1015B40006000000000000003045000000000000AC
:1015C400000000000000000000640240B864024013
:1015D4000700000000000000364600000000000084
:1015E40000000000000000000CE70508B4B1050885
:1015F400000000001D000408A08601000400000093
:1016040000000000000000000000000000000000D6
:1016140000000000000000000000000000000000C6
:1016240000000000000000000CE705083C0006086C
:1016340000000000B9200308E803000004000000D3
:101644000000000000000000000000000000000096
:101654000000000000000000000000000000000086
:101664000000000000000000EC9F050818BE0508FB
:1016740000000000992D04087D0000000600000011
:101684000000000000000000000000000000000056
:101694000000000000000000000000000000000046
:1016A40000000000000000005CE6050800000000E7
:1016B40000000000713D0308E8030000030000007F
:1016C4000000000000000000000000000000000016
:1016D4000000000000000000000000000000000006
:1016E40000000000000000004400060800000000A4
:1016F4000000000035FC0108102700000300000072
:1017040000000000000000000000000000000000D5
:1017140000000000000000000000000000000000C5
:1017240000000000000000007CE605080000000046
:10173400C9910008855F03085F760000050000007A
:101744000000000000000000000000000000000095
:101754000000000000000000000000000000000085
:10176400000000000000000018E905080000000067
:1017740000000000597D030810270000010000004C
:101784000000000000000000000000000000000055
:101794000000000000000000000000000000000045
:1017A40000000000000000005000060800000000D7
:1017B40000000000BD200308E8030000050000004D
:1017C4000000000000000000000000000000000015
:1017D4000000000000000000000000000000000005
:1017E40000000000000000005C000608000000008B
:1017F4000000000019260408204E00000300000029
:1018040000000000000000000000000000000000D4
:1018140000000000000000000000000000000000C4
:1018240000000000000000006C000608000000003A
:101834000000000005240408204E000003000000FE
:101844000000000000000000000000000000000094
:101854000000000000000000000000000000000084
:1018640000000000000000007C00060800000000EA
:101874000000000049320308400D0300030000008B
:101884000000000000000000000000000000000054
:101894000000000000000000000000000000000044
:1018A4000000000000000000E8AE05080000000091
:1018B40000000000C16E02081027000003000000B1
:1018C4000000000000000000000000000000000014
:1018D4000000000000000000000000000000000004
:1018E40000000000000000008C000608000000005A
:1018F400000000003D040108A08601000100000072
:1019040000000000000000000000000000000000D3
:1019140000000000000000000000000000000000C3
:10192400000000000000000060E605080000000060
:10193400000000003124030850C30000010000002F
:101944000000000000000000000000000000000093
:101954000000000000000000000000000000000083
:101964000000000000000000E89B050800000000E3
:10197400000000009D520108A86100000100000061
:101984000000000000000000000000000000000053
:101994000000000000000000000000000000000043
:1019A4000000000000000000940006080000000091
:1019B400000000001DAC0208A08601000100000028
:1019C4000000000000000000000000000000000013
:1019D4000000000000000000000000000000000003
:1019E400000000000000000020E9050800000000DD
:1019F400000000006D340108A00F00000100000089
:101A040000000000000000000000000000000000D2
:101A140000000000000000000000000000000000C2
:101A24000000000000000000A00006080000000004
:101A340000000000DD9B02081027000001000000E8
:101A44000000000000000000000000000000000092
:101A54000000000000000000000000000000000082
:101A640000000000000000000CA7050800000000B2
:101A740000000000459002081A4100000100000027
:101A84000000000000000000000000000000000052
:101A94000000000000000000000000000000000042
:101AA4000000000000000000A89B050800000000E2
:101AB40000000000A9C20208102700000100000075
:101AC4000000000000000000000000000000000012
:101AD4000000000000000000000000000000000002
:101AE4000000000000000000C8B10508000000006C
:101AF4000000000045BC00081A410000010000007D
:101B040000000000000000000000000000000000D1
:101B140000000000000000000000000000000000C1
:101B24000000000000000000AC00060800000000F7
:101B340000000000FDC80208400D03000000000082
:101B44000000000000000000000000000000000091
:101B54000000000000000000000000000000000081
:101B64000000000000000000B400060800000000AF
:101B7400000000009B1F0108400D0300000000004E
:101B84000000000000000000000000000000000051
:101B94000000000000000000000000000000000041
:101BA4000000000000000000BC0006080000000067
:101BB4000000000045A6020850C300000300000016
:101BC4000000000000000000000000000000000011
:101BD4000000000000000000000000000000000001
:101BE4000000000000000000C8000608000000001B
:101BF400000000007923040840420F0000000000A8
:101C040000000000000000000000000000000000D0
:101C140000000000000000000000000000000000C0
:101C24000000000000000000D400060800000000CE
:101C3400000000004534010850C30000000000000B
:101C44000000000000000000000000000000000090
:101C54000000000000000000000000000000000080
:0C1C640000000000000000000000803FB5
:10800000D0E90920131A584258417047034B1A7897
:108010000AB901221A700020704700BF000000203A
:10802000124B134A1978F1B112490978C1B91249B2
:10803000D160124A12491268596011791972D168D7
:10804000D9601049196151791975116999610E4901
:10805000D9619179D26983F820105A620020704763
:108060000A49D160E5E70A49D160E2E750140020EF
:10807000000000203A920020F830050840900020CF
:10808000329200203392002036920020843105087D
:10809000F4310508034B1A8D034B4FF0FF301A8063
:1080A000704700BF5014002038920020024B1A88FD
:1080B000024B00201A85704738920020501400208F
:1080C000064B93F90030012B04D0054B9A8D5A854D
:1080D000002070474FF0FF30704700BF300900208C
:1080E0005014002008B5064B1A782AB1054A1278B8
:1080F000012A1CBF00221A70FFF792FF002008BD62
:108100003A92002030920020064B93F90020064B53
:1081100012B91A70002070471A78002AFAD1012289
:10812000F7E700BF30090020369200200D4B0E4AC1
:1081300093F82E10517293F82F109172198E1180AE
:1081400093F8372083F834209A8F1A87DA8F5A876A
:10815000B3F84420A3F84020B3F84620A3F8422007
:108160000020704750140020708700200D4A0E4BED
:10817000517A83F82E10917A12881A8693F8342057
:1081800083F837201A8F9A875A8FDA87B3F84020FE
:10819000A3F84420B3F8422083F82F10A3F8462018
:1081A000002070477087002050140020034B93F884
:1081B0008820034B002083F848207047E4600020AB
:1081C00050140020104A114892F8493092F84B1090
:1081D00003F00F0343EA012392F84D100901C9B2DD
:1081E0000B43A0F86E3092F84C1092F84A3092F897
:1081F0004E2003F00F03120143EA0123D2B21343CE
:10820000A0F870300020704750140020E460002077
:108210000E490F4BB1F86E2002F00F0083F84900B1
:10822000C2F30310120A83F84B20B1F8702083F8D0
:108230004D0002F00F0183F84A10C2F30311120A35
:1082400083F84E1083F84C2000207047E460002033
:1082500050140020074A084B92F84F1083F86C1016
:10826000B2F85010B2F85220A3F86810A3F86A20B0
:108270000020704750140020E4600020074A084B9B
:1082800092F86C1083F84F10B2F86810B2F86A20B8
:10829000A3F85010A3F8522000207047E46000209B
:1082A0005014002008B568220249034849F0AAFB8F
:1082B000002008BDE4600020A4140020084A0949F9
:1082C000B2F8BC30CB8292F8BE3092F8BF2003EBFC
:1082D00083035B008B82044B00209A70704700BFC1
:1082E0005014002058BB002014650020084A094B98
:1082F000D18AA3F8BC10928A0A21B2FBF1F283F86A
:10830000BE20054A927883F8BF200020704700BF46
:1083100058BB0020501400201465002030B10079B3
:1083200010F1FF3018BF4FF0FF3070474FF0FF30B3
:108330007047114A114B528802F0010283F8C020A5
:108340000F4AD17883F8C110117983F8C21051799E
:1083500083F8C310D188A3F8C410117A83F8C6102B
:10836000517A83F8C7101178927A83F8C81083F88D
:10837000C9200020704700BFECD10020501400201D
:10838000A46B0020034B002083F8CA0083F8CB00C5
:10839000704700BF501400200A4B0B4A1B68B2F80C
:1083A000CC105980B2F8CE10A3F84C10B2F8D0100F
:1083B0009980B2F8D210B2F8D420D9801A80002067
:1083C000704700BFC4960020501400200D4B93F856
:1083D000D6207C2101FB02320020B2F8DA10A3F88B
:1083E000CC10B2F82411A3F8CE10B2F8DC10A3F828
:1083F000D010B2F8DE10B2F8D820A3F8D210A3F84B
:10840000D420704750140020124B93F8742283F844
:108410006C2293F8752283F86D22B3F87622A3F8C4
:108420006E22B3F87822A3F870220B4AB3F87A12BE
:108430001268A3F86812B3F87C12A3F86A12B3F8B2
:108440007E12B3F88032A2F86210A2F864300020E5
:10845000704700BF50140020C4960020134B93F8BF
:108460006C2283F8742293F86D2283F87522B3F896
:108470006E22B3F86812A3F87622B3F87022A3F83C
:108480007822A3F87A1293F8D620B3F86A12A3F8E8
:108490007C127C2101FB02320020B2F83A11B2F8C2
:1084A0003C21A3F87E12A3F88022704750140020CC
:1084B0000D4BB3F88222A3F85222B3F88422A3F81A
:1084C0005422B3F88622A3F85622B3F88822A3F8E0
:1084D0005822B3F88A22A3F85A22B3F88C22A3F8C0
:1084E0005C220020704700BF501400200D4BB3F8F1
:1084F0005222A3F88222B3F85422A3F88422B3F8BC
:108500005622A3F88622B3F85822A3F88822B3F89B
:108510005A22A3F88A22B3F85C22A3F88C22002006
:10852000704700BF501400201E4B1F4993F88E2245
:1085300030324A7493F8D6207C2101FB02320020AD
:1085400092F81F1183F88F1292F8F21083F89012AC
:1085500092F8F31083F8911292F8F41083F89212C3
:10856000B2F80C11A3F89412B2F80A11A3F89612FB
:1085700092F8271183F8981292F84B1183F8991208
:1085800092F84C1183F89A1292F8461183F89B12D4
:1085900092F8471192F8482183F89C1283F89D22A3
:1085A000704700BF50140020000000200D4A92F8D0
:1085B000D6307C2101FB032392F89E1283F83E11F2
:1085C00092F89F1283F8421192F8A01283F83F119B
:1085D00092F8A11292F8A22283F8401183F8412167
:1085E00000207047501400200D4B93F8D6207C21BA
:1085F00001FB0232002092F83E1183F89E1292F89D
:10860000421183F89F1292F83F1183F8A01292F85A
:10861000401192F8412183F8A11283F8A2227047F9
:10862000501400200E4B0F4993F88E2230320A75F9
:1086300093F8A32230328A7593F8BE220A491A2091
:1086400000FB021203F5297302F1180152F8040B22
:1086500043F8040B8A42F9D112881A80002070472F
:1086600050140020000000205469002010B50A4A70
:108670000A4892F8BE321A2402F5297104FB03035A
:1086800002F52F7251F8040B43F8040B9142F9D113
:108690000A881A80002010BD501400205469002060
:1086A00010B5124A124992F88E3230334B7492F858
:1086B000D61002F1D803C1EB411103EB8103002076
:1086C00002F2BF2102F532721C7A0C705C7A4C7097
:1086D0009C7A8C709C8922F810400130032803F1A9
:1086E000060301F10301EFD1002010BD501400205A
:1086F000000000200749084B0A7883F8D620013291
:1087000083F88E224A7883F8BE22013283F8A322AE
:10871000002070471465002050140020094B93F886
:10872000D82283F8D72293F8D92283F8D42293F859
:10873000DA2283F8D522B3F8DC22A3F8D022002075
:10874000704700BF50140020094B93F8D72283F8DC
:10875000D82293F8D42283F8D92293F8D52283F82B
:10876000DA22B3F8D022A3F8DC220020704700BF41
:10877000501400200A4930B50A4C002201F2DE20D4
:10878000135DA3F16105052D9CBF203BDBB2835433
:108790000132072AF4D1002081F8E50230BD00BF84
:1087A000501400202A990508084B93F8E622012A64
:1087B000074A05D893F8E712032918BF03219170DF
:1087C000B3F8E83213800020704700BF5014002037
:1087D0002465002010B5044623790E2B00D110BD6E
:1087E000032B04D1D4F809309868FFF7F3FF0E3457
:1087F000F2E70B49D1F8EC329A68134618790E2843
:108800000CD19B1A5A10074B5343013B91F8F522A8
:1088100093FBF2F3013381F8F43270470E33EDE746
:1088200050140020B76DDBB6084BD3F8F80210B532
:1088300058B1074CA169013191FBF0F200FB121015
:1088400003EB8003A061D3F8FC0210BD501400209C
:108850000000002010B44FF4FA7346F203444FF4C2
:10886000C84196220480818002814380C3805DF8E4
:10887000044B704730B44FF4987240F29E73104D21
:10888000026003834FF4E17203230E4C0E49C0F8DB
:108890001A50C2830825962280F82030002380F8E1
:1088A0002150C0F822404161C0F806200371438284
:1088B000C0F80A30C0F80E3080F8263030BC70475F
:1088C0007D0096007800960002010001002301223D
:1088D000C27083700380037143718371C37103722B
:1088E0004372704700230A220360436083608381E0
:1088F0000280704703788B4283BF034B03EB410137
:10890000B1F80C030020704750140020044B93F87A
:10891000240318B1002283F824230120704700BFEC
:1089200050140020F0B4C24D95F84B6305F54A721F
:108930000244B41E1444A24200F07881013A013C82
:10894000002341F2210112F8017F83EA07231FB2BD
:10895000BBB2002FACBF5B0081EA43039BB21F0494
:1089600054BF5B0081EA43039BB21F0454BF5B000A
:1089700081EA43039BB21F0454BF5B0081EA4303B7
:108980009BB21F0454BF5B0081EA43039BB21F04E8
:1089900054BF5B0081EA43039BB21F0454BF5B00DA
:1089A00081EA43039BB21F0454BF5B0081EA430387
:1089B000A2429BB2C7D10644B21E013E2A442E44B5
:1089C00092F8281396F8282302EB012292B29A42D9
:1089D00001D0F0BC704795F84C23002A00F02181AB
:1089E000431CDBB25C1C2C442B444FF4AF6193F866
:1089F000286394F8283303EB06239BB201FB03F3AF
:108A00001B1303F54873012AA5F80C3300F0098104
:108A1000C31CDBB25C1C2C442B44022A93F8286351
:108A200094F8283303EB06239BB201FB03F34FEAD0
:108A3000233303F54873A5F80E3300F0F280431D8D
:108A4000DBB25C1C2C442B44032A93F8286394F873
:108A5000283303EB06239BB201FB03F34FEA2333D6
:108A600003F54873A5F8103300F0DB80C31DDBB2BB
:108A70005C1C2C442B44042A93F8286394F8283374
:108A800003EB06239BB201FB03F34FEA233303F509
:108A90004873A5F8123300F0C48000F10903DBB27B
:108AA0005C1C2C442B44052A93F8286394F8283343
:108AB00003EB06239BB201FB03F34FEA233303F5D9
:108AC0004873A5F8143300F0AC8000F10B03DBB25F
:108AD0005C1C2C442B44062A93F8286394F8283312
:108AE00003EB06239BB201FB03F34FEA233303F5A9
:108AF0004873A5F8163300F0948000F10D03DBB243
:108B00005C1C2C442B44072A93F8286394F82833E0
:108B100003EB06239BB201FB03F34FEA233303F578
:108B20004873A5F818337CD000F10F03DBB25C1C4E
:108B30002C442B44082A93F8286394F8283303EB39
:108B400006239BB201FB03F34FEA233303F548737B
:108B5000A5F81A3365D000F11103DBB25C1C2C447C
:108B60002B44092A93F8286394F8283303EB06234F
:108B70009BB201FB03F34FEA233303F54873A5F8D7
:108B80001C334ED000F11303DBB25C1C2C442B448D
:108B90000A2A93F8286394F8283303EB06239BB240
:108BA00001FB03F34FEA233303F54873A5F81E33A3
:108BB00037D000F11503DBB25C1C2C442B440B2A8C
:108BC00093F8286394F8283303EB06239BB201FB48
:108BD00003F34FEA233303F54873A5F8203320D07D
:108BE00000F11703DBB25C1C2C442B440C2A93F8D5
:108BF000286394F8283303EB06239BB201FB03F3AD
:108C00004FEA233303F54873A5F8223309D000F166
:108C10001903DBB25A1C2A442B4493F8283392F8E8
:108C20002833012385F82433F0BC70470023C2E6C3
:108C30005014002007299DBF034B03EB8101B1F8BD
:108C400050030020704700BF501400201A4B93F8C7
:108C5000702332B193F874230021A82A83F870138B
:108C600001D00020704793F88723002AF9D110B46F
:108C7000DFED126A03F55D7103F5537003F5617260
:108C8000B4EE047ACC780B7903EB042307EE903A28
:108C9000F8EEE77AB0EE666AA7EE876A02318A429A
:108CA000FCEEC67A17EE903A40F8043FEAD1012074
:108CB0005DF8044B704700BF501400200080BBC318
:108CC000034B03EB4101B1F88C03C008704700BFB0
:108CD000501400201D4B93F8B0239AB370B493F84E
:108CE000B143B3F8B25303EB4401002091F8B763EA
:108CF00091F8B82383F8B00342EA0622954202D0E5
:108D0000002070BC704793F8B533032B03D0812B40
:108D10001AD0012BF5D10120122C2546A8BF12250F
:108D2000002CEED00A4B03EB4505A3F12801DC78BB
:108D30001A79023342EA04229D4221F8022BF6D12D
:108D400070BC7047002070470320E5E750140020F6
:108D500004180020F8B5134D95F811240AB9012024
:108D6000F8BD114B1C6823685E6A46B1204605F5C4
:108D70007F71B047002385F811340120F8BD05F557
:108D80007F77BE1800E023689B682046984700283C
:108D9000F9D0236817F8011B1B6820469847B74293
:108DA000F1D1E7E750140020706B002003788B426C
:108DB00010D9094B03EB810193F84434D1F8140422
:108DC0001BB900F5777080B27047400800F57770E6
:108DD00080B270470020704750140020036933F8B8
:108DE000110000EB8000C01000F55C7080B270478D
:108DF000436993F82120002A00F0AF80F0B5594A6A
:108E000093F802E01278DC7D5F78DD7893F806C095
:108E1000DE791B2A04BF544A148002690EF0070051
:108E200047EA0027002183F82110187A1979178062
:108E300005F03F059F7893F805E06D0145EAD705F9
:108E40009F7A5580DD78890041EA95110EF0010E78
:108E500041EA8E219D7B91800CF00F0C59794FEAED
:108E6000CC1C4CEA5101D18006F07F06997993F829
:108E700007C0360146EA1116597A1681400040EAC9
:108E8000DC1001F0030140EA41205E7BD97A508179
:108E900007F01F07587ABF0147EA900090819F7A38
:108EA000187B93F80EC006F0070640EA062005F08E
:108EB0003F055E7B1082C90041EA57116D01D181E7
:108EC00045EAD6015182D97B5F7CDD7C9E7C587D52
:108ED000890041EA9C1193F810C00CF0010C41EAA2
:108EE0008C2107F00F0793F812C09182197C6D0056
:108EF000FF0147EA510145EADC1C5F7C1D7DD18200
:108F000006F07F06360146EA171605F00305997D3F
:108F10001F7D16834CEA45255E7D558340F2147310
:108F200014F0010F14BF1D46AD2500F01F0014F012
:108F3000020F08BFAD238001C90040EA970041EA53
:108F40005611538423079083D183158407D414F0DA
:108F5000040F0CBF01200920F0BD1046704703200C
:108F6000F0BD00BF50860020548600200A4BDFED84
:108F70000B6ADFED0B7A03EB8101D1F8483407EE81
:108F8000103AB8EE477AE7EE267AFCEEE77A17EE6B
:108F9000903A98B2704700BF5014002001F11F3F73
:108FA00000405C44714A92F8883433B192F88E34B0
:108FB0000021162B82F8881401D00020704792F807
:108FC0008D34022BF0B440F2CE8002F28C40184473
:108FD00002F28E41D32311F8014F634013F0800F4A
:108FE0004FEA430318BF83F0D503DBB213F0800FC1
:108FF0004FEA430318BF83F0D503DBB213F0800FB1
:109000004FEA430318BF83F0D503DBB213F0800FA0
:109010004FEA430318BF83F0D503DBB213F0800F90
:109020004FEA430318BF83F0D503DBB213F0800F80
:109030004FEA430318BF83F0D503DBB213F0800F70
:109040004FEA430318BF83F0D503DBB213F0800F60
:109050004FEA430318BF83F0D5038842DBB2BAD18D
:1090600092F8A514994202D00020F0BC704792F803
:10907000940492F8936492F8981492F89C3492F8BD
:10908000A04492F89054B2F890C4D2F8907400F0D2
:109090000F00C00140EA560001F01F0192F89764EA
:1090A000C2F85404890141EA960103F03F0392F8A3
:1090B0009B6492F89F04C2F860145B0143EAD603F4
:1090C00092F88F14C2F86C3404F07F04B2F8943430
:1090D000D2F89464240105F0070544EA101041EA2F
:1090E0000521C3F30A13C2F87804B2F89854C2F801
:1090F0004814B2F89A44D2F89C04B2F89E14C2F80C
:109100005834D2F8A034C0F38A10C1F34A01C3F333
:10911000CA13CCF3CA0CC7F38A37C6F3CA366D0933
:10912000C4F30A04C2F87004C2F87414C2F84CC440
:10913000C2F85074C2F85C64C2F86454C2F868445F
:10914000C2F87C3492F8A43492F8A304B2F8A214C2
:10915000DB0043EA5013C1F38A01C2F88434C2F839
:109160008014012081E7D3237AE700BF5014002048
:1091700010B5064CD4F8F03404F2CC4098470228DD
:1091800006BF012084F8F404002010BD5014002014
:1091900038B503788B4213D90A4C94F8F4340D4651
:1091A0004BB1D4F81C3504F2CC4104F59F609847CC
:1091B000002384F8F43404EB4504B4F8F80438BD13
:1091C000002038BD501400206A4B2DE9F0411C6886
:1091D000E707054617D5684B93F8202593F8211526
:1091E00091425CD1D3F82425AA4202D8634A0021D7
:1091F0001170D3F88805281A00283DDD012083F876
:109200008C05BDE8F08114F400547FD15C4883687C
:109210009847C60738D55B4BC0F3400210F00A0FE1
:109220001A774AD0544B2246A6462746A44693F8BE
:109230004415D3F858655C18013194F8488584F8D2
:1092400048E5A2EB080293F85C4532444E4EC3F861
:10925000582501F00F011209052C83F844153270CE
:1092600036D0410744BF012283F88625002FB9D0AC
:10927000424A01211170C1E793F88C050028C0D142
:1092800093F88605BDE8F08142073B4B44BF0122BD
:1092900083F88625D3F82425AA42AAD8A6E7D3F8CE
:1092A0002805384C354983F821252844012200251A
:1092B000C3F8240525770A70A0E72F4BD3F82815AB
:1092C000FF2229440127C3F824159646BC46AEE781
:1092D000BCF1000F01D040F2FF3C93F85D25D3F8BC
:1092E000801503EB4206541CB6F86025A6F860C54D
:1092F000ACEB02020A4404F00F011409E64683F8BD
:109300005D15C3F88025A3F88445AAE71A4BB3F886
:109310002C2512BBB3F82E25FAB9B3F83025E2B9E3
:10932000B3F83225CAB9B3F83425B2B9B3F8362543
:109330009AB9B3F8382582B9B3F83A256AB9B3F8BF
:109340003C2552B9B3F83E253AB9B3F8402522B9C5
:10935000B3F84225002A3FF445AFD3F82825094841
:1093600006492A440024C3F82425012204770A7000
:109370003FE700BFECD10020501400202A630020FA
:1093800088960020000000203065002000207047F3
:109390000020704701207047024B03EB4101B1F8F8
:1093A0009005704750140020044B93F8B40518B191
:1093B000002283F8B4250120704700BF501400201C
:1093C00003788B4283BF034B03EB4101B1F8B8052F
:1093D000002070475014002030B4024600230525B9
:1093E0001E2400E00232032BD4BF0021012100F82B
:1093F00013100133042B04D0122B5470F2D130BC63
:1094000070475570EEE7034B036043608360C360B1
:10941000704700BFE803D007024B03EB4101B1F8EE
:109420002C05704750140020024B03EB4101B1F8AA
:109430002C0570475014002030B4264C94F8D835D1
:10944000022B02D0002030BC704794F8DE55EDB1FD
:10945000013D04F2DD5353FA85F504F2DC5000229D
:1094600010F8013B534083EA0313DBB2120AD90020
:1094700042EA0322854281EA131382EA0302EFD112
:1094800022B1002084F8D80530BC7047B4F8DC3530
:109490005BBA9BB243F60162934209D043F6036282
:1094A000934205D0002384F8D835012030BC7047A2
:1094B000094AA2F1260102F12005D07993790232FE
:1094C00003EB0023C3F3CC03AA4221F8023FF4D1FB
:1094D000E8E700BF501400202C1A002070B50546A4
:1094E0000C468E1814F8013B697995F90400802226
:1094F00040F092FE08B1A642F4D170BD08B5064B0B
:10950000597F41B19A7F32B1044B186821F048FD70
:10951000034BA3F8040608BD000000204090002083
:1095200050140020F8B51F4F3D68002D36D01E4B5B
:109530001E4E1B7803B173771D4B1B7803B1B377B5
:10954000FFF7DCFF1B4B1C4C1B78013384F80636FD
:109550001A4B1B8833B11549386821F038FD08B91A
:10956000012333702A79164B84F80C26EA68C4F874
:109570001026C4F808360133C4F814366B7984F821
:1095800018362B69C4F81C36AB7984F82436EB699D
:10959000C4F82066C4F828360020F8BD4FF0FF302C
:1095A000FBE700BF40900020F9850020000000206C
:1095B000FA850020F485002050140020F685002054
:1095C0001D00002008B5054B9A7F1AB901229A7731
:1095D000002008BDFFF792FFFAE700BF000000205F
:1095E00008B5054B5A7F1AB901225A77002008BDE9
:1095F000FFF784FFFAE700BF0000002008B5054B25
:109600001A78054B1978054B186821F0C9FC044BF2
:10961000188008BD33920020329200204090002034
:109620003492002070B5114E114C3568617FA27FD5
:10963000284621F0F8FD2178AB798B4203D32B68C3
:1096400028461B6998470B4D25F06AFE617FA27F73
:109650002378306829706A70AB7021F0A1FCA88073
:109660002AF080FB4FF0FF3070BD00BF409000201B
:1096700000000020C887002008B5084B93F80616A4
:1096800021B9012283F80626002008BD4B1E59424D
:109690005941492025F0ACFEF6E700BF50140020E8
:1096A00010B5044B044C1A880449204633F0BAF92B
:1096B000204610BD389200207C1A0020BAAC050864
:1096C00010B5054B05499A8D03F23164204633F0FD
:1096D000A9F9204610BD00BF50140020BAAC0508FF
:1096E00070B50F4C0F4E104D104904F2366033F038
:1096F00099F933462946002204F23E6033F092F98C
:1097000033460022294604F2466033F08BF9084BB9
:109710009A781B8884F8E722A4F8E832002070BD0C
:1097200050140020D9AA0508349905081BAD050876
:109730002465002008B5044B588D40F4004026F005
:1097400099F8002008BD00BF5014002070B5384BB8
:1097500086B01A788DF80C205A788DF80D200026E6
:109760009A78CDF80E608DF80E209A88ADF810200A
:109770001A7ACDF8126003AD8DF8142095E8070031
:109780006C4603C422802B4A1278022A1C4632D12E
:10979000294B1978294B8DF800101A78284B8DF831
:1097A0000120186821F0FCFB264BADF8040093F86B
:1097B0004E36E3B9052026F009F8234B0A221E781D
:1097C0008DF802606946284649F01AFC58B19DF8A8
:1097D000003023709DF801306370BDF80430A6702E
:1097E000A3802AF0BFFA4FF0FF3006B070BD06200C
:1097F00025F0ECFFE1E7154B1B7873B90E4B197898
:109800000E4B8DF800101A780D4B8DF8012018685A
:1098100021F0C6FBADF80400CFE7304625F0D6FFB7
:109820000B4B8DF800601B88ADF80430C5E700BF16
:10983000C88700203092002032920020339200200E
:109840004090002050140020369200203A920020D0
:109850003892002008B50C4B93F90030012B0B4BCC
:1098600004D1002283F84E26002008BD93F84E064E
:1098700018B9012283F84E26F6E7012818BF022006
:1098800025F0A4FFF0E700BF3009002050140020AD
:1098900070B5124C124B94F900401A78012C054611
:1098A0000E4605D1012A01D001221A70002070BD98
:1098B000012A03D1002025F089FFF7E7022AF3D11E
:1098C000084B002483F84E46FFF7C4FF064B314691
:1098D00028461C70FEF706FCE8E700BF30090020B0
:1098E00030920020501400203A92002008B5074B17
:1098F00093F90020064B12B91A70002008BD1A789F
:109900000AB90122F8E7FFF779FEF6E730090020EF
:109910003292002008B5074B93F90020064B12B98C
:109920001A70002008BD1A780AB90122F8E7FFF77B
:1099300065FEF6E7300900203392002008B5044B9D
:1099400093F84800032801D820F0B0F8002008BDA3
:109950005014002008B568220349044848F052F822
:109960001FF006FB002008BDA4140020E4600020C6
:1099700008B5064B93F8CB0028B1054B0138597850
:10998000C0B238F0D3FB002008BD00BF5014002047
:109990001465002008B5064B93F8CA0028B1054BA2
:1099A00001381978C0B212F049FD002008BD00BF8F
:1099B000501400201465002038B51E4D95F8D6408F
:1099C0007C2303FB045495F88F3284F81F311A4B23
:1099D000186812F049FD95F8903284F8F23095F845
:1099E000913284F8F33095F8923284F8F430B5F877
:1099F0009432A4F80C31B5F89632A4F80A3195F8EF
:109A0000983284F8273195F8993284F84B3195F8DB
:109A10009A3284F84C3195F89B3284F8463195F8A7
:109A20009C3284F8473195F89D3284F84831002003
:109A300038BD00BF50140020C496002038B50D4B2F
:109A40000D4A18680021034602F1090514781C72BA
:109A500054785C7294789C7235F811409C81013185
:109A6000032902F1030203F10603EFD112F0FCFC1B
:109A7000002038BDC49600200F17002008B5054B04
:109A800093F8A3020138C0B283F8BE0238F076FB27
:109A9000002008BD5014002008B5054B93F88E0235
:109AA0000138C0B283F8D60029F0B4FB002008BD0D
:109AB0005014002010B5054C94F8D60029F0AAFBEC
:109AC00094F8BE0238F05AFB002010BD501400205C
:109AD0002DE9F0411E4600238B55074608460C46EB
:109AE000904647F009F8751E301A21182544404267
:109AF0006A1A002AA5EB040312DA234420211A1B58
:109B0000002A11DA0023A355094B93F84F16891B3D
:109B1000234642463846C9B2BDE8F0412DF0AEBEFC
:109B20002B5C05F80139E3E703F80119E7E700BF0B
:109B300050140020F0B4224A92F9F44292F8F552FF
:109B4000214491FBF4F304FB1311D2F8EC4282F8A8
:109B5000F012CBB2A1686B430E2404FB031392F8FE
:109B60005416C2F85036C1EBC10103EB410102F2B9
:109B700054661C46A1421BD2002182F854161E795D
:109B80000E2ECCB201F1010117D1AC42234628BF01
:109B90002B46102B82F8543684BF102382F854369B
:109BA00092F85436013B82F85436F0BC2DF08ABE50
:109BB000677B06F8017F0E34DCE70E33DFE700BF7A
:109BC0005014002038B5164BD3F8EC2252680546E5
:109BD0001C46BAB994F8650698B10138C0B284F849
:109BE000650604EBC00000F5CD6003C80D4B83E8AB
:109BF0000300FEF7FEFD284694F9F012FFF79AFFE6
:109C0000002038BD93F9F102D3F85036C0EBC00004
:109C100003EB400090470028DCDA4FF0FF30F0E71C
:109C2000501400203C17002038B505460C4641B3BF
:109C30001D4BD3F8EC228A4225D093F86526082ADA
:109C40001FD8511C83F8651603F53B7103C903EB5C
:109C5000C20202F5CD6282E803000022C3F8EC42A2
:109C600083F8F122236833B19847013003D12846A5
:109C7000BDE83840A6E7FEF7BCFD00212846FFF707
:109C800059FF002038BD93F9F11293F8F52291FBAA
:109C9000F2F402FB141283F8F122FEF7AAFD21462A
:109CA0002846FFF747FFECE750140020F0B5184EA8
:109CB000002383B004460821D6F8BC0686F8B836DF
:109CC00002AD2BF077FDD6F8BC0681212BF072FD9A
:109CD0008923D6F8BC6625F8023DE71D14F8010B70
:109CE0003246294628F094F8BC42F7D1BDF8063038
:109CF0001A0A52FA83F3C3F1FF039BB23246D8B279
:109D00000021ADF8063028F083F803B0F0BD00BFA5
:109D1000501400200FB400B583B004AB054953F8CC
:109D2000042B0193002031F019FC03B05DF804EB23
:109D300004B070472BC600085148F8B53C22514E7C
:109D4000514F0021044649F083F9504B96F8E82220
:109D5000F97884F8241003F5D265012A08BF1D465E
:109D600005F11002A3F5D86307CA93F850C2B5F8FD
:109D70005830238404F10C03BCF1010F83E8070081
:109D8000B87808BF96F8FB3296F8F3E284F822E040
:109D900008BF84F82230102815D994F82030062BFB
:109DA00020D094F82030042B5CD05A1F042A4DD8C0
:109DB0003749384A063BC4E90112032B5AD8DFE879
:109DC00003F04F4D4B570123834013F4E85FE8D174
:109DD00040F201221342E0D113F4803336D100283F
:109DE0004AD1F8BD2C4A2B4BC4E9012309222B4B45
:109DF000022083F821200BF073FD4FF4807323833E
:109E00001F4863689847238B07EE903AF8EEE77A8D
:109E1000F7EE006A86EEA77AB6F8FC324FF47A7253
:109E2000A26284ED007A7BB11D4D05F16C07B6F896
:109E3000FC32A16A00EE103A2846B8EE400A2435FA
:109E400034F088FDAF42F2D10120F8BD154A164B1F
:109E5000C4E901231022CAE70B22C8E70A22C6E799
:109E60000922C4E7114A0B4BC4E901230822BEE7CB
:109E70000C22BCE70822BAE701288ED11846F8BDAB
:109E80006890002048250020BC650020101B0020A1
:109E900085750408C5A00408719B03080000002014
:109EA00048280020219B0308099B03087D750408AE
:109EB0002DE9F843794C94F8732394F874339A425B
:109EC00000F0898094F8732394F87333C2EBC202D4
:109ED00004EB8202C3EBC30304EB830392F89713F2
:109EE00093F87C638B1E9E422FD06D4AB4F8D0331A
:109EF0001278D4F8781301339BB21C2AA4F8D0331B
:109F00006DD0002594F87333664A0133A2FB030237
:109F1000520802EB42029B1ADBB284F87333002929
:109F20003DD02BF0BFF9D4F8DC33C01AB0F5FA7F7E
:109F300004DB002345F0040584F8DA33D4F8D43385
:109F4000002B34D12846BDE8F88394F8733304F528
:109F50005F77C3EBC30307EB830361B119440022AE
:109F600013F8015B2A44994292B2F9D1D3B203EBC0
:109F70001222FF2A3BD04A4AB4F8D0331278D4F8E0
:109F8000781301339BB21C2AA4F8D033B9D1464BC5
:109F9000B4F8D0235A8004229A800025B2E794F8BE
:109FA000DA33002BBDD1D4F8D433002BCAD03F4ACA
:109FB0001268D31AB3F5FA7FC4D93D4B93F85C25E8
:109FC000032A04BF0022A3F884250023C4F8D43355
:109FD0002846BDE8F883D4F8781300259FE7324B74
:109FE000B4F8D0235A8003229A8000258AE794F897
:109FF000733301221C2101FB0323FA18FD5C6DB3AE
:10A00000012D16D1082E3FD0254AB4F8D03312784E
:10A01000D4F8781301339BB21C2AA4F8D0337FF410
:10A0200070AF214BB4F8D0235A8006229A800025C5
:10A0300068E71B4AB4F8D0331278D4F878130133A8
:10A040009BB21C2AA4F8D0337FF45BAF164BB4F854
:10A05000D0235A8005229A80002553E7192ED4F880
:10A06000781327D00E4AB4F8D033127801339BB25C
:10A070001C2AA4F8D0337FF445AF0B4BB4F8D0239F
:10A080005A8006229A803DE794F8D833002B40F09E
:10A09000F0801D46D4F8781334E700BF482500202F
:10A0A00050860020ABAAAAAA54860020B0AD00209A
:10A0B0005014002092F802C05578036992F803808A
:10A0C00092F804909679D77992F808E00CF0070C92
:10A0D00045EA0C2508F03F0892F80AC01D809578E3
:10A0E0004FEA481848EAD508957BA3F8028092F811
:10A0F00003804FEA890040EA981092F8058008F042
:10A10000010840EA8820988006F00F06507992F8FE
:10A110000780F60146EA5000567AD8804FEA4E0E84
:10A120004EEAD81E06F0030692F80680D07A07F0B1
:10A130007F074EEA462E3F01567BA3F80AE047EA26
:10A1400018171F8106F00707967A92F809E0C000F9
:10A1500040EA5610167B0CF01F0C46EA072605F065
:10A160003F05577BD8816D014FEA8C1C45EAD7002B
:10A170004CEA9E0CA3F80CC01E825882D07B92F849
:10A180000EE0D77C92F8128092F811C0967C557D33
:10A19000800040EA9E1092F810E07F000EF0010E61
:10A1A00047EAD8170CF00F0C92F8108040EA8E2086
:10A1B0004FEACC1C92F814E098824CEA580C907D3F
:10A1C000A3F816C006F07F0692F811C00EF0030E39
:10A1D00047EA4E27360146EA1C165F8392F814C000
:10A1E000577D1E8305F01F05AD01C00045EA9C05A3
:10A1F00040EA5710D8839D83D57D40F2147015F046
:10A20000010F14BF0646AD2615F0020F08BFAD20A2
:10A210001E8458842B0761D415F0040F0CBF012550
:10A220000925334890F85C35032B1DD1137E90F837
:10A230005D65304FD0F88025C3EB8323A7FB037304
:10A2400000EB46075B09B7F860C5A7F86035A3EBDC
:10A250000C031344013606F00F021E0980F85D2539
:10A26000C0F88035A0F88465234B1B68C4F8D4334C
:10A2700048E65378102B15D020D8DBB994F8D933A1
:10A28000D4F87813002B7FF43CAE94F8DB33012B29
:10A2900026D919B10A78303A012A21D9002584F843
:10A2A000DB532FE694F8D9330BB984F8D953012343
:10A2B00084F8DA33D4F87813002523E6303B012BF9
:10A2C000F8D852F8010F0D49C4F86C0393799088BF
:10A2D00088808B71C4F87813002513E60325A0E766
:10A2E0000133012284F8DB3384F8DA23002509E600
:10A2F000501400201F85EB51B0AD0020B428002081
:10A3000038B504462AF0CEFF544B554A002183F855
:10A31000E01392F8B816012919D9D3F8E41340F6DE
:10A32000AC55411AA94212DD4E4DB3F8D0132D7829
:10A33000013189B21C2DA3F8D01305D14A49B3F8D5
:10A34000D0534D8001258D80002182F8B816E1B2EE
:10A350007E2929D092F8B80628B392F8B8061B28AF
:10A360005CD893F8F003002872D0002081F020011F
:10A3700083F8F00392F8B806022803D1012908BF38
:10A3800083F8E81393F8744392F8B85692F8B80635
:10A39000C4EBC40403EB84032B440130C0B283F844
:10A3A0007B1382F8B80638BD92F8B81601292FD968
:10A3B00093F874132D4C93F873530131A4FB01C42B
:10A3C000640804EB4404091BC9B28D420CD092F816
:10A3D000B85693F8744383F87413C4EBC40403EBC6
:10A3E0008404691E84F8971393F8E81339B10124A3
:10A3F000002183F8E04383F8E813C3F8DC0319492C
:10A4000009781C291ED00021C3F8EC0383F8F0134F
:10A41000012182F8B816C3F8E40338BD002182F8A0
:10A42000B8161049B3F8D0230978013292B21C292A
:10A43000A3F8D023B7D10C4AB3F8D033538002230A
:10A44000938038BDD3F8EC13074C411A2180DAE72A
:10A450007D298FD1012283F8F02338BD48250020C3
:10A46000501400205086002054860020ABAAAAAACF
:10A47000F8B55E4C07462AF015FFD4F8F433C4F85B
:10A48000F403C01AB0F5FA5F1BD9002384F8F8333F
:10A4900084F8F933A12F31D0A22F00F09F80544DC2
:10A4A00094F8F92395F84B330026AAB1721CA91928
:10A4B000D6B2FFB29E4281F8287384F8F8630DD0BB
:10A4C000F8BD94F8F863002EE4D0494D94F8F923D0
:10A4D00095F84B33002AE9D19E42F1D194F8FA3332
:10A4E000052B73D0062B03D195F829331E2B0ED0E4
:10A4F000002384F8F93384F8F833F8BD3C4D1B236E
:10A50000012285F84B3384F8F9230026CEE7721E2A
:10A51000002A4FF0000150DD08460B462B44013065
:10A5200093F82833DBB283EA0106F6074FEA5303B8
:10A5300048BF83F08C0383EA5106F7074FEA5303C1
:10A5400048BF83F08C0383EA9106F6074FEA530372
:10A5500044BF83F08C03DBB283EAD106F7074FEAEE
:10A56000530344BF83F08C03DBB283EA1116F60772
:10A570004FEA530344BF83F08C03DBB283EA5116E6
:10A58000F7074FEA530344BF83F08C03DBB283EA3F
:10A590009116F6074FEA530344BF83F08C03DBB2F6
:10A5A00083EAD1165908F30748BF81F08C01C0B285
:10A5B00048BFC9B282420346B0DC154495F828333F
:10A5C0008B4295D10320FEF7ADF991E70020FEF70D
:10A5D000A9F995F829331E2B8AD198E7044D232336
:10A5E000012285F84B3384F8F9238EE748250020B3
:10A5F0005014002010B504462AF054FE104BD3F836
:10A60000FC23C3F8FC03801A41F288329042E4B282
:10A6100006D90C49012281F8744383F8002410BD47
:10A6200093F8002407498818142A80F8744303D14A
:10A63000012381F8703310BD0132D2B2EDE700BFC3
:10A64000482500205014002070B5474C05462AF0DC
:10A6500029FED4F80434C31AB3F57A6F17D894F8E6
:10A660000834C4F80404BBB1022B404A20D0442B68
:10A6700092F8B11376D901330231DBB249008B4233
:10A6800084F808341CDB01318B4264D070BD002398
:10A69000C4F8040484F80834A82DF7D1334A002301
:10A6A00082F8B033A2F8B23392F8B113284603E02F
:10A6B000E8B282F8B1030146D61886F8B403DAE7A7
:10A6C000B2F8B233EDB283EA05252DB2002DB8BF42
:10A6D00041F22101ABB2B4BF81EA43035B009BB2FC
:10A6E000180446BF41F2210181EA43035B009BB29B
:10A6F000190446BF41F2210181EA43035B009BB28A
:10A700001E0446BF41F2210181EA43035B009BB274
:10A710001D0446BF41F2210181EA43035B009BB265
:10A720001C0446BF41F2210181EA43035B009BB256
:10A73000180446BF41F2210181EA43035B009BB24A
:10A74000190446BF41F2210181EA43035B009BB239
:10A75000A2F8B23370BD0021012384F8081482F8F6
:10A76000B03370BDE8B2A7E74825002050140020A0
:10A770002DE9F8432AF096FDC24C054694F80904E9
:10A7800088B9C14A042192F8113453B1D4F82C3459
:10A790003BB1ED1AB5F57A7F03DB00230846C4F818
:10A7A0002C34BDE8F88394F80A04002284F80924C4
:10A7B000002800F0738194F80C345BB213F1630F3E
:10A7C000C0F22481DFF8CCC284F81C2494F81D1454
:10A7D000002900F0488113F1310F80F2D48113F188
:10A7E000380F80F2D48113F13D0F80F2D48113F140
:10A7F000420F80F2D48113F1450F80F2D48113F11E
:10A80000470F80F2D48113F1490F80F2D48113F104
:10A810004A0F00F0D48113F14B0F00F0D38113F1F4
:10A820004C0F00F0D38113F14D0F00F0D28113F1E2
:10A830005C0FB8BF642780F2F880D4F82064DFF89A
:10A8400058E2914A06FB07F68EFB06E7F617C6EBC1
:10A85000671602EB8107B6B2C7F814648CF825308E
:10A8600094F818C494F8193494F81A6494F81B7482
:10A870001B0443EA0C633B4343EA062303F0F02640
:10A88000B6F1E02F00F0F4804FF0100C94F8306433
:10A8900094F80E34D4F8347494F838E43F783341A3
:10A8A00003F00F039F4210D90B2B0ED8002940F064
:10A8B000398194F80E9494F80F8402EB83030EEA26
:10A8C000090908EB0928C3F8148494F810343341BB
:10A8D00003F00F039F4210D90B2B0ED8002940F034
:10A8E000258194F8109494F8118402EB83030EEA06
:10A8F000090908EB0928C3F8148494F81234334189
:10A9000003F00F039F4210D90B2B0ED8002940F003
:10A91000118194F8129494F8138402EB83030EEAE5
:10A92000090908EB0928C3F8148494F81434334156
:10A9300003F00F039F4210D90B2B0ED8002940F0D3
:10A94000FD8094F8149494F8158402EB83030EEAC6
:10A95000090908EB0928C3F8148494F81634334124
:10A9600003F00F039F4210D90B2B0ED809B1994267
:10A970000BD094F8169494F8178402EB83030EEA34
:10A98000090908EB0928C3F81484BCF10D0F33DD65
:10A9900094F81834334103F00F039F4210D90B2B66
:10A9A0000ED809B199420BD094F8189494F81984F0
:10A9B00002EB83030EEA090908EB0928C3F81484A3
:10A9C000BCF1100F18D194F81A3443FA06F606F0C9
:10A9D0000F06B74210D90B2E0ED809B18E420BD0FC
:10A9E00094F81A1494F81B3402EB860601EA0E0E52
:10A9F00003EB0E23C6F81434B8B394F80E341B06D8
:10AA000033D4C4F82C5405210120BCE694F81C343E
:10AA10000133DBB2042B84F81C346ED994F81D1476
:10AA2000DFF870C06FF05B03E9B16FF05B0E0C26CE
:10AA3000164F721E07EB420207EB460792F845815C
:10AA400097F8456192F94471A6EB0802DE1BAEEB64
:10AA5000070E06FB02F696FBFEF6464476B2002E83
:10AA600074DA0027E9E6084AF8E6052101208AE6BB
:10AA700094F80E6436063FF507AF054E4FF00C0C08
:10AA8000336003E74825002050140020F830050803
:10AA900068090020000000201F85EB512AF002FC0D
:10AAA0004D494E4B91F82620A3FB00035B0C4AB3A3
:10AAB00094F80C6494F80D24D2B2122A18BF012A1B
:10AAC00009D002F0EF02A2F1A202B2FA82F2520918
:10AAD0000AB981F82620D4F8242494F81D14CAB1A8
:10AAE00093422FD09A1A012A35D03D4A94F80A048D
:10AAF000A4F82864C4F82434B2E6DFF8DCC09CF97A
:10AB0000253063E694F80C2494F80D6406EB0226D5
:10AB1000B6B2E0E7A4F82864C4F8243494F80A0430
:10AB20002F4A9DE68B427FF4C4AECEE68B427FF483
:10AB3000D8AEE2E68B427FF4ECAEF6E68B427FF4D1
:10AB400000AF0AE794F80A04254A89E6642EA8BFF4
:10AB50006426374671E60029C7D0B4F82874D4F8C3
:10AB60002004DFF880C01E4AF71B143F00FB07F0EB
:10AB70008CFB00C7C017A0EBE70002EB810780B297
:10AB8000C7F81404B2E76FF0300E012650E76FF0FB
:10AB9000370E02264CE76FF03C0E032648E76FF0B5
:10ABA000410E042644E76FF0440E052640E76FF09F
:10ABB000460E06263CE76FF0480E072638E79E460D
:10ABC000082635E76FF04A0E092631E79E460A2629
:10ABD0002EE79E460B262BE70000002083DE1B435A
:10ABE000501400206766666610B504462AF05AFBCA
:10ABF000124BD3F83C24C3F83C04801A41F288324B
:10AC0000904209D9E4B2012283F80C4483F840242D
:10AC1000002283F8092410BD93F840240F2AFAD8A3
:10AC200099180132D2B2E4B2102A81F80C4483F8A8
:10AC30004024EDD1012283F8092410BD48250020CD
:10AC400038B50C4605462AF02DFBE36940F6AC52B8
:10AC5000C31A934205DD002384F820300F2D19D04C
:10AC600038BD94F82020002AF8D0182AF8D8511CB2
:10AC7000C9B2192984F82010A55410D10A4A1278B3
:10AC80001B2A08BF094A4FF0010184F8211008BFB0
:10AC9000938038BD0123E061257084F820300023C3
:10ACA00084F8213038BD00BF508600205486002033
:10ACB00038B53B4C05462AF0F5FAD4F85034C4F8C0
:10ACC0005004C01AB0F57A7F1FDD364900232822D0
:10ACD00081F8D83584F8543484F8563484F85524EF
:10ACE0003D2D46D03E2D0FD12E4B012103F2DC52DB
:10ACF00083F8D815C4F858240123157084F8543407
:10AD000094F855249A4221D038BD94F85424002A4E
:10AD1000E6D0531CDBB2D4F8581484F85434062B14
:10AD20008D54EDD11F4A92F8D835012B28D094F8D4
:10AD30005634012B28D00023282182F8D83584F8F6
:10AD4000543484F8563484F8551438BD154B93F8B0
:10AD5000D825012A04BF022283F8D82594F8563456
:10AD6000012B15D00022282384F8542484F855346C
:10AD700038BD0D4AC4F85824012384F85634BBE783
:10AD80008B78282BD3D8F1E78B78092BD3D8EDE734
:10AD9000022384F856342AF085FAC4F85C04E1E70B
:10ADA00048250020501400208C29002038B51A4C6A
:10ADB0002AF078FAD4F8DC33C31AB3F5FA6FC4BFBB
:10ADC000002384F8E03394F8E033054623B90023E8
:10ADD000C4F87833012038BD00221049D4F8780334
:10ADE00026F086FA94F8E0337BB90D4B1B781C2BC8
:10ADF00004D1D4F860340B4AEB1AD3800023C4F892
:10AE00006054C4F87833012038BD0748FEF74EFF80
:10AE1000002384F8E033E8E74825002028290020B3
:10AE200050860020548600205832050890F84B3890
:10AE300030B53BB990F8491890F84A380124DAB295
:10AE4000914200D830BDB0F8525804FA03F22A43B8
:10AE5000A0F852280133F2E710B504460121007929
:10AE600020F0F4F9627920689108838902228A40EF
:10AE700023EA0203838110BD10B504462221007924
:10AE800020F0E4F963792268990802238B409BB291
:10AE9000D94389B2118291890B43938110BD73B557
:10AEA00090F85B38032B05460C462AD100231E4E32
:10AEB0008DF807309DF8073095F85C289A4201D844
:10AEC00002B070BD9DF8073006EBC3031B797BB160
:10AED00084F0010373B19DF8073056F833002AF06F
:10AEE000F7FF9DF807300133DBB28DF80730E1E75B
:10AEF0002346EFE79DF8073056F833002AF0E2FFCB
:10AF0000EFE7036CC06BDB79DB0748BF81F001041E
:10AF100024B102B0BDE870402AF0DABF02B0BDE84B
:10AF200070402AF0CFBF00BFF87800202DE9F04F25
:10AF30006F4B85B01B780390002B7CD06D4A137843
:10AF4000924603F0FF0E002B75D16B4EDFF8B081F7
:10AF5000B6F8683402934FF03C09B6F86A3496F8B4
:10AF6000641496F8657496F8662401934C4698F834
:10AF7000023098F80350C3F1FF039BB2002B00F09E
:10AF8000B380C3F1FF036B43B8F800C0BCFBF9FB0F
:10AF90001B12BBF1050F0DD8DFE80BF003506272F6
:10AFA0008494DAB2EB1A0CFB03F3B3FBF4F7174407
:10AFB000FFB22946039B012B0BBF3B020B0243EA66
:10AFC000014343EA074313430025C5F1170C012051
:10AFD00000FA0CFC01981CEA030F8446029814BF87
:10AFE000E346834605EB0E0C44480135182D40F826
:10AFF0002CB0EAD10EF1180EBEF5407F08F104081E
:10B00000B5D101238AF80030D6F86C3486F866246E
:10B0100040F22A325A60D6F8702486F8641400216F
:10B020005162118886F8657441F0010111801A6837
:10B0300042F001021A6005B0BDE8F08FBCFBF4F1EC
:10B0400004FB11CC1FFA8CFCDAB2CCF13C0CEB1AED
:10B0500003FB0CF1B1FBF4F11144C9B22F46A9E78F
:10B06000BCFBF4F204FB12CCD9B21FFA8CFCEB1A35
:10B070000CFB03F2B2FBF4F20A44D2B22F4699E77A
:10B08000BCFBF4F204FB12CC1FFA8CFCD9B2CCF15D
:10B090003C0CEB1A03FB0CF3B3FBF4F70F44FFB2C9
:10B0A0002A4687E7BCFBF4F204FB12CCDFB21FFA9E
:10B0B0008CFCEB1A0CFB03F3B3FBF4F13944C9B27B
:10B0C0002A4677E7BCFBF4F204FB12CC1FFA8CFC97
:10B0D000DFB2CCF13C0CEB1A03FB0CF2B2FBF4F246
:10B0E0003A44D2B2294665E72A462F46294661E707
:10B0F000B06B0020B16B002048250020DC6B0020E5
:10B10000A8620020044A0023016842F8231001339A
:10B11000202BF9D1704700BFA86200202DE9F04331
:10B12000874E96F8009095B0B9F1000F40F0A181DC
:10B13000844B93F80080B8F1000F00F09A814046EC
:10B1400029F036FF804C0368C4F8703405462BF0B4
:10B15000DDFE002800F08D814368C4F86C34002BBC
:10B1600000F08781876840462AF094FCC4F8740494
:10B1700018B12923837180F807902A7A2A212AF0AE
:10B1800051FDD4F8700429F097FE40F087FCD4F804
:10B1900070046E4903886E4ADFF8BCC123F00103D6
:10B1A0001B041B0C8842038011D0DFF8A8E1136850
:10B1B00070450CD00EF5804E704508D00EF5806EAF
:10B1C000704504D00EF5806E704540F0A180136884
:10B1D000634540F2A380884210D0DFF878C1604513
:10B1E0000CD00CF5804C604508D00CF5806C6045A7
:10B1F00004D00CF5806C604540F08D8003F1B7738E
:10B2000003F55853DFF854C1B3FBFCF3013B9BB289
:10B2100088420FD0DFF83CC160450BD00CF5804C64
:10B22000604507D00CF5806C604503D00CF5806C50
:10B23000604576D11268DFF828E103F1010CB2FB1A
:10B24000FCF2B2FBFEFE03221FFA8EFCBCFBF2FCFA
:10B250004FEA4C02A4F868C4DFF8F8C0A4F86A24E6
:10B260000288604592B210D088420ED0B0F1804F73
:10B270000BD0ACF57C4C604507D00CF5806C60457C
:10B2800003D00CF5806C604502D122F0700292B2BE
:10B29000DFF8D0C0604507D00CF5806C60451CBF5E
:10B2A00022F4407C1FFA8CF20280C0F82CE0038567
:10B2B000284B984201D0884201D100230386002305
:10B2C000CDE90233012282820493ADF80430EB7998
:10B2D00060210091990727D5DB00042203F00803C1
:10B2E000ADF80420ADF80E300023029369796A4668
:10B2F00029F04CF86979D4F870340C293CD8DFE88F
:10B3000001F0333B3B3BBB3B3B3BC43B3B3BCD00BA
:10B31000BCEB530F04D213685B086FE7002377E799
:10B3200000231268520886E75B00ADF8022003F0A4
:10B3300002034FF48072ADF81020ADF80C30D3E763
:10B34000B06B0020847800204825002000040140D4
:10B3500040AC002000000140FF6BDC02006CDC020E
:10B3600000350C00001000401A8B22F00802120475
:10B37000120C42F008021A83B3F8442042F400424F
:10B38000A3F844201A8842F080021A80EA799007D4
:10B390004CBF0422012202FA01F11A8CD4F86C0489
:10B3A00089B222EA01021A841A8C114319841A887C
:10B3B00042F001021A803DF0D9FC002229213DF023
:10B3C0007FFDD4F86C043DF0D1FC602238490023A5
:10B3D0003DF0DEFCD4F86C0423F060F9D4F86C0482
:10B3E000036823F00103036023F058F905A823F054
:10B3F00017F9D4F870346A79D4F86C0405973433AB
:10B4000013444FF00008069340F22A33CDE909387F
:10B410004FF480630B93274B0793402308934FF41B
:10B4200080514FF48043CDE90C1305A94FF440330C
:10B43000CDE90E8323F006F96B79D4F870240C2B38
:10B440009CBF1D4931F81330918988BF43460B4397
:10B450009381D4F86C24136843F01003136005A89B
:10B4600000230593FFF74EFE0120FFF75FFD012348
:10B47000337015B0BDE8F0831A8B22F40062120419
:10B48000120C42F400621A8376E79A8B22F00802CB
:10B490001204120C42F008029A836DE79A8B22F490
:10B4A00000621204120C42F400629A8364E700BF47
:10B4B00091790408DC6B00209C92050810B5194CAA
:10B4C00094F8C03033B3184A136843F480331360E0
:10B4D000FFF724FE154B01221A7094F8C120144B7B
:10B4E000022A98BFDA7094F8C2201A7194F8C32027
:10B4F0005A71B4F8C420DA8094F8C6201A7294F80D
:10B50000C7205A7294F8C8201A7094F8C9209A7209
:10B51000002010BD1EF04AFB4FF480302FF08EFE4D
:10B52000DBE700BF50140020ECD10020A16B00200D
:10B53000A46B002001EB81010D4B70B5A1F1A105B9
:10B540001D449C3B06465C1815F8013F717996F93D
:10B55000040040223EF060FEA542F5D1717996F9D3
:10B56000040000234022BDE870403EF055BE00BFFD
:10B570005F32050838B505464C1E14F8011F01B9A5
:10B5800038BD2846FFF7D6FFF7E707B501EB4103C3
:10B5900001EB4101C1F3C301503A10315B008DF85A
:10B5A000042003F00E038DF80610032201A98DF884
:10B5B0000530FDF793FF03B05DF804FB0A46002158
:10B5C000E3E738B5042209490546FDF787FF4FF444
:10B5D0008064013C00234022697995F90400A4B2FB
:10B5E0003EF01AFE002CF4D138BD00BF023505082C
:10B5F00038B541790446AE23802290F904003EF02C
:10B600000BFE054688B1162209492046FDF766FF64
:10B61000042208492046FDF761FF2046FFF7D1FFCD
:10B62000032205492046FDF759FF284638BD00BFD3
:10B63000063505081C35050820350508F8B5584CB1
:10B6400094F90020002A5FD0564B197801B91A707E
:10B65000998D11B9E18801B199855349088810B9CC
:10B66000A08800B10880022AE17805D111F0080213
:10B6700018BF012283F84E264C4B4D4A1B784D4D86
:10B68000D35C85F827304C4B4C4E1B783068002B30
:10B690003FD194F90130082293FBF2F201320028E5
:10B6A00033D04769BA5C85F8292080B35A4202F04A
:10B6B000070203F0070358BF53420133026952F8EF
:10B6C00023301B7885F82A3001F00A030A2B3C4FFF
:10B6D00026D1E2883B49384631F0A4F9202385F889
:10B6E0003030E3789A073AD513F0040F0CBF4F239C
:10B6F000492385F832305223502285F83330002315
:10B7000085F8312085F83430F8BD3F22CBE72E4B49
:10B71000D7E7552385F82930462385F82A30D3E723
:10B72000C90705D5A2882749384631F07BF9D5E706
:10B7300094F9011030684B4203F0070301F007024F
:10B7400058BF5A420132082391FBF3F101311FF037
:10B7500027FC1C490246384631F064F9BEE794F9EB
:10B76000002094F90230022A07D0272B11DC182B75
:10B7700011DC0F2BD4BF0023012332686AB10133DF
:10B78000D26952F8232011491148BDE8F84031F040
:10B7900049B90323F1E70223EFE70B4AF3E700BFC0
:10B7A00030090020501400203892002030920020F0
:10B7B0003C990508000000203192002040900020B4
:10B7C0002C000020BAAC05083A990508BBAA050868
:10B7D000310000203E49087870B53E4C00284BD11E
:10B7E0003D4BD3F8F82212B9C4F87C2470BD3B4A13
:10B7F0009569002DB8BF9061926903EB8202D2F87F
:10B80000FC22C4F87C24002AF0D001220A70344AB9
:10B81000C3F8EC220022A3F8F0224FF4005083F882
:10B8200065260AF06DF8D4F87C042CF03DF8D4F8C5
:10B830007C04294B427A017A112A4FF0010537D84E
:10B8400084F88054022584F88154002584F88254B9
:10B850004D0883F84F2683F8F552057B35B1002556
:10B8600084F8825483F84F2683F8F512D3F8EC124B
:10B87000BDE87040FEF7D8B9FCF7D6FFD4F87C5489
:10B8800085420646B2D0144B93F8F00293F8F112B9
:10B8900093F8F52200FB021283F8F1222B68284668
:10B8A0005B689847EB7BC4F87C64013BEB73BAE7B9
:10B8B00084F88154022584F88254951E002683F86A
:10B8C0004F568D1E84F8806483F8F552C5E700BF9B
:10B8D000D8780020482500205014002000000020C7
:10B8E00048000020F8B5BA4CD4F8EC2206460D46C4
:10B8F0000AB9FA2005E0062904D1FFF76BFF4FF4DF
:10B90000FA70F8BD05290DD1B24B93F883241AB112
:10B91000002283F88324A5E03046FEF753F94FF464
:10B92000FA70EEE7072909D1AA4BAB49002283F848
:10B930008324FEF779F94FF4FA70E2E7022946D141
:10B94000A44B93F883745FB994F9F13294F85426B8
:10B95000934233DA013384F8F1326B1E012B04D8A1
:10B960009C4B93F88334002BC3D094F9F132D4F874
:10B970005016C3EBC30201EB42010A79013A0C2ACB
:10B98000B7D801A050F822F089BA00086BBA0008B5
:10B9900031BA000847BA000893BA00085DBB000836
:10B9A000FBBA0008A1BB0008E1BB0008F3B800081F
:10B9B000FBBA0008B5BA000829BB000894F8F012D9
:10B9C000013149B2FEF7B6F884F8F172C5E70129F2
:10B9D000C3D1804B93F88334002BC1D194F8F1127A
:10B9E000D4F850264B1E5BB2C3EBC30002EB400001
:10B9F00084F8F132007920B9002BC4BF023984F8F1
:10BA0000F11294F9F132581C06D0C3EBC30302EBD8
:10BA100043031B79002BA3D194F8F012013949B2EA
:10BA20003046FEF787F894F8543684F8F13294E7FC
:10BA3000042D7FF45EAFD1F809103046FEF7F4F81C
:10BA40004FF4FA705DE7D1F80530002B3FF451AFA9
:10BA5000042D7FF44EAFD1F80910304698470130DD
:10BA60003FF45AAF4FF4FA704BE7D1F80530002B92
:10BA70003FF43FAF042D7FF43CAFD1F809103046BE
:10BA800098474FF4FA703CE73046FEF79BF8514B6D
:10BA90003EE7D1F80920002A3FF42BAF291F4D4281
:10BAA0004D411570234493F8552642F0010283F866
:10BAB00055261EE7D1F8091000293FF41AAF454872
:10BAC000042D90F8832440F0AD80444922B901222E
:10BAD00080F883240A66E5E70A6E022AE2D801327A
:10BAE0000A66DFE7012D40F08F803C4A126E0A3271
:10BAF00095400A8815430D80D4E7D1F80900002845
:10BB00003FF4F7AE0768042D3A7806D1457995429F
:10BB100032D9807902443A702EE0057995422BD2D1
:10BB20008079121A3A7027E0D1F809000268042DD2
:10BB300013780ED10079984201D901331370D1F8EE
:10BB400005301BB1D1F809103046984794F9F1320D
:10BB5000A8E7002BF3D0013B1370F0E7D1F8090000
:10BB600000283FF4C6AE07683A78042D55B212D1CA
:10BB700090F905C0AC45CCDC234493F8552642F03F
:10BB8000010283F85526D1F80530002B3FF4B1AE01
:10BB900030469847ADE690F904C0AC45ECDABFE713
:10BBA000D1F8090000283FF4A4AE0768042D3A88B4
:10BBB00006D1C5889542DFD9008902443A80DBE787
:10BBC00085889542D8D20089121A3A80D4E700BFFE
:10BBD00050140020482500205400002000000020C0
:10BBE000D1F8090000283FF484AE0768042DB7F9A6
:10BBF000002004D1B0F906509542BDDDDCE7B0F974
:10BC000004509542B8DADEE7022D7FF44BAF0C4AC0
:10BC1000106E01220A3002FA00F00A8822EA0002BD
:10BC20000A803FE7002A3FF43DAF032D7FF45AAF6F
:10BC300003490A6E012A7FF635AF013A0A6631E7F9
:10BC4000000000202DE9F04F7D4CD4F8F832002B95
:10BC50008BB082463FDB7B4ED6F8843403F54343FA
:10BC60005033984237D3784BC6F8840493F8009049
:10BC7000B9F1000F2FD1754B1B781BB9744B1B7892
:10BC8000012B28D0734B93F80080B8F1000F25D119
:10BC9000714BDA88A2F2E342B2F5F97F16D8B3F914
:10BCA000041040F2E142914210DCB3F9022040F26C
:10BCB000D6639A420ADD694B1B78DB0706D4FFF78F
:10BCC00089FD674B4FF4FA72A3F86420654B1A683C
:10BCD0005C4BC3F88C240BB0BDE8F08F96F8785419
:10BCE0005F4F4FF47A73BAFBF3F30193D6F87C34C9
:10BCF000EDB118462946FFF7F5FD0023A7F86400CB
:10BD000086F87834D4F85036002B40F0AD804D4C96
:10BD1000019AD4F8903403F5FA739A42D6D9D4F83C
:10BD20007C042BF09DFD019BC4F89034CEE74A4A79
:10BD3000D088B2F90210A0F2E340B0F5F97F1046C6
:10BD400013D8B2F904C040F2E14294450DDC40F250
:10BD5000D66291420DDD414A127812F0010F0CBFFC
:10BD600006250125FA6E01321AE040F2D6629142B0
:10BD700023DC40F2E142914221DDB0F900C094455C
:10BD80001FDD40F2D6618C451DDCB0F90400904205
:10BD90001BDD88421BDC01220021BA66C6F888142C
:10BDA000FA66B7F96420002A13DDD6F88C34134400
:10BDB000019A9B1AA7F86430A4E70125D2E702256F
:10BDC000D0E70325CEE70425CCE70525CAE70725FC
:10BDD000C8E7002D96D04FF0000BBA6E58465A4572
:10BDE00023DC033D00B2012DA7F864008AD8FB6E66
:10BDF000142B87DDA3F1140290FBF2F03228A7F890
:10BE000064003FF77FAFD6F888240AB9C6F88834B3
:10BE1000D6F888249B1ABA6E052193FBF1F31344DC
:10BE20008B42C8BF0B46BB666CE718462946039297
:10BE300002930BF1010BFFF755FDDDE90232CEE76E
:10BE40005014002048250020366300205290002026
:10BE50009C850020D8780020C4DD0020D2870020F7
