:020000040800F2
:1000000000000220F9B6050879B7050891AF03088A
:10001000F5AF030879B7050879B7050800000000B7
:1000200000000000000000000000000079B7050893
:1000300079B705080000000079B7050841B003084A
:1000400079B7050879B7050879B7050879B70508BC
:1000500079B7050879B7050831CE04085DCF0408E3
:1000600021CF0408E5CE0408A9CE04083583010891
:10007000258301081583010805830108F182010821
:10008000DD820108C982010879B7050879B705083A
:1000900079B7050879B7050879B705086DCE040862
:1000A00075610108FD6101086561010825620108AB
:1000B000ED610108DD610108CD610108458301089A
:1000C0006983010879B7050879B7050879B7050884
:1000D00079B705080D5D0108015D0108F55C0108AF
:1000E000F5CD040879B7050879B705085561010809
:1000F0008561010879B70508AD610108B58201087D
:1001000079B7050879B70508BD61010879B7050811
:10011000E95C010879B7050879B705082FCB010814
:10012000A18201088D820108798201086582010897
:100130005182010879B7050879B7050879B705082C
:1001400079B7050879B7050879B705086FD50108AB
:100150003D8201082982010815820108DD5C010841
:1001600079B7050879B7050879B7050879B705089B
:1001700079B7050879B7050879B7050800000000C8
:1001800079B7050879B70508D15C010879B7050882
:1001900079B7050879B7050879B7050879B705086B
:1001A000000000000000000079B7050879B70508D5
:1001B00079B7050879B7050879B7050879B705084B
:1001C00079B7050879B705080000000079B7050878
:1001D00079B7050879B7050879B7050879B705082B
:1001E00079B7050879B7050879B7050879B705081B
:0801F0000000000079B70508CA
:0801F80030B205000100000017
:1002000010020100A01B00209C1B00200000000029
:10021000B40700081F021000BC1B0020AC1B00200C
:1002200000000000D504010803010A00542C00203E
:10023000602C002000000000B60700080510060032
:10024000482C00206C2C002000000000C007000893
:10025000371024003C3900208839002000000000BD
:10026000C80700080E02020014390020AC39002033
:1002700000000000EC07000816100600BC2E00204D
:10028000B039002000000000EE0700082F10220007
:1002900064390020B839002000000000F40700088D
:1002A000F5518C00F02D0020DC390020000000000A
:1002B0009D71020826100C00743A0020683A002054
:1002C000000000000DF9010814000300643500204F
:1002D000AC3A002000000000160800080B3018009F
:1002E000A02D0020B03A0020000000001A080008ED
:1002F0001F302400B82D0020C83A00200000000064
:100300003408000805020400A4300020EC3A002064
:1003100000000000580800080120080000420020EA
:1003200038470020000000005C0800080A70280020
:10033000E0400020404700200000000045D90308AD
:100340000EA074016C3F00206847002000000000F0
:1003500095D3020801010400C83E0020DC480020BB
:10036000000000000000000000010400C03E00206A
:10037000E0480020000000006408000802010300BB
:10038000BC3E0020E448002000000000295A050877
:1003900009020100EC460020E848002000000000AF
:1003A000680800080C109C0054410020EC48002014
:1003B00000000000ED59050801020500D43E0020B0
:1003C00088490020000000000D68020800020500B6
:1003D0006845002090490020000000000000000057
:1003E0001B02100034450020984900200000000046
:1003F000210301081E000600C8420020A849002071
:10040000000000006A0800081B100C00743C00206B
:10041000B049002000000000717802082102F000BD
:10042000F83A0020BC490020000000006172020878
:10043000030001002452002034520020000000007C
:1004400000000000101002002C5200203852002042
:10045000000000007008000825102C01704F0020DB
:100460003C520020000000000000000019000500C0
:100470000C4F0020685300200000000072080008A4
:100480001A000E00B44B0020705300200000000042
:1004900078080008F8210600204E00208053002034
:1004A000000000008608000815007000304D002094
:1004B0008853002000000000000000002A006000B7
:1004C000484E0020F8530020000000006DD30208C1
:1004D0001A023C00545500202C5800200000000057
:1004E000A50A010827000400505500206858002084
:1004F000000000008C0800082C001000986100200B
:100500008861002000000000C9F403082B002400CB
:10051000CC610020A86100200000000099F40308CD
:100520002920780090600020F06100200000000089
:1005300000000000F6210C00FC5F00206862002033
:10054000000000009008000820320A00C462002069
:10055000B8620020000000002DD803081C02100023
:10056000785C0020D062002000000000F502010845
:1005700028101000405F0020E06200200000000012
:100580009DD9030823100E0074880020F8890020EC
:1005900000000000B5D9030804008000CC7A0020D8
:1005A000088A002000000000000000001300040082
:1005B000AC7A0020888A0020000000009C08000817
:1005C000FD012400887A00208C8A002000000000B1
:1005D000E960030818202E00547A0020B08A002019
:1005E000000000004D0B010806101A00387A0020A8
:1005F000E08A002000000000F9D30208FB0101009E
:10060000347A0020FC8A002000000000B90B0108A9
:10061000FC01090000790020008B00200000000090
:10062000C90B0108F9010400F87800200C8B0020A8
:100630000000000085A0040816023F00B8780020E2
:10064000108B00200000000065030108340010003A
:10065000E8770020508B002000000000C9D302087A
:1006600011020800C0770020608B0020000000000D
:10067000A008000812120400B8770020688B002040
:1006800000000000A808000812201000A877002031
:100690006C8B002000000000AC080008FF11060071
:1006A000E47400207C8B002000000000B9040108E5
:1006B00008121400F0740020848B00200000000059
:1006C0004504010813020400C4740020988B002024
:1006D00000000000BC0800080D004C0098710020CC
:1006E0009C8B002000000000815E040802020300D1
:1006F000D06D0020E88B002000000000000000000A
:100700000C020400BC6D0020EC8B002000000000F7
:10071000A1040108FE011400B86A0020F08B00203B
:10072000000000003503010807020200B4A6002003
:100730002CA7002000000000C008000803123300AE
:10074000D8A6002030A7002000000000C208000842
:1007500002000C0088A6002064A700200000000012
:10076000000000000602100078A6002070A70020FC
:1007700000000000350B0108F701060070A60020FC
:1007800080A7002000000000F60800081D020200FB
:100790006CA6002088A7002000000000FC080008CC
:1007A0000A020A00DCA500208CA70020000000003F
:0407B000255F0508B4
:1007B4000000040101006C1600000000200002018A
:1007C4000000000020003200C800D007960014008A
:1007D40032002800B00440060005500014000F0049
:1007E40008006400010001000000C40900001900B1
:1007F40000000000000000000000000000000000F5
:1008040000000000000000000000000000000000E4
:10081400000003000000AE014A015E012C016401E6
:100824000100000001000A019A01001E0A000000F4
:1008340000000000000100000005000001020300A8
:1008440000000000000000000000000000000000A4
:100854000080070000000000E8036400040A0001AF
:10086400900100005D000000010000000005000090
:10087400280100007E05EA05B4053200E803D0072C
:1008840000000401F4011400200300000000000033
:1008940001000000020200000800443000000000D3
:1008A40001010101FFFFFFFF000000010000054BF3
:1008B400543736000008000000000118013C000015
:1008C4000000000000000000000000000000000024
:1008D4000000000000000000000000000000000014
:1008E4000000000000000000000000000000000004
:0A08F40001004F01000000000000A9
:1008FE00FF01FF00000000000401000000070000DF
:10090E0000000000000000000002000010000000C7
:10091E00000000000000000007000000B001000011
:10092E00020000000900000000C2010000000800E3
:10093E001A0300000000000000000000000000008C
:10094E000000000000000000000000000403090485
:10095E000A06000200000040010000000907200006
:10096E00010104C032090400000208065005070503
:10097E00810240000007050102400000090220002C
:10098E00010104C0320904000002080650050705E3
:10099E00810240000007050102400000090220000C
:1009AE00010104C0320904000002080650050705C3
:1009BE008102000200070501020002000A06000281
:1009CE00000000400100000009026400030100C0A5
:1009DE003209040000010300000009211101000189
:1009EE002226000705830308000A080B01020202F3
:1009FE00010009040100010202010005240010019A
:100A0E000524010002042402020524060102070542
:100A1E0082030800FF09040200020A000000070515
:100A2E000102400000070581024000002B9F0108D3
:100A3E00E79C010801E5010800000000299001086B
:100A4E00879001085590010800000000000000008A
:100A5E0000000000119001081D900108059001088A
:100A6E00F98F01080A060002000000400100000094
:100A7E0009022200010100E0320904000001030115
:100A8E000200092111010001222600070583030837
:100A9E00000A00000A0600020000004001000000EB
:100AAE0009074300020104C03209040000010202DA
:100ABE000100052400100105240100010424020296
:100ACE000524060001070582030800FF0904010042
:100ADE00020A00000007050102400000070581021E
:100AEE004000000009024300020100C03209040068
:100AFE00000102020100052400100105240100017D
:100B0E0004240202052406000107058203080010D2
:100B1E0009040100020A000000070501020002009C
:100B2E00070581020002000009024300020100C015
:100B3E003209040000010202010005240010010523
:100B4E002401000104240202052406000107058287
:100B5E000308001009040100020A00000007050145
:100B6E0002400000070581024000000050D8050831
:100B7E000000000000000000000000000000000067
:100B8E000000000000000000000000000000000057
:100B9E0000000000120100020000004083042A57EA
:100BAE0000020102030100001201000202000040D7
:100BBE0083044057000201020301000012010002EB
:100BCE00EF020140830456320002010203010000CD
:100BDE0005010905A101A1000501093009310932FC
:100BEE00093309350934094009381581257F7508FF
:100BFE0095088102C0C000000921110100012226C2
:100C0E0000000000A9990108B98D01087199010829
:100C1E0085990108718D01085D99010847990108B0
:100C2E00959E01089D9C0108FDE201080000000050
:100C3E0000000000FDD40108F9D3010800000000F7
:100C4E000000000000000000F98E0108ED8E010882
:100C5E00E18E0108D58E0108C5B70108D5B6010889
:100C6E00B5B70108C58D010865B701080DB70108B4
:100C7E00458C010888030020008002021F0000003E
:100C8E0053544D202020202050726F647574202004
:100C9E002020202020202020302E303100FFFF0089
:100CAE0000000000AA5505010000010184DB0508C3
:100CBE000000000000000000000000000000000026
:100CCE000000000000000000000000000000000016
:100CDE0000000000FFFFFFFFFF1FFF1F2D202D2D27
:100CEE00202D2D2D2D202D2D2D2D0000000000004E
:100CFE000000000000000000000000AA550B0100DB
:100D0E0000AA5507010000AA550902000000AA55C5
:100D1E0003009F0001000000C0120000803A002076
:100D2E0000000000A43A00200000000001000000B6
:100D3E0000000100E0010100F5680208000000005B
:100D4E00E4DC050820700020702D7200FFFFFFFF0D
:100D5E00FF080101FFFF2D202D2D202D2D2D2D20E3
:100D6E002D2D2D00000000000000000000000000EE
:100D7E000000000000000000000000000000000065
:100D8E001CF305080000000000000000A8F3050891
:100D9E0001000000FA000000010000000100000048
:100DAE003641002000C801003541002000500100EE
:100DBE0034410020005A01003241002002000000A0
:100DCE00ACE20508104F0608184F0608A28800204E
:100DDE000100C40900000000A08800200100C40921
:100DEE00000000009E8800200100C40900000000E1
:100DFE009C8800200100C409000000009888002093
:100E0E000100C409000000009A8800200100C409F6
:100E1E0000000000968800200100C40900000000B8
:100E2E00948800200100C40900000000E43E002068
:100E3E000100C80001000000E23E002032003075C3
:100E4E0032000000E13E0020055A0500DE3E002083
:100E5E0000FF0100E03E002001000000D40400204D
:100E6E00DC3E002002000000A8DA0508DD3E00206E
:100E7E0000FF0100DF3E002001000000D40400202E
:100E8E00DB3E002002000000A8DA05080C4200201C
:100E9E00EE02CA08010000000A42002000C801004C
:100EAE00640000000942002000C801006400000038
:100EBE000842002002000000B8E20508CE3E0020E5
:100ECE0080C1803E05000000CC3E002080C1803EE7
:100EDE0005000000C63E002080C1803E05000000D7
:100EEE00C43E002080C1803E05000000BF3E0020B1
:100EFE0000FF0100B83E00206400F4010100000074
:100F0E00B73E002004000000C4E20508B63E0020F3
:100F1E0002000000D8E205085B3F00200D00000033
:100F2E00E4E20508583F002000640100563F00200F
:100F3E00320010270A000000553F00200D0000006F
:100F4E00E4E20508543F00200D000000E4E205082D
:100F5E00533F0020020000001CE3050800000000C3
:100F6E000000000028E305085C3000209CFF2C01E7
:100F7E0000000000BA460020E0150C17000000002B
:100F8E00E14500200200000060E305081842002041
:100F9E000100FF7F01000000174200200200000048
:100FAE006CE305085D3F0020030000007CE30508AC
:100FBE005C3F0020030000007CE305081441002084
:100FCE000000E80301000000124100200000E803C9
:100FDE0001000000104100200000E80301000000A5
:100FEE000E4100200000E803010000000C4100202B
:100FFE000000E803010000000A4100200000E803A1
:10100E0001000000094100200014010008410020E9
:10101E00030000008CE30508204100200000F401CD
:10102E00010000001E4100200000F401010000003C
:10103E001C4100200000F401010000001A410020B4
:10104E000000F40101000000184100200000803E65
:10105E0001000000164100200000803E010000004B
:10106E00494100201964010048410020020000009F
:10107E009CE3050846410020E803D0070A00000063
:10108E0044410020006401000A00000039410020A4
:10109E00006401003841002000640100404100203E
:1010AE00006401000A0000003F41002000640100BE
:1010BE000A0000003E410020006401000A0000000A
:1010CE0043410020006401000A000000424100205C
:1010DE00006401000A00000041410020006401008C
:1010EE000A0000003D41002001FF01000A0000003F
:1010FE003C41002001FF01000A0000003B4100209E
:10110E0001FF01000A000000663F00200000F4010C
:10111E0001000000643F00200000F4010100000007
:10112E00623F00200000F40101000000603F00203B
:10113E000000F401010000005E3F00200000F401F9
:10114E000100000031410020006401003041002008
:10115E00006401002F410020006401002E41002098
:10116E00FF0801002D41002001640100116F0208EB
:10117E00D56E0208A8E305082C410020006401008A
:10118E002A4100201400E80301000000284100203D
:10119E00E80330750A0000002641002000C8010057
:1011AE002541002000C801002441002000C8010094
:1011BE0023410020006401000A000000FE410020CF
:1011CE000000D00701000000F941002000C8010016
:1011DE00F841002000C80100F741002000C80100BE
:1011EE00FC4100200000D00701000000F641002065
:1011FE0000C80100F541002000C80100F4410020A4
:10120E0000C80100FA4100200000D00701000000D4
:10121E00F341002000C80100F241002000C8010087
:10122E00F141002000C80100000000003D6C0208E2
:10123E0018E40508513F002033000000B4E405080F
:10124E00503F002000C801004E3F0020E803D007A9
:10125E00010000004B414B555445463756320000B5
:10126E00DA3E002000030100D93E002000030100F9
:10127E009D6B0208756B020884E50508316B020848
:10128E00E56A0208D8E50508C56B02082DA3020819
:10129E0058E60508D03E00200103010071700208D7
:1012AE00457002084CE90508696A02081D6A0208C1
:1012BE00B0E90508536C020849A302084CEA050878
:1012CE0011B7020800000000F4EA050825A502087F
:1012DE00D170020890EB0508AD6C0208000000000A
:1012EE0000EC0508856D0208316D020864EC0508F6
:1012FE00156E0208D96D020800ED05084D6F020843
:10130E00956F020880ED05083741002001060100A7
:10131E00F56C0208C16C02087CEE0508516E0208DD
:10132E000DA40208ECEE0508C56F020891A4020890
:10133E00CCEF050822410020010301000D6C0208CC
:10134E00DD6B0208A0F005089D7002080000000089
:10135E0004F10508B56A0208FDA2020868F1050845
:10136E000000000000000000F4F105081D700208E6
:10137E0009A5020874F20508B23E002088136F1703
:10138E0001000000B43E002088136F17000000001B
:10139E00E68800200000000000000000E488002025
:1013AE000000000000000000E288002000000000A5
:1013BE0000000000E0880020000000000000000097
:1013CE00DE8800200000000000000000DC88002005
:1013DE0000000000000000002804002000000000B3
:1013EE0000000000883E002002000000FCF305080B
:1013FE00B03E002088136F17010000009C300020C3
:10140E0088136F1700000000AD690208000000008D
:10141E0008F40508E2450020010000005CF4050810
:10142E009E3000200100000068F405089430002072
:10143E000200000070F4050800000000000000002B
:10144E007CF40508956902080000000018F50508EF
:10145E0000000000000000006CF505080000000010
:10146E0000000000DCF5050898300020E0150C1790
:10147E0000000000FFFFFFFF0000803F00000000A3
:10148E0000000000000000000000803F000000008F
:10149E00000000000000000000000000000000003E
:1014AE00000000000000000000000000000000002E
:1014BE000000803F0000000000000000000000005F
:1014CE0001000000FFFFFFFF0000803F0000000052
:1014DE0000000000000000000000803F685E0C006D
:1014EE00FF010000A00F0000B80B00000102FFFF7B
:1014FE0001000000D6010100000101010001010000
:10150E00B58F0108958F0108518F0108000000006A
:10151E00458F0108318F01081D8F01080000000062
:10152E00000000000000000000000000118F010804
:10153E0000000000058F0108F5C60108498C01085E
:10154E00C58B0108AD8B0108FFFF0000FFFFFFFFF9
:10155E0014A7060800000802050304001CA70608CD
:10156E0001000802050404008CB206080200FE0108
:10157E000110030068520608030014020003000065
:10158E0024A7060804001F02010008002CA7060865
:10159E0005001F02010108001000000006000004F3
:1015AE00F99B0108B99A0108299C010851B8010854
:1015BE0029EA0108CDB80108C18E0108AD8E0108D7
:1015CE00A58E01080100000000600240106002407C
:1015DE000000000000000000000B000000000000F2
:1015EE000000000000000000006002402860024081
:1015FE000100000000000000060C000000000000CA
:10160E000000000000000000006002404060024048
:10161E000200000000000000100D0000000000009D
:10162E000000000000000000006002405860024010
:10163E000300000000000000160E00000000000075
:10164E0000000000000000000060024070600240D8
:10165E000400000000000000200F00000000000049
:10166E0000000000000000000060024088600240A0
:10167E000500000000000000261000000000000021
:10168E00000000000000000000600240A060024068
:10169E0006000000000000003011000000000000F5
:1016AE00000000000000000000600240B860024030
:1016BE000700000000000000362F000000000000B0
:1016CE0000000000000000000064024010640240B0
:1016DE0000000000000000000038000000000000C4
:1016EE000000000000000000006402402864024078
:1016FE00010000000000000006390000000000009C
:10170E00000000000000000000640240406402403F
:10171E000200000000000000103A0000000000006F
:10172E000000000000000000006402405864024007
:10173E000300000000000000163B00000000000047
:10174E0000000000000000000064024070640240CF
:10175E000400000000000000203C0000000000001B
:10176E000000000000000000006402408864024097
:10177E0005000000000000002644000000000000EC
:10178E00000000000000000000640240A06402405F
:10179E0006000000000000003045000000000000C0
:1017AE00000000000000000000640240B864024027
:1017BE000700000000000000364600000000000098
:1017CE000000000000000000B0A70608504C0608FC
:1017DE00000000003D5A0508A0860100040000002C
:1017EE0000000000000000000000000000000000EB
:1017FE0000000000000000000000000000000000DB
:10180E000000000000000000B0A706083CAB060870
:10181E0000000000FD640308E8030000040000005F
:10182E0000000000000000000000000000000000AA
:10183E00000000000000000000000000000000009A
:10184E00000000000000000058550608B87D06088C
:10185E0000000000590B00007D0000000600000093
:10186E00000000000000000000000000000000006A
:10187E00000000000000000000000000000000005A
:10188E00000000000000000000A706080000000095
:10189E0000000000FD770308E803000003000000CD
:1018AE00000000000000000000000000000000002A
:1018BE00000000000000000000000000000000001A
:1018CE00000000000000000044AB0608000000000D
:1018DE0000000000211E0308102700000300000076
:1018EE0000000000000000000000000000000000EA
:1018FE0000000000000000000000000000000000DA
:10190E00000000000000000020A7060800000000F4
:10191E0081F10308B98303085F760000050000001B
:10192E0000000000000000000000000000000000A9
:10193E000000000000000000000000000000000099
:10194E000000000000000000BCA906080000000016
:10195E00000000002DD00308102700000100000039
:10196E000000000000000000000000000000000069
:10197E000000000000000000000000000000000059
:10198E00000000000000000050AB06080000000040
:10199E0000000000B1600308E8030000050000002D
:1019AE000000000000000000000000000000000029
:1019BE000000000000000000000000000000000019
:1019CE0000000000000000005CAB060800000000F4
:1019DE0000000000257F0508204E000003000000D7
:1019EE0000000000000000000000000000000000E9
:1019FE0000000000000000000000000000000000D9
:101A0E0000000000000000006CAB060800000000A3
:101A1E0000000000117D0508204E000003000000AC
:101A2E0000000000000000000000000000000000A8
:101A3E000000000000000000000000000000000098
:101A4E0000000000000000007CAB06080000000053
:101A5E0000000000416A0308400D0300030000006F
:101A6E000000000000000000000000000000000068
:101A7E000000000000000000000000000000000058
:101A8E00000000000000000070A806080000000022
:101A9E000000000069770408102700000100000014
:101AAE000000000000000000000000000000000028
:101ABE000000000000000000000000000000000018
:101ACE0000000000000000007C4C06080000000032
:101ADE0000000000D9830208102700000300000058
:101AEE0000000000000000000000000000000000E8
:101AFE0000000000000000000000000000000000D8
:101B0E0000000000000000008CAB06080000000082
:101B1E0000000000153C0408A08601000100000032
:101B2E0000000000000000000000000000000000A7
:101B3E000000000000000000000000000000000097
:101B4E00000000000000000004A7060800000000CE
:101B5E00000000002564030850C3000001000000CF
:101B6E000000000000000000000000000000000067
:101B7E000000000000000000000000000000000057
:101B8E000000000000000000545106080000000094
:101B9E000000000065610308A8610000010000005C
:101BAE000000000000000000000000000000000027
:101BBE000000000000000000000000000000000017
:101BCE00000000000000000094AB060800000000BA
:101BDE000000000059BF0208A086010001000000AD
:101BEE0000000000000000000000000000000000E7
:101BFE0000000000000000000000000000000000D7
:101C0E000000000000000000C4A90608000000004B
:101C1E000000000041B10308A00F00000100000009
:101C2E0000000000000000000000000000000000A6
:101C3E000000000000000000000000000000000096
:101C4E000000000000000000A0AB0608000000002D
:101C5E0000000000AD730208102700000100000014
:101C6E000000000000000000000000000000000066
:101C7E000000000000000000000000000000000056
:101C8E000000000000000000585C06080000000084
:101C9E0000000000095502081A4100000100000072
:101CAE000000000000000000000000000000000026
:101CBE000000000000000000000000000000000016
:101CCE000000000000000000145106080000000093
:101CDE000000000055F5010810270000010000006B
:101CEE0000000000000000000000000000000000E6
:101CFE0000000000000000000000000000000000D6
:101D0E000000000000000000644C06080000000007
:101D1E00000000003DC702081A410000010000004B
:101D2E0000000000000000000000000000000000A5
:101D3E000000000000000000000000000000000095
:101D4E000000000000000000ACAB06080000000020
:101D5E0000000000F5010208400D03000000000025
:101D6E000000000000000000000000000000000065
:101D7E000000000000000000000000000000000055
:101D8E000000000000000000B4AB060800000000D8
:101D9E00000000003F5E0408400D0300000000003C
:101DAE000000000000000000000000000000000025
:101DBE000000000000000000000000000000000015
:101DCE000000000000000000BCAB06080000000090
:101DDE0000000000C9AD020850C30000030000005F
:101DEE0000000000000000000000000000000000E5
:101DFE0000000000000000000000000000000000D5
:101E0E000000000000000000C8AB06080000000043
:101E1E0000000000897C050840420F000000000011
:101E2E0000000000000000000000000000000000A4
:101E3E000000000000000000000000000000000094
:101E4E000000000000000000D4AB060800000000F7
:101E5E00000000001974040850C3000000000000C8
:101E6E000000000000000000000000000000000064
:101E7E000000000000000000000000000000000054
:101E8E0000000000000000000000803F0000000085
:101E9E001CA7002008000000000000000CA7002076
:101EAE00080000000CB1060818B1060824B1060897
:101EBE0030B106083CB1060848B10608585D060860
:101ECE00E07F0608C47E0608B0B0060828AB0608F8
:101EDE00FCB0060800B1060804B1060808B10608F1
:101EEE00ECB00608F0B00608F4B006083C7D060813
:101EFE00F8B006081900C800F4012003ECB006087B
:101F0E00F0B0060854B10608F4B0060858B1060839
:101F1E005CB106084B5F05080000000000000000E1
:101F2E000000000038160020000000000000000035
:101F3E000000000000000000000000000000000093
:101F4E000000000000000000000000000000000083
:101F5E000000000000000000000000000000000073
:101F6E000000000000000000000000000000000063
:101F7E000000000000000000000000000000000053
:081F8E0000000000000000004B
:101F96000000803F0000803F0000000001000000BC
:0C1FA6001CC8002000000000200000000B
:020000040801F1
:1000000003685A1C02601970704700BF2DE9F04761
:10001000089C002B8846074621780CBF4FF020092A
:100020004FF03009651C29B3002A27DD2B4601E07B
:100030000246A8B113F8016B501E002EF8D1961E8F
:1000400070B1B2460AF1FF3A49463846C0470AF154
:100050000103002BF6DC26EAE6702178013039B185
:10006000041B3846C047281915F8011B0029F8D190
:10007000BDE8F087002A03DC0846F9E70020EFE737
:10008000561EDEE72DE9F84F14461D4606464FF48E
:100090007A720023204629464E4F4BF061F94E4BB1
:1000A0004E4A40F2B55C0344DFF83CA182FB0301F9
:1000B000D81787FB03784A4F1944984487FB037E7F
:1000C000C0EB6111C0EBE8279E4482FB01824FEA3E
:1000D000E179C0EB2E4E8AFB078A0A44C1EB011B73
:1000E000C9EB62193F4AA3EB8B0BC9EB091982FBE1
:1000F0000E824FEAE77886F806B0A1EB8901DFF8B7
:10010000EC90C8EBAA08717189FB03134FEAEE71FA
:1001100008EB4808C1EBE212A7EBC8080CFB12E29F
:10012000C0EBE35386F80480B2F5896F4FEA830091
:100130003CDA40F2DA239A4242DCB2F5B77FDFF8CC
:10014000B080B4BF4FF0000E4FF0010E4FEA4E09E1
:100150001FFA8EFC09EB0E0308EBC303DF8A09EBE1
:100160000E010B2308EBC101163101E031F8027DCD
:10017000974218DD013BF9D1CE44012338F83E7097
:1001800000F5FA6E0132B3702046F444D71B2946BD
:100190004FF47A720023A6F800C0F7704BF0E0F835
:1001A0003281BDE8F88F0133DBB2E9E74FF0030C91
:1001B00040F29657DFF838804FF00609E646CEE762
:1001C0004FF0020C40F22947DFF824804FF0040979
:1001D000E646C4E7C5B3A29180BC92C789888888E7
:1001E00007452EC273B06D16ABAAAA2A792D03114A
:1001F00010D705080028F0B504DA2D23404201315C
:1002000001F8013C092804464FF0010307DD03EB28
:1002100083035B00B0FBF3F2092AF8D883B10E48E0
:10022000A0FB0356B4FBF3F2092A02F1570C02F1CA
:10023000300708DD03FB1244F30801F801CBEFD1CE
:1002400000230B70F0BD03FB1244F30801F8017B9F
:10025000E6D100230B70F0BDCDCCCCCC884270B47D
:100260004FF0010442D301FB04F4B0FBF4F58D42DE
:10027000F9D2ECB142BB092D04FB150005F157067C
:1002800005F130020EDD03F8016BB4FBF1F47CB133
:10029000B0FBF4F5092D04FB150005F1570605F137
:1002A0003002F0DC03F8012BB4FBF1F4002CEFD1A9
:1002B000002270BC1A707047B4FBF1F403F8016BB4
:1002C000002CF5D0B0FBF4F5092D04FB150005F169
:1002D000370605F13002EFDC03F8012BB4FBF1F433
:1002E000002CEFD1002270BC1A7070470546002A1E
:1002F000EAD1C0E7542200230221C2700422037015
:10030000C3728373C373417041728270C27182720F
:1003100030B4512501248571047230BC704700BF90
:10032000002306214FF47A7201700373C0E90123A0
:10033000704700BF33233222FF21437001234271F3
:100340000022817403720370037183704281828181
:10035000C28130B435254FF60174C570048230BCBB
:10036000704700BF3249334B2DE9F04F804683B0D0
:100370005D274FF0000A01F5807B2F4810220126EF
:1003800003E0203098420AD002799742F9D10268FE
:100390000C68A24208D0203001369842F4D12031B6
:1003A00059453AD00F79E8E744794D79A542F2D121
:1003B0000AEB4A099646214808F80970C144DFF85B
:1003C00080C000F5727589F801607246664603E0E8
:1003D000A84219D050F82C6FB242F9D10679A64242
:1003E000F6D1CF6806464FF0000C96460190F268B1
:1003F000BA4215D00CF1010C0C36BCF1030FF6D14A
:1004000001987246A842E5D14FF0FF3C203189F8AF
:1004100002C00AF1010A5945C4D103B0BDE8F08F0A
:10042000086932698242E5D14FFA8CFCEEE700BFE1
:10043000ECF805089C320608DC2806089C32060801
:1004400000000140154BFF214FF0FF3C0022C1701E
:10045000017101724172417381738174C174F0B58D
:1004600003F10C0E012717261625152402EB820234
:10047000734500EB020184544D708E70CF7081F88B
:1004800004C00AD093F9062006335C789D78DE78A4
:1004900093F9047093F905C0E8E7F0BD70D705083B
:1004A00010B42C21012402220023047041708270B8
:1004B000C3705DF8044B70470123002114220170C2
:1004C000C27003714370437110B4482484705DF8A6
:1004D000044B7047FF22034600F1100170B41A70FC
:1004E000023303F8012C8B42F9D10B4B4FF0FF3153
:1004F000002203F10F060C4605E093F9044093F93E
:10050000051013F8032F00EB42059E4200F812403D
:100510006970F2D170BC704784D705082DE9F04F9F
:10052000DFF8D8C185B0744CDCF800502288B4F9EB
:100530000AA0C2EB251352005B43C2EBE502B4F9FB
:1005400002501B136A43B4F904505D43AD1305EB2D
:10055000E225B5F5FA324FEAE57BA5614BF1FF33B1
:100560004FEAEA7BCDE90023DDE90032CDE9020163
:100570005343009A0199A2FB0289B4F9082000981C
:1005800009EB43095143D31700FB0311A2FB0023DE
:100590000B440AFB09F116031F0308FB0B13AAFB0C
:1005A000080147EA125719444FEA102A4AEA016A39
:1005B0004FEA212B1AEB0602E6884BEB070312F1F8
:1005C000000A43F5004BAAFB060106FB0B114A107B
:1005D000CB1752EA030100F08C80B4F91060009848
:1005E00006FB09F1F71708FB0711A6FB0867B4F92A
:1005F0000E8039444FEAE879B2468B46019908FBF0
:1006000001F100FB0911A8FB00898944DCF8041002
:100610004FEA4846C1F5801C4FEA49471AEB060AE3
:1006200047EAD8376646B4F90C804FEACC704BEBFA
:10063000070BF7174FEAC806F9070196002641EAAB
:100640005C0140F6354C0096DDE9006716EB0A06C2
:1006500047EB0B07801B61EB07018946A0FB0C01F0
:100660000CFB09114AF07CFEB4F916204E13B4F9C4
:1006700014A0470B804602FB06FCD31747EAC1478C
:100680004FEAEA7B07FB03CCA2FB072363445643F4
:1006900007FB0366A2FB07233344560E46EAC31644
:1006A0005F16321847EB01030AFB01F108FB0B1739
:1006B000AAFB08013944C60C46EA4136CF1412EBB6
:1006C0000608B4F9122043EB07094FEA1821130179
:1006D00041EA09610B44029A0AB11B0A1360039BA9
:1006E00023B105EB850580352D121D6005B0BDE8F1
:1006F000F08F0023EFE700BFBC5F002098160020BA
:1007000070477047012380F8543070474FF40063FE
:1007100083837047034610B4D0F8F840D968406925
:1007200064B1D3F810218C1A013A005D08BF0A4663
:100730005DF8044BC0B2C3F8102170471A6A805CA0
:1007400001328A4228BF2246C0B25DF8044B1A62C9
:10075000704700BFD0F8FC3013B190F8900170479B
:10076000D0E90903181AB0FA80F04009704700BFB9
:10077000D0E909120369914238BFC918013B8A1AAE
:10078000D0F8FC1031B1D0F87C11096849680A44EE
:100790009A4201D2981A704700207047D0F8F8307A
:1007A0006BB1D0F88031D0F810211B685B689A4299
:1007B00001D8981A7047C068801A18447047D0E969
:1007C00007239A4203D2C0681044C01A7047D01A57
:1007D000704700BF0138F0B54001104C104E83B097
:1007E000255804440F4F306BBD420CBF4FF4001529
:1007F0004FF4800528433063366B94F9110035407F
:10080000E160636191090195019B3FF0D9F994F989
:10081000110003B0BDE8F04009F006BBD80C002081
:100820000038024000600240F0B4C76982B006465A
:100830001FB1BB883A681B049361726903206D463F
:100840003E4C536823F48053536040F2E93301E097
:10085000013B54D091688907FAD5002C4CD034F86C
:10086000023B938140F2E93301E0013B47D09168BC
:10087000C907FAD5D3680DB125F8023B0138E4D198
:10088000516840F2E93341F48051516001E0013B8D
:1008900035D091688807FAD5002C47D02378137398
:1008A00040F2E93301E0013B42D09168C907FAD533
:1008B000D368F76905B12B7017B13B68BA889A61A4
:1008C0009DF8014001209DF803309DF802109DF82D
:1008D000042041EA04219DF8054042EA03229DF8E4
:1008E0000630A6F8541043EA0423A6F85620A6F8CA
:1008F000583002B0F0BC70474FF6FF73B1E71049B3
:100900008A4207D00F4B9A420ED003F57C439A429D
:10091000D2D103230C4AD82101FB03239A89013247
:1009200092B29A819B89C7E70123F3E7FF23B6E7D9
:100930000349F7698A42E5D1ECE700BF98D705087B
:1009400000300140003800408484002013B50623A5
:100950000C466A4628210C303CF0F6FCF0B19DF8BC
:10096000013004219DF8002042EA03229DF8033063
:1009700012B292FBF1F222809DF8022042EA032299
:100980009DF8043012B292FBF1F262809DF80520CE
:1009900043EA02231BB293FBF1F3A38002B010BD24
:1009A0007FB5002500F10C060C4601230D800DF1EA
:1009B00007024D8030468D8006213CF0C5FC10B901
:1009C000002004B070BD9DF807305B07F8D5062302
:1009D00002AA294630463CF0B7FC0028F0D09DF82A
:1009E00009209DF8083043EA02239DF80B2023805C
:1009F0009DF80A3043EA02239DF80D2063809DF89C
:100A00000C3043EA0223A380DBE713B506230C4630
:100A10006A4603210C303CF097FCA0B19DF8002001
:100A20009DF8013043EA02239DF8022023809DF8BF
:100A3000033043EA02239DF80420A3809DF805308B
:100A400043EA0223638002B010BD07B506236A465D
:100A5000F7213CF079FC9DF801309DF800101B0156
:100A60000B4A43EA01339DF8021043EA11139DF843
:100A7000031053609DF804301B0143EA01339DF8D5
:100A8000051043EA1113136003B05DF804FB00BFC7
:100A9000981600203CF056BF014B18682AF04CBB5A
:100AA000D85700201D4B1B7870B5044600F1250572
:100AB00093B104221A4920304CF0ECFD2846142250
:100AC00018494CF0E7FD012384F83A30164B1B78A7
:100AD00073B984F83B3070BD2846142213494CF09A
:100AE000D9FD012384F83A300F4B1B78002BF0D04E
:100AF0000F4A0123166855689068D16826606560C2
:100B0000A060E160D16916695569906984F83B304D
:100B100026616561A061E16170BD00BF9463002042
:100B20005C63002044630020956300209046060823
:100B30006463002010B427212624012200230470BE
:100B400041708270C3705DF8044B704738B52E2237
:100B500000214CF0A9FC6424034640F21A4240F202
:100B6000DC5040F26C7540F202211C745882132450
:100B700019209A8240F27532DD82198340F64305CE
:100B80000E219C7618770A240220DA83012283F84A
:100B900022101872194683F82C001D8483F82D400A
:100BA0009A7383F8252083F82B200248BDE838404B
:100BB00033F05ABE9C46060810B5044600210120B9
:100BC00026F030FA207010BD38B50023451E1C46B3
:100BD0000372E1B20134022026F024FA082C05F851
:100BE000010FF6D138BD00BFF8B5EFF311845023E3
:100BF00083F31288D0F8FC301B6813F0010303D094
:100C0000E4B284F31188F8BD90F8852190F886113C
:100C10000A4302F02102212AF2D0D0E909129142BE
:100C200045D095B247D94B1B9BB28162002590F805
:100C3000851180F890512029E2D18569D54205EBD4
:100C40000201DDD0B3FA83F56D09002DD8D190F8FB
:100C50008421012AD4D0064621220120DFF864C075
:100C6000A6F86E31D6F87C71C6F8885186F88521D1
:100C7000134AA6F86C3186F884013846C6F8681124
:100C80003D65C7E90FC2D6F81C21DFF83CC0283209
:100C9000C7F84CC00EF0F2F9D6F81C3140221A62A7
:100CA00086F884519A6842F080029A60A8E701238E
:100CB00080F89031A4E706691946731B9BB2B4E72C
:100CC00089910108BF91010823910108426A10B47B
:100CD0008469A154426A04690132D0F8FC10A2422E
:100CE00028BF0022426241B9D0F81C215DF8044BB4
:100CF000136843F08003136070475DF8044B73E79B
:100D0000436910B5184C04EB8303986A0DF018FF83
:100D1000B4F8482023460C2A0DD8DFE802F0070C6F
:100D20000C0C130C0C0C190C0C0C1F00A168CA68DD
:100D300022F40072CA60012283F8452000220B4B86
:100D40001A7010BDA168CA6822F48062CA60F2E716
:100D5000A168CA6822F40062CA60ECE7A168CA68A8
:100D600022F48052CA60E6E7981600204342002031
:100D7000406998300DF0E4BE10B500F10C0400227B
:100D8000212120463CF0FEFCFC22202120463CF0A4
:100D9000F9FC4022242120463CF0F4FC0C222321C3
:100DA00020463CF0EFFC0022222120463CF0EAFCE9
:100DB00064202AF049F8012010BD10B500F10C04A0
:100DC00001220B2120463CF0DDFC20B11D2209212F
:100DD00020463CF0D7FC00F0010010BD10B500F13A
:100DE0000C047022002120463CF0CCFC2022012182
:100DF00020463CF0C7FC0022022120463CF0C2FC09
:100E000064202AF021F8012010BD3122F4213CF0A9
:100E1000B9BC00BF0269C3682DE9F04712EA0309B3
:100E200027D00E4605464FF000474FF00008B9FAAC
:100E300089F327FA03F21B3BD2432A6109EA02092C
:100E4000042B13D8DFE803F0322920170300736A5C
:100E5000002B34D1EB6A1FFA83FA346A34B1236869
:100E60002046514698476468002CF8D1B9F1000F2C
:100E7000DDD1BDE8F0873068696B036889B29847B7
:100E8000B9F1000FD3D1F4E77068A96B036889B298
:100E90009847B9F1000FCAD1EBE7B068E96B036876
:100EA00089B29847B9F1000FC1D1E2E7F068296C27
:100EB000036889B29847B9F1000FB8D1D9E703F1B7
:100EC000FF3AC6F824801FFA8AFAC6E72DE9F04FE8
:100ED00089B090F865300090002B40F07587009B3A
:100EE000A9495A6913688A4223F04003136000F04D
:100EF0006687A64B9A4200F06287382013680099F3
:100F000023F03803C96903431360136843F04003B7
:100F1000136019B18B8809681B048B6140F2E933B7
:100F200002E0002B01F061819168013B11F0020F9A
:100F30009BB2F6D06B2140F2E933117302E0002B33
:100F400001F095819168013B11F0010F9BB2F6D041
:100F5000D368009B5A6940F2E93302E0002B00F0AD
:100F6000D3879168013B11F0020F9BB2F6D080212C
:100F700040F2E933117302E0002B00F0C58791685D
:100F8000013B11F0010F9BB2F6D0D368009BDB69E7
:100F900013B11A689B88936164237D4E4FF010094A
:100FA000DFF8FCE101937B4C7B4BDFF8F8817B4F52
:100FB000DEF80420C2F30802002A40F02086EFF396
:100FC0001182002A40F01B861D68A1681A689542AC
:100FD000FAD13A689142F7D8D6F800C04FF47A7047
:100FE00000FB0CF2521AB2FBFCF200FB05254FF499
:100FF0007A7C4FF0010ADEF80420C2F30802002ACE
:1010000040F0BE85EFF31182002A40F0B9851968DF
:10101000A0681A689142FAD13A689042F7D83268CB
:101020000CFB02FBABEB0000B0FBF2F00CFB010190
:10103000491BB1F57A7FDED3019901390191B7D10E
:101040000099C86920B1818800680904816100990C
:10105000486940F2E93102E0002901F0AE8084687D
:10106000013914F0020F89B2F6D0682440F2E93158
:10107000047302E0002901F00F818468013914F043
:10108000010F89B2F6D0C1680099486940F2E93190
:1010900002E0002900F020878468013914F0020F73
:1010A00089B2F6D0032440F2E931047302E000294A
:1010B00000F012878468013914F0010F89B2F6D06C
:1010C000C1680099C96911B1086889888161642182
:1010D000DFF8CCE04FF010092E4CDFF8C8802F4F1E
:1010E0000191DEF80410C1F30801002940F0678582
:1010F000EFF31181002940F062851D68A06819682E
:101100008D42FAD139688842F7D84FF47A7101FBE1
:1011100002FCACEB0000B0FBF2F201FB05254FF442
:101120007A7C4FF0010ADEF80420C2F30802002A9C
:1011300040F00785EFF31182002A40F0028519681C
:10114000A0681A689142FAD13A689042F7D832689A
:101150000CFB02FBABEB0000B0FBF2F00CFB01015F
:10116000491BB1F57A7FDED3019901390191B8D1DC
:101170000099C86920B181880068090481610099DB
:10118000486940F2E93112E000380040003C00407C
:10119000AC63002010E000E0A8630020B0630020F2
:1011A00000ED00E0A4630020002900F0608784685F
:1011B000013914F0020F89B2F6D06B2440F2E93104
:1011C000047302E0002900F06A878468013914F092
:1011D000010F89B2F6D0C1680099486940F2E9313F
:1011E00002E0002900F060868468013914F0020FE3
:1011F00089B2F6D0012440F2E931047302E00029FB
:1012000000F052868468013914F0010F89B2F6D0DB
:10121000C1680099C96911B10868898881610F2185
:10122000DFF844E24FF010098D4CDFF840828D4F1B
:101230000191DEF80410C1F30801002940F07C851B
:10124000EFF31181002940F077851D68A0681968C7
:101250008D42FAD139688842F7D84FF47A7101FB90
:1012600002FCACEB0000B0FBF2F201FB05254FF4F1
:101270007A7C4FF0010ADEF80420C2F30802002A4B
:1012800040F04084EFF31182002A40F03B8419685B
:10129000A0681A689142FAD13A689042F7D8326849
:1012A0000CFB02FBABEB0000B0FBF2F00CFB01010E
:1012B000491BB1F57A7FDED3019901390191B8D18B
:1012C0000099C86920B1818800680904816100998A
:1012D000486940F2E93102E0002900F01187846892
:1012E000013914F0020F89B2F6D01B2440F2E93123
:1012F000047302E0002900F01B878468013914F0B0
:10130000010F89B2F6D0C1680099486940F2E9310D
:1013100002E0002900F0B0858468013914F0020F62
:1013200089B2F6D0182440F2E931047302E00029B2
:1013300000F0A2858468013914F0010F89B2F6D05B
:10134000C1680099C96911B10868898881610F2154
:10135000DFF814E14FF01009414CDFF81081414FE4
:101360000191DEF80410C1F30801002940F0C484A3
:10137000EFF31181002940F0BF841D68A06819684F
:101380008D42FAD139688842F7D84FF47A7101FB5F
:1013900002FCACEB0000B0FBF2F201FB05254FF4C0
:1013A0007A7C4FF0010ADEF80420C2F30802002A1A
:1013B00040F08A83EFF31182002A40F08583196898
:1013C000A0681A689142FAD13A689042F7D8326818
:1013D0000CFB02FBABEB0000B0FBF2F00CFB0101DD
:1013E000491BB1F57A7FDED3019901390191B8D15A
:1013F0000099C86920B18188006809048161009959
:10140000486940F2E93102E0002900F0A6868468CC
:10141000013914F0020F89B2F6D01C2440F2E931F0
:10142000047302E0002900F0F8868468013914F0A2
:10143000010F89B2F6D0C1680099486940F2E931DC
:1014400002E0002900F078858468013914F0020F69
:1014500089B2F6D0182440F2E93104730BE000BFE2
:1014600010E000E0B063002000ED00E0A463002085
:10147000002900F061858468013914F0010F89B2F8
:10148000F6D0C1680099C96911B10868898881617D
:101490000F21DFF870E24FF01009984DDFF86882F5
:1014A000974F0191DEF80410C1F30801002940F0C4
:1014B0006384EFF31181002940F05E841C68A86802
:1014C00019688C42FAD139688842F7D84FF47A719A
:1014D00001FB02FCACEB0000B0FBF2F201FB0424C8
:1014E0004FF47A7C4FF0010ADEF80420C2F30802C0
:1014F000002A40F0CB82EFF31182002A40F0C6822E
:101500001968A8681A689142FAD13A689042F7D8E7
:1015100032680CFB02FBABEB0000B0FBF2F00CFB03
:101520000101091BB1F57A7FDED3019901390191DF
:10153000B8D1009890F85F10032900F23D8490F82C
:101540006240012C0AD0022C40F0368490F86710DB
:1015500001F0FB0102290CBF002407240099C8698F
:1015600020B181880068090481610099486940F2CE
:10157000E93102E0002900F0A4868568013915F000
:10158000020F89B2F6D01A2540F2E931057302E064
:10159000002900F0C6868568013915F0010F89B26F
:1015A000F6D0C1680099486940F2E93102E00029AB
:1015B00000F007858568013915F0020F89B2F6D071
:1015C000047340F2E93102E0002900F0FA848468F3
:1015D000013914F0010F89B2F6D0C1680099C969C8
:1015E00011B10868898881610F21DFF818E14FF097
:1015F0001009424CDFF81081414F0191DEF80410D0
:10160000C1F30801002940F03983EFF3118100296B
:1016100040F034831D68A06819688D42FAD139689A
:101620008842F7D84FF47A7101FB02FCACEB000062
:10163000B0FBF2F201FB05254FF47A7C4FF0010A72
:10164000DEF80420C2F30802002A40F00182EFF322
:101650001182002A40F0FC811968A0681A68914242
:10166000FAD13A689042F7D832680CFB02FBABEB38
:101670000000B0FBF2F00CFB0101491BB1F57A7FD1
:10168000DED3019901390191B8D10099C86991F867
:10169000644020B18188006809048161009948692B
:1016A00040F2E93102E0002900F023868568013923
:1016B00015F0020F89B2F6D0192540F2E931057311
:1016C00002E0002900F043868568013915F0010F1A
:1016D00089B2F6D0C1680099486940F2E93102E068
:1016E000002900F057848568013915F0020F89B28E
:1016F000F6D0047340F2E9310BE000BF10E000E0E7
:10170000B063002000ED00E0A4630020002900F099
:1017100041848468013914F0010F89B2F6D0C168A0
:101720000099C96911B10868898881616421DFF86D
:10173000DCE24FF01009B14CDFF8D482B04F0191D8
:10174000DEF80410C1F30801002940F07882EFF3BD
:101750001181002940F073821D68A06819688D42CC
:10176000FAD139688842F7D84FF47A7101FB02FC4C
:10177000ACEB0000B0FBF2F201FB05254FF47A7CE4
:101780004FF0010ADEF80420C2F30802002A40F0FC
:101790004181EFF31182002A40F03C811968A06872
:1017A0001A689142FAD13A689042F7D832680CFB35
:1017B00002FBABEB0000B0FBF2F00CFB0101491B9C
:1017C000B1F57A7FDED3019901390191B8D1009A40
:1017D000D16921B18A88096812048A61009A516925
:1017E00040F2E93202E0002A00F0CF848868013A32
:1017F00010F0020F92B2F6D0372040F2E9320873AF
:1018000002E0002A00F01E858868013A10F0010FFE
:1018100092B2F6D0CA68009A516940F2E93202E009
:10182000002A00F0A1838868013A10F0020F92B2FA
:10183000F6D0102040F2E932087302E0002A00F0EE
:1018400093838868013A10F0010F92B2F6D0CA680B
:10185000009AD26912B1116892888A610F22DFF86A
:10186000ACE14FF01009654CDFF8A481644F0192A0
:10187000DEF80420C2F30802002A40F01E82EFF3D3
:101880001182002A40F019821D68A1681A689542E9
:10189000FAD13A689142F7D8D6F800C04FF47A707E
:1018A00000FB0CF2521AB2FBFCF200FB05254FF4D0
:1018B0007A7C4FF0010ADEF80420C2F30802002A05
:1018C0007ED1EFF31182002A7AD11A68A0681968D4
:1018D0008A42FAD139688842F7D831680CFB01FB9B
:1018E000ABEB0000B0FBF1F00CFB0202521BB2F5B7
:1018F0007A7FE0D3019A013A0192B9D1009BDA696B
:1019000022B1938812681B049361009B5B6940F2CB
:10191000E93202E0002A00F065859968013A11F089
:10192000020F92B2F6D0382140F2E932197302E088
:10193000002A00F021859968013A11F0010F92B256
:10194000F6D0DB68009B5B6940F2E93202E0002AD6
:1019500000F02B859968013A11F0020F92B2F6D08F
:10196000012140F2E932197302E0002A00F04B85B0
:101970009968013A11F0010F92B2F6D0DB68009B32
:101980005B69009AD26912B1116892888A611A68FB
:101990001C4922F040028B421A6000F013821A4A5E
:1019A000934200F00F8218211A6822F038020A438D
:1019B0001A601A6842F040021A6009B0BDE8F08F60
:1019C000EFF3118089F31288D4F808B02268D203AB
:1019D00003D5C8F800A0D4F808B01A68C0B2D8F887
:1019E000001080F3118830680A440CFB00F1A1EB71
:1019F0000B01B1FBF0F10CFB021277E710E000E005
:101A0000B063002000380040003C004000ED00E0E2
:101A1000A4630020EFF3118289F31288D4F808B090
:101A20002168C80303D5C8F800A0D4F808B0196825
:101A3000D2B2D8F8000082F31188326801440CFB5E
:101A400002F0A0EB0B00B0FBF2F00CFB0101B6E6DC
:101A5000EFF3118289F31288D4F808B02168C90322
:101A600003D5C8F800A0D4F808B01968D2B2D8F8E5
:101A7000000082F31188326801440CFB02F0A0EBF5
:101A80000B00B0FBF2F00CFB0101F6E5EFF3118265
:101A900089F31288D5F808B02968C90303D5C8F8B6
:101AA00000A0D5F808B01968D2B2D8F8000082F3C7
:101AB0001188326801440CFB02F0A0EB0B00B0FB74
:101AC000F2F00CFB01012CE5EFF3118289F312888F
:101AD000D4F808B02168C90303D5C8F800A0D4F829
:101AE00008B01968D2B2D8F8000082F311883268C1
:101AF00001440CFB02F0A0EB0B00B0FBF2F00CFB7E
:101B000001016DE4EFF3118289F31288D4F808B073
:101B10002168C90303D5C8F800A0D4F808B0196833
:101B2000D2B2D8F8000082F31188326801440CFB6D
:101B300002F0A0EB0B00B0FBF2F00CFB0101FFF791
:101B4000B7BBEFF3118289F31288D4F808B021688B
:101B5000C90303D5C8F800A0D4F808B01968D2B2F8
:101B6000D8F8000082F31188326801440CFB02F0BF
:101B7000A0EB0B00B0FBF2F00CFB0101FFF7F0BA99
:101B8000EFF3118289F31288D4F808B02168C903F1
:101B900003D5C8F800A0D4F808B01968D2B2D8F8B4
:101BA000000082F31188326801440CFB02F0A0EBC4
:101BB0000B00B0FBF2F00CFB0101FFF739BAEFF3B9
:101BC000118289F31288A0682168CD0303D5012111
:101BD000C8F80010A0681D68D2B2D8F800A082F33F
:101BE00011884FF47A71D6F800C0554401FB0CF20D
:101BF000121AB2FBFCF201FB0525FFF790BAEFF3D6
:101C0000118289F31288A0682168CD0303D50121D0
:101C1000C8F80010A0681D68D2B2D8F800A082F3FE
:101C200011884FF47A71D6F800C0554401FB0CF2CC
:101C3000121AB2FBFCF201FB0525FFF7D8B9EFF34E
:101C4000118289F31288A0682168CD0303D5012190
:101C5000C8F80010A0681D68D2B2D8F800A082F3BE
:101C600011884FF47A71D6F800C0554401FB0CF28C
:101C7000121AB2FBFCF201FB05257FE5EFF311829E
:101C800089F31288A0682168CD0303D50121C8F823
:101C90000010A0681D68D2B2D8F800A082F31188A5
:101CA0004FF47A71D6F800C0554401FB0CF2121AB9
:101CB000B2FBFCF201FB0525BEE4EFF3118289F3D0
:101CC0001288A0682168C90303D50121C8F8001053
:101CD000A0681D68D2B2D8F800A082F311884FF432
:101CE0007A71D6F800C0554401FB0CF2121AB2FB0F
:101CF000FCF201FB0525DAE5EFF3118289F3128886
:101D0000A0682168CD0303D50121C8F80010A068A0
:101D10001D68D2B2D8F800A082F311884FF47A710E
:101D2000D6F800C0554401FB0CF2121AB2FBFCF2CB
:101D300001FB0525FFF733BBEFF3118289F312880E
:101D4000A0682168CD0303D50121C8F80010A06860
:101D50001D68D2B2D8F800A082F311884FF47A71CE
:101D6000D6F800C0554401FB0CF2121AB2FBFCF28B
:101D700001FB0525FFF77BBAEFF3118289F3128887
:101D8000A8682968CC0303D50121C8F80010A86809
:101D90001C68D2B2D8F800A082F311884FF47A718F
:101DA000D6F800C0544401FB0CF2121AB2FBFCF24C
:101DB00001FB0424FFF794BB019CFFF7CFBB30204D
:101DC000FFF79CB81021EFE51C0903F00F03013C5D
:101DD000042C00F23483BC4A32F8140040FA03F2B7
:101DE000D10740F12C83012202FA03F3013B184092
:101DF00049F006FBB54BB6491B5D184411EBC00515
:101E000000F01D83AF882026B24A0024B7FA87F37A
:101E1000AE71009EC3F11F03EC71F2605A1C3FF4D7
:101E20005EA83246DFF8D4C2AB4E0C3251F8300017
:101E300006EB030E03A94CF82320A84B0397049349
:101E40009EF890700594CDE906440AF0FBF8A44B87
:101E5000DA5DF02A00F2CC80AB880122B3FA83F37A
:101E6000C3F11F0312FA03F33FF439A89D490A682E
:101E700013430B60FFF733B89B4CA04209D09B493A
:101E8000884200F0F28001F57C4188427FF459AA33
:101E900003219748D82404FB01018889013080B2CE
:101EA00088818989FFF74DBA8F4CA04209D08F49AC
:101EB000884200F0CC8001F57C4188427FF4A9A9DA
:101EC00003218B48D82404FB01018889013080B2AA
:101ED00088818989FFF79DB9834CA04209D0834945
:101EE000884200F0BE8001F57C4188427FF4E9A879
:101EF00003217F48D82404FB01018889013080B286
:101F000088818989FFF7DDB877498A4209D0774B04
:101F10009A4200F0A48003F57C439A427FF436A8ED
:101F20000323734AD82101FB03239A89013292B219
:101F30009A819B89FFF72AB86B4CA04209D06B4964
:101F4000884200F08A8001F57C4188427FF49AAA99
:101F500003216748D82404FB01018889013080B23D
:101F600088818989FFF78EBA5F48814208D05F4A2D
:101F7000914278D002F57C4291427FF469AC032211
:101F80005B49D82000FB02129189013189B291810D
:101F900092895DE4544CA04208D05449884258D0FC
:101FA00001F57C4188427FF4BBAB03215048D82423
:101FB00004FB01018889013080B288818989FFF79B
:101FC000AFBB494CA04208D04849884243D001F5F4
:101FD0007C4188427FF402AB03214548D82404FBAE
:101FE00001018889013080B288818989FFF7F6BABA
:101FF000F021404A3E44D955D36896F8A020C3F357
:10200000022351B2C3F107001E1D042828BF04207B
:10201000062E88BFDC1E4FF0FF33002903FA00F3C1
:102020006FEA030303F0030303FA04F34FEA031315
:10203000DBB2C0F2328202F01F062F4801224C09A7
:102040000144B24081F8003340F8242004E7012124
:1020500037E70121AAE70121BFE7012179E7012341
:102060005FE7012145E701228AE7012111E71E4CC4
:10207000A04209D01D49884200F0168201F57C413A
:1020800088427FF4ABA80321194CD82505FB0141F8
:102090008C890134A4B28C818989FFF79FB8124DD5
:1020A000009CA842646909D01049884200F0068269
:1020B00001F57C41884240F0C78103210C4DD827AF
:1020C000204607FB0151E3E7C8280608D428060884
:1020D000B86700200507010810D705080000111097
:1020E00064A60020003C0140003001400038004060
:1020F0008484002000ED00E000E100E024A6002040
:10210000B54CA04209D0B549884200F0CB8101F519
:102110007C4188427FF4FAA80321B14CD82505FB05
:1021200001418C890134A4B28C818989FFF7EEB812
:10213000A94D009CA842646909D0A849884200F0D2
:10214000BF8101F57C41884240F081810321A44D8B
:10215000D827204607FB0151E3E79F4CA04209D056
:102160009E49884200F0A68101F57C4188427FF4B7
:1021700065A903219A4CD82505FB01418C890134BE
:10218000A4B28C818989FFF759B99348814209D05B
:10219000924A914200F0908102F57C4291427FF494
:1021A0003CAB03228E48D82404FB02029089013004
:1021B00080B290819289FFF730BB874CA04209D052
:1021C0008649884200F0808101F57C4188427EF496
:1021D0005DAF0321824CD82505FB01418C89013478
:1021E000A4B28C818989FEF751BF7B498A4209D00C
:1021F0007A4B9A4200F0668103F57C439A427EF462
:10220000AAAE03237649D82000FB03139989013134
:1022100089B299819B89FEF79EBE6F4D009CA842B2
:10222000646909D06D49884200F0408101F57C4124
:10223000884240F00F810321694DD827204607FBD3
:1022400001519BE7644C0098A142406909D0634A60
:10225000914200F02D8102F57C42914240F0FD80D8
:1022600003225F4CD825014605FB02429EE75A48EF
:1022700000998242496909D0584B9A4200F009817D
:1022800003F57C439A4240F0D48003235448D82479
:102290000A4604FB0303B9E74F4D009CA84264695A
:1022A00009D04E49884200F0F68001F57C41884211
:1022B00040F0C28003214A4DD827204607FB015138
:1022C0008CE7454DA84209D04449884200F0D380AC
:1022D00001F57C4188427FF467A90321404DD8274E
:1022E00007FB01518D890135ADB28D818989FFF7D9
:1022F0005BB9394DA84209D03849884200F0BD8009
:1023000001F57C4188427FF4E8A90321344DD827A8
:1023100007FB01518D890135ADB28D818989FFF7A8
:10232000DCB92D4F009DB8426D6909D02B49884218
:1023300000F0A58001F57C41884240F091800321A6
:10234000274F4FF0D80C28460CFB0171CAE7224FEB
:10235000009DB8426D6908D02049884200F09780FE
:1023600001F57C41884261D103211D4F4FF0D80C0B
:1023700028460CFB0171CDE7174800998342496953
:1023800007D0164A93427CD002F57C4293426AD130
:1023900003221348D8240B4604FB02029189013121
:1023A00089B291819289FFF7CFBA0B498B4208D04D
:1023B0000A4A934269D002F57C4293427FF4E1AA33
:1023C00003220749D82000FB02129189013189B20A
:1023D00091819289FFF7D5BA003001400038004062
:1023E0008484002039498B4208D0394A93424AD02C
:1023F00002F57C4293427FF4A7AA03223549D820F4
:1024000000FB0212CAE7314800998342496907D0AC
:102410002F4A93422DD002F57C42934226D10322CB
:102420002C48D8240B4604FB0202CEE72846FFF7CF
:1024300054B90A46FEF78FBD2046FEF727BE264B4D
:10244000009AD360FEF74BBD2046FEF7C7BE20467C
:10245000FEF75CBF2046FEF7F1BF0146FFF7DDB98E
:102460002846FFF7A1B80B46FFF76EBA0B46FFF7F9
:1024700088BA0122D4E7012130E7012146E7012192
:102480005EE7012285E70122B8E7012299E70121F1
:102490006BE70123FAE601210DE702F00F020F4975
:1024A0008B54D9E4012138E60121EDE50121C3E691
:1024B0000122D6E601215DE6012273E60121FDE558
:1024C000012144E601239DE6012183E6003001401D
:1024D00000380040848400200507010814ED00E066
:1024E000F8B5D0F81C310446DA69910615D5586A5A
:1024F000E36AC0B2002B00F0CC80216B9847D4F87F
:102500001C311A6822F480721A609A6822F0010263
:102510009A609A6942F008029A61DA69D20701D595
:1025200001221A62DA69970701D502221A62DA6972
:10253000560701D504221A62DA69150701D5082267
:102540001A62D4F8FC2002B3D969490600D4F8BD58
:10255000D96904F58E701E680F079D682DD18F060E
:1025600002D5B50600F1DB800F0602D5350600F175
:10257000BA80480602D5710600F18380002AE6D0B1
:102580002046BDE8F840FEF72FBBD9690806DBD529
:1025900094F885112129D7D0D4E90901814200F0AE
:1025A0009B80A069405C0131C0B298622569B1FB93
:1025B000F5F005FB1011A162C6E715F0010502D187
:1025C00016F4907FD0D0CF0701D5F7057BD48F07C5
:1025D0004AD5002D6CD10F0709D5B70665D508255A
:1025E0001D62D4F8885145F00805C4F88851D4F824
:1025F0008851002DC2D08F0605D5B50603D509F048
:10260000F1FED4F81C31D4F88821110708D49A6857
:1026100012F0400204D1C4F88821D4F8FC20ADE7C0
:102620001A68202122F490721A609A6822F001023E
:102630009A6084F886119A685206EED59A68D4F8A2
:10264000801122F040029A600029E6D0414B0846F2
:102650000B650CF04FFB0028DFD0D4F88001036D30
:102660009847D4F8FC2089E74F07B4D5002DB2D0A5
:1026700004271F62D4F8887147F00207C4F88871F4
:10268000A9E71968202021F04001196084F885012C
:1026900074E7E3696269D054E369E1680133B3FB2D
:1026A000F1F201FB1233E36129E7002D9FD096E799
:1026B00002271F62D4F8887147F00407C4F88871B4
:1026C0004F0788D5D4E701271F62D4F8887147F0F7
:1026D0000107C4F888717AE7A4F86E21196821F01F
:1026E0008001196030E794F8851121297FF446AF05
:1026F000B4F86E1189B2B9B1D4F82401D4F86811D4
:10270000B0F5805F19D0481CC4F868010978996257
:10271000B4F86E31013B9BB2A4F86E312EE709F09C
:1027200061FED4F8FC2029E7196821F080011960C6
:10273000196841F04001196020E7D4F82C01002805
:10274000E1D131F8020BC0F308009862C4F86811B7
:10275000DEE700BF159101082DE9F84F037C016801
:102760001F2B0BD9203B2022496802FA03F30B42AE
:1027700014BF012300235BB9BDE8F88F202209684C
:1027800002FA03F30B4214BF01230023002BF3D002
:1027900047690446924E25F0C5FD4FF48E7380467E
:1027A00003FB07631A7C002A2ED18E495A680978E8
:1027B0001568C1B9D3F8901058890A6822F001024F
:1027C0000A60EB6823EA0003EB60874B1B78002B61
:1027D00033D1237C21681F2B0FD8202202FA03F368
:1027E0008B60BDE8F88F5269136823F00103136012
:1027F000EB6823F48073EB60E7E7203B202202FACA
:1028000003F3CB60BDE8F88F764A01211278597442
:10281000002A40F08780D3F8900059680268096860
:1028200022F001025D890260CB6823EA0503CB60D8
:102830006E4A136801331360CBE74FF48E726C4B12
:1028400002FB07F206EB020A4C32DAF8900006EBC4
:102850000209C1B220F0FF001039A3FB01310909C0
:102860000BF0F8FF0123DAF894B08AF8103025F065
:1028700059FDDAF88830CBF82C01102B00F0958048
:102880005CD9B3F5807F75D0B3F5805F19D12B6A21
:10289000DAF8401023F48053DAE911022B62114375
:1028A000EA69DAF83C30014322F47F421B0342EA32
:1028B000112243F48053EA612A6A22F4204213432E
:1028C0002B624FF48E700021494B4A4600FB07668D
:1028D000D6F890007165C1B220F0FF001039A3FB5B
:1028E000013109090BF070FFD6F8903096F88C1082
:1028F0001D68776845F0100572893E481D605E6866
:102900003D68304001435960196841F00101196088
:10291000EB681343EB6025F005FD374BA0EB080097
:10292000186056E75B6859691A680B6823F0010361
:102930000B60D36823F48073D36079E7012BC0D197
:102940002B6ADAF8401023F00103DAE911022B6256
:102950001143AA69DAF83C30014322F0FF0243F048
:10296000010342EA1142AA612A6A22F00A021343D1
:102970002B62A6E72B6ADAF8401023F48073DAE9B9
:1029800011022B621143EA69DAF83C30014322F06C
:10299000FF021B0242EA114243F48073EA612A6A91
:1029A00022F4206213432B628BE72B6ADAF8401083
:1029B00023F01003DAE911022B621143AA69DAF855
:1029C0003C30014322F47F421B0142EA112243F0D2
:1029D0001003AA612A6A22F0A00213432B6270E757
:1029E000E8DD0020E4DD0020E0DD002084A0002000
:1029F000ABAAAAAA0000FFFF84DC002020B1007867
:102A0000B0FA80F0400970470120704708B52021D6
:102A10004AF019FE034618461BB102780133202AFA
:102A2000F9D008BD037903F01803082B0AD002D8A7
:102A30002BB100207047102B15D0182BF9D1B0F80E
:102A40000B007047114BB0F80B0093F90030591C84
:102A500007D10F4B1B78C3EB431300EB830080B20D
:102A60007047DBB2F7E70B4BB0F80B0093F900307F
:102A70005A1C09D1064B5B7803EB430203EB82033C
:102A800000EB430080B27047DBB2F5E7590C002041
:102A9000A8770020580C0020F0B5067906F06003F6
:102AA000402B09D144794FF0FF350023012006F077
:102AB0000706A3420BD1F0BD602B4FF0010403D1F8
:102AC000457904FA05F5F0E74FF0FF35EDE7042E00
:102AD0000CD8DFE806F0030D18242E0030B1C85CD6
:102AE000D75C784028420CBF012000200133E0E78A
:102AF0000028FBD0C856D756A0EB070CDCF100002D
:102B000040EB0C00F2E70028F0D031F8130032F867
:102B10001370784028420CBF01200020E6E700280F
:102B2000E4D031F9130032F91370C71B78427841B1
:102B3000DCE70028DAD051F8230052F823707840FF
:102B400028420CBF01200020D0E7024B0146186844
:102B50003AF0F8BECC56002038B5441E054D14F8A6
:102B6000011F286819B9BDE838403AF0DDBE3AF0D7
:102B7000E9FEF4E7CC5600200048EDE7B7760608FA
:102B800008B5FFF7E9FFBDE80840F5E710B50446D2
:102B90000348FFF7E1FF2046BDE81040F0E700BF23
:102BA000D445060838B5074C074DAC4203D3074B54
:102BB00000221A7038BD6288D4E9010149F0E8F9B1
:102BC0001434F2E700020008B407000898630020FC
:102BD000024A136823EA000010607047AC7A0020B4
:102BE000DFED2A7AB4EEE70AF1EE10FA4BDDDFED05
:102BF000286A9FED287AB4EEC70A70EE667AF1EE85
:102C000010FAB0EE670AF6DC9FED237AF4EEC77A8D
:102C1000F1EE10FA34D5DFED1E6A9FED207AF4EE66
:102C2000C77A37EEA60AF1EE10FAF0EE407AF6D443
:102C3000DFED1B7AB4EEE70AF1EE10FA14DDDFEDFA
:102C4000137A37EEC00A60EE006A9FED166A9FEDB8
:102C5000167ADFED167AA6EE867A20EE266AE6EE82
:102C6000877AA6EE270A7047DFED117AB4EEE70AFD
:102C7000F1EE10FAE7D5DFED087A37EEC00AE2E7A9
:102C8000B0EE670AD4E7F0EE407ABDE7DB0F4940CB
:102C9000DB0FC940E4CB1641DB0F49C0E4CB16C1C2
:102CA000DB0FC93F92E741B99730083C15A82ABE0F
:102CB000DB0FC9BFB0EEC07AF0EEE06A86FE876A2D
:102CC000B5EE406AF1EE10FA3DD0C6FEC75AC5EE29
:102CD000867ADFED1E2ADFED1E3ADFED1E4A9FEDFC
:102CE0001E5A9FED1E3AB7EE006A9FED1D4ADFEDBA
:102CF0001D5AE7EEE23AA7EE834AE7EEA34AA7EEB3
:102D0000846AA7EEA45AE7EE855AC5EE867AF4EEF9
:102D1000C76AF1EE10FA03D59FED137A77EE677A62
:102D2000F5EEC00AF1EE10FA03D59FED107A77EEBA
:102D3000677AB5EEC00AF1EE10FA48BFF1EE677A95
:102D4000B0EE670A7047DFED077AE0E739094E3DDC
:102D5000E3B59E3E88FA163E45FE7F3F99FB243F31
:102D600069A2163EA7DFA834DB0FC93FDB0F49403D
:102D7000DFED307A30EE277AFDEEC76A16EE903A34
:102D80002033402B02D99FED2C0A7047B4EEE70A9E
:102D9000F1EE10FA4BDD9FED296ADFED296AB4EE02
:102DA000E67A77EE467AF1EE10FAB0EE677AF6DC64
:102DB0009FED247AF4EEC77AF1EE10FA34D5DFED08
:102DC0001F6A9FED217AF4EEC77A37EEA60AF1EE7C
:102DD00010FAF0EE407AF6D4DFED167AB4EEE70A98
:102DE000F1EE10FA1BDCDFED197AB4EEE70AF1EE32
:102DF00010FA03D5DFED137A37EEC00A60EE006AF1
:102E00009FED136A9FED137ADFED137AA6EE867AB3
:102E100020EE266AE6EE877AA6EE270A7047DFEDF7
:102E20000F7A37EEC00AE9E7B0EE670AD4E7F0EEB2
:102E3000477ABDE7DB0FC93F00000000DB0FC94048
:102E4000E4CB1641DB0F49C0E4CB16C1DB0FC9BF91
:102E500092E741B99730083C15A82ABEDB0F4940DC
:102E600010B401224C0901F01F0150F8243002FA7D
:102E700001F123EA010340F824305DF8044B704768
:102E800010B401224C0901F01F0150F8243002FA5D
:102E900001F10B4340F824305DF8044B704700BF4C
:102EA00001234A0901F01F0150F8222003FA01F121
:102EB000114214BF18460020704700BF2DE9F043AF
:102EC000002489B006460D461F46A04605E0252988
:102ED0000CD030460134A847039A531C0393117851
:102EE0000029F4D1204609B0BDE8F083931CCDE958
:102EF00003385378302B43D0A3F130024FF0000950
:102F0000D2B2092A46D96C2B2BD0642B7AD019D98E
:102F1000732B5DD06AD9752B40F08B8007F1040CC0
:102F2000386805AB00220A216746FDF797F905A925
:102F3000049A4B46304600912946FDF767F8039AFC
:102F40000444CAE7252B41D058D9582B74D0632BA1
:102F5000C2D13B1D3978304601341F46A847039A39
:102F6000BBE7039B5A1C03921B78642B5AD018D8DA
:102F7000252B2BD06DD9582B1AD0632BE9D0ACE779
:102F8000D31C4FF0010903939378A3F13002D2B21E
:102F9000092AB8D8184604AA03A93FF0C9FA03467B
:102FA000B1E7732B14D058D9752B32D0782B94D12C
:102FB000A3F1580207F1040C386805ABB2FA82F2AB
:102FC000102167465209FDF749F9B0E7252180E74E
:102FD000386807F1040C049A002300902946304613
:102FE0006746FDF713F8039A044476E76E2B7FF4E7
:102FF00073AF039A3B6804371C606EE7002B3FF405
:1030000071AF69E73B1D386805A91F46FDF7F2F867
:103010008DE7391D386805AB00220F460A21FDF700
:103020001DF984E73B1D386805A91F46FDF7E2F846
:103030007DE7782B7FF450AFA3F15802391D386833
:1030400005ABB2FA82F20F4610215209FDF706F9DC
:103050006DE7002B3FF446AF3FE76E2BCAD03CE74D
:1030600010B5064C0B46024605492068FFF726FFBF
:103070002068BDE810403AF057BC00BFCC56002095
:10308000950A010838B504460D460848FFF764FD67
:1030900029462046FFF7E4FF0548FFF75DFD054B95
:1030A0001B7813B1044B01221A7038BDD9450608AC
:1030B000E445060828580020295800200FB407B519
:1030C00004A951F8040B0191FFF7DCFFFFF754FD51
:1030D00003B05DF804EB04B0704713460A4601469E
:1030E0000048EBE7E84506080048E7E70146060820
:1030F0000FB407B504A951F8040B0191FFF7C2FF03
:1031000003B05DF804EB04B070470FB407B504A931
:1031100051F8040B0191FFF7A3FFFFF72DFD03B05A
:103120005DF804EB04B070470FB407B504A951F87B
:10313000040B0191FFF794FF03B05DF804EB04B0BA
:1031400070472DE9F843037903F06001202928D066
:1031500002D849B1BDE8F883402945D06029F9D1AA
:103160002448BDE8F843D0E703F00703022B02D060
:10317000042B08D06BB9B0F80720B0F805101E4832
:10318000BDE8F843C1E7D0F805201B48BDE8F84387
:10319000BBE7B0F90720B0F905101748BDE8F843C0
:1031A000B3E745790024154E1548FFF7D5FC0123F8
:1031B00006EBC50292F80480A04502D8BDE8F843AA
:1031C000DAE456F835704FEA840957F824204AB1FA
:1031D00013B90C48FFF7C0FC57F809100A48FFF76D
:1031E000A3FF00230134E7E741790848BDE8F8432D
:1031F0008BE700BF494606080D4606084808060842
:103200002446060835460608FE6B060838460608BA
:103210002DE9F0411746027905460C4602F060039D
:10322000402B2BD10026514FDFF85C8115E02B7924
:1032300003F00703022B15D0032B19D0012B3846BE
:1032400014BFA15DA157FFF76FFF6B79013BB3423C
:1032500002DD4046FFF780FC01366B79B342E6DCC5
:10326000BDE8F08134F816103846FFF75DFFECE753
:1032700034F916103846FFF757FFE6E702F0070269
:10328000042A66D8DFE802F0031E27292C002478E0
:10329000202B3CD0602B48D0002BE1D1B5F8056045
:1032A000B5F8078021463148FFF73EFFA64248DCCB
:1032B000A04546DB002FD3D0424631462C48BDE81E
:1032C000F04131E794F90040202B20D0602B2CD026
:1032D000002BC5D144E02488DAE7B4F90040F3E7D5
:1032E0002668202B344612D0602B1ED0002BB7D17D
:1032F00031461E48FFF718FFD5F805108E4220D83A
:10330000002FADD01B48BDE8F0410DE700246A79DD
:10331000194B03EBC2010979A14212DD53F8323097
:1033200053F82400BDE8F04116E46A791441E3073C
:1033300003D51248BDE8F041F6E61148BDE8F0417A
:10334000F2E6FFF719FC224629680E48BDE8F04175
:10335000CEE6202BDAD0602BEFD0002B80D11C469C
:10336000B5F90560B5F907809CE700BF214606085E
:103370002D6C060863460608480806085E460608DF
:103380001349060869460608614606080CB407B5E5
:1033900010F020000BD079B92320FFF7D6FB05A948
:1033A00004980191FFF75CFEFFF7E6FB012003B0F4
:1033B0005DF804EB02B070470020F8E70CB4C306D8
:1033C00007B500D561B905A904980191FFF748FE3A
:1033D000FFF7D2FB012003B05DF804EB02B07047A9
:1033E0000020F8E70EB410B585B0094907AC01908C
:1033F00001A854F8042B23460394FFF75FFD019BBB
:1034000000221A7005B0BDE8104003B0704700BF3D
:103410000100010870B406688E4219D94C1E751E51
:10342000002314F8011F08224B4002E0013ACBB2FE
:1034300007D059001B06F9D581F0D503013ADBB25C
:10344000F7D1A542EDD1721C0260337070BC704799
:10345000721C00230260337070BC70470A449142B2
:1034600017D0013910B4541E11F8012F0823504011
:1034700002E0013BD0B207D042000006F9D582F04D
:10348000D500013BC0B2F7D1A142EDD15DF8044BAC
:10349000704770474840082302E0013BD0B208D093
:1034A00001064FEA4002F8D582F0D500013BC0B2D8
:1034B000F6D170470A4491421BD0013930B4551EF1
:1034C00041F2210411F8012F082380EA022002E0D2
:1034D000013B90B209D010F4004F4FEA4002F7D000
:1034E00084EA4000013B80B2F5D18D42EAD130BC84
:1034F0007047704770B5144C0222144E4FF6FF709F
:103500001349FFF7D7FF22884AB1A518B54218D250
:10351000052A16D921462C46FFF7CCFFF3E72146B2
:103520000222FFF7C7FF0222A118FFF7C3FF094BD2
:10353000E41A094B1C8041F60F53C31A58425841F4
:1035400070BD0020FCE700BF0280000800000108F9
:1035500000800008FA7F00089C630020104A2DE9D3
:103560003048D2E9004554EA05020BD10346002257
:1035700040F2011110461A809A809A711A8159807E
:10358000BDE83088074B1A6814EB020B45F1000CBC
:103590005A466346FCF776FD0120BDE8308800BF3F
:1035A00000300020A86300200288A2F5FA6270B4FF
:1035B00002F003018478C37840F2B55601EB410173
:1035C000013C124D013B04EB81040179920806FB9A
:1035D000023235F814300489002513444279807989
:1035E0004FF47A7603EB430301EBC3030849C3EBC3
:1035F00003130144204602EB8303C3EB031301EBE7
:1036000083032946C6FB030170BC704710D7050829
:1036100080436D382DE9F04707468CB01E46924630
:10362000002A60D1154614460A88B2F5FA6F37D3DE
:103630008B78581E0B2833D891F803C00CF1FF305B
:103640001E282DD891F804E0BEF1170F28D891F864
:103650000590B9F13B0F23D888793B2820D8B1F8E1
:103660000880B8F57A7F1BD24FF001086EBB002CA2
:103670000E890795B4BF2D212B21002CCDF800C059
:10368000B8BF6442CDE90306CDE9051438462D499B
:10369000CDE901E9FFF7A6FE40460CB0BDE8F08792
:1036A0000022DFF8ACA04FF0010C09A91046ADF8DC
:1036B00028208DF82A206346ADF82C2091469646A6
:1036C0009046CDF824A0002ED1D0CDF804E0CDF85E
:1036D00000C01D49CDE902903846FFF783FE404601
:1036E0000CB0BDE8F087194BD417084683FB0A23BA
:1036F0005344C4EB6314C4EB041524B2AAEB850550
:103700002DB2002DB8BF6D42FFF74EFF4FF47A7215
:1037100000238046894647F023FE3C214FF47A720D
:1037200000230AFB010A4046494647F019FE4FF4C0
:103730007A7192B2002309A8C1FB0A23FCF7A2FC0C
:1037400009A971E7C8460608A84606088988888836
:10375000000001010378092B01D0202B05D110F8BE
:10376000013F202BFBD0092BF9D02D2B00F0A98095
:103770002B2B75D0B7EE000AA3F13002D1B2092984
:1037800077D8F2EE046ADFED5F7A07EE102A10F8C0
:10379000013FB8EEC77AA3F13002D1B2A7EEA67A04
:1037A0000929F0EE477AF0D92E2B66D003F0DF031B
:1037B000452B40F0838010B442782D2A00F096808B
:1037C0002B2A00F08380A2F130030130092B00F294
:1037D00084800024002303EB830302EB430310F8EF
:1037E000012FA2F13001303B0929F4D9B3F59A7FBA
:1037F0001A46B7EE007A28BF4FF49A72072B09D900
:103800001346DFED416A083B27EE267A072BFAD8EC
:1038100002F00702DAB1F2EE046A012A27EE267AF4
:1038200015D0022A27EE267A11D0032A27EE267A0F
:103830000DD0042A27EE267A09D0052A27EE267A0B
:1038400005D027EE267A062A18BF27EE267A002C06
:1038500045D0C7EE877A5DF8044B20EE270A704703
:103860004378B7EE000A0130A3F13002D1B2092942
:1038700087D92E2BDFED237A98D143780130A3F13D
:103880003002D1B2092991D8B2EE047AF0EE475A4B
:1038900006EE902A10F8013FB8EEE66AA3F1300276
:1038A000D1B2C6EE076A092927EE257A77EEA67A05
:1038B000EED903F0DF03452B3FF47DAF20EE270A5E
:1038C00070474378BFEE000A013055E78278023036
:1038D000A2F13003092B7FF67CAFB7EE007A67EEDA
:1038E000877A5DF8044B20EE270A70478278023011
:1038F000A2F13003092B01D801246BE7B7EE007A5F
:10390000A7E700BF0000000020BCBE4CF8B506468B
:1039100015460846B6FBF2F434B905FB14640C4BAB
:103920001B5D00F8013BF8BDB4FBF2F75FB905FB86
:103930001747074B05FB1464DA5D1B5D00F8012B8C
:1039400000F8013BF8BD3846FFF7E0FFEFE700BFA6
:10395000F8460608B5EEC00ADFED6D7A00236D4A21
:10396000F1EE10FA2DE9F047C8BF30EE270A88B013
:10397000D8BF30EE670ADFED687A0493054620EE83
:10398000270ACDE90233FDEEC07A17EE904A84EAA9
:10399000E476A6EBE476A2FB06325FEAD20847D1D2
:1039A00005AF5E4A39465B4B002C4FF00000A3FB8D
:1039B00006434870A8BF20204FEAD303B8BF2D208C
:1039C00003EB83038DF808003846A6EB4303D35C72
:1039D0000B7046F0CFFF01283ED0022848D00328C4
:1039E0001ED0394602A849F01FFE02A846F0C2FFC9
:1039F000C41E02A92846E4B2224649F04BFE002329
:103A000028462B5546F0B6FF02AB2E221919431C4F
:103A10002A54E81849F024FE284608B0BDE8F0878B
:103A20003023394602A88DF8093049F0FDFDDCE766
:103A30003B4BA3FB06235B0924D105AF374A39462C
:103A4000344BA3FB0803DB0803EB8303A8EB43031E
:103A5000D35C01F8013BA6E73023394602A88DF874
:103A600009308DF80A308DF80B3049F0DDFDBCE7E8
:103A70003023394602A88DF809308DF80A3049F014
:103A8000D3FDB2E7274AA2FB06125FEA92190ED1D4
:103A900005AF224A39461F48A0FB03C0C00800EB0F
:103AA0008000A3EB4003D35C01F8013BC8E71E4A4A
:103AB000A2FB06125FEA523A0FD105AF174A394608
:103AC0001448A0FB09C0C00800EB8000A9EB400926
:103AD00012F8090001F8010BDDE71448B6FBF0F01D
:103AE00070B905AF38464FF00A0C01460B4ABAFBD5
:103AF000FCF00CFB10AA12F80A0001F8010BDFE73A
:103B000005AF0A2201933946FFF700FF019BEAE760
