:020000040800F2
:10000000F0FF001009400508BDCE0108DDB303086C
:10001000A9400508A9400508A940050800000000FE
:10002000000000000000000000000000C9CE010830
:10003000C5CE010800000000C1CE01088D8B030869
:10004000A9400508A9400508A9400508A9400508D8
:10005000A9400508A940050869C2030895C303081B
:1000600059C303081DC30308E1C203083D04010886
:100070002D0401081D0401080D040108F9030108FD
:10008000E5030108D1030108A9400508A9400508B6
:10009000A9400508A9400508A9400508A5C203080C
:1000A000496E0308E5730308796D0308B574030806
:1000B000257303086572030899710308250A01086E
:1000C0002D0A0108190A0108210A0108A94005089A
:1000D000A94005083D8E0308A18D0308058D03087E
:1000E0002DC20308A9400508B11C0208A96C030829
:1000F000196F0308D96B0308F96F0308BD030108E2
:10010000A9400508A9400508C9700308A9400508C9
:10011000698C0308CD8B030831FB03081DFB030822
:10012000A903010895030108810301086D03010873
:1001300059030108A9400508A9400508A940050878
:10014000A9400508A9400508A940050885E9010856
:1001500045030108310301081D030108A9400508F2
:100160000D0A0108150A0108A9400508A94005085B
:10017000A9400508A9400508A9400508A9400508A7
:08018000A9400508A94005088B
:08018800B03B0500010000007E
:1001900010020100782000207420002000000000E0
:1001A000300700081F0210008C2000207C20002057
:1001B00000000000718500082C001000084C002091
:1001C000F84B0020000000007B1E01082B002400DB
:1001D0003C4C0020184C0020000000004D1E01087F
:1001E00029207800004B0020604C00200000000017
:1001F0000000000028101000E84C0020D84C00201F
:1002000000000000D113010820320A00044D002034
:10021000F84C002000000000591301081C021000D7
:10022000C8450020104D002000000000B1830008E8
:10023000012008009C420020204D0020000000000A
:10024000320700080A70280018420020284D0020BC
:1002500000000000791301080EA07401A4400020E2
:10026000504D002000000000C1930208010104006D
:1002700008400020C44E00200000000000000000E4
:100280000001040000400020C84E002000000000D3
:100290003A07000802010300FC3F0020CC4E00207A
:1002A0000000000015DA030814000300B468002001
:1002B0002069002000000000400700080B301800F3
:1002C000C8580020246900200000000044070008EE
:1002D0001F302400E05800203C690020000000008E
:1002E0005C070008050204004864002060690020E3
:1002F000000000008007000803010A0020590020C8
:100300006469002000000000840700081302040054
:10031000FC56002070690020000000008E070008D5
:10032000090201006C930020E4930020000000000B
:10033000920700080C109C0098830020E89300208E
:100340000000000095D90308010205008C830020FD
:100350008494002000000000A52702080002050088
:10036000848300208C940020000000000000000026
:100370001B0210005883002094940020000000000D
:10038000DD8300081E000600C4800020A494002025
:1003900000000000940700081B100C00C87B002020
:1003A000AC940020000000008D3C02082102F00007
:1003B000487A0020B894002000000000652A020856
:1003C0000510060010860020A895002000000000FF
:1003D0009A07000837102400F4820020B09500200E
:1003E00000000000A00700080E020200F8850020AF
:1003F000D495002000000000C40700081610060075
:100400003C7A0020D895002000000000C6070008B4
:100410002F102200C0930020E09500200000000073
:10042000CC07000823100E00148000200496002042
:1004300000000000E9130108F5518C0074790020D8
:1004400014960020000000009175020826100C0090
:10045000AC960020A096002000000000011D0208BC
:1004600003123300C49F0020F89F0020000000000A
:10047000EE07000825102C01A49D00202CA00020D0
:10048000000000000000000010100200889D002005
:1004900058A1002000000000220800081A000E00E9
:1004A000389D00205CA10020000000002408000806
:1004B00019000500749C00206CA1002000000000C1
:1004C00032080008F8210600E49A002074A10020F8
:1004D0000000000038080008150070001499002082
:1004E0007CA1002000000000000000002A00600045
:1004F000D89C0020ECA10020000000009993020885
:100500001A023C004CA3002010A6002000000000AE
:100510009D9300082700040048A300204CA600205B
:10052000000000003E0800080702020030AF002073
:1005300078AF00200000000044080008F6210C00FD
:1005400008AF00207CAF0020000000004808000831
:1005500002000C00FCAE002088AF0020000000006C
:100560000000000006020C00F0AE002094AF002056
:10057000000000002D94000808120F0070AE00204B
:10058000A0AF00200000000001850008F701060070
:1005900064AE0020B0AF0020000000005408000846
:1005A0000A020A00D8AD0020B8AF00200000000009
:1005B00031E003080300010058AE0020C4AF002062
:1005C00000000000000000000D00440040DE00209C
:1005D000FCDE002000000000D14B04080400800075
:1005E000C8D4002040DF0020000000000000000010
:1005F00013000400A8D40020C0DF00200000000089
:100600005C080008FD01240084D40020C4DF002021
:1006100000000000295B030818202E0050D40020A1
:10062000E8DF0020000000003595000806101A00E1
:1006300090BF002018E0002000000000DD950208B7
:10064000FB0101008CBF002034E00020000000000E
:10065000A1950008FC01090058BE002038E00020E8
:1006600000000000B195000816023F0010BE0020F7
:1006700044E0002000000000218400083400100045
:1006800040BD002084E0002000000000B195020879
:100690001102080018BD002094E0002000000000B6
:1006A000600800081212040010BD00209CE0002029
:1006B00000000000680800081220100000BD0020A3
:1006C000A0E00020000000006C080008F901040010
:1006D00074B90020B0E0002000000000A15B030816
:1006E000FA0102005CB30020B4E00020000000002A
:1006F0009D86000802020300C8B00020B8E0002078
:1007000000000000000000000C02040084B0002083
:10071000BCE000200000000059850008FE01140024
:1007200028B30020C0E0002000000000F183000892
:100730000000E8036400040A0001900100000000CA
:1007400003000000AE014A015E012C0164010100BA
:10075000000001000A019A01001E0A0000000000CA
:10076000000100000005000001020300000000007D
:1007700000000000000000000000000000800700F2
:1007800000000000040101006C16000000000000E1
:100790000100130000000100000020000101000022
:1007A00020003200C800D007960014003200280054
:1007B000B00440060005500014000F00080064005B
:1007C000010001000000C409000019000000000041
:1007D0000000000000000000000000000000000019
:1007E0000000000000000000000000000000000009
:1007F00000000000000000000000000000000000F9
:1008000000000000000000000000000000000000E8
:1008100000000000000000000000000000000000D8
:10082000010000057E05EA05B4053200E803D007A3
:1008300000000000280100000401F401140020035E
:1008400000000000013C000000000000010000006A
:10085000020200003E0100000000000008004030DD
:100860000000000001010101FFFFFFFF0000000187
:0C087000000005484B4634000008000062
:10087C001A0300000000000000000000000000004F
:10088C000000000000000000000000000403090448
:10089C0012010002000000408304205700020102F4
:1008AC0003010000E1CC0008F9850008F58500087B
:1008BC00F1850008CD950008ED850008E985000854
:1008CC00E85A05085DD0010841B201089DDB01081A
:1008DC000000000000000000A1D80108BDD70108ED
:1008EC0000000000000000000000000079AD0108CD
:1008FC009186000885860008719B00088D9B000876
:10090C003D860008559B0008399B00080068214C67
:10091C001F0000001C0000001F0000001E00000053
:10092C001F0000001E0000001F0000001F00000040
:10093C001E0000001F0000001E0000001F00000031
:10094C00FF01FF0000000401000000000000000295
:10095C001000000007000000000000000000000074
:10096C00010203040607080901000000090B010835
:10097C00000000008465050820700020702D7200B6
:10098C00FFFFFFFF010101000001010100D6012D55
:10099C00202D2D202D2D2D2D202D2D2D0000000056
:1009AC00000000000000000000000000000000003B
:1009BC000000000000000000787A0508000000002C
:1009CC0000000000047B050801000000FA00000094
:1009DC000100000001000000010100006E42002037
:1009EC0000C801006D420020005001006C42002044
:1009FC00005A01006A42002002000000006A05084B
:100A0C00DCD40508E4D40508E6DE00200100C409A6
:100A1C0000000000E4DE00200100C409000000001A
:100A2C00E2DE00200100C40900000000E0DE00202E
:100A3C000100C40900000000DCDE00200100C40934
:100A4C0000000000DEDE00200100C40900000000F0
:100A5C00DADE00200100C40900000000D8DE00200E
:100A6C000100C409000000001E4000200100C80065
:100A7C00010000001C4000203200307532000000E4
:100A8C001A400020055A05001740002000FF010005
:100A9C001940002001000000180300201540002020
:100AAC0002000000E08105081640002000FF010054
:100ABC001840002001000000180300201440002002
:100ACC0002000000E0810508A8420020EE02CA08DE
:100ADC0001000000A642002000C8010064000000D4
:100AEC00A542002000C8010064000000A4420020C0
:100AFC00020000000C6A05080E40002080C1803EF8
:100B0C00050000000C40002080C1803E0500000064
:100B1C000640002080C1803E0500000004400020FB
:100B2C0080C1803E05000000FF3F002000FF010057
:100B3C00F83F00206400F40101000000F73F0020A2
:100B4C0004000000186A0508F63F002002000000AF
:100B5C002C6A0508954000200D000000386A050835
:100B6C0092400020006401009040002032001027C9
:100B7C000A0000008F4000200D000000386A0508B4
:100B8C008E4000200D000000386A05088D400020C2
:100B9C0002000000706A0508000000000000000060
:100BAC007C6A0508006400209CFF2C0100000000FA
:100BBC0006450020E0150C17000000000845002039
:100BCC0002000000B46A0508B44200200100FF7F57
:100BDC0001000000B342002002000000C06A0508BA
:100BEC009740002003000000D06A050896400020C2
:100BFC0003000000D06A05084C4200200000E80306
:100C0C00010000004A4200200000E803010000003F
:100C1C00484200200000E80301000000464200208A
:100C2C000000E80301000000444200200000E8033B
:100C3C0001000000424200200000E8030100000017
:100C4C00414200200014010040420020030000003B
:100C5C00E06A0508584200200000F4010100000081
:100C6C00564200200000F401010000005442002014
:100C7C000000F40101000000524200200000F401C9
:100C8C0001000000504200200000803E01000000E6
:100C9C004E4200200000803E0100000081420020F6
:100CAC00196401008042002002000000F06A05086F
:100CBC007E420020E803D0070A0000007C4200209E
:100CCC00006401000A000000714200200064010071
:100CDC007042002000640100784200200064010092
:100CEC000A00000077420020006401000A000000A6
:100CFC0076420020006401000A0000007B420020C4
:100D0C00006401000A0000007A4200200064010027
:100D1C000A00000079420020006401000A00000073
:100D2C007542002001FF01000A00000074420020FF
:100D3C0001FF01000A0000007342002001FF0100C6
:100D4C000A000000A04000200000F4010100000097
:100D5C009E4000200000F401010000009C40002097
:100D6C000000F401010000009A4000200000F40192
:100D7C0001000000984000200000F4010100000078
:100D8C0069420020006401006842002000640100F8
:100D9C00674200200064010066420020FF08010049
:100DAC006542002001640100E9100108AD10010842
:100DBC00FC6A0508644200200064010062420020C5
:100DCC001400E8030100000060420020E8033075C5
:100DDC000A0000005E42002000C801005D420020B5
:100DEC0000C801005C42002000C801005B420020EA
:100DFC00006401000A000000984200200000D007A7
:100E0C00010000009342002000C801009242002023
:100E1C0000C801009142002000C801009642002049
:100E2C000000D007010000009042002000C8010023
:100E3C008F42002000C801008E42002000C8010033
:100E4C00944200200000D007010000008D420020D9
:100E5C0000C801008C42002000C801008B42002019
:100E6C0000C80100000000001D0E01086C6B050895
:100E7C008B40002031000000086C05088A400020DF
:100E8C0000C8010088400020E803D00701000000E2
:100E9C0048414B524346343035000000134000208B
:100EAC000003010012400020000301007D0D010829
:100EBC00550D0108D06C0508110D0108C50C010871
:100ECC00246D0508A50D0108C9220108A46D0508AB
:100EDC001040002001030100491201081D120108F5
:100EEC0098700508550C0108150C0108FC700508D4
:100EFC00330E0108C13D010898710508D51E010883
:100F0C0000000000407205084D260108A9120108D6
:100F1C00DC720508850E0108000000005C730508F2
:100F2C005D0F0108090F0108C0730508ED0F0108DA
:100F3C00B10F01085C740508251101086D11010839
:100F4C00DC7405086F42002001060100CD0E01087B
:100F5C00990E0108D8750508291001082D230108E0
:100F6C0048760508A1110108B12301082877050866
:100F7C005A42002001030100ED0D0108BD0D0108CE
:100F8C00FC77050875120108000000006078050860
:100F9C00950C010899220108C4780508000000008E
:100FAC000000000050790508F511010829240108FA
:100FBC00D0790508F23F002088136F17010000005C
:100FCC00F43F002088136F17000000007E590020AA
:100FDC0000000000000000007C5900200000000010
:100FEC00000000007A590020000000000000000002
:100FFC007859002000000000000000007659002005
:10100C0000000000000000007459002000000000E7
:10101C0000000000E80B00200000000000000000B1
:10102C00C83F002002000000587B0508F03F00205C
:10103C0088136F17010000004064002088136F179D
:10104C0000000000A90B010800000000647B0508EB
:10105C003A45002001000000B87B050842640020DE
:10106C0001000000C47B0508386400200200000069
:10107C00CC7B05080000000000000000D87B0508B0
:10108C00950B010800000000747C050800000000AE
:10109C0000000000C87C05080000000000000000F3
:1010AC00387D05083C640020E0150C17000000009A
:1010BC000403090412010002EF02014083045632BA
:1010CC0000020102030100001201000202020040B2
:1010DC0083044057000201020301000009022000B2
:1010EC00010104C03209040000020806500507057E
:1010FC008102400000070501024000000902640063
:10110C00030100C0320904000001030000000921A2
:10111C00110100012226000705830308000A080BB1
:10112C000102020201000904010001020201000592
:10113C0024001001052401000204240202052406E7
:10114C000102070582030800FF09040200020A00DD
:10115C000000070501024000000705810240000065
:10116C0009024300020100C032090400000102021E
:10117C0001000524001001052401000104240202D1
:10118C000524060001070582030800FF090401007D
:10119C00020A000000070501024000000705810259
:1011AC0040000000FF000000187E05080000000051
:1011BC000000000000000000000000000000000023
:1011CC000000000000000000000000000000000013
:1011DC0000FFFF0000000000AA55050100000100FF
:1011EC00EC7D05080000000000000000000000007D
:1011FC0000000000000000000000000000000000E3
:10120C000000000000000000FF1FFF1F0501090582
:10121C00A101A10005010930093109320933093551
:10122C000934094009381581257F75089508810214
:10123C00C0C0000009022200010100E032090400D4
:10124C0000010301020009211101000122260007FF
:10125C0005830308000A00000000000001020304DB
:10126C00010203040607080901DB010805DA01087D
:10127C005DDE01083DAE0108B5B301084DAE0108B5
:10128C0069AE010815AE010805AE010800000000AA
:10129C00000000002D202D2D202D2D2D2D202D2D4D
:1012AC002D2D0000000000000000000000000000D8
:1012BC00000000AA550B010000AA5507010000AA66
:1012CC00550902000000AA5503009F000100000010
:1012DC00C0120000F4680020000000001869002013
:1012EC00000000000100000000000100E00100000F
:1012FC00FFFFFFFF0801FFFFFF000000FFFFFFFFE4
:10130C000000803F00000000000000000000000012
:10131C000000803F00000000000000000000000002
:10132C0000000000000000000000000000000000B1
:10133C0000000000000000000000803F00000000E2
:10134C00000000000000000001000000FFFFFFFF94
:10135C000000803F000000000000000000000000C2
:10136C00FF000000685E0C0001000000A00F0000F0
:10137C00B80B00000102FFFF01000000000000009C
:10138C0068AF0020080000000000000058AF0020EB
:10139C00080000000000803F54FF050860FF0508AE
:1013AC006CFF050878FF050884FF050890FF050809
:1013BC0058E305086417060870160608FCFE0508B5
:1013CC00103F0608E8D2050848FF05084CFF050841
:1013DC0050FF050838FF05083CFF050840FF0508CD
:1013EC00E014060844FF05081900C800F4012003A6
:1013FC0038FF05083CFF05089CFF050840FF050861
:10140C00A0FF0508A4FF050857E003080000000032
:10141C00000000000000000099B3010885B201082B
:10142C0039DE01080000000001AE0108F1D9010805
:10143C00D5B1010869D901080000000000000000C6
:10144C00BDAD010851AD010845AD01086DCF0108D6
:10145C0089CF010851CF010835CF010819CF0108F8
:10146C0051B3010861B2010879DD010800000000E8
:10147C00D5AD01086DD90108A9B10108C9D8010879
:10148C000000000000000000C9AD010808000000C9
:10149C0041AD01083DAD010839AD01082DAD010884
:1014AC0029AD010835AD010831AD0108010000007E
:1014BC0000600240106002400000000000000000CC
:1014CC00000B000000000000000000000000000005
:1014DC000060024028600240010000000000000093
:1014EC00060C0000000000000000000000000000DE
:1014FC00006002404060024002000000000000005A
:10150C00100D0000000000000000000000000000B2
:10151C000060024058600240030000000000000020
:10152C00160E00000000000000000000000000008B
:10153C0000600240706002400400000000000000E7
:10154C00200F000000000000000000000000000060
:10155C0000600240886002400500000000000000AE
:10156C002610000000000000000000000000000039
:10157C0000600240A0600240060000000000000075
:10158C00301100000000000000000000000000000E
:10159C0000600240B860024007000000000000003C
:1015AC00362F0000000000000000000000000000CA
:1015BC0000640240106402400000000000000000C3
:1015CC0000380000000000000000000000000000D7
:1015DC00006402402864024001000000000000008A
:1015EC0006390000000000000000000000000000B0
:1015FC000064024040640240020000000000000051
:10160C00103A000000000000000000000000000084
:10161C000064024058640240030000000000000017
:10162C00163B00000000000000000000000000005D
:10163C0000640240706402400400000000000000DE
:10164C00203C000000000000000000000000000032
:10165C0000640240886402400500000000000000A5
:10166C002644000000000000000000000000000004
:10167C0000640240A064024006000000000000006C
:10168C0030450000000000000000000000000000D9
:10169C0000640240B8640240070000000000000033
:1016AC0036460000000000000000000000000000B2
:1016BC0050020608BCEB05080000000029DA0308FC
:1016CC00A0860100040000000000000000000000E3
:1016DC0000000000000000000000000000000000FE
:1016EC0000000000000000000000000000000000EE
:1016FC00500206085802060800000000C5590308ED
:10170C00E8030000040000000000000000000000DE
:10171C0000000000000000000000000000000000BD
:10172C0000000000000000000000000000000000AD
:10173C000CDB05086002060800000000990704088D
:10174C007D0000000600000000000000000000000A
:10175C00000000000000000000000000000000007D
:10176C00000000000000000000000000000000006D
:10177C006802060800000000000000000981030850
:10178C00E80300000300000000000000000000005F
:10179C00000000000000000000000000000000003D
:1017AC00000000000000000000000000000000002D
:1017BC006C0206080000000000000000F50E030893
:1017CC0010270000030000000000000000000000D3
:1017DC0000000000000000000000000000000000FD
:1017EC0000000000000000000000000000000000ED
:1017FC00243B0608000000007D1C010841B40308CE
:10180C005F760000050000000000000000000000F2
:10181C0000000000000000000000000000000000BC
:10182C0000000000000000000000000000000000AC
:10183C00B03D06080000000000000000F1CA0308DB
:10184C001027000001000000000000000000000054
:10185C00000000000000000000000000000000007C
:10186C00000000000000000000000000000000006C
:10187C00780206080000000000000000C9590308A7
:10188C00E80300000500000000000000000000005C
:10189C00000000000000000000000000000000003C
:1018AC00000000000000000000000000000000002C
:1018BC00840206080000000000000000310004084B
:1018CC00204E00000300000000000000000000009B
:1018DC0000000000000000000000000000000000FC
:1018EC0000000000000000000000000000000000EC
:1018FC009402060800000000000000001DFE030812
:10190C00204E00000300000000000000000000005A
:10191C0000000000000000000000000000000000BB
:10192C0000000000000000000000000000000000AB
:10193C00A402060800000000000000005962030821
:10194C00400D030003000000000000000000000038
:10195C00000000000000000000000000000000007B
:10196C00000000000000000000000000000000006B
:10197C00D4FD050800000000000000008965040883
:10198C001027000001000000000000000000000013
:10199C00000000000000000000000000000000003B
:1019AC00000000000000000000000000000000002B
:1019BC00F0E805080000000000000000F9470208EC
:1019CC0010270000030000000000000000000000D1
:1019DC0000000000000000000000000000000000FB
:1019EC0000000000000000000000000000000000EB
:1019FC00B40206080000000000000000855E030829
:101A0C0050C30000010000000000000000000000B6
:101A1C0000000000000000000000000000000000BA
:101A2C0000000000000000000000000000000000AA
:101A3C0024D705080000000000000000B15B03087B
:101A4C00A861000001000000000000000000000080
:101A5C00000000000000000000000000000000007A
:101A6C00000000000000000000000000000000006A
:101A7C00BC0206080000000000000000DD86020821
:101A8C00A086010001000000000000000000000022
:101A9C00000000000000000000000000000000003A
:101AAC00000000000000000000000000000000002A
:101ABC00F4FD050800000000000000008D8F0308F5
:101ACC00A00F00000100000000000000000000005A
:101ADC0000000000000000000000000000000000FA
:101AEC0000000000000000000000000000000000EA
:101AFC00C8020608000000000000000085760208FD
:101B0C001027000001000000000000000000000091
:101B1C0000000000000000000000000000000000B9
:101B2C0000000000000000000000000000000000A9
:101B3C0058E205080000000000000000996A020845
:101B4C001A4100000100000000000000000000002D
:101B5C000000000000000000000000000000000079
:101B6C000000000000000000000000000000000069
:101B7C00E4D6050800000000000000006DB6010866
:101B8C001027000001000000000000000000000011
:101B9C000000000000000000000000000000000039
:101BAC000000000000000000000000000000000029
:101BBC00D0EB0508000000000000000049450108BA
:101BCC001A410000010000000000000000000000AD
:101BDC0000000000000000000000000000000000F9
:101BEC0000000000000000000000000000000000E9
:101BFC00D40206080000000000000000D5BC01085B
:101C0C00400D030000000000000000000000000078
:101C1C0000000000000000000000000000000000B8
:101C2C0000000000000000000000000000000000A8
:101C3C00DC02060800000000000000008F4B0408C6
:101C4C00400D030000000000000000000000000038
:101C5C000000000000000000000000000000000078
:101C6C000000000000000000000000000000000068
:101C7C00E4020608000000000000000005810208D4
:101C8C0050C3000003000000000000000000000032
:101C9C000000000000000000000000000000000038
:101CAC000000000000000000000000000000000028
:101CBC00F0020608000000000000000091FD03087F
:101CCC0040420F0000000000000000000000000077
:101CDC0000000000000000000000000000000000F8
:101CEC0000000000000000000000000000000000E8
:101CFC00FC02060800000000000000005960040807
:101D0C0050C30000000000000000000000000000B4
:101D1C0000000000000000000000000000000000B7
:101D2C0000000000000000000000000000000000A7
:101D3C000000803FFFFF0000183B0608000008026F
:101D4C0005030300203B06080100080205040300FC
:101D5C00CC0006080200FE010110030038D805086B
:101D6C000300140200030000283B060804001F02B5
:101D7C0001000800303B060805001F0201010800A5
:041D8C00FFFFFFFF57
:1080000003685A1C02601970704700BF2DE9F047E1
:10801000089C2578002B804689460CBF4FF0200A2B
:108020004FF0300A661C25B3002A26DD334601E0F6
:10803000024698B113F8011B501E0029F8D1971E73
:1080400060B13D46013D51464046C8476B1C002B80
:10805000F8DC257827EAE770013045B1041B294692
:108060004046C847301916F8015B002DF7D1BDE82E
:10807000F087002A03DC2846F9E70020EEE7571EC8
:10808000DFE700BF2DE9F04714461D4606464FF4D2
:108090007A720023204629464BF0EAFD4D4BDFF86B
:1080A00048814D4A4D4F034488FB03101844D917AB
:1080B00082FB032CC1EB601088FB002887FB0327A1
:1080C0009C44474AC1EBEC2CC0EB001E82FB0C2900
:1080D000A3EB8E0E1F44434A86F806E0C1EB274708
:1080E0004FEAEC7E08EB000ACEEBA90E82FB07827A
:1080F0004FEAE0780EEB4E0EC8EB6A18ACEBCE0CF4
:10810000C8EB0818DFF8E4E086F804C0A0EB8800AC
:1081100070718EFB0303F817C0EBE21240F2B5500A
:1081200000FB1272C1EBE353B2F5896F4FEA83078C
:108130003CDA40F2DA239A4242DCB2F5B77FB4BFB0
:108140004FF0000E4FF0010E4FEA4E09DFF8A0800D
:1081500009EB0E0308EBC3031FFA8EFCD88A09EB68
:108160000E0108EBC10116310B2301E031F8020DBD
:10817000904218DD013BF9D1CE44012338F83E008E
:10818000B37007F5FA670132121ABC44F270A6F810
:1081900000C0204629464FF47A7200234BF068FD58
:1081A0003281BDE8F0870133DBB2E9E74FF0030C21
:1081B000E64640F29650DFF838804FF00609CEE7E9
:1081C0004FF0020CDFF82880E64640F229404FF0DD
:1081D0000409C4E780BC92C7C5B3A29107452EC26B
:1081E000ABAAAA2A73B06D1689888888792D0311E5
:1081F000A05805080028F0B403DA2D230B70404284
:108200000131092804464FF0010307DD03EB830326
:108210005B00B0FBF3F2092AF8D883B10F48A0FB4A
:108220000326B4FBF3F2092A02F1570C02F13007DE
:1082300009DD03FB1244F30801F801CBEFD1002361
:108240000B70F0BC704703FB1244F30801F8017B8C
:10825000E5D100230B70F0BC704700BFCDCCCCCC77
:10826000884270B44FF0010442D301FB04F4B0FB28
:10827000F4F58D42F9D2ECB142BB092D04FB150097
:1082800005F1570605F130020EDDB4FBF1F403F8F9
:10829000016B7CB1B0FBF4F5092D04FB150005F171
:1082A000570605F13002F0DCB4FBF1F403F8012BC2
:1082B000002CEFD100221A7070BC704703F8016BDC
:1082C000B4FBF1F4002CF5D0B0FBF4F5092D04FB60
:1082D000150005F1370605F13002EFDCB4FBF1F4CF
:1082E00003F8012B002CEFD100221A7070BC7047EC
:1082F0000546002AEAD1C0E790ED057A90ED004AE4
:10830000D0ED066AD0ED014AD0ED047A90ED035A23
:10831000D0ED025AA4EE007AB0EE406AB0EE470A01
:10832000B0EE667AA4EE867A67EEC07AA5EE407A61
:10833000E5EE867A80ED057AC0ED067A704700BFDB
:10834000D0ED057A90ED013AD0ED003AD0ED064A35
:1083500090ED024A90ED077A90ED035A90ED086A8D
:10836000D0ED045AC0ED067AF0EE406A27EE830A9B
:10837000C0ED056AA3EEA60A80ED087AA4EE240AF1
:10838000A5EE470AA5EEC60A80ED070A704700BFB2
:10839000D0ED007A90ED017A30EE670AE7EE007AD0
:1083A000B0EE670AC0ED007A704700BF704700BFAB
:1083B00030B414220023342504240221C270012287
:1083C0008571C4710370C3728373C373417041724A
:1083D00082700272827230BC704700BF0023062197
:1083E0004FF47A720170C0E901230373704700BF34
:1083F00030B43123322230254FF47F44FF214370C3
:10840000427101230022C5700482817403720370DB
:108410000371837042818281C28130BC704700BF8A
:108420002DE9F04F3149324B83B001F5807B01904B
:108430002F274FF000092F481022012603E020309B
:1084400098420BD002799742F9D102680C68A24297
:1084500009D02030984206F10106F3D12031594568
:108460003AD00F79E7E744794D79A542F1D19446A6
:10847000019A214809EB490502EB050A57558AF88C
:10848000016000F572751D4E624603E0A8421AD0E5
:1084900050F82C6FB242F9D10679A642F6D1CF68D6
:1084A00006464FF0000C96468046F268BA4216D057
:1084B0000CF1010CBCF1030F06F10C06F5D140469E
:1084C000A8427246E4D14FF0FF3C203159458AF86A
:1084D00002C009F10109C4D103B0BDE8F08F0869F9
:1084E00032698242E4D14FFA8CFCEEE7C48605087B
:1084F00038A70508789D050838A705080000014041
:10850000144BFF22F0B54FF0FF34C27002710272BB
:1085100042724273827303F10C0EA446172716268B
:108520002325002202EB820281189E4585544E705D
:108530008F7081F803C00C710AD093F90620DD79A1
:108540001E7A5F7A93F90AC093F90B400633E9E784
:10855000F0BD00BF0059050810B41F2101240322FB
:108560000023047041708270C3705DF8044B704743
:1085700070B4034600F11001FF221A705A700233E2
:108580008B42FAD10E4B00224FF0FF3103F10C0663
:1085900000EB42050C469E4200F8124069700CD078
:1085A00093F9044093F9051013F8032F00EB4205EB
:1085B0009E4200F812406970F2D170BC704700BF53
:1085C0001459050830B41D6995420AD314460A4669
:1085D00021448D42996938BF2A1B214430BC4BF09D
:1085E000E5BD30BC704700BF0020704701207047D8
:1085F00001207047002070474FF40070024B10605C
:108600009B680B600020704778B90020013A30B4B5
:10861000D2B28C1C04EB42040025020F092AD3B20B
:1086200003F130028ABF37330A700B704D7002318C
:108630008C424FEA0010F0D130BC70470B4A0C4B13
:1086400010681B681A22C0180A8001D109487047B7
:1086500010B5094B09491C680822FFF7D7FF2046CF
:1086600004220749FFF7D2FF024810BDE8F7FF1FB9
:10867000ECF7FF1F88010020EAF7FF1F8A010020A6
:108680009A01002004230B8000487047A4010020B9
:1086900012230B8000487047A80100202C220223DF
:1086A00002704370704700BF08307047704700BFCA
:1086B000816170472A4A13685268A3F5000307EEE8
:1086C000903A284BB8EEE77AD3ED016AD3ED027AFF
:1086D00093ED046AD3ED085A93ED075AE7EE276A43
:1086E000A2F50002D3ED007AE7EE267A07EE102A13
:1086F000F8EEC76A93ED057AA7EE276A93ED037A41
:10870000A7EE867A93ED0B6AE6EE865A93ED0A6A37
:10871000E6EE275A93ED096AA6EE275A93ED066A0C
:10872000A5EE276AA5EEA66AA6EE867AB5EE407A91
:10873000F1EE10FA18BFBDEEC77AF5EE407A18BF19
:1087400080ED007AF1EE10FA08D0FDEEE77A4FF4F2
:10875000807317EE902A92FBF3F30B60704700BF13
:10876000A01600204C4A00207047704770476D4BA0
:108770002DE9F04F9C686C4BB3F80AE0B3F8048025
:108780009A894FEA0E2AB4EB0A044FEA1E6B4FF0A7
:10879000000587B065EB0B05CDE900450746009C59
:1087A0001889019EA0FB044500FB0655E00940EA3C
:1087B00045604FEA08448C46E9114FEA184510EB32
:1087C0000408D888009C41EB0509CDE90489A0FB89
:1087D0000445B3F8028000FB0655200A40EA056014
:1087E0004FEAC83429124FEA584510EB040841EB10
:1087F00005090099A2FB010102FB06114FEAD05ABC
:108800004AEA412A1AF5FA634FEAE15B4BF10004A8
:10881000B3F5FA6FCDE9023474F10003414E64DA26
:108820000524AAFB040104FB0B1100FB0BF40AFB5B
:108830000144DDE90423A0FB0A0121444D104FEA65
:108840003004121B4FEA900463EB050344EA817481
:10885000B8EB0408CDE90423DDE9023433484FEADC
:10886000A10569EB05094FF0FF31834274EB010369
:1088700026DA40F6AC501AEB00024FF000014BEB49
:10888000010302FB03F1A2FB022303EB4103D4002B
:10889000DD00101B45EA527563EB0501DDE9044577
:1088A00024184D41CDE904450B24A2FB040104FB2F
:1088B000031149104FEA3000B8EB000869EB0109D9
:1088C000DDE900325343009ADDE90201A2FB02AB6D
:1088D0000BEB430B4FEADA7242EA4B02801A4FEA83
:1088E000EB7361EB0301CDE9020197B1F168A1FBE4
:1088F000082301FB0933540D5D1544EAC324DDE967
:108900000423A21A65EB03031D46D30B43EA454338
:108910003B60BCF1000F02D0029BCCF8003007B0E6
:10892000BDE8F08FA0160020184A002024FAFFFFAF
:108930002DE9F04FDFF8DCC1754CDCF810502288CF
:10894000B4F90AA0C2EB25135200C2EBE502B4F958
:1089500002505B436A43B4F904501B135D43AD13EB
:1089600005EBE225B5F5FA324FEAE57B85B04BF130
:10897000FF33CDE90023DDE900325343009AA561BE
:10898000A2FB0289CDE90201B4F9082001990098FF
:1089900009EB43095143D31700FB0311A2FB00234A
:1089A0000B444FEAEA7B0AFB09F11F0308FB0B1398
:1089B000AAFB080119444FEA102A4AEA016A160381
:1089C0004FEA212B47EA12571AEB0602E6884BEBD7
:1089D000070312F1000A43F5004BAAFB060106FB50
:1089E0000B114A10CB1752EA030100F08E80B4F944
:1089F0001060009806FB09F1F71708FB0711A6FBAA
:108A000008673944B4F90E808B4601994FEAE8793A
:108A100008FB01F100FB0911A8FB00898944DCF87F
:108A200014104FEA4947C1F5801C47EAD837B246CF
:108A30004FEA4846B4F90C801AEB060A66464BEB3F
:108A4000070BF7174FEAC806019600260096F907AC
:108A5000DDE900674FEACC7016EB0A0647EB0B071F
:108A600041EA5C01801B61EB070140F6354C894609
:108A7000A0FB0C010CFB09114BF0FAF8B4F916201D
:108A8000B4F914A04E13470B47EAC14702FB06FC9A
:108A9000D31707FB03CCA2FB07236344564307FB12
:108AA0000366A2FB07233344560E46EAC316321868
:108AB0004FEA636747EB010380460AFB01F14FEA87
:108AC000EA7B08FB0B17AAFB08013944C60C46EAEF
:108AD000413612EB06084FEAE147B4F9122043EBA6
:108AE00007094FEA182141EA096113010B44029A70
:108AF0000AB11B0A1360039B23B105EB8505803582
:108B00002D121D6005B0BDE8F08F0023EFE700BF18
:108B10002C4A0020A016002070472DE9F041334B6D
:108B2000334E1A8B7489B6F91450B6F90480B6F92D
:108B30000E70B6F920C0DB69121B34895443E2136E
:108B4000B6F912401544E40294FBF5F4B6F902506C
:108B50001444A4F57A6E0EFB0EF20EFB05F50EFB27
:108B600008FEB6F90C80F4611213574302FB08F2B9
:108B7000121402EB6E32ED1205EBE7270232B6F962
:108B80000050B6F806E0921002F5004207EB8507A8
:108B90000EFB02F207FA0CF74FEAD23E02374CF214
:108BA0005032A3EBA70742FA0CF37B4355BF5B009F
:108BB000B3FBFEF3B3FBFEF35B0078B11A1202FBCA
:108BC00002F540F6DE326A430A4D12145D4302EBB1
:108BD000254202F6CF6203EB2213036021B10A2380
:108BE0005C43083424110C60BDE8F081A01600201D
:108BF000F449002043E3FFFF4FF400630383704711
:108C00004FF4006303837047012380F850307047AE
:108C1000F0B4037C456902681F2B37D9203B202123
:108C2000546899400C4223D010249C40D160D460F9
:108C30005168D940CE074ED4EFF31183502282F30E
:108C40001288EA6B1168C90709D45468002C52D104
:108C5000D5E909618E4243D1012285F86020DBB25B
:108C600083F31188037C02681F2B194614D9203B1B
:108C7000082150689940084200D0D1600421506812
:108C800001FA03F3184223D1F0BC70472024166880
:108C90009C4026420FD11946082310688B40184289
:108CA00000D093600423106803FA01F10842EBD06E
:108CB0009160F0BC704710219940946091601168F8
:108CC000D940CC07B8D5012101FA03F39360B3E78B
:108CD000D360F0BC7047012101FA03F3D360ABE726
:108CE000AF690F44D7600ED82E69711A5160AC621B
:108CF000002185F86010116841F00101DBB21160BC
:108D000083F31188AEE7711A5160AE62F0E700BFDD
:108D10002DE9F041B14DB24C2A7823789A4240F0C7
:108D20001B81B04B1A78002A7CD0AF4B1E78AF4B1A
:108D3000002E79D11968B3F830714E628889012A02
:108D400040EA07008881A3F8306157D0D3F8341186
:108D5000B3F864724E628889022A40EA070088816B
:108D6000A3F864624AD0D3F86812B3F898734E62DD
:108D70008889032A40EA07008881A3F898633DD0D8
:108D8000D3F89C13B3F8CC744E628889042A40EA65
:108D900007008881A3F8CC6430D0D3F8D014B3F89E
:108DA00000764E628889052A40EA07008881A3F888
:108DB000006623D0D3F80416B3F834774E6288895E
:108DC000062A40EA07008881A3F8346716D0D3F852
:108DD0003817B3F868784E628889072A40EA070096
:108DE0008881A3F8686809D0D3F86C28B3F89C0987
:108DF0005662918901439181A3F89C692A7823786E
:108E00009A420FD07A481F469B003B449B00C218F1
:108E1000C3583BB9137A2BB9537A1BB97B1C03F0A7
:108E200003032370BDE8F0815E68198971603768BB
:108E3000186847F0010740F20D313760A0F848107C
:108E40008689012A46F480768681D7D0D3F83861A6
:108E5000B3F83C71D3F834017760376847F0010705
:108E60003760A0F848108689022A46F48076868109
:108E7000C4D0D3F86C62B3F87072D3F8680277602C
:108E8000376847F001073760A0F848108689032A41
:108E900046F480768681B1D0D3F8A063B3F8A4738A
:108EA000D3F89C037760376847F001073760A0F874
:108EB00048108689042A46F4807686819ED0D3F8AD
:108EC000D464B3F8D874D3F8D0047760376847F027
:108ED00001073760A0F848108689052A46F4807695
:108EE00086818BD0D3F80866B3F80C76D3F80406E5
:108EF0007760376847F001073760A0F84810868927
:108F0000062A46F4807686813FF478AFD3F83C6732
:108F1000B3F84077D3F838077760376847F0010730
:108F20003760A0F848108689072A46F48076868143
:108F30003FF464AFD3F87028B3F87408D3F86C38F2
:108F40005060106840F001001060A3F848109A8942
:108F500042F480729A8151E780462FF0A1FC277875
:108F60002B78BB4286461DD0BB002148DA1900EBA6
:108F70008202167AC6B1B8F1000F3DD01D49002219
:108F8000B1F808C00132BCF1000F18BF00264245FD
:108F900001F5B071F4D17EBB124A1278002A3FF479
:108FA00034AFC2E61248BB003B449B00C118C25814
:108FB000AEEB0202002AFFF635AF4A7A3AB1013A27
:108FC000D2B24A7212B30EF57A72C25000E0C250A9
:108FD000044B1A78002A7FF4A8AE0FE7B0DD00201A
:108FE000B1DD00202C32001028320010ACCA002065
:108FF000B4DD0020ACBF0020DA1992000EF51C5140
:1090000086181031815000223272C5E74A687244D6
:10901000C250DDE710B5027C01681F2A4FF0200323
:109020000ED94C68203A93401C4208D00B4A406845
:1090300000241470026822F001020260CB6010BDAF
:109040000C6893401C42FAD0044A40680024147013
:10905000026822F0010202608B60F0E727860020A0
:109060002DE9F041C40023189B00BA49CA58526840
:10907000958AADB2EFB2FE070B4465D4BE073AD570
:10908000BFF35F8F1D7EEDB2012D00F0C480B24EA4
:10909000138BBFF35F8F231801EB83031D7E022D1B
:1090A00000F0D980231801EB83031D7E032D06D128
:1090B0009B7E23B196F82130002B40F026819388C7
:1090C00096F920C043F480639380231801EB830357
:1090D0001B7E013363450CD196F82230002586F8BB
:1090E0002150002B40F09080204401EB80000023B1
:1090F0004375BDE8F081984E17F0040F96F920C033
:1091000051D117F0400700F0BB80178A1D6AFFB2EB
:1091100005F80C705FFA8CF56F1C93F818E07BB2C1
:10912000DF1CBE4586F820309C4600F017812718CA
:1091300001EB87073F7EBB42C7D105F1020C4FFA16
:109140008CFC86F820C0C0E71588834E25F40065A6
:109150002D042D0C1580158845F4806515809D7EA5
:10916000002786F82070002D40D096F82150002D61
:1091700039D0231801EB830301251B7E86F821508B
:10918000022B03D1138843F400631380231801EBEF
:1091900083039B7D43F001031382204401EB800095
:1091A000037EBDE8F0819F7E96F821504FF0010EBE
:1091B00086F822E0002F60D0002D7DD1231801EB2E
:1091C00083035B7E002B00F0A98013880CF1010C57
:1091D0004FFA8CFC43F4007386F820C01380138888
:1091E000DF05FCD471E7DB7DFF2BC2D0231801EB38
:1091F00083039D7D05F0FE051582DB7DFF2BCCD022
:10920000FF2386F82030C8E7938823F440731B04BB
:109210001B0C938068E79B7E4F4E002B3FF438AFCA
:1092200096F82130002B3FF433AF138823F480638A
:109230001B041B0C1380BFF35F8F138B138886F8FE
:10924000225043F400731380938896F920C043F4AE
:109250008063938039E79B7E002B3FF423AF96F821
:109260002130002B3FF41EAF138896F920C023F461
:1092700080631B041B0C138017E0002D9ED0A4E715
:109280002D067FF522AFBCF1FF3F6ED0DD6915F8EA
:109290000C5015820CF1010C1D7E4FFA8CF39D428F
:1092A0009C4686F820307FF410AF938823F48063C7
:1092B0001B041B0C938008E71F7ED3F820805FFA05
:1092C0008CF5AE44022F4FFA8EFE17882ED927F464
:1092D00080673F043F0C1780178AFFB208F80C70B4
:1092E0001788D3F820C047F400731380138ADBB2C9
:1092F0000CF80E30938805F1020C4FFA8CFC43F405
:10930000806386F820C0938069E7938896F920C02F
:1093100023F480631B041B0C9380D6E6138801257D
:1093200043F48073138086F8215058E747F40077A0
:109330001780178AFFB208F80C70178AD3F82080BC
:1093400005F1030C4FFA8CFCFBB286F820C008F83C
:109350000E3044E784AE0020A0160020978827F442
:1093600080673F043F0C9780E1E6DD7D15829D7E9E
:1093700086F820701DB91B7E002B7FF40EAF9388FA
:1093800023F480631B041B0C938006E733F01ABBA5
:10939000014B18682FF0F6BDBCA5002038B51D4B59
:1093A0001B78044600F1250593B104221A492030A8
:1093B0004CF060FA2846142218494CF05BFA01235D
:1093C00084F83A30164B1B7873B984F83B3038BDBB
:1093D0002846142213494CF04DFA012384F83A3000
:1093E0000F4B1B78002BF0D00F4B186859689A6808
:1093F000DD68E56020606160A260DD691869596917
:109400009A69A2610123E5612061616184F83B30C2
:1094100038BD00BF71B0002040B0002028B000204F
:1094200072B00020E0D2050848B0002001232821B6
:109430002922017042708370C37070472DE9F84F84
:10944000DDE90A6489461746002120229846054630
:109450004CF0D2F95EB1D6E900327189EB81C3F3E9
:109460000F432B82C2F30F43EA822B836982484663
:1094700049F008FF17F0100B10D1431E70B119F816
:1094800003202E2A18BF09EB030104D14AE011F88A
:10949000016D2E2E3ED013F1FF33F8D2082802467C
:1094A000CA46A8BF08224FF0000B4FF020336B6074
:1094B0002B60C5F807304946284605F108064AF0F2
:1094C00075FE5A46514630464AF070FE6B1EE81D46
:1094D00013F8012FA2F1610119299CBF203A1A70DB
:1094E0008342F5D105F10B0116F8013BA3F16102AE
:1094F000192A9CBF203B06F8013CB142F4D1182345
:10950000C8F30F42EF722B73A5F81A80AA82EC61A0
:10951000BDE8F88FC01A00F1FF3BBBF1030FA8BFF5
:109520004FF0030B082B03F1010AA8BF0823CA441C
:109530001A46BAE738B52E2200214CF05DF90346F1
:1095400040F2DC51642040F21A4240F202241874C6
:109550005982132019219A8240F2753240F26C75BB
:109560001C8398760E240A201977DA8302210122BF
:10957000DD8283F82D0040F64305197283F82C1024
:1095800083F822409A7383F8252083F82B201D84CA
:1095900019460248BDE8384010F07CBCECD2050802
:1095A00010B50021044601202EF0C4F9207010BD32
:1095B00038B500240472451EE1B202202EF0BAF93B
:1095C0000134082C05F8010FF6D138BD2DE9F04F14
:1095D000002087B00C461D460121924631F0E4FE82
:1095E000002D63D005EB0A03DFF8D094DFF8D0B488
:1095F000039355461CE0002D00F0C581D9F81430C6
:10960000AB4264D0D9F81030AB4200F09780D9E972
:109610000631AB4252D8A94200F26F81691A204646
:1096200041F03CFD039B01359D4204F500743DD0A3
:10963000D9F82060AE42DED8D9F83080AE1B4FEAB0
:10964000D60AD8F830300AF1020A9A4506F0070621
:1096500003D3D8F838309A4509D94146504641F0ED
:10966000EBFC8046002800F04D81C9F8300098F8E6
:109670000430002B40F0E280D8F82870002F00F072
:10968000DF81D8F83030D8F80C20AAEB030A06EBBB
:10969000CA0A4346204602EB4A224FF40071B847FB
:1096A000039B01359D4204F50074C1D10021084699
:1096B00031F07AFE002007B0BDE8F08FA942ADD9A5
:1096C0004FF40072002120464CF096F8AAE752228F
:1096D00061204123002622706270A070722284F8FB
:1096E000E70184F8E631D9F82800E3704FF0FF3342
:1096F000314684F8E42184F8E521C4F8E8014FF408
:10970000F07284F8EC3184F8ED3184F8EE3184F8AD
:10971000EF31201D4CF070F855216FF05502C4F860
:10972000F061C4F8F461C4F8F86184F8FC6184F86D
:10973000FD6184F8FE1184F8FF2173E74FF4007295
:10974000002120464CF058F8D44BD54F03CBEB23E7
:10975000022223704FF0080C9026F8234FF0580E89
:10976000C4F80300227484F80DC0C4F8071084F80C
:1097700001E0A6706375D9F81010D9F80830D9F84F
:109780001C602273591A21624FF0FF3100233F20E1
:10979000A1763E21A273E372E3736374A374E3744E
:1097A0002375A375E3756376E3766377A377E37731
:1097B0002076217784F82C2007CFD9F8187084F808
:1097C0002830F61B84F8293084F82A3084F82B30AE
:1097D00084F82D3084F82E3084F82F3084F831301E
:1097E00084F8323084F8333080236662C4F847004E
:1097F00004F1470684F8403029209423A94F84F8C7
:1098000046C084F8420084F843300E200D234FF008
:10981000010C84F8440084F8453084F830C071604D
:1098200003CF33465527AA269A60C4F85200C4F8DD
:10983000561084F8FE7184F8FF61F3E64FF400726D
:10984000002120464BF0D8FFD8F84030002E61D1DF
:1098500004F12007002B77D0D8F83030924911223C
:10986000CDE900662046FFF7E9FDD8F840301A6CD4
:1098700004F1400A002A79D01B6B8C49CDE90066BF
:1098800038461122FFF7DAFDD8F84460002E3FF485
:10989000C9AE4FF4E078CDE904450CE00024CDE9F1
:1098A00000C4FFF7CBFDB66CBA46A8F120080EB392
:1098B000B8F11F0F1ED93468356B96F804E01122F9
:1098C0002B46214650460AF1200706F11C0CBEF13A
:1098D000000FE3D172793369019342F021022B46E4
:1098E000CDF800C0FFF7AAFDB66CBA46A8F1200873
:1098F000002EDDD1DDE9044594E6E91A204641F069
:10990000CDFB8FE6231F04F5FE7243F804BF9A4295
:10991000FBD187E6002BD8F844200CBF012302239B
:10992000C3EB0613002A3FF47DAE966C013B002E7C
:109930003FF478AE013BB66CF9D1002E3FF472AE25
:10994000A2464FF40078A6E7CDE900663346D9F881
:109950000C1008222046FFF771FDD8F84460002E55
:109960003FF460AEBA464FF4F07894E7CDE9006674
:109970003346384611224D49FFF760FDD8F8446060
:10998000002E86D14EE64FF40072294620464BF059
:1099900033FF80220C2384F8BE2184F8C231D9F829
:1099A0001000434BD9F8086084F8B85183FB0032AB
:1099B000C117C1EB2232B2F5806F84F8B95184F837
:1099C000BA5184F8BB5184F8BC5184F8BD51C4F835
:1099D000C601C4F8CA6142DBFF2384F8BF3184F8B2
:1099E000C13184F8C031324B711E83FB0132CE1776
:1099F000C6EB2232B2F5806F29DA2E4B84F8C521EE
:109A000083FB01030B442C48C6EB6313C3EB8316A3
:109A100080FB0370891B1844DE17921022F03F026E
:109A20000131C6EBE0100A43034484F8C42184F8F2
:109A3000C3315522AA2384F8FE2184F8FF31F1E5D1
:109A400039464FF4007220464BF0D6FEEAE5FF237C
:109A500084F8C33184F8C53184F8C431E9E7154B83
:109A600084F8C12183FB00730344134FC1EB6313DC
:109A700087FB0317C3EB831C9110A0EB0C02F818B3
:109A8000DF1721F03F010132C7EBE0100A43034426
:109A900084F8C02184F8BF31A5E700BF00D30508D2
:109AA0000CD305081CD30508F8D20508FCD205081C
:109AB00097554541832008828180808078B90020B5
:109AC000DEADBEEF08B5012014F014FD174A93680F
:109AD00003F00C03042B1ED0082B18D151685368D7
:109AE000490203F03F0319D452681148B0FBF3F068
:109AF000C2F3881300FB03F00C4B0E4A5B68C3F300
:109B0000014301335B00B0FBF3F0106008BD094B6B
:109B1000074A1A6008BD074B186008BDB0FBF3F098
:109B20005368C3F3881300FB03F0E5E700380240F5
:109B30000024F40050BE002010B5044C04480A462E
:109B4000214613F0C3F9204610BD00BFC416002003
:109B500028D3050810B5044C04480A46214613F0E2
:109B6000B5F9204610BD00BFC416002038D3050843
:109B700010B5044C04480A46214613F0A7F92046C4
:109B800010BD00BFC416002044D305080A4608B51E
:109B9000054920B1054813F099F9034808BD044868
:109BA00013F094F9004808BDC416002070D30508CE
:109BB00058D3050808B5838940F2E93300E0A3B122
:109BC0000289013B12F0020F9BB2F8D089B2818169
:109BD00040F2E93300E043B10289013B12F0010F8A
:109BE0009BB2F8D08089C0B208BD32F079FDC0B216
:109BF00008BD00BF2DE9F04F87B0A94A0290406828
:109C0000038823F040031B041B0C0380038823F00C
:109C100038031B0490424FEA134300F03F8102F5E2
:109C2000806290420CBF3022382213430380029B93
:109C300002889B6842F04002028013B11A689B8838
:109C40005383838940F2E93302E0002B00F09081D6
:109C50000289013B12F0020F9BB2F6D06B23838185
:109C600040F2E93302E0002B00F082810289013BDF
:109C700012F0010F9BB2F6D08389838940F2E93359
:109C800002E0002B00F071810289013B12F0020F0B
:109C90009BB2F6D08023838140F2E93302E0002BAF
:109CA00000F063810289013B12F0010F9BB2F6D0F4
:109CB0008389029B9B6813B11A689B8813830623D0
:109CC000784CDFF8EC81DFF8ECA1774D774E049308
:109CD0009623DFF8E4C101934FF0100EDAF8043058
:109CE000C3F30803002B40F0B280EFF31183002B85
:109CF00040F0AD802068AA6823689842FAD13368A2
:109D00009A42F7D8D8F800704FF47A7101FB07F344
:109D10009B1AB3FBF7F301FB00304FF47A774FF057
:109D20000109DAF80430C3F30803002B70D1EFF314
:109D30001183002B6CD12368A96822689342FAD161
:109D400032689142F7D8D8F8002007FB02FBABEB52
:109D50000101B1FBF2F107FB03131B1AB3F57A7F84
:109D6000DFD3019B013B0193B8D1029B9B6813B1E8
:109D70001A689B885383029B586840F2E9338289B2
:109D800002E0002B00F085800289013B12F0020FF7
:109D90009BB2F6D0F523838140F2E93301E0002B3A
:109DA00077D00289013B12F0010F9BB2F7D0838973
:109DB000838940F2E93301E0002B67D00289013B3F
:109DC00012F0020F9BB2F7D0FF23838140F2E933F8
:109DD00001E0002B5AD00289013B12F0010F9BB227
:109DE000F7D08389DBB20393029B9A6812B11368A0
:109DF00091881983039B682B60D0049B013B13F06F
:109E0000FF0304937FF464AF184607B0BDE8F08FFA
:109E1000EFF311818EF31288D5F808B02B68DB03BD
:109E200044BFCCF80090D5F808B02368DCF80020D7
:109E3000C9B281F31188D8F80010134407FB01F26E
:109E4000A2EB0B02B2FBF1F207FB032385E7EFF372
:109E500011838EF31288AF682A68D20303D50122DA
:109E6000CCF80020AF682068DCF80090DBB283F308
:109E70001188D8F800104FF47A72484402FB01F3BD
:109E8000DB1BB3FBF1F302FB003046E732F028FCAA
:109E9000AAE732F025FC029B586889E73022C4E625
:109EA00000380040D4B2002010E000E0DCB2002016
:109EB000D8B2002000ED00E0D0B2002012B113684B
:109EC00092885A83029B586840F2E933828901E004
:109ED000002B45D00289013B12F0020F9BB2F7D054
:109EE0008C23838140F2E93301E0002B38D00289D2
:109EF000013B12F0010F9BB2F7D08389838940F2B6
:109F0000E9330289013B12F0020F9BB215D1002BFD
:109F1000F7D132F0E5FB029B9B6813B11A689B886E
:109F20001383059B142B04D3182B17D9543B062BF2
:109F300014D9002007B0BDE8F08FFF23838140F2E1
:109F4000E93301E0002BE4D00289013B12F0010F5C
:109F50009BB2F7D08389DBB20593DCE7032054E79B
:109F600032F0BEFB029B5868C8E732F0B9FBA0E6AE
:109F700032F0B6FB029B58687FE600BF2DE9F04F38
:109F8000B04C436894F8232185B00190002A00F07A
:109F90003A811A88AC4922F040021204120C1A804D
:109FA0001A8822F0380212048B424FEA124200F063
:109FB000288101F580618B420CBF302138210A4392
:109FC0001A801A880198A14CA14FDFF890A2A14DE8
:109FD000A14E42F040021A806B21802232F0A2FB97
:109FE000152303939623DFF878E200934FF01008CF
:109FF000DAF80430C3F30803002B40F0D180EFF30C
:10A000001183002B40F0CC802068AA682368984216
:10A01000FAD133689A42F7D8D7F800C04FF47A7172
:10A0200001FB0CF39B1AB3FBFCF301FB00304FF474
:10A030007A7C4FF00109DAF80430C3F30803002BEF
:10A0400040F09080EFF31183002B40F08B80236869
:10A05000A96822689342FAD132689142F7D83A68E7
:10A060000CFB02FBABEB0101B1FBF2F10CFB0313A8
:10A070001B1AB3F57A7FDED3009B013B0093B7D167
:10A08000019B9B6813B11A689B885383019B586896
:10A0900040F2E933828902E0002B00F0AD800289B2
:10A0A000013B12F0020F9BB2F6D0F523838140F200
:10A0B000E93302E0002B00F09F800289013B12F09F
:10A0C000010F9BB2F6D08389838940F2E93302E025
:10A0D000002B00F086800289013B12F0020F9BB238
:10A0E000F6D0FF23838140F2E93301E0002B78D0E2
:10A0F0000289013B12F0010F9BB2F7D08389DBB2DA
:10A100000293019B9B6813B11A689B881383029B7F
:10A11000982B00F0B08069D9AC2B65D0AF2B40F004
:10A12000A1800920019B48495B681A8822F04002FF
:10A130001204120C1A801A8822F0380212048B4280
:10A140004FEA124256D001F580618B420CBF0821C4
:10A1500010210A431A801A8842F040021A8005B082
:10A16000BDE8F08FEFF3118188F31288D5F808B0BD
:10A170002B68DB0344BFCEF80090D5F808B0236805
:10A18000DEF80020C9B281F31188396813440CFB52
:10A1900001F2A2EB0B02B2FBF1F20CFB032367E727
:10A1A000EFF3118388F31288D5F808C02A68D20328
:10A1B00004D50122CEF80020D5F808C02068DEF8CA
:10A1C0000090DBB283F3118839684FF47A72484407
:10A1D00002FB01F3A3EB0C03B3FBF1F302FB003032
:10A1E00025E732F07DFA8CE707209BE7122B39D167
:10A1F000082097E70821ACE732F072FA019B586813
:10A2000062E73021DBE61A880F4922F0400212048F
:10A21000120C1A801A8822F0380212048B424FEA7C
:10A2200012422AD001F580618B420CBF0821102117
:10A230000A431A801A88012142F040021A8084F8E9
:10A240002311A6E6A016002000380040D4B200205A
:10A25000D8B2002010E000E0DCB2002000ED00E009
:10A26000D0B20020039B013B13F0FF0303937FF464
:10A27000B9AE039873E70B2054E70821D8E700BF75
:10A28000F0B5876983B0064617B13B68BA885A8330
:10A290007069DFF8A8E08389C3244FF47A734FF024
:10A2A000060C6D464FF6FF710EF1010E03E0013B07
:10A2B0009BB28B4220D002899207F8D5A3B283814A
:10A2C0004FF47A7302E0A3B28B4215D00289D20711
:10A2D00003F1FF34F7D5828992B20DB12A700135AE
:10A2E000BCF1000F0BD00CF1FF3CFF24BEF1000FBE
:10A2F000E1D09EF80040D7E732F0F2F9B76917B124
:10A300003B68BA881A839DF805009DF801509DF8B6
:10A3100002109DF803409DF804209DF8063041EAA4
:10A32000052143EA002342EA04220120A6F8501046
:10A33000A6F85220A6F8543003B0F0BD2459050801
:10A3400007B506236A46F72132F034FA9DF801304A
:10A350009DF800100A4A1B0243EA01439DF80210CF
:10A360000B4353609DF804309DF803101B0243EA31
:10A3700001439DF805100B43136003B05DF804FB27
:10A38000A016002007B5032301AA002132F012FA1B
:10A390009DF805309DF804001B0243EA00439DF838
:10A3A0000600184303B05DF804FB08B5FFF7EAFFA9
:10A3B000014BD86008BD00BFA016002008B5FFF70C
:10A3C000E1FF014B986008BDA016002007B50623E9
:10A3D0006A46F72132F0EEF99DF801309DF8001041
:10A3E0000B4A1B0143EA01339DF8021043EA1113A3
:10A3F00053619DF804309DF803101B0143EA0133BB
:10A400009DF8051043EA1113136103B05DF804FBD6
:10A41000A016002007B5032301AAF62132F0CAF9DD
:10A420009DF805309DF804201B0243EA02439DF885
:10A4300006201343054AB2F92020C2F10802D34096
:10A44000034AD36103B05DF804FB00BFF449002068
:10A45000A016002007B5022301AAF62132F0AAF9BE
:10A460009DF804209DF8053043EA0223024A138335
:10A4700003B05DF804FB00BFA016002070B582B0E9
:10A48000044606230C306A463B2132F093F9A8B10A
:10A490009DF804009DF800609DF801109DF80250A1
:10A4A0009DF803209DF8053041EA062143EA002388
:10A4B00042EA05226183A283E383012002B070BDDA
:10A4C0007B22F42132F01CBA0122482132F018BA62
:10A4D0000122582132F014BA3122F42132F010BA9C
:10A4E000044B93F820209201343202F0FC02F42154
:10A4F00032F006BAF44900202E22F42132F000BADC
:10A500002DE9F04F85B00346039090F861000028D4
:10A5100040F02C85039BC4495A69138823F04003FB
:10A520001B041B0C1380138823F038031B048A427E
:10A530004FEA134300F0398501F580618A420CBF70
:10A54000302138210B43138013880399B74CB84E40
:10A55000DFF8E882B74F43F04003103113800291D7
:10A56000084680226B2132F0DDF86423DFF8D0E268
:10A57000B14801934FF01009DEF80430C3F308032B
:10A58000002B40F0E883EFF31183002B40F0E383CE
:10A590002568826823689D42FAD13B689A42F7D8C1
:10A5A000D6F800C04FF47A7101FB0CF39B1AB3FB91
:10A5B000FCF301FB05354FF47A7C4FF0010ADEF81D
:10A5C0000430C3F30803002B40F0A783EFF311839B
:10A5D000002B40F0A2832368816822689342FAD15D
:10A5E0003A689142F7D832680CFB02FBABEB0101F1
:10A5F000B1FBF2F10CFB03135B1BB3F57A7FDED3E7
:10A60000019B013B0193B7D1032268210298DFF837
:10A610002C82884F32F086F86423DFF824E28648E3
:10A6200001934FF01009DEF80430C3F30803002B48
:10A6300040F01584EFF31183002B40F0108425685F
:10A64000826823689D42FAD13B689A42F7D8D6F8CF
:10A6500000C04FF47A7101FB0CF39B1AB3FBFCF3BF
:10A6600001FB05354FF47A7C4FF0010ADEF8043027
:10A67000C3F30803002B40F03283EFF31183002B68
:10A6800040F02D832368816822689342FAD13A68AA
:10A690009142F7D832680CFB02FBABEB0101B1FB36
:10A6A000F2F10CFB03135B1BB3F57A7FDED3019B46
:10A6B000013B0193B7D101226B210298DFF87C8125
:10A6C0005C4F32F02FF80F23DFF874E15A48019302
:10A6D0004FF01009DEF80430C3F30803002B40F0FC
:10A6E0009D83EFF31183002B40F0988325688268E7
:10A6F00023689D42FAD13B689A42F7D8D6F800C049
:10A700004FF47A7101FB0CF39B1AB3FBFCF301FBD2
:10A7100005354FF47A7C4FF0010ADEF80430C3F3BC
:10A720000803002B40F0BD82EFF31183002B40F0B3
:10A73000B8822368816822689342FAD13A689142CC
:10A74000F7D832680CFB02FBABEB0101B1FBF2F175
:10A750000CFB03135B1BB3F57A7FDED3019B013B3C
:10A760000193B7D118221B210298DFF8D080314F16
:10A7700031F0D8FF0F23DFF8C8E02F4801934FF0E6
:10A780001009DEF80430C3F30803002B40F02583E2
:10A79000EFF31183002B40F0208325688268236843
:10A7A0009D42FAD13B689A42F7D8D6F800C04FF4E0
:10A7B0007A7101FB0CF39B1AB3FBFCF301FB05352B
:10A7C0004FF47A7C4FF0010ADEF80430C3F308033B
:10A7D000002B40F04882EFF31183002B40F04382BE
:10A7E0002368816822689342FAD13A689142F7D887
:10A7F00032680CFB02FBABEB0101B1FBF2F10CFB8D
:10A8000003135B1BB3F57A7FDED3019B013B0193FE
:10A81000B7D118221C210298DFF82080054F31F0B3
:10A8200081FF0F230EE000BF00380040D4B20020AB
:10A83000D8B20020DCB2002010E000E0D0B200204E
:10A8400000ED00E0DFF814E3C14801934FF0100978
:10A85000DEF80430C3F30803002B40F09D82EFF3D1
:10A860001183002B40F098822568826823689D42FE
:10A87000FAD13B689A42F7D8D6F800C04FF47A7103
:10A8800001FB0CF39B1AB3FBFCF301FB05354FF402
:10A890007A7C4FF0010ADEF80430C3F30803002B82
:10A8A00040F0C381EFF31183002B40F0BE81236899
:10A8B000816822689342FAD13A689142F7D83268A7
:10A8C0000CFB02FBABEB0101B1FBF2F10CFB031340
:10A8D0005B1BB3F57A7FDED3019B013B0193B7D1BC
:10A8E000039A92F85B30032B00F23E8392F85E20CD
:10A8F000012A0BD0022A40F03783039B93F8633080
:10A9000003F0FB03022B0CBF002207221A2102983E
:10A91000DFF84C828F4F31F005FF0F23DFF83CE268
:10A920008B4801934FF01009DEF80430C3F308039D
:10A93000002B40F0F882EFF31183002B40F0F382FC
:10A940002568826823689D42FAD13B689A42F7D80D
:10A95000D6F800C04FF47A7101FB0CF39B1AB3FBDD
:10A96000FCF301FB05354FF47A7C4FF0010ADEF869
:10A970000430C3F30803002B40F03981EFF3118357
:10A98000002B40F034812368816822689342FAD119
:10A990003A689142F7D832680CFB02FBABEB01013D
:10A9A000B1FBF2F10CFB03135B1BB3F57A7FDED333
:10A9B000019B013B0193B7D1039B029893F8602060
:10A9C000DFF89C81634F192131F0ACFE6423DFF87E
:10A9D0008CE15F4801934FF01009DEF80430C3F3B7
:10A9E0000803002B40F07E82EFF31183002B40F030
:10A9F00079822568826823689D42FAD13B689A4231
:10AA0000F7D8D6F800C04FF47A7101FB0CF39B1A0B
:10AA1000B3FBFCF301FB05354FF47A7C4FF0010AE0
:10AA2000DEF80430C3F30803002B40F0C280EFF3DC
:10AA30001183002B40F0BD80236881682268934217
:10AA4000FAD13A689142F7D832680CFB02FBABEBC3
:10AA50000101B1FBF2F10CFB03135B1BB3F57A7F31
:10AA6000DED3019B013B0193B7D11022372102981D
:10AA7000DFF8EC80374F31F055FE0F23DFF8DCE0D4
:10AA8000334801934FF01009DEF80430C3F3080394
:10AA9000002B40F00682EFF31183002B40F001827F
:10AAA0002568826823689D42FAD13B689A42F7D8AC
:10AAB000D6F800C04FF47A7101FB0CF39B1AB3FB7C
:10AAC000FCF301FB05354FF47A7C4FF0010ADEF808
:10AAD0000430C3F30803002B4DD1EFF31183002B97
:10AAE00049D12368816822689342FAD13A68914239
:10AAF000F7D832680CFB02FBABEB0101B1FBF2F1C2
:10AB00000CFB03135B1BB3F57A7FE0D3019B013B86
:10AB10000193B9D101223821029831F003FE039B41
:10AB20000D495A69138823F040031B041B0C138042
:10AB3000138823F038031B048A424FEA134300F0C2
:10AB4000378201F580618A420CBF0821102109E09B
:10AB500010E000E0DCB200200038004000ED00E032
:10AB6000D0B200200B431380138843F040031380BE
:10AB700005B0BDE8F08FEFF3118189F31288D0F8AA
:10AB800008B00368DB0344BFC8F800A0D0F808B0E1
:10AB90002368D8F80020C9B281F3118831681344C2
:10ABA0000CFB01F2A2EB0B02B2FBF1F20CFB032354
:10ABB000A8E7EFF3118189F31288D0F808B0036891
:10ABC000DB0344BFC8F800A0D0F808B02368D8F869
:10ABD0000020C9B281F31188316813440CFB01F2E3
:10ABE000A2EB0B02B2FBF1F20CFB032335E7EFF310
:10ABF000118189F31288D0F808B00368DB0344BFE1
:10AC0000C8F800A0D0F808B02368D8F80020C9B26E
:10AC100081F31188316813440CFB01F2A2EB0B02A3
:10AC2000B2FBF1F20CFB0323BEE6EFF3118189F3D3
:10AC30001288D0F808B00368DB0344BFC8F800A04E
:10AC4000D0F808B02368D8F80020C9B281F3118881
:10AC5000316813440CFB01F2A2EB0B02B2FBF1F2E0
:10AC60000CFB032334E6EFF3118189F31288D0F84B
:10AC700008B00368DB0344BFC8F800A0D0F808B0F0
:10AC80002368D8F80020C9B281F3118831681344D1
:10AC90000CFB01F2A2EB0B02B2FBF1F20CFB032363
:10ACA000AFE5EFF3118189F31288D0F808B003689B
:10ACB000DB0344BFC8F800A0D0F808B02368D8F878
:10ACC0000020C9B281F31188316813440CFB01F2F2
:10ACD000A2EB0B02B2FBF1F20CFB03233AE5EFF31C
:10ACE000118189F31288D0F808B00368DB0344BFF0
:10ACF000C8F800A0D0F808B02368D8F80020C9B27E
:10AD000081F31188316813440CFB01F2A2EB0B02B2
:10AD1000B2FBF1F20CFB0323C5E4EFF3118189F3DD
:10AD20001288D0F808B00368DB0344BFC8F800A05D
:10AD3000D0F808B02368D8F80020C9B281F3118890
:10AD4000316813440CFB01F2A2EB0B02B2FBF1F2EF
:10AD50000CFB032350E4EFF3118389F31288D0F83E
:10AD600008C00268D20304D50122C8F80020D0F838
:10AD700008C02568D8F800A0DBB283F311883168D9
:10AD80004FF47A72554402FB01F3A3EB0C03B3FBBF
:10AD9000F1F302FB05350EE4EFF3118389F312881A
:10ADA000D0F808C00268D20304D50122C8F80020F8
:10ADB000D0F808C02568D8F800A0DBB283F311886A
:10ADC00031684FF47A72554402FB01F3A3EB0C0394
:10ADD000B3FBF1F302FB053559E5EFF3118389F37A
:10ADE0001288D0F808C00268D20304D50122C8F83E
:10ADF0000020D0F808C02568D8F800A0DBB283F3A3
:10AE0000118831684FF47A72554402FB01F3A3EBC9
:10AE10000C03B3FBF1F302FB0535D1E4EFF311832F
:10AE200089F31288D0F808C00268D20304D5012241
:10AE3000C8F80020D0F808C02568D8F800A0DBB218
:10AE400083F3118831684FF47A72554402FB01F3A1
:10AE5000A3EB0C03B3FBF1F302FB053559E4EFF36D
:10AE6000118389F31288D0F808C00268D20304D590
:10AE70000122C8F80020D0F808C02568D8F800A042
:10AE8000DBB283F3118831684FF47A72554402FBC8
:10AE900001F3A3EB0C03B3FBF1F302FB0535FFF762
:10AEA000E1BBEFF3118389F31288D0F808C0026880
:10AEB000D20304D50122C8F80020D0F808C02568C4
:10AEC000D8F800A0DBB283F3118831684FF47A72AE
:10AED000554402FB01F3A3EB0C03B3FBF1F302FBBC
:10AEE0000535F0E5EFF3118389F31288D0F808C037
:10AEF0000268D20304D50122C8F80020D0F808C0A7
:10AF00002568D8F800A0DBB283F3118831684FF4CC
:10AF10007A72554402FB01F3A3EB0C03B3FBF1F38C
:10AF200002FB053578E5EFF3118389F31288D0F839
:10AF300008C00268D20304D50122C8F80020D0F866
:10AF400008C02568D8F800A0DBB283F31188316807
:10AF50004FF47A72554402FB01F3A3EB0C03B3FBED
:10AF6000F1F302FB0535FEE4019ACFE41D462FF014
:10AF7000EFFF05F10C010446E0B1202300228371AC
:10AF80000F4BC271EB603EF01BFAA388B3FA83F358
:10AF9000C3F11F03012212FA03F33FF4BBAA0949CC
:10AFA0000A6813430B60FFF7B5BA3021FFF7CABA3E
:10AFB0000821D7E5024BEB603EF002FAFFF7AABA90
:10AFC000098C0008003C01402DE9F84F037C026821
:10AFD0001F2B86BF203B51681168202202FA03F321
:10AFE0000B4214BF012300230BB9BDE8F88F45695C
:10AFF000604F04462DF054FC4FF4B07303FB05730F
:10B0000006461A7C002A35D15B495A680978D2F87D
:10B010000090D1B9D3F8D41058890A6822F00102FF
:10B020000A60B9F80C3023EA0003A9F80C30534B3E
:10B030001B78002B32D1237C21681F2B13D82022B0
:10B0400002FA03F38B60BDE8F88F5269136823F0AE
:10B0500001031360B9F80C3023F480731B041B0C3C
:10B06000A9F80C30E3E7203B202202FA03F3CB607F
:10B07000BDE8F88FD3F8D46041485F8901225A7443
:10B0800031685A680368156821F001013160AA89A6
:10B09000013322EA0702AA810360CCE74FF4B07AB9
:10B0A0000AFB05FA07EB0A05D5F8D480404613F0F1
:10B0B000B9F901232B74D5F8D8B02DF0F1FB0AF1C2
:10B0C00088013944CBF82C01484613F06BFAD5E9D6
:10B0D0002A70D5F89430D5E92C123B4303430B4337
:10B0E0001343D5F8B820D5F8C870D8F80000254922
:10B0F0001343D5F8BC201343D5F8CC203B43014083
:10B1000013430B430022C5F8A020C8F80030D8F83C
:10B110001420D5F8C030D5F8A41022F0070CD5F8CB
:10B12000C420D5E92670134343EA0C03C8F8143051
:10B13000C8F80410C8F80870C8F80C00D8F8002047
:10B14000D5F8D43095F8D000696842F01002C8F8FC
:10B15000002058601A68096842F001021A608B8961
:10B160006A8913438B812DF09BFB074B801B186072
:10B1700061E700BFACBF002028320010243200106D
:10B1800084A800203F801CF0E4330010024B0146ED
:10B19000186831F017BC00BFB0A4002038B5064DC8
:10B1A000441E14F8011F286819B9BDE8384031F071
:10B1B000BDBB31F007FCF4E7B0A400200048EDE788
:10B1C0007B11060808B5FFF7E9FFBDE80840F5E781
:10B1D00010B504460348FFF7E1FF2046BDE81040E4
:10B1E000F0E700BFA7D2050838B5074C074DAC42C1
:10B1F00003D3074B00221A7038BD6288D4E90101DD
:10B2000048F0D4FF1434F2E790010008300700083A
:10B21000D4E0002038B5074C074DAC4203D3074BB0
:10B2200001221A7038BD6288D4E9011048F0BEFFCF
:10B230001434F2E79001000830070008D4E0002041
:10B24000024A136823EA000010607047A8D4002067
:10B25000DFED2E7AB4EEE70AF1EE10FA4ADDDFED0B
:10B260002C6A9FED2C7A01E0B0EE670AB4EEC70AB3
:10B27000F1EE10FA70EE667AF6DC9FED277AF4EEC6
:10B28000C77AF1EE10FA3ED5DFED216A9FED237A01
:10B2900001E0F0EE407AF4EEC77AF1EE10FA37EE04
:10B2A000A60AF6D4DFED1E7AB4EEE70AF1EE10FA44
:10B2B00014DDDFED167A37EEC00A60EE006A9FED0E
:10B2C000196A9FED197ADFED197AA6EE867A20EEDB
:10B2D000266AE6EE877AA6EE270A7047DFED147A33
:10B2E000B4EEE70AF1EE10FA44BFDFED0B7A37EE69
:10B2F000C00AE2E79FED087AF0EE407AF4EEC77AF2
:10B30000F1EE10FAC0D4B0EE670ACBE7DB0F49408C
:10B31000DB0FC940E4CB1641DB0F49C0E4CB16C1BB
:10B32000DB0FC93F92E741B99730083C15A82ABE08
:10B33000DB0FC9BFF0EEC07AB0EEE07AB4EEE77A88
:10B34000F1EE10FAB4BFB0EE676AB0EE476AB5EE40
:10B35000406AF1EE10FA46D0B4EEE77AF1EE10FA58
:10B360008CBFF0EE675AF0EE475AC5EE866A9FED45
:10B370001F3A9FED1F6A9FED1F4A9FED1F5ADFED99
:10B380001F3ADFED1F4ADFED1F5AA6EEC36AE6EE55
:10B39000A34AA6EE864AB7EE006AA6EE845AA6EE47
:10B3A000A46AE6EE855AC5EE866AB4EEE77AF1EE57
:10B3B00010FA48BFDFED147AF5EEC00A48BF77EE09
:10B3C000E66AF1EE10FA48BFDFED107AB5EEC00A7A
:10B3D00048BF77EEE66AF1EE10FA48BFF1EE666A12
:10B3E000B0EE660A7047DFED076ADEE739094E3DC9
:10B3F000E3B59E3E88FA163E45FE7F3F99FB243F0B
:10B4000069A2163EA7DFA834DB0FC93FDB0F494016
:10B41000DFED317A30EE277AFDEEC76A16EE903A0C
:10B420002033402B02D99FED2D0A7047B4EEE70A76
:10B43000F1EE10FA4DDD9FED2A6ADFED2A6A01E098
:10B44000B0EE677AB4EEE67AF1EE10FA77EE467A6D
:10B45000F6DC9FED257AF4EEC77AF1EE10FA35D5D9
:10B46000DFED1F6A9FED217A01E0F0EE407AF4EE05
:10B47000C77AF1EE10FA37EEA60AF6D4DFED167AA7
:10B48000B4EEE70AF1EE10FA1BDCDFED197AB4EE48
:10B49000E70AF1EE10FA44BFDFED137A37EEC00A87
:10B4A00060EE006A9FED136A9FED137ADFED137A69
:10B4B000A6EE867A20EE266AE6EE877AA6EE270AC0
:10B4C0007047DFED0F7A37EEC00AE9E7B0EE670AA2
:10B4D000D4E7F0EE477ABCE7DB0FC93F000000007D
:10B4E000DB0FC940E4CB1641DB0F49C0E4CB16C1EA
:10B4F000DB0FC9BF92E741B99730083C15A82ABEB7
:10B50000DB0F494010B44C09012250F8243001F0FF
:10B510001F0102FA01F123EA010340F824305DF82B
:10B52000044B704710B44C09012250F8243001F04C
:10B530001F0102FA01F10B4340F824305DF8044B7F
:10B54000704700BF4B0901F01F0150F82320012371
:10B5500003FA01F1114214BF18460020704700BFE2
:10B560002DE9F043002489B006460D461F46A0464B
:10B5700005E025290CD030460134A847039A531C16
:10B58000039311780029F4D1204609B0BDE8F08377
:10B59000931CCDE903385078302842D0A0F1300315
:10B5A000DBB2092B4FF0000945D96C282AD064285A
:10B5B00073D019D9732858D063D9752840F0828088
:10B5C00007F1040C386805AB00220A216746FCF736
:10B5D00047FE05AB049A009329464B463046FCF7DC
:10B5E00015FD039A0444CAE725283CD051D95828B0
:10B5F0006BD06328C2D139783046A847043701346C
:10B60000039ABCE7039B5A1C03921B78642B52D00D
:10B6100016D8252B27D064D9582B18D0632BEAD005
:10B62000ADE7D31C03939078A0F13003DBB2092B74
:10B630004FF00109B9D804AA03A93FF081FDB4E78E
:10B64000732B12D051D9752B2DD0782B97D1A3F114
:10B650005802B2FA82F23868520905AB1021043759
:10B66000FCF7FEFDB5E7252185E73B68049A0093CA
:10B67000294600233046FCF7C9FC04370444039AEA
:10B680007DE76E287FF47AAF039A3B6804371C602D
:10B6900075E700283FF478AF70E7386805A9FCF734
:10B6A000A9FD043795E7386805AB00220A21FCF7AD
:10B6B000D7FD04378DE73B1D386805A91F46FCF709
:10B6C00099FD86E778287FF459AFA0F15802B2FAC5
:10B6D00082F23868520905AB1021FCF7C1FD04372E
:10B6E00077E7002B3FF450AF49E76E2BCDD046E70C
:10B6F00010B5064C0B46024605492068FFF730FF9F
:10B700002068BDE8104031F011B900BFB0A400209E
:10B710008D93000838B504460D460848FFF73EFDF6
:10B7200029462046FFF7E4FF0548FFF737FD054BA4
:10B730001B7813B1044B01221A7038BDACD2050836
:10B74000B7D205080CA600200DA600200FB407B53F
:10B7500004A951F8040B0191FFF7DCFFFFF72EFD60
:10B7600003B05DF804EB04B070470FB407B504A94B
:10B7700051F8040B0191FFF7CDFF03B05DF804EB26
:10B7800004B070470FB407B504A951F8040B019138
:10B79000FFF7AEFFFFF712FD03B05DF804EB04B056
:10B7A00070470FB407B504A951F8040B0191FFF7D6
:10B7B0009FFF03B05DF804EB04B070472DE9F04142
:10B7C0001746027902F06003402B05460C462BD148
:10B7D0000026514FDFF85C8115E02B7903F0070359
:10B7E000022B15D0032B19D0012B14BFA15DA1573B
:10B7F0003846FFF7D6FF6B79013BB34202DD404686
:10B80000FFF7CCFC01366B79B342E6DCBDE8F08192
:10B8100034F816103846FFF7C4FFECE734F9161079
:10B820003846FFF7BEFFE6E702F00702042A66D8B3
:10B83000DFE802F0031E27292C002478202B3CD0BF
:10B84000602B48D0002BE1D1B5F80560B5F8078032
:10B8500031482146FFF7A5FFA64248DCA04546DB5C
:10B86000002FD3D0424631462C48BDE8F04198E73E
:10B8700094F90040202B20D0602B2CD0002BC5D178
:10B8800044E02488DAE7B4F90040F3E72668202B87
:10B89000344612D0602B1ED0002BB7D131461E4843
:10B8A000FFF77FFFD5F805108E4220D8002FADD0CE
:10B8B0001B48BDE8F04174E700246A79194B03EB9B
:10B8C000C2010979A14212DD53F8323053F8240045
:10B8D000BDE8F04162E46A791441E30703D51248F8
:10B8E000BDE8F0415DE71148BDE8F04159E7FFF7D9
:10B8F00065FC224629680E48BDE8F04135E7202B5B
:10B90000DAD0602BEFD0002B80D11C46B5F9056052
:10B91000B5F907809CE700BF330506084503060814
:10B92000BDD2050830B40508700506088AE505088B
:10B93000C3D20508BBD205080CB407B510F020002F
:10B940000BD079B92320FFF721FC05A904980191B8
:10B95000FFF7CEFEFFF732FC012003B05DF804EBE9
:10B9600002B070470020F8E70CB4C30607B500D555
:10B9700061B905A904980191FFF7BAFEFFF71EFC13
:10B98000012003B05DF804EB02B070470020F8E737
:10B990000EB400B584B005AB019053F8042B0649F2
:10B9A000039301A8FFF7DCFD019B00221A7004B08D
:10B9B0005DF804EB03B070470180000870B40668BE
:10B9C0008E4217D90139751E002311F8014F082244
:10B9D000634013F0800F4FEA430318BF83F0D50391
:10B9E000013ADBB2F5D18D42EFD1721C02603370A7
:10B9F00070BC7047721C00230260337070BC7047CB
:10BA00000A44914215D010B40139541E11F8012F87
:10BA10000823504010F0800F4FEA400018BF80F01C
:10BA2000D500013BC0B2F5D1A142EFD15DF8044B86
:10BA3000704770474840082310F0800F4FEA4000DD
:10BA400018BF80F0D500013BC0B2F5D1704700BFF0
:10BA50000A44914215D030B40139551E41F22102F9
:10BA600011F8014F082380EA042004044CBF82EA45
:10BA700040004000013B80B2F7D18D42F0D130BC94
:10BA80007047704770B502221349144C144E4FF69C
:10BA9000FF70FFF7DDFF22884AB1A518B54218D222
:10BAA000052A16D92146FFF7D3FF2C46F3E7214696
:10BAB0000222FFF7CDFF0222A118FFF7C9FF094BB1
:10BAC000E41A094B1C8041F60F53C31A58425841DF
:10BAD00070BD0020FCE700BF0040000802400008E5
:10BAE00000800008FA3F0008D6E000200F4B2DE947
:10BAF0003048D3E9004554EA05020AD1034640F232
:10BB0000011200201880988098715A801881BDE831
:10BB10003088074B1A6814EB020B45F1000C5A46AB
:10BB20006346FCF7AFFA0120BDE830886062002070
:10BB3000D4B2002030B403888278C478154DA3F5C0
:10BB4000FA6303F0030101EB4101013A02EB8102C8
:10BB50009B0835F812500279611E40F2B55404FB7F
:10BB600003132B4403EB430302EBC30342798479B1
:10BB700009490089C3EB031302EB83032144C3EBA0
:10BB8000031301EB83034FF47A720021C2FB03011C
:10BB900030BC7047A058050880436D382DE9F04748
:10BBA00007468CB01E469246002A5CD115461446C4
:10BBB0000A88B2F5FA6F36D38B78581E0B2832D824
:10BBC00091F803C00CF1FF301E282CD891F804E046
:10BBD000BEF1170F27D891F80590B9F13B0F22D885
:10BBE00088793B281FD8B1F80880B8F57A7F1AD237
:10BBF0004FF001085EBB09890491002CB4BF2D21D0
:10BC00002B21002CB8BF6442CDE90290CDE9051488
:10BC10000795CDE900CE38462A49FFF7B9FE4046E0
:10BC20000CB0BDE8F08700232749ADF828304FF06D
:10BC3000010C18468DF82A30ADF82C3099469E46F6
:10BC40001A4698460991634609A9002ED3D0CDE93A
:10BC50000290CDE900CE38461C49FFF799FE4046D8
:10BC60000CB0BDE8F0871A4C84FB0234A318D4173B
:10BC7000C4EB6314C4EB0415A2EB85052DB2002DB3
:10BC80000846B8BF6D42FFF755FF4FF47A720023A4
:10BC90008046894647F0ECFF3C230AFB030A4FF439
:10BCA0007A7200234046494647F0E2FF4FF47A712A
:10BCB00092B20023C1FB0A2309A8FCF7E3F924B2DE
:10BCC00009A975E7A8D305080000010188D3050874
:10BCD000898888880378202B024600F10100F9D07A
:10BCE000092BF7D02D2B00F0A4802B2B03BF53780A
:10BCF000B7EE000A0246B7EE000AA3F13001C8B25F
:10BD000009289FED577A10D8F2EE046A07EE901AD0
:10BD1000F8EEE77A12F8013FE7EE267AA3F1300158
:10BD2000C8B20928B0EE677AF0D92E2B63D003F0A1
:10BD3000DF03452B02D020EE070A704710B451787C
