:020000040800F2
:10000000F0FF0010F1450508614F0208250F0208B6
:100010009146050891460508914605080000000034
:100020000000000000000000000000006D4F02080A
:10003000694F020800000000654F0208D9E7010877
:100040009146050891460508914605089146050820
:100050009146050891460508B11D0208DD1E0208FB
:10006000A11E0208651E0208291E0208E1050108FA
:10007000D1050108C1050108B10501089D05010868
:10008000890501087505010891460508914605088E
:10009000914605089146050891460508ED1D0208A0
:1000A00005CB0108A1D0010835CA010871D10108AA
:1000B000E1CF010821CF010855CE0108C90B010885
:1000C000D10B0108BD0B0108C50B010891460508BD
:1000D0009146050889EA010891460508EDE90108FD
:1000E000751D020891460508559D020865C901085D
:1000F000D5CB010895C80108B5CC010861050108F8
:10010000914605089146050885CD010891460508E8
:1001100051E90108B5E80108A17901088D790108C4
:100120004D050108390501082505010811050108DB
:10013000FD04010891460508914605089146050809
:10014000914605089146050891460508296A020866
:10015000E9040108D5040108C104010819E80108EF
:10016000B10B0108B90B0108914605089146050835
:1001700091460508914605089146050891460508EF
:080180009146050891460508AF
:08018800984105000100000090
:1001900010020100A8200020A42000200000000080
:1001A000300700081F021000BC200020AC200020F7
:1001B00000000000458500080702020058460020A4
:1001C000804600200000000034070008F6210C00E3
:1001D0003046002084460020000000003807000858
:1001E00002000C0024460020904600200000000081
:1001F0000000000006020C00184600209C4600206B
:10020000000000008992000808120F0068450020D5
:10021000A84600200000000001850008F701060044
:100220005C450020B846002000000000440700089C
:100230000A020A0010430020C0460020000000000F
:10024000BD1701080300010008430020CC46002030
:1002500000000000000000000312330024450020CD
:10026000D0460020000000004A07000825102C019D
:10027000444300200447002000000000000000006C
:100280001A023C002C490020F04B00200000000026
:10029000F991000827000400284900202C4C002078
:1002A000000000007E07000814000300186600200C
:1002B0008466002000000000840700080B3018004E
:1002C00028560020886600200000000088070008EB
:1002D0001F30240040560020A066002000000000CF
:1002E000A007000805020400AC610020C4660020DD
:1002F00000000000C407000803010A008056002027
:10030000C866002000000000C807000813020400AF
:100310005C540020D466002000000000D2070008D2
:1003200020320A00D87F0020CC7F0020000000008F
:10033000C5A602081C021000687B0020E47F002094
:1003400000000000B1830008101002002C7F002084
:10035000F47F002000000000D607000828101000DD
:100360001C7F0020F87F0020000000003DA702084D
:1003700019000500147F0020088000200000000004
:10038000D8070008F82106000C7F0020108000200C
:1003900000000000DE07000801200800AC79002002
:1003A0001880002000000000E40700080A70280000
:1003B000287900202080002000000000E5A6020827
:1003C0000EA07401B47700204880002000000000D7
:1003D000610604080101040018770020BC81002098
:1003E0000000000000000000000104001077002061
:1003F000C081002000000000EC070008020103009B
:100400000C770020C48100200000000009150108BD
:100410000C109C00408D0020289D00200000000052
:10042000DD14010801020500108D0020C49D00208C
:1004300000000000ED92030800020500088D002076
:10044000CC9D002000000000000000001B021000F6
:10045000F48C0020D49D002000000000DD83000803
:100460001E000600608A0020E49D002000000000BD
:10047000F00700081B100C0064850020EC9D002094
:100480000000000085A903082102F000E483002099
:10049000F89D0020000000002195030805100600CB
:1004A000B48F0020E89E002000000000F60700083E
:1004B00037102400908C0020F09E002000000000E7
:1004C000FC0700080E0202009C8F0020149F0020F1
:1004D000000000002008000816100600D883002045
:1004E000189F002000000000220800082F102200A2
:1004F000049D0020209F0020000000002808000824
:1005000023100E00AC890020449F00200000000052
:1005100055A70208F5518C0010830020549F00203D
:100520000000000025DF030826100C00EC9F0020CF
:10053000E09F002000000000418803081A000E0020
:10054000F8A9002020AA0020000000004A080008A6
:1005500015007000A8A5002030AA002000000000AF
:10056000000000002A00600098A90020A0AA002036
:1005700000000000390604082C00100010AB002019
:1005800000AB002000000000290504082B00240017
:1005900044AB002020AB002000000000F904040858
:1005A0002920780098A3002068AB002000000000FC
:1005B000000000000D003C0078D9002024DA002063
:1005C000000000000D3703080902010090D8002048
:1005D00060DA0020000000005808000804008000D5
:1005E00010D8002064DA00200000000000000000A5
:1005F00013000400F0D70020E4DA0020000000001F
:100600005C08000818202E00BCD70020E8DA002083
:10061000000000009993000806101A00BCC50020D5
:1006200018DB002000000000BD060408FB010100EB
:10063000B8C5002034DB002000000000059400084D
:10064000FC01090084C4002038DB00200000000009
:100650001594000816023F0044C4002044DB00202B
:1006600000000000218400083400100074C3002042
:1006700084DB00200000000091060408110208003D
:100680004CC3002094DB002000000000600800083C
:100690001212040044C300209CDB00200000000074
:1006A000680800081220100034C30020A0DB0020DE
:1006B000000000006C080008FD0121006CC0002053
:1006C000B0DB002000000000B9B50108F90104000A
:1006D00018BD0020D4DB00200000000031B6010866
:1006E000FA01020000B70020D8DB00200000000063
:1006F000718600080202030000AC0020DCDB002051
:1007000000000000000000000C020400ECAB002020
:10071000E0DB0020000000002D850008FE01140031
:10072000CCB60020E4DB002000000000F1830008CC
:1007300000000000013C000000000000010000007B
:10074000020200003D010000000000000000000067
:100750000000000000000000000000000000000099
:100760000000000000000000000000000000000089
:100770000000000000000000000000000100200355
:100780000000000003000000AE014A015E012C01E0
:1007900064010200000001000A019A01001E0A0023
:1007A000000000000001000000050000010203003D
:1007B0000000000000000000000000000000000039
:1007C0000080070000000000040101006C1600001A
:1007D00000000000011800050000280100000401CD
:1007E000F4011400E8036400040A00019001000011
:1007F0000000010000002000030100002000320082
:10080000C800D0079600140032002800B00440064B
:100810000005500014000F000800640001000100F2
:100820000000C409000019000000000000000000E2
:1008300000000000000000000000000000000000B8
:10084000000000000000000000007E05EA05B4057D
:100850003200E803D00700002800000008044430FC
:100860000000000001010101FFFFFFFF0000000187
:0C08700000000546574634000008000058
:10087C001A0300000000000000000000000000004F
:10088C000000000000000000000000000403090448
:10089C0012010002000000408304205700020102F4
:1008AC00030100000000200095CE0008CD85000853
:1008BC00C9850008C585000831940008C185000869
:1008CC00BD850008BC60050801510208BD32020854
:1008DC00415C0208000000000000000045590208BD
:1008EC006158020800000000000000000000000039
:1008FC00F52D02086586000859860008D599000870
:10090C00F199000811860008B99900089D99000812
:10091C000068214C1F0000001C0000001F0000009C
:10092C001E0000001F0000001E0000001F00000041
:10093C001F0000001E0000001F0000001E00000031
:10094C001F000000FF01FF00000004010000000078
:10095C000000000210000000070000000000000072
:10096C000000000001020304060708090000803F94
:10097C000000000000000000000000000000803FAC
:10098C00FFFFFFFFFFFFFFFFFF000000B4DB0508C8
:10099C00C0DB0508CCDB0508D8DB0508E4DB050863
:1009AC00F0DB050820FE0508A01F0608841E0608BB
:1009BC00700106088C470608A4DB0508A8DB0508AF
:1009CC00ACDB0508B0DB050894DB050898DB0508F3
:1009DC009CDB0508F41C0608A0DB05081900C80000
:1009EC00F401200394DB050898DB0508FCDB050803
:1009FC009CDB050800DC050804DC0508E31701088E
:100A0C00000000000000000000000000685E0C0008
:100A1C0001000000A00F0000B80B00000102FFFF56
:100A2C00010000000403090412010002EF0201405E
:100A3C00830456320002010203010000120100027D
:100A4C00020200408304405700020102030100002F
:100A5C0009022000010104C032090400000208064A
:100A6C005005070581024000000705010240000007
:100A7C0009026400030100C03209040000010300F4
:100A8C00000009211101000122260007058303083B
:100A9C00000A080B01020202010009040100010214
:100AAC0002010005240010010524010002042402A7
:100ABC00020524060102070582030800FF0904024F
:100ACC0000020A0000000705010240000007058132
:100ADC000240000009024300020100C03209040078
:100AEC00000102020100052400100105240100018F
:100AFC00042402020524060001070582030800FFF6
:100B0C0009040100020A0000000705010240000070
:100B1C000705810240000000FF0000001C7805085A
:100B2C0000000000000000000000000000000000B9
:100B3C0000000000000000000000000000000000A9
:100B4C000000000000FFFF0000000000AA55050196
:100B5C0000000100F0770508000000000000000014
:100B6C000000000000000000000000000000000079
:100B7C00000000000000000000000000FF1FFF1F2D
:100B8C0005010905A101A10005010930093109324E
:100B9C00093309350934094009381581257F750851
:100BAC0095088102C0C0000009022200010100E08A
:100BBC0032090400000103010200092111010001A6
:100BCC002226000705830308000A0000000000002D
:100BDC00010203040102030406070809A55B0208CD
:100BEC00A95A0208015F0208B92E02083134020822
:100BFC00C92E0208E52E0208912E0208812E020849
:100C0C0000000000000000002D202D2D202D2D2D8A
:100C1C002D202D2D2D2D00000000000000000000C7
:100C2C0000000000000000AA550B010000AA5507A7
:100C3C00010000AA550902000000AA5503009F00FC
:100C4C0001000000C01200005866002000000000E7
:100C5C007C6600200000000001000000759E020868
:100C6C00000000004479050820700020702D7200EF
:100C7C00FFFFFFFF000101010001012D202D2D20A0
:100C8C002D2D2D2D202D2D2D0000000000000000FD
:100C9C000000000000000000000000000000000048
:100CAC0000000000288E0508000000000000000075
:100CBC00B48E050801000000FA00000001000000DD
:100CCC0001000000010100007E79002000C8010035
:100CDC007D790020005001007C790020005A010031
:100CEC007A79002002000000A47D050888EF050831
:100CFC0090EF05080EDA00200100C4090000000086
:100D0C000CDA00200100C409000000000ADA0020FF
:100D1C000100C4090000000008DA00200100C40929
:100D2C000000000004DA00200100C40900000000EB
:100D3C0006DA00200100C4090000000002DA0020DD
:100D4C000100C4090000000000DA00200100C40901
:100D5C00000000002E7700200100C80001000000F8
:100D6C002C77002032003075320000002A770020EA
:100D7C00055A05002777002000FF01002977002085
:100D8C00010000000406002025770020020000006E
:100D9C00D89C05082677002000FF0100287700204A
:100DAC00010000000406002024770020020000004F
:100DBC00D89C0508B8790020EE02CA080100000092
:100DCC00B679002000C8010064000000B57900204D
:100DDC0000C8010064000000B4790020020000008B
:100DEC00B07D05081E77002080C1803E0500000004
:100DFC001C77002080C1803E050000001677002083
:100E0C0080C1803E050000001477002080C1803E28
:100E1C00050000000F77002000FF0100087700207C
:100E2C006400F401010000000777002004000000BA
:100E3C00BC7D05080677002002000000D07D050867
:100E4C00A57700200D000000DC7D0508A2770020AE
:100E5C0000640100A0770020320010270A00000077
:100E6C009F7700200D000000DC7D05089E77002098
:100E7C000D000000DC7D05089D77002002000000BD
:100E8C00147E05080000000000000000207E05080C
:100E9C00646100209CFF2C0100000000187C0020E5
:100EAC00E0150C1700000000B67A002002000000CC
:100EBC00587E0508C47900200100FF7F0100000066
:100ECC00C379002002000000647E0508A77700208B
:100EDC0003000000747E0508A677002003000000C4
:100EEC00747E05085C7900200000E8030100000016
:100EFC005A7900200000E803010000005879002016
:100F0C000000E80301000000567900200000E8030F
:100F1C0001000000547900200000E80301000000EB
:100F2C00527900200000E8030100000051790020F4
:100F3C00001401005079002003000000847E050895
:100F4C00687900200000F40101000000667900209F
:100F5C000000F40101000000647900200000F4019D
:100F6C0001000000627900200000F4010100000083
:100F7C00607900200000803E010000005E790020B6
:100F8C000000803E010000009179002019640100EE
:100F9C009079002002000000947E05088E790020D4
:100FAC00E803D0070A0000008C79002000640100DF
:100FBC000A00000081790020006401008079002083
:100FCC000064010088790020006401000A00000020
:100FDC0087790020006401000A0000008679002057
:100FEC00006401000A0000008B79002000640100FD
:100FFC000A0000008A790020006401000A00000049
:10100C0089790020006401000A0000008579002025
:10101C0001FF01000A0000008479002001FF01009B
:10102C000A0000008379002001FF01000A00000083
:10103C00B07700200000F40101000000AE77002022
:10104C000000F40101000000AC7700200000F40166
:10105C0001000000AA7700200000F401010000004C
:10106C00A87700200000F40101000000797900202D
:10107C000064010078790020006401007779002079
:10108C000064010076790020FF08010075790020CA
:10109C000164010055A4020819A40208A07E0508E9
:1010AC007479002000640100727900201400E803B8
:1010BC000100000070790020E80330750A00000080
:1010CC006E79002000C801006D79002000C8010075
:1010DC006C79002000C801006B79002000640100CD
:1010EC000A000000A87900200000D00701000000D1
:1010FC00A379002000C80100A279002000C80100DB
:10110C00A179002000C80100A67900200000D007BA
:10111C0001000000A079002000C801009F79002088
:10112C0000C801009E79002000C80100A4790020AD
:10113C000000D007010000009D79002000C80100CC
:10114C009C79002000C801009B79002000C8010098
:10115C000000000089A10208107F05089B77002081
:10116C0034000000AC7F05089A77002000C801000D
:10117C0098770020E803D00701000000464C59572F
:10118C004F4F463430350000237700200003010018
:10119C002277002000030100E9A00208C1A0020888
:1011AC00808005087DA0020831A00208D4800508C3
:1011BC0011A1020825B002085481050820770020EF
:1011CC0001030100B5A5020889A502084884050899
:1011DC00C19F0208819F0208AC8405089FA10208E8
:1011EC00C1C70208488505089DBD02080000000023
:1011FC00F08505080DB4020815A602088C860508B2
:10120C00F1A10208000000000C870508C9A2020821
:10121C0075A202087087050859A302081DA30208CD
:10122C000C88050891A40208D9A402088C8805082A
:10123C007F7900200106010039A2020805A20208EC
:10124C008889050895A3020889B00208F889050861
:10125C000DA502080DB10208D88A05086A7900208C
:10126C000103010059A1020829A10208AC8B050851
:10127C00E1A5020800000000108C050801A002087E
:10128C00F5AF0208748C0508000000000000000097
:10129C00008D050861A5020885B10208808D05083E
:1012AC000277002088136F170100000004770020DC
:1012BC0088136F1700000000DE56002000000000AD
:1012CC0000000000DC5600200000000000000000C0
:1012DC00DA5600200000000000000000D856002064
:1012EC000000000000000000D656002000000000A6
:1012FC0000000000D4560020000000000000000098
:10130C005C0500200000000000000000D8760020E2
:10131C0002000000088F05080077002088136F1763
:10132C0001000000A461002088136F17000000006A
:10133C00159F020800000000148F0508C17A0020D8
:10134C0001000000688F0508A66100200100000064
:10135C00748F05089C610020020000007C8F05083A
:10136C000000000000000000888F0508019F0208A3
:10137C0000000000249005080000000000000000A0
:10138C00789005080000000000000000E8900508B7
:10139C00A0610020E0150C17000000000000000008
:1013AC00008300200800000000000000F0820020F4
:1013BC00080000001534020801330208DD5E020843
:1013CC00000000007D2E0208955A020851320208D6
:1013DC000D5A02080000000000000000392E02081F
:1013EC00CD2D0208C12D0208115002082D50020803
:1013FC00F54F0208D94F0208BD4F0208CD33020841
:10140C00DD3202081D5E020800000000512E0208A9
:10141C00115A0208253202086D590208000000001A
:10142C0000000000452E0208010000000000010031
:10143C00E0010000FFFFFFFFFFFF0801FF000000BD
:10144C00D60101000000803F0000000000000000F9
:10145C00000000000000803F0000000000000000C1
:10146C000000000000000000000000000000000070
:10147C000000000000000000000000000000803FA1
:10148C00000000000000000000000000010000004F
:10149C0008000000BD2D0208B92D0208B52D020868
:1014AC00A92D0208A52D0208B12D0208AD2D0208A8
:1014BC0001000000006002401060024000000000CB
:1014CC0000000000000B0000000000000000000005
:1014DC000000000000600240286002400100000093
:1014EC0000000000060C00000000000000000000DE
:1014FC00000000000060024040600240020000005A
:10150C0000000000100D00000000000000000000B2
:10151C000000000000600240586002400300000020
:10152C0000000000160E000000000000000000008B
:10153C0000000000006002407060024004000000E7
:10154C0000000000200F0000000000000000000060
:10155C0000000000006002408860024005000000AE
:10156C000000000026100000000000000000000039
:10157C000000000000600240A06002400600000075
:10158C00000000003011000000000000000000000E
:10159C000000000000600240B8600240070000003C
:1015AC0000000000362F00000000000000000000CA
:1015BC0000000000006402401064024000000000C3
:1015CC0000000000003800000000000000000000D7
:1015DC00000000000064024028640240010000008A
:1015EC0000000000063900000000000000000000B0
:1015FC000000000000640240406402400200000051
:10160C0000000000103A0000000000000000000084
:10161C000000000000640240586402400300000017
:10162C0000000000163B000000000000000000005D
:10163C0000000000006402407064024004000000DE
:10164C0000000000203C0000000000000000000032
:10165C0000000000006402408864024005000000A5
:10166C000000000026440000000000000000000004
:10167C000000000000640240A0640240060000006C
:10168C0000000000304500000000000000000000D9
:10169C000000000000640240B86402400700000033
:1016AC0000000000364600000000000000000000B2
:1016BC000000000090090608400906080000000020
:1016CC00D5340308A08601000400000000000000CF
:1016DC0000000000000000000000000000000000FE
:1016EC0000000000000000000000000000000000EE
:1016FC000000000090090608980906080000000088
:10170C0055B40108E80300000400000000000000CC
:10171C0000000000000000000000000000000000BD
:10172C0000000000000000000000000000000000AD
:10173C0000000000DCF50508A00906080000000008
:10174C00D12501087D00000006000000000000000B
:10175C00000000000000000000000000000000007D
:10176C00000000000000000000000000000000006D
:10177C0000000000A809060800000000000000009E
:10178C0055DD0108E8030000030000000000000024
:10179C00000000000000000000000000000000003D
:1017AC00000000000000000000000000000000002D
:1017BC0000000000AC09060800000000000000005A
:1017CC00196F04081027000003000000000000003F
:1017DC0000000000000000000000000000000000FD
:1017EC0000000000000000000000000000000000ED
:1017FC0000000000A04306080000000005010408DA
:10180C00890F02085F760000050000000000000050
:10181C0000000000000000000000000000000000BC
:10182C0000000000000000000000000000000000AC
:10183C00000000002C46060800000000000000001C
:10184C0055240208102700000100000000000000D1
:10185C00000000000000000000000000000000007C
:10186C00000000000000000000000000000000006C
:10187C0000000000B809060800000000000000008D
:10188C0059B40108E8030000050000000000000046
:10189C00000000000000000000000000000000003C
:1018AC00000000000000000000000000000000002C
:1018BC0000000000C4090608000000000000000041
:1018CC001D3B0308204E0000030000000000000038
:1018DC0000000000000000000000000000000000FC
:1018EC0000000000000000000000000000000000EC
:1018FC0000000000D40906080000000000000000F1
:10190C0011350308204E0000030000000000000009
:10191C0000000000000000000000000000000000BB
:10192C0000000000000000000000000000000000AB
:10193C0000000000E40906080000000000000000A0
:10194C0071BF0108400D03000300000000000000FF
:10195C00000000000000000000000000000000007B
:10196C00000000000000000000000000000000006B
:10197C00000000004000060800000000000000000D
:10198C00D55D0308102700000100000000000000D6
:10199C00000000000000000000000000000000003B
:1019AC00000000000000000000000000000000002B
:1019BC00000000008806060800000000000000007F
:1019CC00E9B4030810270000030000000000000029
:1019DC0000000000000000000000000000000000FB
:1019EC0000000000000000000000000000000000EB
:1019FC0000000000F40906080000000000000000D0
:101A0C00D92F0308A086010001000000000000008F
:101A1C0000000000000000000000000000000000BA
:101A2C0000000000000000000000000000000000AA
:101A3C0000000000FC090608000000000000000087
:101A4C0015B9010850C3000001000000000000009F
:101A5C00000000000000000000000000000000007A
:101A6C00000000000000000000000000000000006A
:101A7C0000000000D0F1050800000000000000008C
:101A8C0041B60108A8610000010000000000000040
:101A9C00000000000000000000000000000000003A
:101AAC00000000000000000000000000000000002A
:101ABC0000000000040A06080000000000000000FE
:101ACC0071F00308A0860100010000000000000076
:101ADC0000000000000000000000000000000000FA
:101AEC0000000000000000000000000000000000EA
:101AFC000000000068000608000000000000000064
:101B0C00D9EB0108A00F000001000000000000004C
:101B1C0000000000000000000000000000000000B9
:101B2C0000000000000000000000000000000000A9
:101B3C0000000000100A0608000000000000000071
:101B4C0019E003081027000001000000000000004D
:101B5C000000000000000000000000000000000079
:101B6C000000000000000000000000000000000069
:101B7C000000000020FD050800000000000000002F
:101B8C00D1D303081A41000001000000000000003E
:101B9C000000000000000000000000000000000039
:101BAC000000000000000000000000000000000029
:101BBC000000000090F1050800000000000000008B
:101BCC00E9360208102700000100000000000000A8
:101BDC0000000000000000000000000000000000F9
:101BEC0000000000000000000000000000000000E9
:101BFC00000000004C090608000000000000000076
:101C0C0055CF02081A41000001000000000000003E
:101C1C0000000000000000000000000000000000B8
:101C2C0000000000000000000000000000000000A8
:101C3C00000000001C0A0608000000000000000064
:101C4C00513D0208400D03000000000000000000A0
:101C5C000000000000000000000000000000000078
:101C6C000000000000000000000000000000000068
:101C7C0000000000240A060800000000000000001C
:101C8C0011B40108400D030000000000000000002A
:101C9C000000000000000000000000000000000038
:101CAC000000000000000000000000000000000028
:101CBC00000000002C0A06080000000000000000D4
:101CCC0095EA030850C30000030000000000000068
:101CDC0000000000000000000000000000000000F8
:101CEC0000000000000000000000000000000000E8
:101CFC0000000000380A0608000000000000000088
:101D0C00E93A030840420F00000000000000000008
:101D1C0000000000000000000000000000000000B7
:101D2C0000000000000000000000000000000000A7
:101D3C0000000000440A060800000000000000003B
:101D4C008138030850C300000000000000000000B0
:101D5C000000000000000000000000000000000077
:101D6C000000000000000000000000000000000067
:101D7C00000000000000803F9443060800000802A9
:101D8C00050303009C430608010008020504030038
:101D9C0034DD05080200FE0101100300E4F2050821
:101DAC000300140200030000A443060804001F02F1
:101DBC0001000800AC43060805001F0201010800E1
:081DCC00FFFF0000FFFFFFFF15
:1080000003685A1C02601970704700BF2DE9F047E1
:10801000089C2578002B804689460CBF4FF0200A2B
:108020004FF0300A661C25B3002A26DD334601E0F6
:10803000024698B113F8011B501E0029F8D1971E73
:1080400060B13D46013D51464046C8476B1C002B80
:10805000F8DC257827EAE770013045B1041B294692
:108060004046C847301916F8015B002DF7D1BDE82E
:10807000F087002A03DC2846F9E70020EEE7571EC8
:10808000DFE700BF2DE9F04714461D4606464FF4D2
:108090007A720023204629464CF0DEF84D4BDFF87B
:1080A00048814D4A4D4F034488FB03101844D917AB
:1080B00082FB032CC1EB601088FB002887FB0327A1
:1080C0009C44474AC1EBEC2CC0EB001E82FB0C2900
:1080D000A3EB8E0E1F44434A86F806E0C1EB274708
:1080E0004FEAEC7E08EB000ACEEBA90E82FB07827A
:1080F0004FEAE0780EEB4E0EC8EB6A18ACEBCE0CF4
:10810000C8EB0818DFF8E4E086F804C0A0EB8800AC
:1081100070718EFB0303F817C0EBE21240F2B5500A
:1081200000FB1272C1EBE353B2F5896F4FEA83078C
:108130003CDA40F2DA239A4242DCB2F5B77FB4BFB0
:108140004FF0000E4FF0010E4FEA4E09DFF8A0800D
:1081500009EB0E0308EBC3031FFA8EFCD88A09EB68
:108160000E0108EBC10116310B2301E031F8020DBD
:10817000904218DD013BF9D1CE44012338F83E008E
:10818000B37007F5FA670132121ABC44F270A6F810
:1081900000C0204629464FF47A7200234CF05CF868
:1081A0003281BDE8F0870133DBB2E9E74FF0030C21
:1081B000E64640F29650DFF838804FF00609CEE7E9
:1081C0004FF0020CDFF82880E64640F229404FF0DD
:1081D0000409C4E780BC92C7C5B3A29107452EC26B
:1081E000ABAAAA2A73B06D1689888888792D0311E5
:1081F000885E05080028F0B403DA2D230B70404296
:108200000131092804464FF0010307DD03EB830326
:108210005B00B0FBF3F2092AF8D883B10F48A0FB4A
:108220000326B4FBF3F2092A02F1570C02F13007DE
:1082300009DD03FB1244F30801F801CBEFD1002361
:108240000B70F0BC704703FB1244F30801F8017B8C
:10825000E5D100230B70F0BC704700BFCDCCCCCC77
:10826000884270B44FF0010442D301FB04F4B0FB28
:10827000F4F58D42F9D2ECB142BB092D04FB150097
:1082800005F1570605F130020EDDB4FBF1F403F8F9
:10829000016B7CB1B0FBF4F5092D04FB150005F171
:1082A000570605F13002F0DCB4FBF1F403F8012BC2
:1082B000002CEFD100221A7070BC704703F8016BDC
:1082C000B4FBF1F4002CF5D0B0FBF4F5092D04FB60
:1082D000150005F1370605F13002EFDCB4FBF1F4CF
:1082E00003F8012B002CEFD100221A7070BC7047EC
:1082F0000546002AEAD1C0E790ED057A90ED004AE4
:10830000D0ED066AD0ED014AD0ED047A90ED035A23
:10831000D0ED025AA4EE007AB0EE406AB0EE470A01
:10832000B0EE667AA4EE867A67EEC07AA5EE407A61
:10833000E5EE867A80ED057AC0ED067A704700BFDB
:10834000D0ED057A90ED013AD0ED003AD0ED064A35
:1083500090ED024A90ED077A90ED035A90ED086A8D
:10836000D0ED045AC0ED067AF0EE406A27EE830A9B
:10837000C0ED056AA3EEA60A80ED087AA4EE240AF1
:10838000A5EE470AA5EEC60A80ED070A704700BFB2
:10839000D0ED007A90ED017A30EE670AE7EE007AD0
:1083A000B0EE670AC0ED007A704700BF704700BFAB
:1083B00030B434220023352504240221C270012266
:1083C0008571C4710370C3728373C373417041724A
:1083D00082700272827230BC704700BF0023062197
:1083E0004FF47A720170C0E901230373704700BF34
:1083F00030B43323322231254FF47F44FF214370C0
:10840000427101230022C5700482817403720370DB
:108410000371837042818281C28130BC704700BF8A
:108420002DE9F04F3149324B83B001F5B07B01901B
:1084300028274FF000092F481022012603E02030A2
:1084400098420BD002799742F9D102680C68A24297
:1084500009D02030984206F10106F3D12031594568
:108460003AD00F79E7E744794D79A542F1D19446A6
:10847000019A214809EB490502EB050A57558AF88C
:10848000016000F572751D4E624603E0A8421AD0E5
:1084900050F82C6FB242F9D10679A642F6D1CF68D6
:1084A00006464FF0000C96468046F268BA4216D057
:1084B0000CF1010CBCF1030F06F10C06F5D140469E
:1084C000A8427246E4D14FF0FF3C203159458AF86A
:1084D00002C009F10109C4D103B0BDE8F08F0869F9
:1084E00032698242E4D14FFA8CFCEEE744A10508E0
:1084F00034AD050874A3050834AD0508000001403B
:1085000030B41522162317253A243B2102704370FC
:108510003C22FF2385708472C1720273C3700371A1
:10852000037243724373837330BC704710B42E21BF
:10853000012403220023047041708270C3705DF82F
:10854000044B704770B4034600F11001FF221A700B
:108550005A7002338B42FAD10E4B00224FF0FF319A
:1085600003F10C0600EB42050C469E4200F8124057
:1085700069700CD093F9044093F9051013F8032F98
:1085800000EB42059E4200F812406970F2D170BCC7
:10859000704700BFE85E050830B41D6995420AD3F4
:1085A00014460A4621448D42996938BF2A1B21444A
:1085B00030BC4CF0EFB830BC704700BF00207047B3
:1085C0000120704701207047002070474FF4007071
:1085D000024B10609B680B600020704720BD00209C
:1085E000013A30B4D2B28C1C04EB42040025020FD5
:1085F000092AD3B203F130028ABF37330A700B70F5
:108600004D7002318C424FEA0010F0D130BC7047FF
:108610000B4A0C4B10681B681A22C0180A8001D143
:108620000948704710B5094B09491C680822FFF733
:10863000D7FF204604220749FFF7D2FF024810BDAA
:10864000E8F7FF1FECF7FF1F88010020EAF7FF1F84
:108650008A0100209A01002004230B800048704703
:10866000A401002012230B8000487047A8010020BD
:108670002322032302704370704700BF0830704705
:10868000704700BF816170474FF4006303837047F8
:108690004FF4006303837047012380F85030704724
:1086A0006D4B2DE9F04F1C686C4BB3F80AE0B3F842
:1086B00004809A894FEA0E2AB4EB0A044FEA1E6B33
:1086C0004FF0000587B065EB0B05CDE90045074687
:1086D000009C1889019EA0FB044500FB0655E0099B
:1086E00040EA45604FEA08448C46E9114FEA1845D4
:1086F00010EB0408D888009C41EB0509CDE90489FA
:10870000A0FB0445B3F8028000FB0655200A40EAAE
:1087100005604FEAC83429124FEA584510EB0408A7
:1087200041EB05090099A2FB010102FB06114FEA8A
:10873000D05A4AEA412A1AF5FA634FEAE15B4BF153
:108740000004B3F5FA6FCDE9023474F10003424E30
:1087500064DA0524AAFB040104FB0B1100FB0BF4F3
:108760000AFB0144DDE90423A0FB0A0121444D106A
:108770004FEA3004121B4FEA900463EB050344EA0E
:108780008174B8EB0408CDE90423DDE902343448F0
:108790004FEAA10569EB05094FF0FF31834274EB05
:1087A000010326DA40F6AC501AEB00024FF000014C
:1087B0004BEB010302FB03F1A2FB022303EB41039A
:1087C000D400DD00101B45EA527563EB0501DDE9BD
:1087D000044524184D41CDE904450B24A2FB0401B6
:1087E00004FB031149104FEA3000B8EB000869EBB5
:1087F0000109DDE900325343009ADDE90201A2FBE1
:1088000002AB0BEB430B4FEADA7242EA4B02801ADF
:108810004FEAEB7361EB0301CDE9020197B1716897
:10882000A1FB082301FB0933540D5D1544EAC32461
:10883000DDE90423A21A65EB03031D46D30B43EACB
:1088400045433B60BCF1000F02D0029BCCF80030E6
:1088500007B0BDE8F08F00BFE01600205C7F00206D
:1088600024FAFFFF2DE9F04FDFF8DCC1754CDCF88E
:1088700008502288B4F90AA0C2EB25135200C2EBBB
:10888000E502B4F902505B436A43B4F904501B1388
:108890005D43AD1305EBE225B5F5FA324FEAE57B12
:1088A00085B04BF1FF33CDE90023DDE900325343BE
:1088B000009AA561A2FB0289CDE90201B4F9082062
:1088C0000199009809EB43095143D31700FB0311A9
:1088D000A2FB00230B444FEAEA7B0AFB09F11F03CA
:1088E00008FB0B13AAFB080119444FEA102A4AEAB5
:1088F000016A16034FEA212B47EA12571AEB0602C8
:10890000E6884BEB070312F1000A43F5004BAAFB84
:10891000060106FB0B114A10CB1752EA030100F0C7
:108920008E80B4F91060009806FB09F1F71708FB78
:108930000711A6FB08673944B4F90E808B460199EC
:108940004FEAE87908FB01F100FB0911A8FB008957
:108950008944DCF80C104FEA4947C1F5801C47EA0E
:10896000D837B2464FEA4846B4F90C801AEB060AEB
:1089700066464BEB070BF7174FEAC8060196002631
:108980000096F907DDE900674FEACC7016EB0A069E
:1089900047EB0B0741EA5C01801B61EB070140F6E6
:1089A000354C8946A0FB0C010CFB09114BF054FC23
:1089B000B4F91620B4F914A04E13470B47EAC14787
:1089C00002FB06FCD31707FB03CCA2FB072363447F
:1089D000564307FB0366A2FB07233344560E46EAC1
:1089E000C31632184FEA636747EB010380460AFB60
:1089F00001F14FEAEA7B08FB0B17AAFB0801394497
:108A0000C60C46EA413612EB06084FEAE147B4F9D4
:108A1000122043EB07094FEA182141EA09611301CB
:108A20000B44029A0AB11B0A1360039B23B105EBA6
:108A3000850580352D121D6005B0BDE8F08F00233F
:108A4000EFE700BF707F0020E016002070477047FE
:108A5000F0B4037C456902681F2B37D9203B2021E5
:108A6000546899400C4223D010249C40D160D460BB
:108A70005168D940CE074ED4EFF31183502282F3D0
:108A80001288EA6B1168C90709D45468002C52D1C6
:108A9000D5E909618E4243D1012285F86020DBB21D
:108AA00083F31188037C02681F2B194614D9203BDD
:108AB000082150689940084200D0D16004215068D4
:108AC00001FA03F3184223D1F0BC70472024166842
:108AD0009C4026420FD11946082310688B4018424B
:108AE00000D093600423106803FA01F10842EBD030
:108AF0009160F0BC704710219940946091601168BA
:108B0000D940CC07B8D5012101FA03F39360B3E74C
:108B1000D360F0BC7047012101FA03F3D360ABE7E7
:108B2000AF690F44D7600ED82E69711A5160AC62DC
:108B3000002185F86010116841F00101DBB211607D
:108B400083F31188AEE7711A5160AE62F0E700BF9F
:108B50002DE9F843AE4DAF4C2A7823789A4240F085
:108B60002D81AD4B1A78002A00F08D80AB4B1E781A
:108B7000AB4B002E40F089801968B3F830714E621B
:108B80008889012A40EA07008881A3F8306157D01C
:108B9000D3F83411B3F864724E628889022A40EA2D
:108BA00007008881A3F864624AD0D3F86812B3F84A
:108BB00098734E628889032A40EA07008881A3F8E7
:108BC00098633DD0D3F89C13B3F8CC744E62888977
:108BD000042A40EA07008881A3F8CC6430D0D3F897
:108BE000D014B3F800764E628889052A40EA07005F
:108BF0008881A3F8006623D0D3F80416B3F834773D
:108C00004E628889062A40EA07008881A3F8346703
:108C100016D0D3F83817B3F868784E628889072AD7
:108C200040EA07008881A3F8686809D0D3F86C2867
:108C3000B3F89C095662918901439181A3F89C691C
:108C400095F800E023789E451DD0764F9C469B000A
:108C500063449B00FD18FB58ABB92B7A9BB96A7A29
:108C60008AB90CF1010303F00303D9B28E452170D8
:108C700009D003EB83039C003B191A7215F036FCF4
:108C80006B6803443B51BDE8F8835E6819897160E5
:108C90003768186847F0010740F20D313760A0F8D7
:108CA00048108689012A46F480768681C8D0D3F898
:108CB0003861B3F83C71D3F834017760376847F016
:108CC00001073760A0F848108689022A46F48076AA
:108CD0008681B5D0D3F86C62B3F87072D3F86802AD
:108CE0007760376847F001073760A0F84810868939
:108CF000032A46F480768681A2D0D3F8A063B3F825
:108D0000A473D3F89C037760376847F00107376096
:108D1000A0F848108689042A46F4807686818FD090
:108D2000D3F8D464B3F8D874D3F8D0047760376834
:108D300047F001073760A0F848108689052A46F4F5
:108D4000807686813FF47CAFD3F80866B3F80C7662
:108D5000D3F804067760376847F001073760A0F85A
:108D600048108689062A46F4807686813FF468AFEB
:108D7000D3F83C67B3F84077D3F8380777603768A3
:108D800047F001073760A0F848108689072A46F4A3
:108D9000807686813FF454AFD3F87028B3F8740816
:108DA000D3F86C385060106840F001001060A3F8F0
:108DB00048109A8942F480729A8141E7804615F002
:108DC00095FB94F800C095F800E0F4452ED04FEAEA
:108DD0008C03144F03EB0C0207EB8202167A46B3A6
:108DE000B8F1000F3ED010490022B1F808900132CE
:108DF000B9F1000F18BF0026904501F58471F4D138
:108E000086BB054A1278002A3FF422AFAEE600BFC7
:108E1000E8D80020E9D800203432001030320010A9
:108E200018CE0020ECD80020D8C50020154F4FEAFE
:108E30008C0363449B00F918FA58821A002AFFF643
:108E400022AF4A7A3AB1013AD2B24A72AAB100F5D7
:108E50007A70F85000E0FA500B4B1A78002A7FF431
:108E600085AEEDE603EB0C02920000F51C50B9183C
:108E70001030B85000220A72C3E74A681044F85014
:108E8000EAE700BFECD800203432001010B5027CB5
:108E900001681F2A4FF020030ED94C68203A9340F6
:108EA0001C4208D00B4A406800241470026822F06B
:108EB00001020260CB6010BD0C6893401C42FAD0E6
:108EC000044A406800241470026822F00102026023
:108ED0008B60F0E7CB8F00202DE9F041C400231810
:108EE0009B00B749CA585268958AADB2EFB2FE07E7
:108EF0000B4461D4BE0737D5BFF35F8F1D7EEDB243
:108F0000012D00F0BB80AF4E138BBFF35F8F231892
:108F100001EB83031D7E022D00F0CE80231801EBB0
:108F200083031D7E032D05D19B7E1BB1737C002B1B
:108F300040F01A81938896F910C043F480639380BF
:108F4000231801EB83031B7E013363450AD1B37CF5
:108F500000257574002B40F08A80204401EB8000CE
:108F600000234375BDE8F081964E17F0040F96F983
:108F700010C04DD117F0400700F0B280178A1D6A6B
:108F8000FFB205F80C705FFA8CF56F1C93F818E0CF
:108F90007BB2DF1CBE4533749C4600F00981271864
:108FA00001EB87073F7EBB42CAD105F1020C4FFAA5
:108FB0008CFC86F810C0C3E71588824E25F4006546
:108FC0002D042D0C1580158845F4806515809D7E37
:108FD00000273774002D3DD0757C002D37D0231825
:108FE00001EB830301251B7E7574022B03D11388CB
:108FF00043F400631380231801EB83039B7D43F04C
:1090000001031382204401EB8000037EBDE8F08160
:109010009F7E757C4FF0010E86F812E0002F5CD029
:10902000002D78D1231801EB83035B7E002B00F029
:10903000A48013880CF1010C4FFA8CFC43F40073EC
:1090400086F810C013801388DF05FCD478E7DB7D39
:10905000FF2BC4D0231801EB83039D7D05F0FE0593
:109060001582DB7DFF2BCDD0FF233374CAE79388B5
:1090700023F440731B041B0C93806EE79B7E514EC0
:10908000002B3FF441AF737C002B3FF43DAF1388BE
:1090900023F480631B041B0C1380BFF35F8F138BBF
:1090A0001388B57443F400731380938896F910C045
:1090B00043F48063938043E79B7E002B3FF42EAF05
:1090C000737C002B3FF42AAF138896F910C023F469
:1090D00080631B041B0C138016E0002DA2D0A8E7B0
:1090E0002D067FF52DAFBCF1FF3F6DD0DD6915F882
:1090F0000C5015820CF1010C1D7E4FFA8CF39D4231
:109100009C4633747FF41CAF938823F480631B0464
:109110001B0C938014E71F7ED3F820805FFA8CF538
:10912000AE44022F4FFA8EFE17882DD927F48067A0
:109130003F043F0C1780178AFFB208F80C7017889D
:10914000D3F820C047F400731380138ADBB20CF805
:109150000E30938805F1020C4FFA8CFC43F48063C7
:1091600086F810C093806EE7938896F910C023F4B8
:1091700080631B041B0C9380E2E61388012543F4F3
:109180008073138075745EE747F400771780178A41
:10919000FFB208F80C70178AD3F8208005F1030C91
:1091A0004FFA8CFCFBB286F810C008F80E304AE784
:1091B000978827F480673F043F0C9780EFE600BF55
:1091C000AC450020E0160020DD7D15829D7E3774C1
:1091D0001DB91B7E002B7FF415AF938823F48063A9
:1091E0001B041B0C93800DE748F0F8BA014B18687C
:1091F00015F0EEBC9C4B002038B51D4B1B78044687
:1092000000F1250593B104221A4920304CF026FEC6
:109210002846142218494CF021FE012384F83A30E4
:10922000164B1B7873B984F83B3038BD284614229E
:1092300013494CF013FE012384F83A300F4B1B788E
:10924000002BF0D00F4B186859689A68DD68E5600C
:1092500020606160A260DD69186959699A69A2613C
:109260000123E5612061616184F83B3038BD00BFB6
:10927000ED820020BC820020A4820020EE8200202B
:10928000D8D90508C482002010B42921282401223D
:109290000023047041708270C3705DF8044B704706
:1092A0002DE9F84FDDE90A6489461746002120229E
:1092B000984605464CF094FD5EB1D6E900327189BE
:1092C000EB81C3F30F432B82C2F30F43EA822B835C
:1092D000698248464AF0CAFA17F0100B10D1431EB3
:1092E00070B119F803202E2A18BF09EB030104D12D
:1092F0004AE011F8016D2E2E3ED013F1FF33F8D263
:1093000008280246CA46A8BF08224FF0000B4FF0BB
:1093100020336B602B60C5F807304946284605F1BD
:1093200008064BF037FA5A46514630464BF032FAAF
:109330006B1EE81D13F8012FA2F1610119299CBFD2
:10934000203A1A708342F5D105F10B0116F8013B62
:10935000A3F16102192A9CBF203B06F8013CB142EF
:10936000F4D11823C8F30F42EF722B73A5F81A80BB
:10937000AA82EC61BDE8F88FC01A00F1FF3BBBF197
:10938000030FA8BF4FF0030B082B03F1010AA8BF7E
:109390000823CA441A46BAE738B52E2200214CF0F9
:1093A0001FFD034640F2DC51642040F21A4240F2B5
:1093B000022418745982132019219A8240F27532BE
:1093C00040F26C751C8398760E240A201977DA8394
:1093D00002210122DD8283F82D0040F64305197237
:1093E00083F82C1083F822409A7383F8252083F8A1
:1093F0002B201D8419460248BDE8384038F06CB86F
:10940000E4D9050810B500210446012014F0F0F855
:10941000207010BD38B500240472451EE1B2022050
:1094200014F0E6F80134082C05F8010FF6D138BD28
:109430002DE9F04F002087B00C461D4601219246D1
:1094400017F056FD002D63D005EB0A03DFF8D0942A
:10945000DFF8D0B4039355461CE0002D00F0C58121
:10946000D9F81430AB4264D0D9F81030AB4200F0D8
:109470009780D9E90631AB4252D8A94200F26F81F8
:10948000691A204641F012FF039B01359D4204F505
:1094900000743DD0D9F82060AE42DED8D9F83080D3
:1094A000AE1B4FEAD60AD8F830300AF1020A9A45C4
:1094B00006F0070603D3D8F838309A4509D9414653
:1094C000504641F0C3FE8046002800F04D81C9F8A7
:1094D000300098F80430002B40F0E280D8F8287073
:1094E000002F00F0DF81D8F83030D8F80C20AAEB3C
:1094F000030A06EBCA0A4346204602EB4A224FF40F
:109500000071B847039B01359D4204F50074C1D139
:109510000021084617F0ECFC002007B0BDE8F08FF2
:10952000A942ADD94FF40072002120464CF058FCFE
:10953000AAE7522261204123002622706270A070A7
:10954000722284F8E70184F8E631D9F82800E37044
:109550004FF0FF33314684F8E42184F8E521C4F864
:10956000E8014FF4F07284F8EC3184F8ED3184F8BE
:10957000EE3184F8EF31201D4CF032FC55216FF0B4
:109580005502C4F8F061C4F8F461C4F8F86184F8D5
:10959000FC6184F8FD6184F8FE1184F8FF2173E713
:1095A0004FF40072002120464CF01AFCD44BD54FEA
:1095B00003CBEB23022223704FF0080C9026F823F4
:1095C0004FF0580EC4F80300227484F80DC0C4F89C
:1095D000071084F801E0A6706375D9F81010D9F867
:1095E0000830D9F81C602273591A21624FF0FF31FC
:1095F00000233F20A1763E21A273E372E3736374DC
:10960000A374E3742375A375E3756376E3766377D8
:10961000A377E3772076217784F82C2007CFD9F839
:10962000187084F82830F61B84F8293084F82A3022
:1096300084F82B3084F82D3084F82E3084F82F30C5
:1096400084F8313084F8323084F833308023666215
:10965000C4F8470004F1470684F8403029209423D9
:10966000A94F84F846C084F8420084F843300E20A5
:109670000D234FF0010C84F8440084F8453084F841
:1096800030C0716003CF33465527AA269A60C4F8CC
:109690005200C4F8561084F8FE7184F8FF61F3E6B6
:1096A0004FF40072002120464CF09AFBD8F840306D
:1096B000002E61D104F12007002B77D0D8F830308C
:1096C00092491122CDE900662046FFF7E9FDD8F85E
:1096D00040301A6C04F1400A002A79D01B6B8C4987
:1096E000CDE9006638461122FFF7DAFDD8F844606C
:1096F000002E3FF4C9AE4FF4E078CDE904450CE00C
:109700000024CDE900C4FFF7CBFDB66CBA46A8F142
:1097100020080EB3B8F11F0F1ED93468356B96F8C8
:1097200004E011222B46214650460AF1200706F19B
:109730001C0CBEF1000FE3D172793369019342F042
:1097400021022B46CDF800C0FFF7AAFDB66CBA4641
:10975000A8F12008002EDDD1DDE9044594E6E91AE0
:10976000204641F0A3FD8FE6231F04F5FE7243F867
:1097700004BF9A42FBD187E6002BD8F844200CBFE7
:1097800001230223C3EB0613002A3FF47DAE966C3F
:10979000013B002E3FF478AE013BB66CF9D1002EB0
:1097A0003FF472AEA2464FF40078A6E7CDE900661A
:1097B0003346D9F80C1008222046FFF771FDD8F87F
:1097C0004460002E3FF460AEBA464FF4F07894E760
:1097D000CDE900663346384611224D49FFF760FD5A
:1097E000D8F84460002E86D14EE64FF40072294628
:1097F00020464CF0F5FA80220C2384F8BE2184F830
:10980000C231D9F81000434BD9F8086084F8B85138
:1098100083FB0032C117C1EB2232B2F5806F84F8AE
:10982000B95184F8BA5184F8BB5184F8BC5184F81A
:10983000BD51C4F8C601C4F8CA6142DBFF2384F8F5
:10984000BF3184F8C13184F8C031324B711E83FBC3
:109850000132CE17C6EB2232B2F5806F29DA2E4BD9
:1098600084F8C52183FB01030B442C48C6EB63132A
:10987000C3EB831680FB0370891B1844DE1792101C
:1098800022F03F020131C6EBE0100A43034484F8A2
:10989000C42184F8C3315522AA2384F8FE2184F818
:1098A000FF31F1E539464FF4007220464CF098FA4A
:1098B000EAE5FF2384F8C33184F8C53184F8C43164
:1098C000E9E7154B84F8C12183FB00730344134F70
:1098D000C1EB631387FB0317C3EB831C9110A0EB51
:1098E0000C02F818DF1721F03F010132C7EBE0103E
:1098F0000A43034484F8C02184F8BF31A5E700BFC0
:10990000F8D9050804DA050814DA0508F0D90508BD
:10991000F4D90508975545418320088281808080CD
:1099200020BD0020DEADBEEF08B501201CF034FEE6
:10993000174A936803F00C03042B1ED0082B18D190
:1099400051685368490203F03F0319D45268114823
:10995000B0FBF3F0C2F3881300FB03F00C4B0E4A8C
:109960005B68C3F3014301335B00B0FBF3F01060AD
:1099700008BD094B074A1A6008BD074B186008BDAF
:10998000B0FBF3F05368C3F3881300FB03F0E5E783
:10999000003802400024F40008AC002010B5044C4C
:1099A00004480A4621461BF0E3FA204610BD00BFDA
:1099B000F416002020DA050810B5044C04480A46C5
:1099C00021461BF0D5FA204610BD00BFF41600203A
:1099D00030DA050810B5044C04480A4621461BF04D
:1099E000C7FA204610BD00BFF41600203CDA050877
:1099F0000A4608B5054920B105481BF0B9FA0348E5
:109A000008BD04481BF0B4FA004808BDF416002055
:109A100068DA050850DA050808B5838940F2E933A9
:109A200000E0A3B10289013B12F0020F9BB2F8D013
:109A300089B2818140F2E93300E043B10289013B00
:109A400012F0010F9BB2F8D08089C0B208BD18F0A7
:109A5000EBFBC0B208BD00BFF0B5876983B0064616
:109A600017B13B68BA885A837069DFF8A8E0838928
:109A7000C3244FF47A734FF0060C6D464FF6FF7116
:109A80000EF1010E03E0013B9BB28B4220D0028914
:109A90009207F8D5A3B283814FF47A7302E0A3B2A0
:109AA0008B4215D00289D20703F1FF34F7D58289A2
:109AB00092B20DB12A700135BCF1000F0BD00CF140
:109AC000FF3CFF24BEF1000FE1D09EF80040D7E735
:109AD00018F0AAFBB76917B13B68BA881A839DF8DA
:109AE00005009DF801509DF802109DF803409DF877
:109AF00004209DF8063041EA052143EA002342EAAA
:109B000004220120A6F85010A6F85220A6F85430DE
:109B100003B0F0BDF85E05082DE9F04F87B0A94A03
:109B200002904068038823F040031B041B0C038051
:109B3000038823F038031B0490424FEA134300F0DC
:109B40003F8102F5806290420CBF302238221343DD
:109B50000380029B02889B6842F04002028013B19E
:109B60001A689B885383838940F2E93302E0002B13
:109B700000F090810289013B12F0020F9BB2F6D0F7
:109B80006B23838140F2E93302E0002B00F08281F5
:109B90000289013B12F0010F9BB2F6D083898389C1
:109BA00040F2E93302E0002B00F071810289013BB1
:109BB00012F0020F9BB2F6D08023838140F2E9338A
:109BC00002E0002B00F063810289013B12F0010FDB
:109BD0009BB2F6D08389029B9B6813B11A689B885D
:109BE00013830623784CDFF8EC81DFF8ECA1774D86
:109BF000774E04939623DFF8E4C101934FF0100EE3
:109C0000DAF80430C3F30803002B40F0B280EFF31E
:109C10001183002B40F0AD802068AA682368984229
:109C2000FAD133689A42F7D8D8F800704FF47A71B5
:109C300001FB07F39B1AB3FBF7F301FB00304FF472
:109C40007A774FF00109DAF80430C3F30803002BE8
:109C500070D1EFF31183002B6CD12368A9682268BF
:109C60009342FAD132689142F7D8D8F8002007FB26
:109C700002FBABEB0101B1FBF2F107FB03131B1A73
:109C8000B3F57A7FDFD3019B013B0193B8D1029BEF
:109C90009B6813B11A689B885383029B586840F2F3
:109CA000E933828902E0002B00F085800289013BC4
:109CB00012F0020F9BB2F6D0F523838140F2E93314
:109CC00001E0002B77D00289013B12F0010F9BB21B
:109CD000F7D08389838940F2E93301E0002B67D014
:109CE0000289013B12F0020F9BB2F7D0FF23838160
:109CF00040F2E93301E0002B5AD00289013B12F017
:109D0000010F9BB2F7D08389DBB20393029B9A6861
:109D100012B1136891881983039B682B60D0049B50
:109D2000013B13F0FF0304937FF464AF184607B0C0
:109D3000BDE8F08FEFF311818EF31288D5F808B0EB
:109D40002B68DB0344BFCCF80090D5F808B023683B
:109D5000DCF80020C9B281F31188D8F80010134450
:109D600007FB01F2A2EB0B02B2FBF1F207FB0323AC
:109D700085E7EFF311838EF31288AF682A68D20368
:109D800003D50122CCF80020AF682068DCF80090F1
:109D9000DBB283F31188D8F800104FF47A7248448C
:109DA00002FB01F3DB1BB3FBF1F302FB003046E7E0
:109DB00018F03AFAAAE718F037FA029B586889E7D0
:109DC0003022C4E60038004078B6002010E000E001
:109DD00080B600207CB6002000ED00E074B60020C4
:109DE00012B1136892885A83029B586840F2E93393
:109DF000828901E0002B45D00289013B12F0020F5D
:109E00009BB2F7D08C23838140F2E93301E0002B31
:109E100038D00289013B12F0010F9BB2F7D0838941
:109E2000838940F2E9330289013B12F0020F9BB2B1
:109E300015D1002BF7D118F0F7F9029B9B6813B1ED
:109E40001A689B881383059B142B04D3182B17D9EE
:109E5000543B062B14D9002007B0BDE8F08FFF2338
:109E6000838140F2E93301E0002BE4D00289013B19
:109E700012F0010F9BB2F7D08389DBB20593DCE7C8
:109E8000032054E718F0D0F9029B5868C8E718F08F
:109E9000CBF9A0E618F0C8F9029B58687FE600BF2E
:109EA0002DE9F04FB04C436894F8132185B0019030
:109EB000002A00F03A811A88AC4922F040021204CC
:109EC000120C1A801A8822F0380212048B424FEAD0
:109ED000124200F0288101F580618B420CBF3021D5
:109EE00038210A431A801A880198A14CA14FDFF843
:109EF00090A2A14DA14E42F040021A806B21802217
:109F000018F0AEF9152303939623DFF878E2009357
:109F10004FF01008DAF80430C3F30803002B40F0C8
:109F2000D180EFF31183002B40F0CC802068AA6829
:109F300023689842FAD133689A42F7D8D7F800C01C
:109F40004FF47A7101FB0CF39B1AB3FBFCF301FB9A
:109F500000304FF47A7C4FF00109DAF80430C3F393
:109F60000803002B40F09080EFF31183002B40F0AA
:109F70008B802368A96822689342FAD132689142A3
:109F8000F7D83A680CFB02FBABEB0101B1FBF2F135
:109F90000CFB03131B1AB3F57A7FDED3009B013B46
:109FA0000093B7D1019B9B6813B11A689B885383B8
:109FB000019B586840F2E933828902E0002B00F0EF
:109FC000AD800289013B12F0020F9BB2F6D0F5235F
:109FD000838140F2E93302E0002B00F09F80028988
:109FE000013B12F0010F9BB2F6D08389838940F2C6
:109FF000E93302E0002B00F086800289013B12F079
:10A00000020F9BB2F6D0FF23838140F2E93301E0D7
:10A01000002B78D00289013B12F0010F9BB2F7D0E0
:10A020008389DBB20293019B9B6813B11A689B88FA
:10A030001383029B982B00F0B08069D9AC2B65D0BC
:10A04000AF2B40F0A1800920019B48495B681A882A
:10A0500022F040021204120C1A801A8822F03802F0
:10A0600012048B424FEA124256D001F580618B42B6
:10A070000CBF082110210A431A801A8842F04002BE
:10A080001A8005B0BDE8F08FEFF3118188F31288D4
:10A09000D5F808B02B68DB0344BFCEF80090D5F8A4
:10A0A00008B02368DEF80020C9B281F3118839684E
:10A0B00013440CFB01F2A2EB0B02B2FBF1F20CFB1E
:10A0C000032367E7EFF3118388F31288D5F808C0FC
:10A0D0002A68D20304D50122CEF80020D5F808C0A2
:10A0E0002068DEF80090DBB283F3118839684FF402
:10A0F0007A72484402FB01F3A3EB0C03B3FBF1F3C8
:10A1000002FB003025E718F08FF88CE707209BE76B
:10A11000122B39D1082097E70821ACE718F084F812
:10A12000019B586862E73021DBE61A880F4922F06C
:10A1300040021204120C1A801A8822F0380212040B
:10A140008B424FEA12422AD001F580618B420CBF4C
:10A15000082110210A431A801A88012142F0400286
:10A160001A8084F81311A6E6E0160020003800409B
:10A1700078B600207CB6002010E000E080B6002019
:10A1800000ED00E074B60020039B013B13F0FF03D9
:10A1900003937FF4B9AE039873E70B2054E70821CB
:10A1A000D8E713B506230C466A4628210C3018F070
:10A1B000ABF8F0B19DF801309DF8002042EA03228F
:10A1C00004219DF8033012B292FBF1F222809DF837
:10A1D000022042EA032212B29DF8043092FBF1F20F
:10A1E00062809DF8052043EA02231BB293FBF1F342
:10A1F000A38002B010BD7FB5002500F10C060C460F
:10A200000D804D808D8001230DF10702062130461F
:10A2100018F07AF810B9002004B070BD9DF807302E
:10A220005B07F8D5062302AA2946304618F06CF8D9
:10A230000028F0D09DF809209DF8083043EA022359
:10A2400023809DF80B209DF80A3043EA02236380A7
:10A250009DF80D209DF80C3043EA0223A380DBE734
:10A2600013B506230C466A4603210C3018F04CF84F
:10A27000A0B19DF800209DF8013043EA022323801D
:10A280009DF802209DF8033043EA0223A3809DF845
:10A2900004209DF8053043EA0223638002B010BD1C
:10A2A00007B5032301AA002118F02EF89DF8053008
:10A2B0009DF804001B0243EA00439DF80600184382
:10A2C00003B05DF804FB08B5FFF7EAFF014B5860E7
:10A2D00008BD00BFE016002008B5FFF7E1FF014B05
:10A2E000186008BDE016002007B506236A46F7216E
:10A2F00018F00AF89DF801309DF800100B4A1B0178
:10A3000043EA01339DF8021043EA1113D3609DF82C
:10A3100004309DF803101B0143EA01339DF805103A
:10A3200043EA1113936003B05DF804FBE0160020CC
:10A3300070B582B0044606230C306A463B2117F004
:10A34000E3FFA8B19DF804009DF800609DF801109E
:10A350009DF802509DF803209DF8053041EA062142
:10A3600043EA002342EA05226183A283E3830120BA
:10A3700002B070BD2DE9F04F85B090F861300390C8
:10A38000002B40F02B85039BC3495A69138823F0A7
:10A3900040031B041B0C1380138823F038031B0499
:10A3A0008A424FEA134300F0548501F580618A42E6
:10A3B0000CBF302138210B43138013880399B74C0D
:10A3C000B74EDFF8E882B74F43F0400310311380F7
:10A3D0000291084680226B2117F042FF6423DFF8C8
:10A3E000D0E2B14801934FF01009DEF80430C3F316
:10A3F0000803002B40F0E783EFF31183002B40F0BC
:10A40000E2832568826823689D42FAD13B689A42BC
:10A41000F7D8D6F800C04FF47A7101FB0CF39B1A01
:10A42000B3FBFCF301FB05354FF47A7C4FF0010AD6
:10A43000DEF80430C3F30803002B40F0A683EFF3EB
:10A440001183002B40F0A183236881682268934226
:10A45000FAD13A689142F7D832680CFB02FBABEBB9
:10A460000101B1FBF2F10CFB03135B1BB3F57A7F27
:10A47000DED3019B013B0193B7D1032268210298EF
:10A48000DFF82882874F17F0EBFE6423DFF820E225
:10A49000854801934FF01009DEF80430C3F3080338
:10A4A000002B40F01484EFF31183002B40F00F8455
:10A4B0002568826823689D42FAD13B689A42F7D8A2
:10A4C000D6F800C04FF47A7101FB0CF39B1AB3FB72
:10A4D000FCF301FB05354FF47A7C4FF0010ADEF8FE
:10A4E0000430C3F30803002B40F03183EFF31183F2
:10A4F000002B40F02C832368816822689342FAD1B4
:10A500003A689142F7D832680CFB02FBABEB0101D1
:10A51000B1FBF2F10CFB03135B1BB3F57A7FDED3C7
:10A52000019B013B0193B7D101226B210298DFF817
:10A530007C815C4F17F094FE0F23DFF874E15A48DA
:10A5400001934FF01009DEF80430C3F30803002B29
:10A5500040F09C83EFF31183002B40F09783256834
:10A56000826823689D42FAD13B689A42F7D8D6F8B0
:10A5700000C04FF47A7101FB0CF39B1AB3FBFCF3A0
:10A5800001FB05354FF47A7C4FF0010ADEF8043008
:10A59000C3F30803002B40F0BC82EFF31183002BC0
:10A5A00040F0B7822368816822689342FAD13A6802
:10A5B0009142F7D832680CFB02FBABEB0101B1FB17
:10A5C000F2F10CFB03135B1BB3F57A7FDED3019B27
:10A5D000013B0193B7D118221B210298DFF8CC80F0
:10A5E000304F17F03DFE0F23DFF8C4E02E480193F3
:10A5F0004FF01009DEF80430C3F30803002B40F0DD
:10A600002483EFF31183002B40F01F8325688268B9
:10A6100023689D42FAD13B689A42F7D8D6F800C029
:10A620004FF47A7101FB0CF39B1AB3FBFCF301FBB3
:10A6300005354FF47A7C4FF0010ADEF80430C3F39D
:10A640000803002B40F04782EFF31183002B40F00A
:10A6500042822368816822689342FAD13A68914223
:10A66000F7D832680CFB02FBABEB0101B1FBF2F156
:10A670000CFB03135B1BB3F57A7FDED3019B013B1D
:10A680000193B7D118221C210298DFF82080054FD2
:10A6900017F0E6FD0F230DE00038004078B60020EB
:10A6A0007CB6002080B6002010E000E074B60020E8
:10A6B00000ED00E0DFF814E3C14801934FF010090A
:10A6C000DEF80430C3F30803002B40F09D82EFF363
:10A6D0001183002B40F098822568826823689D4290
:10A6E000FAD13B689A42F7D8D6F800C04FF47A7195
:10A6F00001FB0CF39B1AB3FBFCF301FB05354FF494
:10A700007A7C4FF0010ADEF80430C3F30803002B13
:10A7100040F0C381EFF31183002B40F0BE8123682A
:10A72000816822689342FAD13A689142F7D8326838
:10A730000CFB02FBABEB0101B1FBF2F10CFB0313D1
:10A740005B1BB3F57A7FDED3019B013B0193B7D14D
:10A75000039A92F85B30032B00F23E8392F85E205E
:10A76000012A0BD0022A40F03783039B93F8633011
:10A7700003F0FB03022B0CBF002207221A210298D0
:10A78000DFF84C828F4F17F06BFD0F23DFF83CE2B0
:10A790008B4801934FF01009DEF80430C3F308032F
:10A7A000002B40F0F882EFF31183002B40F0F3828E
:10A7B0002568826823689D42FAD13B689A42F7D89F
:10A7C000D6F800C04FF47A7101FB0CF39B1AB3FB6F
:10A7D000FCF301FB05354FF47A7C4FF0010ADEF8FB
:10A7E0000430C3F30803002B40F03981EFF31183E9
:10A7F000002B40F034812368816822689342FAD1AB
:10A800003A689142F7D832680CFB02FBABEB0101CE
:10A81000B1FBF2F10CFB03135B1BB3F57A7FDED3C4
:10A82000019B013B0193B7D1039B029893F86020F1
:10A83000DFF89C81634F192117F012FD6423DFF8C4
:10A840008CE15F4801934FF01009DEF80430C3F348
:10A850000803002B40F07E82EFF31183002B40F0C1
:10A8600079822568826823689D42FAD13B689A42C2
:10A87000F7D8D6F800C04FF47A7101FB0CF39B1A9D
:10A88000B3FBFCF301FB05354FF47A7C4FF0010A72
:10A89000DEF80430C3F30803002B40F0C280EFF36E
:10A8A0001183002B40F0BD802368816822689342A9
:10A8B000FAD13A689142F7D832680CFB02FBABEB55
:10A8C0000101B1FBF2F10CFB03135B1BB3F57A7FC3
:10A8D000DED3019B013B0193B7D1102237210298AF
:10A8E000DFF8EC80374F17F0BBFC0F23DFF8DCE01C
:10A8F000334801934FF01009DEF80430C3F3080326
:10A90000002B40F00682EFF31183002B40F0018210
:10A910002568826823689D42FAD13B689A42F7D83D
:10A92000D6F800C04FF47A7101FB0CF39B1AB3FB0D
:10A93000FCF301FB05354FF47A7C4FF0010ADEF899
:10A940000430C3F30803002B4DD1EFF31183002B28
:10A9500049D12368816822689342FAD13A689142CA
:10A96000F7D832680CFB02FBABEB0101B1FBF2F153
:10A970000CFB03135B1BB3F57A7FE0D3019B013B18
:10A980000193B9D101223821029817F069FC039B89
:10A990000D495A69138823F040031B041B0C1380D4
:10A9A000138823F038031B048A424FEA134300F054
:10A9B000538201F580618A420CBF0821102109E011
:10A9C00010E000E080B600200038004000ED00E01C
:10A9D00074B600200B431380138843F040031380A8
:10A9E00005B0BDE8F08FEFF3118189F31288D0F83C
:10A9F00008B00368DB0344BFC8F800A0D0F808B073
:10AA00002368D8F80020C9B281F311883168134453
:10AA10000CFB01F2A2EB0B02B2FBF1F20CFB0323E5
:10AA2000A8E7EFF3118189F31288D0F808B0036822
:10AA3000DB0344BFC8F800A0D0F808B02368D8F8FA
:10AA40000020C9B281F31188316813440CFB01F274
:10AA5000A2EB0B02B2FBF1F20CFB032335E7EFF3A1
:10AA6000118189F31288D0F808B00368DB0344BF72
:10AA7000C8F800A0D0F808B02368D8F80020C9B200
:10AA800081F31188316813440CFB01F2A2EB0B0235
:10AA9000B2FBF1F20CFB0323BEE6EFF3118189F365
:10AAA0001288D0F808B00368DB0344BFC8F800A0E0
:10AAB000D0F808B02368D8F80020C9B281F3118813
:10AAC000316813440CFB01F2A2EB0B02B2FBF1F272
:10AAD0000CFB032334E6EFF3118189F31288D0F8DD
:10AAE00008B00368DB0344BFC8F800A0D0F808B082
:10AAF0002368D8F80020C9B281F311883168134463
:10AB00000CFB01F2A2EB0B02B2FBF1F20CFB0323F4
:10AB1000B0E5EFF3118189F31288D0F808B003682B
:10AB2000DB0344BFC8F800A0D0F808B02368D8F809
:10AB30000020C9B281F31188316813440CFB01F283
:10AB4000A2EB0B02B2FBF1F20CFB03233BE5EFF3AC
:10AB5000118189F31288D0F808B00368DB0344BF81
:10AB6000C8F800A0D0F808B02368D8F80020C9B20F
:10AB700081F31188316813440CFB01F2A2EB0B0244
:10AB8000B2FBF1F20CFB0323C6E4EFF3118189F36E
:10AB90001288D0F808B00368DB0344BFC8F800A0EF
:10ABA000D0F808B02368D8F80020C9B281F3118822
:10ABB000316813440CFB01F2A2EB0B02B2FBF1F281
:10ABC0000CFB032351E4EFF3118389F31288D0F8CF
:10ABD00008C00268D20304D50122C8F80020D0F8CA
:10ABE00008C02568D8F800A0DBB283F3118831686B
:10ABF0004FF47A72554402FB01F3A3EB0C03B3FB51
:10AC0000F1F302FB05350FE4EFF3118389F31288AA
:10AC1000D0F808C00268D20304D50122C8F8002089
:10AC2000D0F808C02568D8F800A0DBB283F31188FB
:10AC300031684FF47A72554402FB01F3A3EB0C0325
:10AC4000B3FBF1F302FB053559E5EFF3118389F30B
:10AC50001288D0F808C00268D20304D50122C8F8CF
:10AC60000020D0F808C02568D8F800A0DBB283F334
:10AC7000118831684FF47A72554402FB01F3A3EB5B
:10AC80000C03B3FBF1F302FB0535D2E4EFF31183C0
:10AC900089F31288D0F808C00268D20304D50122D3
:10ACA000C8F80020D0F808C02568D8F800A0DBB2AA
:10ACB00083F3118831684FF47A72554402FB01F333
:10ACC000A3EB0C03B3FBF1F302FB05355AE4EFF3FE
:10ACD000118389F31288D0F808C00268D20304D522
:10ACE0000122C8F80020D0F808C02568D8F800A0D4
:10ACF000DBB283F3118831684FF47A72554402FB5A
:10AD000001F3A3EB0C03B3FBF1F302FB0535FFF7F3
:10AD1000E2BBEFF3118389F31288D0F808C0026810
:10AD2000D20304D50122C8F80020D0F808C0256855
:10AD3000D8F800A0DBB283F3118831684FF47A723F
:10AD4000554402FB01F3A3EB0C03B3FBF1F302FB4D
:10AD50000535F0E5EFF3118389F31288D0F808C0C8
:10AD60000268D20304D50122C8F80020D0F808C038
:10AD70002568D8F800A0DBB283F3118831684FF45E
:10AD80007A72554402FB01F3A3EB0C03B3FBF1F31E
:10AD900002FB053578E5EFF3118389F31288D0F8CB
:10ADA00008C00268D20304D50122C8F80020D0F8F8
:10ADB00008C02568D8F800A0DBB283F31188316899
:10ADC0004FF47A72554402FB01F3A3EB0C03B3FB7F
:10ADD000F1F302FB0535FEE4019ACFE41D09013DC4
:10ADE000032D03F00F0339D8214A32F8150040FA39
:10ADF00003F2D10732D5012404FA03F3013B1840D2
:10AE000049F07AFA1B4B1C4A5B5D184412EBC005F3
:10AE100024D052F83020AB88126913407FF4B3AAD3
:10AE20000399EB712022154BAA71284641F80C3F7B
:10AE30003EF04AFBAB88B3FA83F3C3F11F0314FA65
:10AE400003F33FF4A0AA0E490A6813430B60FFF70F
:10AE50009ABA3021FFF7AFBA0821BBE50399074B37
:10AE600041F80C3F00203EF02FFBFFF78CBA00BFEB
:10AE700068A3050870A3050874B40020998600082B
:10AE8000003C014010B500F10C04002221212046B5
:10AE900046F008FCFC222021204646F003FC40221C
:10AEA0002421204646F0FEFB0C222321204646F0BA
:10AEB000F9FB00222221204646F0F4FB642013F027
:10AEC000E7FB012010BD10B500F10C0401220B219D
:10AED000204646F0E7FB20B11D220921204646F01E
:10AEE000E1FB00F0010010BD10B500F10C04702270
:10AEF0000021204646F0D6FB20220121204646F0C4
:10AF0000D1FB00220221204646F0CCFB642013F046
:10AF1000BFFB012010BD0122482146F0C3BB012226
:10AF2000582146F0BFBB3122F42146F0BBBB00BF25
:10AF30002DE9F84F037C02681F2B86BF203B516828
:10AF40001168202202FA03F30B4214BF01230023ED
:10AF50000BB9BDE8F88F4569DFF878A16F010446A9
:10AF600013F0C4FA7B190AEBC30306461A7C002AC5
:10AF700034D153495A680978D2F80090C9B9D96FC9
:10AF800058890A6822F001020A60B9F80C3023EAF5
:10AF90000003A9F80C304B4B1B78002B31D1237CDC
:10AFA00021681F2B13D8202202FA03F38B60BDE81F
:10AFB000F88F5269136823F001031360B9F80C305D
:10AFC00023F480731B041B0CA9F80C30E3E7203B2F
:10AFD000202202FA03F3CB60BDE8F88FDE6F3A4817
:10AFE0005F8901225A7431685A680368156821F034
:10AFF00001013160AA89013322EA0702AA810360B4
:10B00000CDE72F44FF000AEB07053037D5F87C80E9
:10B0100040461BF059FA01232B74D5F880B013F089
:10B0200065FA0AEB0701CBF82C0148461BF00CFB34
:10B03000D5E91470EB6BD5E916123B4303430B4380
:10B0400013432A6E2F6FD8F80000204913436A6E0D
:10B0500013436A6F3B43014013430B430022AA642E
:10B06000C8F80030D8F81420AB6EE96C22F0070C59
:10B07000EA6ED5E91070134343EA0C03C8F81430A4
:10B08000C8F80410C8F80870C8F80C00D8F80020F8
:10B09000EB6F95F87800696842F01002C8F800205C
:10B0A00058601A68096842F001021A608B896A893F
:10B0B00013438B8113F01AFA054B801B18606EE75F
:10B0C000303200102C3200102C4200203F801CF047
:10B0D000F0330010D8C50020037903F01803082BC3
:10B0E0000AD002D82BB100207047102B14D0182B97
:10B0F000F9D1B0F80B007047104BB0F80B0093F982
:10B100000030591C06BF0E4B1B78DBB2C3EB431358
:10B1100000EB830080B270470A4BB0F80B0093F944
:10B1200000305A1C06BF064B5B78DBB203EB4302D0
:10B1300003EB820300EB430080B27047D916002076
:10B1400034C30020D8160020F0B5067906F060035D
:10B15000402B09D144794FF0FF350023012006F040
:10B160000706A3420BD1F0BD602B08BF45794FF015
:10B1700001040CBF04FA05F54FF0FF35EDE7042E8E
:10B180000CD8DFE806F0030D18242E0030B1C85C9F
:10B19000D75C784028420CBF012000200133E0E753
:10B1A0000028FBD0C856D756A0EB070CDCF10000F6
:10B1B00040EB0C00F2E70028F0D031F8130032F831
:10B1C0001370784028420CBF01200020E6E70028D9
:10B1D000E4D031F9130032F91370C71B784278417B
:10B1E000DCE70028DAD051F8230052F823707840C9
:10B1F00028420CBF01200020D0E7024B014618680E
:10B2000046F0ECBA904A002038B5064D441E14F8BA
:10B21000011F286819B9BDE8384046F059BA46F010
:10B22000DDFAF4E7904A00200048EDE7C016060872
:10B2300008B5FFF7E9FFBDE80840F5E710B504469B
:10B240000348FFF7E1FF2046BDE81040F0E700BFEC
:10B2500094D9050838B5074C074DAC4203D3074BCA
:10B2600000221A7038BD6288D4E9010149F092FACF
:10B270001434F2E79001000830070008F8DB0020E2
:10B2800038B5074C074DAC4203D3074B01221A7067
:10B2900038BD6288D4E9011049F07CFA1434F2E731
:10B2A0009001000830070008F8DB0020024A13680C
:10B2B00023EA000010607047F0D70020DFED2E7AFF
:10B2C000B4EEE70AF1EE10FA4ADDDFED2C6A9FEDED
:10B2D0002C7A01E0B0EE670AB4EEC70AF1EE10FA7C
:10B2E00070EE667AF6DC9FED277AF4EEC77AF1EE1F
:10B2F00010FA3ED5DFED216A9FED237A01E0F0EEF2
:10B30000407AF4EEC77AF1EE10FA37EEA60AF6D4D8
:10B31000DFED1E7AB4EEE70AF1EE10FA14DDDFED90
:10B32000167A37EEC00A60EE006A9FED196A9FED4B
:10B33000197ADFED197AA6EE867A20EE266AE6EE15
:10B34000877AA6EE270A7047DFED147AB4EEE70A93
:10B35000F1EE10FA44BFDFED0B7A37EEC00AE2E7F8
:10B360009FED087AF0EE407AF4EEC77AF1EE10FA2B
:10B37000C0D4B0EE670ACBE7DB0F4940DB0FC94012
:10B38000E4CB1641DB0F49C0E4CB16C1DB0FC93F4C
:10B3900092E741B99730083C15A82ABEDB0FC9BF18
:10B3A000F0EEC07AB0EEE07AB4EEE77AF1EE10FAA1
:10B3B000B4BFB0EE676AB0EE476AB5EE406AF1EE30
:10B3C00010FA46D0B4EEE77AF1EE10FA8CBFF0EE48
:10B3D000675AF0EE475AC5EE866A9FED1F3A9FED19
:10B3E0001F6A9FED1F4A9FED1F5ADFED1F3ADFEDE9
:10B3F0001F4ADFED1F5AA6EEC36AE6EEA34AA6EE89
:10B40000864AB7EE006AA6EE845AA6EEA46AE6EE75
:10B41000855AC5EE866AB4EEE77AF1EE10FA48BFB7
:10B42000DFED147AF5EEC00A48BF77EEE66AF1EE7A
:10B4300010FA48BFDFED107AB5EEC00A48BF77EECC
:10B44000E66AF1EE10FA48BFF1EE666AB0EE660AFF
:10B450007047DFED076ADEE739094E3DE3B59E3EF2
:10B4600088FA163E45FE7F3F99FB243F69A2163EAF
:10B47000A7DFA834DB0FC93FDB0F4940DFED317A8E
:10B4800030EE277AFDEEC76A16EE903A2033402B55
:10B4900002D99FED2D0A7047B4EEE70AF1EE10FADB
:10B4A0004DDD9FED2A6ADFED2A6A01E0B0EE677A92
:10B4B000B4EEE67AF1EE10FA77EE467AF6DC9FED1E
:10B4C000257AF4EEC77AF1EE10FA35D5DFED1F6A72
:10B4D0009FED217A01E0F0EE407AF4EEC77AF1EECA
:10B4E00010FA37EEA60AF6D4DFED167AB4EEE70AC4
:10B4F000F1EE10FA1BDCDFED197AB4EEE70AF1EE9B
:10B5000010FA44BFDFED137A37EEC00A60EE006A2E
:10B510009FED136A9FED137ADFED137AA6EE867A1C
:10B5200020EE266AE6EE877AA6EE270A7047DFED60
:10B530000F7A37EEC00AE9E7B0EE670AD4E7F0EE1B
:10B54000477ABCE7DB0FC93F00000000DB0FC940B2
:10B55000E4CB1641DB0F49C0E4CB16C1DB0FC9BFFA
:10B5600092E741B99730083C15A82ABEDB0F494045
:10B5700010B44C09012250F8243001F01F0102FAE6
:10B5800001F123EA010340F824305DF8044B7047D1
:10B5900010B44C09012250F8243001F01F0102FAC6
:10B5A00001F10B4340F824305DF8044B704700BFB5
:10B5B0004B0901F01F0150F82320012303FA01F188
:10B5C000114214BF18460020704700BF2DE9F04318
:10B5D000002489B006460D461F46A04605E02529F1
:10B5E0000CD030460134A847039A531C03931178BA
:10B5F0000029F4D1204609B0BDE8F083931CCDE9C1
:10B6000003385078302842D0A0F13003DBB2092B48
:10B610004FF0000945D96C282AD0642873D019D975
:10B62000732858D063D9752840F0828007F1040C44
:10B63000386805AB00220A216746FCF711FE05AB0E
:10B64000049A009329464B463046FCF7DFFC039AE8
:10B650000444CAE725283CD051D958286BD0632828
:10B66000C2D139783046A84704370134039ABCE781
:10B67000039B5A1C03921B78642B52D016D8252B9F
:10B6800027D064D9582B18D0632BEAD0ADE7D31C50
:10B6900003939078A0F13003DBB2092B4FF001093E
:10B6A000B9D804AA03A93FF053FEB4E7732B12D014
:10B6B00051D9752B2DD0782B97D1A3F15802B2FA1E
:10B6C00082F23868520905AB10210437FCF7C8FD37
:10B6D000B5E7252185E73B68049A009329460023B6
:10B6E0003046FCF793FC04370444039A7DE76E2848
:10B6F0007FF47AAF039A3B6804371C6075E7002833
:10B700003FF478AF70E7386805A9FCF773FD04379C
:10B7100095E7386805AB00220A21FCF7A1FD043744
:10B720008DE73B1D386805A91F46FCF763FD86E7DA
:10B7300078287FF459AFA0F15802B2FA82F2386843
:10B74000520905AB1021FCF78BFD043777E7002B7E
:10B750003FF450AF49E76E2BCDD046E710B5064C0D
:10B760000B46024605492068FFF730FF2068BDE818
:10B77000104045F0ADBF00BF904A0020E99100089D
:10B7800038B504460D460848FFF73EFD29462046D9
:10B79000FFF7E4FF0548FFF737FD054B1B7813B1B2
:10B7A000044B01221A7038BD99D90508A4D905089F
:10B7B000EC4B0020ED4B00200FB407B504A951F865
:10B7C000040B0191FFF7DCFFFFF72EFD03B05DF8DE
:10B7D00004EB04B070470FB407B504A951F8040B8B
:10B7E0000191FFF7CDFF03B05DF804EB04B07047A3
:10B7F0000FB407B504A951F8040B0191FFF7AEFF90
:10B80000FFF712FD03B05DF804EB04B070470FB40E
:10B8100007B504A951F8040B0191FFF79FFF03B08E
:10B820005DF804EB04B070472DE9F041174602794A
:10B8300002F06003402B05460C462BD10026514FE9
:10B84000DFF85C8115E02B7903F00703022B15D09C
:10B85000032B19D0012B14BFA15DA1573846FFF768
:10B86000D6FF6B79013BB34202DD4046FFF7CCFCCB
:10B8700001366B79B342E6DCBDE8F08134F816108E
:10B880003846FFF7C4FFECE734F916103846FFF7E7
:10B89000BEFFE6E702F00702042A66D8DFE802F0FE
:10B8A000031E27292C002478202B3CD0602B48D065
:10B8B000002BE1D1B5F80560B5F807803148214685
:10B8C000FFF7A5FFA64248DCA04546DB002FD3D0FA
:10B8D000424631462C48BDE8F04198E794F90040D3
:10B8E000202B20D0602B2CD0002BC5D144E0248805
:10B8F000DAE7B4F90040F3E72668202B344612D08B
:10B90000602B1ED0002BB7D131461E48FFF77FFFBA
:10B91000D5F805108E4220D8002FADD01B48BDE8C9
:10B92000F04174E700246A79194B03EBC2010979ED
:10B93000A14212DD53F8323053F82400BDE8F04143
:10B9400062E46A791441E30703D51248BDE8F04187
:10B950005DE71148BDE8F04159E7FFF765FC224675
:10B9600029680E48BDE8F04135E7202BDAD0602B7E
:10B97000EFD0002B80D11C46B5F90560B5F90780E2
:10B980009CE700BF180D0608300B0608AAD9050869
:10B990006CBA0508550D060827030608B0D9050836
:10B9A000A8D905080CB407B510F020000BD079B960
:10B9B0002320FFF722FC05A904980191FFF7CEFE92
:10B9C000FFF732FC012003B05DF804EB02B07047D2
:10B9D0000020F8E70CB4C30607B500D561B905A986
:10B9E00004980191FFF7BAFEFFF71EFC012003B097
:10B9F0005DF804EB02B070470020F8E70EB400B524
:10BA000084B005AB019053F8042B0649039301A8B9
:10BA1000FFF7DCFD019B00221A7004B05DF804EB17
:10BA200003B070470180000870B406688E4217D9D1
:10BA30000139751E002311F8014F0822634013F0ED
:10BA4000800F4FEA430318BF83F0D503013ADBB2FE
:10BA5000F5D18D42EFD1721C0260337070BC70471B
:10BA6000721C00230260337070BC70470A4491421C
:10BA700015D010B40139541E11F8012F082350407D
:10BA800010F0800F4FEA400018BF80F0D500013B56
:10BA9000C0B2F5D1A142EFD15DF8044B70477047B9
:10BAA0004840082310F0800F4FEA400018BF80F094
:10BAB000D500013BC0B2F5D1704700BF0A449142A6
:10BAC00015D030B40139551E41F2210211F8014F51
:10BAD000082380EA042004044CBF82EA40004000AE
:10BAE000013B80B2F7D18D42F0D130BC7047704736
:10BAF00070B502221349144C144E4FF6FF70FFF735
:10BB0000DDFF22884AB1A518B54218D2052A16D9F8
:10BB10002146FFF7D3FF2C46F3E721460222FFF729
:10BB2000CDFF0222A118FFF7C9FF094BE41A094B08
:10BB30001C8041F60F53C31A5842584170BD002073
:10BB4000FCE700BF00400008024000080080000839
:10BB5000FA3F0008FADB00200F4B2DE93048D3E90B
:10BB6000004554EA05020AD1034640F201120020C2
:10BB70001880988098715A801881BDE83088074BEA
:10BB80001A6814EB020B45F1000C5A466346FCF7A9
:10BB900079FA0120BDE83088C05F002078B6002027
:10BBA00030B403888278C478154DA3F5FA6303F0A6
:10BBB000030101EB4101013A02EB81029B0835F8D8
:10BBC00012500279611E40F2B55404FB03132B445A
:10BBD00003EB430302EBC3034279847909490089EB
:10BBE000C3EB031302EB83032144C3EB031301EB09
:10BBF00083034FF47A720021C2FB030130BC70470B
:10BC0000885E050880436D382DE9F04707468CB003
:10BC10001E469246002A5CD1154614460A88B2F5A3
:10BC2000FA6F36D38B78581E0B2832D891F803C0A0
:10BC30000CF1FF301E282CD891F804E0BEF1170F4C
:10BC400027D891F80590B9F13B0F22D888793B2885
:10BC50001FD8B1F80880B8F57A7F1AD24FF00108E2
:10BC60005EBB09890491002CB4BF2D212B21002C2F
:10BC7000B8BF6442CDE90290CDE905140795CDE93E
:10BC800000CE38462A49FFF7B9FE40460CB0BDE861
:10BC9000F08700232749ADF828304FF0010C1846F3
:10BCA0008DF82A30ADF82C3099469E461A469846B3
:10BCB0000991634609A9002ED3D0CDE90290CDE9C0
:10BCC00000CE38461C49FFF799FE40460CB0BDE84F
:10BCD000F0871A4C84FB0234A318D417C4EB631406
:10BCE000C4EB0415A2EB85052DB2002D0846B8BFA4
:10BCF0006D42FFF755FF4FF47A7200238046894664
