:020000040800F2
:10000000F0FF0010C1D30408C18E0208DDCF000844
:1000100061D4040861D4040861D40408000000001D
:10002000000000000000000000000000CD8E02086B
:10003000C98E020800000000C58E020839C50008FC
:1000400061D4040861D4040861D4040861D40408AC
:1000500061D4040861D4040891D00008BDD100081F
:1000600081D1000845D1000809D10008A95A040827
:10007000995A0408895A0408795A0408655A0408E8
:10008000515A04083D5A040861D4040861D4040894
:1000900061D4040861D4040861D40408CDD00008F8
:1000A0004DA90008E9AE00087DA80008B9AF000816
:1000B00029AE000869AD00089DAC0008E96C040891
:1000C000F16C0408D96C0408E16C040861D40408DC
:1000D00061D40408B1C6000861D4040815C600083C
:1000E00055D0000861D4040885D10208ADA70008E6
:1000F0001DAA0008DDA60008FDAA0008295A040868
:1001000061D4040861D40408CDAB000861D40408AC
:1001100061D4040861D40408416203082D62030815
:10012000155A0408015A0408ED590408D95904085D
:10013000C559040861D4040861D4040861D40408D2
:1001400061D4040861D4040861D40408F99D02084C
:10015000B15904089D5904088959040879C5000853
:10016000C96C0408D16C040861D4040861D4040883
:1001700061D4040861D4040861D4040861D404087B
:0801800061D4040861D40408F5
:0801880068CF04000100000033
:100190001A023C00841500206817002000000000AF
:1001A00085190408270004007C150020A4170020EE
:1001B00000000000CC060008F6210C00E81C00201E
:1001C000641F002000000000D006000803000100AA
:1001D000501D0020701F00200000000000000000E3
:1001E00025102C017C1D0020B81F002000000000FD
:1001F000000000001A000E00D81C0020E42000209F
:1002000000000000DC06000815007000D01A002075
:10021000F420002000000000000000002A00600020
:10022000781C00206421002000000000E5F7000891
:100230002C0010004C2E00203C2E0020000000005E
:100240009BEE01082B002400802E00205C2E002055
:10025000000000006DEE0108292078003C2D0020F0
:10026000A42E002000000000000000001C02080076
:10027000382900201C2F002000000000450D040834
:1002800020320A00302F0020242F00200000000020
:100290003DD3010810100200C82A00203C2F002086
:1002A00000000000EA06000828101000B82A00200C
:1002B000402F002000000000B5D301081900050000
:1002C000B02A0020502F002000000000EC0600089B
:1002D000F8210600A82A0020582F00200000000066
:1002E000F2060008012008006C240020602F002086
:1002F00000000000F80600080EA074019C220020F7
:10030000682F0020000000000DF800080101040023
:1003100004220020DC30002000000000000000006B
:1003200000010400FC210020E0300020000000005B
:100330000007000802010300F8210020E43000203B
:1003400000000000B548030814000300A44A002080
:10035000184B002000000000040700080B301800B4
:10036000703B00201C4B0020000000000807000824
:100370001F302400883B0020344B00200000000088
:10038000200700080502040038460020584B0020D2
:10039000000000004407000803010A00C83B0020D9
:1003A0005C4B002000000000480700081302040016
:1003B000143A0020684B002000000000520700089B
:1003C00007020200045100207C51002000000000C0
:1003D00056070008031233002851002080510020E6
:1003E000000000005807000802000C0054500020D4
:1003F000B4510020000000000000000006020C00C4
:10040000DC500020C05100200000000059190408F1
:10041000F701060068500020CC51002000000000C9
:100420008C0700080A020A00D44F0020D451002093
:10043000000000002D4B03080C109C001C5A0020EB
:10044000C069002000000000894803080002050080
:10045000EC5900205C6A0020000000000000000051
:100460001B021000D8590020646A00200000000020
:10047000650D04081E00060044570020746A002021
:1004800000000000920700081B100C0034540020EC
:100490007C6A0020000000000DBF03082102F0006C
:1004A000B4520020886A00200000000011AA03084E
:1004B0003710240074590020786B002000000000E1
:1004C000980700080E020200385C00209C6B002098
:1004D00000000000BC07000816100600A85200200B
:1004E000A06B002000000000BE0700082F102200B3
:1004F0009C690020A86B002000000000C4070008D1
:10050000051006002C560020CC6B002000000000D7
:10051000E6070008122010001C560020D46B0020B3
:1005200000000000EC07000823100E009056002089
:10053000E46B002000000000CFD30108F5518C00CF
:10054000E0510020F46B00200000000009F30308D4
:1005500026100C008C6C0020806C00200000000035
:10056000799F0308020203001C6D0020186D002013
:10057000000000000000000010020100246D0020B7
:10058000206D002000000000FC0700081F02100082
:10059000386D0020286D002000000000810E040846
:1005A0000D002400488E00208C8E002000000000EA
:1005B0003DD3020804008000388D0020B08E00205A
:1005C0000000000000000000F9010400248D00205C
:1005D000308F00200000000051820008FD011E0045
:1005E000048D0020348F002000000000D981000815
:1005F00018202E00D08C0020548F00200000000016
:10060000151A040806101A00307B0020848F002081
:10061000000000006DF80008FB0101002C7B0020A9
:10062000A08F002000000000851A0408FC010900CA
:10063000F8790020A48F002000000000951A04081B
:1006400013000400F0790020B08F002000000000AB
:10065000000800080A702800C8790020B48F002024
:10066000000000005DD3010816023F0088790020D9
:10067000DC8F002000000000A10D040834001000F1
:10068000B87800201C9000200000000041F800080D
:1006900011020800907800202C900020000000003B
:1006A000040800081212040088780020349000200A
:1006B000000000000C080008FE0114002C6F002050
:0C06C0003890002000000000790D0408B4
:1006CC0020030000000000000100000002020000F6
:1006DC007E05EA05B4053200E803D00700000005EA
:1006EC000000280100000201F4011400E80364007A
:1006FC00040A00019001000003000000AE014A0151
:10070C005E012C0164010100000001000A019A0144
:10071C00001E0A000000000000010000000500009F
:10072C0001020300000000000000000000000000B7
:10073C000000000000800700000000000401010020
:10074C006C160000000000000100033C00000000DB
:10075C00000000000000000000000000000000008D
:10076C00000000000000000000000000000000007D
:10077C00000000000000000000000000000001006C
:10078C003C000100000000000100000020003200CD
:10079C00C800D0079600140032002800B0044006B0
:1007AC000005500014000F00080064000100010057
:1007BC000000C40900001900000000000000000047
:1007CC00000000000000000000000000000000001D
:1007DC0000000000000000000000200003010000E9
:1007EC0000000001000005434642510000080000D3
:1007FC000000000001004030000000000101010178
:04080C00FFFFFFFFEC
:10081000FF000000FFFFFFFFFF000000F089050858
:100820000000080205030300F8890508010008021A
:1008300005040300949805080200FE01011003005E
:10084000008A05080300140200030000088A050856
:1008500004001F0201000800108A050805001F029D
:1008600001010800FFFFFFFF0000803F00000000C3
:1008700000000000000000000000803F00000000B9
:100880000000000000000000000000000000000068
:100890000000000000000000000000000000000058
:1008A0000000803F00000000000000000000000089
:1008B000010000000000803FFFFFFFFF010000007B
:1008C0001DCB0108000000009819050820700020C9
:1008D000702D7200FFFFFFFFD60101000001010132
:1008E000000101012D202D2D202D2D2D2D202D2D10
:1008F0002D000000000000000000000000000000CB
:10090000000000000000000000000000642E050848
:100910000000000000000000F02E050801000000AB
:10092000FA000000010000000100000001000000CA
:100930003E24002000C801003D240020005001009A
:100940003C240020005A01003A240020020000004C
:10095000241E0508249C05082C9C050872450020CF
:100960000100C40900000000704500200100C40916
:10097000000000006E4500200100C40900000000D6
:100980006C4500200100C4090000000068450020FB
:100990000100C409000000006A4500200100C409EC
:1009A00000000000664500200100C40900000000AE
:1009B000644500200100C409000000001622002048
:1009C0000100C80001000000142200203200307530
:1009D0003200000013220020055A050010220020DA
:1009E00000FF01001222002001000000CC020020C4
:1009F0000E22002002000000603B05080F220020AC
:100A000000FF01001122002001000000CC020020A4
:100A10000D22002002000000603B05087824002021
:100A2000EE02CA08010000007624002000C8010080
:100A3000640000007524002000C80100640000006C
:100A40007424002002000000301E05080A22002045
:100A500080C1803E050000000822002080C1803E49
:100A6000050000000222002080C1803E0500000039
:100A70000022002080C1803E05000000FB210020F4
:100A800000FF0100F42100206400F40101000000D7
:100A9000F3210020040000003C1E0508F221002084
:100AA00002000000501E05088D2200200D000000ED
:100AB0005C1E05088A2200200064010088220020B4
:100AC000320010270A000000872200200D000000DD
:100AD0005C1E0508862200200D0000005C1E050833
:100AE0008522002002000000941E0508000000007E
:100AF00000000000A01E0508F04500209CFF2C010E
:100B000000000000EC290020E0150C170000000098
:100B1000A728002002000000D81E05088424002019
:100B20000100FF7F0100000083240020020000007C
:100B3000E41E05088F22002003000000F41E0508B3
:100B40008E22002003000000F41E05081C24002053
:100B50000000E803010000001A2400200000E80360
:100B600001000000182400200000E803010000003C
:100B7000162400200000E8030100000014240020D7
:100B80000000E80301000000122400200000E80338
:100B90000100000011240020001401001024002096
:100BA00003000000041F0508282400200000F401B1
:100BB00001000000262400200000F40101000000D4
:100BC000242400200000F401010000002224002061
:100BD0000000F40101000000202400200000803EFD
:100BE000010000001E2400200000803E01000000E3
:100BF000512400201964010050240020020000004C
:100C0000141F05084E240020E803D0070A00000046
:100C10004C240020006401000A0000004124002050
:100C200000640100402400200064010048240020EA
:100C3000006401000A000000472400200064010055
:100C40000A00000046240020006401000A000000A1
:100C50004B240020006401000A0000004A24002008
:100C6000006401000A000000492400200064010023
:100C70000A0000004524002001FF01000A000000D6
:100C80004424002001FF01000A000000432400204A
:100C900001FF01000A000000982200200000F4017A
:100CA00001000000962200200000F4010100000075
:100CB000942200200000F401010000009222002094
:100CC0000000F40101000000902200200000F40167
:100CD00001000000392400200064010038240020B5
:100CE0000064010037240020006401003624002045
:100CF000FF0801003524002001640100D1D0010863
:100D000095D00108201F050834240020006401004C
:100D1000322400201400E8030100000030240020E9
:100D2000E80330750A0000002E24002000C80100EE
:100D30002D24002000C801002C24002000C8010040
:100D40002B240020006401000A0000006824002019
:100D50000000D007010000006324002000C801004B
:100D60006224002000C801006124002000C80100A6
:100D7000662400200000D00701000000602400204D
:100D800000C801005F24002000C801005E2400208C
:100D900000C80100642400200000D007010000000A
:100DA0005D24002000C801005C24002000C8010070
:100DB0005B24002000C801000000000019CE0108DB
:100DC000901F050883220020310000002C20050818
:100DD0008222002000C8010080220020E803D00702
:100DE000010000004352415A59464C494532425194
:100DF0000000000079CD010851CD0108F42005085C
:100E00000DCD0108C1CC010848210508A1CD01087C
:100E1000B1F20108C82105080C22002001030100DD
:100E200031D2010805D20108BC24050869CC0108AB
:100E300029CC0108202505082FCE0108C50E02087F
:100E4000BC25050805080208000000006426050806
:100E500095F1010891D201080027050881CE01080B
:100E6000000000007027050855CF010805CF0108D4
:100E7000D4270508DDCF0108A9CF0108702805088F
:100E80000DD1010855D10108F02805083F240020A4
:100E900001060100C9CE010895CE0108EC2905081C
:100EA00011D0010815F301085C2A050889D1010851
:100EB00099F301083C2B05082A24002001030100B6
:100EC000E9CD0108B9CD0108102C05085DD2010853
:100ED00000000000742C0508A9CC010899F2010853
:100EE000D82C050800000000000000003C2D05087B
:100EF000DDD1010811F40108BC2D0508EE21002008
:100F000088136F1701000000F021002088136F176D
:100F100000000000263C002000000000000000004F
:100F2000243C00200000000000000000223C0020C3
:100F30000000000000000000203C00200000000035
:100F4000000000001E3C0020000000000000000027
:100F50001C3C00200000000000000000700B00207E
:100F60000000000000000000C4210020020000007A
:100F7000442F0508EC21002088136F1701000000A2
:100F80003046002088136F1700000000BDCB010819
:100F900000000000502F0508CA28002001000000B2
:100FA000A42F05083246002001000000B02F0508DC
:100FB0002846002002000000B82F050800000000AD
:100FC00000000000C42F0508A9CB010800000000A4
:100FD000603005080000000000000000B430050883
:100FE0000000000000000000243105082C4600200D
:100FF000E0150C17000000000403090412010002B0
:10100000EF02014083045632000201020301000096
:101010001201000202020040830440570002010254
:101020000301000009026400030100C0320904004A
:101030000001030000000921110100012226000720
:1010400005830308000A080B0102020201000904DB
:101050000100010202010005240010010524010025
:101060000204240202052406010207058203080087
:10107000FF09040200020A00000007050102400007
:10108000000705810240000009024300020100C080
:1010900032090400000102020100052400100105CC
:1010A0002401000104240202052406000107058230
:1010B000030800FF09040100020A000000070501FF
:1010C000024000000705810240000000FF00000010
:1010D00008320508000000000000000000000000C9
:1010E0000000000000000000000000000000000000
:1010F000000000000000000000FFFF0000000000F2
:10110000AA55050100000100DC31050800000000BF
:1011100000000000000000000000000000000000CF
:1011200000000000000000000000000000000000BF
:10113000FF1FFF1F05010905A101A10005010930DD
:101140000931093209330935093409400938158153
:10115000257F750895088102C0C0000009022200A1
:10116000010100E03209040000010301020009212D
:10117000110100012226000705830308000A000070
:10118000000000000102030401020304060708092D
:10119000099202080D9102084D940208815D02082F
:1011A000C5600208915D0208AD5D0208595D020844
:1011B000495D020800000000000000002D202D2DD8
:1011C000202D2D2D2D202D2D2D2D00000000000077
:1011D0000000000000000000000000AA550B010004
:1011E00000AA5507010000AA550902000000AA55EF
:1011F00003009F0001000000C0120000EC4A002024
:1012000000000000104B0020000000000100000062
:10121000A00F0000B80B00000102FFFF010000005A
:10122000A562020849600208299402080000000033
:10123000455D0208F99002081162020871900208E7
:101240000000000000000000015D020815620208B5
:10125000096002086993020800000000195D020895
:1012600075900208E5610208D18F020800000000B5
:10127000000000000D5D0208FF0000000000803F3C
:10128000000000000000000000000000000000005E
:101290006C51002008000000000000005C5100209C
:1012A00008000000CCAD0508D8AD0508E4AD050880
:1012B000F0AD0508FCAD050808AE0508C0A9050895
:1012C000C4640508C463050858AD0508388E0508D0
:1012D000BCAD0508C0AD0508C4AD0508C8AD05081E
:1012E000ACAD0508B0AD0508B4AD05081862050839
:1012F000B8AD05081900C800F4012003ACAD05081D
:10130000B0AD050814AE0508B4AD050818AE050863
:101310001CAE05080100000000000100FFFFFFFFF8
:10132000FFFF01FF655C0208615C02085D5C02086A
:10133000515C02084D5C0208595C0208555C0208C9
:10134000D95C0208CD5C0208A55C0208B95C020801
:10135000915C02087D5C0208695C0208014903088F
:10136000000000000000000000000000010000007C
:101370000060024010600240000000000000000019
:10138000000B000000000000000000000000000052
:1013900000600240286002400100000000000000E0
:1013A000060C00000000000000000000000000002B
:1013B00000600240406002400200000000000000A7
:1013C000100D000000000000000000000000000000
:1013D000006002405860024003000000000000006E
:1013E000160E0000000000000000000000000000D9
:1013F0000060024070600240040000000000000035
:10140000200F0000000000000000000000000000AD
:1014100000600240886002400500000000000000FB
:101420002610000000000000000000000000000086
:1014300000600240A06002400600000000000000C2
:10144000301100000000000000000000000000005B
:1014500000600240B8600240070000000000000089
:10146000362F000000000000000000000000000017
:101470000064024010640240000000000000000010
:101480000038000000000000000000000000000024
:1014900000640240286402400100000000000000D7
:1014A00006390000000000000000000000000000FD
:1014B000006402404064024002000000000000009E
:1014C000103A0000000000000000000000000000D2
:1014D0000064024058640240030000000000000065
:1014E000163B0000000000000000000000000000AB
:1014F000006402407064024004000000000000002C
:10150000203C00000000000000000000000000007F
:1015100000640240886402400500000000000000F2
:101520002644000000000000000000000000000051
:1015300000640240A06402400600000000000000B9
:101540003045000000000000000000000000000026
:1015500000640240B8640240070000000000000080
:1015600036460000000000000000000000000000FF
:101570009C8A050888B5050800000000C9480308D2
:10158000A086010004000000000000000000000030
:10159000000000000000000000000000000000004B
:1015A000000000000000000000000000000000003B
:1015B0009C8A0508ECB805080000000001800008BE
:1015C000E80300000400000000000000000000002C
:1015D000000000000000000000000000000000000B
:1015E00000000000000000000000000000000000FB
:1015F000B4A105089C62050800000000557E0108A2
:101600007D00000006000000000000000000000057
:1016100000000000000000000000000000000000CA
:1016200000000000000000000000000000000000BA
:10163000CC89050800000000000000003D0C0308F4
:10164000E8030000030000000000000000000000AC
:10165000000000000000000000000000000000008A
:10166000000000000000000000000000000000007A
:10167000F4B805080000000000000000555D0108F6
:101680001027000003000000000000000000000020
:10169000000000000000000000000000000000004A
:1016A000000000000000000000000000000000003A
:1016B000FC8905080000000061EB0108A111030886
:1016C0005F76000005000000000000000000000040
:1016D000000000000000000000000000000000000A
:1016E00000000000000000000000000000000000FA
:1016F000B08C0508000000000000000041F0000868
:1017000010270000010000000000000000000000A1
:1017100000000000000000000000000000000000C9
:1017200000000000000000000000000000000000B9
:1017300000B9050800000000000000000580000856
:10174000E8030000050000000000000000000000A9
:101750000000000000000000000000000000000089
:101760000000000000000000000000000000000079
:101770000CB90508000000000000000049670308DC
:10178000204E0000030000000000000000000000E8
:101790000000000000000000000000000000000049
:1017A0000000000000000000000000000000000039
:1017B0001CB90508000000000000000035650308A2
:1017C000204E0000030000000000000000000000A8
:1017D0000000000000000000000000000000000009
:1017E00000000000000000000000000000000000F9
:1017F0002CB905080000000000000000CD9A000888
:10180000400D030003000000000000000000000085
:1018100000000000000000000000000000000000C8
:1018200000000000000000000000000000000000B8
:10183000608B05080000000000000000350A030866
:101840001027000001000000000000000000000060
:101850000000000000000000000000000000000088
:101860000000000000000000000000000000000078
:10187000E4890508000000000000000071CA0308A8
:10188000102700000300000000000000000000001E
:101890000000000000000000000000000000000048
:1018A0000000000000000000000000000000000038
:1018B0003CB905080000000000000000F9340208EF
:1018C000A0860100010000000000000000000000F0
:1018D0000000000000000000000000000000000008
:1018E00000000000000000000000000000000000F8
:1018F000049E0508000000000000000015D2020848
:10190000A8610000010000000000000000000000CD
:1019100000000000000000000000000000000000C7
:1019200000000000000000000000000000000000B7
:1019300044B9050800000000000000005504040838
:10194000A08601000100000000000000000000006F
:101950000000000000000000000000000000000087
:101960000000000000000000000000000000000077
:10197000B88C05080000000000000000CDD302086C
:10198000A00F0000010000000000000000000000A7
:101990000000000000000000000000000000000047
:1019A0000000000000000000000000000000000037
:1019B00050B905080000000000000000FDF3030816
:1019C00010270000010000000000000000000000DF
:1019D0000000000000000000000000000000000007
:1019E00000000000000000000000000000000000F7
:1019F000688B0508000000000000000055E803089F
:101A00001A4100000100000000000000000000007A
:101A100000000000000000000000000000000000C6
:101A200000000000000000000000000000000000B6
:101A3000188D050800000000000000006165020824
:101A4000102700000100000000000000000000005E
:101A50000000000000000000000000000000000086
:101A60000000000000000000000000000000000076
:101A700094B5050800000000000000005916020897
:101A80001A410000010000000000000000000000FA
:101A90000000000000000000000000000000000046
:101AA0000000000000000000000000000000000036
:101AB0005CB9050800000000000000006D6B020822
:101AC000400D0300000000000000000000000000C6
:101AD0000000000000000000000000000000000006
:101AE00000000000000000000000000000000000F6
:101AF00064B905080000000000000000D3D102080E
:101B0000400D030000000000000000000000000085
:101B100000000000000000000000000000000000C5
:101B200000000000000000000000000000000000B5
:101B30006CB90508000000000000000079FE0308F1
:101B400050C300000300000000000000000000007F
:101B50000000000000000000000000000000000085
:101B60000000000000000000000000000000000075
:101B700078B905080000000000000000A96403080F
:101B800040420F00000000000000000000000000C4
:101B90000000000000000000000000000000000045
:101BA0000000000000000000000000000000000035
:101BB00084B905080000000000000000A5D3020859
:101BC00050C3000000000000000000000000000002
:101BD0000000000000000000000000000000000005
:101BE00000000000000000000000000000000000F5
:041BF0000000803F32
:10800000704700BF70B50C4C23689BB15A68821A48
:10801000002A0FDB0546002603E05A68AA1A002A48
:1080200008DB9A681E73226018461A689047236816
:10803000002BF2D170BD00BF44750020E8B170B4D0
:108040000E4E102433460125002203E001324E2A51
:108050000CD01C79A04203F12003F7D1A94208D02B
:1080600039B1013201354E2AEDB2F2D1002070BC97
:10807000704706EB421070BC70477047743E0508AD
:1080800010B40A49002301E0152B0AD003EB430288
:1080900001338C5C84420A44F6D110465DF8044BEF
:1080A000704700205DF8044B704700BF88790020BE
:1080B000436A8269D154436A0169C26B01338B42BE
:1080C00028BF00234362DAB1EFF31183502282F319
:1080D0001288C26B1168C9070ED470B45468FCB919
:1080E000D0E909518D4211D1012280F86020DBB224
:1080F00083F3118870BC7047DBB283F3118870473B
:10810000C26DD36843F08003D360704786690E4424
:10811000D6600ED9691A51608562002180F860101E
:10812000116841F00101DBB2116083F3118870BC6A
:1081300070470569691A51608462EEE7034610B41E
:10814000846BD968406954B11A6D8C1A013A005D8C
:108150005DF8044B08BF0A46C0B21A6570471A6A38
:10816000805C01328A4228BF2246C0B21A625DF8A2
:10817000044B7047C36B13B190F860007047D0E9AF
:108180000903181AB0FA80F040097047D0E90912C3
:108190000369914238BFC9188A1AC16B013B19B1F2
:1081A00049680A449A4201D2981A704700207047E1
:1081B000836B43B1026D5B689A4291BF981AC068A5
:1081C0009B1AC0187047D0E907239A422FBFD01AD4
:1081D000C0688018C01A70470A4B30B503F10C0410
:1081E00093F900205D78072AC8BF143A8118043338
:1081F0008D7213F8025C855413F8012C0A759C42A9
:10820000EED130BD58EC040803682DE9F0415D6AF9
:108210001DB12B46BDE8F0411847002A174611DD75
:1082200004460E460F4400E023689B6820469847AA
:108230000028F9D0236816F8011B1B6820469847D0
:10824000BE42F1D1BDE8F08103681B69184700BF49
:1082500010B4302142243322002304704170827014
:10826000C3705DF8044B7047D3B2022B23D8F0B42F
:10827000124F134D02EB42063C46B600002304E0C9
:108280000133172B14D054F82C5FA842F8D125796C
:108290008D42F5D1A519ED68002DF1D02C2101FBFF
:1082A00003F30C20083310FB0233F818F0BC7047BE
:1082B0000020F0BC70470020704700BF3C48050814
:1082C0000000014010B40B49002301E0152B0BD036
:1082D00003EB430201338C5C84420A44F6D192F9E9
:1082E00002005DF8044B70474FF0FF305DF8044B1F
:1082F000704700BF887900202DE9F04385B0B2F1C6
:10830000FF3F894690461946BDF830500D9F23D057
:10831000060900F00F044036CDE900423346154A05
:108320002846B847A8B1424699F80510D9F8000088
:10833000FFF79AFF68B10388DAB20392C3F303220E
:108340001B0B0292CDE900430B4A3346002128461D
:10835000B84705B0BDE8F0836B06FAD40309074AB5
:1083600000F00F000C9040332846BC4605B0BDE835
:10837000F0436047B0520508C2520508EB520508A9
:10838000038A2DE9F047B0F80C9019EA030928D0C8
:108390000E4605464FF000474FF00008B9FA89F342
:1083A00027FA03F2D24391B21B3B09EA0209298260
:1083B000042B13D8DFE803F0322920170300736A77
:1083C000002B34D1EB6A1FFA83FA346A34B1236884
:1083D0002046514698476468002CF8D1B9F1000F47
:1083E000DCD1BDE8F0873068696B036889B29847D3
:1083F000B9F1000FD2D1F4E77068A96B036889B2B4
:108400009847B9F1000FC9D1EBE7B068E96B036891
:1084100089B29847B9F1000FC0D1E2E7F068296C42
:10842000036889B29847B9F1000FB7D1D9E703F1D2
:10843000FF3A1FFA8AFAC6F82480C6E730B5044628
:10844000C06D21718389A26823F400531B041B0CA7
:10845000838185B06379009213F0040F4FEA0332F1
:108460004FEA03230CBF00254FF4805503F48063CB
:1084700002F40052ADF80450ADF80830002511F0B8
:108480000103ADF80620ADF80C501CD1ADF80A3050
:1084900008238A07694648BFADF80A3021F0C6FFB5
:1084A000637913F0080FE36D9A8A05BF22F0080282
:1084B000120442F00802120C9A829A8942F4005285
:1084C0009A8105B030BD0423ADF80A300C23E0E7F3
:1084D00030B50446C06DA160838923F400531B04AA
:1084E0001B0C8381637985B013F0040F009108BFE2
:1084F0000025217918BF4FF48055ADF804501A03B8
:1085000000251B0203F48063ADF80A50ADF80C504F
:10851000CD07ADF8083002F4005244BF0423ADF893
:108520000A30ADF806204CBF0C2308238A076946A1
:1085300048BFADF80A3021F079FF637913F0080FD6
:10854000E36D9A8A05BF22F00802120442F0080285
:10855000120C9A829A8942F400529A8105B030BD79
:10856000F8B50C4C0C4E0D4F04F5407520683AF0F0
:1085700013FB616811B130463AF0CEFEA16811B12B
:1085800038463AF0C9FE10343AF016FBAC42EDD151
:10859000F8BD00BF64EC0408FF5205080553050848
:1085A00038B50B4B03EBC0040D4694F80024094882
:1085B00003EB8203D3F80C133AF0AEFE94F80634C2
:1085C0002BB1691C0448BDE838403AF0A5BE38BD5F
:1085D00058EC040808530508FEB505087FB50A4B9A
:1085E00004930A4B03930A4B02930A4B01930A4BE1
:1085F00000930A4A0A4B0B490B483AF08DFE07B02C
:108600005DF804EB3AF0D8BA4E5305085353050809
:108610005D53050866530508725305080B5305089A
:108620002356002018530508235305082DE9F04F61
:10863000002489B0834692460D4626464FF019091C
:108640004FF46178BAF1000F22D004EB84030AEBF7
:108650000307052239462846079346F081FA3A79FE
:10866000079B19FB02820492FA781AF8033019FB6F
:1086700002820392BA780292B0FA80F67A78019276
:1086800076090093104A2346314658463AF078FF5F
:108690002B790D4A19FB03830493EB7819FB0383B1
:1086A0000393AB7802936B78019315F8053B009325
:1086B00031462346584601343AF07AFF0A2CC1D19C
:1086C00009B0BDE8F08F00BF785305082DE9F047E9
:1086D000344F8CB00646894615460024C4EBC403CB
:1086E00009EB0302106891889279089040F30748DB
:1086F000ADF824108DF82620B8F1000F4AD0002DD7
:108700004DD02B440AA918689A880A909B79ADF835
:108710002C2008A807228DF82E3046F021FA9DF86B
:108720002E3006939DF92D3005939DF92C3004933E
:108730009DF82B3003939DF92A300293B0FA80FA0A
:108740009DF8293001934FEA5A1A9DF8283000937A
:108750003A462346514630463AF012FF9DF82630FD
:1087600006939DF9253005939DF9243004939DF8D7
:108770002330CDE902839DF8213001939DF820300C
:1087800000933A4623465146304601343AF010FFF2
:10879000102CA3D10CB0BDE8F0473AF00DBAAA46B0
:1087A000DCE700BF8E5305082DE9F04FDFF818B164
:1087B00089B08046894616460D4614460027002E8D
:1087C0006DD00C222146284646F0CAF994F90B30A8
:1087D000049394F90A300393B4F908300293B4F97E
:1087E00006300193B0FA80FAB4F9043000934FEAEE
:1087F0005A1A3B465A46514640463AF0C1FE95F950
:108800000B30049395F90A300393B5F908300293BD
:10881000B5F906300193B5F9043000935A463B464A
:108820005146404601373AF0C3FE082F05F10C05CA
:1088300004F10C04C3D10024DFF890A0254686B3D0
:108840000027012303FA07FB325959F8043053403B
:108850003BEA030314BF0123002312EA0B0F079323
:1088600006D000972B465246079940463AF088FEBC
:1088700059F804301BEA030F06D000972B465246E6
:10888000079940463AF094FE01370E2FD9D10135B1
:10889000082D04F10C04D2D109B0BDE8F08FB24626
:1088A000ADE73746012359F80420BB40134206D0F8
:1088B00000972B465246012140463AF079FE013797
:1088C0000E2FEFD1E3E700BFAB530508C3530508F4
:1088D00070B5364C36483AF05FF994F82530012BE4
:1088E0005ED13448344E3AF06BF994F82C300BB129
:1088F000238D13B194F8263043B9B6F898502F4819
:108900003AF04AF98DBB2E483AF05AF92D482E4DCF
:108910003AF042F994F82B3005EB8303D3F8B00416
:108920003AF0EBFCB6F8941028483AF0F5FC94F8CD
:1089300026302BBB26483AF043F926483AF02CF96A
:1089400094F82C3005EB8305D5F8B8043AF0D5FC43
:10895000B6F8961020483AF0DFFC94F82C309BB91A
:108960001E48BDE870403AF02BB94FF47A72B5FB5F
:10897000F2F102FB115292B219483AF0BEFCC5E77F
:1089800018483AF01DF9D8E7238D23B91648BDE8F9
:1089900070403AF015B91548BDE870403AF010B98A
:1089A0001348BDE870403AF00BB900BFD08C0020EE
:1089B000D8530508EE530508C0280010F5530508E4
:1089C000105405082254050858EC040838540508CA
:1089D000555405086554050880540508A354050836
:1089E0001A5405085C540508565405085D540508DA
:1089F000A8540508F7B57D4D2C7C012C03D195F9C1
:108A00001400461C01D10021A4E00328FBDC784EB1
:108A1000242303FB00635A68002AF4D0697D4900CF
:108A2000C9B299757521D975002159760DF10707DD
:108A30009C761C765C751975C3E907779388990550
:108A400078D41388DB0571D44FF4805413889F05C4
:108A500068D5013CFAD1674A138801339BB2138071
:108A60003DF02AF8214675E003287EDC604E242381
:108A700003FB00635A68002A77D0697D4900C9B2B8
:108A800099751A21D975002159760DF107079C7641
:108A90001C765C751975C3E90777938899056ED4C0
:108AA0001388DB0567D44FF4805413889F055ED587
:108AB000013CFAD14F4A138801339BB213803CF03A
:108AC000FBFF21466AE0032872DC494E242303FBA6
:108AD00000635A68002A6BD0697D4900C9B2997554
:108AE0001B21D975002159760DF107059C761C765E
:108AF0005C751975C3E9075593889C0562D4138882
:108B0000D9055BD44FF4805413889B0552D5013CA2
:108B1000FAD1384A138801339BB213803CF0CCFF62
:108B200021465EE0138843F480731380938843F4F6
:108B30004073938024234FF4805403FB00635A7DD9
:108B400012B1013CFBD186E71B7D002B7FF45BAFAC
:108B50009DF8071028483AF0D0FB2C7C012C04D15A
:108B600095F91400461C7FF47FAF002116E01388AE
:108B700043F480731380938843F4407393802423D9
:108B80004FF4805403FB00635A7D12B1013CFBD1CA
:108B900090E71B7D002BE8D19DF8071017483AF0AD
:108BA000ACFB2C7C012C03D195F91400461C8AD116
:108BB000002116E0138843F480731380938843F4F4
:108BC0004073938024234FF4805403FB00635A7D49
:108BD00012B1013CFBD19CE71B7D002BE8D19DF835
:108BE000071007483AF089FB03B0F0BDD42000100D
:108BF00070500020E44B0020B6540508C954050805
:108C0000DC540508044B054A05491B6812680968CD
:108C100004483AF072BB00BF187AFF1F147AFF1F96
:108C2000107AFF1FEF5405082DE9F74F824640F2F6
:108C300016203CF09DFA214B1B78D0E901490BB975
:108C4000A1461C46002619F8065055B309EB060349
:108C500093F8018084B30023E15CA94204EB030292
:108C600025D15378A3EB08022F09D2F1000B4BEB6F
:108C7000020B403705F00F054CB143B1013BCDE984
:108C800000530F4A3B46594650463AF079FC08F1EA
:108C9000FF33CDE900530A4A3B46594650463AF065
:108CA00087FC03363F2ECED103B0BDE8F08F0333EF
:108CB0003F2BD1D10023D5E72346D3E77015002001
:108CC000035505082DE9F04F354C87B08046354AED
:108CD0002378608802EB8303D3F80C933CF048FAC6
:108CE000D0E901A30493304B1B7813B9CDF810A041
:108CF0009A4608F04003DFF8BCB005930026A3793C
:108D0000002B08BF01239E4206DB284B08349C42FF
:108D1000DDD107B0BDE8F08F6279237906FB03232C
:108D2000049A0136D55CBAF1000F11D1B5FA85F776
:108D30007F090DB305F00F032D0940350293CDE9EE
:108D400000654B465A46394640463AF031FCD6E774
:108D50001AF80330EA1A57425741C3B103F00F0221
:108D60001B0940330292CDE900635A464B4639460F
:108D700040463AF005FCDCE7059B002BBFD100968E
:108D80004B460B4A394640463AF012FCB7E700968C
:108D90004B46074A394640463AF0F2FBC9E700BF66
:108DA00058F0040858EC04087015002008F1040875
:108DB00029550508135505080246531C084605D1D8
:108DC000044A1168127901600271704702493AF051
:108DD0005FBE00BF325B0508FFB50508F8B5084F58
:108DE0004D1E064601F11F0415F8012F3046394685
:108DF0003AF04EFEA54206F10206F5D1F8BD00BFDD
:108E00003D5505082DE9F04F6C4BDA7893B0984644
:108E1000002A00F0A7806A4839F0D2FE0025DFF86A
:108E2000D4A1DFF8D4B10795A94608A9E8B22DF07E
:108E300055FE9DF82830002B6ED0022D40F09F800B
:108E40009DED117AB5EE407AF1EE10FA00F08E80C9
:108E5000DFED5C6AC6EE877AFDEEE77AF8EEE77A38
:108E6000FDEEE77A17EE906A9AF80040089B012C15
:108E70007ED996FBF4F41A46022153483AF04CFA94
:108E80000D9A002A00F0908041F2883002FB040025
:108E90004FF47A73B0FBF3F00F9B002B00F0868049
:108EA00041F2883103FB04114FF47A7CB1FBFCF1F1
:108EB000062D03D0079F0F448144079798F803C0FD
:108EC000BCF1000F74D04FF47A7C0E9FB7FBFCFC12
:108ED000CDF810C04FF00A0C91FBFCFE0CFB1E11EC
:108EE000CDE902E190FBFCF10CFB1100CDE9001093
:108EF000214636483AF001FA022D08D19AF800309E
:108F0000012B04D93246099958463AF0F6F9304B0C
:108F100003EB851300229A6301351A2D85D198F849
:108F20000330E3B12B4B2C4819682C4B1A684FF4D3
:108F30007A73B1FBF3F32A49520909683AF0DDF973
:108F40000798079B0A2293FBF2F302FB130799FB96
:108F5000F2F1009702FB119222483AF0CEF913B0D9
:108F6000BDE8F08F204839F02BFE57E700267BE75D
:108F7000099A1E4802213AF0CFF9344680E7109C46
:108F80005CB107EE904ADFED0F6AF8EE677A86EE85
:108F9000A77AFDEEC77A17EE904A089A0A48294642
:108FA0003AF0BAF900266BE7104675E719467FE7F5
:108FB00021460F483AF0A1F99EE700BF1C56002059
:108FC000425505080024744997550508B955050808
:108FD000E80E0020FC4F0020ED550508F44F00205E
:108FE000005000200D5605088D550508A6550508AA
:108FF000E9550508A82A0020DD5505082DE9F04FA0
:10900000AE4BAF491A68AF48AF4BB2FBF3F297B023
:109010003AF082F9AD4BAE4FDFF88083BD680FCBDD
:109020000AAE86E80F00C5F38105AA4B0593012D12
:10903000A94BC8BF7C68069316AB03EB8503C8BF7A
:10904000C4F38054012D53F8301CD8BFA34AA44860
:10905000C4BF16AB03EB8404A8F2D446C8BF54F8CF
:10906000442C3AF059F92DF027FA4FF47A729D4BBF
:10907000B0FBF2F102FB1102B3F900300A2089B211
:1090800092B2B2FBF0F298483AF037F9974A984911
:1090900098483AF041F939F08FFD974B974A984834
:1090A000D21A984B59883AF028F9974BD3F8009088
:1090B000002406F2F44A58F82470A30007B30125EF
:1090C000A54015EA090F19D0EA0617D08F4A53F8C0
:1090D0000A30125D53F822B014B18D4839F05CFDAE
:1090E0005A4639468B483AF017F9022D06D18A4B79
:1090F00093F8251011B189483AF00EF90134DAE7F6
:1091000039F05AFD864B874819684FF47A73B1FBE2
:10911000F3F13AF001F907A83AF068FD58B1824A34
:1091200007A93B46B2F900200EA83AF0B7FD0EA9F8
:109130007E483AF0F1F839F03FFD7D49D1F89C20A6
:10914000002A00F0A28007EE902ADFED7A6AB8EEDE
:10915000E77AC6EE877AFDEEE77ACDED037A764BB5
:109160001B885BB107EE903ADFED726AF8EE677A22
:1091700086EEA77AFDEEC77A17EE903AC96959B123
:1091800007EE901ADFED6B6AF8EEE77A86EEA77AC3
:10919000FDEEC77A17EE901A6848694F0088642878
:1091A000CDE900310146039B6648A8BF64213AF02F
:1091B000A4F8654B654A1B786549127809886548AB
:1091C00006EB83060125D6F80835634E3AF095F88C
:1091D000624B634819883AF090F8624839F0DCFC39
:1091E000614B1C68002C52D139F0E6FC5F4B1B78B8
:1091F000002B47D05E4B5F4819685F4D5F4E604F54
:109200003AF07BF85F4B604819683AF076F85F4BAC
:109210005F4819683AF071F82B7821468B4204F1C7
:10922000010442DC5B4B5C4D9B78DFF87491092BA9
:109230000BBF602614264FF008084FF020080024CA
:109240002F4655F82410484601343AF065F8A045F9
:10925000F7D139F0B1FCDFF84881012507EB850231
:1092600057F8253052F8041C33445B1A404693FBF0
:10927000F6F1023506FB11313AF04EF8A542EDDB6E
:1092800039F09AFC17B0BDE8F08F039267E794FAC3
:10929000A4F3B3FA83F305FA03F256F82310384621
:1092A00024EA02043AF038F89CE706EB0423384637
:1092B00033F8EE2C3AF021F8AEE700BF486D0020FD
:1092C0003B5605084056050840420F001CF10408B3
:1092D00000380240535605085856050860B705087F
:1092E0005D5605084C46002065560508F0FF001045
:1092F00000080000865605080040000800800008AD
:10930000AA5605087015002040490020540200208C
:10931000D4560508D7560508D0190010DD560508A3
:10932000506D0020E1560508385C0020FB5605080A
:10933000E80E0020002474495C180020000500108D
:10934000CE5B05080E570508444900205244002012
:109350004C44002054570508D8380508E44B002039
:109360007B5705088A570508BC4A00203C28001096
:10937000544F0020A0570508B82800104C7B00204F
:10938000DC570508B01A0010B05705081C00001083
:10939000C7570508307B0020200000102CF104087E
:1093A000F3570508F0B58BB0054639F047FB0028A8
:1093B00069D03649002201200BB0BDE8F040FFF72C
:1093C000F3B92D2903D0A1F13003092B56D8052C70
:1093D00004DD0BB0BDE8F04039F07EBF28463AF01E
:1093E0005BFF0AAB621C03EB440424F80C0C15F879
:1093F000013F303B092BFAD9144629780029E0D1E6
:10940000062CE6D1BDF91C309AB2072AE1D8BDF985
:109410001E40A4F2EE2292B240F2DC508242D8D832
:10942000BDF92050A5F2EE2292B28242D1D8BDF908
:109430002260B442CDDCB542CBDBBDF9247007F12C
:10944000640292B2C82AC4D8BDF926001128C0DC33
:10945000DFF838C00C2202FB03C240B29480D580F2
:1094600016819772D072CDE90370CDE90156009450
:10947000074A08463AF09CF80BB0F0BD2029A8D165
:1094800001352246B8E70446B7E700BF781C002044
:10949000AB53050838B5114D0446204639F0CEFAD5
:1094A00060B10F4B0F4893F900104B1C0ABF0E4BD5
:1094B000C9B25978BDE8384039F01FBF20463AF0AC
:1094C000EBFE052804D8C0B22CF0ECFE2C46E4E7F5
:1094D00005210648BDE8384039F0E8BE60B7050808
:1094E00088010020F75705081C560020065805087B
:1094F000052838B50D460FD8084C2070084839F0BB
:1095000065FB0848FFF7C6FF39F056FB29461020D7
:109510003BF044FEFF23237038BD00BF88010020CC
:109520002658050860B7050838B5044639F086FAAC
:1095300080B3224B5B680133182B21D820490C22C1
:1095400002FB03121C4695684DB91D4A0C210134DB
:10955000182C17DD002401FB042085689DB1174BF2
:109560005C6027F009FA2A462146164839F0C5FE04
:109570000C235C43124B185DBDE8384027F018BA45
:109580001C46E2E7E7D99C42E1D10F48BDE83840EC
:1095900039F08CBE20463AF07FFE1828044606D8E3
:1095A000074A0C2303FB00239D68002DD7D12146D9
:1095B0000648BDE8384039F0A0BE00BF8801002051
:1095C000C01105085C5805083258050846580508BA
:1095D0002DE9F341054639F031FA044620B139F05E
:1095E0007BFE02B0BDE8F081284601AA2949DFF8D8
:1095F000A48043F0ECFF27460546264675B9022CA9
:10960000EDD1A7F57A73B3F57A7F1ED94FF4FA62DC
:109610004FF47A71204839F058FEE2E74CB1012C42
:109620000ED001AA4146002043F0D1FF0134054687
:10963000E4E7284642F058F9431C0646F1D1D0E74A
:1096400028463AF029FE0746EBE7B8B20BF0BEFD1C
:10965000FF2EBCEEC00A114B0BD1114AF8EE407A36
:109660001278AA4212DC10EE101A0E4839F045FEAC
:10967000B7E7F8EE407A03EB860310EE102A314686
:109680000948C3ED007A39F038FEAAE7E3EC017A25
:109690000135E6E7235C0508725E05089019002095
:1096A000B82800107E58050871580508014B586805
:1096B00036F0A0BE701500202DE9F04F4A4085B06D
:1096C00098461D4FD34306460D460024039320467B
:1096D00027F040F90E9B184228D0039B174ADFF869
:1096E00060A0034214BF4FF001094FF0000910EAD7
:1096F000050302934FF00C0303FB04234946D3F800
:1097000008B0CDF800B014BF3A4652464346304642
:1097100039F036FF029ACDF800B04346002A14BF54
:1097200052463A464946304639F042FF0134182C39
:10973000CDD105B0BDE8F08FF3B60508C01105081E
:109740008D58050838B5044642F078FF0546E0B16B
:10975000114B1B788BB1114842F070FFA8420246B2
:1097600004D121460D4845F04FFA58B10B4A0C4937
:109770000C48BDE8384039F099BD0422214607481D
:1097800045F054FA084B01221A7204490748BDE813
:10979000384039F0B2BD00BF645000202050002096
:1097A00094580508A458050870150020CE580508DF
:1097B00038B5044642F042FF0546E0B1114B1B7834
:1097C0008BB1114842F03AFFA842024604D121462B
:1097D0000D4845F019FA58B10B4A0C490C48BDE840
:1097E000384039F063BD14222146074845F01EFA7F
:1097F000084B01221A7204490748BDE8384039F085
:109800007CBD00BF6450002008500020E1580508CE
:10981000A458050870150020EC58050870B50646D8
:1098200042F00CFF124C054690B111220021204657
:1098300045F0BEF92A460F49304645F0E5F938B102
:10984000102D2A46314628BF1022204645F0EEF959
:109850002378074A002B08BF0121064B1CBF0021BB
:1098600013460120044ABDE8704039F0A1BE00BF94
:109870009C69002020B10508F258050870B505461E
:1098800042F0DCFE044690B1112200210F4845F061
:109890008FF922460E49284645F0B6F938B1102C0A
:1098A0002246294628BF1022084845F0BFF9094B37
:1098B00013F8112F002A064A06BF01211346002182
:1098C000054A0120BDE8704039F072BEAD69002044
:1098D00020B105089C690020FA5805082DE9F047D9
:1098E0008AB0824639F0AAF8064638B100224749C4
:1098F0000120FEF79BFE0AB0BDE8F08750463AF023
:10990000CBFC092804467ADC850005EB00080AF147
:1099100001008DF81F6039F099F83C4F824608EB42
:1099200007093E4650B13AF0B7FC0D2806D89DF81D
:109930001F3008F8070001338DF81F30504639F00A
:1099400085F8824658B13AF0A7FC052807D82B19AC
:10995000334458709DF81F3001338DF81F30504646
:1099600039F074F8824658B13AF096FC082807D8C6
:109970002B19334498709DF81F3001338DF81F3038
:1099800008F103010DF11F02314450463BF038F855
:109990009DF81F20052A2AD1002308A948460893CC
:1099A0008DF8243045F0DCF82B19334493F801C0CE
:1099B00020B1BCF1000F1AD09B78C3B125447219B5
:1099C0004FF461701179192313FB01010491D178CF
:1099D00013FB0103039393780D4ACDE901C30021E2
:1099E000735D00930846234639F0E2FD83E70023C8
:1099F00048F8073089F8043039F06EFC7BE709221B
:109A00003146044839F061FC75E700BF2851002059
:109A1000785305080A5905087FB5054639F00EF850
:109A2000044630B100221849012039F0D5FD04B0B8
:109A300070BD28466A461549144E43F0C8FD01AD75
:109A400078B1032C02D139F047FCF0E73AF024FC5E
:109A50006A4645F824003146002043F0B8FD013441
:109A6000EEE7032CEFD1DDE90145039E294632469E
:109A7000E0B235F017FF0028E5D033462A462146EC
:109A8000034839F03AFCD2E7B4520020235C0508C1
:109A900010590508022810B504460BD8084B09498F
:109AA000094AC0EB401003EB800318460B601470AA
:109AB0000AF0C8FF601CC0B2BDE8104027F0A6B88D
:109AC0009C220020C44A00201C5600202DE9F04FA3
:109AD000A14BA24D1B7895F80090DB0785B080461E
:109AE0003FD59F4C9F4EB9F1010F66D0C0F08280E8
:109AF000B9F1020F2AD0E37B83B1A38973B19A4BEA
:109B00001B785BB12CF0E4FB002800F0EE80237C96
:109B100083422CBF01220022327000E03278217A89
:109B2000632907D89148B9F1020F037870D0002B50
:109B300040F085808E49A37B914538BF914681F8DE
:109B40000090002B4AD105B0BDE8F08F894A8A4BBE
:109B500012881B889A42CED94FF0010985F80090EF
:109B6000C9E7844F7E4C3A88A9F10303012B40F2E8
:109B700082807B88D31A002BB8BF5B42142B05DC94
:109B8000E388934265D82188914262D3754E7B4B1E
:109B90001B78022BA7D17A883B8873499B1A002B2C
:109BA000B8BF5B42142B764A09789180CCBF002362
:109BB0000123B9F1010FD38098D16F4B6D4A1B88F7
:109BC000617C12885B1A9A4234DD6E4B1B8893428B
:109BD00091D24FF0000985F800908CE7B9F1010FA0
:109BE0007DD0B9F1020FAED1072005B0BDE8F04F2E
:109BF00026F0DEBE634B5F4A1B88617C12885B1ACD
:109C00009A423FF778AF4FF0010985F8009072E76C
:109C1000ABB90125C0F804800570C1F164015A4D4B
:109C200003FB01F385FB0351DB17A3EBA153643363
:109C300043707FE74FF0020985F800905BE74368C7
:109C4000524DA8EB0303AB42C8BF41703FF772AF60
:109C5000E3E7B2EB430F434E99DC43484949464A98
:109C600000234FF0030986F8009085F800900370F8
:109C70000B8013808BE7E388934228D82188914298
:109C800025D37B88D31A002BB8BF5B42142B3FF738
:109C90007DAF344E237D4FF0000E86F800E085F84E
:109CA00000E02BB3304AF1461370A188354AB4F86E
:109CB00002C031489BB211FB03F111801CFB03F37E
:109CC0002A4A038064210023517053605FE7B2EB9E
:109CD000430FD6DCB9F1030F3FF458AF49E7082032
:109CE00005B0BDE8F04F26F063BE0222327016E7E1
:109CF000274B21881B68B2FBF1F10131082993F948
:109D00007420DFF86490A8BF0821CBB28A4289F89A
:109D100000306ED0002A6CD01E4ADFF880C092F866
:109D200000B00BF10102ACFB02A0400800EB4000C8
:109D3000101A584502905CD0174AC0EB401E02EB47
:109D40008E0E9EF974E08E454BD0CDF804C04FF0D6
:109D5000FF3A0393024627E0D23B0020704F0020D9
:109D6000703B0020984F002052440020784F002084
:109D7000444900204C440020744F0020C83A002081
:109D8000CC3A0020724F00206BCA5F6B7F96980020
:109D9000C44A00201C5600209C220020ABAAAAAA7C
:109DA0009CF974E08E4527D002F1010C019AA2FBC8
:109DB0000C32520802EB4202ACEB02020F4BC2EB38
:109DC000421CBAF1000F03EB8C0C03DABEF1000F5A
:109DD00008BF82465A451046E2D1039B50460028F0
:109DE00007DBC0B2FFF756FE99F8003095F80090F7
:109DF0005BE74FF0000958E7039BF0E79C22002047
:109E000038B5114D0446204638F018FE60B10F4BAE
:109E10000F4893F908104B1C0ABF0E4BC9B21978B2
:109E2000BDE8384039F069BA20463AF035FA0228E0
:109E300004D8C0B2FFF72EFE2C46E4E70221064804
:109E4000BDE8384039F032BA60B705088801002013
:109E5000FB5705081C5600200B5805082DE9F74F45
:109E60003A4B3B4C1A785B7800902272237038F0A2
:109E7000CFFE3BF06BF90025DFF8D8B0A8460D27E0
:109E8000344B00996F43DE19D6F8009048463AF0FB
:109E900059F900283DD0B8F1000F01D038F08CFE00
:109EA00049462D485F4439F037FA002130463BF0EF
:109EB00033FA38F081FE3B7903F01803082B3AD0CF
:109EC000102B3CD0304639F034FA0D2303FB05B398
:109ED000B3F809003BF04CF90746C0B1304638F002
:109EE000C2FDD7E90121824602440144304638F0E0
:109EF000F3FD60B901904946184839F00DFA7968C8
:109F0000019A5144304639F07BFA38F055FE08F199
:109F100001080135B5F5E87FB1D138F063FEFF23C4
:109F200023722370B8F1000F0DD10D4803B0BDE8C6
:109F3000F04F39F0BBB90B48FFF762FFC2E70948A1
:109F4000FFF7A8FABEE703B0BDE8F08F1C5600206B
:109F500088010020D0F8040808B80508245905082D
:109F60003459050860B70508022838B50D460FD8E2
:109F7000084C2072084838F029FE0848FFF740FFD7
:109F800038F01AFE294608203BF008F9FF23237217
:109F900038BD00BF880100202A58050860B70508B1
:109FA000484B1B68B3F5FA7F10B500F28280464B30
:109FB0005A899989914224BF00225A81198ADA89E3
:109FC000914228BF0022998B28BFDA81DA8B914217
:109FD00084BF00229A839A783C49012A91F858104C
:109FE00026D00A2929D00C2960D19FED397A394C25
:109FF000A278062A97BF3849DFED386A01EB820163
:10A00000D1ED006A217921B3013A032A0AD8B7EECB
:10A01000000A80EE260A43F085FB2388984228BF79
:10A02000184620802E4A9378013B012B0ED910BD93
:10A030002C485A700A29027036D19FED2B7A012ADA
:10A04000D5D10A293AD19FED297AD0E70023937020
:10A0500010BD5B78234907EE903A0A78F8EEE77A6C
:10A0600067EE877A07EE102AB8EEC77A27EE277ACE
:10A07000F4EEC76AF1EE10FAD4DD86EEA77AFDEEB3
:10A08000C77A17EE903A102BA8BF1023012BB8BF48
:10A090000123DBB29A4238BF1A460A70104A9378FD
:10A0A000013B012BC3D8D1E70C2907D09FED107AD3
:10A0B000C5E74FF0005038F079FE78E79FED0D7A54
:10A0C00095E700BFC4200010C8790020D4200010FC
:10A0D0000AD7A339307B002074F104086F120338CB
:10A0E0002C560020A82A00205304E9380F506E3A5D
:10A0F0006F1203396F12833A70B5234A234953789C
:10A10000D47B12782248234E03EB4305002C03EB4B
:10A110008503214C214DC2EB421200EB430301EBBE
:10A12000820214BF2821202133602260296011F0AF
:10A1300091F9302200211A4844F03AFD20680AF0D3
:10A1400081FC0DF0F9FD174A17491079174A184B91
:10A150001160C822642111FB00210022C3E9011211
:10A16000C3E90322C3E90522DA6183F8202083F8DA
:10A17000212019F095FA0F4B997B98890BF0B2FCCE
:10A18000BDE8704035F0F2BB1C5600209C22002038
:10A190001C5A0020C84A0020C44A00200C000010AD
:10A1A000E81E00206C24002094560020384C00202B
:10A1B000D43B002070150020074B1B7853B9074B88
:10A1C00000F1200250F8041B43F8041B9042F9D11F
:10A1D0000120704700207047655000202850002063
:10A1E0002DE9F0419AB0074642F028FA01AD064643
:10A1F00020220021284644F0DBFC16B3402E07D075
:10A20000402231462B4839F051F81AB0BDE8F081B0
:10A210000024A046022207EB4401684644F006FDF4
:10A220000023102209A968468DF8028039F0BCFF8E
:10A23000099B0DF1020293421CD128550134202CB8
:10A24000E8D14122002109A844F0B2FC36B31A4BF0
:10A250001B78A3B120221949284644F081FC70B133
:10A2600009A81649FEF7BAFD09AA1549154839F09B
:10A270001DF8CAE71978144839F018F8C5E72846D8
:10A28000FFF79AFF114B0D49012209A81A74FEF736
:10A29000A5FD09A90E4839F030F8B6E70B4B1B7C39
:10A2A0001BB9054B1B78002BF3D0044909A8FEF716
:10A2B00095FDEEE741590508655000202850002023
:10A2C0007F590508A4580508635905087015002032
:10A2D0008959050838B5164C94F84E30002B154BAB
:10A2E00014BF012200221A700BD0042204F13401A1
:10A2F000114844F09BFC142204F139010F4844F04A
:10A3000095FC94F84F30002B0D4B14BF0122002216
:10A310001A700CD00B4C0C4A04F12005234603CBD9
:10A32000AB42106051601C4602F10802F6D138BD04
:10A33000701500206450002020500020085000209C
:10A3400065500020841500202850002038B50C4BA3
:10A350001B789BB90B4B0C4C03F12005186859680E
:10A36000224603C20833AB421446F7D1074B0124FF
:10A3700083F84F40FFF7AEFF204638BD0020FCE7D2
:10A380006550002028500020841500207015002002
:10A3900038B50C4B1B789BB90B4D0C49042205F1C9
:10A3A000340044F043FC01241422094905F139002A
:10A3B00044F03CFC85F84E40FFF78CFF204638BD4A
:10A3C0000020FCE764500020701500202050002081
:10A3D00008500020F0B50C2934D8DFE801F08A33AA
:10A3E00033335F333333343333330700048C96898C
:10A3F000B2F802C01788744D24F480542404240C4D
:10A400000484038C8488818B23F4005321F4E64177
:10A410001B0409041B0C46EA0C06090C43EA06332C
:10A4200041EA0721A8429BB2A4B289B200F09E8003
:10A4300005F58065A84200F0998092688480818348
:10A4400002640384F0BD048C9589B2F802E0178899
:10A450005D4E24F480742404240C0484038CB0F82E
:10A4600004C0818B23F400731B0421F0730145EABF
:10A470000E041B0C090443EA0423090CB0429BB2EE
:10A480001FFA8CF541EA07015BD0504CA04258D02E
:10A49000926885808183C2630384F0BD048C9589B2
:10A4A000B2F802E0B2F800C0474E24F010042404D1
:10A4B000240C0484038C8788018B23F0200321F46F
:10A4C000E6411B0409041B0C45EA0E04090C43EA8F
:10A4D000041341EA0C21B0429BB2BFB289B25BD0F7
:10A4E0003A4CA04258D092688780018382630384EB
:10A4F000F0BD048C9589B2F802C01788324E24F062
:10A5000001042404240C0484018C8488038B21F02E
:10A51000020123F0730309041B04090C45EA0C052E
:10A520001B0CB04241EA0501A4B243EA070324D060
:10A53000264DA84221D0926884800383426301841F
:10A54000F0BDD489168A578A23F4006343EA0423B2
:10A550004FF6FF341C40938825F440553E4344EAAF
:10A56000032345EA06149BB2A5B291E7158A24F4A9
:10A57000804444EA8514A4B25FE7D689158A578AD5
:10A5800021F008013143968824F4407421F004013D
:10A590003D4331432C43CEE7D489168AB2F812C02A
:10A5A00023F0800343EA04134FF6BF741C409388E2
:10A5B00027F4406546EA0C0644EA031345EA86049C
:10A5C0009BB2A7B28FE700BF00000140000401402A
:10A5D0002DE9F0474FF40C7200213448344D354ECC
:10A5E000354FDFF8E480DFF8E490DFF8E4A044F0D2
:10A5F000DFFA324A3248DFF8DCC0DFF8DCE002F58F
:10A600001C6426E0B3F1804F2FD0B34232D0BB425E
:10A6100032D0634532D0734532D0434532D04B45BA
:10A6200032D0534532D027498B4232D001F5806178
:10A630008B4231D0A1F598318B4230D001F5806149
:10A640008B422ED001F580618B422CD02032944277
:10A6500009D013688342D5D101216B6C20320B43A2
:10A6600094426B64F5D1BDE8F08701212B6C0B435C
:10A670002B64EBE70221F9E70421F7E70821F5E76E
:10A680001021F3E72021F1E70221E6E74FF48031C2
:10A69000E3E74FF40031E0E74FF48021DDE74021AC
:10A6A000E4E78021E2E74FF48071DFE71C4D0020F2
:10A6B000003802400004004000080040743E0508D5
:10A6C000000001400044014000140040000401402B
:10A6D00000400140000C0040001000402DE9F8430C
:10A6E000304D2B8AB5F80C8018EA030827D02E4E7F
:10A6F0004FF00047B8FA88F327FA03F2D24391B239
:10A700001B3B08EA02082982042B15D8DFE803F076
:10A71000372D23190300D6F82C32002B39D1EB6AE0
:10A720001FFA83F9D6F8284234B1236820464946F7
:10A7300098476468002CF8D1B8F1000FDAD1BDE871
:10A74000F883D6F80802696B036889B29847B8F1B4
:10A75000000FCFD1F3E7D6F80C02A96B036889B2DA
:10A760009847B8F1000FC5D1E9E7D6F81002E96BB8
:10A77000036889B29847B8F1000FBBD1DFE7D6F87C
:10A780001402296C036889B29847B8F1000FB1D15F
:10A79000D5E703F1FF3900231FFA89F9C6F82C32F7
:10A7A000C0E700BF002000401C4D00202DE9F84309
:10A7B000304D2B8AB5F80C8018EA030827D02E4EAE
:10A7C0004FF00047B8FA88F327FA03F2D24391B268
:10A7D0001B3B08EA02082982042B15D8DFE803F0A6
:10A7E000372D23190300D6F8DC31002B39D1EB6A61
:10A7F0001FFA83F9D6F8D84134B123682046494678
:10A8000098476468002CF8D1B8F1000FDAD1BDE8A0
:10A81000F883D6F8B801696B036889B29847B8F134
:10A82000000FCFD1F3E7D6F8BC01A96B036889B25A
:10A830009847B8F1000FC5D1E9E7D6F8C001E96B38
:10A84000036889B29847B8F1000FBBD1DFE7D6F8AB
:10A85000C401296C036889B29847B8F1000FB1D1DF
:10A86000D5E703F1FF3900231FFA89F9C6F8DC3177
:10A87000C0E700BF001800401C4D00202DE9F84340
:10A88000304D2B8AB5F80C8018EA030827D02E4EDD
:10A890004FF00047B8FA88F327FA03F2D24391B297
:10A8A0001B3B08EA02082982042B15D8DFE803F0D5
:10A8B000372D23190300D6F8B431002B39D1EB6AB8
:10A8C0001FFA83F9D6F8B04134B1236820464946CF
:10A8D00098476468002CF8D1B8F1000FDAD1BDE8D0
:10A8E000F883D6F89001696B036889B29847B8F18C
:10A8F000000FCFD1F3E7D6F89401A96B036889B2B2
:10A900009847B8F1000FC5D1E9E7D6F89801E96B8F
:10A91000036889B29847B8F1000FBBD1DFE7D6F8DA
:10A920009C01296C036889B29847B8F1000FB1D136
:10A93000D5E703F1FF3900231FFA89F9C6F8B431CE
:10A94000C0E700BF004801401C4D00202DE9F8433E
:10A95000304D2B8AB5F80C8018EA030827D02E4E0C
:10A960004FF00047B8FA88F327FA03F2D24391B2C6
:10A970001B3B08EA02082982042B15D8DFE803F004
:10A98000372D23190300D6F86431002B39D1EB6A37
:10A990001FFA83F9D6F8604134B12368204649464E
:10A9A00098476468002CF8D1B8F1000FDAD1BDE8FF
:10A9B000F883D6F84001696B036889B29847B8F10B
:10A9C000000FCFD1F3E7D6F84401A96B036889B231
:10A9D0009847B8F1000FC5D1E9E7D6F84801E96B0F
:10A9E000036889B29847B8F1000FBBD1DFE7D6F80A
:10A9F0004C01296C036889B29847B8F1000FB1D1B6
:10AA0000D5E703F1FF3900231FFA89F9C6F864314D
:10AA1000C0E700BF004001401C4D00202DE9F84375
:10AA2000324D2B8AB5F80C8018EA030827D0304E37
:10AA30004FF00047B8FA88F327FA03F2D24391B2F5
:10AA40001B3B08EA02082982042B15D8DFE803F033
:10AA50003B31271D0300D6F83C31002B3DD1EB6A7A
:10AA60001FFA83F9D6F8384134B1236820464946A5
:10AA700098476468002CF8D1B8F1000FDAD11D496D
:10AA80001D48BDE8F843FDF77BBCD6F81801696B9B
:10AA9000036889B29847B8F1000FCBD1EFE7D6F839
:10AAA0001C01A96B036889B29847B8F1000FC1D1A6
:10AAB000E5E7D6F82001E96B036889B29847B8F159
:10AAC000000FB7D1DBE7D6F82401296C036889B2FF
:10AAD0009847B8F1000FADD1D1E703F1FF3900235A
:10AAE0001FFA89F9C6F83C31BCE700BF00040140F9
:10AAF0001C4D0020FC4E0020001C00402DE9F843B6
:10AB0000304D2B8AB5F80C8018EA030827D02E4E5A
:10AB10004FF00047B8FA88F327FA03F2D24391B214
:10AB20001B3B08EA02082982042B15D8DFE803F052
:10AB3000372D23190300D6F83C31002B39D1EB6AAD
:10AB40001FFA83F9D6F8384134B1236820464946C4
:10AB500098476468002CF8D1B8F1000FDAD1BDE84D
:10AB6000F883D6F81801696B036889B29847B8F181
:10AB7000000FCFD1F3E7D6F81C01A96B036889B2A7
:10AB80009847B8F1000FC5D1E9E7D6F82001E96B85
:10AB9000036889B29847B8F1000FBBD1DFE7D6F858
:10ABA0002401296C036889B29847B8F1000FB1D12C
:10ABB000D5E703F1FF3900231FFA89F9C6F83C31C4
:10ABC000C0E700BF000401401C4D00202DE9F84300
:10ABD000304D2B8AB5F80C8018EA030827D02E4E8A
:10ABE0004FF00047B8FA88F327FA03F2D24391B244
:10ABF0001B3B08EA02082982042B15D8DFE803F082
:10AC0000372D23190300D6F8C430002B39D1EB6A55
:10AC10001FFA83F9D6F8C04034B12368204649466C
:10AC200098476468002CF8D1B8F1000FDAD1BDE87C
:10AC3000F883D6F8A000696B036889B29847B8F129
:10AC4000000FCFD1F3E7D6F8A400A96B036889B24F
:10AC50009847B8F1000FC5D1E9E7D6F8A800E96B2D
:10AC6000036889B29847B8F1000FBBD1DFE7D6F887
:10AC7000AC00296C036889B29847B8F1000FB1D1D4
:10AC8000D5E703F1FF3900231FFA89F9C6F8C4306C
:10AC9000C0E700BF000C00401C4D00202DE9F84328
:10ACA0002F4D2B8AB5F80C8018EA030827D02D4EBB
:10ACB0004FF00047B8FA88F327FA03F2D24391B273
:10ACC0001B3B08EA02082982042B15D8DFE803F0B1
:10ACD000352B22190300D6F89C30002B37D1EB6AB4
:10ACE0001FFA83F9D6F8984034B1236820464946C4
:10ACF00098476468002CF8D1B8F1000FDAD1BDE8AC
:10AD0000F883B06F696B036889B29847B8F1000F98
:10AD1000D0D1F4E7F06FA96B036889B29847B8F116
:10AD2000000FC7D1EBE7D6F88000E96B036889B262
:10AD30009847B8F1000FBDD1E1E7D6F88400296C3F
:10AD4000036889B29847B8F1000FB3D1D7E703F190
:10AD5000FF3900231FFA89F9C6F89C30C2E700BF0B
:10AD6000000800401C4D00202DE9F8432C4D2B8A93
:10AD7000B5F80C8018EA030825D02A4E4FF000479A
:10AD8000B8FA88F327FA03F2D24391B21B3B08EAE0
:10AD900002082982042B13D8DFE803F03229201798
:10ADA0000300736F002B34D1EB6A1FFA83F9346F01
:10ADB00034B123682046494698476468002CF8D18E
:10ADC000B8F1000FDCD1BDE8F883306D696B036822
:10ADD00089B29847B8F1000FD2D1F4E7706DA96B32
:10ADE000036889B29847B8F1000FC9D1EBE7B06D9D
:10ADF000E96B036889B29847B8F1000FC0D1E2E768
:10AE0000F06D296C036889B29847B8F1000FB7D18B
:10AE1000D9E703F1FF3900231FFA89F97367C6E701
:10AE2000000400401C4D00202DE9F8434FF0804500
:10AE30002B8AB5F80C8018EA030825D0294E4FF06C
:10AE40000047B8FA88F327FA03F2D24391B21B3BCA
:10AE500008EA02082982042B13D8DFE803F032291C
:10AE600020170300F36C002B34D1EB6A1FFA83F92F
:10AE7000B46C34B123682046494698476468002C76
:10AE8000F8D1B8F1000FDCD1BDE8F883B06A696B86
:10AE9000036889B29847B8F1000FD2D1F4E7F06A9D
:10AEA000A96B036889B29847B8F1000FC9D1EBE7E5
:10AEB000306BE96B036889B29847B8F1000FC0D1D5
:10AEC000E2E7706B296C036889B29847B8F1000F0C
:10AED000B7D1D9E703F1FF3900231FFA89F9F364E9
:10AEE000C6E700BF1C4D00202DE9F8432E4D2B8AEC
:10AEF000B5F80C8018EA030825D02C4E4FF0004717
:10AF0000B8FA88F327FA03F2D24391B21B3B08EA5E
:10AF100002082982042B13D8DFE803F0362D241B06
:10AF20000300736A002B38D1EB6A1FFA83F9346A85
:10AF300034B123682046494698476468002CF8D10C
:10AF4000B8F1000FDCD11A491A48BDE8F843FDF703
:10AF500017BA3068696B036889B29847B8F1000F77
:10AF6000CED1F0E77068A96B036889B29847B8F151
:10AF7000000FC5D1E7E7B068E96B036889B298476D
:10AF8000B8F1000FBCD1DEE7F068296C036889B224
:10AF90009847B8F1000FB3D1D5E703F1FF3900238B
:10AFA0001FFA89F97362C2E7000001401C4D0020BE
:10AFB000844E0020004401402DE9F8432C4D2B8A9B
:10AFC000B5F80C8018EA030825D02A4E4FF0004748
:10AFD000B8FA88F327FA03F2D24391B21B3B08EA8E
:10AFE00002082982042B13D8DFE803F03229201746
:10AFF0000300736A002B34D1EB6A1FFA83F9346AB9
:10B0000034B123682046494698476468002CF8D13B
:10B01000B8F1000FDCD1BDE8F8833068696B0368D4
:10B0200089B29847B8F1000FD2D1F4E77068A96BE4
:10B03000036889B29847B8F1000FC9D1EBE7B0684F
:10B04000E96B036889B29847B8F1000FC0D1E2E715
:10B05000F068296C036889B29847B8F1000FB7D13E
:10B06000D9E703F1FF3900231FFA89F97362C6E7B4
:10B07000000001401C4D00202DE9F0410468A30AA6
:10B08000A3F58013522B5BD8314DED5C0D2D57D8B5
:10B09000AE004779B4F80C802E4806EB050C4FEA59
:10B0A0004C0303EB97034FEA970E022707FA0EF7BC
:10B0B00040F8231047EA08074FF0280E03F1040870
:10B0C0002023BFB21EFB053E40F8282000EB0E03F4
:10B0D000A781EFF31181502282F3128800EBCC0C90
:10B0E000DCF8102022B140F80E20DCF810300433D8
:10B0F000721900EBC202576917B11F60536904331C
:10B10000721900EBC202976917B11F60936904338B
:10B11000721900EBC202D76917B11F60D3690433FB
:10B120000022C9B21A6081F31188354400EBC500D2
:10B13000036A3BB9A38923F001031B041B0CA38101
:10B14000BDE8F081A38943F00103A381BDE8F0814C
:10B150005C4C05081C4D00202B4B98423CD0B0F1B4
:10B16000804F3BD0A3F57C43984239D003F58063F0
:10B17000984237D003F58063984235D003F5806359
:10B18000984233D003F58063984233D003F570437F
:10B19000984231D003F57053984229D003F580636B
:10B1A00098422BD003F58063984229D0A3F59833B9
:10B1B000984227D003F58063984207D003F5806357
:10B1C000984208BF0D2202D0002070470C220F4B7E
:10B1D00003EBC203187970470022F8E70122F6E773
:10B1E0000222F4E70322F2E70422F0E70522EEE769
:10B1F0000822ECE70622EAE70722E8E70922E6E769
:10B200000A22E4E70B22E2E700000140E03D0508E6
:10B2100070B4114E01240023324630EA04041D4666
:10B2200002F1200208D00133052B0CD0947930EACA
:10B23000040402F12002F6D1A94207D001330135FE
:10B24000052BEDB2F2D1002070BC704706EB431322
:10B2500070BC1879704700BFFC17050870B4164A17
:10B26000002301E0152B25D003EB43010133545C8F
:10B2700084421144F6D14D78B0B1104E10213346BE
:10B280000124002203E001324E2A0CD019798842B1
:10B2900003F12003F7D1A54208D03DB101320134BA
:10B2A0004E2AE4B2F2D1002070BC704706EB421087
:10B2B00070BC70470025DFE788790020743E0508E0
:10B2C0002DE9F041B9490B78A3F11702022A0FD9F1
:10B2D000B74A12F83300002840F0BC81D80002447D
:10B2E00052782AB1B34A12F83330002B00F013829F
:10B2F0000024B14EB14F2546315B4B0803F0773344
:10B300004FEA910C0CF0333CCB1ACA08A3EB0C03A8
:10B3100002F011329B1A03EB231303F00F33A7FB48
:10B3200003C2D209C2EB02229A1A11F001031CBF18
:10B330000135EDB2012A06EB040004F108040BDD2F
:10B34000022A40F0838113B111F42F7F04D132F02F
:10B35000AFFE002800F07A81202CCDD1013D022DD6
:10B3600000F27481022025F0D9FA954B1B78022B4C
:10B3700000F08781002800F0D181924F7B78052B67
:10B3800000F2608103EB43018F4A03EB810302EB80
:10B3900043023B788D498E4C0A60022B00F24E81AD
:10B3A000C3EB431004EB80005A01D11A04EB810176
:10B3B000DFF83CC28D88CE88CCF80000AE4224BFB6
:10B3C00000208880D11A04EB8101824EB1F864001C
:10B3D000B1F86250854284BF0020A1F86200D11A02
:10B3E00004EB8101D31A04EB830391F8730093F803
:10B3F00074200138632802F10102D2B284BF6420B4
:10B4000081F87300092A84BF002283F87420B3787E
:10B41000042B00F0288133B93388B3F5F07F84BF63
:10B420004FF4F0733380DFF8CC81FEF7B9FDD8F824
:10B430000050694B2B40002B00F04281E90700F1DE
:10B4400043816A0400F148812B0700F14D81A80473
:10B4500000F152812904DFF8A08140F1E780002348
:10B4600088F80F3088F823300FF0E6FF002800F04E
:10B47000868098F81930032B00F081805A1E012A2B
:10B4800040F2BE8000232383A4F89430A4F8103146
:10B490000FF0D2FF002840F0B1800023EA0484F8C6
:10B4A0004F3084F8CB3084F8473140F1B0804B4BBB
:10B4B000DA79022A08BF01224FF0070008BFDA71CB
:10B4C0000CF00CFA10B107200CF0B2F94FF48060C8
:10B4D00025F024FA002800F0A480414B1C4603F11B
:10B4E000780803F17D05617979B1207858B13D4B39
:10B4F00002E006339D4208D013F8052C8A42F8D1A9
:10B500001A78002AF5D00CF093F90634A045EAD158
:10B51000402037F04BFC4FF4007037F047FC4FF4FD
:10B52000001037F043FC304C4FF0007037F03EFC19
:10B530004FF0806037F03AFCA388002B40F0B880D1
:10B540002A4A136813F07F4F1CBF002313609368CF
:10B5500023F4007323F002030BB1002393601379EB
:10B56000013B042B84BF0123137173790BB9FB7B5F
:10B570001BB9B3790BB10023B371BDE8F08100238F
:10B58000A3816382A4F88830A4F88E30A4F8043133
:10B59000A4F80A310FF050FF00283FF473AF98F879
:10B5A00019305A1E012A3FF66DAF29E0A44A002047
:10B5B000C04C0508E8100508488E00208180808076
:10B5C000445700201C5600201C5A0020C84A002066
:10B5D0009C220020307B0020096000026C240020A7
:10B5E0003C2D0020412D002068500020E81C002048
:10B5F000C44A0020F0790020D08C002098F819303F
:10B60000023B022B3FF649AFEA043FF550AF2B0651
:10B610007FF54DAF4FF4806025F080F900287FF46E
:10B620005CAF4FF0006037F0C1FB56E798F80F3081
:10B63000002B67D0002388F8233015E7002320462D
:10B640003B70B1E60023374A7B70A2E6364821F012
:10B6500075FE87E6D80014186468002C7FF43FAEAE
:10B6600017240C703BE64FF4805037F09FFBF38AB1
:10B67000B3F57A7F37BF4FF47A72B378B378F2823A
:10B68000C9E600283FF479AE284D294B297890F976
:10B690000240FF2603F1200093F90620A24202D1C6
:10B6A0000139C9B29E7108339842F5D1297064E618
:10B6B0002078FFF7D3FD00287FF442AFA0803FE75A
:10B6C00045F00105C8F800501A4837F06FFBD8F86C
:10B6D00000506A047FF5B8AE174837F067FBD8F81A
:10B6E00000502B077FF5B3AE144837F05FFBD8F856
:10B6F0000050A8047FF5AEAE114837F057FBD8F8DC
:10B700000050A7E642F201031D423FF4ADAE002314
:10B7100088F82330A8E618230B70E9E5802037F07D
:10B7200045FB2AE61C5A0020488E00206750002066
:10B730006C8E0020086000020920000201600002F7
:10B74000094000022DE9F84F18F068FD2B4B2C4AF8
:10B75000934250D22B4F03F114069B464FF0010841
:10B76000294C258862197DB1BA420DD2052D0BD91D
:10B7700036F8143C6188C3F30B0399420AD014468F
:10B7800025886219002DEFD156F8101C584639F063
:10B79000BBFC0FE0637913F0030AF0D156F8101CDC
:10B7A00094F80490584639F0AFFC36F8141CB9EB05
:10B7B000113F11D04FF00008114B0BF1140B9B45BA
:10B7C00006F11406CCD3FFF77BFDFEF795FC18F0CD
:10B7D000BBFC4046BDE8F88F36F8123C56F8100C1A
:10B7E000AA1FC3F30B039A4204F10601A8BF1A462D
:10B7F00041F0B8FEE0E74FF00108E4E790010008EF
:10B80000CC06000800800008024000082DE98048AE
:10B81000013085B0C3B20393954C964FDFF860A218
:10B82000954D964E0A2302933BF0F8FD4FF4FA73C0
:10B83000DFF850E201934FF01008DAF80430C3F358
:10B840000803002B40F0D280EFF31183002B40F06F
:10B85000CD802068AA6823689842FAD133689A425A
:10B86000F7D8D7F800C04FF47A7101FB0CF39B1A9C
:10B87000B3FBFCF301FB00304FF47A7C4FF001097D
:10B88000DAF80430C3F30803002B40F09180EFF3A3
:10B890001183002B40F08C802368A96822689342B2
:10B8A000FAD132689142F7D83A680CFB02FBABEB55
:10B8B0000101B1FBF2F10CFB03131B1AB3F57A7F04
:10B8C000DED3019B013B0193B7D103983BF020FCF1
:10B8D0004FF47A73DFF8ACE101934FF01008DAF817
:10B8E0000430C3F30803002B40F0A180EFF3118371
:10B8F000002B40F09C802068AA6823689842FAD107
:10B9000033689A42F7D8D7F800C04FF47A7101FB38
:10B910000CF39B1AB3FBFCF301FB00304FF47A7C71
:10B920004FF00109DAF80430C3F3080313BBEFF357
:10B930001183FBB92368A96822689342FAD132685F
:10B940009142F7D83A680CFB02FBABEB0101B1FB6B
:10B95000F2F10CFB03131B1AB3F57A7FE2D3019BC0
:10B96000013B0193BBD1029B013B02937FF45CAF8F
:10B9700039F08CFEEFF3118188F31288D5F808B006
:10B980002B68DB0344BFCEF80090D5F808B02368DD
:10B99000DEF80020C9B281F31188396813440CFB2A
:10B9A00001F2A2EB0B02B2FBF1F20CFB0323D2E794
:10B9B000EFF3118188F31288D5F808B02B68DB0308
:10B9C00044BFCEF80090D5F808B02368DEF8002018
:10B9D000C9B281F31188396813440CFB01F2A2EB60
:10B9E0000B02B2FBF1F20CFB032366E7EFF31183CA
:10B9F00088F31288D5F808C02A68D20304D501223A
:10BA0000CEF80020D5F808C02068DEF80090DBB240
:10BA100083F3118839684FF47A72484402FB01F3CA
:10BA2000A3EB0C03B3FBF1F302FB003024E7EFF3CD
:10BA3000118388F31288D5F808C02A68D20304D588
:10BA40000122CEF80020D5F808C02068DEF800906A
:10BA5000DBB283F3118839684FF47A72484402FBF1
:10BA600001F3A3EB0C03B3FBF1F302FB003055E74A
:10BA7000506D0020546D002010E000E0586D002053
:10BA800000ED00E04C6D00202DE9F04F8DB0FFF788
:10BA900017FCDFF880915A4FDFF87C8118F0BEFB6D
:10BAA000584A594BB2F83825ADF80620A3EB0903E4
:10BAB00000934FF0030A0026CDE90866CDE90A6637
:10BAC000009BCDF818900793D8F81030002BC0F2E7
:10BAD0008E8001238DF82C30F323C8F80C3002221D
:10BAE000BDF80630ADF8083002A906A837F044F9D1
:10BAF000022202A94FF6FF7038F02AF8434BBB42EE
:10BB0000834629D21C46658823888DF81560C5F3C5
:10BB10000B05C3F30B00A91D1B0B0622ADF810107B
:10BB2000ADF8120004A906A88DF8143037F024F9F6
:10BB30005846062204A938F00BF8616883462A4665
:10BB400006A837F019F9616858462A4638F000F817
:10BB50001434BC428346D6D3022203A906A8ADF80A
:10BB60000C6037F009F9022203A9584637F0F0FFBC
:10BB700040BAC343022204A906A8ADF8103037F03A
:10BB8000FBF8099818BB0A989DF82C3033B968B1B6
:10BB9000BAF1010A90D10520FFF738FED8F810302D
:10BBA00043F00043C8F810300028F1D199F8003074
:10BBB000AB2BF0D199F80130BE2BECD137F0E2FF7E
:10BBC0000028E8D018F0C0FA0DB0BDE8F08F08AB3F
:10BBD000C0F104020021184442F0EAFF0A9818B9A3
:10BBE000089906A837F02AF8CDE90960CCE7084B98
:10BBF000C8F8043003F18833C8F8043069E700BF9F
:10BC0000CC06000858EC04080080000890010008E9
:10BC10002301674500400008003C024008B5FFF7DB
:10BC200033FFFFF78FFD0120BDE8084024F0EEBF91
:10BC300008B539F08BFAFFF727FFBDE80840FEF79B
:10BC40005BBA00BF014B18601EE700BFF07900200F
:10BC50002DE9F04F85B0CDE902109B4DDFF878A2B9
:10BC6000029B013B0293013300F02A813BF0D6FB9B
:10BC7000964C974FDFF864E2964E4FF4FA730193B7
:10BC80004FF01008DEF80430C3F30803002B40F037
:10BC9000F680EFF31183002B40F0F1802068AA6852
:10BCA00023689842FAD133689A42F7D8D7F800C08F
:10BCB0004FF47A7101FB0CF39B1AB3FBFCF301FB0D
:10BCC00000304FF47A7C4FF00109DEF80430C3F302
:10BCD0000803002B40F0B580EFF31183002B40F0F8
:10BCE000B0802368A96822689342FAD132689142F1
:10BCF000F7D83A680CFB02FBABEB0101B1FBF2F1A8
:10BD00000CFB03131B1AB3F57A7FDED3019B013BB7
:10BD10000193B7D1039B6F4E581CC0B23BF0F8F9AA
:10BD2000DFF8B8E14FF47A730193DEF80430C3F31F
:10BD300008034FF01008002B44D1EFF31183002BC0
:10BD400040D12068AA6823689842FAD133689A42A1
:10BD5000F7D8D7F800C04FF47A7101FB0CF39B1AA7
:10BD6000B3FBFCF301FB00304FF47A7C4FF0010988
:10BD7000DEF80430C3F30803002B44D1EFF3118342
:10BD8000002B40D12368A96822689342FAD1326817
:10BD90009142F7D83A680CFB02FBABEB0101B1FB17
:10BDA000F2F10CFB03131B1AB3F57A7FE0D3019B6E
:10BDB000013B01933FF454AFDEF80430C3F30803B2
:10BDC000002BBAD0EFF3118388F31288D5F808C09E
:10BDD0002A68D20304D50122CAF80020D5F808C089
:10BDE0002068DAF80090DBB283F3118839684FF4E9
:10BDF0007A72484402FB01F3A3EB0C03B3FBF1F3AB
:10BE000002FB0030B0E7EFF3118188F31288D5F818
:10BE100008B02B68DB0344BFCAF80090D5F808B01F
:10BE20002368DAF80020C9B281F311883968134415
:10BE30000CFB01F2A2EB0B02B2FBF1F20CFB0323B1
:10BE4000B1E7EFF3118188F31288D5F808B02B68B9
:10BE5000DB0344BFCAF80090D5F808B02368DAF8CD
:10BE60000020C9B281F31188396813440CFB01F238
:10BE7000A2EB0B02B2FBF1F20CFB032342E7EFF360
:10BE8000118388F31288D5F808C02A68D20304D534
:10BE90000122CAF80020D5F808C02068DAF800901E
:10BEA000DBB283F3118839684FF47A72484402FB9D
:10BEB00001F3A3EB0C03B3FBF1F302FB003000E74B
:10BEC00005B0BDE8F08F00BF10E000E0506D00202D
:10BED000546D0020586D00204C6D002000ED00E0F6
