:020000040800F2
:10000000F0FF012011DD040885DE0208559B010880
:1000100089DD040889DD040889DD0408000000008A
:1000200000000000000000000000000091DE020857
:100030008DDE02080000000089DE0208B99B01087D
:1000400089DD040889DD040889DD040889DD0408E8
:1000500089DD040889DD0408F1AF00081DB100083E
:10006000E1B00008A5B0000869B00008E519010872
:10007000D5190108C5190108B5190108A119010808
:100080008D1901087919010889DD040800000000B4
:100090000000000000000000000000002DB000087B
:1000A000752F010861330108A52E0108E534010808
:1000B000A1320108E1310108153101087120010860
:1000C00079200108652001086D20010889DD0408F8
:1000D00089DD0408319D0108959C0108000000009D
:1000E000B5AF000889DD04085122030800000000B4
:1000F0000000000000000000000000006519010879
:100100000000000089DD04084530010889DD04088D
:1001100000000000000000000000000000000000DF
:10012000511901083D19010829190108151901087B
:10013000011901080000000000000000000000009C
:10014000000000000000000000000000C9EE0208EE
:10015000ED180108D9180108C5180108F99B010814
:100160005920010861200108000000000000000083
:10017000000000000000000000000000000000007F
:100180000000000089DD04080000000000000000FD
:0801900089DD040889DD040883
:08019800A8D8040001000000DA
:1001A0000202030064160020601600200000000018
:1001B00000000000100201006C16002068160020EC
:1001C00000000000040700081F0210008016002035
:1001D0007016002000000000D58C00081A023C00B8
:1001E000A416002088190020000000005595000882
:1001F00027000400A0160020C41900200000000001
:10020000060700082C001000803400207034002005
:10021000000000005BC901082B002400B43400205A
:1002200090340020000000002DC90108292078002A
:100230007C330020D83400200000000000000000C3
:100240001C021000782E0020503500200000000015
:100250008D8A0008F6210C009C32002060350020B9
:10026000000000000C07000820320A00BC35002006
:10027000B035002000000000F9AD01082810100082
:1002800040320020C83500200000000071AE010897
:1002900001200800941C0020D83500200000000038
:1002A000180700080A702800101C0020E035002004
:1002B0000000000019AE01080EA06E01A01A002077
:1002C0000836002000000000ADEC03080101040026
:1002D000081A00207837002000000000000000000D
:1002E00000010400001A00207C37002000000000FC
:1002F0002007000802010300FC19002080370020BD
:10030000000000006D2A0308090201008C4F002044
:100310000450002000000000240700080C109C007E
:10032000F83F00200850002000000000412A030888
:1003300000020500CC3F0020A45000200000000077
:10034000000000001B021000A03F0020AC50002065
:1003500000000000B98A00081E0006000C3D0020C5
:10036000BC50002000000000260700081B100C00F5
:10037000D8390020C4500020000000000D6602089B
:100380002102F00058380020D0500020000000006A
:100390004D530208371024003C3F0020C05100207C
:1003A000000000002C0700080E0202001842002086
:1003B000E45100200000000050070008161006005D
:1003C0004C380020E85100200000000052070008CF
:1003D0002F102200E04F0020F0510020000000000C
:1003E0005807000805100600D03B002014520020DA
:1003F000000000007A07000812201000C03B002017
:100400001C520020000000008007000823100E008E
:100410005C3C00202C5200200000000089AE010846
:10042000F5518C00843700203C5200200000000071
:10043000299E020826100C00D4520020C852002029
:10044000000000003148020814000300B06C0020D6
:10045000246D002000000000900700080B301800F9
:10046000705D0020286D0020000000009407000847
:100470001F302400885D0020406D00200000000037
:10048000AC0700080502040044680020646D0020E9
:1004900000000000D007000803010A00C85D00202A
:1004A000686D002000000000D4070008130204005B
:1004B000145C0020746D002000000000DE070008BE
:1004C0000702020070790020E87900200000000097
:1004D000E20700080312330094790020EC79002031
:1004E00000000000E407000802000C00487900202A
:1004F000207A0020000000000000000006020C002E
:100500003C7900202C7A002000000000A99400080B
:1005100008120F002C790020387A0020000000001B
:10052000D58B0008F701060024790020487A0020C6
:1005300000000000180800080A020A007470002079
:10054000507A0020000000007D2D03080300010008
:10055000387300205C7A00200000000000000000DA
:100560001010020038700020607A002000000000A7
:100570001E08000825102C0188700020647A0020D5
:1005800000000000000000001A000E007885002026
:1005900088850020000000002008000819000500E0
:1005A000BC84002098850020000000002E08000870
:1005B000F8210600F8820020A0850020000000003D
:1005C0003408000815007000A07D0020A8850020D8
:1005D00000000000000000002A00600018850020D4
:1005E000188600200000000085EC03080D002400A0
:1005F000C8C700207CC9002000000000D9A903085A
:100600000400800050BE0020A0C9002000000000AF
:1006100000000000F9010400CCBD002020CA002029
:10062000000000004980000813000400C8BD00203D
:1006300024CA0020000000003C080008FD011E0044
:10064000A8BD002028CA002000000000C123010826
:1006500018202E0074BD002048CA002000000000B1
:10066000E994000806101A00BCAB002078CA0020EC
:10067000000000000DED0308FB010100F8AA0020B6
:1006800094CA002000000000E5950008FC01090064
:10069000C4A9002098CA002000000000F5950008B9
:1006A00016023F007CA90020A4CA00200000000020
:1006B000F58A000834001000ACA80020E4CA00202D
:1006C00000000000E1EC03081102080084A80020EB
:1006D000F4CA0020000000004008000812120400C4
:1006E0007CA80020FCCA0020000000004808000888
:1006F000FE011400F49D002000CB0020000000004B
:04070000CD8A000896
:1007040000002003000000000000000001000000C1
:1007140002020000E8036400040A000190010000E2
:10072400280000000100000020003200C800D007AB
:100734009600140032002800B00440060005500062
:1007440014000F0008006400010001000000C40947
:10075400000019000000000000000000000000007C
:100764000000000000000000000000000000000085
:100774000000000000002000030100000000000150
:10078400000005533431310000080000030000006C
:10079400AE014A015E012C01640101000000010068
:1007A4000A019A01001E0A00000000000001000076
:1007B400000500000102030000000000000000002A
:1007C400000000000000000000800700000000009E
:1007D400040101006C160000000000000119013C36
:1007E4000000000000000000000000000000000005
:1007F40000000000000000000000000000000000F5
:1008040000000000000000000000000000000000E4
:10081400000001004C000100D00700057E05EA0538
:10082400B4053200E803D0070000000028010000EE
:100834000201F40114000000080040300000000030
:0808440001010101FFFFFFFFAC
:10084C00FFFF000050970508000008020503030095
:10085C0058970508010008020504030014C4050894
:10086C000200FE010110030060970508030014024A
:10087C00000300006897050804001F02010008002F
:10088C007097050805001F0201010800FFFFFFFF1C
:10089C000000000000000000010203040607080924
:1008AC0001000000A00F0000B80B00000102FFFFC8
:1008BC0001FF000001000000C5A5010800000000B8
:1008CC00BC1D050820700020702D7200FFFFFFFF7B
:1008DC00D60101010100000000010101002D202DB5
:1008EC002D202D2D2D2D202D2D2D00000000000054
:1008FC0000000000000000000000000000000000EC
:10090C00000000002C34050800000000000000006E
:10091C00B834050801000000FA00000001000000D6
:10092C000100000001010100661C002000C801004C
:10093C00651C002000500100641C0020005A0100BE
:10094C00621C002002000000EC23050838A60508F4
:10095C0040A6050866C900200100C409000000007B
:10096C0064C900200100C4090000000062C9002015
:10097C000100C4090000000060C900200100C40986
:10098C00000000005CC900200100C4090000000048
:10099C005EC900200100C409000000005AC90020F3
:1009AC000100C4090000000058C900200100C4095E
:1009BC00000000001A1A00200100C800010000000D
:1009CC00181A00203200307532000000171A00206F
:1009DC00055A0500141A002000FF0100161A002009
:1009EC0001000000A4020020121A002002000000E6
:1009FC00BC3A0508131A002000FF0100151A00204C
:100A0C0001000000A4020020111A002002000000C6
:100A1C00BC3A0508A01C0020EE02CA080100000028
:100A2C009E1C002000C80100640000009D1C0020DA
:100A3C0000C80100640000009C1C002002000000A3
:100A4C00F82305080E1A002080C1803E0500000026
:100A5C000C1A002080C1803E05000000061A002000
:100A6C0080C1803E05000000041A002080C1803E39
:100A7C0005000000FF19002000FF0100F8190020FC
:100A8C006400F40101000000F719002004000000CC
:100A9C0004240508F619002002000000182405089B
:100AAC00911A00200D000000242405088E1A002045
:100ABC00006401008C1A0020320010270A0000008C
:100ACC008B1A00200D000000242405088A1A00202F
:100ADC000D00000024240508891A002002000000E3
:100AEC005C240508000000000000000068240508D4
:100AFC00FC6700209CFF2C01000000009C200020C3
:100B0C00E0150C17000000009E20002002000000E1
:100B1C00A0240508AC1C00200100FF7F0100000090
:100B2C00AB1C002002000000AC240508931A002026
:100B3C0003000000BC240508921A002003000000EA
:100B4C00BC240508441C00200000E8030100000040
:100B5C00421C00200000E80301000000401C0020A3
:100B6C000000E803010000003E1C00200000E80328
:100B7C00010000003C1C00200000E8030100000004
:100B8C003A1C00200000E80301000000391C002082
:100B9C0000140100381C002003000000CC240508C0
:100BAC00501C00200000F401010000004E1C00202D
:100BBC000000F401010000004C1C00200000F401B6
:100BCC00010000004A1C00200000F401010000009C
:100BDC00481C00200000803E01000000461C002044
:100BEC000000803E01000000791C00201964010007
:100BFC00781C002002000000DC240508761C002074
:100C0C00E803D0070A000000741C002000640100F7
:100C1C000A000000691C002000640100681C002010
:100C2C0000640100701C0020006401000A00000038
:100C3C006F1C0020006401000A0000006E1C0020E4
:100C4C00006401000A000000731C00200064010015
:100C5C000A000000721C0020006401000A00000061
:100C6C00711C0020006401000A0000006D1C0020B3
:100C7C0001FF01000A0000006C1C002001FF0100B4
:100C8C000A0000006B1C002001FF01000A0000009C
:100C9C009C1A00200000F401010000009A1A0020A8
:100CAC000000F40101000000981A00200000F4017B
:100CBC0001000000961A00200000F4010100000061
:100CCC00941A00200000F40101000000611C0020B7
:100CDC0000640100601C0020006401005F1C002007
:100CEC00006401005E1C0020FF0801005D1C002058
:100CFC00016401008DAB010851AB0108E824050823
:100D0C005C1C0020006401005A1C00201400E80345
:100D1C0001000000581C0020E80330750A00000098
:100D2C00561C002000C80100551C002000C8010002
:100D3C00541C002000C80100531C0020006401005A
:100D4C000A000000901C00200000D00701000000E9
:100D5C008B1C002000C801008A1C002000C8010068
:100D6C00891C002000C801008E1C00200000D00748
:100D7C0001000000881C002000C80100871C002016
:100D8C0000C80100861C002000C801008C1C00203B
:100D9C000000D00701000000851C002000C80100E5
:100DAC00841C002000C80100831C002000C8010026
:100DBC0000000000C1A8010858250508871A00206A
:100DCC0031000000F4250508861A002000C8010037
:100DDC00841A0020E803D0070100000053544D335F
:100DEC003246343131444953434F56455259000031
:100DFC0021A80108F9A70108BC260508B5A7010818
:100E0C0069A701081027050849A80108B5CE0108F3
:100E1C0090270508101A002001030100EDAC010811
:100E2C00C1AC0108842A050811A70108D1A6010844
:100E3C00E82A0508D7A8010865DE0108842B0508F7
:100E4C007DCA0108000000002C2C050841CC0108CB
:100E5C004DAD0108C82C050829A9010800000000A7
:100E6C00382D050801AA0108ADA901089C2D05081B
:100E7C0091AA010855AA0108382E0508C9AB01082A
:100E8C0011AC0108B82E0508671C002001060100F2
:100E9C0071A901083DA90108B42F0508CDAA0108C4
:100EAC0019CF01082430050845AC01089DCF010875
:100EBC0004310508521C00200103010091A801080F
:100ECC0061A80108D831050819AD0108000000001F
:100EDC003C32050851A701089DCE0108A032050837
:100EEC0000000000000000000433050899AC010864
:100EFC0015D0010884330508F219002088136F17E8
:100F0C0001000000F419002088136F170000000086
:100F1C00265E00200000000000000000245E00207F
:100F2C000000000000000000225E00200000000015
:100F3C0000000000205E0020000000000000000007
:100F4C001E5E002000000000000000001C5E00205F
:100F5C000000000000000000640B002000000000F6
:100F6C0000000000C8190020020000000C35050824
:100F7C00F019002088136F17010000003C68002056
:100F8C0088136F170000000065A601080000000020
:100F9C0018350508E6200020010000006C35050816
:100FAC003E680020010000007835050834680020F8
:100FBC000200000080350508000000000000000061
:100FCC008C35050851A601080000000028360508DC
:100FDC0000000000000000007C3605080000000046
:100FEC0000000000EC36050838680020E0150C17EE
:100FFC00000000000100000000000100FFFFFFFFE7
:10100C000000803F0000803F01FFFFFF0403090444
:10101C0012010002EF020140830456320002010269
:10102C000301000012010002020200408304405739
:10103C00000201020301000009026400030100C068
:10104C003209040000010300000009211101000114
:10105C002226000705830308000A080B010202027E
:10106C000100090401000102020100052400100125
:10107C0005240100020424020205240601020705CE
:10108C0082030800FF09040200020A0000000705A1
:10109C0001024000000705810240000009024300E4
:1010AC00020100C032090400000102020100052403
:1010BC00001001052401000104240202052406008D
:1010CC0001070582030800FF09040100020A000061
:1010DC0000070501024000000705810240000000E6
:1010EC00FF000000483D0508000000000000000063
:1010FC0000000000000000000000000000000000E4
:10110C0000000000000000000000000000FFFF00D5
:10111C0000000000AA550501000001001C3D050857
:10112C0000000000000000000000000000000000B3
:10113C0000000000000000000000000000000000A3
:10114C0000000000FF1FFF1F05010905A101A10000
:10115C0005010930093109320933093509340940CF
:10116C0009381581257F750895088102C0C00000DB
:10117C0009022200010100E0320904000001030110
:10118C000200092111010001222600070583030832
:10119C00000A000000000000010203040102030425
:1011AC0006070809CDE10208D1E0020811E40208A3
:1011BC0029BE02086DC1020839BE020855BE0208DC
:1011CC0001BE0208F1BD0208000000000000000092
:1011DC002D202D2D202D2D2D2D202D2D2D2D0000B4
:1011EC00000000000000000000000000000000AA49
:1011FC00550B010000AA5507010000AA5509020071
:10120C000000AA5503009F0001000000C01200005E
:10121C00F86C0020000000001C6D00200000000095
:10122C000000803F000000000000000000000000F3
:10123C00FFFFFFFF00000000D8790020080000002D
:10124C0000000000C8790020080000002000000009
:10125C000000803F9CC20508A8C20508B4C205085E
:10126C00C0C20508CCC20508D8C20508D0B3050811
:10127C00D0710508D070050840C20508989B050878
:10128C008CC2050890C2050894C2050898C20508CE
:10129C007CC2050880C2050884C20508146F0508C5
:1012AC0088C205081900C800F40120037CC2050897
:1012BC0080C20508E4C2050884C20508E8C2050816
:1012CC00ECC205084DC30208F1C00208EDE30208A8
:1012DC0000000000EDBD0208BDE00208B9C2020822
:1012EC0035E002080000000000000000A9BD020863
:1012FC00BDC20208B1C002082DE3020800000000C4
:10130C00C1BD020839E002088DC2020895DF02084F
:10131C000000000000000000B5BD02087886002027
:10132C00FFFFFFFF0000803F0000000000000000F6
:10133C00000000000000803F0000000000000000E2
:10134C000000000000000000000000000000000091
:10135C000000000000000000000000000000803FC2
:10136C000000000000000000000000000100000070
:10137C00000004010000000000000002100000004A
:10138C0007000000192D03080000000000000000F9
:10139C00000000000DBD020809BD020805BD0208D1
:1013AC00F9BC0208F5BC020801BD0208FDBC02082C
:1013BC0081BD020875BD02084DBD020861BD020861
:1013CC0039BD020825BD020811BD0208010000004C
:1013DC0000600240106002400000000000000000AD
:1013EC00000B0000000000000000000000000000E6
:1013FC000060024028600240010000000000000074
:10140C00060C0000000000000000000000000000BE
:10141C00006002404060024002000000000000003A
:10142C00100D000000000000000000000000000093
:10143C000060024058600240030000000000000001
:10144C00160E00000000000000000000000000006C
:10145C0000600240706002400400000000000000C8
:10146C00200F000000000000000000000000000041
:10147C00006002408860024005000000000000008F
:10148C00261000000000000000000000000000001A
:10149C0000600240A0600240060000000000000056
:1014AC0030110000000000000000000000000000EF
:1014BC0000600240B860024007000000000000001D
:1014CC00362F0000000000000000000000000000AB
:1014DC0000640240106402400000000000000000A4
:1014EC0000380000000000000000000000000000B8
:1014FC00006402402864024001000000000000006B
:10150C000639000000000000000000000000000090
:10151C000064024040640240020000000000000031
:10152C00103A000000000000000000000000000065
:10153C0000640240586402400300000000000000F8
:10154C00163B00000000000000000000000000003E
:10155C0000640240706402400400000000000000BF
:10156C00203C000000000000000000000000000013
:10157C000064024088640240050000000000000086
:10158C0026440000000000000000000000000000E5
:10159C0000640240A064024006000000000000004D
:1015AC0030450000000000000000000000000000BA
:1015BC0000640240B8640240070000000000000014
:1015CC003646000000000000000000000000000093
:1015DC00FC9705083CBD050800000000812A0308A3
:1015EC00A0860100040000000000000000000000C4
:1015FC0000000000000000000000000000000000DF
:10160C0000000000000000000000000000000000CE
:10161C00FC97050844C40508000000005D22010881
:10162C00E8030000040000000000000000000000BF
:10163C00000000000000000000000000000000009E
:10164C00000000000000000000000000000000008E
:10165C00C4AB0508986F050800000000C5650308B9
:10166C007D000000060000000000000000000000EB
:10167C00000000000000000000000000000000005E
:10168C00000000000000000000000000000000004E
:10169C002C970508000000000000000065400108C0
:1016AC00E803000003000000000000000000000040
:1016BC00000000000000000000000000000000001E
:1016CC00000000000000000000000000000000000E
:1016DC004CC405080000000000000000495E04082E
:1016EC0010270000030000000000000000000000B4
:1016FC0000000000000000000000000000000000DE
:10170C0000000000000000000000000000000000CD
:10171C005C9705080000000019C60108A56A0108BD
:10172C005F760000050000000000000000000000D3
:10173C00000000000000000000000000000000009D
:10174C00000000000000000000000000000000008D
:10175C00109A05080000000000000000F99D010827
:10176C001027000001000000000000000000000035
:10177C00000000000000000000000000000000005D
:10178C00000000000000000000000000000000004D
:10179C0058C4050800000000000000006122010888
:1017AC00E80300000500000000000000000000003D
:1017BC00000000000000000000000000000000001D
:1017CC00000000000000000000000000000000000D
:1017DC0064C405080000000000000000455E03081A
:1017EC00204E00000300000000000000000000007C
:1017FC0000000000000000000000000000000000DD
:10180C0000000000000000000000000000000000CC
:10181C0074C405080000000000000000315C0308DF
:10182C00204E00000300000000000000000000003B
:10183C00000000000000000000000000000000009C
:10184C00000000000000000000000000000000008C
:10185C0084C40508000000000000000051250108A8
:10186C00400D030003000000000000000000000019
:10187C00000000000000000000000000000000005C
:10188C00000000000000000000000000000000004C
:10189C00C09805080000000000000000B9C2030851
:1018AC0010270000010000000000000000000000F4
:1018BC00000000000000000000000000000000001C
:1018CC00000000000000000000000000000000000C
:1018DC004497050800000000000000007971020820
:1018EC0010270000030000000000000000000000B2
:1018FC0000000000000000000000000000000000DC
:10190C0000000000000000000000000000000000CB
:10191C0094C405080000000000000000A12D02087E
:10192C00A086010001000000000000000000000083
:10193C00000000000000000000000000000000009B
:10194C00000000000000000000000000000000008B
:10195C0018A805080000000000000000352101084F
:10196C00A861000001000000000000000000000061
:10197C00000000000000000000000000000000005B
:10198C00000000000000000000000000000000004B
:10199C009CC40508000000000000000075AF0208A0
:1019AC00A086010001000000000000000000000003
:1019BC00000000000000000000000000000000001B
:1019CC00000000000000000000000000000000000B
:1019DC00189A05080000000000000000314C0108B6
:1019EC00A00F00000100000000000000000000003B
:1019FC0000000000000000000000000000000000DB
:101A0C0000000000000000000000000000000000CA
:101A1C00A8C4050800000000000000001D9F02087B
:101A2C001027000001000000000000000000000072
:101A3C00000000000000000000000000000000009A
:101A4C00000000000000000000000000000000008A
:101A5C00C8980508000000000000000079930208F7
:101A6C001A4100000100000000000000000000000E
:101A7C00000000000000000000000000000000005A
:101A8C00000000000000000000000000000000004A
:101A9C00789A0508000000000000000005C6020846
:101AAC0010270000010000000000000000000000F2
:101ABC00000000000000000000000000000000001A
:101ACC00000000000000000000000000000000000A
:101ADC0050BD05080000000000000000EDE5010805
:101AEC001A4100000100000000000000000000008E
:101AFC0000000000000000000000000000000000DA
:101B0C0000000000000000000000000000000000C9
:101B1C00B4C40508000000000000000011CC02084D
:101B2C00400D030000000000000000000000000059
:101B3C000000000000000000000000000000000099
:101B4C000000000000000000000000000000000089
:101B5C00BCC40508000000000000000097A90308A1
:101B6C00400D030000000000000000000000000019
:101B7C000000000000000000000000000000000059
:101B8C000000000000000000000000000000000049
:101B9C00C4C4050800000000000000009DA9020854
:101BAC0050C3000003000000000000000000000013
:101BBC000000000000000000000000000000000019
:101BCC000000000000000000000000000000000009
:101BDC00D0C405080000000000000000A55B03084D
:101BEC0040420F0000000000000000000000000058
:101BFC0000000000000000000000000000000000D9
:101C0C0000000000000000000000000000000000C8
:101C1C00DCC40508000000000000000031BE030811
:101C2C0050C3000000000000000000000000000095
:101C3C000000000000000000000000000000000098
:101C4C000000000000000000000000000000000088
:041C5C000000803FC5
:1080000003682DE9F0415D6A1DB12B46BDE8F041E2
:108010001847002A174611DD04460E460F4400E0BB
:1080200023689B68204698470028F9D0236816F8F3
:10803000011B1B6820469847BE42F1D1BDE8F08184
:1080400003681B69184700BF00234F214D220170B0
:1080500042708370C3707047D3B2022B23D8F0B440
:10806000124F134D02EB42063C46B600002304E0DB
:108070000133172B14D054F82C5FA842F8D125797E
:108080008D42F5D1A519ED68002DF1D02C2101FB11
:1080900003F30C20083310FB0233F818F0BC7047D0
:1080A0000020F0BC70470020704700BFF451050865
:1080B0000000014010B40B49002301E0152B0BD048
:1080C00003EB430201338C5C84420A44F6D192F9FB
:1080D00002005DF8044B70474FF0FF305DF8044B31
:1080E000704700BF7CA90020064B984202D04FF099
:1080F000FF307047044A538901339BB25381508942
:1081000080B2704700300140889E00202DE9F04188
:10811000054680681746984610B1036882885A83DE
:10812000686840F2E934838901E0002C43D0068975
:10813000013C16F0020FA4B2F7D089B2818140F25F
:10814000E93101E0002936D00389013913F0010F2C
:1081500089B2F7D08389838900264FF47A714FF66C
:10816000FF724FF0FF0C03E0013989B291421FD03A
:1081700003899C07F8D5A0F80CC04FF47A7102E08F
:10818000A1B2914214D00389DB0701F1FF34F7D586
:1081900083899BB20FB13B70013701364645E7D169
:1081A000AB6813B11A689B8813830120BDE8F08186
:1081B000FFF79AFFF4E7FFF797FF6868CBE700BF88
:1081C000836870B50446164613B11A689B885383BA
:1081D000606840F2E933828901E0002B31D00589E3
:1081E000013B15F0020F9BB2F7D089B2818140F2BA
:1081F000E93300E02BB30289013B12F0010F9BB27F
:10820000F8D08389838940F2E93300E0EBB101893A
:10821000013B11F0020F9BB2F8D0B6B2868140F25A
:10822000E93300E08BB10289013B12F0010F9BB2F0
:10823000F8D08389A36813B11A689B88138301203F
:1082400070BDFFF751FF6068DCE7FFF74DFFF1E716
:10825000F8B51646826805461F4641F0800112B106
:10826000136892885A83686840F2E934838901E090
:10827000002C44D00389013C13F0020FA4B2F7D0C4
:1082800089B2818140F2E93101E0002937D00389C8
:10829000013913F0010F89B2F7D0838983894FF038
:1082A000000C4FF47A714FF6FF724FF0FF0E03E0AF
:1082B000013989B291421FD003899C07F8D5A0F8F3
:1082C0000CE04FF47A7102E0A1B2914214D003891C
:1082D000DB0701F1FF34F7D583899BB20EB1337010
:1082E00001360CF1010CBC45E6D1AB6813B11A683C
:1082F0009B8813830120F8BDFFF7F6FEF5E7FFF733
:10830000F3FE6868CAE700BF437A5A1C0344D2B23E
:1083100042729972037A93420AD84AB110B5044660
:1083200004F10A01D0E9003098470023637210BDC0
:1083300070472DE9F04385B0B2F1FF3F8946904682
:1083400019469DF830500D9F23D0060900F00F0408
:108350004036CDE900423346154A2846B847A8B111
:10836000424699F80510D9F80000FFF775FE68B18C
:108370000388DAB20392C3F303221B0B0292CDE906
:1083800000430C4A334600212846B84705B0BDE8F3
:10839000F0836B06FAD40309074A00F00F000C9033
:1083A00040332846BC4605B0BDE8F043604700BFF7
:1083B000D05C0508E25C05080B5D050820B100787B
:1083C000B0FA80F04009704701207047037903F04C
:1083D0001803082B0AD002D82BB100207047102BAD
:1083E00016D0182BF9D1B0F80B007047114BB0F82C
:1083F0000B0093F90030591C06BF0F4B1B78DBB202
:10840000C3EB031203EB820300EB430080B270471F
:10841000084BB0F80B0093F901305A1C06BF064B0D
:108420005B78DBB203EB430203EB820300EB430018
:1084300080B2704798010020C03B0020F0B506795B
:1084400006F06003402B09D144794FF0FF3500233B
:10845000012006F00706A3420BD1F0BD602B08BF38
:1084600045794FF001040CBF04FA05F54FF0FF35D4
:10847000EDE7042E0CD8DFE806F0030D18242E00DB
:1084800030B1C85CD75C784028420CBF0120002086
:108490000133E0E70028FBD0C856D756A0EB070C05
:1084A000DCF1000040EB0C00F2E70028F0D031F8DE
:1084B000130032F81370784028420CBF01200020CE
:1084C000E6E70028E4D031F9130032F91370C71B36
:1084D00078427841DCE70028DAD051F8230052F8DE
:1084E0002370784028420CBF01200020D0E70BE722
:1084F00038B5074C074DAC4203D3074B00221A7026
:1085000038BD6288D4E9010145F0C0FC1434F2E7BB
:10851000A001000804070008B015002038B5074C7A
:10852000074DAC4203D3074B01221A7038BD628855
:10853000D4E9011045F0AAFC1434F2E7A0010008C8
:1085400004070008B015002003685A1C0260197067
:10855000704700BF2DE9F047089C2578002B804626
:1085600089460CBF4FF0200A4FF0300A661C25B335
:10857000002A26DD334601E0024698B113F8011BBC
:10858000501E0029F8D1971E60B13D46013D51466D
:108590004046C8476B1C002BF8DC257827EAE770BB
:1085A000013045B1041B29464046C847301916F82A
:1085B000015B002DF7D1BDE8F087002A03DC2846D7
:1085C000F9E70020EEE7571EDFE700BF2DE9F0478F
:1085D00014461D4606464FF47A720023204629466B
:1085E00045F0CAF94D4BDFF848814D4A4D4F0344E1
:1085F00088FB03101844D91782FB032CC1EB6010D1
:1086000088FB002887FB03279C44474AC1EBEC2CDE
:10861000C0EB001E82FB0C29A3EB8E0E1F44434AC5
:1086200086F806E0C1EB27474FEAEC7E08EB000A2C
:10863000CEEBA90E82FB07824FEAE0780EEB4E0EDE
:10864000C8EB6A18ACEBCE0CC8EB0818DFF8E4E016
:1086500086F804C0A0EB880070718EFB0303F81746
:10866000C0EBE21240F2B55000FB1272C1EBE353D3
:10867000B2F5896F4FEA83073CDA40F2DA239A4277
:1086800042DCB2F5B77FB4BF4FF0000E4FF0010EE1
:108690004FEA4E09DFF8A08009EB0E0308EBC30395
:1086A0001FFA8EFCD88A09EB0E0108EBC1011631C6
:1086B0000B2301E031F8020D904218DD013BF9D1A6
:1086C000CE44012338F83E00B37007F5FA67013253
:1086D000121ABC44F270A6F800C0204629464FF496
:1086E0007A72002345F048F93281BDE8F087013302
:1086F000DBB2E9E74FF0030CE64640F29650DFF8B4
:1087000038804FF00609CEE74FF0020CDFF82880E2
:10871000E64640F229404FF00409C4E780BC92C706
:10872000C5B3A29107452EC2ABAAAA2A73B06D1693
:1087300089888888792D031180F504080378202B17
:10874000024600F10100F9D0092BF7D02D2B00F0E3
:10875000A4802B2B03BF5378B7EE000A0246B7EE76
:10876000000AA3F13001C8B209289FED577A10D84A
:10877000F2EE046A07EE901AF8EEE77A12F8013F7B
:10878000E7EE267AA3F13001C8B20928B0EE677A85
:10879000F0D92E2B63D003F0DF03452B02D020EE5F
:1087A000070A704710B451782D294FD02B2979D062
:1087B000A1F13003092B02F101027AD80024002331
:1087C00003EB830301EB430312F8011FA1F1300017
:1087D0000928A3F13003F3D9B3F59A7F1A4628BFCD
:1087E0004FF49A72072B6CD9DFED386A1346F7EE17
:1087F000007A083B072B67EEA67AFAD802F0070248
:10880000DAB1F2EE046A012A67EEA67A15D0022ADE
:1088100067EEA67A11D0032A67EEA67A0DD0042A55
:1088200067EEA67A09D0052A67EEA67A05D067EE2C
:10883000A67A062A18BF67EEA67A002C3BD087EEF0
:10884000277A5DF8044B20EE070A70479178A1F172
:108850003003092B02F1020230D80124AFE753782C
:10886000A3F13001C8B2092802F1010293D8F2EE57
:10887000046AF0EE665A07EE901AF8EEE77A12F8FC
:10888000013F87EEA66AA3F13001C8B2092866EE5F
:10889000A56A37EE067AEED97DE75378BFEE000A77
:1088A00002465EE79178A1F13003092B02F1020242
:1088B00084D9F7EE007A27EE277AC2E7F7EE007A3E
:1088C000BDE7F7EE007A9BE70000000020BCBE4C3D
:1088D0000028F0B403DA2D230B704042013109283F
:1088E00004464FF0010307DD03EB83035B00B0FB9D
:1088F000F3F2092AF8D883B10F48A0FB0326B4FB92
:10890000F3F2092A02F1570C02F1300709DD03FBEB
:108910001244F30801F801CBEFD100230B70F0BC37
:10892000704703FB1244F30801F8017BE5D10023F3
:108930000B70F0BC704700BFCDCCCCCC884270B47B
:108940004FF0010442D301FB04F4B0FBF4F58D4277
:10895000F9D2ECB142BB092D04FB150005F1570615
:1089600005F130020EDDB4FBF1F403F8016B7CB1CC
:10897000B0FBF4F5092D04FB150005F1570605F1D0
:108980003002F0DCB4FBF1F403F8012B002CEFD142
:1089900000221A7070BC704703F8016BB4FBF1F44D
:1089A000002CF5D0B0FBF4F5092D04FB150005F102
:1089B000370605F13002EFDCB4FBF1F403F8012BCC
:1089C000002CEFD100221A7070BC70470546002AB7
:1089D000EAD1C0E790ED057A90ED004AD0ED066A45
:1089E000D0ED014AD0ED047A90ED035AD0ED025A51
:1089F000A4EE007AB0EE406AB0EE470AB0EE667AB6
:108A0000A4EE867A67EEC07AA5EE407AE5EE867A25
:108A100080ED057AC0ED067A704700BFD0ED057A8B
:108A200090ED013AD0ED003AD0ED064A90ED024AC1
:108A300090ED077A90ED035A90ED086AD0ED045A54
:108A4000C0ED067AF0EE406A27EE830AC0ED056AB3
:108A5000A3EEA60A80ED087AA4EE240AA5EE470A42
:108A6000A5EEC60A80ED070A704700BFD0ED007A78
:108A700090ED017A30EE670AE7EE007AB0EE670A11
:108A8000C0ED007A704700BF704700BF30B453227A
:108A90000023512503240221C27001228571C47173
:108AA0000370C3728373C373417041728270027228
:108AB000827230BC704700BF002306214FF47A72E7
:108AC0000170C0E901230373704700BF30B4312344
:108AD000012232254FF60174FF21437000234571B6
:108AE0000482817402720270027143818381C381A6
:108AF00030BC70472DE9F04F3149324B83B001F55E
:108B0000807B019028274FF000092F481022012672
:108B100003E0203098420BD002799742F9D10268E5
:108B20000C68A24209D02030984206F10106F3D128
:108B3000203159453AD00F79E7E744794D79A5427C
:108B4000F1D19446019A214809EB490502EB050A47
:108B500057558AF8016000F572751D4E624603E0B4
:108B6000A8421AD050F82C6FB242F9D10679A64229
:108B7000F6D1CF6806464FF0000C96468046F26864
:108B8000BA4216D00CF1010CBCF1030F06F10C0631
:108B9000F5D14046A8427246E4D14FF0FF3C203167
:108BA00059458AF802C009F10109C4D103B0BDE8F2
:108BB000F08F086932698242E4D14FFA8CFCEEE70B
:108BC000F4470508F451050834490508F45105082F
:108BD00000000140FF2310B4162115241722047051
:108BE00041708270C3700371037243724373837365
:108BF0005DF8044B704700BF084B09498B4203D313
:108C000009E014338B4206D21A88C2F30B02904259
:108C1000F7D118467047002318467047A001000896
:108C20000407000870B50546B0F80900FFF7E4FF37
:108C3000064B1E7804462846FFF7C8FB16B1A3680A
:108C4000184470BD63681844FBE700BFB0150020EE
:108C500038B505460C46FFF7E5FF2A7902F0070311
:108C600002F06002602A28D1022B0ED0042B18D00B
:108C70003BB96A7901239340DBB2027814B1134304
:108C8000037038BD22EA0303FAE76A7901239340AF
:108C90009BB2028814B113430380F2E722EA030374
:108CA000FAE76A79012303FA02F2036814B1134365
:108CB0000360E6E723EA0203FAE7042BE1D8DFE8E2
:108CC00003F00303050507000470DAE70480D8E722
:108CD0000460D6E7034600F11001FF221A705A70B3
:108CE00002339942FAD1027042708270C27082726D
:108CF000C27270470D20704770B582B004466A4654
:108D00000623E8211030FFF701FA9DF804009DF8D2
:108D100000609DF801109DF802509DF803209DF819
:108D2000053041EA062143EA002342EA05220120F8
:108D3000A4F85010A4F85220A4F8543002B070BD2A
:108D4000012380F850307047F0B4037C4569026815
:108D50001F2B37D9203B2021546899400C4223D047
:108D600010249C40D160D4605168D940CE074ED4C5
:108D7000EFF31183502282F31288EA6B1168C9075E
:108D800009D45468002C52D1D5E909618E4243D1EF
:108D9000012285F86020DBB283F31188037C02682E
:108DA0001F2B194614D9203B0821506899400842CE
:108DB00000D0D1600421506801FA03F3184223D196
:108DC000F0BC7047202416689C4026420FD11946FB
:108DD000082310688B40184200D093600423106869
:108DE00003FA01F10842EBD09160F0BC704710210A
:108DF0009940946091601168D940CC07B8D50121A1
:108E000001FA03F39360B3E7D360F0BC704701212C
:108E100001FA03F3D360ABE7AF690F44D7600ED814
:108E20002E69711A5160AC62002185F860101168DA
:108E300041F00101DBB2116083F31188AEE7711AD2
:108E40005160AE62F0E700BF2DE9F041B14DB24C88
:108E50002A7823789A4240F01B81B04B1A78002A76
:108E60007CD0AF4B1E78AF4B002E79D11968B3F888
:108E70002C714E628889012A40EA07008881A3F894
:108E80002C6157D0D3F83011B3F85C724E628889E8
:108E9000022A40EA07008881A3F85C624AD0D3F82E
:108EA0006012B3F88C734E628889032A40EA070087
:108EB0008881A3F88C633DD0D3F89013B3F8BC74C9
:108EC0004E628889042A40EA07008881A3F8BC64BE
:108ED00030D0D3F8C014B3F8EC754E628889052AF7
:108EE00040EA07008881A3F8EC6523D0D3F8F01599
:108EF000B3F81C774E628889062A40EA0700888109
:108F0000A3F81C6716D0D3F82017B3F84C784E623C
:108F10008889072A40EA07008881A3F84C6809D0AD
:108F2000D3F85028B3F87C095662918901439181A6
:108F3000A3F87C692A7823789A420FD07A481F4692
:108F40009B003B449B00C218C3583BB9137A2BB912
:108F5000537A1BB97B1C03F003032370BDE8F08137
:108F60005E68198971603768186847F0010740F238
:108F70000D313760A0F848108689012A46F48076C2
:108F80008681D7D0D3F83461B3F83871D3F8300183
:108F90007760376847F001073760A0F84810868986
:108FA000022A46F480768681C4D0D3F86462B3F88E
:108FB0006872D3F860027760376847F0010737605E
:108FC000A0F848108689032A46F480768681B1D0BD
:108FD000D3F89463B3F89873D3F890037760376845
:108FE00047F001073760A0F848108689042A46F444
:108FF000807686819ED0D3F8C464B3F8C874D3F861
:10900000C0047760376847F001073760A0F8481060
:109010008689052A46F4807686818BD0D3F8F4655C
:10902000B3F8F875D3F8F0057760376847F00107B3
:109030003760A0F848108689062A46F48076868133
:109040003FF478AFD3F82467B3F82877D3F8200734
:109050007760376847F001073760A0F848108689C5
:10906000072A46F4807686813FF464AFD3F854280B
:10907000B3F85808D3F850385060106840F0010039
:109080001060A3F848109A8942F480729A8151E7DF
:1090900080460BF07BFD27782B78BB4286461DD09F
:1090A000BB002148DA1900EB8202167AC6B1B8F18A
:1090B000000F3DD01D490022B1F808C00132BCF1BB
:1090C000000F18BF0026424501F58071F4D17EBB28
:1090D000124A1278002A3FF434AFC2E61248BB00AD
:1090E0003B449B00C118C258AEEB0202002AFFF6B7
:1090F00035AF4A7A3AB1013AD2B24A7212B30EF59A
:109100007A72C25000E0C250044B1A78002A7FF4F1
:10911000A8AE0FE738C7002039C70020ECB3002005
:10912000E9AB0020F0B300203CC70020ECAB0020EE
:10913000DA1992000EF51C51861810318150002268
:109140003272C5E74A687244C250DDE710B5027C4E
:1091500001681F2A4FF020030ED94C68203A934033
:109160001C4208D00B4A406800241470026822F0A8
:1091700001020260CB6010BD0C6893401C42FAD023
:10918000044A406800241470026822F00102026060
:109190008B60F0E7474200202DE9F041C40023181E
:1091A0009B00B749CA585268958AADB2EFB2FE0724
:1091B0000B4461D4BE0737D5BFF35F8F1D7EEDB280
:1091C000012D00F0BB80AF4E138BBFF35F8F2318D0
:1091D00001EB83031D7E022D00F0CE80231801EBEE
:1091E00083031D7E032D05D19B7E1BB1B378002B1D
:1091F00040F01A81938896F901C043F4806393800C
:10920000231801EB83031B7E013363450AD1F378F6
:109210000025B570002B40F08A80204401EB8000CF
:1092200000234375BDE8F081964E17F0040F96F9C0
:1092300001C04DD117F0400700F0B280178A1D6AB7
:10924000FFB205F80C705FFA8CF56F1C93F818E00C
:109250007BB2DF1CBE4573709C4600F00981271865
:1092600001EB87073F7EBB42CAD105F1020C4FFAE2
:109270008CFC86F801C0C3E71588824E25F4006592
:109280002D042D0C1580158845F4806515809D7E74
:1092900000277770002D3DD0B578002D37D02318EA
:1092A00001EB830301251B7EB570022B03D11388CC
:1092B00043F400631380231801EB83039B7D43F089
:1092C00001031382204401EB8000037EBDE8F0819E
:1092D0009F7EB5784FF0010E86F803E0002F5CD03A
:1092E000002D78D1231801EB83035B7E002B00F067
:1092F000A48013880CF1010C4FFA8CFC43F400732A
:1093000086F801C013801388DF05FCD478E7DB7D85
:10931000FF2BC4D0231801EB83039D7D05F0FE05D0
:109320001582DB7DFF2BCDD0FF237370CAE79388B6
:1093300023F440731B041B0C93806EE79B7E514EFD
:10934000002B3FF441AFB378002B3FF43DAF1388BF
:1093500023F480631B041B0C1380BFF35F8F138BFC
:109360001388F57043F400731380938896F901C055
:1093700043F48063938043E79B7E002B3FF42EAF42
:10938000B378002B3FF42AAF138896F901C023F479
:1093900080631B041B0C138016E0002DA2D0A8E7ED
:1093A0002D067FF52DAFBCF1FF3F6DD0DD6915F8BF
:1093B0000C5015820CF1010C1D7E4FFA8CF39D426E
:1093C0009C4673707FF41CAF938823F480631B0466
:1093D0001B0C938014E71F7ED3F820805FFA8CF576
:1093E000AE44022F4FFA8EFE17882DD927F48067DE
:1093F0003F043F0C1780178AFFB208F80C701788DB
:10940000D3F820C047F400731380138ADBB20CF842
:109410000E30938805F1020C4FFA8CFC43F4806304
:1094200086F801C093806EE7938896F901C023F413
:1094300080631B041B0C9380E2E61388012543F430
:1094400080731380B5705EE747F400771780178A42
:10945000FFB208F80C70178AD3F8208005F1030CCE
:109460004FFA8CFCFBB286F801C008F80E304AE7D0
:10947000978827F480673F043F0C9780EFE600BF92
:10948000189E0020B0150020DD7D15829D7E77702E
:109490001DB91B7E002B7FF415AF938823F48063E6
:1094A0001B041B0C93800DE710B4292126240122F4
:1094B0000023047041708270C3705DF8044B7047E4
:1094C00008B5202146F01FF80346184623B102785C
:1094D000202A03F10103F8D008BD024B186821F0DF
:1094E00019BD00BF2C18002038B52E22002145F0F0
:1094F000F3FF034640F2DC51642040F21A4240F28E
:10950000022418745982132019219A8240F275326C
:1095100040F26C751C8398760E240A201977DA8342
:1095200002210122DD8283F82D0040F643051972E5
:1095300083F82C1083F822409A7383F8252083F84F
:109540002B201D8419460248BDE838401AF035BA70
:10955000C86D050838B51D4B1B78044600F125057C
:1095600093B104221A49203045F0F4FF2846142212
:10957000184945F0EFFF012384F83A30164B1B7869
:1095800073B984F83B3038BD28461422134945F09E
:10959000E1FF012384F83A300F4B1B78002BF0D009
:1095A0000F4B186859689A68DD68E5602060616053
:1095B000A260DD69186959699A69A2610123E561B0
:1095C0002061616184F83B3038BD00BF347C0020ED
:1095D000FC7B0020E47B0020357C0020D46D050856
:1095E000047C002010B50021044601200AF058F93F
:1095F000207010BD38B500240472451EE1B202206F
:109600000AF04EF90134082C05F8010FF6D138BDE7
:109610002DE9F04F85B004AB802203F8012D0190B5
:109620002422192100203EF09FFE874C874EDFF850
:109630002882874DDFF82492864F642300930BF035
:10964000A5FA4FF0010A4FF0100E4FF47A7CD8F8CB
:109650000430C3F30803002B40F0D780EFF31183ED
:10966000002B40F0D2802368A96822689342FAD187
:109670003A689142F7D832680CFB02FBABEB010170
:10968000B1FBF2F10CFB03131B1AB3F57A7FDED3A7
:10969000009B013B0093D2D1184604AB972203F8FC
:1096A000022D192120223EF05FFEDFF8AC81684DCB
:1096B000DFF8A891674F0A2300930BF067FA4FF089
:1096C000010A4FF0100E4FF47A7CD8F80430C3F33F
:1096D0000803002B7BD1EFF31183002B77D1236894
:1096E000A96822689342FAD13A689142F7D8326861
:1096F0000CFB02FBABEB0101B1FBF2F10CFB031322
:109700001B1AB3F57A7FE0D3009B013B0093D4D1C1
:10971000184604AB102203F8032D192123223EF032
:1097200023FEDFF834814A4DDFF83091494F64233E
:1097300000930BF02BFA4FF0010A4FF0100E4FF48C
:109740007A7CD8F80430C3F3080313BBEFF311831A
:10975000FBB92368A96822689342FAD13A6891421A
:10976000F7D832680CFB02FBABEB0101B1FBF2F165
:109770000CFB03131B1AB3F57A7FE2D3009B013B6A
:109780000093D6D1019A4FF48053138305B0BDE8FE
:10979000F08FEFF311818EF31288D5F808B02B68A3
:1097A000DB0344BFC9F800A0D5F808B02368D9F896
:1097B0000020C9B281F31188316813440CFB01F217
:1097C000A2EB0B02B2FBF1F20CFB0323D2E7EFF3A7
:1097D00011818EF31288D5F808B02B68DA0344BFE4
:1097E000C9F800A0D5F808B02368D9F80020C9B29C
:1097F00081F31188316813440CFB01F2A2EB0B02D8
:10980000B2FBF1F20CFB03237AE7EFF311818EF345
:109810001288D5F808B02B68DB0344BFC9F800A054
:10982000D5F808B02368D9F80020C9B281F31188AF
:10983000316813440CFB01F2A2EB0B02B2FBF1F214
:109840000CFB032320E700BF449F0020E0A500207D
:1098500010E000E0E4A5002000ED00E0DCA5002021
:1098600008B5012025F020F9174A936803F00C038E
:10987000042B1ED0082B18D151685368490203F0FD
:109880003F0319D452681148B0FBF3F0C2F38813B8
:1098900000FB03F00C4B0E4A5B68C3F3014301333A
:1098A0005B00B0FBF3F0106008BD094B074A1A607B
:1098B00008BD074B186008BDB0FBF3F05368C3F355
:1098C000881300FB03F0E5E7003802400024F400B1
:1098D000BCA900208A4B1B78002B00F09880002840
:1098E00000F095802DE9F04F431E85B0854C019026
:1098F000032B4FF00006A8BF0323A4F11407039322
:10990000B0464FEA062A07EB0A03256E5B7C002B64
:109910007ED06A6892B2002A65D114F8050CD4E9A9
:109920001B13002800F0AA84603377485B1AA0FB61
:109930000351890901EB4101A3EB4113182B00F1FD
:109940007785173BA0FB0323DB0003F0F003D4E98A
:109950001D126D486032521AA0FB0251890901EBB9
:109960004101A2EB4112182A05D4173AA0FB0212BA
:10997000C2F343021343D4E91F1263486032521A00
:10998000A0FB0251890901EB4101A2EB4112182A07
:109990005EBF173AA0FB0212C2F34305D4E92112BD
:1099A000594802F16002A2EB0102A0FB02C14FEA9A
:1099B000911101EB4101A2EB411248BF0025182A89
:1099C00058BF173A45EA03155ABFA0FB0223C3F359
:1099D0004303002343EA051383EA132282EA1212A7
:1099E000100700F00C85494A13680133136026B94B
:1099F00080224749474844F049FA07EB0A0383F8B5
:109A0000118054F8109C256ED9F800B00CE0704716
:109A100054F8109C34F80A1CD9F800B0BBF80C209C
:109A200022EA0102ABF80C202A683B4B22F001022B
:109A300021219D422A60C5F80080C5F80480C5F840
:109A40000880C5F80C80C5F8108069611FD0334BC1
:109A50009D4200F03783324B9D4200F03D83314BF5
:109A60009D4200F0DF84304B9D4200F002852F4A7A
:109A7000954200F003852E4A954200F07E852D4ADE
:109A8000954200F0EC84284624F016FF02E02A4AB2
:109A90003D219160BA448AF8108099F805100C298C
:109AA00016D8DFE811F044011500150015004D012E
:109AB0001500150015003B011500150015000D00DF
:109AC000BBF81C2022F400621204120CABF81C201C
:109AD0002246584609F07AF899F805300C2B37D809
:109AE000DFE813F0060136003600360011013600BB
:109AF00036003600FB003600360036002C0000BF72
:109B0000E8AB002000AC0020ABAAAAAA0870002095
:109B10006CAC0020B41500201060024028600240A8
:109B2000406002405860024070600240886002401D
:109B3000A0600240B860024000600240BBF81C30E8
:109B400023F400631B041B0C43F40063ABF81C30CC
:109B5000D4E90D12236AE06B43F040030B43134337
:109B6000226CB14903431343626C13434022E26207
:109B7000A26C28681343A26D0292626D1343029A8D
:109B8000014013430B432B60D4E913316A69206B06
:109B900022F007020B431343D4E909126B6168609A
:109BA000A960EA602B6843F010032B60039B013629
:109BB0009E4204F580747FF7A4AE019B9E4280F222
:109BC000CC814FEA062A0AF114043C444FF0000805
:109BD00007EB0A03256E5B7C002B00F0BA806A68F5
:109BE00092B2002A65D114F8050CD4E91B130028A1
:109BF00000F07C8260338D485B1AA0FB0351890919
:109C000001EB4101A3EB4113182B00F11484173B26
:109C1000A0FB0323DB0003F0F003D4E91D1283480B
:109C20006032521AA0FB0251890901EB4101A2EBFB
:109C30004112182A05D4173AA0FB0212C2F34302BC
:109C40001343D4E91F1279486032521AA0FB025123
:109C5000890901EB4101A2EB4112182A5EBF173AB4
:109C6000A0FB0212C2F34305D4E921126F4802F1AE
:109C70006002A2EB0102A0FB02C14FEA911101EBCD
:109C80004101A2EB411248BF0025182A58BF173ADC
:109C900045EA03155ABFA0FB0223C3F34303002385
:109CA00043EA051383EA132282EA1212120700F034
:109CB000E0825F4A13680133136026B980225D4950
:109CC0005D4844F0E3F807EB0A0383F8118054F889
:109CD000109C256ED9F800B047E0BBF81C3023F08B
:109CE00008031B041B0C43F00803ABF81C302FE7E0
:109CF000BBF8183023F008031B041B0C43F00803C7
:109D0000ABF8183024E7BBF8183023F400631B04C9
:109D10001B0C43F40063ABF8183019E7BBF81C20A8
:109D200022F008021204120CABF81C20D0E6BBF89B
:109D3000182022F008021204120CABF81820C7E613
:109D4000BBF8182022F400621204120CABF81820A1
:109D5000BEE654F8109C34F80A1CD9F800B0BBF8E1
:109D60000C2022EA0102ABF80C202A68334B22F0C7
:109D7000010221219D422A60C5F80080C5F80480B7
:109D8000C5F80880C5F80C80C5F8108069611FD03F
:109D90002B4B9D4200F091812A4B9D4200F0978110
:109DA000294B9D4200F03983284B9D4200F05D8392
:109DB000274A954200F06783264A954200F0E283E5
:109DC000254A954200F04683284624F075FD02E0BE
:109DD000224A3D219160BA448AF8108099F8051012
:109DE0000C2910D8DFE801F0A70F0F0F9E0F0F0FFF
:109DF000B00F0F0F0700BBF81C2022F40062120402
:109E0000120CABF81C202246584608F0DFFE99F8E9
:109E100005300C2B2ED8DFE803F06F2D2D2D7A2D79
:109E20002D2D642D2D2D23003F801CF0ABAAAAAA56
:109E3000087000206CAC0020B415002010600240B7
:109E4000286002404060024058600240706002405A
:109E500088600240A0600240B8600240006002409A
:109E6000BBF81C3023F400631B041B0C43F4006399
:109E7000ABF81C30D4E90D12236AE06B43F04003C9
:109E80000B431343226C974903431343626C134300
:109E90004022E262A26C28681343A26D0292626DB6
:109EA0001343029A014013430B432B60D4E913314F
:109EB0006A69206B22F007020B431343D4E90912AD
:109EC0006B616860A960EA602B6843F010032B6047
:109ED000019B0136B34204F580743ED04FEA062A56
:109EE00076E6BBF81C3023F008031B041B0C43F080
:109EF0000803ABF81C30BDE7BBF8183023F00803AB
:109F00001B041B0C43F00803ABF81830B2E7BBF896
:109F1000183023F400631B041B0C43F40063ABF8FC
:109F20001830A7E7BBF8182022F400621204120CC4
:109F3000ABF8182067E7BBF8182022F008021204DB
:109F4000120CABF818205EE7BBF81C2022F00802C8
:109F50001204120CABF81C2055E77A68787B136862
:109F60005179800754BF012204228A40198C92B291
:109F700021EA02011984198C0A431A84019B012BDE
:109F800000F09880D7F8042197F80D0113685179F3
:109F9000820754BF012204228A40198C92B221EA1E
:109FA00002011984198C0A431A84019B022B00F0C8
:109FB0008180D7F8042297F80D021368517986073B
:109FC00054BF012204228A40198C92B221EA020174
:109FD0001984198C0A431A84019B032B6AD0D7F881
:109FE000042397F80D0313685179850754BF0122A4
:109FF00004228A40198C92B221EA02011984198C38
:10A000000A431A84019B042B54D0D7F8042497F8F0
:10A010000D14136850798C0754BF01220422198C47
:10A02000824092B221EA02011984198C0A431A84EF
:10A03000019B052B3ED0D7F8042597F80D05136832
:10A040005179800754BF012204228A40198C92B2B0
:10A0500021EA02011984198C0A431A84019B062BF8
:10A0600028D0D7F8042697F80D1613685079890779
:10A0700054BF01220422198C824092B221EA0201CB
:10A080001984198C0A431A84019B072B12D0D7F824
:10A09000042797F80D071368517982074CBF0422F3
:10A0A00001228A40198C92B221EA02011984198C8A
:10A0B0000A431A8405B0BDE8F08F0B4A4FF474616F
:10A0C000916088E6084A4FF474619160E2E4064AC0
:10A0D0004FF4741191607EE6034A4FF4741191605D
:10A0E000D8E400BF3F801CF0006002405B1A002BE8
:10A0F00040F3AA810A2BD4BF00230123D4E91D1207
:10A10000521A002A4FEA430340F3FB810A2A01DD79
:10A1100043F00103D4E91F12521A002A4FEA430305
:10A1200040F3F7810A2A01DD43F00103D4E921124B
:10A13000521A002A4FEA430340F3E7810A2A01DD5D
:10A1400043F00103D4E92312521A002A4FEA4303D1
:10A1500040F3CF810A2A01DD43F00103D4E925123F
:10A16000521A002A4FEA430340F3BF810A2A01DD55
:10A1700043F00103D4E92712521A002A4FEA43039D
:10A1800040F3AF810A2A01DD43F00103D4E929122B
:10A19000521A002A4FEA430340F39F810A2A01DD45
:10A1A00043F00103D4E92B12521A002A4FEA430369
:10A1B00040F38F810A2A01DD43F00103D4E92D1217
:10A1C000521A002A4FEA430340F37F810A2A01DD35
:10A1D00043F00103D4E92F12521A002A4FEA430335
:10A1E00040F36F810A2A01DD43F00103D4E9311203
:10A1F000521A002A4FEA430340F35F810A2A01DD25
:10A2000043F00103D4E93312521A002A4FEA430300
:10A2100040F34F810A2A01DD43F00103D4E93512EE
:10A22000521A002A4FEA430340F33F810A2A01DD14
:10A2300043F00103D4E93712521A002A4FEA4303CC
:10A2400040F32F810A2A01DD43F00103D4E93912DA
:10A25000521A002A4FEA430340F31F810A2A01DD04
:10A2600043F0010383EA132282EA121215077FF4F6
:10A2700020ADC3F30F1324F8023C24E55B1A002B36
:10A2800040F3DC800A2BD4BF00230123D4E91D1244
:10A29000521A002A4FEA430340F32F810A2A01DDB4
:10A2A00043F00103D4E91F12521A002A4FEA430374
:10A2B00040F35F810A2A01DD43F00103D4E9211252
:10A2C000521A002A4FEA430340F34F810A2A01DD64
:10A2D00043F00103D4E92312521A002A4FEA430340
:10A2E00040F33F810A2A01DD43F00103D4E925123E
:10A2F000521A002A4FEA430340F32F810A2A01DD54
:10A3000043F00103D4E92712521A002A4FEA43030B
:10A3100040F31F810A2A01DD43F00103D4E9291229
:10A32000521A002A4FEA430340F30F810A2A01DD43
:10A3300043F00103D4E92B12521A002A4FEA4303D7
:10A3400040F3FF800A2A01DD43F00103D4E92D1216
:10A35000521A002A4FEA430340F3EF800A2A01DD34
:10A3600043F00103D4E92F12521A002A4FEA4303A3
:10A3700040F3DF800A2A01DD43F00103D4E9311202
:10A38000521A002A4FEA430340F3CF800A2A01DD24
:10A3900043F00103D4E93312521A002A4FEA43036F
:10A3A00040F3BF800A2A01DD43F00103D4E93512EE
:10A3B000521A002A4FEA430340F3AF800A2A01DD14
:10A3C00043F00103D4E93712521A002A4FEA43033B
:10A3D00060DD0A2A01DD43F00103D4E93912521A83
:10A3E000002A4FEA430352DD0A2A01DD43F001034C
:10A3F00083EA132282EA121211077FF4F4AA634A55
:10A400001278C3F30F132F2A24F8023C7FF4F5AA25
:10A410005F4A22F81630FFF7F0BA5E4A4FF07461D7
:10A420009160D8E45B4A4FF074619160FFF732BBF2
:10A430001346FFF78CBA1346FFF7EFBB13F1090F72
:10A44000B4BF0023012321E713F1090FB4BF002398
:10A45000012353E64FF03D5142F8AC1CBBE44FF0F2
:10A460003D5142F8AC1CFFF715BB4A4A4A49D1603E
:10A47000B1E4484A4849D160FFF70CBB474942F86C
:10A480007C1CFFF707BB454942F87C1CA3E409325A
:10A49000AEDBABE70932A0DB9DE70932FFF6E2AEA7
:10A4A000DEE60932FFF6D2AECEE60932FFF6C2AEE4
:10A4B000BEE60932FFF6B2AEAEE60932FFF6A2AE54
:10A4C0009EE60932FFF692AE8EE60932FFF682AEC4
:10A4D0007EE60932FFF672AE6EE60932FFF662AE34
:10A4E0005EE60932FFF652AE4EE60932FFF642AEA4
:10A4F0003EE60932FFF632AE2EE60932FFF6D2AE64
:10A50000CEE60932FFF606AE02E60932FFF61AAED3
:10A5100016E60932FFF60AAE06E60932FFF652AF3A
:10A520004EE70932FFF642AF3EE70932FFF632AF9F
:10A530002EE70932FFF622AF1EE70932FFF612AF0F
:10A540000EE70932FFF602AFFEE60932FFF6F2AE81
:10A55000EEE60932FFF6E2AEDEE60932FFF6D2AEF3
:10A56000CEE60932FFF6C2AEBEE60932FFF6B2AE63
:10A57000AEE60932FFF6A2AE9EE6094942F8941C07
:10A58000FFF788BA064942F8941C24E4C85C00200E
:10A59000CC5C0020006002403D000020400F002005
:10A5A00000003D20037C02681F2B86BF203B5168C2
:10A5B0001168202202FA03F30B4214BF0123002387
:10A5C00003B970472DE9F0434569DFF81C9283B069
:10A5D0002D0204460AF0DAFA09EB050380461A7CDC
:10A5E000002A31D16F4A596810780A68C0B9586F8B
:10A5F0005E89016821F001010160938923EA060365
:10A600009381694B1B78002B31D1237C21681F2B50
:10A6100012D8202202FA03F38B6003B0BDE8F08366
:10A6200049690B6823F001030B60938923F480735D
:10A630001B041B0C9381E4E72022203B02FA03F366
:10A64000CB6003B0BDE8F0835E6F58485F8901229C
:10A650005A7431685A680368156821F00101316045
:10A66000AA89013322EA0702AA810360CDE709EB38
:10A6700005034F495E6F336823F001033360002305
:10A6800033608E427360B360F36033614FF0210337
:10A69000736168D0474B9E4260D0474B9E4266D064
:10A6A000464B9E4268D0464B9E426AD0454B9E42E6
:10A6B0006BD0454B9E426CD0444B9E426DD0304691
:10A6C000019224F0F9F8019A09EB050701232835D6
:10A6D000104609EB05013B7424F006FAD7E9120293
:10A6E0007B6B396D03431343D7E915200B431343A9
:10A6F000F96DBA6E03430B433068F96E1343344A65
:10A700000B4302401343002139643360D7E9183109
:10A710007269786C22F007020B431343D7E90E12DB
:10A7200073617060B160F26032687B6F97F870009F
:10A73000796842F01002326058601A68096842F085
:10A7400001021A608B897A8913438B810AF01EFA01
:10A75000204BA0EB0800C3F8840056E74FF4746167
:10A7600043F8201CB0E71C4B3D219960ACE74FF447
:10A77000741143F8381CA7E74FF0746143F8501C7C
:10A78000A2E7164943F8641C9EE7154943F87C1C70
:10A790009AE7144943F8941C96E74FF03D5143F86B
:10A7A000AC1C91E7E9AB0020E8AB00200C70002066
:10A7B0001060024028600240406002405860024041
:10A7C0007060024088600240A0600240B8600240B1
:10A7D0003F801CF0B0150020006002403D000020CA
:10A7E000400F002000003D20ECAB00200368DB6A36
:10A7F00003B11847704700BF03689B6A03B118474D
:10A80000704700BF03682DE9F0415D6A1DB12B461A
:10A81000BDE8F0411847002A174611DD04460E46F0
:10A820000F4400E023689B68204698470028F9D031
:10A83000236816F8011B1B6820469847BE42F1D1D9
:10A84000BDE8F08103689B69184700BF03685B6936
:10A85000184700BF0368DB68184700BF03689B68A0
:10A86000184700BF03685B68184700BF03681B6890
:10A87000184700BF014B1868F8E700BF34190020E3
:10A8800038B50C46097849B1054601342B6828468D
:10A890001B68984714F8011B0029F7D138BD00BF89
:10A8A000064B53F820302BB11A689B8851690B4234
:10A8B00001D1138370475383704700BFACA50020BC
:10A8C00003682DE9F04F03F13F4404F57E04534E35
:10A8D000A40A0125345D04F01F066409032C05FA5F
:10A8E00006F500F09580042C00F08D80022C46D0F7
:10A8F0008588B5FA85F0C0F11F0080B2C40803EB6B
:10A90000840400F00700266A80000F27874026EAAB
:10A9100007062662276A01F0030602FA00F0721E9B
:10A920003843012AC1F3810EC1F3001820624FEAB7
:10A9300051114FF000024FF0010C25D94FF0030EDA
:10A940000CFA02F0A84315D150001F680EFA00F46B
:10A95000E44327401F60D3F8008006FA00F747EA77
:10A9600008071F60DF683C40DC60DC6801FA00F02B
:10A970002043D8600132102AE2D1BDE8F08F284C84
:10A98000666C35436564B3E74FF003090CFA02F7D0
:10A9900037EA050033D15000D3F800A009FA00F4DB
:10A9A000E4430AEA040AC3F800A0D3F800B006FAA8
:10A9B00000FA4AEA0B0AC3F800A0D3F808A004EA98
:10A9C0000A0AC3F808A0D3F808B00EFA00FA4AEA57
:10A9D0000B0AC3F808A0D3F804A02AEA07075F60AF
:10A9E000D3F804A008FA02F747EA0A075F60DF68B5
:10A9F0003C40DC60DC6801FA00F02043D8600132A2
:10AA0000102AC3D1B9E7064C266B354325636FE79F
:10AA1000034C266C354325646AE700BF0C490508E2
:10AA20000038024010B50409013C072C17D80E4B22
:10AA300033F8142000F00F0042FA00F313F0010382
:10AA40000FD0012303FA00F00138104042F0E4FF78
:10AA5000064A074B125D104403EBC00010BD0020F6
:10AA600010BD184610BD00BF1C4905082C4905083B
:10AA7000E09A002042692F4938B5138823F040033B
:10AA80001B041B0C1380138823F038031B048A4219
:10AA900005464FEA134345D001F580618A420CBF59
:10AAA000082110210B431380138805F1100443F093
:10AAB00040031380242180222046FDF781FB64207F
:10AAC0000EF01CFFAF2220212046FDF779FB01206C
:10AAD0000EF014FF602223212046FDF771FB642055
:10AAE0000EF094FF95F8610000B938BDFFF79AFFAA
:10AAF00005F10C010446B8B12023002283710E4BEE
:10AB0000C271EB603DF080FDA388B3FA83F3C3F11B
:10AB10001F03012212FA03F3E7D008490A6813431E
:10AB20000B6038BD0821BDE7034BEB60BDE8384042
:10AB30003DF06ABD00380040418D0008003C0140F6
:10AB40002DE9F04F4A484B494B4B4C4C4FF0010A12
:10AB50004FF002094FF004084FF0080E4FF0100CB0
:10AB600020274026802530F8022F12F0010F03D055
:10AB70001960A3F804A0083312F0020F03D0196083
:10AB8000A3F80490083312F0040F03D01960A3F85F
:10AB90000480083312F0080F03D01960A3F804E012
:10ABA000083312F0100F03D01960A3F804C0083363
:10ABB00012F0200F02D019609F80083312F0400F6E
:10ABC00002D019609E80083312F0800F02D0196005
:10ABD0009D80083312F4807F05D04FF4807B19608C
:10ABE000A3F804B0083312F4007F05D04FF4007BC3
:10ABF0001960A3F804B0083312F4806F05D04FF445
:10AC0000806B1960A3F804B0083312F4006F05D00C
:10AC10004FF4006B1960A3F804B0083312F4805F9E
:10AC200005D04FF4805B1960A3F804B0083312F428
:10AC3000005F05D04FF4005B1960A3F804B008333F
:10AC400012F4804F05D04FF4804B1960A3F804B084
:10AC50000833D20B04D04FF4004219609A800833B5
:10AC600001F58061A1427FF47EAFBDE8F08F00BFA7
:10AC70001A49050800000240E09A00200020024026
:10AC800000B9704703682DE9F04F03F13F4404F524
:10AC90007E04534EA40A0125345D04F01F066409A6
:10ACA000032C05FA06F500F09580042C00F08D8049
:10ACB000022C45D08588B5FA85F0C0F11F0080B21E
:10ACC000C40803EB840400F00700266A80000F2705
:10ACD000874026EA07062662276A01F003068240BB
:10ACE000701E3A4301282262C1F3810EC1F300189D
:10ACF0004FF000024FEA51114FF0010C25D94FF0EF
:10AD0000030E0CFA02F0A84315D150001F680EFA8A
:10AD100000F4E44327401F60D3F8008006FA00F7F0
:10AD200047EA08071F60DF683C40DC60DC6801FA26
:10AD300000F02043D8600132102AE2D1BDE8F08F44
:10AD4000284C666C35436564B4E74FF003090CFA90
:10AD500002F737EA050033D15000D3F800A009FA12
:10AD600000F4E4430AEA040AC3F800A0D3F800B0F0
:10AD700006FA00FA4AEA0B0AC3F800A0D3F808A0C2
:10AD800004EA0A0AC3F808A0D3F808B00EFA00FAD9
:10AD90004AEA0B0AC3F808A0D3F804A02AEA070776
:10ADA0005F60D3F804A008FA02F747EA0A075F6079
:10ADB000DF683C40DC60DC6801FA00F02043D860CA
:10ADC0000132102AC3D1BDE8F08F064C266B354303
:10ADD00025636FE7034C266C354325646AE700BFA3
:10ADE0000C4905080038024000B97047036803F1B8
:10ADF0003F4202F57E022DE9F04F920A464DAA5CD1
:10AE000002F01F0552090124032A04FA05F47ED03A
:10AE1000042A77D0022A30D001F00306721E012ADC
:10AE2000C1F3810EC1F300188588C1F341114FF0C1
:10AE300000024FF0010C25D94FF0030E0CFA02F07E
:10AE4000A84315D150001F680EFA00F4E4432740D0
:10AE50001F60D3F8008006FA00F747EA08071F6072
:10AE6000DF683C40DC60DC6801FA00F02043D86019
:10AE70000132102AE2D1BDE8F08F284A556C2C43EC
:10AE80005464C9E74FF003090CFA02F737EA0500EA
:10AE900033D15000D3F800A009FA00F4E4430AEAE1
:10AEA000040AC3F800A0D3F800B006FA00FA4AEA90
:10AEB0000B0AC3F800A0D3F808A004EA0A0AC3F8F2
:10AEC00008A0D3F808B00EFA00FA4AEA0B0AC3F851
:10AED00008A0D3F804A02AEA07075F60D3F804A00B
:10AEE00008FA02F747EA0A075F60DF683C40DC6067
:10AEF000DC6801FA00F02043D8600132102AC3D187
:10AF0000BDE8F08F054A156B2C43146384E7034AB0
:10AF1000156C2C4314647FE70C4905080038024087
:10AF200010B1036882885A83704700BF10B103686C
:10AF300082881A83704700BF18B10368828809B9F4
:10AF40005A8370471A83704738B5074B03EBC00527
:10AF50002C796A794C40A24205D053F83000214642
:10AF6000FFF7EAFF6C7138BD8CA8002010B40A4BC3
:10AF70000A4A1C7801238340234052F8200029B953
:10AF8000B3FA83F149095DF8044BD5E7191C18BFE2
:10AF900001215DF8044BCFE7A8A50020ACA5002057
:10AFA00030B1036882881B691A4214BF0120002057
:10AFB000704700BF2DE9F0410B4E346873691C40A7
:10AFC0000FD0DFF828800127B4FA84F3C3F11F0300
:10AFD00007FA03F558F8230003689847AC437561F6
:10AFE000F2D1BDE8F08100BF003C0140B89E0020D6
:10AFF0002DE9F0410B4E346873691C400FD0DFF827
:10B0000028800127B4FA84F3C3F11F0307FA03F57C
:10B0100058F8230003689847AC437561F2D1BDE846
:10B02000F08100BF003C0140B89E00202DE9F041B6
:10B030000B4E346873691C400FD0DFF8288001275D
:10B04000B4FA84F3C3F11F0307FA03F558F8230099
:10B0500003689847AC437561F2D1BDE8F08100BF49
:10B06000003C0140B89E00202DE9F0410B4E3468B1
:10B0700073691C400FD0DFF828800127B4FA84F3ED
:10B08000C3F11F0307FA03F558F823000368984734
:10B09000AC437561F2D1BDE8F08100BF003C0140D6
:10B0A000B89E00202DE9F0410B4E346873691C40B6
:10B0B0000FD0DFF828800127B4FA84F3C3F11F030F
:10B0C00007FA03F558F8230003689847AC43756105
:10B0D000F2D1BDE8F08100BF003C0140B89E0020E5
:10B0E0002DE9F0410B4E346873691C400FD0DFF836
:10B0F00028800127B4FA84F3C3F11F0307FA03F58C
:10B1000058F8230003689847AC437561F2D1BDE855
:10B11000F08100BF003C0140B89E00202DE9F041C5
:10B120000B4E346873691C400FD0DFF8288001276C
:10B13000B4FA84F3C3F11F0307FA03F558F82300A8
:10B1400003689847AC437561F2D1BDE8F08100BF58
:10B15000003C0140B89E0020084A094808B5536CDD
:10B1600043F4804353640021402244F0B5F9054B79
:10B170004FF0FF321A60C3F8032008BD00380240C8
:10B18000B89E0020F89E0020002837D0F0B41C495B
:10B190000579002301E0152B2DD003EB4302013389
:10B1A0008C5CAC420A44F6D192F90270046845798D
:10B1B000FBB2022B1FD81348134907EB4706024680
:10B1C000B600002304E00133172B14D052F82C1FD3
:10B1D0008C42F8D11179A942F5D19119C968002999
:10B1E000F1D02C2202FB03F308330C2212FB0733AD
:10B1F0001844F0BC70470020F0BC7047704700BF97
:10B200007CA90020F451050800000140D3B2012BB5
:10B2100023D8F0B4124F02EB420600253C46B6009C
:10B220002B4604E00133172B14D014F81C5FA842FE
:10B23000F8D165788D42F5D1A519AD68002DF1D012
:10B24000C3EBC3039B000C20043310FB0233F8183C
:10B25000F0BC70470020F0BC70470020704700BF72
:10B26000E0F504082DE9FF47B2F1FF3F05468946A6
:10B2700092461F469DF830400D9E20D001F10108F6
:10B28000CDE9008239460368134A2046B04752464A
:10B290005FFA89F12879FFF7B9FF00B100880F4AFA
:10B2A000C3B20393C0F30323000B0293CDE90080E4
:10B2B0002B6839462046B04704B0BDE8F0876306E6
:10B2C000FAD44B1C0C930368054A39462046B44611
:10B2D00004B0BDE8F04760471F5D05082C5D050818
:10B2E000505D05082DE9F74F404CDFF80C910646FC
:10B2F00004F1480ADFF8F8B00025A37A99F8007045
:10B30000AB4242DC0C345445F4D140F21620FDF738
:10B3100073FCD0E901580FB9A8463D46002418F83F
:10B32000047067B308EB040A38469AF8011009F074
:10B330000FF99AF902A08146002D53D0002303EBA8
:10B340004302AA5CBA424AD12B1993F90220AAEB14
:10B350000203D3F1000B4BEB030B3DB1244B4946E9
:10B36000CDE9006338465B46FCF7E3FF214B5246CC
:10B37000CDE9006349465B463846FCF7DAFF033403
:10B380003F2CCCD103B0BDE8F08FE088FDF734FC52
:10B39000D0E901310FB919463B46227A607A05FBA4
:10B3A00002028F56C3B19A56B91AD1F1000848EB80
:10B3B000010833B1CDE9006B434629462046FFF72B
:10B3C00051FF0C4B2946CDE900633A4643462046DF
:10B3D000FFF748FF013590E74FF0FF32E4E7013314
:10B3E000152BACD14FF0FF32B1E700BF9C0100201C
:10B3F000EDBA00081DBB0008B015002010B58B6821
:10B40000016004469847FF2300210122E381217354
:10B41000627310BD03681B6A184700BF70B44E1CEE
:10B420000568C2728672AC69A44670BC604700BFF2
:10B430002DE9F041044618460D4616461F4641F0D8
:10B44000A5FD2844A0722068E672294645693B465E
:10B4500032462046AC46BDE8F0416047036810B56F
:10B4600004461B689847236820469B689847E37BFF
:10B470000133E37310BD00BF10B5036804469B6839
:10B480009847FF230122A373627310BD70B5054670
:10B4900000780E46FFF7C6FA044618B13823013685
:10B4A0008371C67120466978FFF79EFCAB78204611
:10B4B00013B1BDE8704039E5BDE8704030E500BF2C
:10B4C000427A4AB110B5044604F10A01D0E90030CD
:10B4D00098470023637210BD704700BF28B1302821
:10B4E00001D0312802D129B3002070473228FAD088
:10B4F0003328F8D03428F6D03528F4D02028F2D0DC
:10B500002128F0D01028EED01128ECD01228EAD053
:10B510001328E8D01428E6D01528E4D0162803D143
:10B52000B1FA81F0400970471728DDD1B1FA81F0F6
:10B530004009704701207047302829D0312829D090
:10B54000322829D0332829D0342829D0352829D0A9
:10B5500020282BD021282BD0102825D0112829D005
:10B56000122829D0132829D0142829D0152829D009
:10B57000162805D0172808BF0F2302D000207047D7
:10B580000E23114A03EB4303134493F8E60270477A
:10B590000023F6E70123F4E70223F2E70323F0E7B1
:10B5A0000423EEE70523ECE70823EAE70623E8E7B0
:10B5B0000723E6E70923E4E70A23E2E70B23E0E7B2
:10B5C0000C23DEE70D23DCE780F50408024B01467F
:10B5D0001868FCF799BE00BF2818002038B5064D42
:10B5E000441E14F8011F286811B9BDE8384067E708
:10B5F000FCF78AFEF5E700BF281800200048EDE7B9
:10B600002E6A050808B5FFF7E9FFBDE80840F5E731
:10B6100010B504460348FFF7E1FF2046BDE810409F
:10B62000F0E700BF5F5D0508024A136823EA0000E7
:10B6300010607047C8BD0020DFED2B7AB4EEE70A3A
:10B64000F1EE10FA4ADDDFED296A9FED297A01E07B
:10B65000B0EE670AB4EEC70AF1EE10FA70EE667A41
:10B66000F6DC9FED247AF4EEC77AF1EE10FA38D5C5
:10B67000DFED1E6A9FED207A01E0F0EE407AF4EEF5
:10B68000C77AF1EE10FA37EEA60AF6D4DFED1B7A90
:10B69000B4EEE70AF1EE10FA14DDDFED137A37EEBF
:10B6A000C00A60EE006A9FED166A9FED167ADFED24
:10B6B000167AA6EE867A20EE266AE6EE877AA6EE5F
:10B6C000270A7047DFED117AB4EEE70AF1EE10FABF
:10B6D00044BFDFED087A37EEC00AE2E7F0EE407AC9
:10B6E000BFE7B0EE670AD1E7DB0F4940DB0FC94087
:10B6F000E4CB1641DB0F49C0E4CB16C1DB0FC93FD9
:10B7000092E741B99730083C15A82ABEDB0FC9BFA4
:10B71000F0EEC07AB0EEE07AB4EEE77AF1EE10FA2D
:10B72000B4BFB0EE676AB0EE476AB5EE406AF1EEBC
:10B7300010FA46D0B4EEE77AF1EE10FA8CBFF0EED4
:10B74000675AF0EE475AC5EE866A9FED1F3A9FEDA5
:10B750001F6A9FED1F4A9FED1F5ADFED1F3ADFED75
:10B760001F4ADFED1F5AA6EEC36AE6EEA34AA6EE15
:10B77000864AB7EE006AA6EE845AA6EEA46AE6EE02
:10B78000855AC5EE866AB4EEE77AF1EE10FA48BF44
:10B79000DFED147AF5EEC00A48BF77EEE66AF1EE07
:10B7A00010FA48BFDFED107AB5EEC00A48BF77EE59
:10B7B000E66AF1EE10FA48BFF1EE666AB0EE660A8C
:10B7C0007047DFED076ADEE739094E3DE3B59E3E7F
:10B7D00088FA163E45FE7F3F99FB243F69A2163E3C
:10B7E000A7DFA834DB0FC93FDB0F4940DFED317A1B
:10B7F00030EE277AFDEEC76A16EE903A2033402BE2
:10B8000002D99FED2D0A7047B4EEE70AF1EE10FA67
:10B810004DDD9FED2A6ADFED2A6A01E0B0EE677A1E
:10B82000B4EEE67AF1EE10FA77EE467AF6DC9FEDAA
:10B83000257AF4EEC77AF1EE10FA35D5DFED1F6AFE
:10B840009FED217A01E0F0EE407AF4EEC77AF1EE56
:10B8500010FA37EEA60AF6D4DFED167AB4EEE70A50
:10B86000F1EE10FA1BDCDFED197AB4EEE70AF1EE27
:10B8700010FA44BFDFED137A37EEC00A60EE006ABB
:10B880009FED136A9FED137ADFED137AA6EE867AA9
:10B8900020EE266AE6EE877AA6EE270A7047DFEDED
:10B8A0000F7A37EEC00AE9E7B0EE670AD4E7F0EEA8
:10B8B000477ABCE7DB0FC93F00000000DB0FC9403F
:10B8C000E4CB1641DB0F49C0E4CB16C1DB0FC9BF87
:10B8D00092E741B99730083C15A82ABEDB0F4940D2
:10B8E00010B44C09012250F8243001F01F0102FA73
:10B8F00001F123EA010340F824305DF8044B70475E
:10B9000010B44C09012250F8243001F01F0102FA52
:10B9100001F10B4340F824305DF8044B704700BF41
:10B920004B0901F01F0150F82320012303FA01F114
:10B93000114214BF18460020704700BF2DE9F043A4
:10B94000002489B006460D461F46A04605E025297D
:10B950000CD030460134A847039A531C0393117846
:10B960000029F4D1204609B0BDE8F083931CCDE94D
:10B9700003385078302842D0A0F13003DBB2092BD5
:10B980004FF0000945D96C282AD0642873D019D902
:10B99000732858D063D9752840F0828007F1040CD1
:10B9A000386805AB00220A216746FCF7C7FF05ABE4
:10B9B000049A009329464B463046FCF7CBFD039A88
:10B9C0000444CAE725283CD051D958286BD06328B5
:10B9D000C2D139783046A84704370134039ABCE70E
:10B9E000039B5A1C03921B78642B52D016D8252B2C
:10B9F00027D064D9582B18D0632BEAD0ADE7D31CDD
:10BA000003939078A0F13003DBB2092B4FF00109CA
:10BA1000B9D804AA03A93EF091FAB4E7732B12D067
:10BA200051D9752B2DD0782B97D1A3F15802B2FAAA
:10BA300082F23868520905AB10210437FCF77EFF0B
:10BA4000B5E7252185E73B68049A00932946002342
:10BA50003046FCF77FFD04370444039A7DE76E28E7
:10BA60007FF47AAF039A3B6804371C6075E70028BF
:10BA70003FF478AF70E7386805A9FCF729FF043771
:10BA800095E7386805AB00220A21FCF757FF043719
:10BA90008DE73B1D386805A91F46FCF719FF86E7AF
:10BAA00078287FF459AFA0F15802B2FA82F23868D0
:10BAB000520905AB1021FCF741FF043777E7002B53
:10BAC0003FF450AF49E76E2BCDD046E710B5054C9B
:10BAD0000B46024604492068FFF730FF2068BDE8A6
:10BAE0001040EDE428180020EF8400080CB407B5DE
:10BAF00010F020000BD079B92320FFF767FD05A9CE
:10BB000004980191FFF7E2FFFFF778FD012003B0F1
:10BB10005DF804EB02B070470020F8E70CB4C306F0
:10BB200007B500D561B905A904980191FFF7CEFFCB
:10BB3000FFF764FD012003B05DF804EB02B070472D
:10BB40000020F8E72DE9F74F824640F21620FDF776
:10BB500053F8214B1B78D0E901490BB9A1461C468B
:10BB6000002619F8065055B309EB060393F8018037
:10BB700084B30023E15CA94204EB030225D153788E
:10BB8000A3EB08022F09D2F1000B4BEB020B40375D
:10BB900005F00F054CB143B1013BCDE900530F4A0D
:10BBA0003B4659465046FFF7A1FF08F1FF33CDE968
:10BBB00000530A4A3B4659465046FFF7AFFF03364B
:10BBC0003F2ECED103B0BDE8F08F03333F2BD1D150
:10BBD0000023D5E72346D3E7B0150020645D0508B0
:10BBE0002DE9F04F354C87B08046354A2378608880
:10BBF00002EB8303D3F8EC93FCF7FEFFD0E901A33B
:10BC00000493304B1B7813B9CDF810A09A4608F076
:10BC10004003DFF8BCB005930026A379002B08BFD2
:10BC200001239E4206DB284B08349C42DDD107B03D
:10BC3000BDE8F08F6279237906FB0323049A01366D
:10BC4000D55CBAF1000F11D1B5FA85F77F090DB3B4
:10BC500005F00F032D0940350293CDE900654B46F1
:10BC60005A4639464046FFF759FFD6E71AF80330DF
:10BC7000EA1A57425741C3B103F00F021B09403380
:10BC80000292CDE900635A464B4639464046FFF7DB
:10BC90002DFFDCE7059B002BBFD100964B460B4ADE
:10BCA00039464046FFF73AFFB7E700964B46074A4A
:10BCB00039464046FFF71AFFC9E700BF94F8040869
:10BCC00080F50408B01500206CF904088A5D0508A9
:10BCD000745D05082DE9F04F4A4085B09A46DFF8BB
:10BCE0007080DFF87090D34306460D46002403931E
:10BCF000204630F071FA039B144A034214BF012717
:10BD0000002710EA050302934FF00C0303FB042302
:10BD10003946D3F808B0CDF800B014BF42464A46C1
:10BD200053463046FFF7E2FE029ACDF800B0002AF3
:10BD300014BF4A4642465346394630460134FFF75F
:10BD4000EDFE182CD4D105B0BDE8F08F2C220508EB
:10BD5000136505089E5D050870B5064641F016F9A5
:10BD6000114C054690B111220021204643F0B4FB4E
:10BD70002A460E49304643F0DBFB38B1102D2A46E7
:10BD8000314628BF1022204643F0E4FB2378064AC0
:10BD9000002B08BF0121054B1CBF002113460120C9
:10BDA000034ABDE87040B9E6E04F0020B5B8050889
:10BDB000565F050870B5054641F0E8F8044690B1B5
:10BDC000112200210F4843F087FB22460E492846E6
:10BDD00043F0AEFB38B1102C2246294628BF102272
:10BDE000084843F0B7FB094B13F8112F002A064A05
:10BDF00006BF012113460021054A0120BDE870401D
:10BE00008CE600BFF14F0020B5B80508E04F0020D8
:10BE1000A55D05082DE9F04F002489B083469246C0
:10BE20000D4626464FF019094FF46178BAF1000F1C
:10BE300022D004EB84030AEB030705223946284687
:10BE4000079343F021FB3A79079B19FB0282049286
:10BE5000FA781AF8033019FB02820392BA78029238
:10BE6000B0FA80F67A78019276090093104A234658
