:020000040800F2
:10000000F0FF0010A13F05084D190108A9E80108FB
:100010004140050841400508414005080000000036
:100020000000000000000000000000005919010855
:1000300055190108000000005119010861E9010883
:100040004140050841400508414005084140050878
:100050004140050841400508112904083D2A0408CB
:10006000012A0408C5290408892904084DDA000872
:100070003DDA00082DDA00081DDA000809DA000868
:10008000F5D90008E1D900084140050841400508BC
:100090004140050841400508414005084D29040834
:1000A0008D7A010829800108BD790108F9800108CD
:1000B000697F0108A97E0108DD7D010835F500088A
:1000C0003DF5000825F500082DF50008414005081C
:1000D000414005081D21040841400508812004080D
:1000E000D52804084140050845670108ED78010856
:1000F0005D7B01081D7801083D7C0108CDD9000811
:1001000041400508414005080D7D010841400508B2
:10011000E51F04084140050835340308213403086D
:10012000B9D90008A5D9000891D900087DD90008DF
:1001300069D90008414005084140050841400508CB
:1001400041400508414005084140050815340108B3
:1001500055D9000841D900082DD90008491F0408C5
:1001600015F500081DF50008414005084140050847
:100170004140050841400508414005084140050847
:0801800041400508414005085B
:08018800483B050001000000E6
:10019000020203007C1C0020781C002000000000EC
:1001A0000000000010020100841C0020801C0020C0
:1001B000000000001C0700081F021000981C00200F
:1001C000881C0020000000001D85000814000300AA
:1001D000D05500203C5600200000000020070008F9
:1001E0000B301800DC4500204056002000000000C5
:1001F000240700081F302400F44500205856002032
:10020000000000003C0700080502040064510020C3
:100210007C560020000000006007000803010A006F
:1002200034460020805600200000000064070008CB
:1002300013020400044400208C560020000000003B
:100240006E0700081A023C0094670020786A0020BC
:1002500000000000C19400082700040090670020FF
:10026000B46A00200000000072070008F6210C00AC
:100270002C75002060750020000000007807000841
:1002800020320A00BC750020B0750020000000007C
:10029000A5F901081C0210001C710020C87500207F
:1002A00000000000B18300081010020088740020D4
:1002B000D8750020000000008407000828101000F6
:1002C00078740020DC750020000000001DFA010891
:1002D0001900050070740020EC750020000000007B
:1002E00086070008F821060068740020F4750020D5
:1002F000000000008C07000801200800886D002025
:10030000FC75002000000000920700080A70280019
:10031000046D00200476002000000000C5F90108EB
:100320000EA07401906B00202C76002000000000CD
:100330009159040801010400F86A0020A077002008
:10034000000000000000000000010400F06A00202E
:10035000A4770020000000009A07000802010300B3
:10036000EC6A0020A877002000000000110D0308AF
:1003700009020100B48F00202C9000200000000032
:100380009E0700080C109C00DC7F002030900020AD
:1003900000000000910C030800020500C07F00204F
:1003A000CC90002000000000000000001B021000A4
:1003B000947F0020D490002000000000D983000822
:1003C0001E000600007D0020E490002000000000D8
:1003D000A00700081B100C00007A0020EC90002001
:1003E00000000000DDAE02082102F000807800204D
:1003F000F890002000000000B19C020805100600E3
:1004000058820020E891002000000000A6070008A4
:1004100037102400307F0020F09100200000000001
:10042000AC0700080E0202003C820020149200205B
:1004300000000000D00700081610060074780020A5
:100440001892002000000000D20700082F102200A0
:10045000089000202092002000000000D80700082B
:1004600012201000E87B00204492002000000000D1
:10047000FA07000823100E00507C00205492002040
:100480000000000035FA0108F5518C00AC7700201F
:1004900064920020000000007DE7020826100C0096
:1004A000FC920020F092002000000000A98F0208BA
:1004B00007020200F09D0020809E00200000000046
:1004C0000A08000803123300299E0020849E0020A1
:1004D000000000000C08000802000C00C89D00206D
:1004E000B89E0020000000000000000006020C0082
:1004F000BC9D0020C49E0020000000005195000813
:1005000008120F003C9D0020D09E0020000000003B
:10051000F1840008F7010600309D0020E09E0020D5
:1005200000000000400800080A020A00BC9A0020EF
:10053000E89E0020000000001913030803000100DA
:10054000249D0020F49E0020000000000000000018
:1005500025102C01D09A0020F89E002000000000F9
:10056000000000001A000E0068A9002078A90020F1
:1005700000000000460800081500700058A5002083
:1005800088A9002000000000000000002A00600090
:1005900008A90020F8A900200000000069590408FB
:1005A0002C00100068AA002058AA002000000000BB
:1005B000F95604082B0024009CAA002078AA0020E9
:1005C00000000000C95604082920780048A3002034
:1005D000C0AA002000000000000000000D003C0048
:1005E00020E10020CCE100200000000005AB030862
:1005F00004008000A8D7002008E2002000000000CE
:10060000000000001300040088D7002088E20020CA
:100610000000000054080008FD01240064D70020F9
:100620008CE2002000000000FDF5030818202E00D9
:1006300030D70020B0E200200000000061960008E2
:1006400006101A0030C50020E0E200200000000083
:10065000F1590408FB0101002CC50020FCE2002038
:1006600000000000CD960008FC010900F8C300203E
:1006700000E3002000000000DD96000816023F00A5
:10068000B0C300200CE3002000000000118400082B
:1006900034001000E0C200204CE300200000000005
:1006A000C559040811020800B8C200205CE300200C
:1006B000000000005808000812120400B0C2002018
:1006C00064E300200000000060080008F901040055
:1006D00030BF002068E300200000000075F603082A
:1006E000FA010200E8B800206CE3002000000000DE
:1006F0001986000811000C0071AD002070E3002085
:100700000000000015AA0308FE0114004CAD0020F3
:0C0710007CE3002000000000ED830008E6
:10071C000000000003000000AE014A015E012C0144
:10072C0064000200000001000A019A01001E0A0088
:10073C0000000000000100000005000001020300A1
:10074C00000000000000000000000000000000009D
:10075C000080070000000000040101006C1600007E
:10076C000000000001182003000000000000000041
:10077C00010000000202000000050000280100003A
:10078C000401F4011400E8036400040A0001900160
:10079C0000002E00000001000000200003010000FA
:1007AC0020003200C800D007960014003200280048
:1007BC00B00440060005500014000F00080064004F
:1007CC00010001000000C409000019000000000035
:1007DC00000000000000000000000000000000000D
:1007EC0000000000000000000000000000000000FD
:1007FC000001000005504F44490000080000013C76
:10080C0000000000000000000000000000000000DC
:10081C0000000000000000000000000000000000CC
:10082C0000000000000000000000000000000000BC
:10083C00000001000000010000007E05EA05B4057F
:10084C003200E803D00700000804403038000000F4
:08085C0001010101FFFFFFFF94
:100864001A03000000000000000000000000000067
:100874000000000000000000000000000403090460
:10088400120100020000004083042057000201020C
:100894000301000021C40008758500087185000863
:1008A4006D850008F99600086985000865850008CB
:1008B400745A0508ED1A0108B9FC00082D26010830
:1008C4000000000000000000312301084D2201084F
:1008D400000000000000000000000000F1F7000824
:1008E4000D860008018600089D9C0008B99C00083C
:1008F400B9850008819C0008659C00080068214CAB
:100904001F0000001C0000001F0000001E0000006B
:100914001F0000001E0000001F0000001F00000058
:100924001E0000001F0000001E0000001F00000049
:10093400000004010000000000000002100000009C
:100944000700000000000000000000000102030492
:10095400060708090403090412010002EF0201401A
:100964008304563200020102030100001201000256
:100974000202004083044057000201020301000008
:1009840009022000010104C0320904000002080623
:1009940050050705810240000007050102400000E0
:1009A40009026400030100C03209040000010300CD
:1009B4000000092111010001222600070583030814
:1009C400000A080B010202020100090401000102ED
:1009D4000201000524001001052401000204240280
:1009E400020524060102070582030800FF09040228
:1009F40000020A000000070501024000000705810B
:100A04000240000009024300020100C03209040050
:100A14000001020201000524001001052401000167
:100A2400042402020524060001070582030800FFCE
:100A340009040100020A0000000705010240000049
:100A44000705810240000000FF000000BC640508A7
:100A54000000000000000000000000000000000092
:100A64000000000000000000000000000000000082
:100A74000000000000FFFF0000000000AA5505016F
:100A84000000010090640508000000000000000060
:100A94000000000000000000000000000000000052
:100AA400000000000000000000000000FF1FFF1F06
:100AB40005010905A101A100050109300931093227
:100AC400093309350934094009381581257F75082A
:100AD40095088102C0C0000009022200010100E063
:100AE400320904000001030102000921110100017F
:100AF4002226000705830308000A00000000000006
:100B040001020304010203040607080991250108F0
:100B140095240108ED280108B5F800082DFE000809
:100B2400C5F80008E1F800088DF800087DF8000811
:100B340000000000000000002D202D2D202D2D2D63
:100B44002D202D2D2D2D00000000000000000000A0
:100B540000000000000000AA550B010000AA550780
:100B6400010000AA550902000000AA5503009F00D5
:100B740001000000C0120000105600200000000018
:100B84003456002000000000685E0C0001000000E4
:100B9400A00F0000B80B00000102FFFF01FF0000DE
:100BA400010000006DF10108000000008C6A0508D6
:100BB40020700020702D7200FFFFFFFFD60101019D
:100BC40000010101002D202D2D202D2D2D2D202D56
:100BD4002D2D0000000000000000000000000000B7
:100BE400000000000000000000000000188105085B
:100BF4000000000000000000A481050801000000BE
:100C0400FA000000010000000100000001010000E2
:100C14005A6D002000C80100596D002000500100E9
:100C2400586D0020005A0100566D0020020000009B
:100C3400C070050874E605087CE60508B6E10020E6
:100C44000100C40900000000B4E100200100C4094F
:100C540000000000B2E100200100C409000000000F
:100C6400B0E100200100C40900000000ACE1002054
:100C74000100C40900000000AEE100200100C40925
:100C840000000000AAE100200100C40900000000E7
:100C9400A8E100200100C409000000000A6B002044
:100CA4000100C80001000000086B0020320030750C
:100CB40032000000076B0020055A0500046B002079
:100CC40000FF0100066B0020010000005C0500200D
:100CD400026B002002000000B4870508036B0020AB
:100CE40000FF0100056B0020010000005C050020EE
:100CF400016B002002000000B4870508946D0020F9
:100D0400EE02CA0801000000926D002000C8010034
:100D140064000000916D002000C801006400000020
:100D2400906D002002000000CC700508FE6A0020CF
:100D340080C1803E05000000FC6A002080C1803E26
:100D440005000000F66A002080C1803E0500000016
:100D5400F46A002080C1803E05000000EF6A002094
:100D640000FF0100E86A00206400F40101000000B3
:100D7400E76A002004000000D8700508E66A002035
:100D840002000000EC700508816B00200D000000DB
:100D9400F87005087E6B0020006401007C6B002065
:100DA400320010270A0000007B6B00200D000000B9
:100DB400F87005087A6B00200D000000F870050833
:100DC400796B00200200000030710508000000006B
:100DD400000000003C7105081C5100209CFF2C0100
:100DE4000000000040700020E0150C170000000017
:100DF400427000200200000074710508A06D0020FC
:100E04000100FF7F010000009F6D00200200000030
:100E140080710508836B00200300000090710508B1
:100E2400826B00200300000090710508386D0020DB
:100E34000000E80301000000366D00200000E80314
:100E440001000000346D00200000E80301000000F0
:100E5400326D00200000E80301000000306D002026
:100E64000000E803010000002E6D00200000E803EC
:100E7400010000002D6D0020001401002C6D0020E5
:100E840003000000A0710508446D00200000F40177
:100E940001000000426D00200000F4010100000088
:100EA400406D00200000F401010000003E6D0020B0
:100EB4000000F401010000003C6D00200000803EB1
:100EC400010000003A6D00200000803E0100000097
:100ED4006D6D0020196401006C6D0020020000009B
:100EE400B07105086A6D0020E803D0070A0000000D
:100EF400686D0020006401000A0000005D6D0020A0
:100F0400006401005C6D002000640100646D002039
:100F1400006401000A000000636D00200064010009
:100F24000A000000626D0020006401000A00000055
:100F3400676D0020006401000A000000666D002057
:100F4400006401000A000000656D002000640100D7
:100F54000A000000616D002001FF01000A0000008A
:100F6400606D002001FF01000A0000005F6D002099
:100F740001FF01000A0000008C6B00200000F40156
:100F8400010000008A6B00200000F4010100000051
:100F9400886B00200000F40101000000866B002033
:100FA4000000F40101000000846B00200000F40143
:100FB40001000000556D002000640100546D002004
:100FC40000640100536D002000640100526D002094
:100FD400FF080100516D00200164010035F701088C
:100FE400F9F60108BC710508506D00200064010089
:100FF4004E6D00201400E803010000004C6D002039
:10100400E80330750A0000004A6D002000C80100A2
:10101400496D002000C80100486D002000C801008F
:10102400476D0020006401000A000000846D002068
:101034000000D007010000007F6D002000C80100FF
:101044007E6D002000C801007D6D002000C80100F5
:10105400826D00200000D007010000007C6D00209C
:1010640000C801007B6D002000C801007A6D0020DB
:1010740000C80100806D00200000D00701000000BE
:10108400796D002000C80100786D002000C80100BF
:10109400776D002000C801000000000069F4010819
:1010A4002C720508776B002033000000C872050815
:1010B400766B002000C80100746B0020E803D007A1
:1010C40001000000504F4449554D463400000000D3
:1010D400C9F30108A1F30108987305085DF3010839
:1010E40011F30108EC730508F1F301081514020863
:1010F4006C740508006B00200103010095F80108D9
:1011040069F8010860770508B9F2010879F2010865
:10111400C47705087FF40108AD2202086078050849
:101124003910020800000000087905089917020820
:10113400F5F80108A4790508D1F4010800000000BD
:10114400247A0508A9F5010855F50108887A0508E7
:1011540039F60108FDF50108247B050871F701083B
:10116400B9F70108A47B05085B6D002001060100A6
:1011740019F50108E5F40108A07C050875F60108D5
:1011840079140208107D0508EDF70108FD14020822
:10119400F07D0508466D00200103010039F40108C3
:1011A40009F40108C47E0508C1F801080000000024
:1011B400287F0508F9F20108FD1302088C7F050851
:1011C4000000000000000000F07F050841F801085D
:1011D4007515020870800508E26A002088136F17ED
:1011E40001000000E46A002088136F17000000006B
:1011F40092460020000000000000000090460020FD
:1012040000000000000000008E46002000000000E6
:10121400000000008C4600200000000000000000D8
:101224008A460020000000000000000088460020DC
:1012340000000000000000009C04002000000000EA
:1012440000000000B86A002002000000F8810508D0
:10125400E06A002088136F17010000005C51002031
:1012640088136F17000000000DF201080000000051
:1012740004820508727000200100000058820508ED
:101284005E510020010000006482050854510020D2
:10129400020000006C82050800000000000000004D
:1012A40078820508F9F1010800000000148305089C
:1012B4000000000000000000688305080000000032
:1012C40000000000D883050858510020E0150C17D1
:1012D400000000000100000000000100FFFFFFFF0C
:1012E40001FFFFFF0000803F00000000000000003D
:1012F40000000000FFFFFFFF00000000709E0020C0
:101304000800000000000000609E002008000000AB
:101314000000803FFFFFFFFF14FF050820FF0508C2
:101324002CFF050838FF050844FF050850FF050891
:10133400F0F40508C4160608A815060808020608ED
:10134400CC3D060804FF050808FF05080CFF050846
:1013540010FF0508F4FE0508F8FE0508FCFE050864
:101364002C14060800FF05081900C800F401200326
:10137400F4FE0508F8FE05085CFF0508FCFE0508F8
:1013840060FF050864FF05083F1303080000000020
:10139400000000000000000011FE0008FDFC000831
:1013A400C92801080000000079F800088124010818
:1013B4004DFC0008F92301080000000000000000B3
:1013C40035F80008C9F70008BDF70008FD19010841
:1013D400191A0108E1190108C5190108A919010818
:1013E400C9FD0008D9FC0008092801080000000014
:1013F4004DF80008FD23010821FC000859230108C9
:10140400000000000000000041F80008FFFF000099
:10141400FFFFFFFFCC3906080000080205030300A4
:10142400D4390608010008020504030094000608E4
:101434000200FE0101100300E0E9050803001402A4
:1014440000030000DC39060804001F020100080044
:10145400E439060805001F0201010800010000002C
:101464000000803F000000000000000000000000B9
:101474000000803F000000000000000000000000A9
:101484000000000000000000000000000000000058
:1014940000000000000000000000803F0000000089
:1014A400000000000000000001000000B9F700087F
:1014B400B5F70008B1F70008A5F70008A1F7000880
:1014C400ADF70008A9F70008010000000060024021
:1014D400106002400000000000000000000B00004B
:1014E4000000000000000000000000000060024056
:1014F400286002400100000000000000060C00000B
:101504000000000000000000000000000060024035
:10151400406002400200000000000000100D0000C6
:101524000000000000000000000000000060024015
:10153400586002400300000000000000160E000086
:1015440000000000000000000000000000600240F5
:10155400706002400400000000000000200F000042
:1015640000000000000000000000000000600240D5
:101574008860024005000000000000002610000002
:1015840000000000000000000000000000600240B5
:10159400A0600240060000000000000030110000BE
:1015A4000000000000000000000000000060024095
:1015B400B86002400700000000000000362F000061
:1015C4000000000000000000000000000064024071
:1015D4001064024000000000000000000038000019
:1015E4000000000000000000000000000064024051
:1015F40028640240010000000000000006390000D9
:101604000000000000000000000000000064024030
:10161400406402400200000000000000103A000094
:101624000000000000000000000000000064024010
:10163400586402400300000000000000163B000054
:1016440000000000000000000000000000640240F0
:10165400706402400400000000000000203C000010
:1016640000000000000000000000000000640240D0
:1016740088640240050000000000000026440000C9
:1016840000000000000000000000000000640240B0
:10169400A064024006000000000000003045000085
:1016A4000000000000000000000000000064024090
:1016B400B864024007000000000000003646000045
:1016C400000000000000000000000000683A060866
:1016D40070FE050800000000250D0308A086010027
:1016E40004000000000000000000000000000000F2
:1016F40000000000000000000000000000000000E6
:10170400000000000000000000000000683A060825
:10171400E83D06080000000091670108E8030000A6
:1017240004000000000000000000000000000000B1
:1017340000000000000000000000000000000000A5
:10174400000000000000000000000000CCEC0508D0
:10175400A814060800000000B54F03087D0000002F
:10176400060000000000000000000000000000006F
:101774000000000000000000000000000000000065
:10178400000000000000000000000000B839060856
:1017940000000000000000003D8D0108E803000087
:1017A4000300000000000000000000000000000032
:1017B4000000000000000000000000000000000025
:1017C400000000000000000000000000F03D0608DA
:1017D4000000000000000000F5BF0408102700000E
:1017E40003000000000000000000000000000000F2
:1017F40000000000000000000000000000000000E5
:10180400000000000000000000000000D8390608B5
:1018140000000000B153040899B701085F76000086
:1018240005000000000000000000000000000000AF
:1018340000000000000000000000000000000000A4
:101844000000000000000000000000006C3C0608DE
:101854000000000000000000A1E9010810270000BA
:101864000100000000000000000000000000000073
:101874000000000000000000000000000000000064
:10188400000000000000000000000000FC3D06080D
:10189400000000000000000095670108E803000054
:1018A400050000000000000000000000000000002F
:1018B4000000000000000000000000000000000024
:1018C400000000000000000000000000083E0608C0
:1018D40000000000000000004D480308204E0000F6
:1018E40003000000000000000000000000000000F1
:1018F40000000000000000000000000000000000E4
:10190400000000000000000000000000183E06086F
:10191400000000000000000039460308204E0000CB
:1019240003000000000000000000000000000000B0
:1019340000000000000000000000000000000000A3
:10194400000000000000000000000000283E06081F
:1019540000000000000000003D6E0108400D03007F
:101964000300000000000000000000000000000070
:101974000000000000000000000000000000000063
:10198400000000000000000000000000E000060865
:10199400000000000000000029C703081027000011
:1019A4000100000000000000000000000000000032
:1019B4000000000000000000000000000000000023
:1019C400000000000000000000000000A4FB050867
:1019D400000000000000000041BA020810270000C7
:1019E40003000000000000000000000000000000F0
:1019F40000000000000000000000000000000000E3
:101A0400000000000000000000000000383E06084E
:101A14000000000000000000A98A0208A08601005E
:101A240001000000000000000000000000000000B1
:101A340000000000000000000000000000000000A2
:101A4400000000000000000000000000BC3906088F
:101A54000000000000000000716C010850C3000089
:101A64000100000000000000000000000000000071
:101A74000000000000000000000000000000000062
:101A8400000000000000000000000000CCE8050891
:101A940000000000000000009D690108A86100002A
:101AA4000100000000000000000000000000000031
:101AB4000000000000000000000000000000000022
:101AC400000000000000000000000000403E060886
:101AD4000000000000000000C9F80208A086010010
:101AE40001000000000000000000000000000000F1
:101AF40000000000000000000000000000000000E2
:101B040000000000000000000000000000010608C2
:101B1400000000000000000019990108A00F000057
:101B240001000000000000000000000000000000B0
:101B340000000000000000000000000000000000A1
:101B44000000000000000000000000004C3E0608F9
:101B5400000000000000000071E8020810270000E7
:101B64000100000000000000000000000000000070
:101B74000000000000000000000000000000000061
:101B8400000000000000000000000000483B0608C0
:101B940000000000000000005DA90308A00F000081
:101BA4000100000000000000000000000000000030
:101BB4000000000000000000000000000000000021
:101BC400000000000000000000000000F0F3050821
:101BD400000000000000000085DC02081A4100003B
:101BE40001000000000000000000000000000000F0
:101BF40000000000000000000000000000000000E1
:101C04000000000000000000000000008CE805084F
:101C14000000000000000000E5000108102700009B
:101C240001000000000000000000000000000000AF
:101C340000000000000000000000000000000000A0
:101C440000000000000000000000000084FE050801
:101C54000000000000000000352A02081A410000BC
:101C6400010000000000000000000000000000006F
:101C74000000000000000000000000000000000060
:101C8400000000000000000000000000583E0608AC
:101C940000000000000000003D070108400D0300A3
:101CA4000000000000000000000000000000000030
:101CB4000000000000000000000000000000000020
:101CC400000000000000000000000000603E060864
:101CD40000000000000000004DAA0308400D0300AE
:101CE40000000000000000000000000000000000F0
:101CF40000000000000000000000000000000000E0
:101D0400000000000000000000000000683E06081B
:101D14000000000000000000F1F2020850C30000BF
:101D240003000000000000000000000000000000AC
:101D3400000000000000000000000000000000009F
:101D4400000000000000000000000000743E0608CF
:101D54000000000000000000AD45030840420F00F1
:101D6400000000000000000000000000000000006F
:101D7400000000000000000000000000000000005F
:101D8400000000000000000000000000803E060883
:101D9400000000000000000095AB030850C30000E1
:101DA400000000000000000000000000000000002F
:101DB400000000000000000000000000000000001F
:101DC4000000000000000000000000000000803F50
:1080000003685A1C02601970704700BF2DE9F047E1
:10801000089C2578002B804689460CBF4FF0200A2B
:108020004FF0300A661C25B3002A26DD334601E0F6
:10803000024698B113F8011B501E0029F8D1971E73
:1080400060B13D46013D51464046C8476B1C002B80
:10805000F8DC257827EAE770013045B1041B294692
:108060004046C847301916F8015B002DF7D1BDE82E
:10807000F087002A03DC2846F9E70020EEE7571EC8
:10808000DFE700BF2DE9F04714461D4606464FF4D2
:108090007A720023204629464BF0B6FD4D4BDFF89F
:1080A00048814D4A4D4F034488FB03101844D917AB
:1080B00082FB032CC1EB601088FB002887FB0327A1
:1080C0009C44474AC1EBEC2CC0EB001E82FB0C2900
:1080D000A3EB8E0E1F44434A86F806E0C1EB274708
:1080E0004FEAEC7E08EB000ACEEBA90E82FB07827A
:1080F0004FEAE0780EEB4E0EC8EB6A18ACEBCE0CF4
:10810000C8EB0818DFF8E4E086F804C0A0EB8800AC
:1081100070718EFB0303F817C0EBE21240F2B5500A
:1081200000FB1272C1EBE353B2F5896F4FEA83078C
:108130003CDA40F2DA239A4242DCB2F5B77FB4BFB0
:108140004FF0000E4FF0010E4FEA4E09DFF8A0800D
:1081500009EB0E0308EBC3031FFA8EFCD88A09EB68
:108160000E0108EBC10116310B2301E031F8020DBD
:10817000904218DD013BF9D1CE44012338F83E008E
:10818000B37007F5FA670132121ABC44F270A6F810
:1081900000C0204629464FF47A7200234BF034FD8C
:1081A0003281BDE8F0870133DBB2E9E74FF0030C21
:1081B000E64640F29650DFF838804FF00609CEE7E9
:1081C0004FF0020CDFF82880E64640F229404FF0DD
:1081D0000409C4E780BC92C7C5B3A29107452EC26B
:1081E000ABAAAA2A73B06D1689888888792D0311E5
:1081F000385805080028F0B403DA2D230B704042EC
:108200000131092804464FF0010307DD03EB830326
:108210005B00B0FBF3F2092AF8D883B10F48A0FB4A
:108220000326B4FBF3F2092A02F1570C02F13007DE
:1082300009DD03FB1244F30801F801CBEFD1002361
:108240000B70F0BC704703FB1244F30801F8017B8C
:10825000E5D100230B70F0BC704700BFCDCCCCCC77
:10826000884270B44FF0010442D301FB04F4B0FB28
:10827000F4F58D42F9D2ECB142BB092D04FB150097
:1082800005F1570605F130020EDDB4FBF1F403F8F9
:10829000016B7CB1B0FBF4F5092D04FB150005F171
:1082A000570605F13002F0DCB4FBF1F403F8012BC2
:1082B000002CEFD100221A7070BC704703F8016BDC
:1082C000B4FBF1F4002CF5D0B0FBF4F5092D04FB60
:1082D000150005F1370605F13002EFDCB4FBF1F4CF
:1082E00003F8012B002CEFD100221A7070BC7047EC
:1082F0000546002AEAD1C0E790ED057A90ED004AE4
:10830000D0ED066AD0ED014AD0ED047A90ED035A23
:10831000D0ED025AA4EE007AB0EE406AB0EE470A01
:10832000B0EE667AA4EE867A67EEC07AA5EE407A61
:10833000E5EE867A80ED057AC0ED067A704700BFDB
:10834000D0ED057A90ED013AD0ED003AD0ED064A35
:1083500090ED024A90ED077A90ED035A90ED086A8D
:10836000D0ED045AC0ED067AF0EE406A27EE830A9B
:10837000C0ED056AA3EEA60A80ED087AA4EE240AF1
:10838000A5EE470AA5EEC60A80ED070A704700BFB2
:10839000D0ED007A90ED017A30EE670AE7EE007AD0
:1083A000B0EE670AC0ED007A704700BF704700BFAB
:1083B00030B400220123142534240221C5708471B5
:1083C0000270C2728273C273417041728370C37152
:1083D0000372837230BC7047002306214FF47A7217
:1083E0000170C0E901230373704700BF30B400235C
:1083F00033254FF601740122FF21457004828174F8
:108400000272027043818381C38130BC704700BF18
:108410002DE9F04F3149324B83B001F5C07B01901B
:108420002E274FF000092F481022012603E02030AC
:1084300098420BD002799742F9D102680C68A242A7
:1084400009D02030984206F10106F3D12031594578
:108450003AD00F79E7E744794D79A542F1D19446B6
:10846000019A214809EB490502EB050A57558AF89C
:10847000016000F572751D4E624603E0A8421AD0F5
:1084800050F82C6FB242F9D10679A642F6D1CF68E6
:1084900006464FF0000C96468046F268BA4216D067
:1084A0000CF1010CBCF1030F06F10C06F5D14046AE
:1084B000A8427246E4D14FF0FF3C203159458AF87A
:1084C00002C009F10109C4D103B0BDE8F08F086909
:1084D00032698242E4D14FFA8CFCEEE7ACBB05086E
:1084E0003CC705087CBD050844C7050800000140DD
:1084F00030B41522162317253A243B21027043700D
:108500003C22FF2385708472C1720273C3700371B1
:10851000037243724373837330BC7047034600F1A8
:108520001001FF221A705A7002338B42FAD1027086
:108530004270027142718271C2718272C27270475E
:1085400030B41D6995420AD314460A4621448D422F
:10855000996938BF2A1B214430BC4BF0F3BD30BCB5
:10856000704700BF0020704701207047012070470E
:10857000002070474FF40070024B10609B680B6046
:108580000020704738BF0020013A30B4D2B28C1CB2
:1085900004EB42040025020F092AD3B203F1300292
:1085A0008ABF37330A700B704D7002318C424FEA2C
:1085B0000010F0D130BC70470B4A0C4B10681B68A0
:1085C0001A22C0180A8001D10948704710B5094B1A
:1085D00009491C680822FFF7D7FF204604220749F3
:1085E000FFF7D2FF024810BDE8F7FF1FECF7FF1FAF
:1085F00088010020EAF7FF1F8A0100209A0100206D
:1086000004230B8000487047A401002012230B8034
:1086100000487047A8010020232203230270437002
:10862000704700BF08307047704700BF81617047D6
:108630002DE9F04FDFF8DCC1754CDCF800502288E2
:10864000B4F90AA0C2EB25135200C2EBE502B4F95B
:1086500002505B436A43B4F904501B135D43AD13EE
:1086600005EBE225B5F5FA324FEAE57B85B04BF133
:10867000FF33CDE90023DDE900325343009AA561C1
:10868000A2FB0289CDE90201B4F908200199009802
:1086900009EB43095143D31700FB0311A2FB00234D
:1086A0000B444FEAEA7B0AFB09F11F0308FB0B139B
:1086B000AAFB080119444FEA102A4AEA016A160384
:1086C0004FEA212B47EA12571AEB0602E6884BEBDA
:1086D000070312F1000A43F5004BAAFB060106FB53
:1086E0000B114A10CB1752EA030100F08E80B4F947
:1086F0001060009806FB09F1F71708FB0711A6FBAD
:1087000008673944B4F90E808B4601994FEAE8793D
:1087100008FB01F100FB0911A8FB00898944DCF882
:1087200004104FEA4947C1F5801C47EAD837B246E2
:108730004FEA4846B4F90C801AEB060A66464BEB42
:10874000070BF7174FEAC806019600260096F907AF
:10875000DDE900674FEACC7016EB0A0647EB0B0722
:1087600041EA5C01801B61EB070140F6354C89460C
:10877000A0FB0C010CFB09114BF046FAB4F91620D2
:10878000B4F914A04E13470B47EAC14702FB06FC9D
:10879000D31707FB03CCA2FB07236344564307FB15
:1087A0000366A2FB07233344560E46EAC31632186B
:1087B0004FEA636747EB010380460AFB01F14FEA8A
:1087C000EA7B08FB0B17AAFB08013944C60C46EAF2
:1087D000413612EB06084FEAE147B4F9122043EBA9
:1087E00007094FEA182141EA096113010B44029A73
:1087F0000AB11B0A1360039B23B105EB8505803585
:108800002D121D6005B0BDE8F08F0023EFE700BF1B
:10881000EC740020F8160020704770472DE9F041F5
:10882000334B344E1A897489B6F91450B6F9048062
:10883000B6F90E70B6F920C0DB68121B34895443B8
:10884000E213B6F912401544E40294FBF5F4B6F9CC
:1088500002501444A4F57A6E0EFB0EF20EFB05F5E1
:108860000EFB08FEB6F90C80F4611213574302FBAD
:1088700008F2121402EB6E32ED1205EBE72702321A
:10888000B6F90050B6F806E0921002F5004207EB88
:1088900085070EFB02F207FA0CF74FEAD23E0237C9
:1088A0004CF25032A3EBA70742FA0CF37B4355BFBF
:1088B0005B00B3FBFEF3B3FBFEF35B0078B11A126F
:1088C00002FB02F540F6DE326A430B4D12145D43A3
:1088D00002EB254202F6CF6203EB2213036021B1C3
:1088E0000A235C43083424110C60BDE8F08100BF0A
:1088F000F8160020B474002043E3FFFF6D4B2DE910
:10890000F04F1C696C4BB3F80AE0B3F804809A8905
:108910004FEA0E2AB4EB0A044FEA1E6B4FF0000533
:1089200087B065EB0B05CDE900450746009C18892B
:10893000019EA0FB044500FB0655E00940EA4560A6
:108940004FEA08448C46E9114FEA184510EB040839
:10895000D888009C41EB0509CDE90489A0FB0445BA
:10896000B3F8028000FB0655200A40EA05604FEA92
:10897000C83429124FEA584510EB040841EB0509A9
:108980000099A2FB010102FB06114FEAD05A4AEA04
:10899000412A1AF5FA634FEAE15B4BF10004B3F5A3
:1089A000FA6FCDE9023474F10003424E64DA052413
:1089B000AAFB040104FB0B1100FB0BF40AFB0144AE
:1089C000DDE90423A0FB0A0121444D104FEA3004E5
:1089D000121B4FEA900463EB050344EA8174B8EB81
:1089E0000408CDE90423DDE9023434484FEAA10547
:1089F00069EB05094FF0FF31834274EB010326DA7E
:108A000040F6AC501AEB00024FF000014BEB0103B3
:108A100002FB03F1A2FB022303EB4103D400DD00C0
:108A2000101B45EA527563EB0501DDE90445241886
:108A30004D41CDE904450B24A2FB040104FB0311C5
:108A400049104FEA3000B8EB000869EB0109DDE995
:108A500000325343009ADDE90201A2FB02AB0BEBAB
:108A6000430B4FEADA7242EA4B02801A4FEAEB7389
:108A700061EB0301CDE9020197B17169A1FB082304
:108A800001FB0933540D5D1544EAC324DDE90423D9
:108A9000A21A65EB03031D46D30B43EA45433B6033
:108AA000BCF1000F02D0029BCCF8003007B0BDE84B
:108AB000F08F00BFF8160020D874002024FAFFFFC2
:108AC0004FF40063038370474FF4006303837047E0
:108AD00010B500F10C0401220B2120463AF036FBC0
:108AE00020B11D22092120463AF030FB00F00100A0
:108AF00010BD10B500F10C047022002120463AF0A0
:108B000025FB2022012120463AF020FB00220221F1
:108B100020463AF01BFB642015F022FE012010BD18
:108B20003122F4213AF012BB044B93F82020920139
:108B3000343202F0FC02F4213AF008BBB474002095
:108B40002E22F4213AF002BB012248213AF0FEBA6B
:108B5000012258213AF0FABA012380F850307047C8
:108B6000F0B4037C456902681F2B37D9203B2021D4
:108B7000546899400C4223D010249C40D160D460AA
:108B80005168D940CE074ED4EFF31183502282F3BF
:108B90001288EA6B1168C90709D45468002C52D1B5
:108BA000D5E909618E4243D1012285F86020DBB20C
:108BB00083F31188037C02681F2B194614D9203BCC
:108BC000082150689940084200D0D16004215068C3
:108BD00001FA03F3184223D1F0BC70472024166831
:108BE0009C4026420FD11946082310688B4018423A
:108BF00000D093600423106803FA01F10842EBD01F
:108C00009160F0BC704710219940946091601168A8
:108C1000D940CC07B8D5012101FA03F39360B3E73B
:108C2000D360F0BC7047012101FA03F3D360ABE7D6
:108C3000AF690F44D7600ED82E69711A5160AC62CB
:108C4000002185F86010116841F00101DBB211606C
:108C500083F31188AEE7711A5160AE62F0E700BF8E
:108C60002DE9F041B14DB24C2A7823789A4240F078
:108C70001B81B04B1A78002A7CD0AF4B1E78AF4BCB
:108C8000002E79D11968B3F830714E628889012AB3
:108C900040EA07008881A3F8306157D0D3F8341137
:108CA000B3F864724E628889022A40EA070088811C
:108CB000A3F864624AD0D3F86812B3F898734E628E
:108CC0008889032A40EA07008881A3F898633DD089
:108CD000D3F89C13B3F8CC744E628889042A40EA16
:108CE00007008881A3F8CC6430D0D3F8D014B3F84F
:108CF00000764E628889052A40EA07008881A3F839
:108D0000006623D0D3F80416B3F834774E6288890E
:108D1000062A40EA07008881A3F8346716D0D3F802
:108D20003817B3F868784E628889072A40EA070046
:108D30008881A3F8686809D0D3F86C28B3F89C0937
:108D40005662918901439181A3F89C692A7823781E
:108D50009A420FD07A481F469B003B449B00C218A2
:108D6000C3583BB9137A2BB9537A1BB97B1C03F058
:108D700003032370BDE8F0815E681989716037686C
:108D8000186847F0010740F20D313760A0F848102D
:108D90008689012A46F480768681D7D0D3F8386157
:108DA000B3F83C71D3F834017760376847F00107B6
:108DB0003760A0F848108689022A46F480768681BA
:108DC000C4D0D3F86C62B3F87072D3F868027760DD
:108DD000376847F001073760A0F848108689032AF2
:108DE00046F480768681B1D0D3F8A063B3F8A4733B
:108DF000D3F89C037760376847F001073760A0F825
:108E000048108689042A46F4807686819ED0D3F85D
:108E1000D464B3F8D874D3F8D0047760376847F0D7
:108E200001073760A0F848108689052A46F4807645
:108E300086818BD0D3F80866B3F80C76D3F8040695
:108E40007760376847F001073760A0F848108689D7
:108E5000062A46F4807686813FF478AFD3F83C67E3
:108E6000B3F84077D3F838077760376847F00107E1
:108E70003760A0F848108689072A46F480768681F4
:108E80003FF464AFD3F87028B3F87408D3F86C38A3
:108E90005060106840F001001060A3F848109A89F3
:108EA00042F480729A8151E7804610F0E3FC277803
:108EB0002B78BB4286461DD0BB002148DA1900EB57
:108EC0008202167AC6B1B8F1000F3DD01D490022CA
:108ED000B1F808C00132BCF1000F18BF00264245AE
:108EE00001F58471F4D17EBB124A1278002A3FF456
:108EF00034AFC2E61248BB003B449B00C118C258C5
:108F0000AEEB0202002AFFF635AF4A7A3AB1013AD7
:108F1000D2B24A7212B30EF57A72C25000E0C25059
:108F2000044B1A78002A7FF4A8AE0FE790E00020E7
:108F300091E00020C4300010C03000108CCD002023
:108F400094E000204CC50020DA1992000EF51C5167
:108F500086181031815000223272C5E74A68724487
:108F6000C250DDE710B5027C01681F2A4FF02003D4
:108F70000ED94C68203A93401C4208D00B4A4068F6
:108F800000241470026822F001020260CB6010BD60
:108F90000C6893401C42FAD0044A406800241470C4
:108FA000026822F0010202608B60F0E770AD0020E1
:108FB00010B5027C01681F2A4FF020030ED94C68BF
:108FC000203A93401C4208D00B4A40680024147099
:108FD000026822F001020260CB6010BD0C68934071
:108FE0001C42FAD0044A406800241470026822F03F
:108FF000010202608B60F0E76F8200202DE9F041F2
:10900000C40023189B00B749CA585268958AADB26C
:10901000EFB2FE070B4461D4BE0737D5BFF35F8FB5
:109020001D7EEDB2012D00F0BB80AF4E138BBFF360
:109030005F8F231801EB83031D7E022D00F0CE808D
:10904000231801EB83031D7E032D05D19B7E1BB1ED
:10905000737E002B40F01A81938896F918C043F470
:1090600080639380231801EB83031B7E01336345E8
:109070000AD1B37E00257576002B40F08A8020440B
:1090800001EB800000234375BDE8F081964E17F098
:10909000040F96F918C04DD117F0400700F0B280C8
:1090A000178A1D6AFFB205F80C705FFA8CF56F1C09
:1090B00093F818E07BB2DF1CBE4533769C4600F087
:1090C0000981271801EB87073F7EBB42CAD105F112
:1090D000020C4FFA8CFC86F818C0C3E71588824E44
:1090E00025F400652D042D0C1580158845F4806548
:1090F00015809D7E00273776002D3DD0757E002D92
:1091000037D0231801EB830301251B7E7576022BD4
:1091100003D1138843F400631380231801EB830306
:109120009B7D43F001031382204401EB8000037E0A
:10913000BDE8F0819F7E757E4FF0010E86F81AE043
:10914000002F5CD0002D78D1231801EB83035B7EC8
:10915000002B00F0A48013880CF1010C4FFA8CFC5A
:1091600043F4007386F818C013801388DF05FCD41D
:1091700078E7DB7DFF2BC4D0231801EB83039D7DB3
:1091800005F0FE051582DB7DFF2BCDD0FF23337666
:10919000CAE7938823F440731B041B0C93806EE78B
:1091A0009B7E514E002B3FF441AF737E002B3FF46A
:1091B0003DAF138823F480631B041B0C1380BFF3A3
:1091C0005F8F138B1388B57643F4007313809388F5
:1091D00096F918C043F48063938043E79B7E002B8D
:1091E0003FF42EAF737E002B3FF42AAF138896F91D
:1091F00018C023F480631B041B0C138016E0002DA1
:10920000A2D0A8E72D067FF52DAFBCF1FF3F6DD0B2
:10921000DD6915F80C5015820CF1010C1D7E4FFA1A
:109220008CF39D429C4633767FF41CAF938823F4E5
:1092300080631B041B0C938014E71F7ED3F82080EF
:109240005FFA8CF5AE44022F4FFA8EFE17882DD9A7
:1092500027F480673F043F0C1780178AFFB208F895
:109260000C701788D3F820C047F400731380138A5A
:10927000DBB20CF80E30938805F1020C4FFA8CFC2F
:1092800043F4806386F818C093806EE7938896F95C
:1092900018C023F480631B041B0C9380E2E6138840
:1092A000012543F48073138075765EE747F40077F9
:1092B0001780178AFFB208F80C70178AD3F820803D
:1092C00005F1030C4FFA8CFCFBB286F818C008F8C5
:1092D0000E304AE7978827F480673F043F0C978059
:1092E000EFE600BF509D0020F8160020DD7D1582BE
:1092F0009D7E37761DB91B7E002B7FF415AF9388BA
:1093000023F480631B041B0C93800DE77FB50025BD
:1093100000F10C060C460D804D808D8001230DF16F
:1093200007020621304639F0E5FD10B9002004B0EF
:1093300070BD9DF807305B07F8D5062302AA2946C1
:10934000304639F0D7FD0028F0D09DF809209DF86F
:10935000083043EA022323809DF80B209DF80A3051
:1093600043EA022363809DF80D209DF80C3043EA08
:109370000223A380DBE713B506230C466A460321CC
:109380000C3039F0B7FDA0B19DF800209DF80130F8
:1093900043EA022323809DF802209DF8033043EA2C
:1093A0000223A3809DF804209DF8053043EA0223A0
:1093B000638002B010BD07B506236A46F72139F075
:1093C00099FD9DF801309DF800100C4A1B0143EAFD
:1093D00001339DF8021043EA111353609DF80430E5
:1093E0009DF803101B0143EA01339DF8051043EA81
:1093F0001113136003B05DF804FB00BFF8160020E2
:1094000007B5032301AAF62139F074FD9DF8053054
:109410009DF804201B0243EA02439DF806201343F3
:10942000054AB2F92020C2F10802D340034AD360B2
:1094300003B05DF804FB00BFB4740020F8160020F0
:1094400007B5022301AAF62139F054FD9DF8042046
:109450009DF8053043EA0223024A138103B05DF808
:1094600004FB00BFF816002007B5032301AA002162
:1094700039F040FD9DF805309DF804001B0243EAD9
:1094800000439DF80600184303B05DF804FB08B5DF
:10949000FFF7EAFF014B586108BD00BFF816002036
:1094A00008B5FFF7E1FF014B186108BDF816002071
:1094B00039F0E6BE014B186838F0D4BE246A0020AB
:1094C00038B51D4B1B78044600F1250593B10422E5
:1094D0001A4920304CF09AF92846142218494CF0C9
:1094E00095F9012384F83A30164B1B7873B984F848
:1094F0003B3038BD2846142213494CF087F901232C
:1095000084F83A300F4B1B78002BF0D00F4B1868C3
:1095100059689A68DD68E56020606160A260DD6975
:10952000186959699A69A2610123E5612061616145
:1095300084F83B3038BD00BFD8A00020A0A0002098
:1095400088A00020D9A00020FCD20508A8A00020F7
:1095500010B4292128240122002304704170827054
:10956000C3705DF8044B70472DE9F84FDDE90A64DC
:109570008946174600212022984605464CF008F9F6
:109580005EB1D6E900327189EB81C3F30F432B82C0
:10959000C2F30F43EA822B836982484649F03EFEBC
:1095A00017F0100B10D1431E70B119F803202E2AAA
:1095B00018BF09EB030104D14AE011F8016D2E2E0A
:1095C0003ED013F1FF33F8D208280246CA46A8BF9E
:1095D00008224FF0000B4FF020336B602B60C5F872
:1095E00007304946284605F108064AF0ABFD5A46C1
:1095F000514630464AF0A6FD6B1EE81D13F8012FB8
:10960000A2F1610119299CBF203A1A708342F5D159
:1096100005F10B0116F8013BA3F16102192A9CBF69
:10962000203B06F8013CB142F4D11823C8F30F42A5
:10963000EF722B73A5F81A80AA82EC61BDE8F88F4F
:10964000C01A00F1FF3BBBF1030FA8BF4FF0030BA3
:10965000082B03F1010AA8BF0823CA441A46BAE737
:1096600038B52E2200214CF093F8034640F2DC512D
:10967000642040F21A4240F20224187459821320E6
:1096800019219A8240F2753240F26C751C839876EB
:109690000E240A201977DA8302210122DD8283F861
:1096A0002D0040F64305197283F82C1083F82240F0
:1096B0009A7383F8252083F82B201D8419460248CD
:1096C000BDE838403CF04ABF08D3050810B500217A
:1096D000044601200EF050FF207010BD38B5002464
:1096E0000472451EE1B202200EF046FF0134082C40
:1096F00005F8010FF6D138BD2DE9F04F002087B0F5
:109700000C461D460121924639F0C0F8002D63D069
:1097100005EB0A03DFF8D094DFF8D0B40393554685
:109720001CE0002D00F0C581D9F81430AB4264D0A4
:10973000D9F81030AB4200F09780D9E90631AB423E
:1097400052D8A94200F26F81691A204646F0DCFA2D
:10975000039B01359D4204F500743DD0D9F820608B
:10976000AE42DED8D9F83080AE1B4FEAD60AD8F820
:1097700030300AF1020A9A4506F0070603D3D8F8FA
:1097800038309A4509D94146504646F08BFA804612
:10979000002800F04D81C9F8300098F80430002B03
:1097A00040F0E280D8F82870002F00F0DF81D8F870
:1097B0003030D8F80C20AAEB030A06EBCA0A43465D
:1097C000204602EB4A224FF40071B847039B013553
:1097D0009D4204F50074C1D10021084639F056F8C5
:1097E000002007B0BDE8F08FA942ADD94FF4007258
:1097F000002120464BF0CCFFAAE7522261204123F2
:10980000002622706270A070722284F8E70184F84A
:10981000E631D9F82800E3704FF0FF33314684F881
:10982000E42184F8E521C4F8E8014FF4F07284F8EB
:10983000EC3184F8ED3184F8EE3184F8EF31201DFD
:109840004BF0A6FF55216FF05502C4F8F061C4F843
:10985000F461C4F8F86184F8FC6184F8FD6184F86F
:10986000FE1184F8FF2173E74FF4007200212046B7
:109870004BF08EFFD44BD54F03CBEB23022223704A
:109880004FF0080C9026F8234FF0580EC4F8030050
:10989000227484F80DC0C4F8071084F801E0A670A3
:1098A0006375D9F81010D9F80830D9F81C60227304
:1098B000591A21624FF0FF3100233F20A1763E214B
:1098C000A273E372E3736374A374E3742375A375E3
:1098D000E3756376E3766377A377E3772076217782
:1098E00084F82C2007CFD9F8187084F82830F61B9C
:1098F00084F8293084F82A3084F82B3084F82D300D
:1099000084F82E3084F82F3084F8313084F83230E7
:1099100084F8333080236662C4F8470004F14706B8
:1099200084F8403029209423A94F84F846C084F855
:10993000420084F843300E200D234FF0010C84F8D0
:10994000440084F8453084F830C0716003CF33465A
:109950005527AA269A60C4F85200C4F8561084F815
:10996000FE7184F8FF61F3E64FF400720021204697
:109970004BF00EFFD8F84030002E61D104F12007E3
:10998000002B77D0D8F8303092491122CDE900660B
:109990002046FFF7E9FDD8F840301A6C04F1400A80
:1099A000002A79D01B6B8C49CDE90066384611221C
:1099B000FFF7DAFDD8F84460002E3FF4C9AE4FF44B
:1099C000E078CDE904450CE00024CDE900C4FFF7C0
:1099D000CBFDB66CBA46A8F120080EB3B8F11F0F44
:1099E0001ED93468356B96F804E011222B462146C7
:1099F00050460AF1200706F11C0CBEF1000FE3D11E
:109A000072793369019342F021022B46CDF800C0F0
:109A1000FFF7AAFDB66CBA46A8F12008002EDDD1EA
:109A2000DDE9044594E6E91A204646F06DF98FE633
:109A3000231F04F5FE7243F804BF9A42FBD187E668
:109A4000002BD8F844200CBF01230223C3EB0613DC
:109A5000002A3FF47DAE966C013B002E3FF478AEB9
:109A6000013BB66CF9D1002E3FF472AEA2464FF422
:109A70000078A6E7CDE900663346D9F80C10082235
:109A80002046FFF771FDD8F84460002E3FF460AE29
:109A9000BA464FF4F07894E7CDE90066334638468D
:109AA00011224D49FFF760FDD8F84460002E86D1A1
:109AB0004EE64FF40072294620464BF069FE8022A4
:109AC0000C2384F8BE2184F8C231D9F81000434B2E
:109AD000D9F8086084F8B85183FB0032C117C1EB94
:109AE0002232B2F5806F84F8B95184F8BA5184F803
:109AF000BB5184F8BC5184F8BD51C4F8C601C4F808
:109B0000CA6142DBFF2384F8BF3184F8C13184F895
:109B1000C031324B711E83FB0132CE17C6EB2232AD
:109B2000B2F5806F29DA2E4B84F8C52183FB01033F
:109B30000B442C48C6EB6313C3EB831680FB037006
:109B4000891B1844DE17921022F03F020131C6EB48
:109B5000E0100A43034484F8C42184F8C331552239
:109B6000AA2384F8FE2184F8FF31F1E539464FF449
:109B7000007220464BF00CFEEAE5FF2384F8C33167
:109B800084F8C53184F8C431E9E7154B84F8C12164
:109B900083FB00730344134FC1EB631387FB03176D
:109BA000C3EB831C9110A0EB0C02F818DF1721F017
:109BB0003F010132C7EBE0100A43034484F8C0219F
:109BC00084F8BF31A5E700BF1CD3050828D30508DA
:109BD00038D3050814D3050818D30508975545410F
:109BE000832008828180808038BF0020DEADBEEFF8
:109BF00008B5012009F0C6F9174A936803F00C0371
:109C0000042B1ED0082B18D151685368490203F069
:109C10003F0319D452681148B0FBF3F0C2F3881324
:109C200000FB03F00C4B0E4A5B68C3F301430133A6
:109C30005B00B0FBF3F0106008BD094B074A1A60E7
:109C400008BD074B186008BDB0FBF3F05368C3F3C1
:109C5000881300FB03F0E5E7003802400024F4001D
:109C6000F0C3002010B5044C04480A46214607F012
:109C700075FE204610BD00BF1417002044D3050810
:109C800010B5044C04480A46214607F067FE2046FA
:109C900010BD00BF1417002054D3050810B5044CA4
:109CA00004480A46214607F059FE204610BD00BF71
:109CB0001417002060D305080A4608B5054920B1ED
:109CC000054807F04BFE034808BD044807F046FE70
:109CD000004808BD141700208CD3050874D305086C
:109CE000F8B584894FF6FF764FF47A7433B319B31D
:109CF0000F78013101E0B44218D00589013CAD076D
:109D0000A4B2F8D5BCB284814FF47A7402E0BCB23C
:109D1000B4420BD00589ED0704F1FF37F7D58589EB
:109D2000ADB20AB115700132013BDFE739F07CF8C2
:109D3000003018BF0120F8BDFF27DEE70120F8BD85
:109D400030B5437F83B004461BB90120637703B06D
:109D500030BD0523ADF80430056800BFA86838F0B1
:109D60006FFD6A4601A902236868FFF7B9FFA8687A
:109D700038F06CFD00BF9DF8013003F0010383F063
:109D80000100637703B030BDF8B5074C05460F46B8
:109D9000266803E023689B1BBB4204D82846FFF7D4
:109DA000CFFF0028F6D0F8BDF8AC0020F0B5077F53
:109DB00083B004464FF0030C0020009016461D4669
:109DC0008DF804008DF800C06FB30B0E8DF80130D4
:109DD0000DF10203080C0A0A99701870062120463A
:109DE0005A70FFF7D1FFE0B1236800BF986838F0E0
:109DF00027FD237F2268002B14BF05230423694617
:109E000050680022FFF76CFF236832460021586833
:109E10002B46FFF765FF2368986838F017FD00BFF1
:109E2000284603B0F0BD0DF10103D3E7F0B5876913
:109E300083B0064617B13B68BA885A837069DFF869
:109E4000A8E08389C3244FF47A734FF0060C6D4663
:109E50004FF6FF710EF1010E03E0013B9BB28B4206
:109E600020D002899207F8D5A3B283814FF47A7388
:109E700002E0A3B28B4215D00289D20703F1FF346E
:109E8000F7D5828992B20DB12A700135BCF1000F6D
:109E90000BD00CF1FF3CFF24BEF1000FE1D09EF887
:109EA0000040D7E738F0C0FFB76917B13B68BA8800
:109EB0001A839DF805009DF801509DF802109DF849
:109EC00003409DF804209DF8063041EA052143EA4D
:109ED000002342EA04220120A6F85010A6F85220DE
:109EE000A6F8543003B0F0BD9858050838B50546BB
:109EF00040683B4A038823F040031B041B0C03808B
:109F0000038823F038031B0490424FEA134305D023
:109F100002F58062904201D043F008030380038879
:109F2000AA6843F04003038012B1136892885A83F1
:109F3000838940F2E93301E0002B43D00289013BE1
:109F400012F0020F9BB2F7D0F523838140F2E93380
:109F500001E0002B36D00289013B12F0010F9BB2C9
:109F6000F7D08389838940F2E93300E00BB302899B
:109F7000013B12F0020F9BB2F8D0FF23838140F225
:109F8000E93300E0ABB10289013B12F0010F9BB253
:109F9000F8D08489E4B2AB6813B11A689B88138344
:109FA000712C19D008D9AC2C14D0AF2C0ED10920AB
:109FB00038BD38F039FFEEE7122C0FD0702C07D1E6
:109FC000052038BD38F030FF6868CBE7732C03D02C
:109FD000002038BD072038BD062038BD082038BD18
:109FE000003800402DE9F84F037C02681F2B86BF24
:109FF000203B51681168202202FA03F30B4214BF80
:10A00000012300230BB9BDE8F88F4769DFF830A2C0
:10A010007D0104460FF02EFCEB190AEBC3038046CA
:10A020001A7C002A34D175495A680978D2F8009010
:10A03000C9B9D96F58890A6822F001020A60B9F8D3
:10A040000C3023EA0003A9F80C306D4B1B78002B71
:10A0500031D1237C21681F2B13D8202202FA03F36D
:10A060008B60BDE8F88F5269136823F00103136019
:10A07000B9F80C3023F480731B041B0CA9F80C30C6
:10A08000E3E7203B202202FA03F3CB60BDE8F88F20
:10A09000DE6F5C485F8901225A7431685A68036830
:10A0A000156821F001013160AA89013322EA070213
:10A0B000AA810360CDE7EB190AEBC303524ADE6FB6
:10A0C000336823F0010333600023336096427360EA
:10A0D000B360F36033614FF0210373616ED04B4B7B
:10A0E0009E4266D04A4B9E426CD04A4B9E426ED0F6
:10A0F000494B9E4270D0494B9E4271D0484B9E4284
:10A1000072D0484B9E4273D0304608F043FE3D4427
:10A11000EF000AEB070501232B74D5F880B00FF090
:10A12000A9FB30370AEB0701CBF82C01484608F0B1
:10A1300081FFD5E91470EB6BD5E916123B4303435D
:10A140000B4313432A6E2F6F3068374913436A6EEF
:10A1500013436A6F3B43014013430B430022AA643D
:10A1600033607269AB6EE96C22F0070CEA6ED5E9D8
:10A170001070134343EA0C0373617160B760F060C1
:10A180003268EB6F95F87800696842F0100232602F
:10A1900058601A68096842F001021A608B896A895E
:10A1A00013438B810FF066FB204BA0EB0800186077
:10A1B0004FE74FF4746243F8202CA8E71C4B3D2274
:10A1C0009A60A4E74FF4741243F8382C9FE74FF0DD
:10A1D000746243F8502C9AE7164A43F8642C96E7C9
:10A1E000154A43F87C2C92E7144A43F8942C8EE7E6
:10A1F0004FF03D5243F8AC2C89E700BFC03000104F
:10A20000BC3000108C950020106002402860024095
:10A210004060024058600240706002408860024026
:10A22000A0600240B86002403F801CF01817001088
:10A23000006002403D000020400F002000003D2053
:10A240004CC5002020B10078B0FA80F0400970477A
:10A250000120704708B520214BF0B1FA034618469B
:10A2600023B10278202A03F10103F8D008BD037955
:10A2700003F01803082B0AD002D82BB10020704736
:10A28000102B14D0182BF9D1B0F80B007047114BDC
:10A29000B0F80B0093F90030591C06BF0E4B1B7829
:10A2A000DBB2C3EB431300EB830080B270470B4B70
:10A2B000B0F80B0093F900305A1C06BF064B5B78D0
:10A2C000DBB203EB430203EB820300EB430080B2FB
:10A2D000704700BF350D0020E87B0020340D0020C2
:10A2E000F0B5067906F06003402B09D144794FF0B0
:10A2F000FF350023012006F00706A3420BD1F0BD75
:10A30000602B08BF45794FF001040CBF04FA05F536
:10A310004FF0FF35EDE7042E0CD8DFE806F0030D13
:10A3200018242E0030B1C85CD75C784028420CBF9E
:10A33000012000200133E0E70028FBD0C856D756A3
:10A34000A0EB070CDCF1000040EB0C00F2E700286A
:10A35000F0D031F8130032F81370784028420CBF67
:10A3600001200020E6E70028E4D031F9130032F99B
:10A370001370C71B78427841DCE70028DAD051F827
:10A38000230052F82370784028420CBF012000209F
:10A39000D0E7024B0146186838F072BF18690020F8
:10A3A00038B5064D441E14F8011F286819B9BDE8D8
:10A3B000384038F0DFBE38F063FFF4E7186900205A
:10A3C0000048EDE70E0E060808B5FFF7E9FFBDE807
:10A3D0000840F5E710B504460348FFF7E1FF2046C3
:10A3E000BDE81040F0E700BF40D2050838B5074C83
:10A3F000074DAC4203D3074B00221A7038BD628868
:10A40000D4E9010149F09EFE1434F2E790010008FE
:10A410001C070008DCA0002038B5074C074DAC42F3
:10A4200003D3074B01221A7038BD6288D4E90110AA
:10A4300049F088FE1434F2E7900100081C07000878
:10A44000DCA00020024A136823EA00001060704775
:10A4500088D70020DFED2B7AB4EEE70AF1EE10FA90
:10A460004ADDDFED296A9FED297A01E0B0EE670A47
:10A47000B4EEC70AF1EE10FA70EE667AF6DC9FEDE4
:10A48000247AF4EEC77AF1EE10FA38D5DFED1E6AC1
:10A490009FED207A01E0F0EE407AF4EEC77AF1EE1B
:10A4A00010FA37EEA60AF6D4DFED1B7AB4EEE70A0F
:10A4B000F1EE10FA14DDDFED137A37EEC00A60EE2C
:10A4C000006A9FED166A9FED167ADFED167AA6EE0A
:10A4D000867A20EE266AE6EE877AA6EE270A70478D
:10A4E000DFED117AB4EEE70AF1EE10FA44BFDFEDCA
:10A4F000087A37EEC00AE2E7F0EE407ABFE7B0EE46
:10A50000670AD1E7DB0F4940DB0FC940E4CB1641B6
:10A51000DB0F49C0E4CB16C1DB0FC93F92E741B95D
:10A520009730083C15A82ABEDB0FC9BFF0EEC07AF1
:10A53000B0EEE07AB4EEE77AF1EE10FAB4BFB0EE26
:10A54000676AB0EE476AB5EE406AF1EE10FA46D09F
:10A55000B4EEE77AF1EE10FA8CBFF0EE675AF0EE47
:10A56000475AC5EE866A9FED1F3A9FED1F6A9FED21
:10A570001F4A9FED1F5ADFED1F3ADFED1F4ADFED47
:10A580001F5AA6EEC36AE6EEA34AA6EE864AB7EEC7
:10A59000006AA6EE845AA6EEA46AE6EE855AC5EED7
:10A5A000866AB4EEE77AF1EE10FA48BFDFED147A6E
:10A5B000F5EEC00A48BF77EEE66AF1EE10FA48BF42
:10A5C000DFED107AB5EEC00A48BF77EEE66AF1EE2D
:10A5D00010FA48BFF1EE666AB0EE660A7047DFED2A
:10A5E000076ADEE739094E3DE3B59E3E88FA163E1E
:10A5F00045FE7F3F99FB243F69A2163EA7DFA834A2
:10A60000DB0FC93FDB0F4940DFED317A30EE277AAF
:10A61000FDEEC76A16EE903A2033402B02D99FED2B
:10A620002D0A7047B4EEE70AF1EE10FA4DDD9FED0A
:10A630002A6ADFED2A6A01E0B0EE677AB4EEE67AC4
:10A64000F1EE10FA77EE467AF6DC9FED257AF4EE1D
:10A65000C77AF1EE10FA35D5DFED1F6A9FED217A4A
:10A6600001E0F0EE407AF4EEC77AF1EE10FA37EE40
:10A67000A60AF6D4DFED167AB4EEE70AF1EE10FA88
:10A680001BDCDFED197AB4EEE70AF1EE10FA44BFF5
:10A69000DFED137A37EEC00A60EE006A9FED136AB1
:10A6A0009FED137ADFED137AA6EE867A20EE266A06
:10A6B000E6EE877AA6EE270A7047DFED0F7A37EECF
:10A6C000C00AE9E7B0EE670AD4E7F0EE477ABCE7E4
:10A6D000DB0FC93F00000000DB0FC940E4CB16418F
:10A6E000DB0F49C0E4CB16C1DB0FC9BF92E741B90C
:10A6F0009730083C15A82ABEDB0F494010B44C091E
:10A70000012250F8243001F01F0102FA01F123EA7E
:10A71000010340F824305DF8044B704710B44C0935
:10A72000012250F8243001F01F0102FA01F10B431D
:10A7300040F824305DF8044B704700BF4B0901F02E
:10A740001F0150F82320012303FA01F1114214BF25
:10A7500018460020704700BF2DE9F043002489B05F
:10A7600006460D461F46A04605E025290CD030467A
:10A770000134A847039A531C039311780029F4D19C
:10A78000204609B0BDE8F083931CCDE9033850782A
:10A79000302842D0A0F13003DBB2092B4FF0000982
:10A7A00045D96C282AD0642873D019D9732858D079
:10A7B00063D9752840F0828007F1040C386805AB36
:10A7C00000220A216746FDF74BFD05AB049A009372
:10A7D00029464B463046FDF719FC039A0444CAE764
:10A7E00025283CD051D958286BD06328C2D139785C
:10A7F0003046A84704370134039ABCE7039B5A1C30
:10A8000003921B78642B52D016D8252B27D064D9FD
:10A81000582B18D0632BEAD0ADE7D31C0393907864
:10A82000A0F13003DBB2092B4FF00109B9D804AA1B
:10A8300003A945F0BBFAB4E7732B12D051D9752B9D
:10A840002DD0782B97D1A3F15802B2FA82F2386852
:10A85000520905AB10210437FDF702FDB5E72521AC
:10A8600085E73B68049A0093294600233046FDF7AC
:10A87000CDFB04370444039A7DE76E287FF47AAF5A
:10A88000039A3B6804371C6075E700283FF478AFF3
:10A8900070E7386805A9FDF7ADFC043795E738681F
:10A8A00005AB00220A21FDF7DBFC04378DE73B1DD9
:10A8B000386805A91F46FDF79DFC86E778287FF4D8
:10A8C00059AFA0F15802B2FA82F23868520905ABCA
:10A8D0001021FDF7C5FC043777E7002B3FF450AF9C
:10A8E00049E76E2BCDD046E710B5064C0B46024625
:10A8F00005492068FFF730FF2068BDE8104038F0B8
:10A9000039BC00BF18690020B194000838B504466E
:10A910000D460848FFF744FD29462046FFF7E4FFAF
:10A920000548FFF73DFD054B1B7813B1044B012291
:10A930001A7038BD45D2050850D20508746A002047
:10A94000756A00200FB407B504A951F8040B0191F2
:10A95000FFF7DCFFFFF734FD03B05DF804EB04B054
:10A96000704713460A4601460048EBE754D20508F3
:10A970000048E7E76DD205080FB407B504A951F800
:10A98000040B0191FFF7C2FF03B05DF804EB04B0C4
:10A9900070470FB407B504A951F8040B0191FFF7F4
:10A9A000A3FFFFF70DFD03B05DF804EB04B07047A3
:10A9B0000FB407B504A951F8040B0191FFF794FFF8
:10A9C00003B05DF804EB04B070472DE9F843037958
:10A9D00003F06001202928D002D849B1BDE8F883EE
:10A9E000402945D06029F9D12448BDE8F843D0E793
:10A9F00003F00703022B02D0042B08D06BB9B0F888
:10AA00000720B0F805101E48BDE8F843C1E7D0F8AC
:10AA100005201B48BDE8F843BBE7B0F90720B0F9B3
:10AA200005101748BDE8F843B3E74579154E1648B9
:10AA3000FFF7B6FC06EBC502002492F80480012360
:10AA4000A04502D8BDE8F843BAE456F8357057F887
:10AA500024204FEA84094AB113B90C48FFF7A0FC3F
:10AA600057F809100A48FFF7A3FF00230134E7E76E
:10AA700041790848BDE8F8438BE700BFB5D2050827
:10AA800079D20508449C050890D20508A1D2050892
:10AA900000030608A4D205082DE9F0411746027903
:10AAA00002F06003402B05460C462BD10026524F86
:10AAB000DFF8608115E02B7903F00703022B15D036
:10AAC000032B19D0012B14BFA15DA1573846FFF706
:10AAD0006FFF6B79013BB34202DD4046FFF760FC3C
:10AAE00001366B79B342E6DCBDE8F08134F816102C
:10AAF0003846FFF75DFFECE734F916103846FFF7EC
:10AB000057FFE6E702F00702042A67D8DFE802F001
:10AB1000031E27292C002478202B3CD0602B49D001
:10AB2000002BE1D1B5F80560B5F807803248214621
:10AB3000FFF73EFFA64249DCA04547DB002FD3D0FC
:10AB4000424631462D48BDE8F04131E794F90040D6
:10AB5000202B20D0602B2DD0002BC5D146E024889F
:10AB6000DAE7B4F90040F3E72668202B344612D028
:10AB7000602B1FD0002BB7D131461F48FFF718FFBD
:10AB8000D5F805108E4221D8002FADD01C48BDE865
:10AB9000F0410DE700246A791A4B03EBC2010979F1
:10ABA000A14213DD53F8323053F82400BDE8F041E0
:10ABB000FFF7F6BB6A791441E30703D51248BDE8F5
:10ABC000F041F5E61148BDE8F041F1E6FFF7F8FB8A
:10ABD000224629680E48BDE8F041CDE6202BD9D0A9
:10ABE000602BEFD0002B7FF47FAF1C46B5F90560DA
:10ABF000B5F907809AE700BF8DD205082F03060834
:10AC0000CFD20508449C0508CAD205083BF80508C0
:10AC1000D5D20508CDD205080CB407B510F0200038
:10AC20000BD079B92320FFF7B4FB05A90498019153
:10AC3000FFF75AFEFFF7C4FB012003B05DF804EBF9
:10AC400002B070470020F8E70CB4C30607B500D582
:10AC500061B905A904980191FFF746FEFFF7B0FB23
:10AC6000012003B05DF804EB02B070470020F8E764
:10AC70000EB400B584B005AB019053F8042B06491F
:10AC8000039301A8FFF768FD019B00221A7004B02E
:10AC90005DF804EB03B070470180000870B40668EB
:10ACA0008E4217D90139751E002311F8014F082271
:10ACB000634013F0800F4FEA430318BF83F0D503BE
:10ACC000013ADBB2F5D18D42EFD1721C02603370D4
:10ACD00070BC7047721C00230260337070BC7047F8
:10ACE0000A44914215D010B40139541E11F8012FB5
:10ACF0000823504010F0800F4FEA400018BF80F04A
:10AD0000D500013BC0B2F5D1A142EFD15DF8044BB3
:10AD1000704770474840082310F0800F4FEA40000A
:10AD200018BF80F0D500013BC0B2F5D1704700BF1D
:10AD30000A44914215D030B40139551E41F2210226
:10AD400011F8014F082380EA042004044CBF82EA72
:10AD500040004000013B80B2F7D18D42F0D130BCC1
:10AD60007047704770B502221349144C144E4FF6C9
:10AD7000FF70FFF7DDFF22884AB1A518B54218D24F
:10AD8000052A16D92146FFF7D3FF2C46F3E72146C3
:10AD90000222FFF7CDFF0222A118FFF7C9FF094BDE
:10ADA000E41A094B1C8041F60F53C31A584258410C
:10ADB00070BD0020FCE700BF004000080240000812
:10ADC00000800008FA3F0008DEA000200F4B2DE9AC
:10ADD0003048D3E9004554EA05020AD1034640F25F
:10ADE000011200201880988098715A801881BDE85F
:10ADF0003088074B1A6814EB020B45F1000C5A46D9
:10AE00006346FDF73FF90120BDE83088784F002008
:10AE1000F8AC002030B403888278C478154DA3F5CF
:10AE2000FA6303F0030101EB4101013A02EB8102F5
:10AE30009B0835F812500279611E40F2B55404FBAC
:10AE400003132B4403EB430302EBC30342798479DE
:10AE500009490089C3EB031302EB83032144C3EBCD
:10AE6000031301EB83034FF47A720021C2FB030149
:10AE700030BC70473858050880436D382DE9F047DD
:10AE800007468CB01E469246002A5CD115461446F1
:10AE90000A88B2F5FA6F36D38B78581E0B2832D851
:10AEA00091F803C00CF1FF301E282CD891F804E073
:10AEB000BEF1170F27D891F80590B9F13B0F22D8B2
:10AEC00088793B281FD8B1F80880B8F57A7F1AD264
:10AED0004FF001085EBB09890491002CB4BF2D21FD
:10AEE0002B21002CB8BF6442CDE90290CDE90514B6
:10AEF0000795CDE900CE38462A49FFF7B9FE40460E
:10AF00000CB0BDE8F08700232749ADF828304FF09A
:10AF1000010C18468DF82A30ADF82C3099469E4623
:10AF20001A4698460991634609A9002ED3D0CDE967
:10AF30000290CDE900CE38461C49FFF799FE404605
:10AF40000CB0BDE8F0871A4C84FB0234A318D41768
:10AF5000C4EB6314C4EB0415A2EB85052DB2002DE0
:10AF60000846B8BF6D42FFF755FF4FF47A720023D1
:10AF70008046894648F048FE3C230AFB030A4FF40A
:10AF80007A7200234046494648F03EFE4FF47A71FB
:10AF900092B20023C1FB0A2309A8FDF773F824B27B
:10AFA00009A975E7C4D3050800000101A4D3050869
:10AFB000898888880378202B024600F10100F9D0A7
:10AFC000092BF7D02D2B00F0A4802B2B03BF537837
:10AFD000B7EE000A0246B7EE000AA3F13001C8B28C
:10AFE00009289FED577A10D8F2EE046A07EE901AFE
:10AFF000F8EEE77A12F8013FE7EE267AA3F1300186
:10B00000C8B20928B0EE677AF0D92E2B63D003F0CE
:10B01000DF03452B02D020EE070A704710B45178A9
:10B020002D294FD02B2979D0A1F13003092B02F122
:10B0300001027AD80024002303EB830301EB4303CE
:10B0400012F8011FA1F130000928A3F13003F3D950
:10B05000B3F59A7F1A4628BF4FF49A72072B6CD922
:10B06000DFED386A1346F7EE007A083B072B67EEF0
:10B07000A67AFAD802F00702DAB1F2EE046A012ADF
:10B0800067EEA67A15D0022A67EEA67A11D0032AB7
:10B0900067EEA67A0DD0042A67EEA67A09D0052AB3
:10B0A00067EEA67A05D067EEA67A062A18BF67EE85
:10B0B000A67A002C3BD087EE277A5DF8044B20EE71
:10B0C000070A70479178A1F13003092B02F10202BF
:10B0D00030D80124AFE75378A3F13001C8B2092872
:10B0E00002F1010293D8F2EE046AF0EE665A07EE1E
:10B0F000901AF8EEE77A12F8013F87EEA66AA3F1FC
:10B100003001C8B2092866EEA56A37EE067AEED994
:10B110007DE75378BFEE000A02465EE79178A1F121
:10B120003003092B02F1020284D9F7EE007A27EEF0
:10B13000277AC2E7F7EE007ABDE7F7EE007A9BE7E1
:10B140000000000020BCBE4CF8B506461546084677
:10B15000B6FBF2F434B905FB14640C4B1B5D00F82C
:10B16000013BF8BDB4FBF2F75FB905FB1747074B8E
:10B1700005FB1464DA5D00F8012B1B5D00F8013B50
:10B18000F8BD3846FFF7E0FFEFE700BFF4D305084E
:10B19000B5EEC00ADFED677A674AF1EE10FACCBF70
:10B1A00030EE270A30EE670ADFED647A20EE270AD8
:10B1B0002DE9F047FDEEC07A88B017EE904A84EA98
:10B1C000E4760023A6EBE476CDE902330493A2FBF8
:10B1D00006325FEAD208054641D105AF58483946E4
:10B1E000554BA3FB0623DB0803EB8303A6EB4303CA
:10B1F000002CC35C0B704FF00002ACBF20232D234A
:10B200004A7038468DF8083048F008F80128394669
:10B2100039D0022842D0032805BF302302A802A853
:10B220008DF809304AF0BCFA02A847F0F7FF03385E
:10B23000C4B2224602A928464AF0E8FA00232B5558
:10B24000284647F0EBFF2E22431C02A92A54214432
:10B25000E8184AF0C1FA284608B0BDE8F087394B33
:10B26000A3FB06235B0922D105AF35483946324A94
:10B27000A2FB0832D20802EB8202A8EB4202835CF6
:10B2800001F8013BACE7302302A88DF809308DF8B6
:10B290000A308DF80B304AF083FAC5E7302302A854
:10B2A0008DF809308DF80A304AF07AFABCE7264A60
:10B2B000A2FB06125FEA92190ED105AF204839466B
:10B2C0001D4AA2FB03C2D20802EB8202A3EB420397
:10B2D000C35C01F8013BCAE71C4AA2FB06125FEA05
:10B2E000523A0ED105AF16483946134AA2FB09C29D
:10B2F000D20802EB8202A9EB4202825C01F8012B28
:10B30000DEE71348B6FBF0F058B905AF39460A201E
:10B31000BAFBF0F200FB12A20948825C01F8012B93
:10B32000E3E705AF39460A220193FFF70DFF019BC2
:10B330000146ECE76F12033ACDCCCCCC00007A4446
:10B34000F4D305081F85EB51D34D62105917B7D1BF
:10B35000A086010002B370B48E1803E0121B14D152
:10B36000B14215D010F8012BA2F14103192B11F8AD
:10B37000013BA3F1410598BF2032192D03F12004B0
:10B38000ECD9D21A01D1002BEAD1104670BC70471B
:10B390000022104670BC70471046704770B50446D6
:10B3A00008460D4647F03AFF064602E014F8013F12
:10B3B00043B1324629462046FFF7CCFF0028F5D19D
:10B3C000204670BD1C46204670BD00BF4FF0FF32C6
:10B3D000FFF7C0BFA0F16103192B98BF2038704759
:10B3E000A0F14103192B98BF20307047202805D0C9
:10B3F000093804288CBF00200120704701207047C5
:10B400002DE9F0411F46064603461C782046FFF70B
:10B41000EDFF1D4601330028F7D12B2C51D02D2CE8
:10B4200024D0102A804628D04FF0FF33B3FBF2F32C
:10B4300002FB03FC6FEA0C0C5FFA8CFC0135002068
:10B440000BE0303CE4B2944225DA98422E461DD8F7
:10B450001AD002FB004015F8014B392CF1D944F009
:10B460002004602C17D9573CE4B2ECE74FF00108F8
:10B47000102A6C7805F10105D6D1302C23D06FF05D
:10B4800070434FF00F0CD9E76445E2D907EA08088A
:10B490004FF0FF30DFE701B10E60B8F1000F08D0C8
:10B4A00027B1B0F1004F28BF4FF000404042BDE847
:10B4B000F081002FFBD06FF00043984228BF184660
:10B4C000F5E78046D4E76C782046FFF789FF7828B7
:10B4D00005F1010605D035466FF070434FF00F0CB3
:10B4E000ACE7AC786FF0704302354FF00F0CA5E776
:10B4F00001230A22002183E770B50D461446FEF7AA
:10B50000A9FE0646A0B1FFF7F3FF40F634039842C8
:10B51000A8BF1846B0F5617FB8BF4FF4617019231A
:10B52000A0F5617090FBF3F028702378013323704D
:10B530003046FEF78FFE0646A0B1FFF7D9FF40F672
:10B5400034039842A8BF1846B0F5617FB8BF4FF4E6
:10B5500061701923A0F5617090FBF3F06870237897
:10B5600001332370304670BD613819288CBF00202C
:10B5700001207047413819288CBF002001207047F6
:10B58000303809288CBF002001207047A0F130031B
:10B59000092B07D920F02000413819288CBF002042
:10B5A000012070470120704707EE901AF8EE677A85
:10B5B0009FED807A27EE800A20EE070AFDEEC07A22
:10B5C00017EE903A2033402B7BD8DFED7B7AB4EE38
:10B5D000E70AF1EE10FA40F3E180B0EE407A9FED19
:10B5E000776ADFED776A01E0B0EE677AB4EEE67A6B
:10B5F000F1EE10FA77EE467AF6DC9FED727AF4EE11
:10B60000C77AF1EE10FA40F1CC809FED6C6ADFED65
:10B610006E6A01E0F0EE477AF4EEE67AF1EE10FAA7
:10B6200037EE867AF6D4DFED697AB4EEE77AF1EE9A
:10B6300010FA40F3A280DFED607A37EEC77A27EE8A
:10B64000076ADFED635ADFED637ADFED636A9FED32
:10B65000635AE6EE257A67EE065AE6EE276AF7EEBB
:10B66000007AA5EEA67AF0EE675AE7EE055AE7EE05
:10B67000457A87EEA55ADFED557A30EE277AFDEE52
:10B68000C76A16EE903A2033402B1FD99FED547AAB
:10B69000F6EE006AB7EE006AF7EE004AC4EEA57A4D
:10B6A00080ED045A67EEA66A27EE866A27EE877A4F
:10B6B000C0ED006AC0ED026A80ED016A80ED037A98
:10B6C0007047B7EE005AF0EE455AD4E7B4EEE70AF9
:10B6D000F1EE10FA6BDD9FED396ADFED396A01E0BA
:10B6E000B0EE677AB4EEE67AF1EE10FA77EE467ACB
:10B6F000F6DC9FED347AF4EEC77AF1EE10FA53D50A
:10B700009FED2E6ADFED306A01E0F0EE477AF4EE4D
:10B71000E67AF1EE10FA37EE867AF6D4DFED2B7A80
:10B72000B4EEE77AF1EE10FA33DCDFED2E7AB4EE08
:10B73000E77AF1EE10FA44BFDFED227A37EEC77AEE
:10B7400027EE076ADFED224ADFED226ADFED227A7B
:10B75000E6EE246A67EE064AE6EE267AB7EE006A5F
:10B76000A4EEA77AF6EE006A36EE476AF8EE007AA3
:10B7700027EE277A66EE266A8EE7DFED1A7AB4EEB8
:10B78000E77AF1EE10FA44BFDFED0E7A37EEC77AB2
:10B7900055E7DFED097A37EEC77AD1E7F0EE407A68
:10B7A0002BE7B0EE677A3EE7B0EE677AB6E7F0EEE9
:10B7B000477A9EE727D4D236DB0F4940DB0FC940DA
:10B7C000E4CB1641DB0F49C0E4CB16C1DB0FC93F08
:10B7D00092E741B99730083C15A82ABEF304353FDB
:10B7E00000000000DB0FC9BF07EE901AF8EE677A81
:10B7F0009FED837A27EE800A20EE070AFDEEC07ADD
:10B8000017EE903A2033402B00F28180DFED7D7AF5
:10B81000B4EEE70AF1EE10FA40F3E680B0EE407ABB
:10B820009FED796ADFED796A01E0B0EE677AB4EEF8
:10B83000E67AF1EE10FA77EE467AF6DC9FED747A4E
:10B84000F4EEC77AF1EE10FA40F1D1809FED6E6A06
:10B85000DFED706A01E0F0EE477AF4EEE67AF1EEA1
:10B8600010FA37EE867AF6D4DFED6B7AB4EEE77A2B
:10B87000F1EE10FA40F3A780DFED627A37EEC77A77
:10B8800027EE076ADFED655ADFED657ADFED656A61
:10B890009FED655AE6EE257A67EE065AE6EE276AD0
:10B8A000F7EE007AA5EEA67AF0EE675AE7EE055AB3
:10B8B000E7EE457A87EEA55ADFED577A30EE277A24
:10B8C000FDEEC76A16EE903A2033402B24D99FED47
:10B8D000577AF6EE006AB7EE006AF7EE004AC4EE59
:10B8E000A57A0023836143610362C36180ED045A3A
:10B8F00067EEA66A27EE866A27EE877AC0ED006AB1
:10B90000C0ED026A80ED016A80ED037A7047B7EE00
:10B91000005AF0EE455ACFE7B4EEE70AF1EE10FA1E
:10B920006BDD9FED396ADFED396A01E0B0EE677AD1
:10B93000B4EEE67AF1EE10FA77EE467AF6DC9FED99
:10B94000347AF4EEC77AF1EE10FA53D59FED2E6AF1
:10B95000DFED306A01E0F0EE477AF4EEE67AF1EEE0
:10B9600010FA37EE867AF6D4DFED2B7AB4EEE77A6A
:10B97000F1EE10FA33DCDFED2E7AB4EEE77AF1EE79
:10B9800010FA44BFDFED227A37EEC77A27EE076A56
:10B99000DFED224ADFED226ADFED227AE6EE246A4D
:10B9A00067EE064AE6EE267AB7EE006AA4EEA77ABC
:10B9B000F6EE006A36EE476AF8EE007A27EE277A4E
:10B9C00066EE266A89E7DFED1A7AB4EEE77AF1EEE1
:10B9D00010FA44BFDFED0E7A37EEC77A50E7DFED9D
:10B9E000097A37EEC77AD1E7F0EE407A26E7B0EE73
:10B9F000677A39E7B0EE677AB6E7F0EE477A9EE706
:10BA000027D4D236DB0F4940DB0FC940E4CB1641C7
:10BA1000DB0F49C0E4CB16C1DB0FC93F92E741B948
:10BA20009730083C15A82ABEF304353F00000000FB
:10BA3000DB0FC9BF10EE103AC3F3160242F07E527C
:10BA400007EE102ADFED167ADFED164A9FED165A43
:10BA5000DFED165A9FED166ADFED163ADFED166A36
:10BA60009FED164AE7EE274ADB1507EE903AA4EE63
:10BA7000875AF8EEE77AE5EE075A67EEA37AA5EE65
:10BA8000876AB5EEC00AE6EE077AF1EE10FAD4BF87
:10BA9000B0EE440AB0EE660A37EE800A704700BF87
:10BAA000DACDFE3CB9D593BE5CB8903FAA841DC0E8
:10BAB00022E061401872313F07F1B3C2000080FFFD
:10BAC000DFED1D3ADFED1D7A9FED1D7A9FED1D4ADA
:10BAD000DFED1D4A9FED1D5ADFED1D5A9FED1D6ADA
:10BAE000DFED1D6AE0EE237AF4EEC77AF1EE10FA8C
:10BAF00088BFF0EE477AF4EEC47AF1EE10FAB8BFE0
:10BB0000F0EE447AFDEEE77A17EE903AC3F31602B0
:10BB100042F07E5207EE102AA7EE245A03F0FF43AC
:10BB200000EE103AE5EE075AA5EE876AE6EE076AE0
:10BB300026EE800A704700BF3BAA384B00007E4EBD
:10BB40000000FF4E00000000ED185E3C81900FBB2E
:10BB5000AF9D2A3EB2D19F3EE886023F30B40268D4
:10BB60001146531C036011F8024B0160D31C51783D
:10BB700003609378151D05601B0443EA0123D07808
:10BB8000234343EA006030BC704700BF0368591C80
:10BB90001A46016012F8021B0260587841EA002040
:10BBA000704700BF03685A1C02601878704700BFD6
:10BBB00070B5044608460E4647F030FB3146054650
:10BBC0000246206848F0BEFA20682844206070BD14
:10BBD00038B504460068154648F0B4FA22682A448D
:10BBE000226038BD036810B40A0E5C1C04601A7031
:10BBF00003680A0C5C1C04601A7003680A0A5C1C67
:10BC000004601A7003685A1C026019705DF8044BD6
:10BC1000704700BF036810B40A0A5C1C04601A7005
:10BC200003685A1C026019705DF8044B704700BF2E
:10BC300003685A1C026010B4197003680A0A5C1C7D
:10BC400004601A7003680A0C5C1C04601A700368B4
:10BC5000090E5A1C026019705DF8044B704700BF52
:10BC600003685A1C026019700368090A5A1C0260B2
:10BC70001970704770B544880546C4F30B0422461A
:10BC80000846002149F084FD2969094A914203468A
:10BC900002D3084A914204D341B11846BDE870402E
:10BCA00008472246BDE8704048F04CBA70BD00BF5E
:10BCB0001C0700086408000838B5064C064DAC4265
:10BCC00006D2616820461434FFF7D4FFAC42F8D3A3
:10BCD00038BD00BF900100081C070008084B094947
:10BCE0008B4203D309E014338B4206D21A88C2F385
:10BCF0000B029042F7D11846704700231846704750
