:020000040800F2
:10000000F0FF0010E159050851A601088D580108BC
:10001000815A0508815A0508815A05080000000028
:100020000000000000000000000000005DA60108C4
:1000300059A601080000000055A60108F158010862
:10004000815A0508815A0508815A0508815A050810
:10005000815A0508815A050845C8040871C9040871
:1000600035C90408F9C80408BDC804081505010805
:1000700005050108F5040108E5040108D10401089B
:10008000BD040108A9040108815A0508815A050820
:10009000815A0508815A0508815A050881C8040853
:1000A0000D310108A93601083D30010879370108F2
:1000B000E9350108293501085D340108FD0A010808
:1000C000050B0108F10A0108F90A0108815A05081F
:1000D000815A0508A15B0108815A0508055B0108E2
:1000E00009C80408815A050841F401086D2F010868
:1000F000DD3101089D2E0108BD320108950401087B
:10010000815A0508815A05088D330108815A05086E
:10011000695A0108CD5901088DDA030815D9030879
:10012000810401086D04010859040108450401080F
:1001300031040108815A0508815A0508815A0508C9
:10014000815A0508815A0508815A050819C1010814
:100150001D04010809040108F503010831590108CB
:10016000E50A0108ED0A0108815A0508815A0508C7
:10017000815A0508815A0508815A0508815A0508DF
:08018000815A0508815A0508A7
:0801880088550500010000008C
:10019000100201006C2100206821002000000000F6
:1001A000800700081F02100080210020702100201D
:1001B00000000000458500081A023C00A042002013
:1001C000D044002000000000159200082700040021
:1001D000B44100200C450020000000008207000808
:1001E00038100100D8400020104500200000000019
:1001F0008607000814000300085F0020745F0020D9
:1002000000000000880700080B301A00104F002083
:10021000785F0020000000008C0700081F302400D9
:100220002C4F0020945F002000000000A807000869
:10023000050204009C5A0020B85F00200000000066
:10024000CC07000803010A006C4F0020BC5F0020AF
:1002500000000000D007000813020400444D0020F5
:10026000C85F002000000000DA07000820320A0002
:100270002C7A0020207A0020000000003DFE0108BA
:100280001C02100014760020387A002000000000C4
:10029000B18300081010020080790020487A002005
:1002A00000000000DE070008281010007079002010
:1002B0004C7A002000000000B9FE0108190005007A
:1002C000687900205C7A002000000000E007000848
:1002D000F821060060790020647A00200000000008
:1002E000E607000801200C00C07200206C7A002094
:1002F00000000000EC0700080A7028001C720020B3
:10030000787A0020000000005DFE01080EA06E015A
:10031000AC700020A07A002000000000B90D040895
:10032000010104000C700020107C0020000000007F
:10033000000000000001040004700020147C002074
:1003400000000000F8070008020103000070002010
:10035000187C002000000000550A03082202140146
:100360004896002098980020000000006194000842
:100370000C109C006C860020AC990020000000004E
:10038000290A03080102050050860020489A00202F
:1003900000000000219F020800020500488600209E
:1003A000509A002000000000000000001B02100016
:1003B0001C860020589A002000000000DD83000801
:1003C0001E00060074830020689A002000000000D0
:1003D000FC0700081B100C00787E0020709A00209B
:1003E0000000000069B402082102F000F87C00203F
:1003F0007C9A002000000000DDA1020823121000FA
:10040000D88800206C9B0020000000000408000831
:1004100005100600D08800207C9B00200000000012
:100420001408000837102800A4850020849B0020B1
:10043000000000001A0800080E020200CC8800200C
:10044000AC9B0020000000004208000816100600C7
:10045000EC7C0020B09B0020000000004408000855
:100460002F10220074980020B89B0020000000008C
:100470004A08000823100E00C4820020DC9B0020E4
:1004800000000000D1FE0108F5518C00247C002002
:10049000EC9B002000000000B1EF020826100C00C9
:1004A000849C0020789C00200000000069940208D1
:1004B00007020200509E0020949E002000000000D1
:1004C0006C08000802000C00109D0020989E00207F
:1004D000000000000000000006020C00289E002022
:1004E000A49E002000000000B192000808120F0036
:1004F000789D0020B09E00200000000001850008CB
:10050000F70106006C9D0020C09E00200000000046
:100510006E0800081D020200689D0020C89E002091
:1005200000000000740800080A020A0068A2002007
:10053000BCA400200000000085700308F6210C0018
:100540009CA10020C8A4002000000000780800083A
:10055000030001000CA20020D4A400200000000031
:100560000000000003123D007CA40020D8A400205D
:10057000000000008408000825102C019CA2002027
:1005800018A5002000000000000000001A000E0066
:10059000E8AD002030AF002000000000C2080008D5
:1005A00015007000B8AA002040AF00200000000035
:1005B000000000002A006000B8AE0020B0AF0020AC
:1005C00000000000910D04082C00100020B0002055
:1005D00010B0002000000000210B04082B002400B4
:1005E00054B0002030B0002000000000F10A0408E0
:1005F00029207800A4A8002078B000200000000086
:10060000000000000D003C0094E1002040E20020CA
:1006100000000000B90F01080902010000E10020FC
:100620007CE2002000000000D008000804008000E8
:1006300080E0002080E200200000000000000000B8
:100640001300040060E0002000E300200000000030
:10065000D4080008182030002CE0002004E300201B
:1006600000000000C193000806101A004CCB0020C7
:1006700034E3002000000000150E0408FB01010017
:1006800048CB002050E30020000000003594000813
:10069000FC01090014CA002054E3002000000000FF
:1006A0004594000816023F00D4C9002060E30020F2
:1006B00000000000218400083400100004C900205C
:1006C000A0E3002000000000E90D0408110208006A
:1006D000DCC80020B0E3002000000000D8080008BB
:1006E00012120400D4C80020B8E30020000000006B
:1006F000E008000812201000C4C80020BCE300205D
:1007000000000000E4080008FD012100FCC50020F5
:10071000CCE3002000000000810D0108F901040075
:10072000ACC20020F0E3002000000000B1990408F2
:10073000FA01020094BC0020F4E300200000000055
:100740007186000802020300D8B10020F8E30020FF
:1007500000000000000000000C020400C4B10020F2
:10076000FCE30020000000002D850008FE011400BD
:1007700060BC002000E4002000000000F1830008BD
:10078000000020030000000003000000AE014A0149
:100790005E012C0164010200000001000A019A01BF
:1007A000001E0A0000000000000000000001000020
:1007B000000500000102030000000000000000002E
:1007C00000000000000000000080070000000000A2
:1007D000040101006C160000000000000118000573
:1007E0000000280100000401F4011400E803640083
:1007F000040A000114001E00900100000000010026
:1008000000000000000000000000000000000000E8
:100810000000000020000301000020003200C8009A
:10082000D0079600140032002800B00440060005EE
:10083000500014000F0008006400010001000500D2
:100840000A000000C40900001900000000000000B8
:100850000000000000000000000000000000000098
:10086000000000000000000000000000013C390111
:100870000000000000000000000000000100000077
:100880000202000000000000000000000000000064
:100890000000000000000000000000000000000058
:1008A0000000000000000000000000000000000048
:1008B0000000000000000000000000000000000038
:1008C00001007E05EA05B4053200E803D007000008
:1008D000370000000804443000000000010101015D
:1008E000FFFFFFFF000000010000054B54563200DF
:0408F00000080000FC
:1008F4001A030000000000000000000000000000D7
:1009040000000000000000000000000004030904CF
:10091400120100020000004083042057000201027B
:1009240003010000000020004DD50008CD8500081B
:10093400C9850008C5850008A9940008C185000878
:10094400BD850008C4740508F1A70108AD89010834
:1009540031B30108000000000000000035B00108B8
:1009640051AF01080000000000000000000000007A
:10097400E584010865860008598600084D9A000838
:10098400699A000811860008319A0008159A00082F
:100994000068214C1F0000001C0000001F00000024
:1009A4001E0000001F0000001E0000001F000000C9
:1009B4001F0000001E0000001F0000001E000000B9
:1009C4001F000000FF01FF00000004010000000000
:1009D40000000002100000000700000000000000FA
:1009E400000000000102030406070809685E0C0009
:1009F400058B0108F1890108CDB50108000000004C
:100A04006D85010885B1010841890108FDB001081F
:100A1400000000000000000029850108BD840108D1
:100A2400B184010801A701081DA70108E5A6010872
:100A3400C9A60108ADA60108BD8A0108CD8901082F
:100A44000DB50108000000004185010801B101084D
:100A5400158901085DB001080000000000000000D5
:100A64003585010801000000A00F0000B80B00004C
:100A74000102FFFF01000000040309041201000247
:100A8400EF02014083045632000201020301000018
:100A940012010002020200408304405700020102D6
:100AA4000301000009022000010104C0320904000E
:100AB40000020806500507058102400000070501F1
:100AC4000240000009026400030100C0320904006E
:100AD4000001030000000921110100012226000782
:100AE40005830308000A080B01020202010009043D
:100AF4000100010202010005240010010524010087
:100B040002042402020524060102070582030800E8
:100B1400FF09040200020A00000007050102400068
:100B2400000705810240000009024300020100C0E1
:100B3400320904000001020201000524001001052D
:100B44002401000104240202052406000107058291
:100B5400030800FF09040100020A00000007050160
:100B6400024000000705810240000000FF00000071
:100B74001C840508000000000000000000000000C4
:100B84000000000000000000000000000000000061
:100B9400000000000000000000FFFF000000000053
:100BA400AA55050100000100F083050800000000BB
:100BB4000000000000000000000000000000000031
:100BC4000000000000000000000000000000000021
:100BD400FF1FFF1F05010905A101A100050109303F
:100BE40009310932093309350934094009381581B5
:100BF400257F750895088102C0C000000902220003
:100C0400010100E03209040000010301020009218E
:100C1400110100012226000705830308000A0000D1
:100C2400000000000102030401020304060708098E
:100C340095B2010899B10108F1B50108A985010827
:100C4400218B0108B9850108D58501088185010832
:100C54007185010800000000000000002D202D2DEA
:100C6400202D2D2D2D202D2D2D2D000000000000D8
:100C74000000000000000000000000AA550B010065
:100C840000AA5507010000AA550902000000AA5550
:100C940003009F0001000000C0120000485F002014
:100CA400000000006C5F0020000000000100000054
:100CB400ADF4010800000000448505082070002000
:100CC400702D7200FFFFFFFFD60101010001010139
:100CD400002D202D2D202D2D2D2D202D2D2D0000EE
:100CE4000000000000000000000000000000000000
:100CF4000000000000000000B89B05080000000090
:100D040000000000449C050801000000FA000000F7
:100D1400010000000100000001010000BE7200207B
:100D24000000F40101000000BC7200200000F40186
:100D340001000000BA7200200000F401010000006C
:100D4400B87200200000F40101000000B672002017
:100D54000000F40101000000B47200200000F4015E
:100D640001000000B27200200000F4010100000044
:100D7400C5FC010889FC0108B4890508AC7200208F
:100D840005320100AA720020E803D0070100000028
:100D9400A8720020E803D00701000000A67200201A
:100DA400E803D00701000000A47200201E00B80B65
:100DB40001000000A27200201E00F40101000000E6
:100DC400A07200201400640001000000AE72002034
:100DD4003200E803010000009E7200200000C800F9
:100DE400010000007272002000C80100717200202E
:100DF4000050010070720020005A01006E72002041
:100E040002000000408A05082C050608340506087F
:100E14002AE200200100C4090000000028E20020AA
:100E24000100C4090000000026E200200100C409FA
:100E34000000000024E200200100C40900000000BA
:100E440020E200200100C4090000000022E200208A
:100E54000100C409000000001EE200200100C409D2
:100E6400000000001CE200200100C4090000000092
:100E74002570002000C801002470002000C8010073
:100E8400227000200100C800010000002070002032
:100E940032003075320000001E700020055A050033
:100EA4001B70002000FF01001D70002001000000E5
:100EB400A0060020197000200300000058A20508B5
:100EC4001A70002000FF01001C70002001000000C7
:100ED400A0060020187000200300000058A2050896
:100EE40039FC0108E9FB01084C8A0508D07200208E
:100EF400EE02CA0801000000CE72002000C8010002
:100F040064000000CD72002000C8010064000000ED
:100F1400CC72002002000000108B05081270002023
:100F240080C1803E050000001070002080C1803E1A
:100F3400050000000A70002080C1803E050000000A
:100F44000870002080C1803E05000000037000206E
:100F540000FF0100FC6F00206400F40101000000A8
:100F6400FB6F0020040000001C8B0508FA6F0020B2
:100F740002000000308B05089B7000200D0000006B
:100F84003C8B0508987000200064010096700020D6
:100F9400320010270A000000957000200D000000A8
:100FA4003C8B0508947000200D0000003C8B050864
:100FB4009370002002000000748B050800000000FC
:100FC40000000000808B0508545A00209CFF2C016F
:100FD400000000003A750020E0150C170000000026
:100FE4003C75002002000000B88B0508DC7200206C
:100FF4000100FF7F01000000DB72002002000000FE
:10100400C48B05089D70002003000000D48B0508E4
:101014009C70002003000000D48B0508507200204F
:101024000000E803010000004E7200200000E80305
:10103400010000004C7200200000E80301000000E1
:101044004A7200200000E8030100000048720020FA
:101054000000E80301000000467200200000E803DD
:1010640001000000457200200014010044720020B9
:1010740003000000E48B05085C7200200000F4010A
:10108400010000005A7200200000F4010100000079
:10109400587200200000F401010000005672002084
:1010A4000000F40101000000547200200000803EA2
:1010B40001000000527200200000803E0100000088
:1010C400857200201964010084720020020000006F
:1010D400F48B050882720020E803D0070A000000A0
:1010E40080720020006401000A0000007572002074
:1010F4000064010074720020006401007C7200200E
:10110400006401000A0000007B72002000640100FA
:101114000A0000007A720020006401000A00000046
:101124007F720020006401000A0000007E7200202B
:10113400006401000A0000007D72002000640100C8
:101144000A0000007972002001FF01000A0000007B
:101154007872002001FF01000A000000777200206D
:1011640001FF01000A000000A67000200000F40145
:1011740001000000A47000200000F4010100000040
:10118400A27000200000F40101000000A070002003
:101194000000F401010000009E7000200000F40132
:1011A400010000006D720020006401006C720020D8
:1011B400006401006B720020006401006A72002068
:1011C400FF0801006972002001640100B5FA0108FA
:1011D40079FA0108008C0508687200200064010097
:1011E400667200201400E80301000000647200200D
:1011F400E80330750A0000006272002000C8010094
:101204006172002000C801006072002000C8010063
:101214005F720020006401000A0000009C7200203C
:101224000000D007010000009772002000C80100F0
:101234009672002000C801009572002000C80100C9
:101244009A7200200000D007010000009472002070
:1012540000C801009372002000C8010092720020AF
:1012640000C80100987200200000D00701000000AF
:101274009172002000C801009072002000C8010093
:101284008F72002000C8010000000000E9F7010887
:10129400708C050891700020360000000C8D050844
:1012A4009070002000C801008E700020E803D00771
:1012B400010000004B414B55544546345632000062
:1012C40017700020000301001670002000030100C5
:1012D40035F70108F9F60108E88D0508B5F60108A7
:1012E40069F60108588E050871F70108811702088C
:1012F400D88E050814700020010301002DFD01089B
:1013040001FD0108CC910508F9F50108B9F50108BA
:101314003C920508FFF7010849270208D8920508FE
:101324008D1302080000000080930508091B0208C1
:101334008DFD01081C94050851F801080000000007
:101344009C94050829F90108D5F8010800950508B9
:10135400B9F901087DF901089C950508F1FA01081D
:1013640039FB01081C960508737200200106010070
:1013740099F8010865F8010818970508F5F90108B6
:10138400E5170208889705086DFB01086D18020827
:10139400689805085E72002001030100B9F701088E
:1013A40089F701083C99050859FD0108000000006F
:1013B400A099050839F6010851170208049A05088E
:1013C4000000000000000000909A0508C1FB01081D
:1013D400E5180208109B0508F66F002088136F17A4
:1013E40001000000F86F002088136F170000000050
:1013F400CE4F00200000000000000000CC4F002071
:101404000000000000000000CA4F0020000000009F
:1014140000000000C84F0020000000000000000091
:10142400C64F00200000000000000000C44F002050
:101434000000000000000000300500200000000053
:1014440000000000CC6F002002000000989C0508FA
:10145400F46F002088136F1701000000945A0020D5
:1014640088136F17000000004DF50108000000000C
:10147400A49C05086E75002001000000F89C050876
:10148400965A002001000000049D05088C5A002093
:10149400020000000C9D0508000000000000000090
:1014A400189D050839F5010800000000B49D0508E1
:1014B4000000000000000000089E05080000000075
:1014C40000000000789E0508905A0020E0150C17D3
:1014D400000000000100000000000100E001000025
:1014E400FFFFFFFF0801FFFFFF00000000000000F6
:1014F400849E00200800000000000000749E00206C
:1015040008000000841A0608801F06088C1F0608BD
:10151400981F0608A41F0608B01F0608DC14060856
:10152400543A060838390608401F0608D4630608EA
:10153400701F0608741F0608781F06087C1F06081B
:10154400901A0608BC1F0608C01F0608A037060824
:10155400C41F06081900C800F40120030000803FDE
:10156400FFFFFFFF0000803F0000000000000000BC
:1015740000000000FFFFFFFFFF000000B80B0000A9
:10158400010000007D0000000000803F000000001A
:1015940000000000000000000000803F0000000088
:1015A4000000000000000000000000000000000037
:1015B4000000000000000000000000000000000027
:1015C4000000803F00000000000000000000000058
:1015D40001000000FFFF0000FFFFFFFFD45F0608CB
:1015E4000000080205030300DC5F0608010008028E
:1015F400050403005C2206080200FE01011003003A
:101604004C0906080300140200030000E45F060806
:1016140004001F0201000800EC5F060805001F0219
:101624000101080008000000AD840108A984010834
:10163400A58401089984010895840108A1840108FE
:101644009D84010801000000006002401060024017
:101654000000000000000000000B0000000000007B
:10166400000000000000000000600240286002400A
:101674000100000000000000060C00000000000053
:1016840000000000000000000060024040600240D2
:101694000200000000000000100D00000000000027
:1016A400000000000000000000600240586002409A
:1016B4000300000000000000160E000000000000FF
:1016C4000000000000000000006002407060024062
:1016D4000400000000000000200F000000000000D3
:1016E400000000000000000000600240886002402A
:1016F40005000000000000002610000000000000AB
:10170400000000000000000000600240A0600240F1
:10171400060000000000000030110000000000007E
:10172400000000000000000000600240B8600240B9
:101734000700000000000000362F00000000000039
:101744000000000000000000006402401064024039
:10175400000000000000000000380000000000004D
:101764000000000000000000006402402864024001
:101774000100000000000000063900000000000025
:1017840000000000000000000064024040640240C9
:101794000200000000000000103A000000000000F9
:1017A4000000000000000000006402405864024091
:1017B4000300000000000000163B000000000000D1
:1017C4000000000000000000006402407064024059
:1017D4000400000000000000203C000000000000A5
:1017E4000000000000000000006402408864024021
:1017F4000500000000000000264400000000000076
:10180400000000000000000000640240A0640240E8
:101814000600000000000000304500000000000049
:10182400000000000000000000640240B8640240B0
:101834000700000000000000364600000000000021
:101844000000000000000000706006086C1D06081F
:1018540000000000690A0308A086010004000000DB
:101864000000000000000000000000000000000074
:101874000000000000000000000000000000000064
:10188400000000000000000070600608E86306081D
:10189400000000001D0C0108E80300000400000023
:1018A4000000000000000000000000000000000034
:1018B4000000000000000000000000000000000024
:1018C40000000000000000008C0C06081C3806080C
:1018D40000000000FD7803087D0000000600000001
:1018E40000000000000000000000000000000000F4
:1018F40000000000000000000000000000000000E4
:101904000000000000000000C05F060800000000A6
:1019140000000000214F0108E8030000030000005C
:1019240000000000000000000000000000000000B3
:1019340000000000000000000000000000000000A3
:101944000000000000000000F06306080000000032
:1019540000000000017604081027000003000000C6
:101964000000000000000000000000000000000073
:101974000000000000000000000000000000000063
:101984000000000000000000E05F06080000000006
:10199400810704083D1901085F7600000500000076
:1019A4000000000000000000000000000000000033
:1019B4000000000000000000000000000000000023
:1019C400000000000000000074620608000000002F
:1019D40000000000457B0108102700000100000002
:1019E40000000000000000000000000000000000F3
:1019F40000000000000000000000000000000000E3
:101A04000000000000000000FC6306080000000065
:101A140000000000210C0108E8030000050000009C
:101A240000000000000000000000000000000000B2
:101A340000000000000000000000000000000000A2
:101A44000000000000000000086406080000000018
:101A54000000000035120308204E000003000000BF
:101A64000000000000000000000000000000000072
:101A74000000000000000000000000000000000062
:101A840000000000000000001864060800000000C8
:101A94000000000039100308204E0000030000007D
:101AA4000000000000000000000000000000000032
:101AB4000000000000000000000000000000000022
:101AC4000000000000000000286406080000000078
:101AD40000000000B5530108400D0300030000009E
:101AE40000000000000000000000000000000000F2
:101AF40000000000000000000000000000000000E2
:101B04000000000000000000181E0608000000008D
:101B140000000000614C01081027000001000000D3
:101B240000000000000000000000000000000000B1
:101B340000000000000000000000000000000000A1
:101B44000000000000000000A41A060800000000C5
:101B540000000000D1BF02081027000003000000AD
:101B64000000000000000000000000000000000071
:101B74000000000000000000000000000000000061
:101B840000000000000000003864060800000000A7
:101B9400000000006D8F0208A08601000100000013
:101BA4000000000000000000000000000000000031
:101BB4000000000000000000000000000000000021
:101BC4000000000000000000C45F060800000000E0
:101BD400000000003113010850C3000001000000A0
:101BE40000000000000000000000000000000000F1
:101BF40000000000000000000000000000000000E1
:101C04000000000000000000380806080000000082
:101C14000000000049100108A86100000100000054
:101C240000000000000000000000000000000000B0
:101C340000000000000000000000000000000000A0
:101C440000000000000000004064060800000000DE
:101C54000000000005010308A08601000100000047
:101C64000000000000000000000000000000000070
:101C74000000000000000000000000000000000060
:101C84000000000000000000381E060800000000EC
:101C940000000000A95C0108A00F00000100000082
:101CA4000000000000000000000000000000000030
:101CB4000000000000000000000000000000000020
:101CC40000000000000000004C6406080000000052
:101CD40000000000ADF00208102700000100000021
:101CE40000000000000000000000000000000000F0
:101CF40000000000000000000000000000000000E0
:101D04000000000000000000DC13060800000000D2
:101D14000000000049E902081A4100000100000027
:101D240000000000000000000000000000000000AF
:101D3400000000000000000000000000000000009F
:101D44000000000000000000F80706080000000082
:101D540000000000D98D01081027000001000000D8
:101D6400000000000000000000000000000000006F
:101D7400000000000000000000000000000000005F
:101D84000000000000000000801D060800000000A4
:101D940000000000D12E02081A41000001000000DA
:101DA400000000000000000000000000000000002F
:101DB400000000000000000000000000000000001F
:101DC4000000000000000000586406080000000045
:101DD4000000000041940108400D030000000000D1
:101DE40000000000000000000000000000000000EF
:101DF40000000000000000000000000000000000DF
:101E040000000000000000006064060800000000FC
:101E140000000000D90B0108400D03000000000081
:101E240000000000000000000000000000000000AE
:101E3400000000000000000000000000000000009E
:101E440000000000000000006864060800000000B4
:101E54000000000029FB020850C30000030000003A
:101E6400000000000000000000000000000000006E
:101E7400000000000000000000000000000000005E
:101E84000000000000000000746406080000000068
:101E940000000000AD0F030840420F0000000000E6
:101EA400000000000000000000000000000000002E
:101EB400000000000000000000000000000000001E
:101EC400000000000000000080640608000000001C
:101ED400000000002110010850C3000000000000B1
:101EE40000000000000000000000000000000000EE
:101EF40000000000000000000000000000000000DE
:0C1F040000000000000000000000803F12
:1080000003685A1C02601970704700BF2DE9F047E1
:10801000089C2578002B804689460CBF4FF0200A2B
:108020004FF0300A661C25B3002A26DD334601E0F6
:10803000024698B113F8011B501E0029F8D1971E73
:1080400060B13D46013D51464046C8476B1C002B80
:10805000F8DC257827EAE770013045B1041B294692
:108060004046C847301916F8015B002DF7D1BDE82E
:10807000F087002A03DC2846F9E70020EEE7571EC8
:10808000DFE700BF2DE9F04714461D4606464FF4D2
:108090007A720023204629464DF0D6FA4D4BDFF880
:1080A00048814D4A4D4F034488FB03101844D917AB
:1080B00082FB032CC1EB601088FB002887FB0327A1
:1080C0009C44474AC1EBEC2CC0EB001E82FB0C2900
:1080D000A3EB8E0E1F44434A86F806E0C1EB274708
:1080E0004FEAEC7E08EB000ACEEBA90E82FB07827A
:1080F0004FEAE0780EEB4E0EC8EB6A18ACEBCE0CF4
:10810000C8EB0818DFF8E4E086F804C0A0EB8800AC
:1081100070718EFB0303F817C0EBE21240F2B5500A
:1081200000FB1272C1EBE353B2F5896F4FEA83078C
:108130003CDA40F2DA239A4242DCB2F5B77FB4BFB0
:108140004FF0000E4FF0010E4FEA4E09DFF8A0800D
:1081500009EB0E0308EBC3031FFA8EFCD88A09EB68
:108160000E0108EBC10116310B2301E031F8020DBD
:10817000904218DD013BF9D1CE44012338F83E008E
:10818000B37007F5FA670132121ABC44F270A6F810
:1081900000C0204629464FF47A7200234DF054FA6D
:1081A0003281BDE8F0870133DBB2E9E74FF0030C21
:1081B000E64640F29650DFF838804FF00609CEE7E9
:1081C0004FF0020CDFF82880E64640F229404FF0DD
:1081D0000409C4E780BC92C7C5B3A29107452EC26B
:1081E000ABAAAA2A73B06D1689888888792D0311E5
:1081F000787205080028F0B403DA2D230B70404292
:108200000131092804464FF0010307DD03EB830326
:108210005B00B0FBF3F2092AF8D883B10F48A0FB4A
:108220000326B4FBF3F2092A02F1570C02F13007DE
:1082300009DD03FB1244F30801F801CBEFD1002361
:108240000B70F0BC704703FB1244F30801F8017B8C
:10825000E5D100230B70F0BC704700BFCDCCCCCC77
:10826000884270B44FF0010442D301FB04F4B0FB28
:10827000F4F58D42F9D2ECB142BB092D04FB150097
:1082800005F1570605F130020EDDB4FBF1F403F8F9
:10829000016B7CB1B0FBF4F5092D04FB150005F171
:1082A000570605F13002F0DCB4FBF1F403F8012BC2
:1082B000002CEFD100221A7070BC704703F8016BDC
:1082C000B4FBF1F4002CF5D0B0FBF4F5092D04FB60
:1082D000150005F1370605F13002EFDCB4FBF1F4CF
:1082E00003F8012B002CEFD100221A7070BC7047EC
:1082F0000546002AEAD1C0E790ED057A90ED004AE4
:10830000D0ED066AD0ED014AD0ED047A90ED035A23
:10831000D0ED025AA4EE007AB0EE406AB0EE470A01
:10832000B0EE667AA4EE867A67EEC07AA5EE407A61
:10833000E5EE867A80ED057AC0ED067A704700BFDB
:10834000D0ED057A90ED013AD0ED003AD0ED064A35
:1083500090ED024A90ED077A90ED035A90ED086A8D
:10836000D0ED045AC0ED067AF0EE406A27EE830A9B
:10837000C0ED056AA3EEA60A80ED087AA4EE240AF1
:10838000A5EE470AA5EEC60A80ED070A704700BFB2
:10839000D0ED007A90ED017A30EE670AE7EE007AD0
:1083A000B0EE670AC0ED007A704700BF704700BFAB
:1083B00030B434220023352504240221C270012266
:1083C0008571C4710370C3728373C373417041724A
:1083D00082700272827230BC704700BF0023062197
:1083E0004FF47A720170C0E901230373704700BF34
:1083F00030B43323322231254FF47F44FF214370C0
:10840000427101230022C5700482817403720370DB
:108410000371837042818281C28130BC704700BF8A
:108420002DE9F04F3149324B83B001F1C00B01907F
:1084300037274FF000092F481022012603E0203093
:1084400098420BD002799742F9D102680C68A24297
:1084500009D02030984206F10106F3D12031594568
:108460003AD00F79E7E744794D79A542F1D19446A6
:10847000019A214809EB490502EB050A57558AF88C
:10848000016000F572751D4E624603E0A8421AD0E5
:1084900050F82C6FB242F9D10679A642F6D1CF68D6
:1084A00006464FF0000C96468046F268BA4216D057
:1084B0000CF1010CBCF1030F06F10C06F5D140469E
:1084C000A8427246E4D14FF0FF3C203159458AF86A
:1084D00002C009F10109C4D103B0BDE8F08F0869F9
:1084E00032698242E4D14FFA8CFCEEE78CB4050885
:1084F0005CE405089CDA05085CE40508000001401E
:1085000030B41522162317253A243B2102704370FC
:108510003C22FF2385708472C1720273C3700371A1
:10852000037243724373837330BC704710B42E21BF
:10853000012403220023047041708270C3705DF82F
:10854000044B704770B4034600F11001FF221A700B
:108550005A7002338B42FAD10E4B00224FF0FF319A
:1085600003F10C0600EB42050C469E4200F8124057
:1085700069700CD093F9044093F9051013F8032F98
:1085800000EB42059E4200F812406970F2D170BCC7
:10859000704700BFD872050830B41D6995420AD3F0
:1085A00014460A4621448D42996938BF2A1B21444A
:1085B00030BC4DF0E7BA30BC704700BF00207047B8
:1085C0000120704701207047002070474FF4007071
:1085D000024B10609B680B6000207047B0C2002007
:1085E000013A30B4D2B28C1C04EB42040025020FD5
:1085F000092AD3B203F130028ABF37330A700B70F5
:108600004D7002318C424FEA0010F0D130BC7047FF
:108610000B4A0C4B10681B681A22C0180A8001D143
:108620000948704710B5094B09491C680822FFF733
:10863000D7FF204604220749FFF7D2FF024810BDAA
:10864000E8F7FF1FECF7FF1F88010020EAF7FF1F84
:108650008A0100209A01002004230B800048704703
:10866000A401002012230B8000487047A8010020BD
:108670002322032302704370704700BF0830704705
:10868000704700BF816170476D4B2DE9F04F1C684A
:108690006C4BB3F80AE0B3F804809A894FEA0E2ACB
:1086A000B4EB0A044FEA1E6B4FF0000587B065EB90
:1086B0000B05CDE900450746009C1889019EA0FBEB
:1086C000044500FB0655E00940EA45604FEA0844CE
:1086D0008C46E9114FEA184510EB0408D888009C35
:1086E00041EB0509CDE90489A0FB0445B3F80280FC
:1086F00000FB0655200A40EA05604FEAC8342912FB
:108700004FEA584510EB040841EB05090099A2FB1C
:10871000010102FB06114FEAD05A4AEA412A1AF532
:10872000FA634FEAE15B4BF10004B3F5FA6FCDE970
:10873000023474F10003424E64DA0524AAFB0401FA
:1087400004FB0B1100FB0BF40AFB0144DDE90423DD
:10875000A0FB0A0121444D104FEA3004121B4FEADE
:10876000900463EB050344EA8174B8EB0408CDE997
:108770000423DDE9023434484FEAA10569EB050919
:108780004FF0FF31834274EB010326DA40F6AC5020
:108790001AEB00024FF000014BEB010302FB03F167
:1087A000A2FB022303EB4103D400DD00101B45EACA
:1087B000527563EB0501DDE9044524184D41CDE90F
:1087C00004450B24A2FB040104FB031149104FEAEA
:1087D0003000B8EB000869EB0109DDE900325343D2
:1087E000009ADDE90201A2FB02AB0BEB430B4FEA5F
:1087F000DA7242EA4B02801A4FEAEB7361EB030133
:10880000CDE9020197B17168A1FB082301FB09338F
:10881000540D5D1544EAC324DDE90423A21A65EB77
:1088200003031D46D30B43EA45433B60BCF1000FF5
:1088300002D0029BCCF8003007B0BDE8F08F00BF3B
:10884000A8170020B079002024FAFFFF2DE9F04F8F
:10885000DFF8DCC1754CDCF808502288B4F90AA0B6
:10886000C2EB25135200C2EBE502B4F902505B43A0
:108870006A43B4F904501B135D43AD1305EBE225C5
:10888000B5F5FA324FEAE57B85B04BF1FF33CDE920
:108890000023DDE900325343009AA561A2FB02895F
:1088A000CDE90201B4F908200199009809EB4309C8
:1088B0005143D31700FB0311A2FB00230B444FEAE3
:1088C000EA7B0AFB09F11F0308FB0B13AAFB080153
:1088D00019444FEA102A4AEA016A16034FEA212B8B
:1088E00047EA12571AEB0602E6884BEB070312F130
:1088F000000A43F5004BAAFB060106FB0B114A10C8
:10890000CB1752EA030100F08E80B4F91060009892
:1089100006FB09F1F71708FB0711A6FB08673944A6
:10892000B4F90E808B4601994FEAE87908FB01F112
:1089300000FB0911A8FB00898944DCF80C104FEA00
:108940004947C1F5801C47EAD837B2464FEA484646
:10895000B4F90C801AEB060A66464BEB070BF717C7
:108960004FEAC806019600260096F907DDE9006780
:108970004FEACC7016EB0A0647EB0B0741EA5C01A5
:10898000801B61EB070140F6354C8946A0FB0C01CA
:108990000CFB09114CF058FEB4F91620B4F914A0E0
:1089A0004E13470B47EAC14702FB06FCD31707FBF0
:1089B00003CCA2FB07236344564307FB0366A2FBD9
:1089C00007233344560E46EAC31632184FEA63674C
:1089D00047EB010380460AFB01F14FEAEA7B08FB03
:1089E0000B17AAFB08013944C60C46EA413612EBC4
:1089F00006084FEAE147B4F9122043EB07094FEAB2
:108A0000182141EA096113010B44029A0AB11B0AB9
:108A10001360039B23B105EB850580352D121D6086
:108A200005B0BDE8F08F0023EFE700BFC479002058
:108A3000A817002070477047012380F85030704716
:108A40004FF4006303837047F0B4037C4569026808
:108A50001F2B37D9203B2021546899400C4223D04A
:108A600010249C40D160D4605168D940CE074ED4C8
:108A7000EFF31183502282F31288EA6B1168C90761
:108A800009D45468002C52D1D5E909618E4243D1F2
:108A9000012285F86020DBB283F31188037C026831
:108AA0001F2B194614D9203B0821506899400842D1
:108AB00000D0D1600421506801FA03F3184223D199
:108AC000F0BC7047202416689C4026420FD11946FE
:108AD000082310688B40184200D09360042310686C
:108AE00003FA01F10842EBD09160F0BC704710210D
:108AF0009940946091601168D940CC07B8D50121A4
:108B000001FA03F39360B3E7D360F0BC704701212F
:108B100001FA03F3D360ABE7AF690F44D7600ED817
:108B20002E69711A5160AC62002185F860101168DD
:108B300041F00101DBB2116083F31188AEE7711AD5
:108B40005160AE62F0E700BFF0B4B34BB3491A789E
:108B50000B789A4240F00781B14B1A78002A68D00E
:108B6000B04B1978B04B002965D11868B3F8305173
:108B700041628489012A44EA05048481A3F8301102
:108B800057D0D3F83401B3F8645241628489022A81
:108B900044EA05048481A3F864124AD0D3F8680239
:108BA000B3F8985341628489032A44EA0504848116
:108BB000A3F898133DD0D3F89C03B3F8CC5441628A
:108BC0008489042A44EA05048481A3F8CC1430D0B3
:108BD000D3F8D004B3F8005641628489052A44EAE8
:108BE00005048481A3F8001623D0D3F80406B3F853
:108BF000345741628489062A44EA05048481A3F833
:108C0000341716D0D3F83807B3F86858416284890E
:108C1000072A44EA05048481A3F8681809D0D3F828
:108C20006C28B3F89C495162908920439081A3F845
:108C30009C19F0BC70475C681989616025681868E8
:108C400045F0010540F20D312560A0F848108489F7
:108C5000012A44F480748481EBD0D3F83841B3F80E
:108C60003C51D3F834016560256845F00105256065
:108C7000A0F848108489022A44F480748481D8D0F2
:108C8000D3F86C42B3F87052D3F868026560256877
:108C900045F001052560A0F848108489032A44F4B2
:108CA00080748481C5D0D3F8A043B3F8A453D3F81B
:108CB0009C036560256845F001052560A0F8481013
:108CC0008489042A44F480748481B2D0D3F8D444D3
:108CD000B3F8D854D3F8D0046560256845F0010591
:108CE0002560A0F848108489052A44F480748481A2
:108CF0009FD0D3F80846B3F80C56D3F80406656045
:108D0000256845F001052560A0F848108489062AE9
:108D100044F4807484818CD0D3F83C47B3F8405736
:108D2000D3F838076560256845F001052560A0F88F
:108D300048108489072A44F4807484813FF479AF11
:108D4000D3F87028B3F87408D3F86C385060106802
:108D500040F001001060A3F848109A8942F4807234
:108D60009A81F0BC70475C00E618304D15F836600B
:108D7000032E3FF6F1AEDFE806F05D261C02E01898
:108D800005EBC0004468661E012C46603FF651AFFB
:108D9000013303F00303D8B2824208703FF4DCAE23
:108DA00003EB4303DB00EA1802200021E854516082
:108DB0003FE7E11805EBC1014868461E01284E60F7
:108DC0003FF637AF0DE0E118C90068184668771E16
:108DD000012E47603FF62DAF02274FF0FF366F544C
:108DE0004660E618F600AF191148397B0068013972
:108DF000C9B23973002940D04FF47A722344B2FBD0
:108E0000F0F200FB02F0B0F57A7F05EBC30518BF66
:108E100001326A60A0E600BF00A1002001A100208D
:108E2000B4320010B032001088D6002004A1002017
:108E30001C0E002070B11D49012600220F8901324D
:108E4000002F18BF0026904201F5B271F6D1002E16
:108E50003FF482AE164A126842F21076E018B6FB72
:108E6000F2F102FB1162012605F8306002B13144D3
:108E7000234405EBC30569606EE6BF68B7FBF0F1FC
:108E800000FB11700327AF5500B101311C440133C1
:108E900005EBC40503F00303934269603FF45CAE45
:108EA00000293FF459AE0139696055E668CB0020CE
:108EB0001C0E002010B5027C01681F2A4FF0200311
:108EC0000ED94C68203A93401C4208D00B4A4068A7
:108ED00000241470026822F001020260CB6010BD11
:108EE0000C6893401C42FAD0044A40680024147075
:108EF000026822F0010202608B60F0E70B8900201B
:108F00002DE9F041C40023189B00B749CA585268A4
:108F1000958AADB2EFB2FE070B4461D4BE0737D5D8
:108F2000BFF35F8F1D7EEDB2012D00F0BB80AF4E11
:108F3000138BBFF35F8F231801EB83031D7E022D7C
:108F400000F0CE80231801EB83031D7E032D05D195
:108F50009B7E1BB1737C002B40F01A81938896F99D
:108F600010C043F480639380231801EB83031B7EBE
:108F7000013363450AD1B37C00257574002B40F0A2
:108F80008A80204401EB800000234375BDE8F08116
:108F9000964E17F0040F96F910C04DD117F0400708
:108FA00000F0B280178A1D6AFFB205F80C705FFAF4
:108FB0008CF56F1C93F818E07BB2DF1CBE45337450
:108FC0009C4600F00981271801EB87073F7EBB42D2
:108FD000CAD105F1020C4FFA8CFC86F810C0C3E729
:108FE0001588824E25F400652D042D0C15801588FA
:108FF00045F4806515809D7E00273774002D3DD097
:10900000757C002D37D0231801EB830301251B7ECF
:109010007574022B03D1138843F400631380231863
:1090200001EB83039B7D43F001031382204401EB9A
:109030008000037EBDE8F0819F7E757C4FF0010EBD
:1090400086F812E0002F5CD0002D78D1231801EBB8
:1090500083035B7E002B00F0A48013880CF1010CCD
:109060004FFA8CFC43F4007386F810C01380138809
:10907000DF05FCD478E7DB7DFF2BC4D0231801EBA0
:1090800083039D7D05F0FE051582DB7DFF2BCDD092
:10909000FF233374CAE7938823F440731B041B0C2B
:1090A00093806EE79B7E514E002B3FF441AF737C63
:1090B000002B3FF43DAF138823F480631B041B0C8B
:1090C0001380BFF35F8F138B1388B57443F4007361
:1090D0001380938896F910C043F48063938043E72C
:1090E0009B7E002B3FF42EAF737C002B3FF42AAF06
:1090F000138896F910C023F480631B041B0C1380A3
:1091000016E0002DA2D0A8E72D067FF52DAFBCF10B
:10911000FF3F6DD0DD6915F80C5015820CF1010C84
:109120001D7E4FFA8CF39D429C4633747FF41CAF36
:10913000938823F480631B041B0C938014E71F7E29
:10914000D3F820805FFA8CF5AE44022F4FFA8EFEE2
:1091500017882DD927F480673F043F0C1780178AA2
:10916000FFB208F80C701788D3F820C047F40073DA
:109170001380138ADBB20CF80E30938805F1020CD1
:109180004FFA8CFC43F4806386F810C093806EE73E
:10919000938896F910C023F480631B041B0C938002
:1091A000E2E61388012543F48073138075745EE74B
:1091B00047F400771780178AFFB208F80C70178AF7
:1091C000D3F8208005F1030C4FFA8CFCFBB286F833
:1091D00010C008F80E304AE7978827F480673F04EC
:1091E0003F0C9780EFE600BFBC9D0020A817002031
:1091F000DD7D15829D7E37741DB91B7E002B7FF4AB
:1092000015AF938823F480631B041B0C93800DE738
:1092100044F024B838B51D4B1B78044600F12505F1
:1092200093B104221A4920304EF010F82846142237
:1092300018494EF00BF8012384F83A30164B1B788E
:1092400073B984F83B3038BD2846142213494DF0D9
:10925000FDFF012384F83A300F4B1B78002BF0D030
:109260000F4B186859689A68DD68E5602060616096
:10927000A260DD69186959699A69A2610123E561F3
:109280002061616184F83B3038BD00BF659D0020DE
:10929000349D00201C9D0020669D002048F005089C
:1092A0003C9D0020014B186843F028B87C44002006
:1092B00010B42921282401220023047041708270F7
:1092C000C3705DF8044B70472DE9F84FDDE90A647F
:1092D0008946174600212022984605464DF078FF22
:1092E0005EB1D6E900327189EB81C3F30F432B8263
:1092F000C2F30F43EA822B83698248464BF0AEFCEF
:1093000017F0100B10D1431E70B119F803202E2A4C
:1093100018BF09EB030104D14AE011F8016D2E2EAC
:109320003ED013F1FF33F8D208280246CA46A8BF40
:1093300008224FF0000B4FF020336B602B60C5F814
:1093400007304946284605F108064CF01BFC5A46F2
:10935000514630464CF016FC6B1EE81D13F8012FE9
:10936000A2F1610119299CBF203A1A708342F5D1FC
:1093700005F10B0116F8013BA3F16102192A9CBF0C
:10938000203B06F8013CB142F4D11823C8F30F4248
:10939000EF722B73A5F81A80AA82EC61BDE8F88FF2
:1093A000C01A00F1FF3BBBF1030FA8BF4FF0030B46
:1093B000082B03F1010AA8BF0823CA441A46BAE7DA
:1093C00038B5302200214DF003FF0346642440F2FB
:1093D000DC5040F21A4140F26C7240F202251C74DB
:1093E0005882132419209982DA8240F2753140F6AE
:1093F00043021D839C760E250A241877D9831E20EC
:1094000002211A84012283F82E00197283F82C108D
:1094100083F8225083F82D409A7383F8252083F82F
:109420002B2019460248BDE8384038F0CFBA00BFBB
:1094300054F0050810B50021044601200AF0DCFBB9
:10944000207010BD38B500240472451EE1B2022020
:109450000AF0D2FB0134082C05F8010FF6D138BD13
:1094600038B500240546048021462846013427F0FB
:1094700049F8082CF8D1002185F8E210A5F8E4108D
:10948000A5F8E610A5F8E810A5F8EA10A5F8EC1084
:10949000A5F8EE10A5F8F010A5F8F2102846BDE8E2
:1094A000384026F0F1BF00BF2DE9F04F002087B013
:1094B0000C461D460121924643F082F9002D63D0EF
:1094C00005EB0A03DFF8D094DFF8D0B403935546D8
:1094D0001CE0002D00F0C581D9F81430AB4264D0F7
:1094E000D9F81030AB4200F09780D9E90631AB4291
:1094F00052D8A94200F26F81691A204647F0DCFF7A
:10950000039B01359D4204F500743DD0D9F82060DD
:10951000AE42DED8D9F83080AE1B4FEAD60AD8F872
:1095200030300AF1020A9A4506F0070603D3D8F84C
:1095300038309A4509D94146504647F08DFF80465C
:10954000002800F04D81C9F8300098F80430002B55
:1095500040F0E280D8F82870002F00F0DF81D8F8C2
:109560003030D8F80C20AAEB030A06EBCA0A4346AF
:10957000204602EB4A224FF40071B847039B0135A5
:109580009D4204F50074C1D10021084643F018F94A
:10959000002007B0BDE8F08FA942ADD94FF40072AA
:1095A000002120464DF014FEAAE7522261204123FB
:1095B000002622706270A070722284F8E70184F89D
:1095C000E631D9F82800E3704FF0FF33314684F8D4
:1095D000E42184F8E521C4F8E8014FF4F07284F83E
:1095E000EC3184F8ED3184F8EE3184F8EF31201D50
:1095F0004DF0EEFD55216FF05502C4F8F061C4F84E
:10960000F461C4F8F86184F8FC6184F8FD6184F8C1
:10961000FE1184F8FF2173E74FF400720021204609
:109620004DF0D6FDD44BD54F03CBEB230222237054
:109630004FF0080C9026F8234FF0580EC4F80300A2
:10964000227484F80DC0C4F8071084F801E0A670F5
:109650006375D9F81010D9F80830D9F81C60227356
:10966000591A21624FF0FF3100233F20A1763E219D
:10967000A273E372E3736374A374E3742375A37535
:10968000E3756376E3766377A377E37720762177D4
:1096900084F82C2007CFD9F8187084F82830F61BEE
:1096A00084F8293084F82A3084F82B3084F82D305F
:1096B00084F82E3084F82F3084F8313084F832303A
:1096C00084F8333080236662C4F8470004F147060B
:1096D00084F8403029209423A94F84F846C084F8A8
:1096E000420084F843300E200D234FF0010C84F823
:1096F000440084F8453084F830C0716003CF3346AD
:109700005527AA269A60C4F85200C4F8561084F867
:10971000FE7184F8FF61F3E64FF4007200212046E9
:109720004DF056FDD8F84030002E61D104F12007ED
:10973000002B77D0D8F8303092491122CDE900665D
:109740002046FFF7C1FDD8F840301A6C04F1400AFA
:10975000002A79D01B6B8C49CDE90066384611226E
:10976000FFF7B2FDD8F84460002E3FF4C9AE4FF4C5
:10977000E078CDE904450CE00024CDE900C4FFF712
:10978000A3FDB66CBA46A8F120080EB3B8F11F0FBE
:109790001ED93468356B96F804E011222B46214619
:1097A00050460AF1200706F11C0CBEF1000FE3D170
:1097B00072793369019342F021022B46CDF800C043
:1097C000FFF782FDB66CBA46A8F12008002EDDD165
:1097D000DDE9044594E6E91A204647F06DFE8FE680
:1097E000231F04F5FE7243F804BF9A42FBD187E6BB
:1097F000002BD8F844200CBF01230223C3EB06132F
:10980000002A3FF47DAE966C013B002E3FF478AE0B
:10981000013BB66CF9D1002E3FF472AEA2464FF474
:109820000078A6E7CDE900663346D9F80C10082287
:109830002046FFF749FDD8F84460002E3FF460AEA3
:10984000BA464FF4F07894E7CDE9006633463846DF
:1098500011224D49FFF738FDD8F84460002E86D11B
:109860004EE64FF40072294620464DF0B1FC8022AE
:109870000C2384F8BE2184F8C231D9F81000434B80
:10988000D9F8086084F8B85183FB0032C117C1EBE6
:109890002232B2F5806F84F8B95184F8BA5184F855
:1098A000BB5184F8BC5184F8BD51C4F8C601C4F85A
:1098B000CA6142DBFF2384F8BF3184F8C13184F8E8
:1098C000C031324B711E83FB0132CE17C6EB223200
:1098D000B2F5806F29DA2E4B84F8C52183FB010392
:1098E0000B442C48C6EB6313C3EB831680FB037059
:1098F000891B1844DE17921022F03F020131C6EB9B
:10990000E0100A43034484F8C42184F8C33155228B
:10991000AA2384F8FE2184F8FF31F1E539464FF49B
:10992000007220464DF054FCEAE5FF2384F8C33171
:1099300084F8C53184F8C431E9E7154B84F8C121B6
:1099400083FB00730344134FC1EB631387FB0317BF
:10995000C3EB831C9110A0EB0C02F818DF1721F069
:109960003F010132C7EBE0100A43034484F8C021F1
:1099700084F8BF31A5E700BF68F0050874F005085A
:1099800084F0050860F0050864F005089755454126
:109990008320088281808080B0C20020DEADBEEFCF
:1099A00008B5012012F070F9174A936803F00C0310
:1099B000042B1ED0082B18D151685368490203F0BC
:1099C0003F0319D452681148B0FBF3F0C2F3881377
:1099D00000FB03F00C4B0E4A5B68C3F301430133F9
:1099E0005B00B0FBF3F0106008BD094B074A1A603A
:1099F00008BD074B186008BDB0FBF3F05368C3F314
:109A0000881300FB03F0E5E7003802400024F4006F
:109A1000E0B1002010B5044C04480A46214610F07D
:109A20001FFE204610BD00BFBC17002090F00508A7
:109A300010B5044C04480A46214610F011FE204699
:109A400010BD00BFBC170020A0F0050810B5044CE5
:109A500004480A46214610F003FE204610BD00BF10
:109A6000BC170020ACF005080A4608B5054920B12E
:109A7000054810F0F5FD034808BD044810F0F0FD5E
:109A8000004808BDBC170020D8F00508C0F0050844
:109A900008B5838940F2E93300E0A3B10289013BB4
:109AA00012F0020F9BB2F8D089B2818140F2E93303
:109AB00000E043B10289013B12F0010F9BB2F8D0E4
:109AC0008089C0B208BD43F0B9F9C0B208BD00BF7B
:109AD0002DE9F04F9F4985B091F81331019040680E
:109AE000002B00F0478103889B4A23F040031B04AE
:109AF0001B0C0380038823F038031B0490424FEAB9
:109B0000134300F0248102F5806290420CBF3022A2
:109B1000382213430380019B02889B6842F0400275
:109B2000028013B11A689B885383838940F2E9331A
:109B300002E0002B00F052810289013B12F0020F7B
:109B40009BB2F6D06B23838140F2E93302E0002B15
:109B500000F044810289013B12F0010F9BB2F6D064
:109B60008389838940F2E93302E0002B00F03381DE
:109B70000289013B12F0020F9BB2F6D08023838151
:109B800040F2E93302E0002B00F025810289013B1D
:109B900012F0010F9BB2F6D08389019B9B6813B131
:109BA0001A689B88138315236C4CDFF8BC916C4DAD
:109BB000DFF8B8A103939623DFF8B481694E0093D0
:109BC0000AF016FF4FF47A774FF0100C4FF0010EA9
:109BD000D8F80430C3F30803002B40F09080EFF373
:109BE0001183002B40F08B802368A9682268934280
:109BF000FAD132689142F7D8D9F8002007FB02FB6E
:109C0000ABEB0101B1FBF2F107FB03131B1AB3F538
:109C10007A7FDDD3009B013B0093D1D1019B9B68F0
:109C200013B11A689B885383019B586840F2E9334B
:109C3000828902E0002B00F0BC800289013B12F017
:109C4000020F9BB2F6D0F523838140F2E93302E0A4
:109C5000002B00F0AE800289013B12F0010F9BB295
:109C6000F6D08389838940F2E93301E0002B65D087
:109C70000289013B12F0020F9BB2F7D0FF238381D0
:109C800040F2E93301E0002B58D00289013B12F089
:109C9000010F9BB2F7D08389DBB20293019B9B68D3
:109CA00013B11A689B881383029B982B00F088805D
:109CB00049D9AC2B45D0AF2B40F084800920019BC3
:109CC00025495B681A8822F040021204120C1A809F
:109CD0001A8822F0380212048B424FEA12426DD0E9
:109CE00001F580618B420CBF082110210A431A80C4
:109CF0001A8842F040021A8005B0BDE8F08FEFF3F9
:109D000011818CF31288D5F808B02B68DB0344BFAF
:109D1000CAF800E0D5F808B02368DAF80020C9B224
:109D200081F31188D9F80010134407FB01F2A2EB6C
:109D30000B02B2FBF1F207FB032367E743F07EF867
:109D4000ACE70720BBE7122B3CD10820B7E7302255
:109D5000DFE600BFA8170020003800400CBC002040
:109D600010E000E014BC002010BC002008BC002063
:109D700000ED00E003881D4A23F040031B041B0C88
:109D80000380038823F038031B0490424FEA1343F7
:109D900029D002F5806290420CBF082210221343A2
:109DA00003800388012243F04003038081F81321DC
:109DB00099E643F043F8019B586853E7082195E77B
:109DC0000B207CE7039B013B13F0FF0303937FF41D
:109DD000F2AE039890E743F031F8DEE643F02EF858
:109DE000019B5868BDE60822D9E700BF0038004053
:109DF000F0B5876983B0064617B13B68BA885A83C5
:109E00007069DFF8A8E08389C3244FF47A734FF0B8
:109E1000060C6D464FF6FF710EF1010E03E0013B9B
:109E20009BB28B4220D002899207F8D5A3B28381DE
:109E30004FF47A7302E0A3B28B4215D00289D207A5
:109E400003F1FF34F7D5828992B20DB12A70013542
:109E5000BCF1000F0BD00CF1FF3CFF24BEF1000F52
:109E6000E1D09EF80040D7E742F0E8FFB76917B1AC
:109E70003B68BA881A839DF805009DF801509DF84B
:109E800002109DF803409DF804209DF8063041EA39
:109E9000052143EA002342EA04220120A6F85010DB
:109EA000A6F85220A6F8543003B0F0BDE8720508B9
:109EB00010B500F10C0400222121204643F0EAF8FD
:109EC000FC222021204643F0E5F8402224212046B0
:109ED00043F0E0F80C222321204643F0DBF8002277
:109EE0002221204643F0D6F864200BF02BFC012001
:109EF00010BD10B500F10C0401220B21204643F0E7
:109F0000C9F820B11D220921204643F0C3F800F012
:109F1000010010BD10B500F10C0470220021204694
:109F200043F0B8F820220121204643F0B3F8002284
:109F30000221204643F0AEF864200BF003FC012020
:109F400010BD0122482143F0A5B80122582143F059
:109F5000A1B83122F42143F09DB813B506230C4675
:109F60006A4628210C3042F091FFF0B19DF8013093
:109F70009DF8002042EA032204219DF8033012B22A
:109F800092FBF1F222809DF8022042EA032212B2F3
:109F90009DF8043092FBF1F262809DF8052043EABF
:109FA00002231BB293FBF1F3A38002B010BD7FB577
:109FB000002500F10C060C460D804D808D8001239C
:109FC0000DF107020621304642F060FF10B9002073
:109FD00004B070BD9DF807305B07F8D5062302AAD0
:109FE0002946304642F052FF0028F0D09DF8092063
:109FF0009DF8083043EA022323809DF80B209DF84A
:10A000000A3043EA022363809DF80D209DF80C304E
:10A0100043EA0223A380DBE713B506230C466A4616
:10A0200003210C3042F032FFA0B19DF800209DF8D2
:10A03000013043EA022323809DF802209DF803307B
:10A0400043EA0223A3809DF804209DF8053043EAEB
:10A050000223638002B010BD07B5032301AA0021CB
:10A0600042F014FF9DF805309DF804001B0243EAFE
:10A0700000439DF80600184303B05DF804FB08B5E3
:10A08000FFF7EAFF014B586008BD00BFA81700208A
:10A0900008B5FFF7E1FF014B186008BDA8170020C5
:10A0A00007B506236A46F72142F0F0FE9DF801301D
:10A0B0009DF800100B4A1B0143EA01339DF8021082
:10A0C00043EA1113D3609DF804309DF803101B017F
:10A0D00043EA01339DF8051043EA1113936003B07E
:10A0E0005DF804FBA817002070B582B00446062373
:10A0F0000C306A463B2142F0C9FEA8B19DF804002D
:10A100009DF800609DF801109DF802509DF8032015
:10A110009DF8053041EA062143EA002342EA052280
:10A120006183A283E383012002B070BD2DE9F04F6B
:10A1300085B090F861300090002B40F08587009B3F
:10A14000AC4A5869038823F040031B041B0C0380AE
:10A15000038823F038031B0490424FEA134301F0B5
:10A16000168002F5806290420CBF302238221343E1
:10A170000380009B02889B6942F04002028013B179
:10A180001A689B885383838940F2E93302E0002BED
:10A1900001F004800289013B12F0020F9BB2F6D05D
:10A1A0006B23838140F2E93302E0002B00F0F68755
:10A1B0000289013B12F0010F9BB2F6D0838983899B
:10A1C00040F2E93302E0002B01F012800289013BEA
:10A1D00012F0020F9BB2F6D08023838140F2E93364
:10A1E00002E0002B01F004800289013B12F0010F14
:10A1F0009BB2F6D08389009B9B6913B11A689B8838
:10A20000138364237C4C7D4EDFF8FCE17C48DFF84F
:10A21000FC817C4F01934FF01009DEF80430C3F34A
:10A220000803002B40F00186EFF31183002B40F070
:10A23000FC852568826823689D42FAD13B689A4272
:10A24000F7D8D6F800C04FF47A7101FB0CF39B1AD3
:10A25000B3FBFCF301FB05354FF47A7C4FF0010AA8
:10A26000DEF80430C3F30803002B40F0BF85EFF3A2
:10A270001183002B40F0BA852368816822689342DD
:10A28000FAD13A689142F7D832680CFB02FBABEB8B
:10A290000101B1FBF2F10CFB03135B1BB3F57A7FF9
:10A2A000DED3019B013B0193B7D1009B9B6913B1A6
:10A2B0001A689B885383009B586940F2E93382896E
:10A2C00002E0002B00F08E870289013B12F0020FA2
:10A2D0009BB2F6D06823838140F2E93302E0002B81
:10A2E00000F080870289013B12F0010F9BB2F6D08B
:10A2F0008389838940F2E93302E0002B00F06E8706
:10A300000289013B12F0020F9BB2F6D00323838136
:10A3100040F2E93302E0002B00F060870289013B44
:10A3200012F0010F9BB2F6D08389009B9B6913B199
:10A330001A689B8813836423DFF8CCE03048DFF889
:10A34000CC80304F01934FF01009DEF80430C3F396
:10A350000803002B40F0F085EFF31183002B40F051
:10A36000EB852568826823689D42FAD13B689A4252
:10A37000F7D8D6F800C04FF47A7101FB0CF39B1AA2
:10A38000B3FBFCF301FB05354FF47A7C4FF0010A77
:10A39000DEF80430C3F30803002B40F00885EFF328
:10A3A0001183002B40F00385236881682268934263
:10A3B000FAD13A689142F7D832680CFB02FBABEB5A
:10A3C0000101B1FBF2F10CFB03135B1BB3F57A7FC8
:10A3D000DED3019B013B0193B7D1009B9B6913B175
:10A3E0001A689B885383009B586940F2E93382893D
:10A3F00011E000BF003800400CBC002010BC002061
:10A4000010E000E014BC002000ED00E008BC0020DB
:10A41000002B00F0DD860289013B12F0020F9BB297
:10A42000F6D06B23838140F2E93302E0002B00F089
:10A43000CF860289013B12F0010F9BB2F6D08389CF
:10A44000838940F2E93302E0002B00F0BD860289E7
:10A45000013B12F0020F9BB2F6D00123838140F240
:10A46000E93302E0002B00F0AF860289013B12F0D5
:10A47000010F9BB2F6D08389009B9B6913B11A68C8
:10A480009B8813830F23DFF844E28E48DFF8408275
:10A490008D4F01934FF01009DEF80430C3F3080329
:10A4A000002B40F02785EFF31183002B40F022852D
:10A4B0002568826823689D42FAD13B689A42F7D8A2
:10A4C000D6F800C04FF47A7101FB0CF39B1AB3FB72
:10A4D000FCF301FB05354FF47A7C4FF0010ADEF8FE
:10A4E0000430C3F30803002B40F04284EFF31183E0
:10A4F000002B40F03D842368816822689342FAD1A2
:10A500003A689142F7D832680CFB02FBABEB0101D1
:10A51000B1FBF2F10CFB03135B1BB3F57A7FDED3C7
:10A52000019B013B0193B7D1009B9B6913B11A6852
:10A530009B885383009B586940F2E933828902E08B
:10A54000002B00F03B860289013B12F0020F9BB208
:10A55000F6D01B23838140F2E93302E0002B00F0A8
:10A560002D860289013B12F0010F9BB2F6D0838940
:10A57000838940F2E93302E0002B00F01B86028958
:10A58000013B12F0020F9BB2F6D01823838140F2F8
:10A59000E93302E0002B00F00D860289013B12F046
:10A5A000010F9BB2F6D08389009B9B6913B11A6897
:10A5B0009B8813830F23DFF814E14248DFF81081F2
:10A5C000414F01934FF01009DEF80430C3F3080344
:10A5D000002B40F06D84EFF31183002B40F0688472
:10A5E0002568826823689D42FAD13B689A42F7D871
:10A5F000D6F800C04FF47A7101FB0CF39B1AB3FB41
:10A60000FCF301FB05354FF47A7C4FF0010ADEF8CC
:10A610000430C3F30803002B40F08C83EFF3118365
:10A62000002B40F087832368816822689342FAD127
:10A630003A689142F7D832680CFB02FBABEB0101A0
:10A64000B1FBF2F10CFB03135B1BB3F57A7FDED396
:10A65000019B013B0193B7D1009B9B6913B11A6821
:10A660009B885383009B586940F2E933828902E05A
:10A67000002B00F099850289013B12F0020F9BB27A
:10A68000F6D01C23838140F2E93302E0002B00F076
:10A690008B850289013B12F0010F9BB2F6D08389B2
:10A6A000838940F2E93302E0002B00F073850289D0
:10A6B000013B12F0020F9BB2F6D01823838140F2C7
:10A6C000E9330AE010E000E014BC002000ED00E0F7
:10A6D00008BC0020002B00F05D850289013B12F0D0
:10A6E000010F9BB2F6D08389009B9B6913B11A6856
:10A6F0009B8813830F23DFF870E29948DFF86C82A0
:10A70000984F01934FF01009DEF80430C3F30803AB
:10A71000002B40F0AC83EFF31183002B40F0A783B4
:10A720002568826823689D42FAD13B689A42F7D82F
:10A73000D6F800C04FF47A7101FB0CF39B1AB3FBFF
:10A74000FCF301FB05354FF47A7C4FF0010ADEF88B
:10A750000430C3F30803002B40F0CE82EFF31183E3
:10A76000002B40F0C9822368816822689342FAD1A5
:10A770003A689142F7D832680CFB02FBABEB01015F
:10A78000B1FBF2F10CFB03135B1BB3F57A7FDED355
:10A79000019B013B0193B7D1009A92F85B30032BE8
:10A7A00000F24F8492F85E50012D0AD0022D40F045
:10A7B000488492F8633003F0FB03022B0CBF0025A2
:10A7C0000725009B9B6913B11A689B885383009BE4
:10A7D000586940F2E933828902E0002B00F02C85B1
:10A7E0000289013B12F0020F9BB2F6D01A2383813B
:10A7F00040F2E93302E0002B00F01E850289013BA4
:10A8000012F0010F9BB2F6D08389838940F2E933BD
:10A8100002E0002B00F00C850289013B12F0020FD0
:10A820009BB2F6D0858140F2E93302E0002B00F0C4
:10A83000FF840289013B12F0010F9BB2F6D083899D
:10A84000009B9B6913B11A689B8813830F23DFF861
:10A8500018E14348DFF81481424F01934FF010098B
:10A86000DEF80430C3F30803002B40F0C983EFF394
:10A870001183002B40F0C4832568826823689D42C1
:10A88000FAD13B689A42F7D8D6F800C04FF47A71F3
:10A8900001FB0CF39B1AB3FBFCF301FB05354FF4F2
:10A8A0007A7C4FF0010ADEF80430C3F30803002B72
:10A8B00040F00482EFF31183002B40F0FF81236806
:10A8C000816822689342FAD13A689142F7D8326897
:10A8D0000CFB02FBABEB0101B1FBF2F10CFB031330
:10A8E0005B1BB3F57A7FDED3019B013B0193B7D1AC
:10A8F000009A936992F8605013B11A689B88538349
:10A90000009B586940F2E933828902E0002B00F095
:10A9100089840289013B12F0020F9BB2F6D0192301
:10A92000838140F2E93302E0002B00F07B8402894E
:10A93000013B12F0010F9BB2F6D08389838940F26C
:10A94000E93302E0002B00F069840289013B12F038
:10A95000020F9BB2F6D0ADB2858140F2E9330AE036
:10A9600010E000E014BC002000ED00E008BC002076
:10A97000002B00F053840289013B12F0010F9BB2BF
:10A98000F6D08389009B9B6913B11A689B88138357
:10A990006423DFF8A8E2A648DFF8A482A54F01935C
:10A9A0004FF01009DEF80430C3F30803002B40F029
:10A9B0000683EFF31183002B40F001832568826842
:10A9C00023689D42FAD13B689A42F7D8D6F800C076
:10A9D0004FF47A7101FB0CF39B1AB3FBFCF301FB00
:10A9E00005354FF47A7C4FF0010ADEF80430C3F3EA
:10A9F0000803002B40F04481EFF31183002B40F05B
:10AA00003F812368816822689342FAD13A68914273
:10AA1000F7D832680CFB02FBABEB0101B1FBF2F1A2
:10AA20000CFB03135B1BB3F57A7FDED3019B013B69
:10AA30000193B7D1009B9B6913B11A689B8853831C
:10AA4000009B586940F2E933828902E0002B00F054
:10AA5000E0830289013B12F0020F9BB2F6D037234C
:10AA6000838140F2E93302E0002B00F0D2830289B7
:10AA7000013B12F0010F9BB2F6D08389838940F22B
:10AA8000E93302E0002B00F0C1830289013B12F0A0
:10AA9000020F9BB2F6D01023838140F2E93302E02B
:10AAA000002B00F0B3830289013B12F0010F9BB22F
:10AAB000F6D08389009B9B6913B11A689B88138326
:10AAC0000F23DFF878E15A48DFF87481594F01937A
:10AAD0004FF01009DEF80430C3F30803002B40F0F8
:10AAE0004D82EFF31183002B40F048822568826885
:10AAF00023689D42FAD13B689A42F7D8D6F800C045
:10AB00004FF47A7101FB0CF39B1AB3FBFCF301FBCE
:10AB100005354FF47A7C4FF0010ADEF80430C3F3B8
:10AB20000803002B40F08E80EFF31183002B40F0E0
:10AB300089802368816822689342FAD13A689142F9
:10AB4000F7D832680CFB02FBABEB0101B1FBF2F171
:10AB50000CFB03135B1BB3F57A7FDED3019B013B38
:10AB60000193B7D1009B9B6913B11A689B885383EB
:10AB7000009B586940F2E933828902E0002B00F023
:10AB800040830289013B12F0020F9BB2F6D03823BA
:10AB9000838140F2E93302E0002B00F03283028926
:10ABA000013B12F0010F9BB2F6D08389838940F2FA
:10ABB000E93302E0002B00F01F830289013B12F011
:10ABC000020F9BB2F6D00123838140F2E93302E009
:10ABD000002B00F011830289013B12F0010F9BB2A0
:10ABE000F6D08389009B9B6913B11A689B881383F5
:10ABF0000388114A23F040031B041B0C03800388C5
:10AC000023F038031B0490424FEA134300F0BD8247
:10AC100002F5806290420CBF082210221343038089
:10AC2000038843F04003038005B0BDE8F08F00BF08
:10AC300010E000E014BC00200038004000ED00E00F
:10AC400008BC0020EFF3118189F31288D0F808B016
:10AC50000368DB0344BFC8F800A0D0F808B023683D
:10AC6000D8F80020C9B281F31188316813440CFB75
:10AC700001F2A2EB0B02B2FBF1F20CFB032369E73A
:10AC8000EFF3118189F31288D0F808B00368DB0371
:10AC900044BFC8F800A0D0F808B02368D8F8002056
:10ACA000C9B281F31188316813440CFB01F2A2EBA5
:10ACB0000B02B2FBF1F20CFB0323B3E6EFF31181BD
:10ACC00089F31288D0F808B00368DB0344BFC8F8E2
:10ACD00000A0D0F808B02368D8F80020C9B281F3EA
:10ACE0001188316813440CFB01F2A2EB0B02B2FB9A
:10ACF000F1F20CFB0323F3E5EFF3118189F31288E2
:10AD0000D0F808B00368DB0344BFC8F800A0D0F84F
:10AD100008B02368D8F80020C9B281F311883168DF
:10AD200013440CFB01F2A2EB0B02B2FBF1F20CFBA1
:10AD3000032329E5EFF3118189F31288D0F808B0D5
:10AD40000368DB0344BFC8F800A0D0F808B023684C
:10AD5000D8F80020C9B281F31188316813440CFB84
:10AD600001F2A2EB0B02B2FBF1F20CFB03236BE44A
:10AD7000EFF3118189F31288D0F808B00368DB0380
:10AD800044BFC8F800A0D0F808B02368D8F8002065
:10AD9000C9B281F31188316813440CFB01F2A2EBB4
:10ADA0000B02B2FBF1F20CFB0323FFF7B5BBEFF391
:10ADB000118189F31288D0F808B00368DB0344BF1F
:10ADC000C8F800A0D0F808B02368D8F80020C9B2AD
:10ADD00081F31188316813440CFB01F2A2EB0B02E2
:10ADE000B2FBF1F20CFB0323FFF7EFBAEFF3118193
:10ADF00089F31288D0F808B00368DB0344BFC8F8B1
:10AE000000A0D0F808B02368D8F80020C9B281F3B8
:10AE10001188316813440CFB01F2A2EB0B02B2FB68
:10AE2000F1F20CFB0323FFF738BAEFF3118389F338
:10AE30001288D0F808C00268D20304D50122C8F8ED
:10AE40000020D0F808C02568D8F800A0DBB283F352
:10AE5000118831684FF47A72554402FB01F3A3EB79
:10AE60000C03B3FBF1F302FB0535FFF7F5B9EFF384
:10AE7000118389F31288D0F808C00268D20304D580
:10AE80000122C8F80020D0F808C02568D8F800A032
:10AE9000DBB283F3118831684FF47A72554402FBB8
:10AEA00001F3A3EB0C03B3FBF1F302FB05354AE41A
:10AEB000EFF3118389F31288D0F808C00268D20337
:10AEC00004D50122C8F80020D0F808C02568D8F8B9
:10AED00000A0DBB283F3118831684FF47A725544D5
:10AEE00002FB01F3A3EB0C03B3FBF1F302FB05350B
:10AEF000FFF789BBEFF3118389F31288D0F808C0FC
:10AF00000268D20304D50122C8F80020D0F808C096
:10AF10002568D8F800A0DBB283F3118831684FF4BC
:10AF20007A72554402FB01F3A3EB0C03B3FBF1F37C
:10AF300002FB0535FFF7CFBAEFF3118389F31288CF
:10AF4000D0F808C00268D20304D50122C8F8002056
:10AF5000D0F808C02568D8F800A0DBB283F31188C8
:10AF600031684FF47A72554402FB01F3A3EB0C03F2
:10AF7000B3FBF1F302FB0535FFF706BAEFF31183DC
:10AF800089F31288D0F808C00268D20304D50122E0
:10AF9000C8F80020D0F808C02568D8F800A0DBB2B7
:10AFA00083F3118831684FF47A72554402FB01F340
:10AFB000A3EB0C03B3FBF1F302FB0535A9E5EFF3BB
:10AFC000118389F31288D0F808C00268D20304D52F
:10AFD0000122C8F80020D0F808C02568D8F800A0E1
:10AFE000DBB283F3118831684FF47A72554402FB67
:10AFF00001F3A3EB0C03B3FBF1F302FB0535F0E423
:10B00000EFF3118389F31288D0F808C00268D203E5
:10B0100004D50122C8F80020D0F808C02568D8F867
:10B0200000A0DBB283F3118831684FF47A72554483
:10B0300002FB01F3A3EB0C03B3FBF1F302FB0535B9
:10B040002DE4019DFFF7BDBB1C09013C032C03F05F
:10B050000F0300F2F7808B4A32F8140040FA03F233
:10B06000D50740F1EF80012606FA03F3013B1840B3
:10B070004AF03AFB844BDFF828A213F8049081448D
:10B080001AEBC90400F0DE805AF83920A38815694C
:10B090001D407FF454A82021B3FA83F3A171C3F1BA
:10B0A0001F030099794AE571581CCA603FF447A80C
:10B0B000774F784A07EB030C01F10C0042F82300AC
:10B0C000294620469CF8788041F0B8FAA3885AF8BF
:10B0D0003910714AB3FA83F3C3F11F035FFA83FC9B
:10B0E0000CF0FC0000F1804000F59C300CF0030CEB
:10B0F0004FEA8C0C4FF00F0E0EFA0CF9D0F808E066
:10B1000001F13F412EEA090EC0F808E001F57E0189
:10B11000D0F808E0C1F3872101FA0CF106FA03F335
:10B1200041EA0E0181605361D2F800E05B48DFF82C
:10B1300074C1D9430EEA010EC2F800E0D2F804E06F
:10B1400001EA0E0EC2F804E0D2F800E043EA0E0E67
:10B15000C2F800E0D2F808E001EA0E0EC2F808E0FA
:10B16000D2F80CE001EA0E01D16002681A430260D5
:10B170001CF80820F02A6AD8002B3EF4E0AF4649BC
:10B180000A6813430B60FEF7DABF082246E5302257
:10B19000FEF7EDBF41F052FEFFF7A6BA41F04EFEBA
:10B1A000009B5869FFF70BB841F048FE009B5869B7
:10B1B000FFF776BA41F042FEFFF7F6B941F03EFEE6
:10B1C000009B5869FFF7D4B941F038FEFFF754B936
:10B1D00041F034FE009B5869FFF732B941F02EFE72
:10B1E000FFF7A3B841F02AFE009B5869FFF781B82A
:10B1F00041F024FEFEF7FFBF41F020FE009B58699E
:10B20000F1E441F01BFE009B5869CFE441F016FECB
:10B2100050E441F013FE009B58692FE441F00EFE0C
:10B22000FFF7B0BB41F00AFE009B5869FFF786BBF1
:10B2300041F004FEFFF704BB41F000FE009B58699B
:10B24000FFF7E3BA009A114BD360FEF778BF47448B
:10B25000F02297F888308DF80C3003A803238DF87E
:10B260000D308DF80E508DF80F600CF8082010F09E
:10B270002BFDA388B3FA83F3C3F11F0306FA03F38C
:10B280007AE700BF90DA050898DA0508398A0008DD
:10B29000787205086CB10020003C0140083C014078
:10B2A0004CBA0020ACB100202DE9F84F037C0268B5
:10B2B0001F2B86BF203B51681168202202FA03F33E
:10B2C0000B4214BF012300230BB9BDE8F88F456979
:10B2D000604F044609F08CFB4FF4B27303FB057317
:10B2E00006461A7C002A35D15B495A680978D2F89B
:10B2F0000090D1B9D3F8D81058890A6822F0010219
:10B300000A60B9F80C3023EA0003A9F80C30534B5B
:10B310001B78002B32D1237C21681F2B13D82022CD
:10B3200002FA03F38B60BDE8F88F5269136823F0CB
:10B3300001031360B9F80C3023F480731B041B0C59
:10B34000A9F80C30E3E7203B202202FA03F3CB609C
:10B35000BDE8F88FD3F8D86041485F8901225A745C
:10B3600031685A680368156821F001013160AA89C3
:10B37000013322EA0702AA810360CCE74FF4B27AD4
:10B380000AFB05FA07EB0A05D5F8D880404610F00D
:10B3900013FC01232B74D5F8DCB009F029FB0AF16A
:10B3A0008C013944CBF82C01484610F0C5FCD5E996
:10B3B0002B70D5F89830D5E92D123B4303430B434E
:10B3C0001343D5F8BC20D5F8CC70D8F80000254937
:10B3D0001343D5F8C0201343D5F8D0203B43014098
:10B3E00013430B430022C5F8A420C8F80030D8F856
:10B3F0001420D5F8C430D5F8A81022F0070CD5F8E1
:10B40000C820D5E92770134343EA0C03C8F8143069
:10B41000C8F80410C8F80870C8F80C00D8F8002064
:10B42000D5F8D83095F8D400696842F01002C8F811
:10B43000002058601A68096842F001021A608B897E
:10B440006A8913438B8109F0D3FA074B801B18607C
:10B4500061E700BF68CB0020B0320010AC320010B2
:10B4600064A100203F801CF05831001020B100780A
:10B47000B0FA80F0400970470120704708B52021DC
:10B480004BF0BDFE0346184623B10278202A03F193
:10B490000103F8D008BD037903F01803082B0AD084
:10B4A00002D82BB100207047102B16D0182BF9D1E1
:10B4B000B0F80B007047124BB0F80B0093F9003056
:10B4C000591C06BF0F4B1B78DBB2C3EB031203EB17
:10B4D000820300EB430080B270470B4BB0F80B00C7
:10B4E00093F900305A1C06BF064B5B78DBB203EBC6
:10B4F000430203EB820300EB430080B2704700BFBE
:10B500006D0E0020C4C800206C0E0020F0B5067936
:10B5100006F0E003402B09D144794FF0FF350023BA
:10B52000012006F00706A3420BD1F0BD602B08BF37
:10B5300045794FF001040CBF04FA05F54FF0FF35D3
:10B54000EDE7042E0CD8DFE806F0030D18242E00DA
:10B5500030B1C85CD75C784028420CBF0120002085
:10B560000133E0E70028FBD0C856D756A0EB070C04
:10B57000DCF1000040EB0C00F2E70028F0D031F8DD
:10B58000130032F81370784028420CBF01200020CD
:10B59000E6E70028E4D031F9130032F91370C71B35
:10B5A00078427841DCE70028DAD051F8230052F8DD
:10B5B0002370784028420CBF01200020D0E7024BC6
:10B5C0000146186841F04ABE7043002038B5064D68
:10B5D000441E14F8011F286819B9BDE8384041F02D
:10B5E000B7BD41F03BFEF4E7704300200048EDE7B3
:10B5F000D32E060808B5FFF7E9FFBDE80840F5E7D8
:10B6000010B504460348FFF7E1FF2046BDE81040AF
:10B61000F0E700BF8CEF050838B5074C074DAC428A
:10B6200003D3074B00221A7038BD6288D4E90101A8
:10B630004AF0A8FA1434F2E79001000880070008E5
:10B64000F0B0002038B5074C074DAC4203D3074B90
:10B6500001221A7038BD6288D4E901104AF092FACA
:10B660001434F2E79001000880070008F0B00020D1
:10B67000024A136823EA00001060704760E000206F
:10B68000DFED2E7AB4EEE70AF1EE10FA4ADDDFEDD7
:10B690002C6A9FED2C7A01E0B0EE670AB4EEC70A7F
:10B6A000F1EE10FA70EE667AF6DC9FED277AF4EE92
:10B6B000C77AF1EE10FA3ED5DFED216A9FED237ACD
:10B6C00001E0F0EE407AF4EEC77AF1EE10FA37EED0
:10B6D000A60AF6D4DFED1E7AB4EEE70AF1EE10FA10
:10B6E00014DDDFED167A37EEC00A60EE006A9FEDDA
:10B6F000196A9FED197ADFED197AA6EE867A20EEA7
:10B70000266AE6EE877AA6EE270A7047DFED147AFE
:10B71000B4EEE70AF1EE10FA44BFDFED0B7A37EE34
:10B72000C00AE2E79FED087AF0EE407AF4EEC77ABD
:10B73000F1EE10FAC0D4B0EE670ACBE7DB0F494058
:10B74000DB0FC940E4CB1641DB0F49C0E4CB16C187
:10B75000DB0FC93F92E741B99730083C15A82ABED4
:10B76000DB0FC9BFF0EEC07AB0EEE07AB4EEE77A54
:10B77000F1EE10FAB4BFB0EE676AB0EE476AB5EE0C
:10B78000406AF1EE10FA46D0B4EEE77AF1EE10FA24
:10B790008CBFF0EE675AF0EE475AC5EE866A9FED11
:10B7A0001F3A9FED1F6A9FED1F4A9FED1F5ADFED65
:10B7B0001F3ADFED1F4ADFED1F5AA6EEC36AE6EE21
:10B7C000A34AA6EE864AB7EE006AA6EE845AA6EE13
:10B7D000A46AE6EE855AC5EE866AB4EEE77AF1EE23
:10B7E00010FA48BFDFED147AF5EEC00A48BF77EED5
:10B7F000E66AF1EE10FA48BFDFED107AB5EEC00A46
:10B8000048BF77EEE66AF1EE10FA48BFF1EE666ADD
:10B81000B0EE660A7047DFED076ADEE739094E3D94
:10B82000E3B59E3E88FA163E45FE7F3F99FB243FD6
:10B8300069A2163EA7DFA834DB0FC93FDB0F4940E2
:10B84000DFED317A30EE277AFDEEC76A16EE903AD8
:10B850002033402B02D99FED2D0A7047B4EEE70A42
:10B86000F1EE10FA4DDD9FED2A6ADFED2A6A01E064
:10B87000B0EE677AB4EEE67AF1EE10FA77EE467A39
:10B88000F6DC9FED257AF4EEC77AF1EE10FA35D5A5
:10B89000DFED1F6A9FED217A01E0F0EE407AF4EED1
:10B8A000C77AF1EE10FA37EEA60AF6D4DFED167A73
:10B8B000B4EEE70AF1EE10FA1BDCDFED197AB4EE14
:10B8C000E70AF1EE10FA44BFDFED137A37EEC00A53
:10B8D00060EE006A9FED136A9FED137ADFED137A35
:10B8E000A6EE867A20EE266AE6EE877AA6EE270A8C
:10B8F0007047DFED0F7A37EEC00AE9E7B0EE670A6E
:10B90000D4E7F0EE477ABCE7DB0FC93F0000000048
:10B91000DB0FC940E4CB1641DB0F49C0E4CB16C1B5
:10B92000DB0FC9BF92E741B99730083C15A82ABE82
:10B93000DB0F494010B44C09012250F8243001F0CB
:10B940001F0102FA01F123EA010340F824305DF8F7
:10B95000044B704710B44C09012250F8243001F018
:10B960001F0102FA01F10B4340F824305DF8044B4B
:10B97000704700BF4B0901F01F0150F8232001233D
:10B9800003FA01F1114214BF18460020704700BFAE
:10B990002DE9F043002489B006460D461F46A04617
:10B9A00005E025290CD030460134A847039A531CE2
:10B9B000039311780029F4D1204609B0BDE8F08343
:10B9C000931CCDE903385078302842D0A0F13003E1
:10B9D000DBB2092B4FF0000945D96C282AD0642826
:10B9E00073D019D9732858D063D9752840F0828054
:10B9F00007F1040C386805AB00220A216746FCF702
:10BA00002FFC05AB049A009329464B463046FCF7C1
:10BA1000FDFA039A0444CAE725283CD051D9582896
:10BA20006BD06328C2D139783046A8470437013437
:10BA3000039ABCE7039B5A1C03921B78642B52D0D9
:10BA400016D8252B27D064D9582B18D0632BEAD0D1
:10BA5000ADE7D31C03939078A0F13003DBB2092B40
:10BA60004FF00109B9D804AA03A945F077FDB4E75E
:10BA7000732B12D051D9752B2DD0782B97D1A3F1E0
:10BA80005802B2FA82F23868520905AB1021043725
:10BA9000FCF7E6FBB5E7252185E73B68049A0093B0
:10BAA000294600233046FCF7B1FA04370444039AD0
:10BAB0007DE76E287FF47AAF039A3B6804371C60F9
:10BAC00075E700283FF478AF70E7386805A9FCF700
:10BAD00091FB043795E7386805AB00220A21FCF793
:10BAE000BFFB04378DE73B1D386805A91F46FCF7EF
:10BAF00081FB86E778287FF459AFA0F15802B2FAAB
:10BB000082F23868520905AB1021FCF7A9FB043713
:10BB100077E7002B3FF450AF49E76E2BCDD046E7D7
:10BB200010B5064C0B46024605492068FFF730FF6A
:10BB30002068BDE8104041F00BBB00BF70430020FF
:10BB40001192000838B504460D460848FFF73EFD3F
:10BB500029462046FFF7E4FF0548FFF737FD054B70
:10BB60001B7813B1044B01221A7038BD91EF050800
:10BB70009CEF0508CC440020CD4400200FB407B54D
:10BB800004A951F8040B0191FFF7DCFFFFF72EFD2C
:10BB900003B05DF804EB04B0704713460A46014653
:10BBA0000048EBE7A0EF05080048E7E7B9EF050814
:10BBB0000FB407B504A951F8040B0191FFF7C2FFB8
