:020000040800F2
:10000000F0FF00105DD604087DF30208E10102084C
:10001000FDD60408FDD60408FDD604080000000043
:1000200000000000000000000000000083F3020850
:1000300081F30208000000007FF302088DCA010866
:10004000FDD60408FDD60408FDD60408FDD6040834
:10005000FDD60408FDD604086D10020899110208A7
:100060005D11020821110208E5100208D978040880
:10007000C9780408B9780408A978040895780408B0
:10008000817804086D780408FDD60408FDD60408BC
:10009000FDD60408FDD60408FDD60408A910020800
:1000A0009DAD010839B30108CDAC010809B40108C0
:1000B00079B20108B9B10108EDB00108FDD6040814
:1000C000FDD60408FDD60408FDD60408FDD60408B4
:1000D000FDD60408F1CA0108FDD60408E5CA0108E6
:1000E00031100208FDD6040831320308FDAB0108C7
:1000F0006DAE01082DAB01084DAF01085978040819
:10010000FDD60408FDD604081DB00108FDD604087C
:10011000D9CA0108FDD6040821F103080DF103082E
:1001200045780408317804081D7804080978040823
:10013000F5770408FDD60408FDD60408FDD60408AA
:10014000FDD60408FDD60408FDD604087D04030886
:10015000E1770408CD770408B9770408CDCA01080F
:10016000FDD60408FDD60408FDD60408FDD6040813
:10017000FDD60408FDD60408FDD60408FDD6040803
:08018000FDD60408FDD60408B9
:0801880004D204000100000094
:100190001F021000841900207419002000000000C4
:1001A000C98800082C00100098260020882600200E
:1001B00000000000D70501082B002400CC260020F9
:1001C000A826002000000000A905010829207800C9
:1001D00090250020F0260020000000000000000014
:1001E0002810100078270020682700200000000059
:1001F000E5FA00081C021000F420002088270020E7
:10020000000000006D86000820320A00A4270020AC
:1002100098270020000000006DFA00081400030079
:10022000F8240020B027002000000000F406000899
:1002300001200800041D0020B42700200000000059
:10024000F80600080C109C00581C0020BC27002059
:1002500000000000A1DA03080A702800E41B002057
:1002600058280020000000008DFA00080EA074013C
:10027000701A00208028002000000000651E02087F
:1002800001010400D4190020F4290020000000001E
:100290000000000000010400CC190020F829002013
:1002A000000000000007000802010300C819002038
:1002B000FC29002000000000CDDA03081A023C00EF
:1002C0001C2A0020342F0020000000008D8A000826
:1002D00027000400102A0020702F002000000000DA
:1002E00004070008031233004C3700208837002031
:1002F000000000000807000825102C012C35002004
:10030000BC370020000000000000000010100200B8
:1003100014350020E8380020000000003C070008E9
:100320001A000E00C4340020EC3800200000000049
:100330003E0700081900050008340020FC380020A2
:10034000000000004C070008F82106007832002069
:10035000043900200000000052070008150070005A
:10036000A83000200C390020000000000000000030
:100370002A006000643400207C3900200000000066
:100380003D1E020826100C003C4B0020304B002084
:100390000000000005DF02080B301800E4430020D5
:1003A000744B002000000000580700081F30240094
:1003B000583B00208C4B0020000000007007000814
:1003C0000502040070450020B04B00200000000032
:1003D0009407000803010A0084430020B44B002066
:1003E000000000009807000813020400043A0020EF
:1003F000C04B002000000000A20700080902010015
:10040000906100200862002000000000A60700089C
:1004100001020500F45300200C62002000000000DF
:10042000413C030800020500EC5300201462002048
:1004300000000000000000001B021000D853002044
:100440001C62002000000000978600081E000600C5
:10045000445100202C62002000000000A807000882
:100460001B100C000C4E0020346200200000000025
:10047000954F03082102F000644C002040620020E8
:1004800000000000DD4603083710240074530020EC
:100490003063002000000000AE0700080E020200DA
:1004A000345400205463002000000000D2070008EC
:1004B00016100600C84B0020586300200000000002
:1004C000D40700082F102200E461002060630020A0
:1004D00000000000DA070008051006002C5000207C
:1004E0008463002000000000FC07000823100E00B9
:1004F0008C5000208C63002000000000FDFA0008F2
:10050000F5518C00D04B00209C63002000000000BF
:1005100099790308F6210C003868002088680020CB
:10052000000000000408000802000C002C680020F5
:1005300094680020000000000000000008120F0076
:100540001C680020A068002000000000B18700089F
:10055000F701060010680020B068002000000000CD
:10056000100800080A020A0084670020B86800200A
:100570000000000009DE03080300010004680020F9
:10058000C46800200000000000000000100201000C
:10059000E8680020E4680020000000001608000859
:1005A0000D002C001C930020C49C002000000000C3
:1005B000D992030804008000A4890020F09C002048
:1005C0000000000000000000F901040090890020F4
:1005D000709D002000000000A9970108130004008E
:1005E0008C890020749D002000000000180800087D
:1005F000FD011E006C890020789D00200000000095
:100600003197010818202E0038890020989D00207D
:1006100000000000218A000806101A0098770020C8
:10062000C89D002000000000C51E0208FB0101005B
:1006300094770020E49D002000000000FD8B00085E
:10064000FC01090060760020E89D00200000000009
:100650000D8C000816023F0018760020F49D002043
:1006600000000000D186000834001000487500200A
:10067000349E002000000000991E020811020800AC
:1006800020750020449E0020000000001C08000887
:1006900012120400187500204C9E0020000000007B
:1006A000240800081220100008750020509E002029
:1006B0000000000028080008020203003C69002036
:1006C000609E002000000000000000000C020400FA
:1006D000F8680020649E002000000000DD8700080C
:1006E000FE0114009C6B0020689E002000000000AA
:0406F000A9860008CF
:1006F40003000000E8036400040A0001FA0000009B
:1007040020030000000000000000000000000000C2
:1007140000000000000000000000000000000000D5
:1007240000000000000000000000000000000000C5
:10073400000000000000010000057E05EA05B40584
:100744003200E803D0070000000028010000040183
:10075400F4011400AE014A015E012C0164010100A0
:10076400000001000A019A01001E0A0000000000B6
:100774000001000000050000010203000000000069
:1007840000000000000000000000000000800700DE
:1007940000000000040101006C16000000000000CD
:1007A4000100130000000100000020003200C80016
:1007B400D0079600140032002800B004400600055B
:1007C400500014000F000800640001000100000044
:1007D400C40900001900000000000000000000002F
:1007E4000000000000000000000000000000000005
:1007F40000000000000000002000030100000000D1
:100804000000000001000000020200001E010000C0
:100814000000000008044430000000000101010150
:10082400FFFFFFFF00000001000005504B4F530085
:0408340000080000B8
:10083800E08C05080000080205030300E88C0508A1
:1008480001000802050403009CB905080200FE0126
:1008580001100300F08C05080300140200030000D7
:10086800F88C050804001F0201000800008D050827
:1008780005001F0201010800FFFFFFFFFF01FF0045
:100888000100000025F2000800000000FC0E050829
:1008980020700020702D7200FFFFFFFF0101010092
:1008A8000001010100D6012D202D2D202D2D2D2DEB
:1008B800202D2D2D00000000000000000000000089
:1008C8000000000000000000000000000000000020
:1008D800342105080000000000000000C0210508C0
:1008E80001000000FA000000010000000100000003
:1008F800010100003A1C002000C80100391C00203A
:1009080000500100381C0020005A0100361C00204D
:1009180002000000CC1005089C8F0508A48F05086C
:10092800E64D00200100C40900000000E44D00204D
:100938000100C40900000000E24D00200100C409C4
:1009480000000000E04D00200100C4090000000084
:10095800DC4D00200100C40900000000DE4D00202D
:100968000100C40900000000DA4D00200100C4099C
:1009780000000000D84D00200100C409000000005C
:10098800EA1900200100C80001000000E819002051
:100998003200307532000000E6190020055A0500C3
:1009A800E319002000FF0100E51900200100000004
:1009B80070020020E119002002000000243405081C
:1009C800E219002000FF0100E419002001000000E6
:1009D80070020020E01900200200000024340508FD
:1009E800101D0020EE02CA08010000000E1D0020A4
:1009F80000C80100640000000D1D002000C80100AF
:100A0800640000000C1D002002000000D81005083A
:100A1800DA19002080C1803E05000000D8190020A6
:100A280080C1803E05000000D219002080C1803EB0
:100A380005000000D019002080C1803E050000009C
:100A4800CB19002000FF0100C41900206400F40144
:100A580001000000C319002004000000E41005088C
:100A6800C219002002000000F8100508611A0020D1
:100A78000D000000041105085E1A00200064010042
:100A88005C1A0020320010270A0000005B1A0020C0
:100A98000D000000041105085A1A00200D0000007E
:100AA80004110508591A0020020000003C1105082D
:100AB800000000000000000048110508284500203B
:100AC8009CFF2C010000000034200020E0150C17CA
:100AD80000000000362000200200000080110508F8
:100AE8001C1D00200100FF7F010000001B1D0020CD
:100AF800020000008C110508631A002003000000A2
:100B08009C110508621A0020030000009C110508CA
:100B1800181C00200000E80301000000161C00203B
:100B28000000E80301000000141C00200000E80396
:100B380001000000121C00200000E8030100000072
:100B4800101C00200000E803010000000E1C00201B
:100B58000000E803010000000D1C00200014010043
:100B68000C1C002003000000AC110508241C002008
:100B78000000F40101000000221C00200000F40124
:100B880001000000201C00200000F401010000000A
:100B98001E1C00200000F401010000001C1C0020A5
:100BA8000000803E010000001A1C00200000803E6A
:100BB800010000004D1C0020196401004C1C00209D
:100BC80002000000BC1105084A1C0020E803D007F9
:100BD8000A000000481C0020006401000A00000010
:100BE8003D1C0020006401003C1C00200064010042
:100BF800441C0020006401000A000000431C00207F
:100C0800006401000A000000421C0020006401008A
:100C18000A000000471C0020006401000A000000D0
:100C2800461C0020006401000A000000451C00204A
:100C3800006401000A000000411C002001FF0100BF
:100C48000A000000401C002001FF01000A0000000B
:100C58003F1C002001FF01000A0000006C1A002060
:100C68000000F401010000006A1A00200000F401ED
:100C780001000000681A00200000F40101000000D3
:100C8800661A00200000F40101000000641A002028
:100C98000000F40101000000351C00200064010080
:100CA800341C002000640100331C00200064010093
:100CB800321C0020FF080100311C002001640100E3
:100CC80005F80008C9F70008C8110508301C0020FD
:100CD800006401002E1C00201400E803010000003D
:100CE8002C1C0020E80330750A0000002A1C002094
:100CF80000C80100291C002000C80100281C002091
:100D080000C80100271C0020006401000A00000040
:100D1800021D00200000D00701000000FD1C00207B
:100D280000C80100FC1C002000C80100FB1C0020BA
:100D380000C80100001D00200000D00701000000CD
:100D4800FA1C002000C80100F91C002000C801009E
:100D5800F81C002000C80100FE1C00200000D0077D
:100D680001000000F71C002000C80100F61C00204C
:100D780000C80100F51C002000C8010000000000A8
:100D880039F5000838120508571A0020310000000C
:100D9800D4120508561A002000C80100541A002071
:100DA800E803D0070100000046465F50494B4F4614
:100DB800344F534400000000DF19002000030100F5
:100DC800DE1900200003010099F4000871F40008FE
:100DD8009C1305082DF40008E1F30008F01305083A
:100DE800C1F400081D0B010870140508DC19002067
:100DF8000103010061F9000835F9000864170508C6
:100E080071F3000831F30008C81705084FF500080A
:100E18005D2B010864180508D506010800000000CC
:100E28000C19050891080108C1F90008A819050856
:100E3800A1F5000800000000181A050879F6000856
:100E480025F600087C1A050809F70008CDF6000801
:100E5800181B050841F8000889F80008981B0508C0
:100E68003B1C002001060100E9F50008B5F5000863
:100E7800941C050845F70008810B0108041D0508A6
:100E8800B9F80008050C0108E41D0508261C002017
:100E98000103010009F50008D9F40008B81E050887
:100EA8008DF90008000000001C1F0508B1F30008B8
:100EB800ED0A0108801F050800000000000000007E
:100EC8000C2005080DF900087D0C01088C20050888
:100ED800BE19002088136F1701000000C0190020F8
:100EE80088136F1700000000B29300200000000074
:100EF80000000000B0930020000000000000000087
:100F0800AE9300200000000000000000AC93002019
:100F18000000000000000000AA930020000000006C
:100F280000000000A893002000000000000000005E
:100F3800A00B002000000000000000009419002011
:100F48000200000014220508BC19002088136F173E
:100F5800010000006845002088136F17000000009A
:100F6800C5F2000800000000202205087E200020AD
:100F780001000000742205086A45002001000000F5
:100F8800802205086045002002000000882205082C
:100F9800000000000000000094220508B1F20008DB
:100FA80000000000302305080000000000000000D9
:100FB800842305080000000000000000F423050851
:100FC80064450020E0150C1700000000FFFF010039
:100FD800A00F0000B80B00000102FFFF0100000095
:100FE800FFFFFFFF0000803F00000000000000003E
:100FF800000000000000803F00000000000000002A
:1010080000000000000000000000000000000000D8
:101018000000000000000000000000000000803F09
:1010280000000000000000000000000001000000B7
:10103800FFFFFFFF0000803F0000000000000000ED
:1010480000000000FF000000040309041201000270
:10105800EF0201408304563200020102030100003E
:1010680012010002020200408304405700020102FC
:101078000301000009026400030100C032090400F2
:1010880000010300000009211101000122260007C8
:1010980005830308000A080B010202020100090483
:1010A80001000102020100052400100105240100CD
:1010B800020424020205240601020705820308002F
:1010C800FF09040200020A000000070501024000AF
:1010D800000705810240000009024300020100C028
:1010E8003209040000010202010005240010010574
:1010F80024010001042402020524060001070582D8
:10110800030800FF09040100020A000000070501A6
:10111800024000000705810240000000FF000000B7
:101128003431050800000000000000000000000045
:1011380000000000000000000000000000000000A7
:10114800000000000000000000FFFF000000000099
:10115800AA5505010000010008310508000000003B
:101168000000000000000000000000000000000077
:101178000000000000000000000000000000000067
:10118800FF1FFF1F05010905A101A1000501093085
:1011980009310932093309350934094009381581FB
:1011A800257F750895088102C0C000000902220049
:1011B800010100E0320904000001030102000921D5
:1011C800110100012226000705830308000A000018
:1011D80000000000010203040102030406070809D5
:1011E80027F702082BF602085BF902089BD40208CD
:1011F800B3D70208ABD40208C7D4020875D40208D2
:1012080067D4020800000000000000002D202D2DEA
:10121800202D2D2D2D202D2D2D2D0000000000001E
:101228000000000000000000000000AA550B0100AB
:1012380000AA5507010000AA550902000000AA5596
:1012480003009F0001000000C0120000484B00206E
:10125800000000006C4B00200000000000000100AE
:10126800E0010000FFFFFFFF080101FFFFFF000092
:1012780009D902083BD7020839F902080000000022
:1012880065D4020819F6020879D802089DF5020803
:10129800000000000000000025D402087BD80208E6
:1012A800FDD6020881F80208000000003DD40208BB
:1012B8009FF502084DD802080BF50208000000004F
:1012C8000000000031D40208000000007868002007
:1012D8000800000000000000686800200800000006
:1012E8000000803F2CB8050838B8050844B8050840
:1012F80050B805085CB8050868B805086C9D05086D
:101308000867050830660508D0B7050838A205083B
:101318001CB8050820B8050824B8050828B8050829
:101328000CB8050810B8050814B805085064050875
:1013380018B805081900C800F40120030CB80508FE
:1013480010B8050874B8050814B8050878B8050871
:101358007CB805080000040100000000000000023D
:10136800100000000700000000000000000000005E
:1013780001020304060708090800000075DD0308D8
:10138800000000000000000000000000EDD302088B
:10139800EBD30208E9D30208E3D30208E1D3020839
:1013A800E7D30208E5D30208FDD30208EFD3020809
:1013B80075E0020889E0020861E002084DE00208D1
:1013C80037E002080100000000600240106002409F
:1013D8000000000000000000000B000000000000FA
:1013E8000000000000000000006002402860024089
:1013F8000100000000000000060C000000000000D2
:101408000000000000000000006002404060024050
:101418000200000000000000100D000000000000A5
:101428000000000000000000006002405860024018
:101438000300000000000000160E0000000000007D
:1014480000000000000000000060024070600240E0
:101458000400000000000000200F00000000000051
:1014680000000000000000000060024088600240A8
:101478000500000000000000261000000000000029
:10148800000000000000000000600240A060024070
:1014980006000000000000003011000000000000FD
:1014A800000000000000000000600240B860024038
:1014B8000700000000000000362F000000000000B8
:1014C80000000000000000000064024010640240B8
:1014D80000000000000000000038000000000000CC
:1014E8000000000000000000006402402864024080
:1014F80001000000000000000639000000000000A4
:101508000000000000000000006402404064024047
:101518000200000000000000103A00000000000077
:10152800000000000000000000640240586402400F
:101538000300000000000000163B0000000000004F
:1015480000000000000000000064024070640240D7
:101558000400000000000000203C00000000000023
:10156800000000000000000000640240886402409F
:1015780005000000000000002644000000000000F4
:10158800000000000000000000640240A064024067
:1015980006000000000000003045000000000000C8
:1015A800000000000000000000640240B86402402F
:1015B80007000000000000003646000000000000A0
:1015C80000000000000000008C8D050898B1050897
:1015D80000000000E1DA0308A08601000400000012
:1015E80000000000000000000000000000000000F3
:1015F80000000000000000000000000000000000E3
:1016080000000000000000008C8D0508C4B9050822
:1016180000000000CD950108E80300000400000068
:1016280000000000000000000000000000000000B2
:1016380000000000000000000000000000000000A2
:10164800000000000000000038950508D464050873
:101658000000000089FD03087D000000060000006E
:101668000000000000000000000000000000000072
:101678000000000000000000000000000000000062
:101688000000000000000000BC8C050800000000FD
:101698000000000061C00108E8030000030000002A
:1016A8000000000000000000000000000000000032
:1016B8000000000000000000000000000000000022
:1016C8000000000000000000CCB905080000000080
:1016D80000000000A18D0208102700000300000090
:1016E80000000000000000000000000000000000F2
:1016F80000000000000000000000000000000000E2
:101708000000000000000000EC8C0508000000004C
:1017180091030108450202085F76000005000000F9
:1017280000000000000000000000000000000000B1
:1017380000000000000000000000000000000000A1
:101748000000000000000000CCA005080000000018
:1017580000000000AD16020810270000010000007C
:101768000000000000000000000000000000000071
:101778000000000000000000000000000000000061
:101788000000000000000000D8B9050800000000B3
:1017980000000000D1950108E803000005000000E2
:1017A8000000000000000000000000000000000031
:1017B8000000000000000000000000000000000021
:1017C8000000000000000000E4B905080000000067
:1017D8000000000021F60308204E0000030000006E
:1017E80000000000000000000000000000000000F1
:1017F80000000000000000000000000000000000E1
:101808000000000000000000F4B905080000000016
:10181800000000000DF40308204E00000300000043
:1018280000000000000000000000000000000000B0
:1018380000000000000000000000000000000000A0
:10184800000000000000000004BA050800000000C5
:101858000000000069A20108400D03000300000019
:101868000000000000000000000000000000000070
:101878000000000000000000000000000000000060
:101888000000000000000000508E05080000000065
:101898000000000009AC0308102700000100000048
:1018A8000000000000000000000000000000000030
:1018B8000000000000000000000000000000000020
:1018C8000000000000000000D48C050800000000A3
:1018D80000000000055B030810270000030000005B
:1018E80000000000000000000000000000000000F0
:1018F80000000000000000000000000000000000E0
:1019080000000000000000007891050800000000B9
:1019180000000000A5940108A86100000100000073
:1019280000000000000000000000000000000000AF
:10193800000000000000000000000000000000009F
:101948000000000000000000D4A00508000000000E
:1019580000000000B1CB0108A00F0000010000004A
:10196800000000000000000000000000000000006F
:10197800000000000000000000000000000000005F
:10198800000000000000000014BA05080000000074
:1019980000000000917A03081027000001000000F1
:1019A800000000000000000000000000000000002F
:1019B800000000000000000000000000000000001F
:1019C8000000000000000000588E0508000000001C
:1019D80000000000B56E03081A4100000100000075
:1019E80000000000000000000000000000000000EF
:1019F80000000000000000000000000000000000DF
:101A080000000000000000003891050800000000F8
:101A180000000000B9DB02081027000001000000E8
:101A280000000000000000000000000000000000AE
:101A3800000000000000000000000000000000009E
:101A48000000000000000000ACB105080000000024
:101A580000000000DD3101081A410000010000000B
:101A6800000000000000000000000000000000006E
:101A7800000000000000000000000000000000005E
:101A8800000000000000000020BA05080000000067
:101A980000000000BDE10208400D03000000000046
:101AA800000000000000000000000000000000002E
:101AB800000000000000000000000000000000001E
:101AC800000000000000000028BA0508000000001F
:101AD8000000000097920308400D0300000000007A
:101AE80000000000000000000000000000000000EE
:101AF80000000000000000000000000000000000DE
:101B0800000000000000000030BA050800000000D6
:101B1800000000005585030850C3000003000000C2
:101B280000000000000000000000000000000000AD
:101B3800000000000000000000000000000000009D
:101B480000000000000000003CBA0508000000008A
:101B58000000000081F3030840420F00000000006D
:101B6800000000000000000000000000000000006D
:101B7800000000000000000000000000000000005D
:101B8800000000000000000048BA0508000000003E
:101B9800000000002DA7030850C30000000000004B
:101BA800000000000000000000000000000000002D
:101BB800000000000000000000000000000000001D
:0C1BC80000000000000000000000803F52
:1080000020B10078B0FA80F0400970470120704735
:10801000037903F01803082B0AD002D82BB10020F3
:108020007047102B14D0182BF9D1B0F80B00704703
:10803000104BB0F80B0093F90030591C06BF0E4BE3
:108040001B78DBB2C3EB431300EB830080B27047B5
:108050000A4BB0F80B0093F900305A1C06BF064BD0
:108060005B78DBB203EB430203EB820300EB4300DC
:1080700080B27047240900200875002025090020DF
:10808000F0B5067906F06003402B09D144794FF032
:10809000FF350023012006F00706A3420BD1F0BDF7
:1080A000602B08BF45794FF001040CBF04FA05F5B9
:1080B0004FF0FF35EDE7042E0CD8DFE806F0030D96
:1080C00018242E0030B1C85CD75C784028420CBF21
:1080D000012000200133E0E70028FBD0C856D75626
:1080E000A0EB070CDCF1000040EB0C00F2E70028ED
:1080F000F0D031F8130032F81370784028420CBFEA
:1081000001200020E6E70028E4D031F9130032F91D
:108110001370C71B78427841DCE70028DAD051F8A9
:10812000230052F82370784028420CBF0120002021
:10813000D0E703685A1C0260197070472DE9F047B8
:10814000089C2578002B804689460CBF4FF0200AFA
:108150004FF0300A661C25B3002A26DD334601E0C5
:10816000024698B113F8011B501E0029F8D1971E42
:1081700060B13D46013D51464046C8476B1C002B4F
:10818000F8DC257827EAE770013045B1041B294661
:108190004046C847301916F8015B002DF7D1BDE8FD
:1081A000F087002A03DC2846F9E70020EEE7571E97
:1081B000DFE72DE9F04714461D4606464FF47A7274
:1081C00000232046294645F07DF84E4BDFF84881D4
:1081D0004D4A4E4F034488FB03101844D91782FBC5
:1081E000032CC1EB601088FB002887FB03279C440D
:1081F000474AC1EBEC2CC0EB001E82FB0C29A3EB21
:108200008E0E1F44434A86F806E0C1EB27474FEA2B
:10821000EC7E08EB000ACEEBA90E82FB07824FEA48
:10822000E0780EEB4E0EC8EB6A18ACEBCE0CC8EB48
:108230000818DFF8E8E086F804C0A0EB8800707149
:108240008EFB0303F817C0EBE21240F2B55000FBBF
:108250001272C1EBE353B2F5896F4FEA83073CDA40
:1082600040F2DA239A4242DCB2F5B77FB4BF4FF056
:10827000000E4FF0010E4FEA4E09DFF8A48009EB23
:108280000E0308EBC3031FFA8EFCD88A09EB0E011C
:1082900008EBC10116310B2301E031F8020D9042C9
:1082A00018DD013BF9D1CE44012338F83E00B3700C
:1082B00007F5FA670132121ABC44F270A6F800C042
:1082C000204629464FF47A72002344F0FBFF3281A6
:1082D000BDE8F0870133DBB2E9E74FF0030CE64677
:1082E00040F29650DFF838804FF00609CEE74FF0A5
:1082F000020CDFF82C80E64640F229404FF00409DA
:10830000C4E700BF80BC92C7C5B3A29107452EC287
:10831000ABAAAA2A73B06D1689888888792D0311B3
:10832000E8EE04080378202B024600F10100F9D0A2
:10833000092BF7D02D2B00F0A4802B2B03BF5378F3
:10834000B7EE000A0246B7EE000AA3F13001C8B248
:1083500009289FED577A10D8F2EE046A07EE901ABA
:10836000F8EEE77A12F8013FE7EE267AA3F1300142
:10837000C8B20928B0EE677AF0D92E2B63D003F08B
:10838000DF03452B02D020EE070A704710B4517866
:108390002D294FD02B2979D0A1F13003092B02F1DF
:1083A00001027AD80024002303EB830301EB43038B
:1083B00012F8011FA1F130000928A3F13003F3D90D
:1083C000B3F59A7F1A4628BF4FF49A72072B6CD9DF
:1083D000DFED386A1346F7EE007A083B072B67EEAD
:1083E000A67AFAD802F00702DAB1F2EE046A012A9C
:1083F00067EEA67A15D0022A67EEA67A11D0032A74
:1084000067EEA67A0DD0042A67EEA67A09D0052A6F
:1084100067EEA67A05D067EEA67A062A18BF67EE41
:10842000A67A002C3BD087EE277A5DF8044B20EE2D
:10843000070A70479178A1F13003092B02F102027B
:1084400030D80124AFE75378A3F13001C8B209282E
:1084500002F1010293D8F2EE046AF0EE665A07EEDA
:10846000901AF8EEE77A12F8013F87EEA66AA3F1B8
:108470003001C8B2092866EEA56A37EE067AEED951
:108480007DE75378BFEE000A02465EE79178A1F1DE
:108490003003092B02F1020284D9F7EE007A27EEAD
:1084A000277AC2E7F7EE007ABDE7F7EE007A9BE79E
:1084B0000000000020BCBE4C0028F0B403DA2D23DD
:1084C0000B7040420131092804464FF0010307DDDB
:1084D00003EB83035B00B0FBF3F2092AF8D883B106
:1084E0000F48A0FB0326B4FBF3F2092A02F1570C54
:1084F00002F1300709DD03FB1244F30801F801CB58
:10850000EFD100230B70F0BC704703FB1244F3085B
:1085100001F8017BE5D100230B70F0BC704700BF70
:10852000CDCCCCCC884270B44FF0010442D301FBD7
:1085300004F4B0FBF4F58D42F9D2ECB142BB092D45
:1085400004FB150005F1570605F130020EDDB4FB02
:10855000F1F403F8016B7CB1B0FBF4F5092D04FBD9
:10856000150005F1570605F13002F0DCB4FBF1F41B
:1085700003F8012B002CEFD100221A7070BC704759
:1085800003F8016BB4FBF1F4002CF5D0B0FBF4F56B
:10859000092D04FB150005F1370605F13002EFDC6B
:1085A000B4FBF1F403F8012B002CEFD100221A7078
:1085B00070BC70470546002AEAD1C0E790ED057A05
:1085C00090ED004AD0ED066AD0ED014AD0ED047A74
:1085D00090ED035AD0ED025AA4EE007AB0EE406A54
:1085E000B0EE470AB0EE667AA4EE867A67EEC07AFD
:1085F000A5EE407AE5EE867A80ED057AC0ED067A42
:108600007047D0ED057A90ED013AD0ED003AD0ED0B
:10861000064A90ED024A90ED077A90ED035A90EDEC
:10862000086AD0ED045AC0ED067AF0EE406A27EEF3
:10863000830AC0ED056AA3EEA60A80ED087AA4EECF
:10864000240AA5EE470AA5EEC60A80ED070A704780
:10865000D0ED007A90ED017A30EE670AE7EE007A0D
:10866000B0EE670AC0ED007A7047704730B41F2241
:108670000023342501240221C27003228571047273
:108680000370C3728373C373417041728270C2718D
:10869000827230BC7047002306214FF47A72017059
:1086A000C0E901230373704730B43223012231251E
:1086B0004FF60174FF2143700023457104828174D9
:1086C00002720270027143818381C38130BC7047A2
:1086D0002DE9F04F3149324B83B001F1E00B0190AD
:1086E00013274FF000092F481022012603E0203005
:1086F00098420BD002799742F9D102680C68A242E5
:1087000009D02030984206F10106F3D120315945B5
:108710003AD00F79E7E744794D79A542F1D19446F3
:10872000019A214809EB490502EB050A57558AF8D9
:10873000016000F572751D4E624603E0A8421AD032
:1087400050F82C6FB242F9D10679A642F6D1CF6823
:1087500006464FF0000C96468046F268BA4216D0A4
:108760000CF1010CBCF1030F06F10C06F5D14046EB
:10877000A8427246E4D14FF0FF3C203159458AF8B7
:1087800002C009F10109C4D103B0BDE8F08F086946
:1087900032698242E4D14FFA8CFCEEE7182F0508CB
:1087A000C4480508043F0508C44805080000014006
:1087B00030B41522162317253A243B21027043704A
:1087C0003C22FF2385708472C1720273C3700371EF
:1087D000037243724373837330BC704701231421C7
:1087E00000224170C270037083707047084B0949C2
:1087F0008B4203D309E014338B4206D21A88C2F3AA
:108800000B029042F7D11846704700231846704774
:1088100090010008F406000870B50546B0F809009C
:10882000FFF7E4FF064B1E7804462846FFF7F0FBEF
:1088300016B1A368184470BD63681844FBE700BF15
:108840002815002038B505460C46FFF7E5FF2A79C4
:1088500002F0070302F06002602A28D1022B0ED03A
:10886000042B18D03BB96A7901239340DBB202781C
:1088700014B11343037038BD22EA0303FAE76A799F
:10888000012393409BB2028814B113430380F2E7A3
:1088900022EA0303FAE76A79012303FA02F2036882
:1088A00014B113430360E6E723EA0203FAE7042B5B
:1088B000E1D8DFE803F00303050507000470DAE7F9
:1088C0000480D8E70460D6E7034600F11001FF22D8
:1088D0001A705A7002338B42FAD1027042700271E0
:1088E00042718271C2718272C272704718F048BEC2
:1088F0002DE9F04385B0B2F1FF3F89469046194615
:10890000BDF830500D9F23D0060900F00F0440360B
:10891000CDE900423346154A2846B847A8B1424639
:1089200099F80510D9F8000018F0AEFC68B103887A
:10893000DAB20392C3F303221B0B0292CDE9004388
:108940000B4A334600212846B84705B0BDE8F083FE
:108950006B06FAD40309074A00F00F000C9040336D
:108960002846BC4605B0BDE8F0436047AC53050857
:10897000BE530508E75305082DE9FF47B2F1FF3F55
:108980000546894692461F46BDF830400D9E20D0D0
:1089900001F10108CDE9008239460368134A2046F7
:1089A000B04752465FFA89F1287918F0B5FC00B15A
:1089B00000880F4AC3B20393C0F30323000B029352
:1089C000CDE900802B6839462046B04704B0BDE8A9
:1089D000F0876306FAD44B1C0C930368054A3946AA
:1089E0002046B44604B0BDE8F0476047FB53050895
:1089F000085405082C54050808B5202146F037FA1C
:108A00000346184623B10278202A03F10103F8D067
:108A100008BD024B18682FF0E7BC00BFD82D00201E
:108A200038B52E22002146F00BFA034640F2DC5105
:108A3000642040F21A4240F2022418745982132032
:108A400019219A8240F2753240F26C751C83987637
:108A50000E240A201977DA8302210122DD8283F8AD
:108A60002D0040F64305197283F82C1083F822403C
:108A70009A7383F8252083F82B201D841946024819
:108A8000BDE838400FF08ABBE062050838B51D4BE1
:108A90001B78044600F1250593B104221A492030C1
:108AA00046F00CFA28461422184946F007FA01232A
:108AB00084F83A30164B1B7873B984F83B3038BDD4
:108AC00028461422134946F0F9F9012384F83A3074
:108AD0000F4B1B78002BF0D00F4B186859689A6821
:108AE000DD68E56020606160A260DD691869596930
:108AF0009A69A2610123E5612061616184F83B30DC
:108B000038BD00BFD1640020A0640020886400202C
:108B1000D2640020EC620508A8640020014B1868AC
:108B200014F042B8E02E0020B5EEC00ADFED317A35
:108B3000F1EE10FACCBF30EE270A30EE670ADFED17
:108B40002E7A20EE270A30B5FDEEC07A87B017EEF8
:108B5000904A054684EAE470002303A9A0EBE47080
:108B6000CDE90033029342F0E7FC002CACBF202398
:108B70002D2303A88DF8003043F0AEFE012803A991
:108B800024D002282DD0032805BF3023684668462C
:108B90008DF8013046F05CF9684643F09DFE0338DD
:108BA000C4B222466946284646F088F900232B5570
:108BB000284643F091FE2E22431C2A540DEB04015B
:108BC000E81846F061F9284607B030BD3023684602
:108BD0008DF801308DF802308DF8033046F038F909
:108BE000DAE7302368468DF801308DF8023046F020
:108BF0002FF9D1E76F12033A00007A4410B5002133
:108C00000446012012F040FE207010BD38B500244B
:108C10000472451EE1B2022012F036FE0134082C27
:108C200005F8010FF6D138BD2DE9F74F404CDFF8BC
:108C30000C91064604F1480ADFF8F8B00025A37A43
:108C400099F80070AB4242DC0C345445F4D140F248
:108C50001620FFF7CBFDD0E901580FB9A8463D46D5
:108C6000002418F8047067B308EB040A38469AF831
:108C7000011013F035FC9AF902A08146002D53D063
:108C8000002303EB4302AA5CBA424AD12B1993F9A1
:108C90000220AAEB0203D3F1000B4BEB030B3DB117
:108CA000244B4946CDE9006338465B46FFF720FE7A
:108CB000214B5246CDE9006349465B463846FFF7F3
:108CC00017FE03343F2CCCD103B0BDE8F08FE08811
:108CD000FFF78CFDD0E901310FB919463B46227AE6
:108CE000607A05FB02028F56C3B19A56B91AD1F1C8
:108CF000000848EB010833B1CDE9006B4346294633
:108D00002046FFF739FE0C4B2946CDE900633A4671
:108D100043462046FFF730FE013590E74FF0FF3223
:108D2000E4E70133152BACD14FF0FF32B1E700BFC0
:108D30008801002029950008599500082815002071
:108D4000024B0146186818F01BBC00BFD42D002050
:108D500038B5064D441E14F8011F286819B9BDE83E
:108D6000384018F0FFBB18F00BFCF4E7D42D0020BE
:108D70000048EDE74961050808B5FFF7E9FFBDE8E0
:108D80000840F5E710B504460348FFF7E1FF204629
:108D9000BDE81040F0E700BF3B54050838B5074C6C
:108DA000074DAC4203D3074B00221A7038BD6288CE
:108DB000D4E9010144F020FD1434F2E790010008E9
:108DC000F40600082815002038B5074C074DAC42C2
:108DD00003D3074B01221A7038BD6288D4E9011011
:108DE00044F00AFD1434F2E790010008F40600088C
:108DF00028150020F8B50468C4F30D0405460E4696
:108E000004B32F6826F0EAFF092840F08980464C19
:108E1000236923F440732361236943F400732361BE
:108E2000236943F0010323613E6026F0D7FF2369E5
:108E3000092823F00103236172D12B6804332B60CE
:108E4000002036E0394B3A4A93422CD902F5804251
:108E5000934227D902F5804293422BD902F58042F2
:108E6000934229D902F58032934227D902F5003284
:108E7000934225D902F50032934223D902F50032FC
:108E8000934221D902F5003293421FD902F5802284
:108E900093421DD9B3F1016F1CD305203FF014FBA1
:108EA0003DF06AFE082426F099FF092814D04FF0FF
:108EB000FF30F8BD1024F6E71824F4E72024F2E789
:108EC0002824F0E73024EEE73824ECE74024EAE7F2
:108ED0004824E8E75824E6E7134F3B6923F440733E
:108EE0003B613B6943F400733B613B6923F0F8034A
:108EF0003B613B6943F002031C433C613B6943F423
:108F000080333B6126F06AFF3B6923F002033B613B
:108F10003B69092823F0F8033B613FF472AFC6E7D1
:108F20006FF00100C5E700BF003C024000400008B0
:108F3000FF3F0008F8B504460D468E180027B542DD
:108F4000206900D1F8BDE368591CE160234415F89D
:108F5000012B1A720429F2D118B9A1682046FFF733
:108F600049FFC4E90370EAE7024A136823EA0000F4
:108F7000106070478C890020DFED2E7AB4EEE70A8E
:108F8000F1EE10FA4ADDDFED2C6A9FED2C7A01E05C
:108F9000B0EE670AB4EEC70AF1EE10FA70EE667A28
:108FA000F6DC9FED277AF4EEC77AF1EE10FA3ED5A3
:108FB000DFED216A9FED237A01E0F0EE407AF4EED6
:108FC000C77AF1EE10FA37EEA60AF6D4DFED1E7A74
:108FD000B4EEE70AF1EE10FA14DDDFED167A37EEA3
:108FE000C00A60EE006A9FED196A9FED197ADFED05
:108FF000197AA6EE867A20EE266AE6EE877AA6EE43
:10900000270A7047DFED147AB4EEE70AF1EE10FAA2
:1090100044BFDFED0B7A37EEC00AE2E79FED087A36
:10902000F0EE407AF4EEC77AF1EE10FAC0D4B0EE6A
:10903000670ACBE7DB0F4940DB0FC940E4CB1641A1
:10904000DB0F49C0E4CB16C1DB0FC93F92E741B942
:109050009730083C15A82ABEDB0FC9BFF0EEC07AD6
:10906000B0EEE07AB4EEE77AF1EE10FAB4BFB0EE0B
:10907000676AB0EE476AB5EE406AF1EE10FA46D084
:10908000B4EEE77AF1EE10FA8CBFF0EE675AF0EE2C
:10909000475AC5EE866A9FED1F3A9FED1F6A9FED06
:1090A0001F4A9FED1F5ADFED1F3ADFED1F4ADFED2C
:1090B0001F5AA6EEC36AE6EEA34AA6EE864AB7EEAC
:1090C000006AA6EE845AA6EEA46AE6EE855AC5EEBC
:1090D000866AB4EEE77AF1EE10FA48BFDFED147A53
:1090E000F5EEC00A48BF77EEE66AF1EE10FA48BF27
:1090F000DFED107AB5EEC00A48BF77EEE66AF1EE12
:1091000010FA48BFF1EE666AB0EE660A7047DFED0E
:10911000076ADEE739094E3DE3B59E3E88FA163E02
:1091200045FE7F3F99FB243F69A2163EA7DFA83486
:10913000DB0FC93FDB0F4940DFED317A30EE277A94
:10914000FDEEC76A16EE903A2033402B02D99FED10
:109150002D0A7047B4EEE70AF1EE10FA4DDD9FEDEF
:109160002A6ADFED2A6A01E0B0EE677AB4EEE67AA9
:10917000F1EE10FA77EE467AF6DC9FED257AF4EE02
:10918000C77AF1EE10FA35D5DFED1F6A9FED217A2F
:1091900001E0F0EE407AF4EEC77AF1EE10FA37EE25
:1091A000A60AF6D4DFED167AB4EEE70AF1EE10FA6D
:1091B0001BDCDFED197AB4EEE70AF1EE10FA44BFDA
:1091C000DFED137A37EEC00A60EE006A9FED136A96
:1091D0009FED137ADFED137AA6EE867A20EE266AEB
:1091E000E6EE877AA6EE270A7047DFED0F7A37EEB4
:1091F000C00AE9E7B0EE670AD4E7F0EE477ABCE7C9
:10920000DB0FC93F00000000DB0FC940E4CB164173
:10921000DB0F49C0E4CB16C1DB0FC9BF92E741B9F0
:109220009730083C15A82ABEDB0F4940FDEEC07AF6
:1092300017EE903A2033402B45D8DFED2D7AB4EE6F
:10924000E70AF1EE10FA4DDDDFED2A6A9FED2A7A8A
:1092500001E0B0EE670AB4EEC70AF1EE10FA70EE64
:10926000667AF6DC9FED257AF4EEC77AF1EE10FA15
:109270003BD5DFED206A9FED227A01E0F0EE407AE7
:10928000F4EEC77AF1EE10FA37EEA60AF6D4DFED67
:109290001D7AB4EEE70AF1EE10FA17DDDFED147A6D
:1092A00037EEC00A60EE006A9FED176A9FED177AED
:1092B000DFED177AA6EE867A20EE266AE6EE877A4A
:1092C000A6EE270A70479FED130A7047DFED127A6A
:1092D000B4EEE70AF1EE10FA44BFDFED087A37EE9C
:1092E000C00ADFE7F0EE407ABCE7B0EE670ACEE7EF
:1092F000DB0F4940DB0FC940E4CB1641DB0F49C00F
:10930000E4CB16C1DB0FC93F92E741B99730083C67
:1093100015A82ABE00000000DB0FC9BF10B44C091D
:10932000012250F8243001F01F0102FA01F123EA72
:10933000010340F824305DF8044B704710B44C0929
:10934000012250F8243001F01F0102FA01F10B4311
:1093500040F824305DF8044B70474B0901F01F01C1
:1093600050F82320012303FA01F1114214BF1846DB
:10937000002070472DE9F043002489B006460D46D1
:109380001F46A04605E025290CD030460134A847E9
:10939000039A531C039311780029F4D1204609B095
:1093A000BDE8F083931CCDE903385078302842D0D3
:1093B000A0F13003DBB2092B4FF0000945D96C282E
:1093C0002AD0642873D019D9732858D063D9752846
:1093D00040F0828007F1040C386805AB00220A21B6
:1093E0006746FFF79FF805AB049A009329464B4662
:1093F0003046FEF7A3FE039A0444CAE725283CD072
:1094000051D958286BD06328C2D139783046A84743
:1094100004370134039ABCE7039B5A1C03921B7860
:10942000642B52D016D8252B27D064D9582B18D0AE
:10943000632BEAD0ADE7D31C03939078A0F13003FF
:10944000DBB2092B4FF00109B9D804AA03A940F0F7
:10945000E3F9B4E7732B12D051D9752B2DD0782BAB
:1094600097D1A3F15802B2FA82F23868520905ABDB
:1094700010210437FFF756F8B5E7252185E73B684B
:10948000049A0093294600233046FEF757FE04371E
:109490000444039A7DE76E287FF47AAF039A3B6811
:1094A00004371C6075E700283FF478AF70E7386830
:1094B00005A9FFF701F8043795E7386805AB0022E6
:1094C0000A21FFF72FF804378DE73B1D386805A9FF
:1094D0001F46FEF7F1FF86E778287FF459AFA0F129
:1094E0005802B2FA82F23868520905AB1021FFF730
:1094F00019F8043777E7002B3FF450AF49E76E2B9C
:10950000CDD046E710B5064C0B460246054920680B
:10951000FFF730FF2068BDE8104018F023B800BF07
:10952000D42D0020ED8800080CB407B510F0200001
:109530000BD079B92320FFF703FC05A9049801910A
:10954000FFF7E0FFFFF714FC012003B05DF804EB28
:1095500002B070470020F8E70CB4C30607B500D589
:1095600061B905A904980191FFF7CCFFFFF700FC52
:10957000012003B05DF804EB02B070470020F8E76B
:109580002DE9F74F824640F21620FFF72FF9214BC5
:109590001B78D0E901490BB9A1461C46002619F8F1
:1095A000065055B309EB060393F8018084B30023FA
:1095B000E15CA94204EB030225D15378A3EB080236
:1095C0002F09D2F1000B4BEB020B403705F00F05D2
:1095D0004CB143B1013BCDE900530F4A3B465946DC
:1095E0005046FFF7A1FF08F1FF33CDE900530A4AC7
:1095F0003B4659465046FFF7AFFF03363F2ECED1CC
:1096000003B0BDE8F08F03333F2BD1D10023D5E762
:109610002346D3E728150020405405082DE9F04FD4
:10962000354C87B08046354A2378608802EB830347
:10963000D3F82891FFF7DAF8D0E901A30493304B6F
:109640001B7813B9CDF810A09A4608F04003DFF854
:10965000BCB005930026A379002B08BF01239E42CE
:1096600006DB284B08349C42DDD107B0BDE8F08F03
:109670006279237906FB0323049A0136D55CBAF19B
:10968000000F11D1B5FA85F77F090DB305F00F036F
:109690002D0940350293CDE900654B465A463946BF
:1096A0004046FFF759FFD6E71AF80330EA1A574247
:1096B0005741C3B103F00F021B0940330292CDE9B9
:1096C00000635A464B4639464046FFF72DFFDCE71C
:1096D000059B002BBFD100964B460B4A39464046AE
:1096E000FFF73AFFB7E700964B46074A3946404630
:1096F000FFF71AFFC9E700BF48EF0408E8EE0408C7
:109700002815002010F00408665405085054050878
:109710002DE9F04F4A4085B098461D4FD343064689
:109720000D4600240393204631F002FA0E9B1842A6
:1097300028D0039B174ADFF860A0034214BF4FF004
:1097400001094FF0000910EA050302934FF00C03E2
:1097500003FB04234946D3F808B0CDF800B014BF8A
:109760003A46524643463046FFF7DEFE029ACDF8AF
:1097700000B04346002A14BF52463A464946304696
:10978000FFF7EAFE0134182CCDD105B0BDE8F08F0B
:1097900040550508BC3505087A54050870B50646DD
:1097A00043F09AF8114C054690B111220021204651
:1097B00045F046FB2A460E49304645F06DFB38B170
:1097C000102D2A46314628BF1022204645F076FB50
:1097D0002378064A002B08BF0121054B1CBF00213E
:1097E00013460120034ABDE87040B5E6E46100205D
:1097F0004FAD05089556050870B5054643F06CF861
:10980000044690B1112200210F4845F019FB224671
:109810000E49284645F040FB38B1102C2246294617
:1098200028BF1022084845F049FB094B13F8112FB7
:10983000002A064A06BF012113460021054A0120DD
:10984000BDE8704088E600BFF56100204FAD050817
:10985000E4610020815405082DE9F04F002489B00F
:10986000834692460D4626464FF019094FF461781B
:10987000BAF1000F22D004EB84030AEB03070522A0
:1098800039462846079345F0B3FA3A79079B19FB06
:1098900002820492FA781AF8033019FB02820392CA
:1098A000BA780292B0FA80F67A780192760900933B
:1098B000104A234631465846FFF736FE2B790D4AAB
:1098C00019FB03830493EB7819FB03830393AB78B1
:1098D00002936B78019315F8053B009331462346BC
:1098E00058460134FFF738FE0A2CC1D109B0BDE853
:1098F000F08F00BF915405082DE9F047344F8CB02C
:109900000646894615460024C4EBC40309EB03024E
:10991000106891889279089040F30748ADF82410B8
:109920008DF82620B8F1000F4AD0002D4DD02B44E1
:109930000AA918689A880A909B79ADF82C2008A883
:1099400007228DF82E3045F053FA9DF82E300693FD
:109950009DF92D3005939DF92C3004939DF82B3003
:1099600003939DF92A300293B0FA80FA9DF82930CA
:1099700001934FEA5A1A9DF8283000933A4623463D
:1099800051463046FFF7D0FD9DF8263006939DF9ED
:10999000253005939DF9243004939DF82330CDE9BB
:1099A00002839DF8213001939DF8203000933A46C0
:1099B0002346514630460134FFF7CEFD102CA3D18B
:1099C0000CB0BDE8F047FFF7D3B9AA46DCE700BF0B
:1099D000A75405082DE9F04FDFF818B189B080468B
:1099E000894616460D4614460027002E6DD00C22DF
:1099F0002146284645F0FCF994F90B30049394F97C
:109A00000A300393B4F908300293B4F90630019395
:109A1000B0FA80FAB4F9043000934FEA5A1A3B4680
:109A20005A4651464046FFF77FFD95F90B300493A7
:109A300095F90A300393B5F908300293B5F9063069
:109A40000193B5F9043000935A463B4651464046CF
:109A50000137FFF781FD082F05F10C0504F10C0417
:109A6000C3D10024DFF890A0254686B30027012348
:109A700003FA07FB325959F8043053403BEA030319
:109A800014BF0123002312EA0B0F079306D000979F
:109A90002B46524607994046FFF746FD59F80430D9
:109AA0001BEA030F06D000972B4652460799404603
:109AB000FFF752FD01370E2FD9D10135082D04F1E2
:109AC0000C04D2D109B0BDE8F08FB246ADE73746FD
:109AD000012359F80420BB40134206D000972B46BF
:109AE000524601214046FFF737FD01370E2FEFD1D7
:109AF000E3E700BFC4540508DC5405082DE9F04F26
:109B0000064685B0884614468946924600270025B9
:109B100009EB050393F8C0300393002C64D00AEBE3
:109B20000503039A93F8C030D01AD0F1000B4BEB29
:109B3000000BCDE900532E4A3B4659463046FFF70D
:109B4000F3FC039B2A4ACDE9005359463B46304675
:109B50000135FFF701FD062DDAD10137062F09F196
:109B600006090AF1060AD2D1DFF884B008F1E40A46
:109B700000251AF8019B002C38D063195A4693F837
:109B8000E430A9EB03014F424F41CDE90053394680
:109B900006233046FFF7C8FCCDE900590623144AD6
:109BA000394630460135FFF7D7FC0B2DE1D198F847
:109BB000EF506CB194F8EF300193EA1A54425441DB
:109BC000002300930A4A072321463046FFF7ACFCE6
:109BD0000023009301950723054A21463046FFF7ED
:109BE000BBFC05B0BDE8F08FA346AAE72746D3E744
:109BF000F15405082DE9FF47DFF868A0814690463B
:109C00000F4614460025B8F1000F28D00422214643
:109C1000384645F0EDF8E3780293A3780193B0FA63
:109C200080F62388009376092B46524631464846F3
:109C3000FFF77AFCFB780293BB78019337F8043B7B
:109C4000009352462B46314648460135FFF784FCC7
:109C5000102D04F10404D6D104B0BDE8F0874646C7
:109C6000E8E700BF055505082DE9F04FDFF86880EB
:109C70008FB007468A46164600240DF124095AF88B
:109C800024300293494602A841F0BEFD16B356F8AF
:109C90002430029D0393EB1A5D420DF1100B5D41E0
:109CA000594603A841F0B0FDCDF800B02346424626
:109CB00029463846FFF738FC2346CDF80090424647
:109CC000294638460134FFF747FC202CD7D10FB086
:109CD000BDE8F08F3546EFE7175505082DE9F74F3A
:109CE000DFF864A081468B4617460E46002447B332
:109CF00007EB840804224146304645F079F8B8F86D
:109D000002300193B0FA80F537F8243000936D09E2
:109D10002346524629464846FFF706FC73880193BE
:109D20003BF82430009352462346294648460134E6
:109D3000FFF712FC042C06F10406D8D103B0BDE8ED
:109D4000F08F3D46EAE700BF215505082DE9F04FA9
:109D50002DED088BDFF80C9193B0804692460D46AE
:109D60001446002695ED008AB5EE408AF1EE10FA11
:109D700070D0D5ED019A95ED029AD5ED038ABAF12E
:109D8000000F3ED094ED000A94ED01BAD4ED02AA82
:109D900094ED03AAB4EE408AF1EE10FA5FD1F4EE2E
:109DA0004B9AF1EE10FA5AD1B4EE6A9AF1EE10FA2B
:109DB00055D1F4EE4A8AF1EE10FA0CBF01270027C4
:109DC0000FA8FEF7B1FEB0EE4B0A83460CA8FEF7D3
:109DD000ABFEB0EE6A0A059009A8FEF7A5FEB0EE4C
:109DE0004A0A049006A8FEF79FFE059B049A03907A
:109DF0000292CDE900B34A46334639464046FFF762
:109E000093FBB0EE480A0FA8FEF78EFEB0EE690A8B
:109E100007460CA8FEF788FEB0EE490A834609A85B
:109E2000FEF782FEB0EE680A049006A8FEF77CFEFC
:109E3000049B0390CDE901B3009733464A460021C5
:109E400040460136FFF788FB082E05F1100504F1A6
:109E5000100487D113B0BDEC088BBDE8F08F00274C
:109E6000AEE700BF325505082DE9F04F834689B0B3
:109E700092460D46144600264FF019094FF46178BA
:109E8000BAF1000F45D00A222146284644F0B0FF1F
:109E900023890793E388069323790593E378049352
:109EA000A3781D4A19FB03830393637819FB03838B
:109EB000029323780193B0FA80F7637900937F09C6
:109EC000334639465846FFF72FFB2B890793EB881B
:109ED00006932B790593EB780493AB780E4A19FB24
:109EE000038303936B7819FB038302932B7801930D
:109EF0006B7900933946334658460136FFF72CFB01
:109F00001E2E05F10A0504F10A04B9D109B0BDE815
:109F1000F08F5746D9E700BF465505082DE9F04FA9
:109F20002E4EDFF8C0A087B0814690460D461446FD
:109F300002F1280B95F9022000232949591891F9BB
:109F40000610914245D00833282BF6D108345C45E1
:109F500005F10805EED107B0BDE8F08F08222146D3
:109F6000284644F045FF627994F9023056F82220E1
:109F70000492A27956F822200392227956F82220E0
:109F80000292E27856F822200192B0FA80F72288F5
:109F900000927F09524639464846FFF7C5FA6A796A
:109FA00095F9023056F822200492AA7956F8222018
:109FB00003922A7956F822200292EA7856F8222053
:109FC00001922A880092394652464846FFF7C4FA61
:109FD000BCE7B8F1000FC1D14746E0E740300508C3
:109FE000489300206A5505082DE9F04FDFF8DCA002
:109FF00087B0814690460D4614460026B8F1000F02
:10A0000061D006222146284644F0F2FEB0FA80F7DD
:10A01000207839F00BF8834660797F0939F006F82B
:10A02000BBF1000F1DD09BF80810A27894F803B084
:10A0300094F801C04FF4617E192313FB02E213FB75
:10A040000BE394F804E000B1007ACDE90223CDE9F6
:10A0500004E0CDE9001C3346524639464846FFF736
:10A0600063FA287838F0E2FF8346687938F0DEFF3B
:10A07000BBF1000F1DD09BF80810AA7895F803B02B
:10A0800095F801C04FF4617E192313FB02E213FB24
:10A090000BE395F804E000B1007ACDE90223CDE9A5
:10A0A00004E0CDE9001C3346524639464846FFF7E6
:10A0B00053FA0136142E05F1060504F106049DD16C
:10A0C00007B0BDE8F08F4746CBE700BF87550508CE
:10A0D00038B504460D460848FEF73AFE29462046A4
:10A0E000FFF710FA0548FEF733FE054B1B7813B156
:10A0F000044B01221A7038BDA0550508AB55050860
:10A10000302F0020312F00200FB407B504A951F8DB
:10A11000040B0191FFF7DCFFFEF72AFE03B05DF8A8
:10A1200004EB04B0704713460A4601460048EBE7CB
:10A13000AF5505080048E7E7C85505080FB407B54F
:10A1400004A951F8040B0191FFF7C2FF03B05DF8B9
:10A1500004EB04B070470FB407B504A951F8040B21
:10A160000191FFF7CFF9FEF703FE03B05DF804EBB2
:10A1700004B0704713B5324B324C012818BF1C464F
:10A180002378022B55D1A36813B11A689B88538397
:10A19000F52160683CF0D0FA01230DF1070200219F
:10A1A00060683CF01BFBA36813B11A689B8813839B
:10A1B0009DF807102448FFF7CEFF2378022B3AD1F1
:10A1C000A36813B11A689B8853839A2160683CF096
:10A1D000B3FA01230DF10702002160683CF0FEFA9A
:10A1E000A36813B11A689B8813839DF8071017485A
:10A1F000FFF7B1FF2378022B1FD1A36813B11A68B0
:10A200009B8853839B2160683CF096FA01230DF1F3
:10A210000702002160683CF0E1FAA36813B11A68F4
:10A220009B8813839DF807100948FFF794FF02B03D
:10A2300010BD0021BEE70021D9E70021F4E700BFEF
:10A2400040070010B0000010D4550508E755050878
:10A25000FA55050838B50B4C207910F0FD0505D1ED
:10A260000948FFF778FF2846FFF784FF2379013B71
:10A27000012B06D80548FFF76EFF0120BDE83840E6
:10A2800078E738BDE41B00200D5605081856050870
:10A29000034B044A04491B681268096803485AE7DB
:10A2A000187AFF1F147AFF1F107AFF1F2356050824
:10A2B00038B5044642F010FB0546D8B1104B1B7868
:10A2C00083B1104842F008FBA842024604D121465F
:10A2D0000C4844F0E1FD50B10A4A0B490B48BDE877
:10A2E000384011E704222146064844F0E7FD084BB8
:10A2F00001225A7003490748BDE838402BE700BFE8
:10A30000D1640020A0640020375605084756050890
:10A31000281500207156050838B5044642F0DCFACD
:10A320000546D8B1104B1B7883B1104842F0D4FADF
:10A33000A842024604D121460C4844F0ADFD50B17C
:10A340000A4A0B490B48BDE83840DDE61422214695
:10A35000064844F0B3FD084B01225A7003490748F0
:10A36000BDE83840F7E600BFD164002088640020D3
:10A370008456050847560508281500208F560508FD
:10A380000FB407B504A951F8040B0191FFF7BAF80F
:10A3900003B05DF804EB04B0704738B50A4B03EB2B
:10A3A000C0040D4694F86020084803EB8203D3F8FC
:10A3B0002811FFF7E5FF94F8663023B1691C0448C3
:10A3C000BDE83840DCE738BDE8EE0408049E050827
:10A3D0000D5A050870B5364C3648FEF7B9FC94F8AE
:10A3E0002530012B5ED13448344EFEF7C5FC94F87D
:10A3F0002C300BB1238D13B194F8263043B9B6F845
:10A4000098502F48FEF7A4FC8DBB2E48FEF7B4FCF5
:10A410002D482E4DFEF79CFC94F82B3005EB830362
:10A42000D3F81C02FFF797FEB6F894102848FFF700
:10A43000A7FF94F826302BBB2648FEF79DFC264844
:10A44000FEF786FC94F82C3005EB8305D5F8240242
:10A45000FFF781FEB6F896102048FFF791FF94F8B9
:10A460002C309BB91E48BDE87040FEF785BC4FF408
:10A470007A72B5FBF2F102FB115292B21948FFF762
:10A480006AFEC5E71848FEF777FCD8E7238D23B9A5
:10A490001648BDE87040FEF76FBC1548BDE8704037
:10A4A000FEF76ABC1348BDE87040FEF765BC00BF0C
:10A4B000388900209D560508B35605083431001030
:10A4C000BA560508D5560508E7560508E8EE04080B
:10A4D000FD5605081A5705082A5705084557050867
:10A4E00068570508DF560508215705081B5705085A
:10A4F000225705086D5705087FB50A4B04930A4B90
:10A5000003930A4B02930A4B01930A4B00930A4AA6
:10A510000A4B0B490B48FFF733FF07B05DF804EB1C
:10A52000FEF726BCB1570508B6570508C057050801
:10A53000C9570508D5570508EC6205080F750020B6
:10A540007B570508865705082DE9F04F6C4BDA78E4
:10A5500093B09846002A00F0A7806A48FEF70CFCEA
:10A560000025DFF8D4A1DFF8D4B10795A94608A9E2
:10A57000E8B235F01FFA9DF82830002B6ED0022D7E
:10A5800040F09F809DED117AB5EE407AF1EE10FA21
:10A5900000F08E80DFED5C6AC6EE877AFDEEE77A2A
:10A5A000F8EEE77AFDEEE77A17EE906A9AF8004047
:10A5B000089B012C7ED996FBF4F41A4602215348DD
:10A5C000FFF7DEFE0D9A002A00F0908041F28830FD
:10A5D00002FB04004FF47A73B0FBF3F00F9B002BE7
:10A5E00000F0868041F2883103FB04114FF47A7C3D
:10A5F000B1FBFCF1062D03D0079F0F448144079760
:10A6000098F803C0BCF1000F74D04FF47A7C0E9F11
:10A61000B7FBFCFCCDF810C04FF00A0C91FBFCFE20
:10A620000CFB1E11CDE902E190FBFCF10CFB1100CB
:10A63000CDE9001021463648FFF78DFD022D08D1E7
:10A640009AF80030012B04D9324609995846FFF791
:10A6500082FD304B03EB851300229A630135182DE0
:10A6600085D198F80330E3B12B4B2C4819682C4B5B
:10A670001A684FF47A73B1FBF3F32A495209096857
:10A68000FFF769FD0798079B0A2293FBF2F302FB91
:10A69000130799FBF2F1009702FB11922248FFF792
:10A6A0005AFD13B0BDE8F08F2048FEF765FB57E771
:10A6B00000267BE7099A1E480221FFF761FE344617
:10A6C00080E7109C5CB107EE904ADFED0F6AF8EE70
:10A6D000677A86EEA77AFDEEC77A17EE904A089A57
:10A6E0000A482946FFF74CFE00266BE7104675E73F
:10A6F00019467FE721460F48FFF72DFD9EE700BF73
:10A7000008750020DB5705080024744930580508F7
:10A7100052580508200F0020AC6700208658050815
:10A72000A4670020B0670020A65805082658050831
:10A730003F580508825805087832002076580508E9
:10A740002DE9F04F014691B006468648864DFFF749
:10A7500002FD864B8649C3F800D000232B70854B41
:10A76000097840241C7006220123304634F0A8F8F2
:10A770000A2012F0E7F82B78DBB20C2B40F2ED80C8
:10A780009DF80C90B9F1FE0F2ED0B9F1FF0F15BF57
:10A790000F241524002601269C4240F0DE80611E15
:10A7A000C9B2684626F0DEFE10AB1C4414F8413CEA
:10A7B000834240F0CE8006F1FF38B8F1010F9DF8DA
:10A7C0000D4013D904F01F07650961374C466A48EC
:10A7D000FEF7BEFA022E71D0013D042D6AD8DFE8E3
:10A7E00005F00A5D616965000226D5E79DF80E70E7
:10A7F0009DF80F50EBE76148FEF7BEFA6048DFF8BE
:10A80000D491DFF8D4B1FEF7A3FA00254FF0030A84
:10A810001DF8051048460135FFF7B2FD0C2D55D146
:10A82000FEF7A6FA022E5BD06422B4FBF2F102FB23
:10A8300011423B46D2B2C9B25248FFF78CFC5FFAD4
:10A8400088F8B8F1010F7BD84F4A504B9DF8101093
:10A850004F48504D00290CBF11461946FFF77BFCAD
:10A860009DF811104C4B4D4800290CBF2946194644
:10A87000FFF771FC022E63D19DF812404848FEF7A5
:10A8800067FA9CB3FF2C41D00A22B4FBF2F102FB21
:10A890001142D2B24348FFF75EFC2AE04248FEF77D
:10A8A0006BFAABE74148FEF767FAA7E74048FEF7C7
:10A8B00063FAA3E73F48FEF75FFA9FE700230DF135
:10A8C0001F008DF83F30FEF757FA97E795FBFAF334
:10A8D00003EB43039D429BD15846FEF739FA97E7B5
:10A8E0003A4621463448FFF736FCA8E72846FEF7EB
:10A8F00043FA9DF813403148FEF72AFA54B1FF2C71
:10A9000021D021462E48FFF726FC06E02D48FEF711
:10A9100033FAEEE71F48FEF72FFA1E4D1E4E294F61
:10A9200000240DEB04031A7D8AB1FF2A14BF3246BE
:10A930003A46214624480134FFF70DFC042CF0D19F
:10A9400011B0BDE8F08F1F48FEF716FAE5E72A467A
:10A95000EFE71E48FFF7D8FBF2E71D48FEF70CFAB9
:10A96000EEE700BFF4580508B63A0020A83A0020E8
:10A9700040270010B73A002005590508105905086E
:10A980003E59050855590508DD580508D4580508ED
:10A990008C590508E4580508FF9E0508A3590508C9
:10A9A000AA590508BE590508175905081F59050871
:10A9B000275905083659050871590508C65905086B
:10A9C0000E5A0508E8580508D6590508E159050842
:10A9D000F1590508505905084FAD05082DE9F0411A
:10A9E000037903F0600120292CD002D851B1BDE8D1
:10A9F000F08140294AD06029F9D12748BDE8F041CB
:10AA0000FFF7A9BB03F00703022B02D0042B09D0E8
:10AA10007BB9B0F80720B0F805102048BDE8F04138
:10AA2000FFF799BBD0F805201C48BDE8F041FFF7BF
:10AA300092BBB0F90720B0F905101848BDE8F04105
:10AA4000FFF789BB4679164D164805EBC605FEF79C
:10AA50007FF995F8347200240123A74203D8BDE89A
:10AA6000F041FEF785B9D5F8306256F824204FEA58
:10AA700084084AB113B90C48FEF76AF956F8081071
:10AA80000A48FFF77DFC00230134E6E741790848D6
:10AA9000BDE8F041FFF75FBB365A0508FA590508D3
:10AAA000E8EE0408115A0508225A0508049E050814
:10AAB000255A05082DE9F0411746027902F0600396
:10AAC000402B05460C462BD10026544FDFF86881F9
:10AAD00015E02B7903F00703022B15D0032B19D0B7
:10AAE000012B14BFA15DA1573846FFF749FC6B79D4
:10AAF000013BB34202DD4046FEF72AF901366B798D
:10AB0000B342E6DCBDE8F08134F816103846FFF7B2
:10AB100037FCECE734F916103846FFF731FCE6E76E
:10AB200002F00702042A6CD8DFE802F0031E27298E
:10AB30002C002478202B3DD0602B4BD0002BE1D172
:10AB4000B5F80560B5F8078034482146FFF718FCD2
:10AB5000A6424DDCA0454BDB002FD3D04246314608
:10AB60002F48BDE8F0410BE494F90040202B21D0A0
:10AB7000602B2FD0002BC5D14BE02488DAE7B4F945
:10AB80000040F3E72668202B344613D0602B21D0F9
:10AB9000002BB7D131462148FFF7F2FBD5F805105D
:10ABA0008E4225D8002FADD01E48BDE8F041FFF7FA
:10ABB000E7BB00246A791C4B03EBC20393F83422F1
:10ABC000A24215DDD3F8303253F82400BDE8F0413D
:10ABD000FEF7BEB86A791441E30704D51348BDE80F
:10ABE000F041FFF7CDBB1248BDE8F041FFF7C8BB0D
:10ABF000FEF7BEF8224629680E48BDE8F041FFF78F
:10AC00009DBA202BD5D0602BEDD0002B7FF47AAFEE
:10AC10001C46B5F90560B5F9078095E70E5A050899
:10AC2000BD540508505A0508E8EE04084B5A0508BB
:10AC3000FAAC0508565A05084E5A050838B50D46AF
:10AC40000446FDF7E9FD2A4601462046BDE83840A6
:10AC500030E72DE9F74FDFF8C4B081468A4600257A
:10AC6000D8462B4B0D2418686C4316F07BFC04EB84
:10AC70000B031B7903F018034B4504D0B9F1000F07
:10AC80003ED1182B3CD10D2303FB05820093B2F873
:10AC90000900FDF7ABFD444407462046FDF7B8F92F
:10ACA000D7E901210646024401442046FDF7E8F9B0
:10ACB0001AF0100F0246009B00D008BB03FB05836F
:10ACC0001AF0200F1B680FD072B919461148009373
:10ACD0000192FFF755FB7968019A31442046FFF74E
:10ACE000E9FEFEF745F8009B0B481946FFF748FBC5
:10ACF000B968002231442046FFF7DCFEFEF738F841
:10AD0000013540F2D7139D42ABD103B0BDE8F08FBF
:10AD1000D42D0020705A0508715A050814F604084D
:10AD20000EB400B584B005AB019053F8042B06496E
:10AD3000039301A8FEF71EFB019B00221A7004B0CA
:10AD40005DF804EB03B07047338100080246531CE2
:10AD5000084605D1034A11681279016002717047F3
:10AD60000149DDE7365405080E5A0508F8B5084FC5
:10AD70004D1E064601F11F0415F8012F30463946D5
:10AD8000FFF7CEFFA54206F10206F5D1F8BD00BFE0
:10AD90005059050870B406688E4217D90139751EDE
:10ADA000002311F8014F0822634013F0800F4FEA8F
:10ADB000430318BF83F0D503013ADBB2F5D18D42CE
:10ADC000EFD1721C0260337070BC7047721C00239C
:10ADD0000260337070BC70470A44914215D010B4C1
:10ADE0000139541E11F8012F0823504010F0800F34
:10ADF0004FEA400018BF80F0D500013BC0B2F5D14A
:10AE0000A142EFD15DF8044B7047704748400823DA
:10AE100010F0800F4FEA400018BF80F0D500013BD2
:10AE2000C0B2F5D170470A44914215D030B401390F
:10AE3000551E41F2210211F8014F082380EA042037
:10AE400004044CBF82EA40004000013B80B2F7D1CD
:10AE50008D42F0D130BC7047704770B50222134963
:10AE6000134C144E4FF6FF70FFF7DDFF22884AB1F6
:10AE7000A518B54218D2052A16D92146FFF7D3FFE7
:10AE80002C46F3E721460222FFF7CDFF0222A1184C
:10AE9000FFF7C9FF084BE41A084B5C8041F60F53DB
:10AEA000C31A5842584170BD0020FCE7004000081A
:10AEB0000240000800800008FA3F00082815002022
:10AEC0000F4B2DE93048D3E9004554EA05020AD179
:10AED000034640F2011200201880988098715A8031
:10AEE0001881BDE83088074B1A6814EB020B45F156
:10AEF000000C5A466346FDF75CF90120BDE8308836
:10AF0000B8440020486B002030B403888278C478AD
:10AF1000154DA3F5FA6303F0030101EB4101013A7A
:10AF200002EB81029B0835F812500279611E40F253
:10AF3000B55404FB03132B4403EB430302EBC3039D
:10AF40004279847909490089C3EB031302EB830337
:10AF50002144C3EB031301EB83034FF47A72002106
:10AF6000C2FB030130BC7047E8EE040880436D3833
:10AF70002DE9F04707468CB01E469246002A5CD168
:10AF8000154614460A88B2F5FA6F36D38B78581EE8
:10AF90000B2832D891F803C00CF1FF301E282CD8B2
:10AFA00091F804E0BEF1170F27D891F80590B9F198
:10AFB0003B0F22D888793B281FD8B1F80880B8F514
:10AFC0007A7F1AD24FF001085EBB09890491002CE8
:10AFD000B4BF2D212B21002CB8BF6442CDE90290D3
:10AFE000CDE905140795CDE900CE38462A49FFF78B
:10AFF00097FE40460CB0BDE8F08700232749ADF826
:10B0000028304FF0010C18468DF82A30ADF82C305E
:10B0100099469E461A4698460991634609A9002E0C
:10B02000D3D0CDE90290CDE900CE38461C49FFF7D8
:10B0300077FE40460CB0BDE8F0871A4C84FB023422
:10B04000A318D417C4EB6314C4EB0415A2EB850555
:10B050002DB2002D0846B8BF6D42FFF755FF4FF4E3
:10B060007A7200238046894642F02CF93C230AFB81
:10B07000030A4FF47A7200234046494642F022F90F
:10B080004FF47A7192B20023C1FB0A2309A8FDF79D
:10B0900090F824B209A975E71C63050800000101B6
:10B0A000FC620508898888882DE9F04FAD4BAE49D0
:10B0B0001A68AE48AE4BB2FBF3F297B0FFF760F9F7
:10B0C000AC4BAD4FDFF87883BD680FCB0AAE86E896
:10B0D0000F00C5F38105A94B0593012DA84BC8BFEF
:10B0E0007C68069316AB03EB8503C8BFC4F380549A
:10B0F000012D53F8301CD8BFA24AA348C4BF16ABD9
:10B1000003EB8404A8F57276C8BF54F8442CFFF70B
:10B1100037F934F03DF94FF47A729C4BB0FBF2F101
:10B1200002FB1102B3F900300A2089B292B2B2FBDD
:10B13000F0F29748FFF70FF8964A97499748FFF7BC
:10B140001FF9FDF715FE964B964A9748D21A974B72
:10B150005988FFF700F8964BD3F80090002406F5C5
:10B160007A7A58F82470A30007B30125A54015EAA0
:10B17000090F19D0EA0617D08E4A53F80A30125D2B
:10B1800053F822B014B18C48FDF7E2FD5A46394617
:10B190008A48FFF7F5F8022D06D1894B93F8251060
:10B1A00011B18848FFF7ECF80134DAE7FDF7E0FD6C
:10B1B000854B864819684FF47A73B1FBF3F1FFF7BA
:10B1C000DFF807A8FFF77CFE58B1814A07A93B4684
:10B1D000B2F900200EA8FFF7CBFE0EA97D48FFF7BD
:10B1E000CFF8FDF7C5FD7C49D1F89C20002A00F07E
:10B1F000A18007EE902ADFED796AB8EEE77AC6EE15
:10B20000877AFDEEE77ACDED037A754B1B885BB14B
:10B2100007EE903ADFED716AF8EE677A86EEA77A6C
:10B22000FDEEC77A17EE903AC96959B107EE901A48
:10B23000DFED6A6AF8EEE77A86EEA77AFDEEC77A66
:10B2400017EE901A6748684F00886428CDE90031EE
:10B250000146039B6548A8BF6421FEF77CFF644B51
:10B26000644A1B78644912780988644806EB8306AF
:10B270000125D6F8FC33624EFEF76DFF00216148D0
:10B28000FEF769FF6048FDF763FD604B1C68002C0A
:10B2900052D1FDF76DFD5E4B1B78002B47D05D4B07
:10B2A0005D4819685D4D5E4E5E4FFEF754FF5E4B84
:10B2B0005E481968FEF74FFF5D4B5E481968FEF760
:10B2C0004AFF2B7821468B4204F1010442DC5A4BA1
:10B2D0005A4D9B78DFF86C91092B0BBF6026142622
:10B2E0004FF008084FF0200800242F4655F824108E
:10B2F00048460134FFF744F8A045F7D1FDF738FD83
:10B30000DFF84081012507EB850257F8253052F818
:10B31000041C33445B1A404693FBF6F1023506FBEE
:10B320001131FFF72DF8A542EDDBFDF721FD17B038
:10B33000BDE8F08F039268E794FAA4F3B3FA83F3BD
:10B3400005FA03F256F82310384624EA0204FFF700
:10B3500017F89CE706EB0423384633F8EE2CFEF78B
:10B36000FAFEAEE7587600207B5A0508805A050899
:10B3700040420F00A0F2040800380240935A05082A
:10B38000985A05084B6105089D5A05088445002018
:10B39000A55A0508F0FF001000080000C65A05086D
:10B3A0000040000800800008EA5A0508281500201F
:10B3B00074470020F8010020225A0508145B050894
:10B3C000482700101A5B0508486B00201E5B050823
:10B3D00034540020385B0508200F002000247449F5
:10B3E00050320020D4120010D85C05084B5B0508D1
:10B3F000054E0020D2430020CC430020915B05087D
:10B4000070320508B85B0508C75B05087047002067
:10B41000BC30001008670020DD5B050840270010E5
:10B42000B4770020195C0508BC270010ED5B050807
:10B430001C000010045C0508987700202000001014
:10B44000B0F20408305C0508F8B506461546084613
:10B45000B6FBF2F434B905FB14640C4B1B5D00F829
:10B46000013BF8BDB4FBF2F75FB905FB1747074B8B
:10B4700005FB1464DA5D00F8012B1B5D00F8013B4D
:10B48000F8BD3846FFF7E0FFEFE700BF4C63050863
:10B4900002B370B48E1803E0121B14D1B14215D060
:10B4A00010F8012BA2F14103192B11F8013BA3F174
:10B4B000410598BF2032192D03F12004ECD9D21A8E
:10B4C00001D1002BEAD1104670BC70470022104613
:10B4D00070BC70471046704738B5052216490446BF
:10B4E000FFF7D6FF58B9154A13781BB9012111701F
:10B4F000134A13701348BDE83840FDF73DBC0322E2
:10B5000011492046FFF7C4FF80B90C4C0C4D22783E
:10B5100042B12B7833B10D48FEF7F6FD00232370BE
:10B520002B7038BD0A48FDF727FCF7E70948BDE84E
:10B530003840FEF7E9BD00BF489E0508302F0020C7
:10B54000312F0020345C0508BE9F05084A5C0508C1
:10B55000815C0508955C05082DE9F047204FDFF870
:10B560008880DFF88090DFF898A00546284641F0F3
:10B57000B3F9064650B91B4B1B4A1B781B48013BCD
:10B58000BDE8F04752F82310FEF7E5BD0246394604
:10B590002846FFF77DFF78B91548164C164DFDF784
:10B5A000D7FB54F8041F19B12846FEF7E9FEF8E767
:10B5B000BDE8F047FDF7DCBB002458F8241021B9A2
:10B5C0000E48BDE8F047FEF79FBD32462846FFF71C
:10B5D0005FFF01340028F0D189F800405546C5E7E7
:10B5E0002B580508F824002050270508A45C0508FE
:10B5F000AE5C05084C270508D85C0508B95C050851
:10B600004B6105082DE9F84F80460E46174641F07C
:10B6100063F90446F0B94048404FDFF82081FEF757
:10B62000AFFE0C2520462FF083FA3368184205D070
:10B6300005FB047340469968FEF7A2FE0134182CFE
:10B64000F0D1336813B93648FDF782FBBDE8F84FF7
:10B65000FDF78EBB024633494046FFF719FF05460A
:10B66000B0B931482D4EDFF8C880FDF771FB2C468C
:10B670000C2520462FF05CFA384205D005FB046308
:10B6800040469968FEF77CFE0134192CF1D1DDE7C4
:10B6900098F800302D2B03BF08F1010804F1FF34A6
:10B6A000012500254FF0000A47F0807B1B4B0C2240
:10B6B00002FB0A324046D2F8089022464946FFF77C
:10B6C000E7FEF8B950462FF033FA1BEA000F19D005
:10B6D00075B1BAF1180F1CBF3768074337601348BC
:10B6E000FDF736FB49461248BDE8F84FFEF733BD7B
:10B6F000BAF1180F1CBF3568854335600D48FDF75A
:10B7000027FBEFE70AF1010ABAF1190FCED10A4877
:10B71000BDE8F84FFEF7F8BCC65C0508BC35050867
:10B72000D05C05082B580508AE5C0508DC5C0508F4
:10B73000D85C0508E55C0508B95C0508D75C050818
:10B740006FF07F4200495DE73868002040F2022236
:10B75000004957E7406800202DE9F843414E05466F
:10B7600041F0BAF8404B96F800801F680446B8F1E3
:10B77000000F16D03D4BD3F80090C4B93C483D4D66
:10B780003D4FFDF7E5FA012655F8241059B106FAA8
:10B7900004F313EA090F02D03846FEF7F1FD013435
:10B7A000F2E7B946E9E7BDE8F843FDF7E1BA22461A
:10B7B00032492846FFF76CFE78B93148314C324D9A
:10B7C000FDF7C6FA54F8041F0029ECD00B78002BC3
:10B7D000F8D02846FEF7D4FDF4E7B8F1000F03D106
:10B7E000224B1F60012333702B78DFF888902D2BBC
:10B7F00003BF013504F1FF344FF001084FF000089A
:10B80000002759F8276026B92048BDE8F843FEF71D
:10B810007BBC224631462846FFF73AFE00BB012397
:10B8200003FA07F2930504D51948BDE8F843FDF77C
:10B83000A3BA0E490B68B8F1000F0BD023EA02033C
:10B8400014480B60FDF784FA31460F48BDE8F84311
:10B85000FEF781BC134310480B60FDF779FAF3E75C
:10B860000137CEE7142A00208C890020182A0020F6
:10B87000ED5C0508BC270508F75C05082B58050892
:10B88000AE5C0508B8270508D85C0508B95C050852
:10B89000FB5C0508DC5C0508E55C050870B5044642
:10B8A00008460D4641F018F8064602E014F8013F3C
:10B8B00043B1324629462046FFF7EAFD0028F5D17C
:10B8C000204670BD1C46204670BD4FF0FF32FFF78A
:10B8D000DFBDA0F16103192B98BF203870472DE917
:10B8E000FF41074640F0F8FF08283CD1002201AE96
:10B8F000B85CFFF7EEFFB0540132082AF8D10024FB
:10B90000DFF86C808DF80C40385DFFF7E2FFC5B2C0
:10B9100030552946404643F0AAFA28B10134294659
:10B92000301943F0A4FA20B1FEF704FC04B0BDE8DE
:10B93000F081082CE8D10D4930460CF02FFC0B4C5F
:10B940000B4800231A5D04A90A44195C02F80C1C78
:10B950000133082BF6D1002301A906488DF80C30DD
:10B96000FEF7F9FBE2E70028E9D0DDE7388900209F
:10B97000B4100508075D0508A0F14103192B98BF15
:10B9800020307047202805D0093804288CBF0020BB
:10B99000012070470120704770B5044608460E46E6
:10B9A00040F09AFF3146054602462046FFF770FDFB
:10B9B00068B9635D1846FFF7E5FF00B933B9013593
:10B9C0002C44204601340378202BFAD070BD00208F
:10B9D000FCE72DE9F0411F46064603461C78204649
:10B9E000FFF7D0FF1D4601330028F7D12B2C51D093
:10B9F0002D2C24D0102A804628D04FF0FF33B3FBE3
:10BA0000F2F302FB03FC6FEA0C0C5FFA8CFC0135CD
:10BA100000200BE0303CE4B2944225DA98422E46F6
:10BA20001DD81AD002FB004015F8014B392CF1D972
:10BA300044F02004602C17D9573CE4B2ECE74FF0F7
:10BA40000108102A6C7805F10105D6D1302C23D0DD
:10BA50006FF070434FF00F0CD9E76445E2D907EA65
:10BA600008084FF0FF30DFE701B10E60B8F1000FBA
:10BA700008D027B1B0F1004F28BF4FF0004040423E
:10BA8000BDE8F081002FFBD06FF00043984228BF43
:10BA90001846F5E78046D4E76C782046FFF76CFF40
:10BAA000782805F1010605D035466FF070434FF058
:10BAB0000F0CACE7AC786FF0704302354FF00F0C11
:10BAC000A5E72DE9F0419AB0074640F005FF01AD2A
:10BAD000064620220021284643F0B2F916B3402E34
:10BAE00007D0402231462C48FEF70EFB1AB0BDE8C5
:10BAF000F0810024A046022207EB4401684643F08F
:10BB0000DDF90023102209A968468DF80280FFF7AD
:10BB100060FF099B0DF1020293421CD128550134AC
:10BB2000202CE8D14122002109A843F089F936B33D
:10BB30001A4B1B78A3B120221949284643F058F923
:10BB400070B109A81649FFF711F909AA1549164855
:10BB5000FEF7DAFACAE719781448FEF7D5FAC5E70E
:10BB600028460EF0CBFD124B0D49012209A81A718F
:10BB7000FFF7FCF809A90F48FEF7EDFAB6E70C4B02
:10BB80001B791BB9054B1B78002BF3D0044909A87E
:10BB9000FFF7ECF8EEE700BF0E5D0508D264002069
:10BBA000A86400204C5D050847560508305D05086F
:10BBB00028150020565D050801230A22002108E708
:10BBC00070B50D460D490646FFF77FFE10B9287087
:10BBD000012070BD3478602C8CBF613C413C072C47
:10BBE00001D90020F5E7701CFFF7E6FF0F28F8D811
:10BBF000013440EA04142C700120EAE736540508A9
:10BC00002DE9F341054640F067FE044628B90120BE
:10BC1000FDF7B6FC02B0BDE8F0810246484928466F
:10BC2000FFF736FC18B94748FEF76EFAF2E72246EE
:10BC300045492846FFF72CFC0028F4D0002401AA2F
:10BC400042498DF80340284641F00BFE002874D08D
:10BC50000DF10301FFF7B4FF00286ED09DF80360DB
:10BC6000304614F077F8002867D0394A2346154645
:10BC70004FF0FF3403EB4301895C8E420DD0601C12
:10BC800002D1002908BF1C460133152BF2D1631CD9
:10BC900004D13048FEF738FABCE71C4601AA2B490C
:10BCA000002041F0DEFD0646002846D02449FFF77B
:10BCB0000CFE38BB284E294FDFF8B08004460546FD
:10BCC000630199199DF803200879904214D19B597A
:10BCD0009B0AA3F58013522B12D818F803300D2BB2
:10BCE0000ED81F4AD2564B799B0829460133384655
:10BCF000FEF731FA0135EDB201344E2CE0D189E77F
:10BD00000022F0E717493046FFF7DFFD98B13046D3
:10BD1000FFF752FF013010F0FF000CD09DF8033008
:10BD200004EB44042A192B55FF23507093700E48DE
:10BD3000FDF722F86EE70346F2E7FEF7FBF969E745
:10BD40002B580508635D0508775D0508E260050866
:10BD5000187600207C5D0508043F0508905D050805
:10BD6000384D0508D25C0508A15D0508E44C0508BE
:10BD70002DE9F04F89B0044640F0AEFD02460028A0
:10BD800036D0AB492046FFF783FB88BBFCF7F0FFBA
:10BD9000A848A94DFCF7F0FF14242D21286815F0C0
:10BDA000EFFB013CF9D1FCF7E3FFA44DA44EA54FF6
:10BDB000DFF8E8822B7EE11006EB830304F0070234
:10BDC00001313846D3F82891FEF7DAFA6A7E4946FF
:10BDD00052B19D48FEF7BFF90134102C05F1200542
:10BDE000E8D109B0BDE8F08F4046FEF7B4F9F3E7BB
:10BDF00003AA9649204641F034FD064618B9412071
:10BE0000FCF712FFEDE79249FFF75FFD18B9914883
:10BE1000FEF77AF9E5E700258F4F2C46E9593046C1
:10BE2000FFF753FD00B97C190C35482DF6D14CB9FC
:10BE30008A493046FFF749FD20B131468848FEF770
:10BE400063F9CEE74FF0000B03AA80498DF80BB0E1
:10BE5000584641F006FD0646002C34D0FFF7ACFEF4
:10BE6000451E02D4A37A9D4207DB7E497E48002E00
:10BE700018BF3146FEF748F9B3E7E088FCF7B6FC97
:10BE80007A49D0E901230978002918BF1A46237A94
:10BE9000617A05FB031302EB030812F903A0D946EC
:10BEA00003AA6A49002041F0DCFC0746002846D17D
:10BEB0008CB3BAF1FF3F216805F1010225D16C482E
:10BEC000FEF749F98DE778B10DF10B01FFF778FE28
:10BED00028B19DF80B50284613F03CFF30B931468D
:10BEE0006448FEF711F97CE75E4EF8E7284615F046
:10BEF000F9F98246284610F015FB814628460FF0D6
