:020000040800F2
:10000000F0FF00103D4B0508DD7A0408E9650108A2
:10001000DD4B0508DD4B0508DD4B05080000000041
:10002000000000000000000000000000E97A040861
:10003000E57A040800000000E17A0408713E010836
:10004000DD4B0508DD4B0508DD4B0508DD4B0508DC
:10005000DD4B0508DD4B0508C9740108F57501087D
:10006000B97501087D750108417501085D04010835
:100070004D0401083D0401082D040108190401087C
:1000800005040108F1030108DD4B0508DD4B0508F7
:10009000DD4B0508DD4B0508DD4B0508057501083E
:1000A0009921010835270108C92001080528010800
:1000B00075260108B5250108E9240108450A01084B
:1000C0004D0A0108390A0108410A0108DD4B0508FB
:1000D000DD4B0508E93F0108DD4B05084D3F0108F0
:1000E0008D740108DD4B050801A70408F91F0108FC
:1000F00069220108291F010849230108DD030108BD
:10010000DD4B0508DD4B050819240108DD4B05080A
:10011000DD4B0508DD4B0508D9D70208C5D7020815
:10012000C9030108B5030108A10301088D030108F3
:1001300079030108DD4B0508DD4B0508DD4B05089B
:10014000DD4B0508DD4B0508DD4B05083D96040831
:1001500065030108510301083D030108B13E010890
:100160002D0A0108350A0108DD4B0508DD4B05089D
:10017000DD4B0508DD4B0508DD4B0508DD4B0508AB
:08018000DD4B0508DD4B05080D
:08018800E4460500010000003F
:10019000100201004C210020482100200000000036
:1001A0006C0700081F021000602100205021002071
:1001B00000000000458500081A023C009C41002018
:1001C0006044002000000000ED92000827000400B9
:1001D000984100209C440020000000006E070008A9
:1001E000012008006C580020585E0020000000002C
:1001F000720700080A7028004C570020605E00203B
:10020000000000004D8A03080EA06E01DC5500209E
:10021000885E002000000000C5FE01080101040006
:1002200038550020F85F00200000000000000000AA
:100230000001040030550020FC5F00200000000099
:100240007A070008020103002C55002000600020FE
:100250000000000015BB0208090201004C5D0020EF
:1002600004600020000000007E0700080C109C00C5
:10027000C0570020086000200000000095BA020866
:100280000102050044550020A46000200000000089
:100290008D8D010800020500A45B0020AC600020E9
:1002A00000000000000000001B021000705B002036
:1002B000B460002000000000DD8300081E0006007E
:1002C00004590020C46000200000000080070008DE
:1002D0001B100C0024460020CC6000200000000011
:1002E0000D9B01082102F000A8440020D8600020E6
:1002F00000000000E9990108031233009069002012
:10030000CC690020000000008607000825102C01A1
:100310006C670020006A0020000000000000000060
:1003200010100200506700202C6B0020000000001D
:10033000BA0700081A000E0000670020306B00208A
:1003400000000000BC070008190005003C66002002
:10035000406B002000000000CA070008F8210600DA
:10036000AC640020486B002000000000D0070008AB
:1003700015007000EC620020506B002000000000AF
:10038000000000002A006000A0660020C06B002072
:10039000000000009DFE01080702020028750020F1
:1003A0008475002000000000D8070008F6210C002A
:1003B000007500208875002000000000DC070008A0
:1003C00002000C00F474002094750020000000006E
:1003D0000000000006020C00E8740020A075002058
:1003E000000000007D93000808120F003874002000
:1003F000AC7500200000000001850008F701060030
:100400002C740020BC75002000000000E8070008E4
:100410000A020A00A0730020C4750020000000003A
:1004200049C102080300010020740020D07500209B
:100430000000000000000000051006000C820020F3
:100440006C82002000000000F00700083710240034
:10045000208200207482002000000000F6070008BF
:100460000E020200F08100209882002000000000AF
:100470001A08000816100600EC7700209C82002065
:10048000000000001C0800082F10220048820020F5
:10049000A4820020000000002208000823100E00A3
:1004A000A4790020C882002000000000C18A03084F
:1004B000F5518C0020770020D88200200000000039
:1004C0002599010826100C00708300206483002009
:1004D00000000000C12E030814000300407E00202D
:1004E000A883002000000000440800080B3018001A
:1004F000C8760020AC8300200000000048080008F7
:100500001F302400E0760020C4830020000000009B
:10051000600800080502040070790020E8830020CC
:1005200000000000840800082C0010001C8D002032
:100530000C8D0020000000003DA503082B002400C6
:10054000508D00202C8D0020000000000DA5030818
:1005500029207800148C0020748D002000000000F9
:100560000000000020320A00F88D0020EC8D0020F1
:10057000000000002D8A03081C021000FC870020E8
:10058000048E002000000000B18300082810100035
:10059000DC8A0020148E002000000000A58A0308D9
:1005A000041202006C8B0020248E0020000000004A
:1005B000880800080F020100688B0020288E0020A8
:1005C000000000008A08000803010A00E8AA0020D1
:1005D0007CAB0020000000008C080008130204001F
:1005E0000C97002088AB002000000000960800084F
:1005F0000D00340044A000208CAB0020000000005F
:10060000291A04080400800080E8002000E9002086
:1006100000000000000000001300040060E800205B
:1006200080E90020000000009C080008FD01240073
:100630003CE8002084E90020000000003D0E010895
:1006400018202E0008E80020A8E900200000000083
:100650008594000806101A0068D60020D8E900200A
:100660000000000025FF0108FB01010064D6002006
:10067000F4E9002000000000F1940008FC010900EA
:1006800030D50020F8E900200000000001950008A6
:1006900016023F00ACD4002004EA00200000000055
:1006A0002184000834001000DCD3002044EA00203C
:1006B00000000000F9FE010811020800B4D3002078
:1006C00054EA002000000000A008000812120400F4
:1006D000ACD300205CEA002000000000A80800085D
:1006E000122010009CD3002060EA002000000000CF
:1006F000AC080008F90104000CD0002070EA0020CA
:1007000000000000B50E0108FA010200ACC900208B
:1007100074EA0020000000003D8600080202030089
:10072000E0BB002078EA002000000000000000008C
:100730000C020400CCBB00207CEA0020000000007A
:100740002D85000811000C0035BE002080EA002035
:1007500000000000B1190408FE01140010BE0020C2
:0C0760008CEA002000000000F18300087B
:10076C00000020030000E8036400040A000190016B
:10077C0000002E000000010000000000000000003E
:10078C00000000000000000000000000000000005D
:10079C00000000000000000000000000000000004D
:1007AC000000000000000000000000000100000537
:1007BC007E05EA05B4053200E803D007000000000E
:1007CC00280100000401F40114000000023C0000A8
:1007DC0000000000010000000202000024010000E3
:1007EC000000000020000101000020003200C800C1
:1007FC00D0079600140032002800B0044006000513
:10080C00500014000F0008006400010001000000FB
:10081C00C4090000190000000000000000000000E6
:10082C0000000000000000000000000000000000BC
:10083C00000000000000000003000000AE014A01AF
:10084C005E012C0164010100000001000A019A0103
:10085C00001E0A000000000000010000000500005E
:10086C000102030000000000000000000000000076
:10087C0000000000008007000000000011180000BC
:10088C00040101006C16000000000000013500009E
:10089C00002044300000000001010101FFFFFFFFB8
:1008AC00000000010000054459533400000800000A
:1008BC001A0300000000000000000000000000000F
:1008CC000000000000000000000000000403090408
:1008DC0012010002000000408304205700020102B4
:1008EC0003010000EDCF00089985000895850008EC
:1008FC00918500081D9500088D85000889850008E4
:10090C00EC6505087D7C0408D1680408BD870408E3
:10091C000000000000000000C1840408DD8304080E
:10092C000000000000000000000000000964040842
:10093C003186000825860008C19A0008DD9A000857
:10094C00DD850008A59A0008899A00080068214CEA
:10095C001F0000001C0000001F0000001E00000013
:10096C001F0000001E0000001F0000001F00000000
:10097C001E0000001F0000001E0000001F000000F1
:10098C00FF01FF0000000401000000000000000255
:10099C001000000007000000000000000000000034
:1009AC000102030406070809685E0C000100000040
:1009BC00A00F0000B80B00000102FFFF01000000B7
:1009CC0000000100E0010000FFFFFFFFFF0100003D
:1009DC00B190010800000000F87705082070002095
:1009EC00702D7200FFFFFFFF08000000425702004D
:1009FC000000010642570200000001060101FFFF42
:100A0C002D202D2D202D2D2D2D202D2D2D000000B8
:100A1C0000000000000000000000000000000000CA
:100A2C000000000000000000308E050800000000EF
:100A3C0000000000BC8E050801000000FA00000058
:100A4C000100000001000000A257002000C80100B6
:100A5C00A157002000500100A0570020005A0100AF
:100A6C009E57002002000000B87D05089CED05088B
:100A7C00A4ED0508CAA000200100C4090000000074
:100A8C00C8A000200100C40900000000C6A000207E
:100A9C000100C40900000000C4A000200100C4092A
:100AAC0000000000C0A000200100C40900000000EC
:100ABC00C2A000200100C40900000000BEA000205C
:100ACC000100C40900000000BCA000200100C40902
:100ADC0000000000545500200100C8000100000077
:100AEC005255002032003075320000005155002064
:100AFC00055A05004E55002000FF010050550020FE
:100B0C0001000000440300204C55002002000000AE
:100B1C00509F05084D55002000FF01004F55002047
:100B2C0001000000440300204B550020020000008F
:100B3C00509F050878580020EE02CA0801000000FA
:100B4C007658002000C80100640000007558002091
:100B5C0000C801006400000074580020020000006E
:100B6C00C47D05083E55002080C1803E0500000074
:100B7C003C55002080C1803E050000003655002009
:100B8C0080C1803E050000003455002080C1803EAD
:100B9C00050000002F55002000FF01002855002003
:100BAC006400F4010100000027550020040000003F
:100BBC00D07D05082655002002000000E47D0508C4
:100BCC00CB5500200D000000F07D0508C855002015
:100BDC0000640100C6550020320010270A000000F6
:100BEC00C55500200D000000F07D0508C4550020FF
:100BFC000D000000F07D0508C35500200200000028
:100C0C00287E05080000000000000000347E050866
:100C1C002CAB00209CFF2C01000000001A5D002072
:100C2C00E0150C17000000003D5C002002000000E5
:100C3C006C7E0508845800200100FF7F0100000035
:100C4C008358002002000000787E0508CD55002056
:100C5C0003000000887E0508CC550020030000002E
:100C6C00887E0508805700200000E8030100000082
:100C7C007E5700200000E803010000007C57002094
:100C8C000000E803010000007A5700200000E80390
:100C9C0001000000785700200000E803010000006C
:100CAC00765700200000E803010000007557002073
:100CBC00001401007457002003000000987E050802
:100CCC008C5700200000F401010000008A5700201E
:100CDC000000F40101000000885700200000F4011E
:100CEC0001000000865700200000F4010100000004
:100CFC00845700200000803E010000008257002035
:100D0C000000803E01000000B5570020196401006E
:100D1C00B457002002000000A87E0508B25700203E
:100D2C00E803D0070A000000B0570020006401005F
:100D3C000A000000A557002000640100A457002001
:100D4C0000640100AC570020006401000A000000A0
:100D5C00AB570020006401000A000000AA570020D5
:100D6C00006401000A000000AF570020006401007D
:100D7C000A000000AE570020006401000A000000C9
:100D8C00AD570020006401000A000000A9570020A4
:100D9C0001FF01000A000000A857002001FF01001C
:100DAC000A000000A757002001FF01000A00000004
:100DBC00D65500200000F40101000000D45500209D
:100DCC000000F40101000000D25500200000F401E5
:100DDC0001000000D05500200000F40101000000CB
:100DEC00CE5500200000F401010000009D570020AA
:100DFC00006401009C570020006401009B570020F8
:100E0C00006401009A570020FF0801009957002048
:100E1C0001640100B596010879960108B47E0508B5
:100E2C009857002000640100965700201400E80336
:100E3C000100000094570020E80330750A00000000
:100E4C009257002000C801009157002000C80100F3
:100E5C009057002000C801008F570020006401004B
:100E6C000A0000006A5800200000D00701000000B2
:100E7C006558002000C801006458002000C801001B
:100E8C006358002000C80100685800200000D007FB
:100E9C00010000006258002000C8010061580020C9
:100EAC0000C801006058002000C8010066580020EE
:100EBC000000D007010000005F58002000C80100AE
:100ECC005E58002000C801005D58002000C80100D9
:100EDC0000000000F1930108247F0508C155002093
:100EEC0031000000C07F0508C055002000C801007B
:100EFC00BE550020E803D0070100000044595346BA
:100F0C003450524F000000004A55002000030100ED
:100F1C004955002000030100599301083193010841
:100F2C0088800508ED920108A1920108DC80050873
:100F3C0081930108A5C501085C8105084055002076
:100F4C000103010015980108E99701085084050870
:100F5C0025920108D9910108B48405080794010869
:100F6C0025E901085085050811D901080000000089
:100F7C00F88505088DC9010875980108948605083F
:100F8C0065940108000000001487050829950108E4
:100F9C00D594010878870508B99501087D95010855
:100FAC0014880508F19601083D97010894880508F6
:100FBC00A357002001060100A194010879940108AF
:100FCC0090890508F595010809C60108008A0508ED
:100FDC006D9701088DC60108E08A05088E57002020
:100FEC0001030100C593010899930108B48B05080E
:100FFC004198010800000000188C05087192010846
:10100C0075C501087C8C050800000000000000007C
:10101C00088D0508C197010805C70108888D0508CA
:10102C002255002088136F17010000002455002062
:10103C0088136F17000000000EA1002000000000B4
:10104C00000000000CA100200000000000000000C7
:10105C000AA10020000000000000000008A10020F0
:10106C00000000000000000006A1002000000000AD
:10107C000000000004A1002000000000000000009F
:10108C00A80D00200000000000000000F954002012
:10109C0002000000108F05082055002088136F17E0
:1010AC00010000006CAB002088136F1700000000DB
:1010BC0069910108000000001C8F05083E5C0020AF
:1010CC0001000000708F05086EAB002001000000CD
:1010DC007C8F050864AB002002000000848F05089B
:1010EC000000000000000000908F050851910108DD
:1010FC00000000002C90050800000000000000001B
:10110C00809005080000000000000000F090050829
:10111C0068AB0020E0150C1700000000FFFFFFFF7C
:10112C000000803F000000000000000000000000F4
:10113C000000803F000000000000000000000000E4
:10114C000000000000000000000000000000000093
:10115C0000000000000000000000803F00000000C4
:10116C00000000000000000001000000FFFFFFFF76
:10117C000000803F000000000000000000000000A4
:10118C00FF00000000000000747500200800000043
:10119C000000000064750020080000000000803F83
:1011AC00900506089C050608A8050608B40506085F
:1011BC00C0050608CC0506080CFC050888220608A4
:1011CC006C2106081C050608984A060880050608C6
:1011DC0084050608880506088C05060870050608AF
:1011EC007405060878050608C41F06087C05060861
:1011FC001900C800F40120037005060874050608E0
:10120C00D805060878050608DC050608E00506087A
:10121C0001010000FF1FFF1FFFFFFFFF7C83002069
:10122C0000000000A083002000000000010000006E
:10123C00D60101000001010100010100296A040826
:10124C0015690408598A0408000000009164040818
:10125C0011860408656804088985040800000000EC
:10126C00000000004D640408E1630408D563040821
:10127C008D7B0408A97B0408717B0408557B04084A
:10128C00397B0408E1690408F168040899890408A9
:10129C0000000000656404088D85040839680408A2
:1012AC00E9840408000000000000000059640408F0
:1012BC000403090412010002EF02014083045632B8
:1012CC0000020102030100001201000202020040B0
:1012DC0083044057000201020301000009022000B0
:1012EC00010104C03209040000020806500507057C
:1012FC008102400000070501024000000902640061
:10130C00030100C0320904000001030000000921A0
:10131C00110100012226000705830308000A080BAF
:10132C000102020201000904010001020201000590
:10133C0024001001052401000204240202052406E5
:10134C000102070582030800FF09040200020A00DB
:10135C000000070501024000000705810240000063
:10136C0009024300020100C032090400000102021C
:10137C0001000524001001052401000104240202CF
:10138C000524060001070582030800FF090401007B
:10139C00020A000000070501024000000705810257
:1013AC0040000000FF00000090A8050800000000AD
:1013BC000000000000000000000000000000000021
:1013CC000000000000000000000000000000000011
:1013DC0000FFFF000000000064A8050800000000EA
:1013EC0000000000000000000000000000000000F1
:1013FC0000000000000000000000000000000000E1
:10140C00AA550501000000000000803F05010905F8
:10141C00A101A1000501093009310932093309354F
:10142C000934094009381581257F75089508810212
:10143C00C0C0000009022200010100E032090400D2
:10144C0000010301020009211101000122260007FD
:10145C0005830308000A00000000000001020304D9
:10146C0001020304060708092187040825860408DD
:10147C007D8A0408CD640408456A0408DD64040808
:10148C00F9640408A56404089564040800000000CD
:10149C00000000002D202D2D202D2D2D2D202D2D4B
:1014AC002D2D0000000000000000000000000000D6
:1014BC00000000AA550B010000AA5507010000AA64
:1014CC00550902000000AA5503009F00010000000E
:1014DC00C012000008000000FFFFFFFFD1630408EA
:1014EC00CD630408C9630408BD630408B963040828
:1014FC00C5630408C1630408BDBD020800000000F8
:10150C00000000000000000001000000006002402C
:10151C00106002400000000000000000000B000002
:10152C00000000000000000000000000006002400D
:10153C00286002400100000000000000060C0000C2
:10154C0000000000000000000000000000600240ED
:10155C00406002400200000000000000100D00007E
:10156C0000000000000000000000000000600240CD
:10157C00586002400300000000000000160E00003E
:10158C0000000000000000000000000000600240AD
:10159C00706002400400000000000000200F0000FA
:1015AC00000000000000000000000000006002408D
:1015BC0088600240050000000000000026100000BA
:1015CC00000000000000000000000000006002406D
:1015DC00A060024006000000000000003011000076
:1015EC00000000000000000000000000006002404D
:1015FC00B86002400700000000000000362F000019
:10160C000000000000000000000000000064024028
:10161C0010640240000000000000000000380000D0
:10162C000000000000000000000000000064024008
:10163C002864024001000000000000000639000090
:10164C0000000000000000000000000000640240E8
:10165C00406402400200000000000000103A00004C
:10166C0000000000000000000000000000640240C8
:10167C00586402400300000000000000163B00000C
:10168C0000000000000000000000000000640240A8
:10169C00706402400400000000000000203C0000C8
:1016AC000000000000000000000000000064024088
:1016BC008864024005000000000000002644000081
:1016CC000000000000000000000000000064024068
:1016DC00A06402400600000000000000304500003D
:1016EC000000000000000000000000000064024048
:1016FC00B8640240070000000000000036460000FD
:10170C00000000000000000000000000900D060822
:10171C007C0B06080000000029BB0208A086010013
:10172C0004000000000000000000000000000000A9
:10173C00000000000000000000000000000000009D
:10174C00000000000000000000000000900D0608E2
:10175C00980D060800000000090B0108E8030000C2
:10176C000400000000000000000000000000000069
:10177C00000000000000000000000000000000005D
:10178C00000000000000000000000000C8F3050885
:10179C00A00D06080000000041E402087D000000D6
:1017AC000600000000000000000000000000000027
:1017BC00000000000000000000000000000000001D
:1017CC00000000000000000000000000A80D06084A
:1017DC00000000000000000031340108E8030000A4
:1017EC0003000000000000000000000000000000EA
:1017FC0000000000000000000000000000000000DD
:10180C00000000000000000000000000AC0D060805
:10181C000000000000000000CD630208102700004B
:10182C0003000000000000000000000000000000A9
:10183C00000000000000000000000000000000009C
:10184C00000000000000000000000000B846060880
:10185C000000000001A20308A16601085F760000E9
:10186C000500000000000000000000000000000067
:10187C00000000000000000000000000000000005C
:10188C0000000000000000000000000038490608BD
:10189C000000000000000000AD7D010810270000D2
:1018AC00010000000000000000000000000000002B
:1018BC00000000000000000000000000000000001C
:1018CC00000000000000000000000000B80D060839
:1018DC0000000000000000000D0B0108E8030000F0
:1018EC0005000000000000000000000000000000E7
:1018FC0000000000000000000000000000000000DC
:10190C00000000000000000000000000C40D0608EC
:10191C000000000000000000D9DC0208204E00008E
:10192C0003000000000000000000000000000000A8
:10193C00000000000000000000000000000000009B
:10194C00000000000000000000000000D40D06089C
:10195C000000000000000000C5DA0208204E000064
:10196C000300000000000000000000000000000068
:10197C00000000000000000000000000000000005B
:10198C00000000000000000000000000E40D06084C
:10199C00000000000000000009160108400D0300C3
:1019AC000300000000000000000000000000000028
:1019BC00000000000000000000000000000000001B
:1019CC00000000000000000000000000EC0306080E
:1019DC000000000000000000F9330408102700008C
:1019EC0001000000000000000000000000000000EA
:1019FC0000000000000000000000000000000000DB
:101A0C000000000000000000000000008CFC050835
:101A1C00000000000000000071A601081027000063
:101A2C0003000000000000000000000000000000A7
:101A3C00000000000000000000000000000000009A
:101A4C00000000000000000000000000F40D06087B
:101A5C000000000000000000EDF70308A086010064
:101A6C000100000000000000000000000000000069
:101A7C00000000000000000000000000000000005A
:101A8C00000000000000000000000000FC0D060833
:101A9C0000000000000000009911010850C3000074
:101AAC000100000000000000000000000000000029
:101ABC00000000000000000000000000000000001A
:101ACC00000000000000000000000000ACF0050861
:101ADC000000000000000000B12E0308A0860100E9
:101AEC0000000000000000000000000000000000EA
:101AFC0000000000000000000000000000000000DA
:101B0C00000000000000000000000000E4EF0508E9
:101B1C000000000000000000C50E0108A8610000D4
:101B2C0001000000000000000000000000000000A8
:101B3C000000000000000000000000000000000099
:101B4C00000000000000000000000000040E060869
:101B5C000000000000000000F1E90108A08601006F
:101B6C000100000000000000000000000000000068
:101B7C000000000000000000000000000000000059
:101B8C000000000000000000000000001404060823
:101B9C00000000000000000039410108A00F000007
:101BAC000100000000000000000000000000000028
:101BBC000000000000000000000000000000000019
:101BCC00000000000000000000000000100E0608DD
:101BDC0000000000000000006DE401081027000068
:101BEC0001000000000000000000000000000000E8
:101BFC0000000000000000000000000000000000D9
:101C0C000000000000000000000000001C0E060890
:101C1C000000000000000000F9180408A00F0000EC
:101C2C0001000000000000000000000000000000A7
:101C3C000000000000000000000000000000000098
:101C4C000000000000000000000000000CFB050874
:101C5C000000000000000000D57E03081A410000BF
:101C6C000100000000000000000000000000000067
:101C7C000000000000000000000000000000000058
:101C8C00000000000000000000000000A4EF0508A8
:101C9C000000000000000000252B030810270000A6
:101CAC000100000000000000000000000000000027
:101CBC000000000000000000000000000000000018
:101CCC00000000000000000000000000880B060867
:101CDC000000000000000000D9F101081A410000CA
:101CEC0001000000000000000000000000000000E7
:101CFC0000000000000000000000000000000000D8
:101D0C00000000000000000000000000280E060883
:101D1C0000000000000000007D310308400D0300AE
:101D2C0000000000000000000000000000000000A7
:101D3C000000000000000000000000000000000097
:101D4C00000000000000000000000000300E06083B
:101D5C000000000000000000E7190408400D03001B
:101D6C000000000000000000000000000000000067
:101D7C000000000000000000000000000000000057
:101D8C00000000000000000000000000380E0608F3
:101D9C000000000000000000D1CF010850C300007B
:101DAC000300000000000000000000000000000024
:101DBC000000000000000000000000000000000017
:101DCC00000000000000000000000000440E0608A7
:101DDC00000000000000000039DA020840420F0049
:101DEC0000000000000000000000000000000000E7
:101DFC0000000000000000000000000000000000D7
:101E0C00000000000000000000000000500E06085A
:101E1C000000000000000000D52E040850C3000094
:101E2C0000000000000000000000000000000000A6
:101E3C000000000000000000000000000000000096
:101E4C00000000000000000000000000FFFF000088
:101E5C00AC4606080000080205030300B446060859
:101E6C0001000802050403001C0706080200FE011D
:101E7C0001100300F8F00508030014020003000031
:101E8C00BC46060804001F0201000800C4460608F0
:0C1E9C0005001F0201010800FFFFFFFF0E
:1080000003685A1C02601970704700BF2DE9F047E1
:10801000089C2578002B804689460CBF4FF0200A2B
:108020004FF0300A661C25B3002A26DD334601E0F6
:10803000024698B113F8011B501E0029F8D1971E73
:1080400060B13D46013D51464046C8476B1C002B80
:10805000F8DC257827EAE770013045B1041B294692
:108060004046C847301916F8015B002DF7D1BDE82E
:10807000F087002A03DC2846F9E70020EEE7571EC8
:10808000DFE700BF2DE9F04714461D4606464FF4D2
:108090007A720023204629464CF084FB4D4BDFF8D2
:1080A00048814D4A4D4F034488FB03101844D917AB
:1080B00082FB032CC1EB601088FB002887FB0327A1
:1080C0009C44474AC1EBEC2CC0EB001E82FB0C2900
:1080D000A3EB8E0E1F44434A86F806E0C1EB274708
:1080E0004FEAEC7E08EB000ACEEBA90E82FB07827A
:1080F0004FEAE0780EEB4E0EC8EB6A18ACEBCE0CF4
:10810000C8EB0818DFF8E4E086F804C0A0EB8800AC
:1081100070718EFB0303F817C0EBE21240F2B5500A
:1081200000FB1272C1EBE353B2F5896F4FEA83078C
:108130003CDA40F2DA239A4242DCB2F5B77FB4BFB0
:108140004FF0000E4FF0010E4FEA4E09DFF8A0800D
:1081500009EB0E0308EBC3031FFA8EFCD88A09EB68
:108160000E0108EBC10116310B2301E031F8020DBD
:10817000904218DD013BF9D1CE44012338F83E008E
:10818000B37007F5FA670132121ABC44F270A6F810
:1081900000C0204629464FF47A7200234CF002FBBF
:1081A0003281BDE8F0870133DBB2E9E74FF0030C21
:1081B000E64640F29650DFF838804FF00609CEE7E9
:1081C0004FF0020CDFF82880E64640F229404FF0DD
:1081D0000409C4E780BC92C7C5B3A29107452EC26B
:1081E000ABAAAA2A73B06D1689888888792D0311E5
:1081F000C86305080028F0B403DA2D230B70404251
:108200000131092804464FF0010307DD03EB830326
:108210005B00B0FBF3F2092AF8D883B10F48A0FB4A
:108220000326B4FBF3F2092A02F1570C02F13007DE
:1082300009DD03FB1244F30801F801CBEFD1002361
:108240000B70F0BC704703FB1244F30801F8017B8C
:10825000E5D100230B70F0BC704700BFCDCCCCCC77
:10826000884270B44FF0010442D301FB04F4B0FB28
:10827000F4F58D42F9D2ECB142BB092D04FB150097
:1082800005F1570605F130020EDDB4FBF1F403F8F9
:10829000016B7CB1B0FBF4F5092D04FB150005F171
:1082A000570605F13002F0DCB4FBF1F403F8012BC2
:1082B000002CEFD100221A7070BC704703F8016BDC
:1082C000B4FBF1F4002CF5D0B0FBF4F5092D04FB60
:1082D000150005F1370605F13002EFDCB4FBF1F4CF
:1082E00003F8012B002CEFD100221A7070BC7047EC
:1082F0000546002AEAD1C0E790ED057A90ED004AE4
:10830000D0ED066AD0ED014AD0ED047A90ED035A23
:10831000D0ED025AA4EE007AB0EE406AB0EE470A01
:10832000B0EE667AA4EE867A67EEC07AA5EE407A61
:10833000E5EE867A80ED057AC0ED067A704700BFDB
:10834000D0ED057A90ED013AD0ED003AD0ED064A35
:1083500090ED024A90ED077A90ED035A90ED086A8D
:10836000D0ED045AC0ED067AF0EE406A27EE830A9B
:10837000C0ED056AA3EEA60A80ED087AA4EE240AF1
:10838000A5EE470AA5EEC60A80ED070A704700BFB2
:10839000D0ED007A90ED017A30EE670AE7EE007AD0
:1083A000B0EE670AC0ED007A704700BF704700BFAB
:1083B00030B414220023342503240221C270012288
:1083C0008571C4710370C3728373C373417041724A
:1083D00082700272827230BC704700BF0023062197
:1083E0004FF47A720170C0E901230373704700BF34
:1083F00030B4022132223123332540F2FF140172BE
:108400004270FF21012243710023C57004828174F0
:1084100002700271827043818381C38130BC7047D6
:108420002DE9F04F3149324B83B001F5E07B0190EB
:108430002E274FF000092F481022012603E020309C
:1084400098420BD002799742F9D102680C68A24297
:1084500009D02030984206F10106F3D12031594568
:108460003AD00F79E7E744794D79A542F1D19446A6
:10847000019A214809EB490502EB050A57558AF88C
:10848000016000F572751D4E624603E0A8421AD0E5
:1084900050F82C6FB242F9D10679A642F6D1CF68D6
:1084A00006464FF0000C96468046F268BA4216D057
:1084B0000CF1010CBCF1030F06F10C06F5D140469E
:1084C000A8427246E4D14FF0FF3C203159458AF86A
:1084D00002C009F10109C4D103B0BDE8F08F0869F9
:1084E00032698242E4D14FFA8CFCEEE70094050831
:1084F00054B2050894A9050854B2050800000140CB
:1085000030B41522162317253A243B2102704370FC
:108510003C22FF2385708472C1720273C3700371A1
:10852000037243724373837330BC704710B41F21CE
:10853000012403220023047041708270C3705DF82F
:10854000044B7047034600F11001FF221A705A7065
:1085500002339942FAD10270427002714271827202
:10856000C272704730B41D6995420AD314460A4658
:1085700021448D42996938BF2A1B214430BC4CF0FC
:10858000ABBB30BC704700BF002070470120704774
:1085900001207047002070474FF40070024B1060BC
:1085A0009B680B600020704710D00020013A30B467
:1085B000D2B28C1C04EB42040025020F092AD3B26C
:1085C00003F130028ABF37330A700B704D700231ED
:1085D0008C424FEA0010F0D130BC70470B4A0C4B74
:1085E00010681B681A22C0180A8001D10948704718
:1085F00010B5094B09491C680822FFF7D7FF204630
:1086000004220749FFF7D2FF024810BDE8F7FF1F19
:10861000ECF7FF1F88010020EAF7FF1F8A01002006
:108620009A01002004230B8000487047A401002019
:1086300012230B8000487047A80100202322032347
:1086400002704370704700BF0830704708307047B1
:10865000044A054B126803EB421318465B689B699A
:10866000184700BF78170020D4C900200448054BE4
:10867000006803EB401318465B685B69184700BF4E
:1086800078170020D4C90020704700BF816170476F
:108690006D4B2DE9F04F5C686C4BB3F80AE0B3F812
:1086A00004809A894FEA0E2AB4EB0A044FEA1E6B43
:1086B0004FF0000587B065EB0B05CDE90045074697
:1086C000009C1889019EA0FB044500FB0655E009AB
:1086D00040EA45604FEA08448C46E9114FEA1845E4
:1086E00010EB0408D888009C41EB0509CDE904890A
:1086F000A0FB0445B3F8028000FB0655200A40EABF
:1087000005604FEAC83429124FEA584510EB0408B7
:1087100041EB05090099A2FB010102FB06114FEA9A
:10872000D05A4AEA412A1AF5FA634FEAE15B4BF163
:108730000004B3F5FA6FCDE9023474F10003424E40
:1087400064DA0524AAFB040104FB0B1100FB0BF403
:108750000AFB0144DDE90423A0FB0A0121444D107A
:108760004FEA3004121B4FEA900463EB050344EA1E
:108770008174B8EB0408CDE90423DDE90234344800
:108780004FEAA10569EB05094FF0FF31834274EB15
:10879000010326DA40F6AC501AEB00024FF000015C
:1087A0004BEB010302FB03F1A2FB022303EB4103AA
:1087B000D400DD00101B45EA527563EB0501DDE9CD
:1087C000044524184D41CDE904450B24A2FB0401C6
:1087D00004FB031149104FEA3000B8EB000869EBC5
:1087E0000109DDE900325343009ADDE90201A2FBF1
:1087F00002AB0BEB430B4FEADA7242EA4B02801AF0
:108800004FEAEB7361EB0301CDE9020197B1B16867
:10881000A1FB082301FB0933540D5D1544EAC32471
:10882000DDE90423A21A65EB03031D46D30B43EADB
:1088300045433B60BCF1000F02D0029BCCF80030F6
:1088400007B0BDE8F08F00BF78170020388B0020FC
:1088500024FAFFFF2DE9F04FDFF8DCC1754CDCF89E
:108860000C502288B4F90AA0C2EB25135200C2EBC7
:10887000E502B4F902505B436A43B4F904501B1398
:108880005D43AD1305EBE225B5F5FA324FEAE57B22
:1088900085B04BF1FF33CDE90023DDE900325343CE
:1088A000009AA561A2FB0289CDE90201B4F9082072
:1088B0000199009809EB43095143D31700FB0311B9
:1088C000A2FB00230B444FEAEA7B0AFB09F11F03DA
:1088D00008FB0B13AAFB080119444FEA102A4AEAC5
:1088E000016A16034FEA212B47EA12571AEB0602D8
:1088F000E6884BEB070312F1000A43F5004BAAFB95
:10890000060106FB0B114A10CB1752EA030100F0D7
:108910008E80B4F91060009806FB09F1F71708FB88
:108920000711A6FB08673944B4F90E808B460199FC
:108930004FEAE87908FB01F100FB0911A8FB008967
:108940008944DCF810104FEA4947C1F5801C47EA1A
:10895000D837B2464FEA4846B4F90C801AEB060AFB
:1089600066464BEB070BF7174FEAC8060196002641
:108970000096F907DDE900674FEACC7016EB0A06AE
:1089800047EB0B0741EA5C01801B61EB070140F6F6
:10899000354C8946A0FB0C010CFB09114BF002FF82
:1089A000B4F91620B4F914A04E13470B47EAC14797
:1089B00002FB06FCD31707FB03CCA2FB072363448F
:1089C000564307FB0366A2FB07233344560E46EAD1
:1089D000C31632184FEA636747EB010380460AFB70
:1089E00001F14FEAEA7B08FB0B17AAFB08013944A7
:1089F000C60C46EA413612EB06084FEAE147B4F9E5
:108A0000122043EB07094FEA182141EA09611301DB
:108A10000B44029A0AB11B0A1360039B23B105EBB6
:108A2000850580352D121D6005B0BDE8F08F00234F
:108A3000EFE700BF4C8B002078170020704770478D
:108A40002DE9F041334B344E9A8A7489B6F91450AB
:108A5000B6F90480B6F90E70B6F920C09B69121BF6
:108A600034895443E213B6F912401544E40294FBEE
:108A7000F5F4B6F902501444A4F57A6E0EFB0EF22A
:108A80000EFB05F50EFB08FEB6F90C80F46112131F
:108A9000574302FB08F2121402EB6E32ED1205EBA3
:108AA000E7270232B6F90050B6F806E0921002F558
:108AB000004207EB85070EFB02F207FA0CF74FEABC
:108AC000D23E02374CF25032A3EBA70742FA0CF326
:108AD0007B4355BF5B00B3FBFEF3B3FBFEF35B00D0
:108AE00078B11A1202FB02F540F6DE326A430B4DF2
:108AF00012145D4302EB254202F6CF6203EB221310
:108B0000036021B10A235C43083424110C60BDE8E2
:108B1000F08100BF78170020148B002043E3FFFF93
:108B20004FF4006303837047012380F8503070478F
:108B3000F0B4037C456902681F2B37D9203B202104
:108B4000546899400C4223D010249C40D160D460DA
:108B50005168D940CE074ED4EFF31183502282F3EF
:108B60001288EA6B1168C90709D45468002C52D1E5
:108B7000D5E909618E4243D1012285F86020DBB23C
:108B800083F31188037C02681F2B194614D9203BFC
:108B9000082150689940084200D0D16004215068F3
:108BA00001FA03F3184223D1F0BC70472024166861
:108BB0009C4026420FD11946082310688B4018426A
:108BC00000D093600423106803FA01F10842EBD04F
:108BD0009160F0BC704710219940946091601168D9
:108BE000D940CC07B8D5012101FA03F39360B3E76C
:108BF000D360F0BC7047012101FA03F3D360ABE707
:108C0000AF690F44D7600ED82E69711A5160AC62FB
:108C1000002185F86010116841F00101DBB211609C
:108C200083F31188AEE7711A5160AE62F0E700BFBE
:108C30002DE9F041B14DB24C2A7823789A4240F0A8
:108C40001B81B04B1A78002A7CD0AF4B1E78AF4BFB
:108C5000002E79D11968B3F82C714E628889012AE7
:108C600040EA07008881A3F82C6157D0D3F830116F
:108C7000B3F85C724E628889022A40EA0700888154
:108C8000A3F85C624AD0D3F86012B3F88C734E62DA
:108C90008889032A40EA07008881A3F88C633DD0C5
:108CA000D3F89013B3F8BC744E628889042A40EA62
:108CB00007008881A3F8BC6430D0D3F8C014B3F89F
:108CC000EC754E628889052A40EA07008881A3F87E
:108CD000EC6523D0D3F8F015B3F81C774E62888981
:108CE000062A40EA07008881A3F81C6716D0D3F84B
:108CF0002017B3F84C784E628889072A40EA0700AB
:108D00008881A3F84C6809D0D3F85028B3F87C09BF
:108D10005662918901439181A3F87C692A7823786E
:108D20009A420FD07A481F469B003B449B00C218D2
:108D3000C3583BB9137A2BB9537A1BB97B1C03F088
:108D400003032370BDE8F0815E681989716037689C
:108D5000186847F0010740F20D313760A0F848105D
:108D60008689012A46F480768681D7D0D3F834618B
:108D7000B3F83871D3F830017760376847F00107EE
:108D80003760A0F848108689022A46F480768681EA
:108D9000C4D0D3F86462B3F86872D3F86002776025
:108DA000376847F001073760A0F848108689032A22
:108DB00046F480768681B1D0D3F89463B3F8987383
:108DC000D3F890037760376847F001073760A0F861
:108DD00048108689042A46F4807686819ED0D3F88E
:108DE000C464B3F8C874D3F8C0047760376847F038
:108DF00001073760A0F848108689052A46F4807676
:108E000086818BD0D3F8F465B3F8F875D3F8F00504
:108E10007760376847F001073760A0F84810868907
:108E2000062A46F4807686813FF478AFD3F824672B
:108E3000B3F82877D3F820077760376847F0010741
:108E40003760A0F848108689072A46F48076868124
:108E50003FF464AFD3F85428B3F85808D3F8503827
:108E60005060106840F001001060A3F848109A8923
:108E700042F480729A8151E780460AF0A5FE277875
:108E80002B78BB4286461DD0BB002148DA1900EB87
:108E90008202167AC6B1B8F1000F3DD01D490022FA
:108EA000B1F808C00132BCF1000F18BF00264245DE
:108EB00001F58071F4D17EBB124A1278002A3FF48A
:108EC00034AFC2E61248BB003B449B00C118C258F5
:108ED000AEEB0202002AFFF635AF4A7A3AB1013A08
:108EE000D2B24A7212B30EF57A72C25000E0C2508A
:108EF000044B1A78002A7FF4A8AE0FE7B49F002035
:108F0000B59F0020942F0010902F001084DE0020C9
:108F1000B89F002084D60020DA1992000EF51C516B
:108F200086181031815000223272C5E74A687244B7
:108F3000C250DDE710B5027C01681F2A4FF0200304
:108F40000ED94C68203A93401C4208D00B4A406826
:108F500000241470026822F001020260CB6010BD90
:108F60000C6893401C42FAD0044A406800241470F4
:108F7000026822F0010202608B60F0E734BE00203C
:108F800010B5027C01681F2A4FF020030ED94C68EF
:108F9000203A93401C4208D00B4A406800241470C9
:108FA000026822F001020260CB6010BD0C689340A1
:108FB0001C42FAD0044A406800241470026822F06F
:108FC000010202608B60F0E73F4800202DE9F0418C
:108FD000C40023189B00B749CA585268958AADB29D
:108FE000EFB2FE070B4461D4BE0737D5BFF35F8FE6
:108FF0001D7EEDB2012D00F0BB80AF4E138BBFF391
:109000005F8F231801EB83031D7E022D00F0CE80BD
:10901000231801EB83031D7E032D05D19B7E1BB11D
:10902000737F002B40F01A81938896F91CC043F49B
:1090300080639380231801EB83031B7E0133634518
:109040000AD1B37F00257577002B40F08A80204439
:1090500001EB800000234375BDE8F081964E17F0C8
:10906000040F96F91CC04DD117F0400700F0B280F4
:10907000178A1D6AFFB205F80C705FFA8CF56F1C39
:1090800093F818E07BB2DF1CBE4533779C4600F0B6
:109090000981271801EB87073F7EBB42CAD105F142
:1090A000020C4FFA8CFC86F81CC0C3E71588824E70
:1090B00025F400652D042D0C1580158845F4806578
:1090C00015809D7E00273777002D3DD0757F002DC0
:1090D00037D0231801EB830301251B7E7577022B04
:1090E00003D1138843F400631380231801EB830337
:1090F0009B7D43F001031382204401EB8000037E3B
:10910000BDE8F0819F7E757F4FF0010E86F81EE06E
:10911000002F5CD0002D78D1231801EB83035B7EF8
:10912000002B00F0A48013880CF1010C4FFA8CFC8A
:1091300043F4007386F81CC013801388DF05FCD449
:1091400078E7DB7DFF2BC4D0231801EB83039D7DE3
:1091500005F0FE051582DB7DFF2BCDD0FF23337795
:10916000CAE7938823F440731B041B0C93806EE7BB
:109170009B7E514E002B3FF441AF737F002B3FF499
:109180003DAF138823F480631B041B0C1380BFF3D3
:109190005F8F138B1388B57743F400731380938824
:1091A00096F91CC043F48063938043E79B7E002BB9
:1091B0003FF42EAF737F002B3FF42AAF138896F94C
:1091C0001CC023F480631B041B0C138016E0002DCD
:1091D000A2D0A8E72D067FF52DAFBCF1FF3F6DD0E3
:1091E000DD6915F80C5015820CF1010C1D7E4FFA4B
:1091F0008CF39D429C4633777FF41CAF938823F415
:1092000080631B041B0C938014E71F7ED3F820801F
:109210005FFA8CF5AE44022F4FFA8EFE17882DD9D7
:1092200027F480673F043F0C1780178AFFB208F8C5
:109230000C701788D3F820C047F400731380138A8A
:10924000DBB20CF80E30938805F1020C4FFA8CFC5F
:1092500043F4806386F81CC093806EE7938896F988
:109260001CC023F480631B041B0C9380E2E613886C
:10927000012543F48073138075775EE747F4007728
:109280001780178AFFB208F80C70178AD3F820806D
:1092900005F1030C4FFA8CFCFBB286F81CC008F8F1
:1092A0000E304AE7978827F480673F043F0C978089
:1092B000EFE600BF7C74002078170020DD7D15826A
:1092C0009D7E37771DB91B7E002B7FF415AF9388E9
:1092D00023F480631B041B0C93800DE70EF0D0BCBD
:1092E000014B18680AF024BF0C44002038B51D4B10
:1092F0001B78044600F1250593B104221A49203059
:109300004DF04CF82846142218494DF047F8012337
:1093100084F83A30164B1B7873B984F83B3038BD6B
:109320002846142213494DF039F8012384F83A30C5
:109330000F4B1B78002BF0D00F4B186859689A68B8
:10934000DD68E56020606160A260DD6918695969C7
:109350009A69A2610123E5612061616184F83B3073
:1093600038BD00BFDD8E0020AC8E0020948E002022
:10937000DE8E002050DE0508B48E0020002301227E
:109380008271036003714371C37170472DE9F84F17
:10939000DDE90A64894617460021202298460546E1
:1093A0004CF0BEFF5EB1D6E900327189EB81C3F3A8
:1093B0000F432B82C2F30F43EA822B836982484614
:1093C0004AF0FAFC17F0100B10D1431E70B119F8D7
:1093D00003202E2A18BF09EB030104D14AE011F83B
:1093E000016D2E2E3ED013F1FF33F8D2082802462D
:1093F000CA46A8BF08224FF0000B4FF020336B6025
:109400002B60C5F807304946284605F108064BF0A1
:1094100063FC5A46514630464BF05EFC6B1EE81D1D
:1094200013F8012FA2F1610119299CBF203A1A708B
:109430008342F5D105F10B0116F8013BA3F161025E
:10944000192A9CBF203B06F8013CB142F4D11823F5
:10945000C8F30F42EF722B73A5F81A80AA82EC6151
:10946000BDE8F88FC01A00F1FF3BBBF1030FA8BFA6
:109470004FF0030B082B03F1010AA8BF0823CA44CD
:109480001A46BAE738B52E2200214CF049FF0346B0
:1094900040F2DC51642040F21A4240F20224187477
:1094A0005982132019219A8240F2753240F26C756C
:1094B0001C8398760E2402201977DA830A21012270
:1094C000DD8283F82C0040F6430583F82D1083F8E5
:1094D00022409A7383F8252083F82B201D84194697
:1094E0000248BDE8384036F0CDBF00BF5CDE05085D
:1094F00010B500210446012009F0C4FB207010BD06
:1095000038B500240472451EE1B2022009F0BAFB0E
:109510000134082C05F8010FF6D138BD2DE9F04FC4
:10952000002087B00C461D46012192460DF042F8FE
:10953000002D63D005EB0A03DFF8D094DFF8D0B438
:10954000039355461CE0002D00F0C581D9F8143076
:10955000AB4264D0D9F81030AB4200F09780D9E923
:109560000631AB4252D8A94200F26F81691A2046F7
:1095700043F04EF9039B01359D4204F500743DD044
:10958000D9F82060AE42DED8D9F83080AE1B4FEA61
:10959000D60AD8F830300AF1020A9A4506F00706D2
:1095A00003D3D8F838309A4509D94146504643F09C
:1095B000FDF88046002800F04D81C9F8300098F889
:1095C0000430002B40F0E280D8F82870002F00F023
:1095D000DF81D8F83030D8F80C20AAEB030A06EB6C
:1095E000CA0A4346204602EB4A224FF40071B847AC
:1095F000039B01359D4204F50074C1D1002108464A
:109600000CF0D8FF002007B0BDE8F08FA942ADD91B
:109610004FF40072002120464CF082FEAAE752224D
:1096200061204123002622706270A070722284F8AB
:10963000E70184F8E631D9F82800E3704FF0FF33F2
:10964000314684F8E42184F8E521C4F8E8014FF4B8
:10965000F07284F8EC3184F8ED3184F8EE3184F85E
:10966000EF31201D4CF05CFE55216FF05502C4F81F
:10967000F061C4F8F461C4F8F86184F8FC6184F81E
:10968000FD6184F8FE1184F8FF2173E74FF4007246
:10969000002120464CF044FED44BD54F03CBEB23A6
:1096A000022223704FF0080C9026F8234FF0580E3A
:1096B000C4F80300227484F80DC0C4F8071084F8BD
:1096C00001E0A6706375D9F81010D9F80830D9F800
:1096D0001C602273591A21624FF0FF3100233F2092
:1096E000A1763E21A273E372E3736374A374E374FF
:1096F0002375A375E3756376E3766377A377E377E2
:109700002076217784F82C2007CFD9F8187084F8B8
:109710002830F61B84F8293084F82A3084F82B305E
:1097200084F82D3084F82E3084F82F3084F83130CE
:1097300084F8323084F8333080236662C4F84700FE
:1097400004F1470684F8403029209423A94F84F877
:1097500046C084F8420084F843300E200D234FF0B9
:10976000010C84F8440084F8453084F830C07160FE
:1097700003CF33465527AA269A60C4F85200C4F88E
:10978000561084F8FE7184F8FF61F3E64FF400721E
:10979000002120464CF0C4FDD8F84030002E61D1A5
:1097A00004F12007002B77D0D8F8303092491122ED
:1097B000CDE900662046FFF7E9FDD8F840301A6C85
:1097C00004F1400A002A79D01B6B8C49CDE9006670
:1097D00038461122FFF7DAFDD8F84460002E3FF436
:1097E000C9AE4FF4E078CDE904450CE00024CDE9A2
:1097F00000C4FFF7CBFDB66CBA46A8F120080EB343
:10980000B8F11F0F1ED93468356B96F804E01122A9
:109810002B46214650460AF1200706F11C0CBEF1EA
:10982000000FE3D172793369019342F021022B4694
:10983000CDF800C0FFF7AAFDB66CBA46A8F1200823
:10984000002EDDD1DDE9044594E6E91A204642F018
:10985000DFFF8FE6231F04F5FE7243F804BF9A4230
:10986000FBD187E6002BD8F844200CBF012302234C
:10987000C3EB0613002A3FF47DAE966C013B002E2D
:109880003FF478AE013BB66CF9D1002E3FF472AED6
:10989000A2464FF40078A6E7CDE900663346D9F832
:1098A0000C1008222046FFF771FDD8F84460002E06
:1098B0003FF460AEBA464FF4F07894E7CDE9006625
:1098C0003346384611224D49FFF760FDD8F8446011
:1098D000002E86D14EE64FF40072294620464CF009
:1098E0001FFD80220C2384F8BE2184F8C231D9F8F0
:1098F0001000434BD9F8086084F8B85183FB00325C
:10990000C117C1EB2232B2F5806F84F8B95184F8E7
:10991000BA5184F8BB5184F8BC5184F8BD51C4F8E5
:10992000C601C4F8CA6142DBFF2384F8BF3184F862
:10993000C13184F8C031324B711E83FB0132CE1726
:10994000C6EB2232B2F5806F29DA2E4B84F8C5219E
:1099500083FB01030B442C48C6EB6313C3EB831654
:1099600080FB0370891B1844DE17921022F03F021F
:109970000131C6EBE0100A43034484F8C42184F8A3
:10998000C3315522AA2384F8FE2184F8FF31F1E582
:1099900039464FF4007220464CF0C2FCEAE5FF2342
:1099A00084F8C33184F8C53184F8C431E9E7154B34
:1099B00084F8C12183FB00730344134FC1EB63138D
:1099C00087FB0317C3EB831C9110A0EB0C02F81864
:1099D000DF1721F03F010132C7EBE0100A430344D7
:1099E00084F8C02184F8BF31A5E700BF70DE050808
:1099F0007CDE05088CDE050868DE05086CDE0508DF
:109A000097554541832008828180808010D00020B6
:109A1000DEADBEEF08B501203FF07CFB174A93682E
:109A200003F00C03042B1ED0082B18D15168536887
:109A3000490203F03F0319D452681148B0FBF3F018
:109A4000C2F3881300FB03F00C4B0E4A5B68C3F3B0
:109A5000014301335B00B0FBF3F0106008BD094B1C
:109A6000074A1A6008BD074B186008BDB0FBF3F049
:109A70005368C3F3881300FB03F0E5E700380240A6
:109A80000024F400ECD4002010B5044C04480A462D
:109A900021463EF02BF8204610BD00BF981700204D
:109AA00098DE050810B5044C04480A4621463EF0ED
:109AB0001DF8204610BD00BF98170020A8DE05083D
:109AC00010B5044C04480A4621463EF00FF82046E3
:109AD00010BD00BF98170020B4DE05080A4608B57F
:109AE000054920B105483EF001F8034808BD044887
:109AF0003DF0FCFF004808BD98170020E0DE050897
:109B0000C8DE050808B5838940F2E93300E0A3B157
:109B10000289013B12F0020F9BB2F8D089B2818119
:109B200040F2E93300E043B10289013B12F0010F3A
:109B30009BB2F8D08089C0B208BD0DF001FFC0B261
:109B400008BD00BFF8B584894FF6FF764FF47A74EC
:109B500033B319B30F78013101E0B44218D005894D
:109B6000013CAD07A4B2F8D5BCB284814FF47A743D
:109B700002E0BCB2B4420BD00589ED0704F1FF3717
:109B8000F7D58589ADB20AB115700132013BDFE727
:109B90000DF0D6FE003018BF0120F8BDFF27DEE72C
:109BA0000120F8BD30B5437F83B004461BB90120C6
:109BB000637703B030BD0523ADF80430056800BFFE
:109BC000A8680CF0E3FC6A4601A902236868FFF765
:109BD000B9FFA8680CF0E0FC00BF9DF8013003F06D
:109BE000010383F00100637703B030BDF8B5074C83
:109BF00005460F46266803E023689B1BBB4204D83A
:109C00002846FFF7CFFF0028F6D0F8BDBCBD0020E6
:109C1000F0B5077F83B004464FF0030C002000909E
:109C200016461D468DF804008DF800C06FB30B0E6C
:109C30008DF801300DF10203080C0A0A99701870B2
:109C4000062120465A70FFF7D1FFE0B1236800BF1C
:109C500098680CF09BFC237F2268002B14BF05231F
:109C60000423694650680022FFF76CFF23683246E0
:109C7000002158682B46FFF765FF236898680CF0B1
:109C80008BFC00BF284603B0F0BD0DF10103D3E704
:109C90002DE9F04F87B0A94A02904068038823F06D
:109CA00040031B041B0C0380038823F038031B04B0
:109CB00090424FEA134300F03F8102F580629042E8
:109CC0000CBF3022382213430380029B02889B681A
:109CD00042F04002028013B11A689B885383838943
:109CE00040F2E93302E0002B00F090810289013B51
:109CF00012F0020F9BB2F6D06B23838140F2E9335E
:109D000002E0002B00F082810289013B12F0010F7A
:109D10009BB2F6D08389838940F2E93302E0002BBD
:109D200000F071810289013B12F0020F9BB2F6D064
:109D30008023838140F2E93302E0002B00F063814D
:109D40000289013B12F0010F9BB2F6D08389029B7E
:109D50009B6813B11A689B8813830623784CDFF83D
:109D6000EC81DFF8ECA1774D774E04939623DFF872
:109D7000E4C101934FF0100EDAF80430C3F3080386
:109D8000002B40F0B280EFF31183002B40F0AD8048
:109D90002068AA6823689842FAD133689A42F7D8B3
:109DA000D8F800704FF47A7101FB07F39B1AB3FBEC
:109DB000F7F301FB00304FF47A774FF00109DAF83E
:109DC0000430C3F30803002B70D1EFF31183002B91
:109DD0006CD12368A96822689342FAD13268914213
:109DE000F7D8D8F8002007FB02FBABEB0101B1FB71
:109DF000F2F107FB03131B1AB3F57A7FDFD3019B44
:109E0000013B0193B8D1029B9B6813B11A689B88F0
:109E10005383029B586840F2E933828902E0002BA9
:109E200000F085800289013B12F0020F9BB2F6D050
:109E3000F523838140F2E93301E0002B77D00289DA
:109E4000013B12F0010F9BB2F7D08389838940F266
:109E5000E93301E0002B67D00289013B12F0020FC9
:109E60009BB2F7D0FF23838140F2E93301E0002B5E
:109E70005AD00289013B12F0010F9BB2F7D08389BF
:109E8000DBB20393029B9A6812B11368918819831D
:109E9000039B682B60D0049B013B13F0FF030493EA
:109EA0007FF464AF184607B0BDE8F08FEFF311817F
:109EB0008EF31288D5F808B02B68DB0344BFCCF8CA
:109EC0000090D5F808B02368DCF80020C9B281F30F
:109ED0001188D8F80010134407FB01F2A2EB0B0223
:109EE000B2FBF1F207FB032385E7EFF311838EF357
:109EF0001288AF682A68D20303D50122CCF800206B
:109F0000AF682068DCF80090DBB283F31188D8F8E2
:109F100000104FF47A72484402FB01F3DB1BB3FBE1
:109F2000F1F302FB003046E70DF00AFDAAE70DF061
:109F300007FD029B586889E73022C4E600380040DC
:109F4000BCBD002010E000E0C4BD0020C0BD00206A
:109F500000ED00E0B8BD002012B1136892885A836A
:109F6000029B586840F2E933828901E0002B45D01A
:109F70000289013B12F0020F9BB2F7D08C23838140
:109F800040F2E93301E0002B38D00289013B12F0A6
:109F9000010F9BB2F7D08389838940F2E9330289AC
:109FA000013B12F0020F9BB215D1002BF7D10DF03F
:109FB000C7FC029B9B6813B11A689B881383059B9F
:109FC000142B04D3182B17D9543B062B14D900207B
:109FD00007B0BDE8F08FFF23838140F2E93301E051
:109FE000002BE4D00289013B12F0010F9BB2F7D0A5
:109FF0008389DBB20593DCE7032054E70DF0A0FC76
:10A00000029B5868C8E70DF09BFCA0E60DF098FC99
:10A01000029B58687FE600BFF0B5876983B00646AB
:10A0200017B13B68BA885A837069DFF8A8E0838962
:10A03000C3244FF47A734FF0060C6D464FF6FF7150
:10A040000EF1010E03E0013B9BB28B4220D002894E
:10A050009207F8D5A3B283814FF47A7302E0A3B2DA
:10A060008B4215D00289D20703F1FF34F7D58289DC
:10A0700092B20DB12A700135BCF1000F0BD00CF17A
:10A08000FF3CFF24BEF1000FE1D09EF80040D7E76F
:10A090000DF056FCB76917B13B68BA881A839DF872
:10A0A00005009DF801509DF802109DF803409DF8B1
:10A0B00004209DF8063041EA052143EA002342EAE4
:10A0C00004220120A6F85010A6F85220A6F8543019
:10A0D00003B0F0BD2864050810B500F10C0400229F
:10A0E000212120460DF022FDFC22202120460DF0EA
:10A0F0001DFD4022242120460DF018FD0C222321B5
:10A1000020460DF013FD0022222120460DF00EFD09
:10A11000642009F009FE012010BD10B500F10C0407
:10A1200001220B2120460DF001FD20B11D22092145
:10A1300020460DF0FBFC00F0010010BD10B500F151
:10A140000C047022002120460DF0F0FC2022012199
:10A1500020460DF0EBFC0022022120460DF0E6FC2B
:10A16000642009F0E1FD012010BD012248210DF01D
:10A17000DDBC012258210DF0D9BC3122F4210DF0B3
:10A18000D5BC054B93F820209201343202F0FC023A
:10A19000F4210DF0CBBC00BF148B00202E22F42143
:10A1A0000DF0C4BC13B506230C466A4628210C30BA
:10A1B0000DF0EEFBF0B19DF801309DF8002042EA71
:10A1C000032204219DF8033012B292FBF1F22280A7
:10A1D0009DF8022042EA032212B29DF8043092FB5D
:10A1E000F1F262809DF8052043EA02231BB293FB43
:10A1F000F1F3A38002B010BD7FB5002500F10C067D
:10A200000C460D804D808D8001230DF10702062143
:10A2100030460DF0BDFB10B9002004B070BD9DF8B4
:10A2200007305B07F8D5062302AA294630460DF011
:10A23000AFFB0028F0D09DF809209DF8083043EAD4
:10A24000022323809DF80B209DF80A3043EA022365
:10A2500063809DF80D209DF80C3043EA0223A38013
:10A26000DBE713B506230C466A4603210C300DF0DC
:10A270008FFBA0B19DF800209DF8013043EA022336
:10A2800023809DF802209DF8033043EA0223A38037
:10A290009DF804209DF8053043EA0223638002B054
:10A2A00010BD07B5032301AA00210DF071FB9DF835
:10A2B00005309DF804001B0243EA00439DF80600A8
:10A2C000184303B05DF804FB08B5FFF7EAFF014B44
:10A2D000986008BD7817002008B5FFF7E2FF014B32
:10A2E000586008BD7817002007B506236A46F72195
:10A2F0000DF04EFB9DF801309DF800100B4A1B013C
:10A3000043EA01339DF8021043EA111313619DF8EB
:10A3100004309DF803101B0143EA01339DF805103A
:10A3200043EA1113D36003B05DF804FB78170020F3
:10A3300007B5032301AAF6210DF02AFB9DF805308D
:10A340009DF804201B0243EA02439DF806201343B4
:10A35000054AB2F92020C2F10802D340034A9361B2
:10A3600003B05DF804FB00BF148B002078170020B9
:10A3700007B5022301AAF6210DF00AFB9DF804207F
:10A380009DF8053043EA0223024A938203B05DF848
:10A3900004FB00BF7817002070B582B00446062386
:10A3A0000C306A463B210DF0F3FAA8B19DF8040089
:10A3B0009DF800609DF801109DF802509DF8032063
:10A3C0009DF8053041EA062143EA002342EA0522CE
:10A3D0006183A283E383012002B070BD8A4B1B78A6
:10A3E000002B00F09880002800F095802DE9F04FB8
:10A3F000431E85B0854C0190032B4FF00006A8BF8B
:10A400000323A4F114070393B0464FEA062A07EB8F
:10A410000A03256E5B7C002B7ED06A6892B2002A0C
:10A4200065D114F8050CD4E91B13002800F0AA84A8
:10A43000603377485B1AA0FB0351890901EB4101A6
:10A44000A3EB4113182B00F17785173BA0FB0323E7
:10A45000DB0003F0F003D4E91D126D486032521A9C
:10A46000A0FB0251890901EB4101A2EB4112182A1C
:10A4700005D4173AA0FB0212C2F343021343D4E9F6
:10A480001F1263486032521AA0FB0251890901EB86
:10A490004101A2EB4112182A5EBF173AA0FB02123B
:10A4A000C2F34305D4E92112594802F16002A2EB3C
:10A4B0000102A0FB02C14FEA911101EB4101A2EBA5
:10A4C000411248BF0025182A58BF173A45EA03151C
:10A4D0005ABFA0FB0223C3F34303002343EA05133F
:10A4E00083EA132282EA1212100700F00C85494A0F
:10A4F00013680133136026B98022474947484AF060
:10A50000EBFB07EB0A0383F8118054F8109C256ECF
:10A51000D9F800B00CE0704754F8109C34F80A1CCD
:10A52000D9F800B0BBF80C2022EA0102ABF80C20ED
:10A530002A683B4B22F0010221219D422A60C5F886
:10A540000080C5F80480C5F80880C5F80C80C5F8FF
:10A55000108069611FD0334B9D4200F03783324B2E
:10A560009D4200F03D83314B9D4200F0DF84304B33
:10A570009D4200F002852F4A954200F003852E4A45
:10A58000954200F07E852D4A954200F0EC842846E5
:10A590003EF0C8FC02E02A4A3D219160BA448AF8A4
:10A5A000108099F805100C2916D8DFE811F0440145
:10A5B0001500150015004D011500150015003B0193
:10A5C0001500150015000D00BBF81C2022F40062D8
:10A5D0001204120CABF81C202246584607F020FB50
:10A5E00099F805300C2B37D8DFE813F00601360058
:10A5F000360036001101360036003600FB0036000A
:10A60000360036002C0000BF8C2F001098D600209A
:10A61000ABAAAAAA9C18001004D70020183000107A
:10A6200010600240286002404060024058600240D2
:10A630007060024088600240A0600240B860024042
:10A6400000600240BBF81C3023F400631B041B0CA9
:10A6500043F40063ABF81C30D4E90D12236AE06BBD
:10A6600043F040030B431343226CB14903431343AC
:10A67000626C13434022E262A26C28681343A26D0D
:10A680000292626D1343029A014013430B432B6005
:10A69000D4E913316A69206B22F007020B4313439C
:10A6A000D4E909126B616860A960EA602B6843F025
:10A6B00010032B60039B01369E4204F580747FF7E4
:10A6C000A4AE019B9E4280F2CC814FEA062A0AF199
:10A6D00014043C444FF0000807EB0A03256E5B7C32
:10A6E000002B00F0BA806A6892B2002A65D114F893
:10A6F000050CD4E91B13002800F07C8260338D48E0
:10A700005B1AA0FB0351890901EB4101A3EB411343
:10A71000182B00F11484173BA0FB0323DB0003F08C
:10A72000F003D4E91D1283486032521AA0FB025193
:10A73000890901EB4101A2EB4112182A05D4173A0D
:10A74000A0FB0212C2F343021343D4E91F1279485B
:10A750006032521AA0FB0251890901EB4101A2EBC0
:10A760004112182A5EBF173AA0FB0212C2F343053A
:10A77000D4E921126F4802F16002A2EB0102A0FBB2
:10A7800002C14FEA911101EB4101A2EB411248BF16
:10A790000025182A58BF173A45EA03155ABFA0FBEF
:10A7A0000223C3F34303002343EA051383EA13227E
:10A7B00082EA1212120700F0E0825F4A1368013346
:10A7C000136026B980225D495D484AF085FA07EB9F
:10A7D0000A0383F8118054F8109C256ED9F800B054
:10A7E00047E0BBF81C3023F008031B041B0C43F0AC
:10A7F0000803ABF81C302FE7BBF8183023F0080330
:10A800001B041B0C43F00803ABF8183024E7BBF81B
:10A81000183023F400631B041B0C43F40063ABF8F3
:10A82000183019E7BBF81C2022F008021204120CA1
:10A83000ABF81C20D0E6BBF8182022F00802120466
:10A84000120CABF81820C7E6BBF8182022F40062FF
:10A850001204120CABF81820BEE654F8109C34F821
:10A860000A1CD9F800B0BBF80C2022EA0102ABF8B0
:10A870000C202A68334B22F0010221219D422A60DC
:10A88000C5F80080C5F80480C5F80880C5F80C80BC
:10A89000C5F8108069611FD02B4B9D4200F091815B
:10A8A0002A4B9D4200F09781294B9D4200F039834D
:10A8B000284B9D4200F05D83274A954200F0678354
:10A8C000264A954200F0E283254A954200F04683ED
:10A8D00028463EF027FB02E0224A3D219160BA441F
:10A8E0008AF8108099F805100C2910D8DFE801F0DB
:10A8F000A70F0F0F9E0F0F0FB00F0F0F0700BBF822
:10A900001C2022F400621204120CABF81C20224618
:10A91000584607F085F999F805300C2B2ED8DFE85A
:10A9200003F06F2D2D2D7A2D2D2D642D2D2D23002F
:10A930003F801CF0ABAAAAAA9C18001004D70020E4
:10A940001830001010600240286002404060024051
:10A95000586002407060024088600240A06002407F
:10A96000B860024000600240BBF81C3023F4006372
:10A970001B041B0C43F40063ABF81C30D4E90D122C
:10A98000236AE06B43F040030B431343226C974967
:10A9900003431343626C13434022E262A26C2868B3
:10A9A0001343A26D0292626D1343029A0140134356
:10A9B0000B432B60D4E913316A69206B22F0070244
:10A9C0000B431343D4E909126B616860A960EA6024
:10A9D0002B6843F010032B60019B0136B34204F552
:10A9E00080743ED04FEA062A76E6BBF81C3023F08E
:10A9F00008031B041B0C43F00803ABF81C30BDE735
:10AA0000BBF8183023F008031B041B0C43F00803A9
:10AA1000ABF81830B2E7BBF8183023F400631B041E
:10AA20001B0C43F40063ABF81830A7E7BBF8182001
:10AA300022F400621204120CABF8182067E7BBF88E
:10AA4000182022F008021204120CABF818205EE75E
:10AA5000BBF81C2022F008021204120CABF81C20D8
:10AA600055E77A68787B13685179800754BF0122D3
:10AA700004228A40198C92B221EA02011984198CAD
:10AA80000A431A84019B012B00F09880D7F8042117
:10AA900097F80D0113685179820754BF01220422EF
:10AAA0008A40198C92B221EA02011984198C0A4356
:10AAB0001A84019B022B00F08180D7F8042297F8BA
:10AAC0000D0213685179860754BF012204228A407F
:10AAD000198C92B221EA02011984198C0A431A8452
:10AAE000019B032B6AD0D7F8042397F80D03136852
:10AAF0005179850754BF012204228A40198C92B2F1
:10AB000021EA02011984198C0A431A84019B042B3F
:10AB100054D0D7F8042497F80D14136850798C0793
:10AB200054BF01220422198C824092B221EA020110
:10AB30001984198C0A431A84019B052B3ED0D7F83F
:10AB4000042597F80D0513685179800754BF012239
:10AB500004228A40198C92B221EA02011984198CCC
:10AB60000A431A84019B062B28D0D7F8042697F8AD
:10AB70000D1613685079890754BF01220422198CDD
:10AB8000824092B221EA02011984198C0A431A8484
:10AB9000019B072B12D0D7F8042797F80D071368ED
:10ABA000517982074CBF042201228A40198C92B24B
:10ABB00021EA02011984198C0A431A8405B0BDE800
:10ABC000F08F0B4A4FF47461916088E6084A4FF4A5
:10ABD00074619160E2E4064A4FF4741191607EE67C
:10ABE000034A4FF474119160D8E400BF3F801CF019
:10ABF000006002405B1A002B40F3AA810A2BD4BFED
:10AC000000230123D4E91D12521A002A4FEA4303FC
:10AC100040F3FB810A2A01DD43F00103D4E91F124E
:10AC2000521A002A4FEA430340F3F7810A2A01DD52
:10AC300043F00103D4E92112521A002A4FEA4303D8
:10AC400040F3E7810A2A01DD43F00103D4E923122E
:10AC5000521A002A4FEA430340F3CF810A2A01DD4A
:10AC600043F00103D4E92512521A002A4FEA4303A4
:10AC700040F3BF810A2A01DD43F00103D4E9271222
:10AC8000521A002A4FEA430340F3AF810A2A01DD3A
:10AC900043F00103D4E92912521A002A4FEA430370
:10ACA00040F39F810A2A01DD43F00103D4E92B120E
:10ACB000521A002A4FEA430340F38F810A2A01DD2A
:10ACC00043F00103D4E92D12521A002A4FEA43033C
:10ACD00040F37F810A2A01DD43F00103D4E92F12FA
:10ACE000521A002A4FEA430340F36F810A2A01DD1A
:10ACF00043F00103D4E93112521A002A4FEA430308
:10AD000040F35F810A2A01DD43F00103D4E93312E5
:10AD1000521A002A4FEA430340F34F810A2A01DD09
:10AD200043F00103D4E93512521A002A4FEA4303D3
:10AD300040F33F810A2A01DD43F00103D4E93712D1
:10AD4000521A002A4FEA430340F32F810A2A01DDF9
:10AD500043F00103D4E93912521A002A4FEA43039F
:10AD600040F31F810A2A01DD43F0010383EA132225
:10AD700082EA121215077FF420ADC3F30F1324F8F3
:10AD8000023C24E55B1A002B40F3DC800A2BD4BF85
:10AD900000230123D4E91D12521A002A4FEA43036B
:10ADA00040F32F810A2A01DD43F00103D4E91F1289
:10ADB000521A002A4FEA430340F35F810A2A01DD59
:10ADC00043F00103D4E92112521A002A4FEA430347
:10ADD00040F34F810A2A01DD43F00103D4E9231235
:10ADE000521A002A4FEA430340F33F810A2A01DD49
:10ADF00043F00103D4E92512521A002A4FEA430313
:10AE000040F32F810A2A01DD43F00103D4E9271220
:10AE1000521A002A4FEA430340F31F810A2A01DD38
:10AE200043F00103D4E92912521A002A4FEA4303DE
:10AE300040F30F810A2A01DD43F00103D4E92B120C
:10AE4000521A002A4FEA430340F3FF800A2A01DD29
:10AE500043F00103D4E92D12521A002A4FEA4303AA
:10AE600040F3EF800A2A01DD43F00103D4E92F12F9
:10AE7000521A002A4FEA430340F3DF800A2A01DD19
:10AE800043F00103D4E93112521A002A4FEA430376
:10AE900040F3CF800A2A01DD43F00103D4E93312E5
:10AEA000521A002A4FEA430340F3BF800A2A01DD09
:10AEB00043F00103D4E93512521A002A4FEA430342
:10AEC00040F3AF800A2A01DD43F00103D4E93712D1
:10AED000521A002A4FEA430360DD0A2A01DD43F0DB
:10AEE0000103D4E93912521A002A4FEA430352DD12
:10AEF0000A2A01DD43F0010383EA132282EA1212D7
:10AF000011077FF4F4AA634A1278C3F30F132F2AB0
:10AF100024F8023C7FF4F5AA5F4A22F81630FFF7C6
:10AF2000F0BA5E4A4FF074619160D8E45B4A4FF02A
:10AF300074619160FFF732BB1346FFF78CBA13467A
:10AF4000FFF7EFBB13F1090FB4BF0023012321E783
:10AF500013F1090FB4BF0023012353E64FF03D5115
:10AF600042F8AC1CBBE44FF03D5142F8AC1CFFF77B
:10AF700015BB4A4A4A49D160B1E4484A4849D160C0
:10AF8000FFF70CBB474942F87C1CFFF707BB45495C
:10AF900042F87C1CA3E40932AEDBABE70932A0DB4C
:10AFA0009DE70932FFF6E2AEDEE60932FFF6D2AEE9
:10AFB000CEE60932FFF6C2AEBEE60932FFF6B2AE09
:10AFC000AEE60932FFF6A2AE9EE60932FFF692AE79
:10AFD0008EE60932FFF682AE7EE60932FFF672AEE9
:10AFE0006EE60932FFF662AE5EE60932FFF652AE59
:10AFF0004EE60932FFF642AE3EE60932FFF632AEC9
:10B000002EE60932FFF6D2AECEE60932FFF606AEE4
:10B0100002E60932FFF61AAE16E60932FFF60AAE6C
:10B0200006E60932FFF652AF4EE70932FFF642AFAD
:10B030003EE70932FFF632AF2EE70932FFF622AFC4
:10B040001EE70932FFF612AF0EE70932FFF602AF34
:10B05000FEE60932FFF6F2AEEEE60932FFF6E2AEA8
:10B06000DEE60932FFF6D2AECEE60932FFF6C2AE18
:10B07000BEE60932FFF6B2AEAEE60932FFF6A2AE88
:10B080009EE6094942F8941CFFF788BA064942F83F
:10B09000941C24E4D1BB0020D4BB002000600240FB
:10B0A0003D000020400F002000003D20037C02688E
:10B0B0001F2B86BF203B51681168202202FA03F340
:10B0C0000B4214BF0123002303B970472DE9F04759
:10B0D0004569DFF868A12D02044608F075FD0AEB0A
:10B0E000050307461A7C002A34D14F495A6809786B
:10B0F000D2F80090C9B9596F58890A6822F0010244
:10B100000A60B9F80C3023EA0003A9F80C30474B69
:10B110001B78002B31D1237C21681F2B13D82022D0
:10B1200002FA03F38B60BDE8F0875269136823F0DD
:10B1300001031360B9F80C3023F480731B041B0C5B
:10B14000A9F80C30E3E7203B202202FA03F3CB609E
:10B15000BDE8F0875E6F36485F8901225A74316816
:10B160005A680368156821F001013160AA8901332A
:10B1700022EA0702AA810360CDE70AEB050628351B
:10B18000D6F8748040463DF05DFF01230AEB0501CF
:10B19000484633743EF016F8D6E91202736B316DEF
:10B1A000D8F8005003431343D6E915200B4313434B
:10B1B000F16DB26E03430B431E48F16E13432840FA
:10B1C0000B43034300223264C8F80030D6E918313B
:10B1D000D8F81420B06B756C22F007020B431343B0
:10B1E000F26BC8F81430C8F80450C8F80800C8F862
:10B1F0000C20D8F80020736F96F87000716842F048
:10B200001002C8F8002058601A68096842F001026C
:10B210001A608B89728913438B8108F0D5FC064B29
:10B22000C01B186077E700BF902F00108C2F001014
:10B23000546E00203F801CF01430001084D6002093
:10B24000024B014618680CF01BBD00BF00430020F4
:10B2500038B5064D441E14F8011F286819B9BDE819
:10B2600038400CF0C1BC0CF00BFDF4E700430020AB
:10B270000048EDE7A31C060808B5FFF7E9FFBDE8A5
:10B280000840F5E710B504460348FFF7E1FF204604
:10B29000BDE81040F0E700BF4BDE050838B5074CAD
:10B2A000074DAC4203D3074B00221A7038BD6288A9
:10B2B000D4E9010149F010FD1434F2E790010008CF
:10B2C0006C070008A0EA002038B5074C074DAC42D7
:10B2D00003D3074B01221A7038BD6288D4E90110EC
:10B2E00049F0FAFC1434F2E7900100086C070008FA
:10B2F000A0EA0020024A136823EA000010607047A9
:10B3000060E80020DFED2E7AB4EEE70AF1EE10FAE5
:10B310004ADDDFED2C6A9FED2C7A01E0B0EE670A82
:10B32000B4EEC70AF1EE10FA70EE667AF6DC9FED25
:10B33000277AF4EEC77AF1EE10FA3ED5DFED216AF6
:10B340009FED237A01E0F0EE407AF4EEC77AF1EE59
:10B3500010FA37EEA60AF6D4DFED1E7AB4EEE70A4D
:10B36000F1EE10FA14DDDFED167A37EEC00A60EE6A
:10B37000006A9FED196A9FED197ADFED197AA6EE42
:10B38000867A20EE266AE6EE877AA6EE270A7047CE
:10B39000DFED147AB4EEE70AF1EE10FA44BFDFED08
:10B3A0000B7A37EEC00AE2E79FED087AF0EE407ABA
:10B3B000F4EEC77AF1EE10FAC0D4B0EE670ACBE72C
:10B3C000DB0F4940DB0FC940E4CB1641DB0F49C01E
:10B3D000E4CB16C1DB0FC93F92E741B99730083C77
:10B3E00015A82ABEDB0FC9BFF0EEC07AB0EEE07A36
:10B3F000B4EEE77AF1EE10FAB4BFB0EE676AB0EEE1
:10B40000476AB5EE406AF1EE10FA46D0B4EEE77A3C
:10B41000F1EE10FA8CBFF0EE675AF0EE475AC5EE27
:10B42000866A9FED1F3A9FED1F6A9FED1F4A9FEDB1
:10B430001F5ADFED1F3ADFED1F4ADFED1F5AA6EE60
:10B44000C36AE6EEA34AA6EE864AB7EE006AA6EE07
:10B45000845AA6EEA46AE6EE855AC5EE866AB4EE74
:10B46000E77AF1EE10FA48BFDFED147AF5EEC00A84
:10B4700048BF77EEE66AF1EE10FA48BFDFED107ACA
:10B48000B5EEC00A48BF77EEE66AF1EE10FA48BFA3
:10B49000F1EE666AB0EE660A7047DFED076ADEE736
:10B4A00039094E3DE3B59E3E88FA163E45FE7F3F84
:10B4B00099FB243F69A2163EA7DFA834DB0FC93FE2
:10B4C000DB0F4940DFED317A30EE277AFDEEC76AB7
:10B4D00016EE903A2033402B02D99FED2D0A70478B
:10B4E000B4EEE70AF1EE10FA4DDD9FED2A6ADFEDCA
:10B4F0002A6A01E0B0EE677AB4EEE67AF1EE10FA6D
:10B5000077EE467AF6DC9FED257AF4EEC77AF1EE17
:10B5100010FA35D5DFED1F6A9FED217A01E0F0EEDC
:10B52000407AF4EEC77AF1EE10FA37EEA60AF6D4B6
:10B53000DFED167AB4EEE70AF1EE10FA1BDCDFED70
:10B54000197AB4EEE70AF1EE10FA44BFDFED137A90
:10B5500037EEC00A60EE006A9FED136A9FED137A22
:10B56000DFED137AA6EE867A20EE266AE6EE877A7B
:10B57000A6EE270A7047DFED0F7A37EEC00AE9E73B
:10B58000B0EE670AD4E7F0EE477ABCE7DB0FC93FBD
:10B5900000000000DB0FC940E4CB1641DB0F49C0BF
:10B5A000E4CB16C1DB0FC9BF92E741B99730083C25
:10B5B00015A82ABEDB0F494010B44C09012250F8EF
:10B5C000243001F01F0102FA01F123EA010340F8DF
:10B5D00024305DF8044B704710B44C09012250F838
:10B5E000243001F01F0102FA01F10B4340F824302E
:10B5F0005DF8044B704700BF4B0901F01F0150F884
:10B600002320012303FA01F1114214BF1846002040
:10B61000704700BF2DE9F043002489B006460D466F
:10B620001F46A04605E025290CD030460134A84726
:10B63000039A531C039311780029F4D1204609B0D2
:10B64000BDE8F083931CCDE903385078302842D010
:10B65000A0F13003DBB2092B4FF0000945D96C286B
:10B660002AD0642873D019D9732858D063D9752883
:10B6700040F0828007F1040C386805AB00220A21F3
:10B680006746FCF7EDFD05AB049A009329464B464F
:10B690003046FCF7BBFC039A0444CAE725283CD09B
:10B6A00051D958286BD06328C2D139783046A84781
:10B6B00004370134039ABCE7039B5A1C03921B789E
:10B6C000642B52D016D8252B27D064D9582B18D0EC
:10B6D000632BEAD0ADE7D31C03939078A0F130033D
:10B6E000DBB2092B4FF00109B9D804AA03A941F034
:10B6F000E1F8B4E7732B12D051D9752B2DD0782BEC
:10B7000097D1A3F15802B2FA82F23868520905AB18
:10B7100010210437FCF7A4FDB5E7252185E73B6838
:10B72000049A0093294600233046FCF76FFC043747
:10B730000444039A7DE76E287FF47AAF039A3B684E
:10B7400004371C6075E700283FF478AF70E738686D
:10B7500005A9FCF74FFD043795E7386805AB0022D3
:10B760000A21FCF77DFD04378DE73B1D386805A9EC
:10B770001F46FCF73FFD86E778287FF459AFA0F11C
:10B780005802B2FA82F23868520905AB1021FCF770
:10B7900067FD043777E7002B3FF450AF49E76E2B86
:10B7A000CDD046E710B5064C0B4602460549206849
:10B7B000FFF730FF2068BDE810400CF015BA00BF5D
:10B7C00000430020DD9200080FB407B504A951F82A
:10B7D000040B0191FFF7E6FF03B05DF804EB04B042
:10B7E00070470CB407B510F020000BD079B92320B6
:10B7F000FFF726FD05A904980191FFF7D3FFFFF796
:10B8000037FD012003B05DF804EB02B07047002063
:10B81000F8E70CB4C30607B500D561B905A90498CB
:10B820000191FFF7BFFFFFF723FD012003B05DF893
:10B8300004EB02B070470020F8E700BF0EB400B57B
:10B8400084B005AB019053F8042B0649039301A87B
:10B85000FFF7E0FE019B00221A7004B05DF804EBD4
:10B8600003B070470180000870B406688E4217D993
:10B870000139751E002311F8014F0822634013F0AF
:10B88000800F4FEA430318BF83F0D503013ADBB2C0
:10B89000F5D18D42EFD1721C0260337070BC7047DD
:10B8A000721C00230260337070BC70470A449142DE
:10B8B00015D010B40139541E11F8012F082350403F
:10B8C00010F0800F4FEA400018BF80F0D500013B18
:10B8D000C0B2F5D1A142EFD15DF8044B704770477B
:10B8E0004840082310F0800F4FEA400018BF80F056
:10B8F000D500013BC0B2F5D1704700BF0A44914268
:10B9000015D030B40139551E41F2210211F8014F12
:10B91000082380EA042004044CBF82EA400040006F
:10B92000013B80B2F7D18D42F0D130BC70477047F7
:10B9300070B502221349144C144E4FF6FF70FFF7F6
:10B94000DDFF22884AB1A518B54218D2052A16D9BA
:10B950002146FFF7D3FF2C46F3E721460222FFF7EB
:10B96000CDFF0222A118FFF7C9FF094BE41A094BCA
:10B970001C8041F60F53C31A5842584170BD002035
:10B98000FCE700BF004000080240000800800008FB
:10B99000FA3F0008A2EA00200F4B2DE93048D3E916
:10B9A000004554EA05020AD1034640F20112002084
:10B9B0001880988098715A801881BDE83088074BAC
:10B9C0001A6814EB020B45F1000C5A466346FCF76B
:10B9D00059FB0120BDE8308810790020BCBD002053
:10B9E00030B403888278C478154DA3F5FA6303F068
:10B9F000030101EB4101013A02EB81029B0835F89A
:10BA000012500279611E40F2B55404FB03132B441B
:10BA100003EB430302EBC3034279847909490089AC
:10BA2000C3EB031302EB83032144C3EB031301EBCA
:10BA300083034FF47A720021C2FB030130BC7047CC
:10BA4000C863050880436D382DE9F04707468CB080
:10BA50001E469246002A5CD1154614460A88B2F565
:10BA6000FA6F36D38B78581E0B2832D891F803C062
:10BA70000CF1FF301E282CD891F804E0BEF1170F0E
:10BA800027D891F80590B9F13B0F22D888793B2847
:10BA90001FD8B1F80880B8F57A7F1AD24FF00108A4
:10BAA0005EBB09890491002CB4BF2D212B21002CF1
:10BAB000B8BF6442CDE90290CDE905140795CDE900
:10BAC00000CE38462A49FFF7B9FE40460CB0BDE823
:10BAD000F08700232749ADF828304FF0010C1846B5
:10BAE0008DF82A30ADF82C3099469E461A46984675
:10BAF0000991634609A9002ED3D0CDE90290CDE982
:10BB000000CE38461C49FFF799FE40460CB0BDE810
:10BB1000F0871A4C84FB0234A318D417C4EB6314C7
:10BB2000C4EB0415A2EB85052DB2002D0846B8BF65
:10BB30006D42FFF755FF4FF47A7200238046894625
:10BB400048F030FE3C230AFB030A4FF47A720023CC
:10BB50004046494648F026FE4FF47A7192B20023DF
:10BB6000C1FB0A2309A8FCF78DFA24B209A975E7DD
:10BB700018DF050800000101F8DE050889888888BB
:10BB80000378202B024600F10100F9D0092BF7D0F1
:10BB90002D2B00F0A4802B2B03BF5378B7EE000AA7
:10BBA0000246B7EE000AA3F13001C8B209289FEDA2
:10BBB000577A10D8F2EE046A07EE901AF8EEE77A98
:10BBC00012F8013FE7EE267AA3F13001C8B2092846
:10BBD000B0EE677AF0D92E2B63D003F0DF03452B4C
:10BBE00002D020EE070A704710B451782D294FD0AB
:10BBF0002B2979D0A1F13003092B02F101027AD867
:10BC00000024002303EB830301EB430312F8011F1D
:10BC1000A1F130000928A3F13003F3D9B3F59A7FDD
:10BC20001A4628BF4FF49A72072B6CD9DFED386A99
