:020000040800F2
:10000000F0FF0010112705084DA30008C56D010879
:10001000B1270508B1270508B12705080000000031
:1000200000000000000000000000000059A30008CC
:1000300055A300080000000051A30008296E010824
:10004000B1270508B1270508B1270508B12705081C
:10005000B1270508B1270508ED9D0408199F04087C
:10006000DD9E0408A19E0408659E040869940308A7
:100070005994030849940308399403082594030804
:1000800011940308FD930308B1270508B12705085B
:10009000B1270508B1270508B1270508299E0408DE
:1000A0007503010811090108A5020108ED090108FD
:1000B0005108010891070108C5060108F99B0308CA
:1000C000019C0308ED9B0308F59B0308B127050875
:1000D000B1270508F56F0108596F0108BD6E0108C9
:1000E000B39D0408B127050831F10008D5010108C6
:1000F000450401080501010825050108E9930308E5
:10010000B1270508B1270508F5050108B12705083D
:10011000B1270508B12705082D470208194702082D
:10012000D5930308C1930308AD930308999303087B
:1001300085930308B1270508B1270508B1270508ED
:10014000B1270508B1270508B127050801BE000839
:10015000719303085D93030849930308B1270508C9
:10016000E19B0308E99B0308B1270508B1270508AF
:10017000B1270508B1270508B1270508B1270508EB
:08018000B1270508B1270508AD
:08018800B8220500010000008F
:1001900014000300B03000201C31002000000000DB
:1001A000080700080B301800BC2000202031002078
:1001B000000000000C0700081F302400D42000209D
:1001C0003831002000000000240700080502040068
:1001D000442C00205C31002000000000480700088B
:1001E00003010A00142100206031002000000000FB
:1001F0004C07000813020400E41E00206C310020AC
:1002000000000000560700081A023C006842002067
:100210004C45002000000000913E03082700040028
:100220006442002088450020000000005A070008B2
:10023000F6210C00F04F00203C5000200000000090
:100240006007000820320A00985000208C500020DF
:1002500000000000958001081C021000144C0020D2
:10026000A450002000000000E1310308101002003B
:10027000DC4D0020B4500020000000006C07000896
:1002800028101000CC4D0020B850002000000000C5
:100290000D81010819000500C44D0020C850002040
:1002A000000000006E070008F8210600BC4D002089
:1002B000D050002000000000740700080120080052
:1002C00058480020D8500020000000007A0700089D
:1002D0000A702800D4470020E050002000000000F1
:1002E000B58001080EA06E01644600200851002070
:1002F00000000000E5E8030801010400CC450020EF
:1003000078520020000000000000000000010400FE
:10031000C44500207C520020000000008207000835
:1003200002010300C04500208052002000000000B0
:10033000A120020807020200745D0020EC5D00208D
:10034000000000008607000803123300985D0020BB
:10035000F05D0020000000008807000802000C008B
:100360004C5D0020245E0020000000000000000022
:1003700006020C00405D0020305E002000000000FE
:10038000213F030808120F00C05C00203C5E0020E3
:100390000000000021330308F7010600B45C0020D0
:1003A0004C5E002000000000BC0700080A020A00A2
:1003B000405A0020545E002000000000D1260208B0
:1003C00003000100A85C0020605E00200000000027
:1003D0000000000025102C01545A0020645E00200B
:1003E00000000000000000000902010098770020D2
:1003F0001078002000000000C20700080C109C00CC
:10040000C0670020147800200000000021200208AE
:1004100000020500A4670020B07800200000000062
:10042000000000001B02100078670020B878002050
:10043000000000000D3203081E000600E4640020E6
:10044000C878002000000000C40700081B100C0042
:10045000E4610020D078002000000000E1D802080C
:100460002102F00064600020DC7800200000000021
:10047000B5C60208051006003C6A0020CC790020B1
:1004800000000000CA07000837102400146700208D
:10049000D479002000000000D00700080E020200FE
:1004A000206A0020F879002000000000F40700080E
:1004B0001610060058600020FC79002000000000A3
:1004C000F60700082F102200EC770020047A0020A5
:1004D00000000000FC07000812201000CC63002080
:1004E000287A0020000000001E08000823100E00DB
:1004F00034640020387A0020000000002F810108B9
:10050000F5518C00905F0020487A00200000000028
:100510006D11030826100C00E07A0020D47A002028
:100520000000000031BA02080202030064800020CB
:1005300060800020000000000000000010020100A8
:100540006C80002068800020000000002E08000859
:100550001F0210008080002070800020000000003A
:100560004D3303081A000E0040A8002050A80020B8
:1005700000000000300800081500700040A40020B2
:1005800060A8002000000000000000002A006000B9
:10059000E0A70020D0A8002000000000BDE803086C
:1005A0002C00100040A9002030A90020000000000D
:1005B0004DE603082B00240074A9002050A9002058
:1005C000000000001DE603082920780030A200206A
:1005D00098A9002000000000000000000D00340079
:1005E000FCD4002098D5002000000000019D0308E5
:1005F0000400800084CB0020CCD500200000000047
:10060000000000001300040064CB00204CD6002042
:100610000000000040080008FD01240040CB00203D
:1006200050D60020000000008D6D040818202E0018
:100630000CCB002074D600200000000035400308D9
:1006400006101A006CB90020A4D60020000000009B
:1006500045E90308FB01010068B90020C0D600206D
:1006600000000000A1400308FC01090034B800208C
:10067000C4D6002000000000B140030816023F006D
:10068000ECB70020D0D60020000000004132030863
:10069000340010001CB7002010D70020000000001C
:1006A00019E9030811020800F4B6002020D7002041
:1006B000000000004408000812120400ECB60020FC
:1006C00028D70020000000004C080008F9010400B1
:1006D0006CB300202CD7002000000000036E04083B
:1006E000FA01020024AD002030D7002000000000F5
:1006F00045340308FE011400F0AC002034D700207C
:08070000000000002132030893
:1007080003000000AE014A015E012C0164000200F2
:10071800000001000A019A01001E0A000000000002
:1007280000010000000500000102030000000000B5
:10073800000000000000000000000000008007002A
:1007480000000000040101006C1600000000000019
:100758000119200300000000000000000100000053
:100768000202000000050000280100000401F40155
:100778001400E8036400040A000190010000033C2F
:100788000000000000000000000000000000000061
:100798000000000000000000000000000000000051
:1007A8000000000000000000000000000000000041
:1007B800000001003500010000001A0000000100DF
:1007C800000020000101000020003200C800D0070E
:1007D8009600140032002800B004400600055000BE
:1007E80014000F0008006400010001000000C409A3
:1007F80000001900000000000000000000000000D8
:1008080000000000000000000000000000000000E0
:1008180000000000000000000001000005434F4CEC
:1008280049000010000000007E05EA05B40532000A
:10083800E803D00700000000080040300000000076
:0808480001010101FFFFFFFFA8
:100850000403090412010002EF020140830456322E
:100860000002010203010000120100020202004026
:100870008304405700020102030100000902200026
:10088000010104C0320904000002080650050705F2
:1008900081024000000705010240000009026400D7
:1008A000030100C032090400000103000000092117
:1008B000110100012226000705830308000A080B26
:1008C0000102020201000904010001020201000507
:1008D000240010010524010002042402020524065C
:1008E0000102070582030800FF09040200020A0052
:1008F00000000705010240000007058102400000DA
:1009000009024300020100C0320904000001020292
:100910000100052400100105240100010424020245
:100920000524060001070582030800FF09040100F1
:10093000020A0000000705010240000007058102CD
:1009400040000000FF0000005040050800000000CB
:100950000000000000000000000000000000000097
:100960000000000000000000000000000000000087
:1009700000FFFF0000000000AA5505010000010073
:1009800024400508000000000000000000000000F6
:100990000000000000000000000000000000000057
:1009A0000000000000000000FF1FFF1F05010905F7
:1009B000A101A100050109300931093209330935C6
:1009C0000934094009381581257F75089508810289
:1009D000C0C0000009022200010100E03209040049
:1009E0000001030102000921110100012226000774
:1009F00005830308000A0000000000000102030450
:100A0000010203040607080991AF000895AE00082B
:100A1000EDB20008B982000831880008C9820008D8
:100A2000E582000891820008818200080000000031
:100A3000000000002D202D2D202D2D2D2D202D2DC1
:100A40002D2D00000000000000000000000000004C
:100A5000000000AA550B010000AA5507010000AADA
:100A6000550902000000AA5503009F000100000084
:100A7000C0120000F03000200000000014310020FF
:100A800000000000685E0C0001000000A00F0000E4
:100A9000B80B00000102FFFF01FF00000100000091
:100AA0005D78010800000000204605082070002045
:100AB000702D7200FFFFFFFFD6010101000101014F
:100AC000002D202D2D202D2D2D2D202D2D2D000004
:100AD0000000000000000000000000000000000016
:100AE0000000000000000000A05C050800000000FD
:100AF000000000002C5D050801000000FA00000065
:100B00000100000001000000010100002A4800204F
:100B100000C801002948002000500100284800209A
:100B2000005A01002648002002000000504C050831
:100B30003CCA050844CA050882D500200100C40942
:100B40000000000080D500200100C4090000000062
:100B50007ED500200100C409000000007CD50020E3
:100B60000100C4090000000078D500200100C4097C
:100B7000000000007AD500200100C4090000000038
:100B800076D500200100C4090000000074D50020C3
:100B90000100C40900000000DE4500200100C8007B
:100BA00001000000DC4500203200307532000000FA
:100BB000DB450020055A0500D845002000FF010054
:100BC000DA4500200100000068040020D64500201E
:100BD00002000000106B0508D745002000FF01004F
:100BE000D94500200100000068040020D545002000
:100BF00002000000106B050864480020EE02CA08DD
:100C0000010000006248002000C8010064000000EC
:100C10006148002000C80100640000006048002016
:100C2000020000005C4C0508D245002080C1803ED7
:100C300005000000D045002080C1803E0500000076
:100C4000CA45002080C1803E05000000C845002044
:100C500080C1803E05000000C345002000FF010068
:100C6000BC4500206400F40101000000BB450020E9
:100C700004000000684C0508BA450020020000008E
:100C80007C4C0508554600200D000000884C0508E6
:100C90005246002000640100504600203200102718
:100CA0000A0000004F4600200D000000884C050897
:100CB0004E4600200D000000884C05084D460020DF
:100CC00002000000C04C0508000000000000000009
:100CD000CC4C0508FC2B00209CFF2C0100000000E0
:100CE000544B0020E0150C1700000000564B00206C
:100CF00002000000044D0508704800200100FF7F3D
:100D0000010000006F48002002000000104D05089F
:100D10005746002003000000204D050856460020DD
:100D200003000000204D0508084800200000E803EB
:100D300001000000064800200000E8030100000058
:100D4000044800200000E8030100000002480020E1
:100D50000000E80301000000004800200000E80354
:100D600001000000FE4700200000E8030100000031
:100D7000FD47002000140100FC4700200300000094
:100D8000304D0508144800200000F4010100000067
:100D9000124800200000F40101000000104800206B
:100DA0000000F401010000000E4800200000F401E2
:100DB000010000000C4800200000803E01000000FF
:100DC0000A4800200000803E010000003D4800204D
:100DD000196401003C48002002000000404D050855
:100DE0003A480020E803D0070A00000038480020F5
:100DF000006401000A0000002D480020006401008A
:100E00002C480020006401003448002000640100E8
:100E10000A00000033480020006401000A000000BE
:100E200032480020006401000A000000374800201A
:100E3000006401000A000000364800200064010040
:100E40000A00000035480020006401000A0000008C
:100E50003148002001FF01000A0000003048002056
:100E600001FF01000A0000002F48002001FF0100DF
:100E70000A000000604600200000F40101000000AC
:100E80005E4600200000F401010000005C460020E6
:100E90000000F401010000005A4600200000F401A7
:100EA00001000000584600200000F401010000008D
:100EB000254800200064010024480020006401004F
:100EC000234800200064010022480020FF080100A0
:100ED0002148002001640100257E0108E97D010808
:100EE0004C4D050820480020006401001E480020E9
:100EF0001400E803010000001C480020E8033075DE
:100F00000A0000001A48002000C80100194800200B
:100F100000C801001848002000C801001748002040
:100F2000006401000A000000544800200000D007BF
:100F3000010000004F48002000C801004E4800207A
:100F400000C801004D48002000C8010052480020A0
:100F50000000D007010000004C48002000C801003C
:100F60004B48002000C801004A48002000C801008A
:100F7000504800200000D007010000004948002030
:100F800000C801004848002000C801004748002070
:100F900000C8010000000000597B0108BC4D050895
:100FA0004B46002031000000584E05084A460020FC
:100FB00000C8010048460020E803D00701000000F7
:100FC000434F4C4942524900B97A0108917A0108CD
:100FD000204F05084D7A0108017A0108744F050871
:100FE000E17A0108E59C0108F44F0508D44500208A
:100FF00001030100857F0108597F0108E8520508B7
:10100000A9790108697901084C5305086F7B01082B
:1010100069AA0108E85305080999010800000000C1
:101020009054050869A00108E57F01082C550508C2
:10103000C17B010800000000AC550508997C01083F
:10104000457C010810560508297D0108ED7C010842
:10105000AC560508617E0108A97E01082C570508D9
:101060002B48002001060100097C0108D57B0108FE
:1010700028580508657D0108499D0108985805080C
:10108000DD7E0108CD9D010878590508164800202D
:1010900001030100297B0108F97A01084C5A05086F
:1010A000B17F010800000000B05A0508E979010885
:1010B000CD9C0108145B0508000000000000000042
:1010C000785B0508317F0108459E0108F85B05083B
:1010D000B645002088136F1701000000B8450020B6
:1010E00088136F170000000072210020000000002C
:1010F000000000007021002000000000000000003F
:101100006E21002000000000000000006C21002083
:1011100000000000000000006A2100200000000024
:101120000000000068210020000000000000000016
:10113000A803002000000000000000008C450020F3
:1011400002000000805D0508B445002088136F1779
:10115000010000003C2C002088136F1700000000E5
:10116000FD780108000000008C5D0508864B00201A
:1011700001000000E05D05083E2C00200100000099
:10118000EC5D0508342C002002000000F45D050829
:101190000000000000000000005E0508E97801087A
:1011A000000000009C5E0508000000000000000038
:1011B000F05E05080000000000000000605F050808
:1011C000382C0020E0150C17000000000000803FC4
:1011D000000000000000000000000000FFFFFFFF13
:1011E00000000000DC5D002008000000000000009E
:1011F000CC5D0020080000000000803FFFFFFFFFE3
:1012000094DC0508A0DC0508ACDC0508B8DC0508A2
:10121000C4DC0508D0DC05089CD8050804FC0508DA
:10122000E8FA050820DC05083423060884DC0508F4
:1012300088DC05088CDC050890DC050874DC0508F2
:1012400078DC05087CDC05086CF9050880DC0508FD
:101250001900C800F401200374DC050878DC0508D7
:10126000DCDC05087CDC0508E0DC0508E4DC0508BE
:101270000100000000000100FFFFFFFF01FFFFFF72
:101280001A03000000000000000000000000000041
:10129000000000000000000000000000040309043A
:1012A00012010002000000408304205700020102E6
:1012B00003010000B57D0308A13303089D33030833
:1012C00099330308CD40030895330308913303088D
:1012D000346F0508EDA40008BD8600082DB0000895
:1012E000000000000000000031AD00084DAC000817
:1012F000000000000000000000000000F581000870
:10130000393403082D340308714603088D46030859
:10131000E533030855460308394603080068214CA5
:101320001F0000001C0000001F0000001E00000045
:101330001F0000001E0000001F0000001F00000032
:101340001E0000001F0000001E0000001F00000023
:101350000000040100000000000000021000000076
:10136000070000000000000000000000010203046C
:10137000060708091588000801870008C9B2000897
:10138000000000007D82000881AE00085186000840
:10139000F9AD0008000000000000000039820008DC
:1013A000CD810008C1810008FDA3000819A4000830
:1013B000E1A30008C5A30008A9A30008CD87000881
:1013C000DD86000809B20008000000005182000814
:1013D000FDAD00082586000859AD0008000000009A
:1013E0000000000045820008010000000000803F6E
:1013F0000000000000000000000000000000803F2E
:1014000000000000000000000000000000000000DC
:1014100000000000000000000000000000000000CC
:10142000000000000000803F0000000000000000FD
:101430000000000001000000FFFF0000FFFFFFFFB1
:10144000341F060800000802050303003C1F0608BD
:10145000010008020504030014DE05080200FE0175
:1014600001100300A8CD05080300140200030000CA
:10147000441F060804001F02010008004C1F060854
:1014800005001F0201010800BD810008B9810008A4
:10149000B5810008A9810008A5810008B181000874
:1014A000AD81000845230208000000000000000094
:1014B00000000000010000000060024010600240D7
:1014C0000000000000000000000B00000000000011
:1014D00000000000000000000060024028600240A0
:1014E0000100000000000000060C000000000000E9
:1014F0000000000000000000006002404060024068
:101500000200000000000000100D000000000000BC
:10151000000000000000000000600240586002402F
:101520000300000000000000160E00000000000094
:1015300000000000000000000060024070600240F7
:101540000400000000000000200F00000000000068
:1015500000000000000000000060024088600240BF
:101560000500000000000000261000000000000040
:10157000000000000000000000600240A060024087
:101580000600000000000000301100000000000014
:10159000000000000000000000600240B86002404F
:1015A0000700000000000000362F000000000000CF
:1015B00000000000000000000064024010640240CF
:1015C00000000000000000000038000000000000E3
:1015D0000000000000000000006402402864024097
:1015E00001000000000000000639000000000000BB
:1015F000000000000000000000640240406402405F
:101600000200000000000000103A0000000000008E
:101610000000000000000000006402405864024026
:101620000300000000000000163B00000000000066
:1016300000000000000000000064024070640240EE
:101640000400000000000000203C0000000000003A
:1016500000000000000000000064024088640240B6
:10166000050000000000000026440000000000000B
:10167000000000000000000000640240A06402407E
:1016800006000000000000003045000000000000DF
:10169000000000000000000000640240B864024046
:1016A00007000000000000003646000000000000B7
:1016B0000000000000000000D01F0608A8E5050893
:1016C00000000000B5200208A08601000400000010
:1016D000000000000000000000000000000000000A
:1016E00000000000000000000000000000000000FA
:1016F0000000000000000000D01F06084823060874
:10170000000000007DF10008E80300000400000074
:1017100000000000000000000000000000000000C9
:1017200000000000000000000000000000000000B9
:10173000000000000000000078D00508E8F9050866
:1017400000000000AD6202087D00000006000000FD
:101750000000000000000000000000000000000089
:101760000000000000000000000000000000000079
:101770000000000000000000201F0608000000001C
:101780000000000029160108E80300000300000023
:101790000000000000000000000000000000000049
:1017A0000000000000000000000000000000000039
:1017B00000000000000000005023060800000000A8
:1017C00000000000594B040810270000030000002F
:1017D0000000000000000000000000000000000009
:1017E00000000000000000000000000000000000F9
:1017F0000000000000000000401F0608000000007C
:1018000025E303084D3D01085F7600000500000058
:1018100000000000000000000000000000000000C8
:1018200000000000000000000000000000000000B8
:101830000000000000000000D421060800000000A5
:101840000000000091700108102700000100000056
:101850000000000000000000000000000000000088
:101860000000000000000000000000000000000078
:1018700000000000000000005C23060800000000DB
:101880000000000081F10008E803000005000000EE
:101890000000000000000000000000000000000048
:1018A0000000000000000000000000000000000038
:1018B000000000000000000068230608000000008F
:1018C00000000000455B0208204E000003000000FD
:1018D0000000000000000000000000000000000008
:1018E00000000000000000000000000000000000F8
:1018F000000000000000000078230608000000003F
:101900000000000031590208204E000003000000D2
:1019100000000000000000000000000000000000C7
:1019200000000000000000000000000000000000B7
:1019300000000000000000008823060800000000EE
:101940000000000045F80008400D030003000000FF
:101950000000000000000000000000000000000087
:101960000000000000000000000000000000000077
:101970000000000000000000F0DA05080000000090
:1019800000000000C5B60308102700000100000099
:101990000000000000000000000000000000000047
:1019A0000000000000000000000000000000000037
:1019B0000000000000000000F0E205080000000048
:1019C0000000000049E402081027000003000000A6
:1019D0000000000000000000000000000000000007
:1019E00000000000000000000000000000000000F7
:1019F000000000000000000098230608000000001E
:101A000000000000E5070208A086010001000000B8
:101A100000000000000000000000000000000000C6
:101A200000000000000000000000000000000000B6
:101A30000000000000000000241F06080000000055
:101A400000000000B5F5000850C3000001000000D0
:101A50000000000000000000000000000000000086
:101A60000000000000000000000000000000000076
:101A7000000000000000000094CC050800000000F9
:101A800000000000E1F20008A86100000100000071
:101A90000000000000000000000000000000000046
:101AA0000000000000000000000000000000000036
:101AB0000000000000000000A02306080000000055
:101AC00000000000B9220308A08601000100000008
:101AD0000000000000000000000000000000000006
:101AE00000000000000000000000000000000000F6
:101AF000000000000000000018DB050800000000E6
:101B000000000000CD1E0108A00F00000100000031
:101B100000000000000000000000000000000000C5
:101B200000000000000000000000000000000000B5
:101B30000000000000000000AC23060800000000C8
:101B400000000000611203081027000001000000DF
:101B50000000000000000000000000000000000085
:101B60000000000000000000000000000000000075
:101B700000000000000000009CD7050800000000E5
:101B800000000000750603081A4100000100000073
:101B90000000000000000000000000000000000045
:101BA0000000000000000000000000000000000035
:101BB000000000000000000054CC050800000000F8
:101BC00000000000E98A0008102700000100000062
:101BD0000000000000000000000000000000000005
:101BE00000000000000000000000000000000000F5
:101BF0000000000000000000B4E50508000000003F
:101C000000000000F1B101081A41000001000000CD
:101C100000000000000000000000000000000000C4
:101C200000000000000000000000000000000000B4
:101C30000000000000000000B823060800000000BB
:101C4000000000003D910008400D0300000000006E
:101C50000000000000000000000000000000000084
:101C60000000000000000000000000000000000074
:101C70000000000000000000C02306080000000073
:101C800000000000BF9C0308400D0300000000009E
:101C90000000000000000000000000000000000044
:101CA0000000000000000000000000000000000034
:101CB0000000000000000000C8230608000000002B
:101CC00000000000E11C030850C3000003000000F6
:101CD0000000000000000000000000000000000004
:101CE00000000000000000000000000000000000F4
:101CF0000000000000000000D423060800000000DF
:101D000000000000A558020840420F00000000003B
:101D100000000000000000000000000000000000C3
:101D200000000000000000000000000000000000B3
:101D30000000000000000000E02306080000000092
:101D400000000000A5B1030850C30000000000001F
:101D50000000000000000000000000000000000083
:101D60000000000000000000000000000000000073
:0C1D700000000000000000000000803FA8
:10800000074AD2E90031994208D0D1180133097AE0
:108010000170C3F30A03136001207047002070470A
:10802000B8160020064AD2F80838D2F80C28934235
:1080300094BF4FF400600020013B9B1A1844704726
:10804000B8160020012380F84D30704707B501A80D
:10805000FFF7D6FF0028FAD09DF8040003B05DF8C2
:1080600004FB044BD3E90003984288BF03F5006387
:10807000181A7047B816002001207047024BC3F849
:108080001028C3F814187047B8160020024BC3F824
:108090001828C3F81C187047B8160020704770479E
:1080A00030B4124DD5E900239A4286BF03F500642F
:1080B000A21A9A1A0A44B2F5006F11D899B1014474
:1080C0000139013810F8014FEA18814203F1010328
:1080D0001472C3F30A03F5D16B60002030BC704703
:1080E000022030BC7047084630BC7047B8160020EC
:1080F000212838B52DD022280C461CD0202801D0AC
:10810000002038BD0029FBD0072AF9D11A4D096893
:10811000D5F814381BB1D5F8100898472168207994
:108120006279A379C5F8201885F8240885F82528F0
:1081300085F82638E4E70029E2D0022AE0D10E4A89
:10814000D2F81C38002BDBD00988D2F818089847E1
:10815000D6E70029D4D0072AD2D1074BD3F820483C
:1081600093F8240893F8252893F826380C600871B2
:108170004A718B71C4E700BFB8160020024B002083
:10818000C3F82808704700BFB8160020044B002031
:108190000522C3F82828C3F81C08C3F81408704740
:1081A000B8160020704700BF704700BF704700BF7F
:1081B000704700BF704700BF704700BF704700BFE7
:1081C00004230B80004870478801002010B4074A40
:1081D000074B92F82C4803F114001222012C08BF1F
:1081E00018460A805DF8044B704700BFB81600209F
:1081F0008C01002020230B8000487047B401002030
:1082000010B40C4A92F8303802EBC3010133DBB2F0
:10821000042B4FF0050408BF00234FF4045081F8ED
:10822000344882F83038C1F838085DF8044B4FF014
:10823000FF307047B816002064230B800048704759
:10824000D401002043230B800048704738020020EF
:1082500010B5084CD4F8F400FF2809D00649D1F82D
:10826000542801F65801FFF743FFFF23C4F8F43008
:10827000002010BD88010020B8160020E8E700BFEC
:1082800008B5D0F8E4355B6A9847002008BD00BF08
:1082900008B5D0F8E4351B6A9847002008BD00BF38
:1082A000D0F8E43510B504461B689847D4F8E83593
:1082B0009B689847002010BD08B5D0F8E435DB690D
:1082C00003B19847002008BD08B5042290F81211A8
:1082D000D0F8E83580F8131180F81221DB68984750
:1082E000002008BD10B5D0F8E83504461B69984752
:1082F000032384F81231002010BD00BF436D064AED
:108300001A61C278012A06D100F2CC5058614FF0B0
:10831000802219681A60704718000860F0B44B7822
:108320004D69012B1BD00B788E6800EB830306F0A0
:108330007F075B6D1C681A697DB942F4002267F300
:1083400006021A61C278012A04BF0A695A6144F020
:1083500004441C600020F0BC70474E61EDE7826968
:1083600014681369BDB965F3060343F40023136170
:10837000C378012B18D044F004441460002BE9D1D9
:108380004B69002BE6D002690878516B01238340CA
:108390000B435363DEE78E68B54286BF4E6106F03D
:1083A0007F0505F07F05DEE70B78096900EB8300A8
:1083B00044F004448369002059611460F0BC7047A4
:1083C0002DE9F04391F801E00A784B69CF78BEF1CE
:1083D000010F2DD000EB82028D68D2F854C0C5F396
:1083E0001202DCF80040DCF81060FBB12B44013BCA
:1083F000B3FBF5F3C3F3090303FB02F2C2F312026A
:108400004A6163F3DC4662F31206CCF81060C3786D
:10841000012B04BF0B69CCF81430012F2BD044F092
:108420000444CCF800400020BDE8F0830123E8E7D5
:1084300000EB8208D8F818C0DCF80040DCF81060C7
:10844000F3B1D1F8089063F3120609EB0305012F8D
:1084500005F1FF35B5FBF9F565F3DC463BD0CCF80B
:108460001060C378012B48D00369596B0EFA02F2F1
:108470000A435A63D3E74B7953B344F00054CEE731
:1084800063F312066EF3DC46CCF81060C278012A62
:108490002DD0012FC3D100698068C00554BF44F0BE
:1084A000005444F0805444F00444CCF80040002AC6
:1084B000B9D198B203308010D8F8D040B3D0C96891
:1084C0001346013351F8042B22609842F9D1AAE7F0
:1084D00044F08054A3E767F35E76CCF81060C2786E
:1084E000012AD8D10A69CCF814200122D3E70A69FD
:1084F000CCF81420012F92D1F7E70B69CCF8143097
:108500008DE700BF0A0601F07F0317D401EB81015C
:1085100000EBC10110B400EB83000124002281F8BC
:10852000764381F8743381F87523426D5DF8044B0E
:10853000136843F4001300201360704703EB8302B9
:1085400000EBC202012100EB830082F81C3182F8AB
:108550001E1182F81D1182691368002B01DA43F0A5
:10856000804343F4001313600020704710B580214E
:108570000446FFF7C7FF20460021FFF7C3FF204650
:10858000BDE81040BAE600BF38B501EB810400EB4E
:10859000C4040D46002184F87453C4F88C1384F885
:1085A0007513C4F88023C4F88833C3782821012BBD
:1085B00001FB050108BFEDB201F55D7108BFC4F80C
:1085C00084231DB1FFF7FCFE002038BDFFF7A6FE97
:1085D000002038BD70B5114B93F8702893F860589F
:1085E000044612B9D3F86C3833B981212046FFF71D
:1085F00089FF022D0AD070BD002DF6D10121FFF7B1
:1086000081FF20468121BDE870407BE720461F2383
:10861000034A0121BDE87040B6E700BFB81600204C
:108620001C1F002038B501EB8101084D00EBC10192
:108630000446B1F88C132846FFF732FD2A4620463F
:1086400040230121FFF7A0FF002038BD3C1F002080
:10865000E8E700BF70B401F07F02012505FA02F4DB
:108660000B06A4B219D401EB810100EBC10100EBB0
:108670008205002381F8742381F875331A466D6DE5
:1086800064F31F4201696FF3CF332B60CB6923EA98
:1086900002030020CB6170BC704702EB820100EB4B
:1086A000C10100EB8206002381F81C2181F81D51D5
:1086B0001A46B56964F30F02E4E700BF10B58121E3
:1086C0000446FFF7C7FF20460121FFF7C3FF024B17
:1086D000002083F8C40810BDB816002010B5812111
:1086E0000446FFF7B7FF20460121FFF7B3FF8221C1
:1086F0002046FFF7AFFFFFF741FD002010BD00BF90
:1087000038B50D4604468321FFF7A4FF29462046CD
:10871000FFF7E4FF002038BDF0B40C0601F07F0540
:1087200031D4282701EB810407FB010100EBC404CD
:1087300001F55D710026022B00EB850784F8756357
:1087400084F87453C4F87C2384F8773308BF0E711F
:108750000124AC407D6D64F31F462C6827040BD4C4
:1087600062F30A04CA8863F3934462F3995444F0B1
:10877000805444F400442C600269D36933430020E0
:10878000D361F0BC704705EB850400EBC4042821DD
:10879000012601FB0501022B84F81C51C4F8242199
:1087A00084F81F31A4F8225184F81D6101F58E71FF
:1087B00009D100260E71012400EB8507AC4064F35B
:1087C0000F06BD69C9E70026F5E700BF10B5022313
:1087D000044640228121FFF79FFF204602234022CA
:1087E0000121FFF799FF8221204603230822FFF78A
:1087F00093FF064B02229A83FFF7C8FC20464023D2
:10880000034A0121FFF7C0FE002010BD88010020AF
:108810003C1F002038B508220D460446032383215F
:10882000FFF77AFF29462046FFF7D0FF002038BD2A
:10883000002310B5194604464022FFF76DFF802142
:10884000204600234022FFF767FF0122D4F8E835D5
:1088500084F81221A0785B689847002010BD00BF03
:108860000E4BDA68D20310D4DA68D1060FD4DA6876
:10887000D20510D4DA6812F0E00F0AD1DB6813F0E9
:10888000020F14BF082009207047012070470620FE
:108890007047072070470220704700BF003C02402D
:1088A00030B1044B93F9C5080028D4BF0020012043
:1088B000704700BFB816002008B5FFF7F1FF18B1E8
:1088C000024BD3F8C8380B8008BD00BFB816002093
:1088D00008B5FFF7E5FF18B1024B93F8CC380B70E1
:1088E00008BD00BFB816002070B5FFF7D9FF98B1DA
:1088F0000A4BB3F8CE487CB1094BD3F8102193F85A
:10890000FE50023A0023AB4206D032F8026F013328
:10891000A642DBB2F7D30B7070BD00BFB8160020C3
:108920008801002010B5FFF7BBFF48B1064B93F854
:10893000D04834B993F8D1480C7093F8D2381370FA
:1089400010BD0024F8E700BFB816002004207047CF
:1089500028B1034B93F92001003018BF0120704764
:108960008801002008B5FFF7F3FF50B1054B93F9DC
:108970002021022A03BF93F82331C3F340030B7075
:10898000002008BD8801002008B5FFF7E1FF80B195
:108990000C4A92F9223192F92021012A0ED1272B7B
:1089A00008DC182B08DC0F2BD4BF00230123013374
:1089B0000B7008BD0323FAE70223F8E70133DBB2AB
:1089C000F6E700BF8801002038B5FFF7C1FFB8B156
:1089D0000D4C94F82331DB0713D494F92131082589
:1089E00093FBF5F30133DBB20B7094F9213159425B
:1089F00001F0070103F0070358BF4B420133137026
:108A000038BD0023F0E700BF880100200320704735
:108A100070B50B4A92F8D33806255E1C96FBF5F428
:108A200005FB146492F8D458AC4207D002EBC303A0
:108A300082F8D348C3F8D808C3F8DC1870BD00BF6B
:108A4000B816002010B502460023141AA14201DC1A
:108A5000184610BD12F8014B6340082413F0800F34
:108A60004FEA430318BF83F0D503013CDBB2F5D1D5
:108A7000EBE710B5E1B10F4C94F92031C3B10139E6
:108A8000C9B2032914D8012B0B4B0C484FEAC10182
:108A900019440CBF0B798B7984F82C310521FFF731
:108AA000D1FF062184F82D010448BDE81040AFE74E
:108AB00010BD00BF88010020A83F0508B0020020BB
:108AC000074A084992F8083909780133DBB299421C
:108AD00082F8083904BF002382F80839704700BFC4
:108AE000B81600201C000010F8B5764CD4F80C39EC
:108AF0005BB3754B1B7843B3744A94F81039A2FBEF
:108B00000020012B4FEA901028D01FD3022B1CD13C
:108B1000D4F814396433834248D894F8083904EB04
:108B2000031393F83429FF2A06D069490132012042
:108B300083F8342981F82E01FFF7C2FF94F8283911
:108B40000122092B84F8102927D0F8BD41F2873380
:108B50009842FAD9012384F81039F8BD94F808191D
:108B60005C4A94F82859C4F8140902EB0122002049
:108B700084F826090A2084F82709092D04F61C1018
:108B800082F87C304FF00203C4F8180984F81039D9
:108B9000DBD10131A4F82C19F8BDB4F8B63913446F
:108BA0009BB2A4F8B639A4F82E39F8BD94F826295A
:108BB00094F827399A42C8D104F61B1104F6241000
:108BC000002311F8012F5340082213F0800F4FEAC1
:108BD000430318BF83F00703013ADBB2F5D18842A3
:108BE000EFD194F8250994F8285994F80819984277
:108BF00033D1B4F81F7994F823C9B4F8216994F8F3
:108C0000243994F81DE904EB01107FBA76BA43EADF
:108C10000C23BFB294F81EC980F83429C0F8387903
:108C2000B2B22B4F94F91C69C0F83C294CEA0E2CC7
:108C30001BB201220C2DA0F836C9A0F8403980F8EB
:108C4000356987F82E2126D00D2D03D104EB410183
:108C5000A1F82C69FFF734FF7CE704EB011191F8D0
:108C60003439FF2B06D01A4A0133012081F83439F8
:108C700082F82E01FFF724FF0123092D84F8103913
:108C80007FF463AFB4F8B43901339BB2A4F8B439BC
:108C9000A4F83039F8BD104803EB8303007E02F1DD
:108CA000663203EB830340089B0004EB410193FB16
:108CB000F0F382FB0302DB17C3EBA203A1F82C390C
:108CC000C8E700BFB816002008CB0020D34D6210C3
:108CD0008801002088B900206CB900200B4B93F864
:108CE000261993F8272991420ED010B493F826291B
:108CF000D3F81849D2B2511CC0B2C9B283F82619B0
:108D0000A0545DF8044B7047704700BFB8160020B0
:108D10000E4B0F49D3F8B829B1F9040052070DD50D
:108D2000D3F8E4390B4A323382FB0312D817C0EB75
:108D3000A20080B200F5C87080B2704700EB8000DE
:108D4000400080B200F5C87080B27047B8160020AD
:108D50001C000010676666660C4AD2F8003A30B410
:108D60001C68D2F8F859198100219981611CC3E966
:108D700000152070D2F8003AD2F8F8191A685A6033
:108D80004FF6F67219609A8130BC7047B816002011
:108D90000B4B93F80E2A12B1B3F8382A4AB9B3F93B
:108DA000503A084AD81782FB0323C0EBA30000B255
:108DB0007047D3F8480A90FBF2F000B2704700BF4A
:108DC000B81600206766666610B582B002AB322224
:108DD00003F8082D064A04688188CDF8014018463A
:108DE000ADF80510D2F8543A984702B010BD00BF54
:108DF000B8160020194B0028B8BF404230B4A3FB7E
:108E000000C2174C174D920D04FB0200C0EB00107E
:108E1000800083FB004395F8225AC417C4EBA35388
:108E200092B29CB28DB1C2EB021204EB820212B27A
:108E30000B4D0D4C0A8005FB030384FB0302DB177B
:108E4000C3EBA2134B8030BC704702EB820202EBF3
:108E5000820204EB820212B2EAE700BF6BCA5F6BC8
:108E6000806967FFB8160020D34D621010B50C4C16
:108E70005E28D4F8582A07D15D209047D4F8583A94
:108E80003E20BDE8104018475D2802D0BDE81040E4
:108E900010479047D4F8583A3D20BDE81040184795
:108EA000B81600202DE9F84F1B4C05461E2094F8FB
:108EB0005CAA94F85DBA94F85E6AB4F8609AB4F863
:108EC000628A94F8647A3DF01DFD30B1B8F1000F6C
:108ED00003D0C14601264FF0000A94F8663ADA073B
:108EE0000AD494F86B2A3AB9012F12D0022F03D179
:108EF00013F0020F08BF012685F800A085F801B025
:108F0000AE70A5F80490A5F806802F722846BDE83B
:108F1000F88F3E46F0E700BFB8160020F8B50646C9
:108F200026203DF0EFFC134C0546F0B90146D4F87D
:108F30008C0A40F00CFC04F52967B542D4F88C0A81
:108F40000EDBB4F8B03A0133A4F8B03A0021D4F8FB
:108F50008C0A40F0FCFB084B1B68C4F8C03AF8BD13
:108F6000795D40F0F4FB0135E7E7002384F8BE3A71
:108F7000ECE700BFB81600209CAC002038B5144CBC
:108F800094F8D43894F8D3289A421CD004EBC30345
:108F900004F52961D3F8D828D3F8DC0800239842D7
:108FA00012DC9378C4F8C40A5B0884F8BE3AFFF771
:108FB000B5FF94F8D4380621013393FBF1F201FB9D
:108FC000123384F8D43838BDD55C5D540133E6E7FC
:108FD000B8160020024B0146D3F8C80A40F0B7BBD0
:108FE000B8160020F8B51A4C94F8CC3A002BFBD1F7
:108FF00059B34618013E451ED4F80C28D4F8081879
:1090000015F8017F531CC3F30A038B422CBF4FF4A6
:1090100000600020C91A224401440129C4F80C3818
:1090200082F8D07A0FD101200DF028FED4F808384C
:10903000D4F80C188B4294BF4FF4006200225B1AE4
:109040001344012BEFD0B542D6D10020F8BD00BFAC
:10905000B8160020094B0846D3F8281810B559B1A6
:10906000D3F82838052B07D1054C002A236803DDE7
:109070001146FFF7B7FF236810BD00BFB8160020E8
:109080009CAC002010B590F84C10002380F84C30B8
:1090900079B10B4CD4F828286AB1D4F82828052ACD
:1090A0000BD1084C38302368FFF79CFF2368012060
:1090B00010BD0120FCE71046FAE71846F8E700BFAC
:1090C000B81600209CAC0020002280F84D20D9E783
:1090D00090F84C20531C0244DBB280F84C3082F8EC
:1090E000381090F84D200AB1132B00D9CAE7704709
:1090F00038B50C46FFF72CFC054638B10E4890F801
:109100002331DB0704D5B0F824012080284638BD80
:1091100090F921114B4203F0070301F0070258BFF9
:109120005A420132082300F5987091FBF3F10131A6
:1091300029F084FAE9E700BF880100202DE9F04F0B
:10914000B24E8DB096F8D8810090B8F1000F40F083
:10915000C880D6F8DC41002C00F0C380AC4AD2F8BD
:10916000587107F0F021B1F1E02F7AD1C2F858819F
:10917000D6F8E021974274D0A64DCDF81A80B5F804
:10918000602A95F85CEAADF81C2095F85DCA95F860
:10919000642A95F85EBACDF81E808DF818E08DF837
:1091A00019C08DF81AB08DF820200DF1180A9AE830
:1091B00007000DF12409A9E803009748A9F8002049
:1091C000C7F342520244C6F8E07192F82010C7F388
:1091D00003428E4502F10102814601D1944508D037
:1091E00020468DF824108DF8252029F027FAADF8B7
:1091F000280007F007022046019229F06FFB0328A0
:10920000019A3BD004283DD00CA90023C34501F8A6
:10921000243D204618BF8DF8268029F023FA40B15E
:109220009DF80C30C7F300118B4202D0204629F084
:1092300045FB0A2209A950464AF03AFE88B19DF83A
:10924000243085F85C3A9DF8253085F85D3A9DF824
:10925000263085F85E3ABDF82830A5F8603A08F067
:10926000D9F996F8E4A1DFF8AC9106AF96F8E431AD
:10927000032B7BD8DFE803F00A3876A5914499F8F0
:109280002580C1E7914499F82D80BDE739462046F5
:1092900029F0EBF9054678B109A8FFF703FE9DF820
:1092A00026109DF818308B4260D0A3798B4203D3EF
:1092B000236820461B69984796F8E431013303F090
:1092C000030386F8E4310DB99A45CFD1514B93F899
:1092D000663ADB0700D525B1236800991B68204654
:1092E00098470DB0BDE8F08F03A8FFF7DBFD99F8B4
:1092F000663A9DF80C5003F00103E5B1002B35D11F
:109300003A460DF10B01204629F0E0F9054668B315
:1093100009A8FFF7C7FD9DF824109DF80B309DF8B4
:1093200025208B4203D19DF8183093421ED0204651
:1093300029F0C7FAC0E7002BBED1236839469B6AE3
:1093400020469847054688B109A8FFF7ABFDBDF850
:109350002810BDF818308B4208D0236820469B693E
:109360009847A9E799F8663ADA0701D50025A3E7F7
:1093700009A9204629F076F905460028F6D01E20D6
:109380003DF0C0FA96F8E53183428346EED086F888
:10939000E50168B1B9F8623A002BE7D19DF82430B5
:1093A000002BE3D10121204629F088FA5D4683E7AE
:1093B0009DF82430002BD9D00146204629F07EFAB2
:1093C0007AE73846FFF76EFD97E8070009AB03C35D
:1093D0001A809DF818309BB10DF1250209A920468D
:1093E00029F074F90DF12601204629F03EF90A22F0
:1093F00009A938464AF05CFD051C18BF01255BE74A
:1094000023680AA99B6A20469847EBE7B02700200B
:1094100088010020B8160020A83F0508F0B50546D1
:1094200083B01446FD2900F06781F02900F06781C0
:10943000EF2901D102240C219D4B0B2203F10900DD
:1094400001E013F8012F8A4200F0BC809842F8D165
:10945000002C00F0568101AE30462B462F19002219
:1094600003F8012B9F4200F8012BF9D14B1E832BEF
:1094700000F29D80DFE813F0F90028010E010401DD
:10948000FE00EB00E200D800D2009B009B00BB0076
:10949000BB00BB00B000B000B000D2009B009B003E
:1094A000A80084009B009B009B009B009B009B00EE
:1094B0009B009B009B009B009B009B009B009B00D4
:1094C0009B009B009B009B009B009B009B009B00C4
:1094D0009B009B009B009B009B009B009B009B00B4
:1094E0009B009B009B009B009B009B009B009B00A4
:1094F0009B009B009B009B0037019B009B009B00F7
:109500009B009B009B009B009B009B009B009B0083
:109510009B009B009B009B009B009B009B009B0073
:109520009B009B009B009B009B009B009B009B0063
:109530009B009B009B009B009B009B009B009B0053
:109540009B009B009B009B009B009B009B009B0043
:109550009B009B009B009B009B009B009B009B0033
:109560009B009B009B009B009B009B009B009B0023
:109570009B009B009B009B009B009B0032013201E3
:109580004C4BB3F80022D3055ABFD34303F0010379
:10959000032312F0440F18BF042312F0020F18BF68
:1095A000072312F4806F18BF0923ADF804304CB1C3
:1095B0002F1901AE32462B4612F8011B03F8011B8E
:1095C0009F42F9D103B0F0BD3B4B93F8663A03F0EC
:1095D0000103ADF80430EAE7374B03EB4101B1F882
:1095E0002E3A03EB83035B00ADF80430DFE7334B27
:1095F000DFED336AD3ED027AA1F10C02D2B203EBB4
:10960000820393ED0D7A67EEA67A67EE877AFDEE18
:10961000E77A17EE903AADF80430C8E7254BB3F877
:109620000232ADF80430C2E7234B264AB3F9503A70
:1096300082FB0312DB17C3EBA203F2E71E4B93F886
:10964000662AD20700F17081B3F8103AE9E71A4BA5
:10965000B3F8102A002A40F06381D3F8480A80F357
:10966000100080B2ADF80400A1E7FFF751FBADF8A0
:1096700004009CE7104BD3F8403AADF8043096E76D
:109680000C4AB2F8E83192F8EE2193FBF2F3ADF810
:1096900004308CE7084B074A93F8271AB2F8E831F0
:1096A0000029BED092F8EE2193FBF2F3B9E700BF98
:1096B000E03F0508B0270020B81600201C0000106D
:1096C00000007A4467666666A14BD3ED7F7AFDEEB3
:1096D000E77A17EE903AADF8043068E79D4BD3F87F
:1096E000E039019366E7FFF713FB9A4BD3F8E839AB
:1096F00043EAC04301935DE70B21022492E6032174
:10970000FBE74B1E832B3FF65DAF01A252F823F01F
:109710006B960008C9960008959600088196000887
:10972000759600084F9600083D9600082996000897
:109730001D960008C5950008C5950008EF9500081E
:10974000EF950008EF950008D9950008D995000815
:10975000D99500081D960008C5950008C595000814
:10976000C995000881950008C5950008C5950008B1
:10977000C5950008C5950008C5950008C595000861
:10978000C5950008C5950008C5950008C595000851
:10979000C5950008C5950008C5950008C595000841
:1097A000C5950008C5950008C5950008C595000831
:1097B000C5950008C5950008C5950008C595000821
:1097C000C5950008C5950008C5950008C595000811
:1097D000C5950008C5950008C5950008C595000801
:1097E000C5950008C5950008C5950008C5950008F1
:1097F000C5950008C5950008C5950008C5950008E1
:10980000C5950008C5950008C5950008C5950008D0
:10981000C5950008C5950008C5950008C5950008C0
:10982000C5950008C5950008C5950008C5950008B0
:10983000C5950008C5950008C5950008C5950008A0
:10984000C5950008C5950008C5950008C595000890
:10985000C5950008C5950008C5950008C595000880
:10986000C5950008C5950008C5950008C595000870
:10987000C5950008C5950008C5950008C595000860
:10988000C5950008C5950008C5950008C595000850
:10989000C5950008C5950008C5950008C595000840
:1098A000C5950008C5950008C5950008C595000830
:1098B000C5950008C5950008C5950008C595000820
:1098C000C5950008C5950008C5950008C595000810
:1098D000C5950008C5950008C5950008C595000800
:1098E000C5950008C5950008C5950008C5950008F0
:1098F000C5950008C5950008C5950008C5950008E0
:10990000C5950008C5950008C5950008C5950008CF
:10991000C5950008C5950008C5950008C5950008BF
:109920001BF0D4FE80B29DE63DF0E2F9084BD3ED8A
:109930007F7AFCEEE77A17EE903A9BB200287FF42C
:1099400070AE054A126812F0100F18BF002368E6C7
:10995000B0270020B816002064CB002070B5214D40
:1099600095F80432EA181E4692F808228AB11E4978
:1099700009245A1CA1FB02635B0803EBC303D31A3F
:10998000EA18DEB292F808220AB1013CF1D185F85A
:10999000046202681549541C04600C2414700268A7
:1099A000541C0460002414700268541C046003EB0F
:1099B000430403EB8403167019440D222DF09EFD21
:1099C00095F80412084B4A1CA3FB02035B082944C8
:1099D00003EBC3030120D31A81F8080285F804328F
:1099E00070BD00BFB0270020398EE338C4290020A5
:1099F0002DE9F0416B4DD5F8DC6182B0044630466C
:109A00000F4628F06BFF85F8890256B10DF101026F
:109A10006946304628F05AFE002840F08F8095F8BD
:109A200089020023ADF800308DF802308DF8043043
:109A3000431EDBB20022FF21FD2BADF806208DF87E
:109A4000031003D9002002B0BDE8F0819DF800307A
:109A5000042B00F09F80052B00F09F80032B00F06B
:109A60009E80022B00F09580012B08BF042200F09D
:109A700091809DF80130032803F1FF338DF8013008
:109A80007AD0042818D1D5F8DC319DF802001BB13A
:109A90009B69421E33F812304349ADF8063000226C
:109AA0009042134606D90133082B05D011F8012F37
:109AB0009042F8D88DF80230D5F88C22009B3B4EAE
:109AC0009A42E8464CD023680D22591C21601A7036
:109AD00023680022591C21601A7023689DF8002019
:109AE000591C21601A7023689DF80120591C2160BF
:109AF0001A7023689DF80420591C21601A7023688D
:109B00009DF80220591C21601A70BDF806102046ED
:109B10002DF03CFD23689DF80320591C2160204650
:109B20001A70072146F090FD98E8030086E80300CC
:109B30000120C5F8947202B0BDE8F08101A9304659
:109B400028F090FD00283FF46AAF30460DF1020185
:109B500028F08BFD00283FF462AF95F8890267E793
:109B60007268D8F804309A42ADD1D5F89432104AD0
:109B7000FB1A9342A7D865E7D5F8DC319DF80200BF
:109B80001BB19B69421E33F812300A49ADF806300A
:109B900085E703228DF800206BE70122FAE7022215
:109BA000F8E700BFB0270020D53F05083C2A002079
:109BB00080841E00CD3F05082DE9F041284C294A3C
:109BC000D4F8403A284DB4F8486AB5F8987282FB48
:109BD0000342DB17C3EBA2031FFA83F8474503D107
:109BE000B5F89A32B34233D002680F463423511C81
:109BF0000160137002680023511C04460160137059
:109C000041462DF0C3FC314620462DF0BFFC47F6FF
:109C1000FF7120462DF0BAFC47F6FF7120462DF06B
:109C2000B5FC47F6FF7120462DF0B0FC47F6FF71FA
:109C300020462DF0ABFC2046022146F005FDA5F89C
:109C40009882A5F89A62C5F89C720120BDE8F0815F
:109C5000D5F89C32054ACB1A9342C5D80020F5E7C7
:109C6000B816002067666666B027002080841E0054
:109C7000A44B1B6813F0800300F0A180A24B93F863
:109C8000A03213F0020300F09A80A0498B7C052BD0
:109C900040F295802DE9F043632B85B000F2A68059
:109CA0000027DFF87CC29BB23D46ACFB0342D208E2
:109CB00002EB8204A3EB4403FEB29CB2B60093B263
:109CC00004FA06F215430137002BEED1EDB28A6893
:109CD0008F4C84FB0234D317C3EB64339BB2002B4D
:109CE00000F00B814FF0000CDFF834E26446AEFB6D
:109CF0000362D20802EB8206A3EB46035FFA8CF7FD
:109D00009EB2BF0093B206FA07F214430CF1010CA5
:109D1000002BECD1E4B28A897E4B4FF4F36101FB56
:109D200002F1A3FB0131C1F38F1142F20F7399428B
:109D300047D8002900F0E3804FF0000CDFF8E0E1A5
:109D40006646AEFB0123DB0803EB8302A1EB420175
:109D50005FFA8CF78AB2BF0099B202FA07F31E438A
:109D60000CF1010C0029ECD1B6B26B4BD3E9002306
:109D7000134307463CD14FF0FF383B681722591C6C
:109D800039601A703B680022581C386031461A70DE
:109D900038462DF0FBFB414638462DF0DFFB3B6893
:109DA0005A1C3A601D703B685A1C3A6038461C7059
:109DB000062146F049FC012005B0BDE8F0830020F3
:109DC00070470027DFF858C13946ACFB0362D20860
:109DD00002EB8206A3EB46039BB2BB400437102F75
:109DE00041EA030193B2F0D18EB2BEE799256EE746
:109DF00001A82CF081FC9DF80830002B7BD04FF09F
:109E0000000CDFF81CE1E046AEFB0312D20802EBC7
:109E10008201A3EB41035FFA8CF099B2800093B208
:109E200001FA00F248EA02080CF1010C002BEBD118
:109E30004FEA08289DF80910C9B10020DFF8E0E0DA
:109E40008446AEFB0132D20802EB8203A1EB43034E
:109E50005FFA80F99BB24FEA890903FA09F391B2DC
:109E60004CEA030C01300029EBD148EA0C089DF8BC
:109E70000A104FEA0828C9B10020DFF8A4E08446A0
:109E8000AEFB0132D20802EB8203A1EB43035FFA7F
:109E900080F99BB24FEA890903FA09F391B24CEABF
:109EA000030C01300029EBD148EA0C081B49BDF82E
:109EB0000C30A1FB032359094FEA08183FF45DAFAA
:109EC0000020DFF85CE08446AEFB0132D20802EBF2
:109ED0008203A1EB43035FFA80F99BB24FEA890941
:109EE00003FA09F391B24CEA030C01300029EBD1DB
:109EF00048EA0C0841E798469CE71C460BE70E46EB
:109F000033E700BF64CB0020B0270020E8D4002056
:109F100089B5F814D34D6210582A00201F85EB51E3
:109F2000CDCCCCCCC74B1B6813F0800300F07D81F7
:109F3000C54B93F8A03213F0020300F076812DE9AF
:109F4000F04FDFF824A39AF81230052B83B040F2CB
:109F50006E81DAF800E0BD4EBD4ABE4C8EEAEE716D
:109F6000A1EBEE71A6FB0135AD0D02FB0511C1EBB6
:109F70000111890086FB013605EB8505CB17C3EB84
:109F8000A65305EB850502FB031103EB8505ADB276
:109F900084FB0123C917C1EBA312B5B10024AE4F56
:109FA0002646A7FB0531C90801EB8103A5EB430356
:109FB0005FFA84FC9BB24FEA8C0C03FA0CF38DB26F
:109FC0001E430134002DECD1350493B2ABB1002611
:109FD000DFF884C23746ACFB0312D20802EB8201E1
:109FE000A3EB4103F4B299B2A40093B201FA04F2D4
:109FF00017430136002BEED13D43DAF80480934F2E
:10A00000934B944E88EAE874A4EBE874A7FB04121F
:10A01000920D03FB0244C4EB0414A10087FB01472B
:10A020004FEAE17C02EB8202CCEBA75C02EB8202FE
:10A0300003FB0C110CEB82021FFA82FC86FB01234E
:10A04000C917C1EBA313BCF1000F00F0F780002685
:10A05000814C3746A4FB0C21C90801EB8102ACEB13
:10A0600042025FFA86F992B24FEA890902FA09F2CE
:10A070001FFA81FC17430136BCF1000FEAD13C0402
:10A080001FFA83FCBCF1000F18D00021724F0E465E
:10A09000A7FB0C32D20802EB8203ACEB43035FFA5E
:10A0A00081F99BB24FEA890903FA09F31FFA82FC8E
:10A0B0001E430131BCF1000FEAD13443DAF8083015
:10A0C000654A0193002B1E46B8BF5E42A2FB0636CE
:10A0D000624F6349330AA7FB0373DB0901FB03F1FA
:10A0E000C1EBD60189B2B1B1002694463746ACFB2C
:10A0F0000132D20802EB8203A1EB43035FFA86F937
:10A100009BB24FEA890903FA09F391B21F43013662
:10A110000029ECD1B9B2BAF80E60CEB14FF0000C04
:10A12000DFF834B1E146ABFB0632D20802EB820322
:10A13000A6EB43035FFA8CF79BB2BF00BB4096B21D
:10A1400049EA03090CF1010C002EECD11FFA89F643
:10A15000BAF810A0404AA2FB0A3A4FEADA03632B8E
:10A160001F4628BF6327002B6AD04FF00009934693
:10A17000CA46ABFB0732D20802EB8203A7EB4303CC
:10A180005FFA89FC9BB24FEA8C0C03FA0CF397B28E
:10A190004AEA030A09F10109002FEAD15FFA8AFAB3
:10A1A000019BBEF1000FD4BF4FF000094FF0010931
:10A1B0001B1649F0380923F07F03B8F1000F49EA74
:10A1C000030938DD274B49F002099845CCBF4FF011
:10A1D00004084FF00008036807461622581C386030
:10A1E0001A703B680022581C38601A7038462DF0EF
:10A1F000CDF9294638462DF0B1F9214638462DF0E3
:10A20000ADF9384631462DF0C1F93B685A1C3A6029
:10A2100083F800A03B6848EA09085A1C01203A600C
:10A2200083F8008003B0BDE8F08F18467047002027
:10A2300003B0BDE8F08F4FF00008CCE764461FE79D
:10A240009A46ADE764CB0020B02700206BCA5F6B55
:10A25000806967FFD34D6210CDCCCCCCC55A7C0A47
:10A26000A0860100FFC99A3BE8D4002019490A786A
:10A270006AB3F0B40026054633463046374613B974
:10A280000C782D2C1DD02E2A15D0CC5C00EB800034
:10A29000A4F13002092A4FEA40009CBFA0F130022D
:10A2A000A0180E2B10D80133CA5C002AE7D106B1E2
:10A2B0004042F0BC70470133002DF8D05A198F543A
:10A2C000E3E701231E46EFE70020F0BC70470020C3
:10A2D000704700BF68CB002038B54FF020330446EC
:10A2E0000360436083600D4639B1084647F04EFB7A
:10A2F00029460246204648F0DDFA0023E37238BDC5
:10A3000010B542F0E1F9112104463FF06FFC204600
:10A310003FF008FDC8200CF0B1FC2046BDE810401D
:10A320003FF005BD08B519203FF0E4FA064BC3F82D
:10A33000B00218B1242200238271C3714021BDE80C
:10A3400008403FF053BC00BFB0270020704700BF5B
:10A35000704700BF704700BF704700BF037830B43C
:10A36000F3B10446002314F8015F0133DBB2002D82
:10A37000F9D15B000233DCB2032513800C704D7001
:10A3800004785CB1022300255A1CD2B2CC548D54FF
:10A3900010F8014F0233DBB2002CF5D130BC70470E
:10A3A00002242346E8E700BF10B5044C04480A46DF
:10A3B0002146FFF7D3FF204610BD00BF642A0020CE
:10A3C000DCB8050810B5044C04480A462146FFF7DE
:10A3D000C5FF204610BD00BF642A0020ECB8050868
:10A3E00010B5044C04480A462146FFF7B7FF204643
:10A3F00010BD00BF642A0020F8B8050810B5044C51
:10A4000004480A462146FFF7A9FF204610BD00BFB9
:10A41000642A002004B9050810B5044C04480A4613
:10A420002146FFF79BFF204610BD00BF642A002095
:10A4300010B9050882B0002102680E4B0191116924
:10A440000191013B13D001990029F8DA01990A4BD7
:10A4500041F001010191019911611169019103E03C
:10A4600011690191013B02D00199C907F8D400207C
:10A4700002B07047410D0300400D030082B000237D
:10A480000193019A094B42F010020192C168019AAE
:10A490000A610A69019203E00A690192013B02D054
:10A4A000019AD206F8D4002002B07047400D030094
:10A4B00082B000230193019A0B4B42F020020192DB
:10A4C000019A61F38A120192C168019A0A610A69CC
:10A4D000019203E00A690192013B02D0019A9206BF
:10A4E000F8D4002002B07047400D030070B5044658
:10A4F000FEF7E4F82046022340228121FEF70CF902
:10A500004022012120460223FEF706F90D4B0E4E94
:10A51000D3F8B43300251B6886F8C458284686F85B
:10A52000605898472046FFF7A9FF20460121FFF712
:10A53000BFFF06F6640220461F230121FEF724F820
:10A54000284670BDB0270020B816002070B501F075
:10A550007F0606EB860400EBC4042825012105FBD9
:10A560000605C4F82821C4F82C21002284F81D1106
:10A5700084F81C61C4F83031C4F8342105F58E71BB
:10A580001EB1FDF71DFF002070BDFDF7C7FE0020C6
:10A5900070BD00BF70B50D4A0D4C0E4B82F8C41350
:10A5A000C2F8B833054602F56E7200260D238121EC
:10A5B00084F8C468FFF7CAFF04F6640228461F2324
:10A5C0000121BDE87040FDF7DFBF00BFB0270020CC
:10A5D000B8160020555342532DE9F0418F4D904C51
:10A5E00095F87338C4F8C80384B05A2B00F2098276
:10A5F000DFE813F0DF0007020702D20107020702BB
:10A600000702070207020702070207020702070202
:10A6100007020702070207028C010702070207026E
:10A620000702070207020702B001750007020702CE
:10A6300075000702070207020702A0000702CA000E
:10A640000702070220010702ED00070207020702C6
:10A6500007025B0007020702070207020702070260
:10A6600007020702070207020702070207020702A2
:10A670000702070207020702070207020702070292
:10A680000702070207020702070207020702070282
:10A690000702070207020702070207020702070272
:10A6A00007020702070207027C0095F874389B072F
:10A6B00000F1D781B5F87A38D5F87528D4F8D413D5
:10A6C0005BBA9BB212BA98188842C4F8DC33C4F85B
:10A6D000D82304D9FDF794FD0028C0F2A4810026F8
:10A6E000A4F8CC63304604B0BDE8F0810823A4F898
:10A6F000CC334C4A4C4F062300204FF6FF7602E045
:10A7000095F854009BB2B34207EB030502F8010928
:10A7100003F1FF33F4D1D4F8B4330846DB6898472B
:10A72000002800F06981414AD37863F07F03D37039
:10A730000026D7E7DFF8F4800027434608F10C0233
:10A7400003F8017B9342FBD1D4F8B43308465B682D
:10A7500002AA03A998470646002800F08C8195F8C4
:10A76000303805EBC3020133DBB202204FF46851ED
:10A77000042B82F83408C2F8381800F02C8285F8CF
:10A7800030384FF0FF36ADE7D4F8B433284A5B6871
:10A790000846111D98470646002800F04A8195F8A2
:10A7A00030385A1CD2B205EBC30302204FF4685173
:10A7B00030E1D5F86C38002B40F02381D4F8B43365
:10A7C00008469B6898470646002889D0E7E795F831
:10A7D000C438002B40F0748195F97038002BC0F21A
:10A7E0001081D4F8B433019108469B6898470199C9
:10A7F0000028D4D1D4F8B4330846DB68984706461D
:10A80000002800F09B8195F830385A1CD2B205EB35
:10A81000C30302204FF41C51FCE000BFB816002017
:10A82000B027002077310020A83F050870310020B4
:10A83000802B002095F8C438002B40F0788195F9E2
:10A840007038002B80F2DD80D4F8B43301910846D3
:10A850009B68984701990028A1D1B5F87A88D5F866
:10A860007528D4F8D43398FA98F81FFA88F816BAED
:10A8700008EB06029A42C4F8DC83C4F8D86300F2FD
:10A88000C081D4F8D033D5F86C7803FB08F006FB10
:10A8900003F2B8424FF00206C4F8D823C4F8DC0330
:10A8A00085F8C46840F0AD80B2FBF3F2D4F8B4632D
:10A8B000B7F5805F28BF4FF4805708464FF4805C9F
:10A8C000B7FBF3F33669D349A4F8CCC39BB2B047C6
:10A8D000002880F2638195F830385A1CD2B205EB1B
:10A8E000C30304204FF48851824285F8302883F84E
:10A8F0003408C3F8381840F096804FF0FF36002334
:10A90000304685F8303804B0BDE8F08195F87438E9
:10A91000DA0700F1D080D4F8B43395F87708DA6913
:10A9200001EBC10102EB810213790533834228BF99
:10A930000346A4F8CC33002B5ED0013B9BB2B54854
:10A9400001331A44034412F8011D03F8011D834228
:10A95000F9D151E00823A4F8CC33AF4AAF4F062316
:10A9600000204FF6FF7602E095F84C009BB2B34210
:10A9700007EB030502F8010903F1FF33F4D1D4F822
:10A98000B4330846DB689847B0B3A24A937863F0C3
:10A990007F0393700026A5E6A14B002203F112016C
:10A9A00003F8012F8B42FBD19A4994F8CE3395F8E6
:10A9B000300870260E7098424FF00C06CE7112D0FF
:10A9C00005EBC3000133DBB290F8347890F83968B6
:10A9D00090F838088F70042B0E73487314BF84F8F6
:10A9E000CE3384F8CE2395F8773812229342A4F818
:10A9F000CC2398BFA4F8CC330026304604B0BDE881
:10AA0000F08195F830385A1CD2B205EBC30305200B
:10AA10004FF40051042A85F8302883F83408C3F82D
:10AA200038183FF46AAF4FF0FF36304604B0BDE847
:10AA3000F081D4F8D423774BD4F8D013D971013AEC
:10AA4000100E1870DA70100C120A0D0E58709A70F1
:10AA5000080C0822090A1D7158719971A4F8CC23B9
:10AA600040E695F830385A1CD2B205EBC3030520F6
:10AA70004FF41051CEE7DDE90223013B190E88F8AF
:10AA80000410190C88F8073088F805101B0A110CFF
:10AA900088F80B2088F80630120A082088F8091078
:10AAA0000C23022188F80A2088F8030088F808108F
:10AAB000A4F8CC3316E60723A4F8CC33594A3CE774
:10AAC000D4F8DC73D4F8B403D4F8D033D4F8D82352
:10AAD0004669B2FBF3F2B7F5805F28BF4FF48057A9
:10AAE0000846B7FBF3F34B499BB2B047002875DB30
:10AAF000D4F8D823D4F8DC63D4F8C033D4F8C8032E
:10AB00003A44F61BDB1BC4F8D823C4F8DC63C4F852
:10AB1000C033002E6CD0B6F5805F28BF4FF480564E
:10AB2000B3B23C4A0121FDF72FFD0026DAE5D4F847
:10AB3000DC73D4F8D823D4F8D033B5E6B5F87A78F6
:10AB4000D5F87588D4F8D4337FBABFB298FA88F8AC
:10AB500007EB08029A42C4F8DC73C4F8D8834BD8D8
:10AB6000D4F8D013D5F86C2801FB07F708FB01F3E4
:10AB70009742C4F8D833C4F8DC737FF442AFB7F51A
:10AB8000805F28BF4FF480570121BBB2D4F8C803BF
:10AB9000204A85F8C418FDF7F7FCA3E53B461D4A9B
:10ABA000D4F8C8038121FFF7D1FCD4F8D823D4F816
:10ABB000DC63D4F8C0333A44F61BDB1BC4F8D8235B
:10ABC000C4F8DC63C4F8C033002E7FF415AF032350
:10ABD00085F8C43886E585F8307824E795F830386C
:10ABE0005A1CD2B205EBC30304204FF440717BE63C
:10ABF0003146FFF7CFFC75E5FDF702FB0028AFDA21
:10AC000011E70191FDF7FCFA00280199BFF639AE72
:10AC100009E700BF7031002077310020A83F050808
:10AC20006F310020EC3F050810B5074B93F8711801
:10AC30000446FFF7D1FC002800DB10BD20460121AF
:10AC4000BDE81040A6E400BFB8160020F8B5344CAB
:10AC500094F8C4582DB1012D01D1FFF7E5FF002074
:10AC6000F8BD304FB0F8B433D4F86828C7F8BC2327
:10AC70001F2BD4F86C28C7F8C023064608D12A4BEE
:10AC8000D4F864289A4203D194F87118012919D98B
:10AC900094F8303804EBC3020133DBB2042B08BF55
:10ACA00000234FF40051052082F8340884F830382E
:10ACB00030460223C2F8381884F86038FDF78AFC61
:10ACC0000020F8BD94F87238013B0F2BE0D8FFF755
:10ACD00083FC002820DB94F8C438013B022BBED94A
:10ACE000B7F8CC1319B93046FFF754FCB7E7D4F8DE
:10ACF0006C38D7F8C02387F8C4538B4228BF0B4663
:10AD0000D21A0421C7F8C02384F8C4183046074A71
:10AD10008121FFF71BFCA2E73046FDF75BFC9EE7B5
:10AD2000B8160020B0270020555342437031002050
:10AD300008B5084B93F8C438022B07D004D3042B72
:10AD400002D80021FFF726FC002008BDFFF76CFFAA
:10AD5000002008BDB81600202549D1F8E0330F2B9C
:10AD600004D05A1CC1F8E0230020704770B5214C74
:10AD700094F8CC2A0023C1F8E0330ABBD4F8085871
:10AD8000D4F80C38B5F5006F27D09D422CD004F5CF
:10AD90002D6212FA85F294BF5B1BC5F50063402B50
:10ADA00010D84FF00006C1F8E4631D440CBF022127
:10ADB0000121C4F8085884F8CC1A8121FFF7C6FB9A
:10ADC000002070BD403B40350126C1F8E433C4F893
:10ADD000085884F8CC6A4023EFE7C4F808281BB170
:10ADE000154604F52D62DAE7002384F8CC3AE7E74C
:10ADF000B0270020B8160020AEE700BF70B51D4C8C
:10AE000094F8CC3A012B03D0022B1BD0002070BD4C
:10AE100001461948D0F8E433D3B1402BD4F80828C0
:10AE20001AD9403B02F14005C0F8E433C4F8085891
:10AE30004023124C084614FA82F28121FFF786FB68
:10AE4000002070BD00231A468121FFF77FFB0023FD
:10AE500084F8CC3A002070BD4FF0000503EB0206E9
:10AE6000C0F8E45308BF0220C4F8086808BF84F89B
:10AE7000CC0ADEE7B8160020B02700208821002089
:10AE8000012905D008B50321FFF712FB002008BDFA
:10AE9000B4E700BF70B5044649B990F81131022BF0
:10AEA0001BD094F81631012B0DD0002070BDD0F8C6
:10AEB000E4355B69002BF8D090F81221032AF4D115
:10AEC0009847002070BD294A2369D2F8E8235A60C8
:10AED000002384F81631002070BDD0F83831D0F846
:10AEE0002451AB4217D9C178D0F828210129A3EB0E
:10AEF000050308BF5219C0F8383108BFC0F828212F
:10AF00009BB20021FFF722FB00231A461946204678
:10AF1000FDF73AFBC5E7D0F83C31B3FBF5F605FB8E
:10AF2000163666B99D420AD8D0F84021934206D21F
:10AF300033463246FFF70AFBC4F84061E4E7D4F831
:10AF4000E435DB682BB194F81221032A01D12046A5
:10AF500098470023052284F8112119461A462046F5
:10AF6000FDF712FB2046FDF7C9F99AE7B02700204C
:10AF700010B5002304220446194680F811211A4610
:10AF8000FFF7E4FA2046FDF7B9F9002010BD00BF35
:10AF900010B5044629B990F81131032B0DD00020CB
:10AFA00010BDD0F8E4359B69002BF8D090F8122141
:10AFB000032AF4D19847002010BDD0F89013D0F8A0
:10AFC0007C33994214D9C078D4F880230128A1EBAE
:10AFD000030104BFD218C4F880238B4228BF0B465C
:10AFE000C4F890139BB220460021FDF7CDFAD6E7B6
:10AFF000D0F8E4351B6923B190F81221032A00D15F
:10B0000098472046FFF7B4FFC9E700BF38B513469D
:10B0100002250A46C0F83C31C0F8383180F8115199
:10B020000021FFF793FA002038BD00BFF8B50B7878
:10B0300013F060040D4606461CD0202C3ED14A7801
:10B04000FE2A47D0FF2A3BD14A88002A47D1CC8824
:10B05000002C44D11D0642D4374B012503F664026F
:10B0600083F8C44883F8605829461F23FDF78CFAFB
:10B070002046F8BD4B780A2B36D00B2B24D0012B61
:10B080001CD189880C0649D4FFF7F8F929792A4C94
:10B090003046FDF7DFFA0223402229793046FDF7DA
:10B0A0003BFB94F86038AA88022B3CD0120605D5E9
:10B0B000012B03D030460121FFF76CFA0020F8BDC8
:10B0C000FDF754FA0220F8BD1C4B4A8883F8ED23A3
:10B0D0002046F8BD4C8814B9CD88012D0AD03046E1
:10B0E000FDF744FA0220F8BD01221549FFF78EFF53
:10B0F0002046F8BD1F06F2D5104FD7F8B4339B6930
:10B100009847C0B287F8EC030028E8D02A4607F534
:10B110007B713046FFF77AFF2046F8BD01F07F01D2
:10B12000FFF7C6F9B2E730468121FDF7EBF90020C1
:10B1300084F86008F8BD00BFB8160020B0270020D2
:10B140009D2B002008B50B7813F0600312D0202B44
:10B1500005D027490122FFF759FF002008BD4B7891
:10B16000023B092B2AD8DFE803F0231D29292929CE
:10B17000292916104A78062A24D00A2AE9D01D4A1D
:10B180008978C2F8F813184608BD1A4B8A78C3F8B4
:10B19000F023002008BD4B88164A1B0AC2F8F4337E
:10B1A000002008BD01221449FFF730FF002008BD30
:10B1B00001221249FFF72AFF002008BDFDF7D6F94A
:10B1C000022008BD4A88120A222A0AD0212A02D067
:10B1D00019461A46BFE7CA880949092A28BF092221
:10B1E000B9E7CA880749262A28BF2622B3E700BF45
:10B1F000A82B0020B0270020A02B0020A42B00208B
:10B200001E030020E4020020F8B50B7813F0600460
:10B210000D46064610D0202C09D1CC884F780CBBA7
:10B22000023138460222FCF763FF2046F8BD304663
:10B23000FDF79CF90220F8BD4B780A2B0CD00B2BA4
:10B2400003D0062BF3D02046F8BD8B786BBB194A90
:10B250001846C2F8FC33F8BD01221749FFF7D6FEA5
:10B260002046F8BD1B060BD5224638461349FCF78D
:10B270003FFFEA8811493046FFF7C8FE0020F8BDBD
:10B280000F49104DC1F85448032301F65802C0F885
:10B290009443C0F8904380F8113100212346C5F84B
:10B2A000F470FDF771F90020F8BDFDF75FF9204655
:10B2B000F8BD00BFB0270020AC2B0020101F0020DD
:10B2C000B8160020880100200B7803F00303012B3F
:10B2D00007D0022B03D18B88832B05D094E7002065
:10B2E00070478B88002BF9D12CE700BFF0B5012106
:10B2F00090F8D17590F8D36590F8CFC590F8CE55F9
:10B3000090F8D03590F8D22580F8111190F8CC152E
:10B3100085B003EB072302EB062205EB0C2501F0B9
:10B320001F0792B2ADB29BB290F8CD658DF80810B0
:10B33000012F0446ADF80A50ADF80C30ADF80E20E0
:10B34000C0F840218DF809601ED014D3022F06D01A
:10B3500001F08001FDF7D6F8002005B0F0BD01F046
:10B36000600120292AD1D0F8E43502A99B689847CA
:10B37000002005B0F0BD092E0AD8DFE806F0CEA304
:10B3800009C6093D5809B67F90F81221032A05D055
:10B390002046FDF7EBF8002005B0F0BDDBB2012B35
:10B3A000F6D8D0F8E43502A99B689847BDF80E306E
:10B3B000002BD1D12046FFF7DBFDCDE7012ED9B21E
:10B3C00000F0DE80C0F0BF80032EC5D190F81231AE
:10B3D000022B00F00881032BDAD11DB94D0601D0F4
:10B3E000FDF790F8D4F8E43502A99B682046984709
:10B3F0002046FFF7BDFDAFE7002BC9D1002AC7D11A
:10B4000090F81231032BC3D005F07F06036980F852
:10B410001461196865F30A120A431A60FFF7A8FD60
:10B42000002E00F06581022384F8123194E72E0A81
:10B43000022EADF8062000F05081032E00F014819A
:10B44000012EA5D1D0F8EC3580781B680DF10601EE
:10B450009847BDF80630002B3FF47EAFBDF80E20B4
:10B46000002A3FF479AF934228BF134601461A469B
:10B470002046ADF80630FFF7C9FD6DE7EDB2B84ED6
:10B48000012D86F8005483D890F81231022B00F079
:10B49000D880032B7FF47CAF002D00F03D8190F825
:10B4A0001011012986D0D0F8E4355B68984796F8EA
:10B4B000001484F810112046FCF7F2FE2046FFF736
:10B4C00057FD49E790F81231023B012B3FF660AF80
:10B4D000012D7FF441AFD0F8E43500229B68C0F81D
:10B4E000182102A92046984764E7012A7FF450AF4B
:10B4F00090F81231022B00F0B380032B7FF448AF99
:10B5000000F58871FFF782FD26E7012D6FD1D0F895
:10B51000E435C0F818519B68E3E790F81231023B1C
:10B52000012B3FF635AF8E4BD0F818210021C3F820
:10B53000081412B10222C3F80824204602228949C5
:10B54000FFF764FD08E790F81221022A4BD0032A86
:10B550007FF41EAF1B0600F1CF8001EB810100EBF1
:10B56000C10393F87633002B00F0D1807C4B01228D
:10B57000C3F80C24204602227B49FFF747FDEBE687
:10B5800090F81221022A2ED0032A7FF401AF002D59
:10B590007FF4E2AE11F07F023FF40CAF180600F129
:10B5A000C980282303FB014004EB820580F8742343
:10B5B000002280F8762380F87523686D03FB014232
:10B5C000036802F55D72D278023A6FF35553012A8F
:10B5D000D4F8E42598BF43F08053036002A9936830
:10B5E00020469847E6E64A063FF4B6AEB2E6022D9C
:10B5F0007FF4B2AE13F0FF0F7FF4AEAE1B0A016909
:10B600009A1E4B68032A03D8DFE802F017130FA530
:10B61000012262F30613524A012184F816112046D2
:10B62000C2F8E833FFF7A4FC96E6042262F306139F
:10B63000F1E7032262F30613EDE7022262F3061339
:10B64000E9E7002D3FF4B6AE0121032380F8101185
:10B6500080F81231FCF724FE2046FFF789FC7BE6D8
:10B660004249FFF7D3FC77E6EDB2052D3FF690AEE9
:10B67000DFE805F02B231B130B03D0F8EC358078A3
:10B680009B690DF106019847E3E6D0F8EC35807828
:10B690005B690DF106019847DBE6D0F8EC35807860
:10B6A0001B690DF106019847D3E6D0F8EC35807898
:10B6B000DB680DF106019847CBE6D0F8EC358078D1
:10B6C0009B680DF106019847C3E6D0F8EC35807809
:10B6D0005B680DF106019847BBE6D0F8E435807849
:10B6E0009B6A0DF1060198474670C4F8F005B0E674
:10B6F000012384F812312FE601F07F0101EB810173
:10B7000000EBC10393F81E31002B7FF42FAF144BD5
:10B710000022C3F80C242DE70222D0F8E43580F88B
:10B72000105180F8122129465B6898472046FFF7A0
:10B730001FFC11E6282101FB024304EB820083F881
:10B740001E51012583F81C2183F81D51806903F5E2
:10B750008E72036837E7052262F306135BE700BFCA
:10B76000B0270020B82B0020BC2B0020B42B0020D9
:10B7700000B583B009238DF80730FDF771F88DF817
:10B7800007009DF80730012BF7D09DF8070003B0A4
:10B790005DF804FB1D4B984219D01D4B984223D0F5
:10B7A0001C4B984217D01C4B984222D01B4B9842FE
:10B7B00024D01B4B984213D01A4B984222D01A4BDC
:10B7C000984203D14FF03D5243F8AC2C70473D22D4
:10B7D00043F8082C70474FF4741243F8382C704724
:10B7E000124A43F87C2C70474FF4746243F8202CC3
:10B7F00070474FF0746243F8502C70470C4A43F87E
:10B80000642C70470B4A43F8942C70471064024034
:10B810002864024040640240586402407064024060
:10B8200088640240A0640240B8640240400F0020D7
:10B830003D00002000003D200023C0E90033C0E9A6
:10B840000233C0E90433C0E90633C0E90833C0E974
:10B850000A33C0E90C338363704700BF0B6870B4D0
:10B86000D1E90524CD682B431343D1E907252343B0
:10B870001343D1E909422B43D1E90D652343134317
:10B8800004680B4A334322402B4313430360D1E93E
:10B890000B3442690D6922F0070223431343D1E9B7
:10B8A0000142436145608460C26070BC704700BF64
:10B8B0003F801CF0016830B4264C002221F00101C9
:10B8C0002125A0420160026042608260C260026184
:10B8D000456116D0204A904222D0204A904215D08D
:10B8E0001F4A904222D01F4A904225D01E4A9042C1
:10B8F00012D01E4A904223D01D4A904224D030BC20
:10B9000048E71C4B3D229A6030BC7047194B4FF4FE
:10B9100074129A6030BC7047164B174ADA60F3E72E
:10B92000144B4FF474629A6030BC7047114B4FF067
:10B9300074629A6030BC70470E4B104ADA60E3E7DD
:10B940000C4B0F4ADA60DFE70A4B4FF03D52DA60EA
:10B95000DAE700BF10600240286002404060024009
:10B96000586002407060024088600240A06002405F
:10B97000B860024000600240400F00203D000020FF
:10B9800000003D2082B00022054B01920193019BF3
:10B9900003EB80000190019B186802B0704700BF64
:10B9A0005028004082B00022054B01920193019B78
:10B9B00003EB80000190019B196002B0704700BF4B
:10B9C00050280040104B70B4DA68437801788678CC
:10B9D0000E4CD243C2F30222C2F10405E8B2834006
:10B9E0000F2040FA02F23240DBB2134360181B0111
:10B9F00001F01F0501224909DBB2AA4080F800339B
:10BA000044F8212070BC704700ED00E000E100E048
:10BA1000C2785AB9037806485A09203203F01F0346
:10BA2000012101FA03F340F822307047CAE700BF52
:10BA300000E100E00B88F0B44D888F880E89C9883A
:10BA400053B3042B4AD0082B038C6ED023F48053BD
:10BA50001B041B0C0384828B048C330340F6FF46CB
:10BA6000164045F6FF72224043EA072342F4805213
:10BA7000334342EA05329BB292B283830284838BC2
:10BA800023F440631B041B0C8383838B43EA012153
:10BA900089B28183F0BC7047048C24F00104240433
:10BAA000240C0484038B028C9BB223F0F30392B228
:10BAB0003B4322F00A0243EA06132A439BB242F0B8
:10BAC000010203830284038B23F00C031B041B0C71
:10BAD0000383038B19430183F0BC7047038C23F06D
:10BAE00010031B041B0C0384048B028C3B0292B2D8
:10BAF00043EA063622F0A00240F6FF43234042F01C
:10BB00001002334342EA05129BB292B203830284CD
:10BB1000038B23F440631B041B0C0383038B43EA56
:10BB2000012189B20183F0BC704723F480731B04A8
:10BB30001B0C0384838B028C9BB292B223F0F30321
:10BB400022F420623B4342F4807243EA061342EA45
:10BB500005229BB292B283830284838B23F00C0371
:10BB60001B041B0C8383838B19438183F0BC7047B8
:10BB70002DE9F047D1F800C0002301274FF0030E54
:10BB800002E00133102B37D007FA03F232EA0C043B
:10BB9000F7D15C0006680EFA04F5ED432E4006600E
:10BBA0000E79D0F800A006FA04F8013E48EA0A0827
:10BBB000012E0EFA04F9C0F8008011D886683540CD
:10BBC00085604D798668A54035438560456825EADE
:10BBD000020242608A7945689A4092B22A434260E2
:10BBE000C26822EA0902C260CA79C568A24001336C
:10BBF0002A43102BC260C7D1BDE8F087024A536ABE
:10BC000023EA00005062704700380240024A136A7B
:10BC100023EA00001062704700380240484B984207
:10BC20002ED0B0F1804F32D0464B984236D0464BA2
:10BC300098423AD0454B98421BD0454B98423BD056
:10BC4000444B98423FD0444B98424BD0434B984290
:10BC50004FD0434B98423DD0424B984251D0424B3B
:10BC6000984256D0414B984262D0414B984257D0AF
:10BC70007047404A136A43F0080313620820C5E77F
:10BC80003C4A536A43F0010353620120B6E7394A44
:10BC9000136A43F0010313620120B7E7354A136AC0
:10BCA00043F0020313620220B0E7324A136A43F002
:10BCB000040313620420A9E72E4A136A43F0100319
:10BCC00013621020A2E72B4A136A43F02003136289
:10BCD00020209BE7274A536A43F4003353624FF412
:10BCE00000308BE7234A536A43F002035362022079
:10BCF00084E7204A536A43F4803353624FF4803020
:10BD00007CE71C4A536A43F4802353624FF480203B
:10BD100074E7184A136A43F040031362402075E742
:10BD2000144A136A43F4807313624FF480706DE712
:10BD3000104A136A43F080031362802066E700BF55
:10BD4000000001400004004000080040000C0040DA
