:020000040800F2
:10000000F0FF0010612A0508F18D0108813F010809
:10001000012B0508012B0508012B05080000000035
:10002000000000000000000000000000FD8D01083D
:10003000F98D010800000000F58D0108E53F010879
:10004000012B0508012B0508012B0508012B0508CC
:10005000012B0508012B05080DAB040839AC040879
:10006000FDAB0408C1AB040885AB040819F900080E
:1000700009F90008F9F80008E9F80008D5F80008BF
:10008000C1F80008ADF80008012B0508012B050890
:10009000012B0508012B0508012B050849AB0408B5
:1000A0006120010845250108911F01086D250108FF
:1000B00085240108C5230108F9220108012B050840
:1000C000012B0508012B0508012B0508012B05084C
:1000D000012B05085D410108012B0508C1400108FD
:1000E000D1AA0408012B050891D70108C11E0108F7
:1000F00031210108F11D01085921010899F8000872
:10010000012B0508012B050829220108012B0508F0
:10011000012B0508012B05089D6602088966020867
:1001200085F8000871F800085DF8000849F8000833
:1001300035F80008012B0508012B0508012B0508DF
:10014000012B0508012B0508012B0508C9C601086C
:1001500021F800080DF80008F9F70008254001080B
:10016000012B0508012B0508012B0508012B0508AB
:10017000012B0508012B0508012B0508012B05089B
:08018000012B0508012B050805
:0801880008260500010000003B
:10019000100201008C1A0020881A002000000000C4
:1001A000080700081F021000A01A0020901A002063
:1001B00000000000598500081A023C005C1B00206A
:1001C000DC1F002000000000F9890008270004005F
:1001D000581B002018200020000000000A0700081B
:1001E00003010A009433002028340020000000009E
:1001F0000E070008051006002833002034340020C4
:10020000000000001807000813020400482800201E
:100210003C340020000000001E07000801200800F8
:100220000C580020005D002000000000220700089C
:100230000C109C0060570020085D002000000000AA
:10024000714A02080A702800EC560020A45D0020C4
:100250000000000061CA02080EA074017855002059
:10026000CC5D0020000000000D9A0308010104008D
:10027000D4540020405F0020000000000000000077
:1002800000010400CC540020445F00200000000066
:100290002A07000802010300C8540020485F00201C
:1002A00000000000F14A020809020100945C0020ED
:1002B0004C5F0020000000002E070008010205002E
:1002C000E0540020505F002000000000EDE0010835
:1002D00000020500385B0020585F0020000000008D
:1002E000000000001B021000185B0020605F00206F
:1002F00000000000D98300081E000600AC58002052
:10030000705F002000000000300700081B100C0088
:10031000C4450020785F00200000000051EE010875
:100320002102F00048440020845F0020000000000B
:100330002DED0108F6210C009C680020EC680020DF
:10034000000000003807000802000C009068002040
:10035000F86800200000000000000000F70106001F
:1003600084680020046900200000000044070008A1
:100370000A020A00F46700200C6900200000000057
:100380002551020803000100786800201869002048
:1003900000000000000000002C001000B0710020E0
:1003A000A07100200000000045D502082B002400A9
:1003B000E4710020C07100200000000015D5020883
:1003C00029207800A870002008720020000000009A
:1003D000000000001C021000246C0020807200202D
:1003E00000000000B183000820320A009C72002047
:1003F000907200200000000041CA020814000300AF
:1004000010700020A8720020000000004A070008B9
:1004100010100200806E0020AC720020000000006E
:100420004E07000828101000706E0020B0720020E7
:1004300000000000B9CA020819000500686E00201B
:10044000C07200200000000050070008F8210600DC
:10045000606E0020C87200200000000056070008EF
:1004600003123300347B0020707B0020000000006A
:100470005C07000825102C0114790020A47B0020C3
:1004800000000000000000001A000E00AC78002000
:10049000D07C0020000000009007000815007000CC
:1004A000A4740020E07C0020000000000000000098
:1004B0002A0060004C780020507D002000000000E1
:1004C000E5990308371024008C870020D887002086
:1004D00000000000A00700080E0202006487002050
:1004E000FC87002000000000C4070008161006006A
:1004F0008C7F00200088002000000000C607000854
:100500002F102200B487002008880020000000007F
:10051000CC07000823100E008C8100202C880020BE
:1005200000000000D1CA0208F5518C00B87E0020FE
:100530003C8800200000000069EC010826100C0037
:10054000D4880020C888002000000000352D040851
:100550000B301800A07E00200C8900200000000055
:10056000EE0700081F302400787E00202489002038
:10057000000000000808000805020400588100205F
:1005800048890020000000002C0800080D003400FD
:1005900018B4002090B40020000000009557030814
:1005A0000400800030AA0020C4B400200000000035
:1005B00000000000130004001CAA002044B5002025
:1005C0000000000030080008FD012400F8A9002008
:1005D00048B5002000000000C5FF000818202E00CC
:1005E000C4A900206CB5002000000000898A000822
:1005F00006101A00249800209CB50020000000007E
:100600006D9A0308FB01010020980020B8B5002076
:1006100000000000F58A0008FC010900EC960020AB
:10062000BCB5002000000000058B0008F9010400A3
:10063000E4960020C8B5002000000000E97B040813
:1006400016023F00A0960020CCB50020000000005C
:100650001D84000834001000D09500200CB6002046
:1006600000000000419A030811020800A89500202C
:100670001CB600200000000034080008121204001C
:10068000A095002024B60020000000003C080008CF
:10069000122010009095002028B6002000000000D5
:1006A00040080008FF110600D092002038B6002054
:1006B000000000003D85000808120F00DC920020B9
:1006C00040B6002000000000FD8400080202030084
:1006D000A889002050B600200000000000000000A3
:1006E0000C0204006489002054B6002000000000C1
:1006F0002D850008FE011400088C002058B600204B
:0807000000000000ED83000879
:10070800000020030000040101006C160000000036
:1007180020000301000000000100E8036400040A4F
:1007280000019600000038000000010000000000F1
:100738000000000001000000020200003900010072
:100748004E0C030000000005000028010000040111
:10075800F401140000000000000000000000000088
:100768000000000000000000000000000000000081
:100778000000000000000000000000000000000071
:1007880000000000000001007E05EA05B405320003
:10079800E803D0070000000020003200C800D0079E
:1007A8009600140032002800B004400600055000EE
:1007B80014000F0008006400010001000000C409D3
:1007C8000000190000000000000000000000000008
:1007D8000000000000000000000000000000000011
:1007E800000000000000AE014A015E012C01640116
:1007F8000100000001000A019A01001E0A00000021
:1008080000000000000100000005000001020300D4
:1008180000000000000000000000000000000000D0
:1008280000800700000000000800443000000000BD
:1008380001010101FFFFFFFF000000010000055951
:080848005046340000080000D6
:10085000FF01FF0000000401000000000000000292
:100860001000000007000000000000000000000071
:10087000010203040607080901000000A00F0000A0
:10088000B80B00000102FFFF01000000040309048F
:1008900012010002EF0201408304563200020102FD
:1008A00003010000120100020202004083044057CD
:1008B00000020102030100001A0300000000000012
:1008C0000000000000000000000000000000000028
:1008D00000000000040309041201000200000040AF
:1008E00083042057000201020301000009022000D6
:1008F000010104C032090400000208065005070582
:100900008102400000070501024000000902640066
:10091000030100C0320904000001030000000921A6
:10092000110100012226000705830308000A080BB5
:100930000102020201000904010001020201000596
:1009400024001001052401000204240202052406EB
:100950000102070582030800FF09040200020A00E1
:100960000000070501024000000705810240000069
:1009700009024300020100C0320904000001020222
:1009800001000524001001052401000104240202D5
:100990000524060001070582030800FF0904010081
:1009A000020A00000007050102400000070581025D
:1009B00040000000FF000000AC48050800000000F7
:1009C0000000000000000000000000000000000027
:1009D0000000000000000000000000000000000017
:1009E00000FFFF0000000000804805080000000034
:1009F00000000000000000000000000000000000F7
:100A000000000000000000000000000000000000E6
:100A1000AA550501000000009DA50108A9A4010830
:100A20008DA50108AD7C010839A50108E1A40108E4
:100A3000A97C01088004002031AC01086184010810
:100A400071B70108000000000000000075B4010843
:100A500091B3010800000000000000000000000049
:100A6000457E0108357D0108297D0108E17F0108E7
:100A7000FD7F0108E17C0108C57F0108A97F01080D
:100A800005010905A101A10005010930093109325B
:100A9000093309350934094009381581257F75085E
:100AA00095088102C0C0000009022200010100E097
:100AB00032090400000103010200092111010001B3
:100AC0002226000705830308000A0000000000003A
:100AD000010203040102030406070809D5B6010850
:100AE000D9B5010831BA01085D800108D585010832
:100AF0006D80010889800108358001082580010882
:100B000000000000000000002D202D2D202D2D2D97
:100B10002D202D2D2D2D00000000000000000000D4
:100B200000000000000000AA550B010000AA5507B4
:100B3000010000AA550902000000AA5503009F0009
:100B400001000000C0120000008002021F0000002F
:100B500053544D202020202050726F647574202043
:100B60002020202020202020302E303100000100C5
:100B7000E001FF01E1E30108000000000C4A050864
:100B800020700020702D7200FFFFFFFF080101FFA1
:100B9000FF2D202D2D202D2D2D2D202D2D2D000034
:100BA0000000000000000000000000000000000045
:100BB0000000000000000000B85C05080000000014
:100BC00000000000445D050801000000FA0000007C
:100BD00001000000010000004257002000C8010091
:100BE000415700200050010040570020005A0100EA
:100BF0003E57002002000000504C05086CB6050866
:100C000074B60508F68000200100C4090000000049
:100C1000F48000200100C40900000000F2800020E0
:100C20000100C40900000000F08000200100C40998
:100C300000000000EC8000200100C409000000005A
:100C4000EE8000200100C40900000000EA800020BE
:100C50000100C40900000000E88000200100C40970
:100C600000000000F05400200100C8000100000056
:100C7000EE5400203200307532000000ED540020A8
:100C8000055A0500EA54002000FF0100EC54002042
:100C90000100000034050020E8540020020000009C
:100CA00040700508E954002000FF0100EB540020CB
:100CB0000100000034050020E7540020020000007D
:100CC0004070050818580020EE02CA080100000014
:100CD0001658002000C801006400000015580020CC
:100CE00000C8010064000000145800200200000049
:100CF0005C4C0508DA54002080C1803E05000000ED
:100D0000D854002080C1803E05000000D25400204D
:100D100080C1803E05000000D054002080C1803E8C
:100D200005000000CB54002000FF0100C454002047
:100D30006400F40101000000C3540020040000001E
:100D4000684C0508C2540020020000007C4C0508D5
:100D5000675500200D000000884C050864550020F0
:100D60000064010062550020320010270A000000D4
:100D7000615500200D000000884C050860550020DA
:100D80000D000000884C05085F550020020000009F
:100D9000C04C05080000000000000000CC4C050815
:100DA000D83300209CFF2C0100000000625C002072
:100DB000E0150C1700000000865B00200200000018
:100DC000044D0508245800200100FF7F01000000A9
:100DD0002358002002000000104D0508695500202E
:100DE00003000000204D05086855002003000000A6
:100DF000204D0508205700200000E80301000000F6
:100E00001E5700200000E803010000001C570020CE
:100E10000000E803010000001A5700200000E8036A
:100E200001000000185700200000E8030100000046
:100E3000165700200000E8030100000015570020AD
:100E4000001401001457002003000000304D050875
:100E50002C5700200000F401010000002A57002058
:100E60000000F40101000000285700200000F401F8
:100E700001000000265700200000F40101000000DE
:100E8000245700200000803E01000000225700206F
:100E90000000803E01000000555700201964010049
:100EA0005457002002000000404D05085257002012
:100EB000E803D0070A00000050570020006401003A
:100EC0000A0000004557002000640100445700203C
:100ED000006401004C570020006401000A0000007B
:100EE0004B570020006401000A0000004A57002010
:100EF000006401000A0000004F5700200064010058
:100F00000A0000004E570020006401000A000000A3
:100F10004D570020006401000A00000049570020DE
:100F200001FF01000A0000004857002001FF0100F6
:100F30000A0000004757002001FF01000A000000DE
:100F4000725500200000F4010100000070550020DF
:100F50000000F401010000006E5500200000F401C3
:100F6000010000006C5500200000F40101000000A9
:100F70006A5500200000F401010000003D570020E8
:100F8000006401003C570020006401003B57002032
:100F9000006401003A570020FF0801003957002083
:100FA00001640100E5E90108A9E901084C4D0508C3
:100FB0003857002000640100365700201400E80371
:100FC0000100000034570020E80330750A000000DB
:100FD0003257002000C801003157002000C801002E
:100FE0003057002000C801002F5700200064010086
:100FF0000A0000000A5800200000D007010000008D
:101000000558002000C801000458002000C8010055
:101010000358002000C80100085800200000D00735
:10102000010000000258002000C801000158002003
:1010300000C801000058002000C801000658002028
:101040000000D00701000000FF57002000C8010089
:10105000FE57002000C80100FD57002000C8010015
:101060000000000021E70108BC4D05085D55002087
:1010700031000000584E05085C55002000C80100F2
:101080005A550020E803D007010000005955504987
:1010900046340000E654002000030100E55400201F
:1010A0000003010089E6010861E60108204F0508F8
:1010B0001DE60108D1E50108744F0508B1E60108F5
:1010C000E50E0208F44F0508DC540020010301007E
:1010D00041EB010815EB0108E852050855E5010848
:1010E00009E501084C53050837E701088D3002086F
:1010F000E85305087120020800000000905405081C
:1011000061100208A1EB01082C55050895E70108BC
:10111000000000009C55050859E8010805E8010891
:1011200000560508E9E80108ADE801089C560508E5
:1011300021EA010869EA01081C5705084357002005
:1011400001060100D1E70108A9E7010818580508C0
:1011500025E90108490F02088858050899EA01089D
:10116000CD0F0208685905082E5700200103010021
:10117000F5E60108C9E601083C5A05086DEB0108CF
:1011800000000000A05A0508A1E50108B50E0208FC
:10119000045B05080000000000000000905B0508EB
:1011A000EDEA010845100208105C0508BE54002055
:1011B00088136F1701000000C054002088136F17B8
:1011C000000000001A3300200000000000000000B2
:1011D000183300200000000000000000163300203B
:1011E0000000000000000000143300200000000098
:1011F000000000001233002000000000000000008A
:101200001033002000000000000000007C040020DB
:1012100000000000000000009554002002000000C3
:10122000985D0508BC54002088136F17010000006A
:101230001834002088136F170000000099E401089B
:1012400000000000A45D0508875B0020010000008D
:10125000F85D05081A34002001000000045E05084E
:1012600010340020020000000C5E050800000000A1
:1012700000000000185E050881E40108000000007D
:10128000B45E05080000000000000000085F0508CB
:101290000000000000000000785F05081434002002
:1012A000E0150C170000000000000000DC680020C2
:1012B0000800000000000000CC68002008000000CA
:1012C0000000803FFFFFFFFF70C805087CC80508CD
:1012D00088C8050894C80508A0C80508ACC8050852
:1012E000D0C4050844EA050874E90508FCC70508E8
:1012F0009C11060860C8050864C8050868C8050888
:101300006CC8050850C8050854C8050858C8050821
:10131000DCE705085CC805081900C800F4012003D3
:1013200050C8050854C80508B8C8050858C80508B5
:10133000BCC80508C0C80508010000000001010183
:1013400000D6010101000000B9850108A58401084B
:101350000DBA010800000000CD7E0108C5B50108E6
:10136000F58301083DB50108000000000000000001
:10137000897E0108817C0108757C0108717F010864
:101380008D7F0108557F0108397F01081D7F010805
:1013900071850108818401084DB901080000000031
:1013A000A17E010841B50108C98301089DB4010867
:1013B0000000000000000000957E01080000803F52
:1013C0000000000000000000000000000000803F5E
:1013D000000000000000000000000000000000000D
:1013E00000000000000000000000000000000000FD
:1013F000000000000000803F00000000000000002E
:101400000000000001000000FFFFFFFF0000803F20
:10141000000000000000000000000000FF000000CD
:1014200001010000FF1FFF1FFFFFFFFFE0880020FA
:1014300000000000048900200000000001000000FE
:10144000FFFF0000FFFFFFFF9C0D060800000802E1
:1014500005030300A40D06080100080205040300AB
:10146000E0C905080200FE0101100300C8B9050823
:101470000300140200030000AC0D060804001F0264
:1014800001000800B40D060805001F020101080054
:1014900008000000994D0208000000000000000054
:1014A00000000000717C01086D7C0108697C010866
:1014B0005D7C0108597C0108657C0108617C01089C
:1014C000998B01081D8A0108C98B01082DA6010806
:1014D000C9C00108A9A60108317E01081D7E0108C6
:1014E000157E01080100000000600240106002400B
:1014F0000000000000000000000B000000000000E1
:10150000000000000000000000600240286002406F
:101510000100000000000000060C000000000000B8
:101520000000000000000000006002404060024037
:101530000200000000000000100D0000000000008C
:1015400000000000000000000060024058600240FF
:101550000300000000000000160E00000000000064
:1015600000000000000000000060024070600240C7
:101570000400000000000000200F00000000000038
:10158000000000000000000000600240886002408F
:101590000500000000000000261000000000000010
:1015A000000000000000000000600240A060024057
:1015B00006000000000000003011000000000000E4
:1015C000000000000000000000600240B86002401F
:1015D0000700000000000000362F0000000000009F
:1015E000000000000000000000640240106402409F
:1015F00000000000000000000038000000000000B3
:101600000000000000000000006402402864024066
:10161000010000000000000006390000000000008A
:10162000000000000000000000640240406402402E
:101630000200000000000000103A0000000000005E
:1016400000000000000000000064024058640240F6
:101650000300000000000000163B00000000000036
:1016600000000000000000000064024070640240BE
:101670000400000000000000203C0000000000000A
:101680000000000000000000006402408864024086
:1016900005000000000000002644000000000000DB
:1016A000000000000000000000640240A06402404E
:1016B00006000000000000003045000000000000AF
:1016C000000000000000000000640240B864024016
:1016D0000700000000000000364600000000000087
:1016E0000000000000000000380E0608D0D50508F4
:1016F00000000000054B0208A08601000400000065
:1017000000000000000000000000000000000000D9
:1017100000000000000000000000000000000000C9
:101720000000000000000000380E0608B011060896
:10173000000000009D0D0108E80300000400000007
:101740000000000000000000000000000000000099
:101750000000000000000000000000000000000089
:10176000000000000000000098BC050858E80508CB
:1017700000000000057302087D0000000600000064
:101780000000000000000000000000000000000059
:101790000000000000000000000000000000000049
:1017A0000000000000000000880D06080000000096
:1017B00000000000B5310108E8030000030000004C
:1017C0000000000000000000000000000000000019
:1017D0000000000000000000000000000000000009
:1017E0000000000000000000B81106080000000022
:1017F0000000000029E40308102700000300000097
:1018000000000000000000000000000000000000D8
:1018100000000000000000000000000000000000C8
:101820000000000000000000A80D060800000000F5
:1018300005D302083D0001085F76000005000000A6
:101840000000000000000000000000000000000098
:101850000000000000000000000000000000000088
:1018600000000000000000003C100608000000001E
:1018700000000000E57201081027000001000000D0
:101880000000000000000000000000000000000058
:101890000000000000000000000000000000000048
:1018A0000000000000000000C41106080000000055
:1018B0000000000065FE0008E803000005000000CD
:1018C0000000000000000000000000000000000018
:1018D0000000000000000000000000000000000008
:1018E0000000000000000000D01106080000000009
:1018F000000000009D6B0208204E00000300000065
:1019000000000000000000000000000000000000D7
:1019100000000000000000000000000000000000C7
:101920000000000000000000E011060800000000B8
:101930000000000089690208204E0000030000003A
:101940000000000000000000000000000000000097
:101950000000000000000000000000000000000087
:101960000000000000000000F01106080000000068
:101970000000000031150108400D030003000000C5
:101980000000000000000000000000000000000057
:101990000000000000000000000000000000000047
:1019A0000000000000000000CCC605080000000098
:1019B000000000007D7103081027000001000000F6
:1019C0000000000000000000000000000000000017
:1019D0000000000000000000000000000000000007
:1019E0000000000000000000E4D505080000000031
:1019F00000000000C5F901081027000003000000E6
:101A000000000000000000000000000000000000D6
:101A100000000000000000000000000000000000C6
:101A20000000000000000000B4B80508000000003D
:101A3000000000003DFD0008A8610000010000005A
:101A40000000000000000000000000000000000096
:101A50000000000000000000000000000000000086
:101A60000000000000000000F4C6050800000000AF
:101A700000000000AD420108A00F000001000000BE
:101A80000000000000000000000000000000000056
:101A90000000000000000000000000000000000046
:101AA0000000000000000000001206080000000016
:101AB00000000000D52B02081027000001000000E4
:101AC0000000000000000000000000000000000016
:101AD0000000000000000000000000000000000006
:101AE0000000000000000000D0C305080000000056
:101AF00000000000757004081A4100000100000099
:101B000000000000000000000000000000000000D5
:101B100000000000000000000000000000000000C5
:101B2000000000000000000074B80508000000007C
:101B300000000000292A040810270000010000000E
:101B40000000000000000000000000000000000095
:101B50000000000000000000000000000000000085
:101B60000000000000000000DCD5050800000000B7
:101B7000000000001D3702081A41000001000000AB
:101B80000000000000000000000000000000000055
:101B90000000000000000000000000000000000045
:101BA00000000000000000000C1206080000000009
:101BB00000000000ED2F0408400D030000000000AD
:101BC0000000000000000000000000000000000015
:101BD0000000000000000000000000000000000005
:101BE00000000000000000001412060800000000C1
:101BF0000000000053570308400D030000000000E0
:101C000000000000000000000000000000000000D4
:101C100000000000000000000000000000000000C4
:101C200000000000000000001C1206080000000078
:101C3000000000005519020850C300000300000016
:101C40000000000000000000000000000000000094
:101C50000000000000000000000000000000000084
:101C6000000000000000000028120608000000002C
:101C700000000000FD68020840420F000000000064
:101C80000000000000000000000000000000000054
:101C90000000000000000000000000000000000044
:101CA00000000000000000003412060800000000E0
:101CB00000000000796C030850C300000000000021
:101CC0000000000000000000000000000000000014
:101CD0000000000000000000000000000000000004
:0C1CE00000000000000000000000803F39
:1080000003685A1C02601970704700BF2DE9F047E1
:10801000089C2578002B804689460CBF4FF0200A2B
:108020004FF0300A661C25B3002A26DD334601E0F6
:10803000024698B113F8011B501E0029F8D1971E73
:1080400060B13D46013D51464046C8476B1C002B80
:10805000F8DC257827EAE770013045B1041B294692
:108060004046C847301916F8015B002DF7D1BDE82E
:10807000F087002A03DC2846F9E70020EEE7571EC8
:10808000DFE700BF2DE9F04714461D4606464FF4D2
:108090007A720023204629464AF016FB4D4BDFF842
:1080A00048814D4A4D4F034488FB03101844D917AB
:1080B00082FB032CC1EB601088FB002887FB0327A1
:1080C0009C44474AC1EBEC2CC0EB001E82FB0C2900
:1080D000A3EB8E0E1F44434A86F806E0C1EB274708
:1080E0004FEAEC7E08EB000ACEEBA90E82FB07827A
:1080F0004FEAE0780EEB4E0EC8EB6A18ACEBCE0CF4
:10810000C8EB0818DFF8E4E086F804C0A0EB8800AC
:1081100070718EFB0303F817C0EBE21240F2B5500A
:1081200000FB1272C1EBE353B2F5896F4FEA83078C
:108130003CDA40F2DA239A4242DCB2F5B77FB4BFB0
:108140004FF0000E4FF0010E4FEA4E09DFF8A0800D
:1081500009EB0E0308EBC3031FFA8EFCD88A09EB68
:108160000E0108EBC10116310B2301E031F8020DBD
:10817000904218DD013BF9D1CE44012338F83E008E
:10818000B37007F5FA670132121ABC44F270A6F810
:1081900000C0204629464FF47A7200234AF094FA30
:1081A0003281BDE8F0870133DBB2E9E74FF0030C21
:1081B000E64640F29650DFF838804FF00609CEE7E9
:1081C0004FF0020CDFF82880E64640F229404FF0DD
:1081D0000409C4E780BC92C7C5B3A29107452EC26B
:1081E000ABAAAA2A73B06D1689888888792D0311E5
:1081F000F04205080028F0B403DA2D230B7040424A
:108200000131092804464FF0010307DD03EB830326
:108210005B00B0FBF3F2092AF8D883B10F48A0FB4A
:108220000326B4FBF3F2092A02F1570C02F13007DE
:1082300009DD03FB1244F30801F801CBEFD1002361
:108240000B70F0BC704703FB1244F30801F8017B8C
:10825000E5D100230B70F0BC704700BFCDCCCCCC77
:10826000884270B44FF0010442D301FB04F4B0FB28
:10827000F4F58D42F9D2ECB142BB092D04FB150097
:1082800005F1570605F130020EDDB4FBF1F403F8F9
:10829000016B7CB1B0FBF4F5092D04FB150005F171
:1082A000570605F13002F0DCB4FBF1F403F8012BC2
:1082B000002CEFD100221A7070BC704703F8016BDC
:1082C000B4FBF1F4002CF5D0B0FBF4F5092D04FB60
:1082D000150005F1370605F13002EFDCB4FBF1F4CF
:1082E00003F8012B002CEFD100221A7070BC7047EC
:1082F0000546002AEAD1C0E790ED057A90ED004AE4
:10830000D0ED066AD0ED014AD0ED047A90ED035A23
:10831000D0ED025AA4EE007AB0EE406AB0EE470A01
:10832000B0EE667AA4EE867A67EEC07AA5EE407A61
:10833000E5EE867A80ED057AC0ED067A704700BFDB
:10834000D0ED057A90ED013AD0ED003AD0ED064A35
:1083500090ED024A90ED077A90ED035A90ED086A8D
:10836000D0ED045AC0ED067AF0EE406A27EE830A9B
:10837000C0ED056AA3EEA60A80ED087AA4EE240AF1
:10838000A5EE470AA5EEC60A80ED070A704700BFB2
:10839000D0ED007A90ED017A30EE670AE7EE007AD0
:1083A000B0EE670AC0ED007A704700BF704700BFAB
:1083B00030B400230221012214253424C5708471B5
:1083C0000370C3728373C3734170C1714172827051
:1083D0000272827230BC7047002306214FF47A7219
:1083E0000170C0E901230373704700BF30B431232B
:1083F000322230254FF60174FF2143704271012370
:108400000022C5700482817403720370037183704B
:1084100042818281C28130BC704700BF2DE9F04F9C
:108420003149324B83B001F5A07B019038274FF0E2
:1084300000092F481022012603E0203098420BD07B
:1084400002799742F9D102680C68A24209D0203023
:10845000984206F10106F3D1203159453AD00F79FF
:10846000E7E744794D79A542F1D19446019A214834
:1084700009EB490502EB050A57558AF8016000F53A
:1084800072751D4E624603E0A8421AD050F82C6F58
:10849000B242F9D10679A642F6D1CF6806464FF02E
:1084A000000C96468046F268BA4216D00CF1010CD8
:1084B000BCF1030F06F10C06F5D14046A842724606
:1084C000E4D14FF0FF3C203159458AF802C009F150
:1084D0000109C4D103B0BDE8F08F08693269824256
:1084E000E4D14FFA8CFCEEE7186D0508E09D050815
:1084F00020940508E09D05080000014030B41521D6
:10850000162217233A253B24017042703C21002299
:108510008370FF238572C47201734273C370037149
:1085200003724372837330BC704700BF01231E2166
:1085300000224170C27003708370704730B4012311
:108540004225002403211F22857004704170C270EF
:108550000371437130BC7047034600F11001FF22E4
:108560001A705A7002339942FAD102704270027145
:1085700042718272C2727047012380F85030704796
:108580004FF40063038370474FF400630383704725
:108590004FF4006303837047F0B4037C45690268BD
:1085A0001F2B37D9203B2021546899400C4223D0FF
:1085B00010249C40D160D4605168D940CE074ED47D
:1085C000EFF31183502282F31288EA6B1168C90716
:1085D00009D45468002C52D1D5E909618E4243D1A7
:1085E000012285F86020DBB283F31188037C0268E6
:1085F0001F2B194614D9203B082150689940084286
:1086000000D0D1600421506801FA03F3184223D14D
:10861000F0BC7047202416689C4026420FD11946B2
:10862000082310688B40184200D093600423106820
:1086300003FA01F10842EBD09160F0BC70471021C1
:108640009940946091601168D940CC07B8D5012158
:1086500001FA03F39360B3E7D360F0BC70470121E4
:1086600001FA03F3D360ABE7AF690F44D7600ED8CC
:108670002E69711A5160AC62002185F86010116892
:1086800041F00101DBB2116083F31188AEE7711A8A
:108690005160AE62F0E700BF2DE9F041B14DB24C40
:1086A0002A7823789A4240F01B81B04B1A78002A2E
:1086B0007CD0AF4B1E78AF4B002E79D11968B3F840
:1086C0002C714E628889012A40EA07008881A3F84C
:1086D0002C6157D0D3F83011B3F85C724E628889A0
:1086E000022A40EA07008881A3F85C624AD0D3F8E6
:1086F0006012B3F88C734E628889032A40EA07003F
:108700008881A3F88C633DD0D3F89013B3F8BC7480
:108710004E628889042A40EA07008881A3F8BC6475
:1087200030D0D3F8C014B3F8EC754E628889052AAE
:1087300040EA07008881A3F8EC6523D0D3F8F01550
:10874000B3F81C774E628889062A40EA07008881C0
:10875000A3F81C6716D0D3F82017B3F84C784E62F4
:108760008889072A40EA07008881A3F84C6809D065
:10877000D3F85028B3F87C0956629189014391815E
:10878000A3F87C692A7823789A420FD07A481F464A
:108790009B003B449B00C218C3583BB9137A2BB9CA
:1087A000537A1BB97B1C03F003032370BDE8F081EF
:1087B0005E68198971603768186847F0010740F2F0
:1087C0000D313760A0F848108689012A46F480767A
:1087D0008681D7D0D3F83461B3F83871D3F830013B
:1087E0007760376847F001073760A0F8481086893E
:1087F000022A46F480768681C4D0D3F86462B3F846
:108800006872D3F860027760376847F00107376015
:10881000A0F848108689032A46F480768681B1D074
:10882000D3F89463B3F89873D3F8900377603768FC
:1088300047F001073760A0F848108689042A46F4FB
:10884000807686819ED0D3F8C464B3F8C874D3F818
:10885000C0047760376847F001073760A0F8481018
:108860008689052A46F4807686818BD0D3F8F46514
:10887000B3F8F875D3F8F0057760376847F001076B
:108880003760A0F848108689062A46F480768681EB
:108890003FF478AFD3F82467B3F82877D3F82007EC
:1088A0007760376847F001073760A0F8481086897D
:1088B000072A46F4807686813FF464AFD3F85428C3
:1088C000B3F85808D3F850385060106840F00100F1
:1088D0001060A3F848109A8942F480729A8151E797
:1088E00080460BF0CFF927782B78BB4286461DD007
:1088F000BB002148DA1900EB8202167AC6B1B8F142
:10890000000F3DD01D490022B1F808C00132BCF172
:10891000000F18BF0026424501F58071F4D17EBBDF
:10892000124A1278002A3FF434AFC2E61248BB0064
:108930003B449B00C118C258AEEB0202002AFFF66E
:1089400035AF4A7A3AB1013AD2B24A7212B30EF551
:108950007A72C25000E0C250044B1A78002A7FF4A9
:10896000A8AE0FE718B3002019B30020D82E0010CE
:10897000D42E001040A000201CB3002040980020FE
:10898000DA1992000EF51C51861810318150002220
:108990003272C5E74A687244C250DDE710B5027C06
:1089A00001681F2A4FF020030ED94C68203A9340EB
:1089B0001C4208D00B4A406800241470026822F060
:1089C00001020260CB6010BD0C6893401C42FAD0DB
:1089D000044A406800241470026822F00102026018
:1089E0008B60F0E7D947002042F054BB014B186878
:1089F0000BF058BC881F002038B51D4B1B7804466F
:108A000000F1250593B104221A4920304BF05AFC9D
:108A10002846142218494BF055FC012384F83A30BB
:108A2000164B1B7873B984F83B3038BD28461422A6
:108A300013494BF047FC012384F83A300F4B1B7865
:108A4000002BF0D00F4B186859689A68DD68E56014
:108A500020606160A260DD69186959699A69A26144
:108A60000123E5612061616184F83B3038BD00BFBE
:108A70007D7300204C730020347300207E7300202F
:108A800084A905085473002038B52E2200214BF02C
:108A9000DBFB034640F2DC51642040F21A4240F214
:108AA000022418745982132019219A8240F27532D7
:108AB00040F26C751C8398760E240A201977DA83AD
:108AC00002210122DD8283F82D0040F64305197250
:108AD00083F82C1083F822409A7383F8252083F8BA
:108AE0002B201D8419460248BDE838402BF0C6BB38
:108AF0008CA9050810B500210446012009F076FF75
:108B0000207010BD38B500240472451EE1B2022069
:108B100009F06CFF0134082C05F8010FF6D138BDBF
:108B200038B5054640683B4A038823F040031B04E0
:108B30001B0C0380038823F038031B0490424FEA88
:108B4000134305D002F58062904201D043F0080340
:108B500003800388AA6843F04003038012B11368BE
:108B600092885A83838940F2E93301E0002B43D095
:108B70000289013B12F0020F9BB2F7D0F5238381EB
:108B800040F2E93301E0002B36D00289013B12F0BC
:108B9000010F9BB2F7D08389838940F2E93300E06B
:108BA0000BB30289013B12F0020F9BB2F8D0FF23F6
:108BB000838140F2E93300E0ABB10289013B12F05E
:108BC000010F9BB2F8D08489E4B2AB6813B11A6884
:108BD0009B881383712C19D008D9AC2C14D0AF2CDE
:108BE0000ED1092038BD42F02BFAEEE7122C0FD03F
:108BF000702C07D1052038BD42F022FA6868CBE717
:108C0000732C03D0002038BD072038BD062038BDA6
:108C1000082038BD00380040F0B5876983B00646AB
:108C200017B13B68BA885A837069DFF8A8E0838976
:108C3000C3244FF47A734FF0060C6D464FF6FF7164
:108C40000EF1010E03E0013B9BB28B4220D0028962
:108C50009207F8D5A3B283814FF47A7302E0A3B2EE
:108C60008B4215D00289D20703F1FF34F7D58289F0
:108C700092B20DB12A700135BCF1000F0BD00CF18E
:108C8000FF3CFF24BEF1000FE1D09EF80040D7E783
:108C900042F0D6F9B76917B13B68BA881A839DF8D4
:108CA00005009DF801509DF802109DF803409DF8C5
:108CB00004209DF8063041EA052143EA002342EAF8
:108CC00004220120A6F85010A6F85220A6F854302D
:108CD00003B0F0BD5043050808B5012013F094FA25
:108CE000174A936803F00C03042B1ED0082B18D1ED
:108CF00051685368490203F03F0319D45268114880
:108D0000B0FBF3F0C2F3881300FB03F00C4B0E4AE8
:108D10005B68C3F3014301335B00B0FBF3F0106009
:108D200008BD094B074A1A6008BD074B186008BD0B
:108D3000B0FBF3F05368C3F3881300FB03F0E5E7DF
:108D4000003802400024F400E09600208A4B1B7893
:108D5000002B00F09880002800F095802DE9F04F5E
:108D6000431E85B0854C0190032B4FF00006A8BF31
:108D70000323A4F114070393B0464FEA062A07EB36
:108D80000A03256E5B7C002B7ED06A6892B2002AB3
:108D900065D114F8050CD4E91B13002800F0AA844F
:108DA000603377485B1AA0FB0351890901EB41014D
:108DB000A3EB4113182B00F17785173BA0FB03238E
:108DC000DB0003F0F003D4E91D126D486032521A43
:108DD000A0FB0251890901EB4101A2EB4112182AC3
:108DE00005D4173AA0FB0212C2F343021343D4E99D
:108DF0001F1263486032521AA0FB0251890901EB2D
:108E00004101A2EB4112182A5EBF173AA0FB0212E1
:108E1000C2F34305D4E92112594802F16002A2EBE2
:108E20000102A0FB02C14FEA911101EB4101A2EB4B
:108E3000411248BF0025182A58BF173A45EA0315C2
:108E40005ABFA0FB0223C3F34303002343EA0513E5
:108E500083EA132282EA1212100700F00C85494AB5
:108E600013680133136026B980224749474849F007
:108E7000C5FE07EB0A0383F8118054F8109C256E99
:108E8000D9F800B00CE0704754F8109C34F80A1C74
:108E9000D9F800B0BBF80C2022EA0102ABF80C2094
:108EA0002A683B4B22F0010221219D422A60C5F82D
:108EB0000080C5F80480C5F80880C5F80C80C5F8A6
:108EC000108069611FD0334B9D4200F03783324BD5
:108ED0009D4200F03D83314B9D4200F0DF84304BDA
:108EE0009D4200F002852F4A954200F003852E4AEC
:108EF000954200F07E852D4A954200F0EC8428468C
:108F000012F0EAFF02E02A4A3D219160BA448AF851
:108F1000108099F805100C2916D8DFE811F04401EB
:108F20001500150015004D011500150015003B0139
:108F30001500150015000D00BBF81C2022F400627E
:108F40001204120CABF81C202246584608F0CCFD47
:108F500099F805300C2B37D8DFE813F006013600FE
:108F6000360036001101360036003600FB003600B0
:108F7000360036002C0000BFD02E00105498002080
:108F8000ABAAAAAA24000010C0980020802D0010CF
:108F90001060024028600240406002405860024079
:108FA0007060024088600240A0600240B8600240E9
:108FB00000600240BBF81C3023F400631B041B0C50
:108FC00043F40063ABF81C30D4E90D12236AE06B64
:108FD00043F040030B431343226CB1490343134353
:108FE000626C13434022E262A26C28681343A26DB4
:108FF0000292626D1343029A014013430B432B60AC
:10900000D4E913316A69206B22F007020B43134342
:10901000D4E909126B616860A960EA602B6843F0CB
:1090200010032B60039B01369E4204F580747FF78A
:10903000A4AE019B9E4280F2CC814FEA062A0AF13F
:1090400014043C444FF0000807EB0A03256E5B7CD8
:10905000002B00F0BA806A6892B2002A65D114F839
:10906000050CD4E91B13002800F07C8260338D4886
:109070005B1AA0FB0351890901EB4101A3EB4113EA
:10908000182B00F11484173BA0FB0323DB0003F033
:10909000F003D4E91D1283486032521AA0FB02513A
:1090A000890901EB4101A2EB4112182A05D4173AB4
:1090B000A0FB0212C2F343021343D4E91F12794802
:1090C0006032521AA0FB0251890901EB4101A2EB67
:1090D0004112182A5EBF173AA0FB0212C2F34305E1
:1090E000D4E921126F4802F16002A2EB0102A0FB59
:1090F00002C14FEA911101EB4101A2EB411248BFBD
:109100000025182A58BF173A45EA03155ABFA0FB95
:109110000223C3F34303002343EA051383EA132224
:1091200082EA1212120700F0E0825F4A13680133EC
:10913000136026B980225D495D4849F05FFD07EB69
:109140000A0383F8118054F8109C256ED9F800B0FA
:1091500047E0BBF81C3023F008031B041B0C43F052
:109160000803ABF81C302FE7BBF8183023F00803D6
:109170001B041B0C43F00803ABF8183024E7BBF8C2
:10918000183023F400631B041B0C43F40063ABF89A
:10919000183019E7BBF81C2022F008021204120C48
:1091A000ABF81C20D0E6BBF8182022F0080212040D
:1091B000120CABF81820C7E6BBF8182022F40062A6
:1091C0001204120CABF81820BEE654F8109C34F8C8
:1091D0000A1CD9F800B0BBF80C2022EA0102ABF857
:1091E0000C202A68334B22F0010221219D422A6083
:1091F000C5F80080C5F80480C5F80880C5F80C8063
:10920000C5F8108069611FD02B4B9D4200F0918101
:109210002A4B9D4200F09781294B9D4200F03983F3
:10922000284B9D4200F05D83274A954200F06783FA
:10923000264A954200F0E283254A954200F0468393
:10924000284612F049FE02E0224A3D219160BA44CC
:109250008AF8108099F805100C2910D8DFE801F081
:10926000A70F0F0F9E0F0F0FB00F0F0F0700BBF8C8
:109270001C2022F400621204120CABF81C202246BF
:10928000584608F031FC99F805300C2B2ED8DFE851
:1092900003F06F2D2D2D7A2D2D2D642D2D2D2300D6
:1092A0003F801CF0ABAAAAAA24000010C09800209E
:1092B000802D001010600240286002404060024093
:1092C000586002407060024088600240A060024026
:1092D000B860024000600240BBF81C3023F4006319
:1092E0001B041B0C43F40063ABF81C30D4E90D12D3
:1092F000236AE06B43F040030B431343226C97490E
:1093000003431343626C13434022E262A26C286859
:109310001343A26D0292626D1343029A01401343FC
:109320000B432B60D4E913316A69206B22F00702EA
:109330000B431343D4E909126B616860A960EA60CA
:109340002B6843F010032B60019B0136B34204F5F8
:1093500080743ED04FEA062A76E6BBF81C3023F034
:1093600008031B041B0C43F00803ABF81C30BDE7DB
:10937000BBF8183023F008031B041B0C43F0080350
:10938000ABF81830B2E7BBF8183023F400631B04C5
:109390001B0C43F40063ABF81830A7E7BBF81820A8
:1093A00022F400621204120CABF8182067E7BBF835
:1093B000182022F008021204120CABF818205EE705
:1093C000BBF81C2022F008021204120CABF81C207F
:1093D00055E77A68787B13685179800754BF01227A
:1093E00004228A40198C92B221EA02011984198C54
:1093F0000A431A84019B012B00F09880D7F80421BE
:1094000097F80D0113685179820754BF0122042295
:109410008A40198C92B221EA02011984198C0A43FC
:109420001A84019B022B00F08180D7F8042297F860
:109430000D0213685179860754BF012204228A4025
:10944000198C92B221EA02011984198C0A431A84F8
:10945000019B032B6AD0D7F8042397F80D031368F8
:109460005179850754BF012204228A40198C92B297
:1094700021EA02011984198C0A431A84019B042BE6
:1094800054D0D7F8042497F80D14136850798C073A
:1094900054BF01220422198C824092B221EA0201B7
:1094A0001984198C0A431A84019B052B3ED0D7F8E6
:1094B000042597F80D0513685179800754BF0122E0
:1094C00004228A40198C92B221EA02011984198C73
:1094D0000A431A84019B062B28D0D7F8042697F854
:1094E0000D1613685079890754BF01220422198C84
:1094F000824092B221EA02011984198C0A431A842B
:10950000019B072B12D0D7F8042797F80D07136893
:10951000517982074CBF042201228A40198C92B2F1
:1095200021EA02011984198C0A431A8405B0BDE8A6
:10953000F08F0B4A4FF47461916088E6084A4FF44B
:1095400074619160E2E4064A4FF4741191607EE622
:10955000034A4FF474119160D8E400BF3F801CF0BF
:10956000006002405B1A002B40F3AA810A2BD4BF93
:1095700000230123D4E91D12521A002A4FEA4303A3
:1095800040F3FB810A2A01DD43F00103D4E91F12F5
:10959000521A002A4FEA430340F3F7810A2A01DDF9
:1095A00043F00103D4E92112521A002A4FEA43037F
:1095B00040F3E7810A2A01DD43F00103D4E92312D5
:1095C000521A002A4FEA430340F3CF810A2A01DDF1
:1095D00043F00103D4E92512521A002A4FEA43034B
:1095E00040F3BF810A2A01DD43F00103D4E92712C9
:1095F000521A002A4FEA430340F3AF810A2A01DDE1
:1096000043F00103D4E92912521A002A4FEA430316
:1096100040F39F810A2A01DD43F00103D4E92B12B4
:10962000521A002A4FEA430340F38F810A2A01DDD0
:1096300043F00103D4E92D12521A002A4FEA4303E2
:1096400040F37F810A2A01DD43F00103D4E92F12A0
:10965000521A002A4FEA430340F36F810A2A01DDC0
:1096600043F00103D4E93112521A002A4FEA4303AE
:1096700040F35F810A2A01DD43F00103D4E933128C
:10968000521A002A4FEA430340F34F810A2A01DDB0
:1096900043F00103D4E93512521A002A4FEA43037A
:1096A00040F33F810A2A01DD43F00103D4E9371278
:1096B000521A002A4FEA430340F32F810A2A01DDA0
:1096C00043F00103D4E93912521A002A4FEA430346
:1096D00040F31F810A2A01DD43F0010383EA1322CC
:1096E00082EA121215077FF420ADC3F30F1324F89A
:1096F000023C24E55B1A002B40F3DC800A2BD4BF2C
:1097000000230123D4E91D12521A002A4FEA430311
:1097100040F32F810A2A01DD43F00103D4E91F122F
:10972000521A002A4FEA430340F35F810A2A01DDFF
:1097300043F00103D4E92112521A002A4FEA4303ED
:1097400040F34F810A2A01DD43F00103D4E92312DB
:10975000521A002A4FEA430340F33F810A2A01DDEF
:1097600043F00103D4E92512521A002A4FEA4303B9
:1097700040F32F810A2A01DD43F00103D4E92712C7
:10978000521A002A4FEA430340F31F810A2A01DDDF
:1097900043F00103D4E92912521A002A4FEA430385
:1097A00040F30F810A2A01DD43F00103D4E92B12B3
:1097B000521A002A4FEA430340F3FF800A2A01DDD0
:1097C00043F00103D4E92D12521A002A4FEA430351
:1097D00040F3EF800A2A01DD43F00103D4E92F12A0
:1097E000521A002A4FEA430340F3DF800A2A01DDC0
:1097F00043F00103D4E93112521A002A4FEA43031D
:1098000040F3CF800A2A01DD43F00103D4E933128B
:10981000521A002A4FEA430340F3BF800A2A01DDAF
:1098200043F00103D4E93512521A002A4FEA4303E8
:1098300040F3AF800A2A01DD43F00103D4E9371277
:10984000521A002A4FEA430360DD0A2A01DD43F081
:109850000103D4E93912521A002A4FEA430352DDB8
:109860000A2A01DD43F0010383EA132282EA12127D
:1098700011077FF4F4AA634A1278C3F30F132F2A57
:1098800024F8023C7FF4F5AA5F4A22F81630FFF76D
:10989000F0BA5E4A4FF074619160D8E45B4A4FF0D1
:1098A00074619160FFF732BB1346FFF78CBA134621
:1098B000FFF7EFBB13F1090FB4BF0023012321E72A
:1098C00013F1090FB4BF0023012353E64FF03D51BC
:1098D00042F8AC1CBBE44FF03D5142F8AC1CFFF722
:1098E00015BB4A4A4A49D160B1E4484A4849D16067
:1098F000FFF70CBB474942F87C1CFFF707BB454903
:1099000042F87C1CA3E40932AEDBABE70932A0DBF2
:109910009DE70932FFF6E2AEDEE60932FFF6D2AE8F
:10992000CEE60932FFF6C2AEBEE60932FFF6B2AEAF
:10993000AEE60932FFF6A2AE9EE60932FFF692AE1F
:109940008EE60932FFF682AE7EE60932FFF672AE8F
:109950006EE60932FFF662AE5EE60932FFF652AEFF
:109960004EE60932FFF642AE3EE60932FFF632AE6F
:109970002EE60932FFF6D2AECEE60932FFF606AE8B
:1099800002E60932FFF61AAE16E60932FFF60AAE13
:1099900006E60932FFF652AF4EE70932FFF642AF54
:1099A0003EE70932FFF632AF2EE70932FFF622AF6B
:1099B0001EE70932FFF612AF0EE70932FFF602AFDB
:1099C000FEE60932FFF6F2AEEEE60932FFF6E2AE4F
:1099D000DEE60932FFF6D2AECEE60932FFF6C2AEBF
:1099E000BEE60932FFF6B2AEAEE60932FFF6A2AE2F
:1099F0009EE6094942F8941CFFF788BA064942F8E6
:109A0000941C24E4998900209C8900200060024075
:109A10003D000020400F002000003D20037C026834
:109A20001F2B86BF203B51681168202202FA03F3E6
:109A30000B4214BF0123002303B970472DE9F047FF
:109A40004569424E2D0204460AF01CF973198046FE
:109A50001A7C002A2FD13E495A6809781768B9B98B
:109A6000596F58890A6822F001020A60BB8923EA0B
:109A70000003BB81374B1B78002B2FD1237C21683F
:109A80001F2B11D8202202FA03F38B60BDE8F08768
:109A90005269136823F001031360BB8923F48073B8
:109AA0001B041B0CBB81E5E7203B202202FA03F3D9
:109AB000CB60BDE8F0875E6F27485F8901225A744A
:109AC00031685A680368156821F001013160AA897C
:109AD000013322EA0702AA810360CFE706EB0509FA
:109AE000D9F874A0504612F087FA012305F1280135
:109AF0003846314489F8103012F0F6FB002305F1A6
:109B0000340131445046C9F8403012F049FADAF8CD
:109B10000010D9F87420D9F8040099F87030B9F819
:109B20000A50006841F01001CAF800105360116833
:109B300041F00101116083892B4383810AF0A2F86F
:109B4000064BA0EB0800186098E700BF4098002083
:109B5000D42E0010D02E0010F86200207C2D0010B2
:109B600020B10078B0FA80F04009704701207047BA
:109B700008B520214AF07FFB0346184623B102783E
:109B8000202A03F10103F8D008BD037903F018037C
:109B9000082B0AD002D82BB100207047102B14D00C
:109BA000182BF9D1B0F80B007047114BB0F80B002F
:109BB00093F90030591C06BF0E4B1B78DBB2C3EB88
:109BC000431300EB830080B270470B4BB0F80B00DF
:109BD00093F900305A1C06BF064B5B78DBB203EBEF
:109BE000430203EB820300EB430080B2704700BFE7
:109BF000790D002090950020780D0020F0B50679B1
:109C000006F06003402B09D144794FF0FF35002363
:109C1000012006F00706A3420BD1F0BD602B08BF60
:109C200045794FF001040CBF04FA05F54FF0FF35FC
:109C3000EDE7042E0CD8DFE806F0030D18242E0003
:109C400030B1C85CD75C784028420CBF01200020AE
:109C50000133E0E70028FBD0C856D756A0EB070C2D
:109C6000DCF1000040EB0C00F2E70028F0D031F806
:109C7000130032F81370784028420CBF01200020F6
:109C8000E6E70028E4D031F9130032F91370C71B5E
:109C900078427841DCE70028DAD051F8230052F806
:109CA0002370784028420CBF01200020D0E7024BEF
:109CB0000146186841F0EEB97C1E002038B5064D0B
:109CC000441E14F8011F286819B9BDE8384041F056
:109CD000D3B941F0DFF9F4E77C1E00200048EDE73E
:109CE000DFE3050808B5FFF7E9FFBDE80840F5E741
:109CF00010B504460348FFF7E1FF2046BDE81040D9
:109D0000F0E700BFC8A8050838B5074C074DAC42BE
:109D100003D3074B00221A7038BD6288D4E90101D1
:109D200048F06CFF1434F2E79001000808070008BF
:109D30004C89002038B5074C074DAC4203D3074B84
:109D400001221A7038BD6288D4E9011048F056FF2C
:109D50001434F2E790010008080700084C8900203D
:109D6000024A136823EA0000106070471CAA002012
:109D7000DFED2E7AB4EEE70AF1EE10FA4ADDDFED00
:109D80002C6A9FED2C7A01E0B0EE670AB4EEC70AA8
:109D9000F1EE10FA70EE667AF6DC9FED277AF4EEBB
:109DA000C77AF1EE10FA3ED5DFED216A9FED237AF6
:109DB00001E0F0EE407AF4EEC77AF1EE10FA37EEF9
:109DC000A60AF6D4DFED1E7AB4EEE70AF1EE10FA39
:109DD00014DDDFED167A37EEC00A60EE006A9FED03
:109DE000196A9FED197ADFED197AA6EE867A20EED0
:109DF000266AE6EE877AA6EE270A7047DFED147A28
:109E0000B4EEE70AF1EE10FA44BFDFED0B7A37EE5D
:109E1000C00AE2E79FED087AF0EE407AF4EEC77AE6
:109E2000F1EE10FAC0D4B0EE670ACBE7DB0F494081
:109E3000DB0FC940E4CB1641DB0F49C0E4CB16C1B0
:109E4000DB0FC93F92E741B99730083C15A82ABEFD
:109E5000DB0FC9BFF0EEC07AB0EEE07AB4EEE77A7D
:109E6000F1EE10FAB4BFB0EE676AB0EE476AB5EE35
:109E7000406AF1EE10FA46D0B4EEE77AF1EE10FA4D
:109E80008CBFF0EE675AF0EE475AC5EE866A9FED3A
:109E90001F3A9FED1F6A9FED1F4A9FED1F5ADFED8E
:109EA0001F3ADFED1F4ADFED1F5AA6EEC36AE6EE4A
:109EB000A34AA6EE864AB7EE006AA6EE845AA6EE3C
:109EC000A46AE6EE855AC5EE866AB4EEE77AF1EE4C
:109ED00010FA48BFDFED147AF5EEC00A48BF77EEFE
:109EE000E66AF1EE10FA48BFDFED107AB5EEC00A6F
:109EF00048BF77EEE66AF1EE10FA48BFF1EE666A07
:109F0000B0EE660A7047DFED076ADEE739094E3DBD
:109F1000E3B59E3E88FA163E45FE7F3F99FB243FFF
:109F200069A2163EA7DFA834DB0FC93FDB0F49400B
:109F3000DFED317A30EE277AFDEEC76A16EE903A01
:109F40002033402B02D99FED2D0A7047B4EEE70A6B
:109F5000F1EE10FA4DDD9FED2A6ADFED2A6A01E08D
:109F6000B0EE677AB4EEE67AF1EE10FA77EE467A62
:109F7000F6DC9FED257AF4EEC77AF1EE10FA35D5CE
:109F8000DFED1F6A9FED217A01E0F0EE407AF4EEFA
:109F9000C77AF1EE10FA37EEA60AF6D4DFED167A9C
:109FA000B4EEE70AF1EE10FA1BDCDFED197AB4EE3D
:109FB000E70AF1EE10FA44BFDFED137A37EEC00A7C
:109FC00060EE006A9FED136A9FED137ADFED137A5E
:109FD000A6EE867A20EE266AE6EE877AA6EE270AB5
:109FE0007047DFED0F7A37EEC00AE9E7B0EE670A97
:109FF000D4E7F0EE477ABCE7DB0FC93F0000000072
:10A00000DB0FC940E4CB1641DB0F49C0E4CB16C1DE
:10A01000DB0FC9BF92E741B99730083C15A82ABEAB
:10A02000DB0F4940FDEEC07A17EE903A2033402B0B
:10A0300045D8DFED2D7AB4EEE70AF1EE10FA4DDDEA
:10A04000DFED2A6A9FED2A7A01E0B0EE670AB4EEEE
:10A05000C70AF1EE10FA70EE667AF6DC9FED257A0B
:10A06000F4EEC77AF1EE10FA3BD5DFED206A9FEDF2
:10A07000227A01E0F0EE407AF4EEC77AF1EE10FABF
:10A0800037EEA60AF6D4DFED1D7AB4EEE70AF1EE5C
:10A0900010FA17DDDFED147A37EEC00A60EE006AC1
:10A0A0009FED176A9FED177ADFED177AA6EE867A95
:10A0B00020EE266AE6EE877AA6EE270A70479FED25
:10A0C000130A7047DFED127AB4EEE70AF1EE10FAE8
:10A0D00044BFDFED087A37EEC00ADFE7F0EE407AE2
:10A0E000BCE7B0EE670ACEE7DB0F4940DB0FC940A3
:10A0F000E4CB1641DB0F49C0E4CB16C1DB0FC93FEF
:10A1000092E741B99730083C15A82ABE000000002C
:10A11000DB0FC9BF10B44C09012250F8243001F004
:10A120001F0102FA01F123EA010340F824305DF82F
:10A13000044B704710B44C09012250F8243001F050
:10A140001F0102FA01F10B4340F824305DF8044B83
:10A15000704700BF4B0901F01F0150F82320012375
:10A1600003FA01F1114214BF18460020704700BFE6
:10A170002DE9F043002489B006460D461F46A0464F
:10A1800005E025290CD030460134A847039A531C1A
:10A19000039311780029F4D1204609B0BDE8F0837B
:10A1A000931CCDE903385078302842D0A0F1300319
:10A1B000DBB2092B4FF0000945D96C282AD064285E
:10A1C00073D019D9732858D063D9752840F082808C
:10A1D00007F1040C386805AB00220A216746FEF738
:10A1E0003FF805AB049A009329464B463046FDF7ED
:10A1F0000DFF039A0444CAE725283CD051D95828BA
:10A200006BD06328C2D139783046A847043701346F
:10A21000039ABCE7039B5A1C03921B78642B52D011
:10A2200016D8252B27D064D9582B18D0632BEAD009
:10A23000ADE7D31C03939078A0F13003DBB2092B78
:10A240004FF00109B9D804AA03A944F0C1FDB4E74D
:10A25000732B12D051D9752B2DD0782B97D1A3F118
:10A260005802B2FA82F23868520905AB102104375D
:10A27000FDF7F6FFB5E7252185E73B68049A0093D3
:10A28000294600233046FDF7C1FE04370444039AF3
:10A290007DE76E287FF47AAF039A3B6804371C6031
:10A2A00075E700283FF478AF70E7386805A9FDF737
:10A2B000A1FF043795E7386805AB00220A21FDF7B6
:10A2C000CFFF04378DE73B1D386805A91F46FDF712
:10A2D00091FF86E778287FF459AFA0F15802B2FACF
:10A2E00082F23868520905AB1021FDF7B9FF043737
:10A2F00077E7002B3FF450AF49E76E2BCDD046E710
:10A3000010B5064C0B46024605492068FFF730FFA2
:10A310002068BDE8104040F0AFBE00BF7C1E0020AA
:10A32000E989000838B504460D460848FFF7C6FC21
:10A3300029462046FFF7E4FF0548FFF7BFFC054B21
:10A340001B7813B1044B01221A7038BDCDA8050843
:10A35000D8A80508D81F0020D91F00200FB407B5C2
:10A3600004A951F8040B0191FFF7DCFFFFF7B6FCDD
:10A3700003B05DF804EB04B0704713460A4601468B
:10A380000048EBE7DCA805080048E7E7F5A8050862
:10A390000FB407B504A951F8040B0191FFF7C2FFF0
:10A3A00003B05DF804EB04B070470FB407B504A91F
:10A3B00051F8040B0191FFF7A3FFFFF78FFC03B0E7
:10A3C0005DF804EB04B070470FB407B504A951F869
:10A3D000040B0191FFF794FF03B05DF804EB04B0A8
:10A3E00070472DE9F843037903F06001202928D054
:10A3F00002D849B1BDE8F883402945D06029F9D198
:10A400002448BDE8F843D0E703F00703022B02D04D
:10A41000042B08D06BB9B0F80720B0F805101E481F
:10A42000BDE8F843C1E7D0F805201B48BDE8F84374
:10A43000BBE7B0F90720B0F905101748BDE8F843AD
:10A44000B3E74579154E1648FFF738FC06EBC50211
:10A45000002492F804800123A04502D8BDE8F84307
:10A460003CE456F8357057F824204FEA84094AB185
:10A4700013B90C48FFF722FC57F809100A48FFF7F8
:10A48000A3FF00230134E7E741790848BDE8F8431A
:10A490008BE700BF3DA9050801A90508E47505087B
:10A4A00018A9050829A90508C1D605082CA9050879
:10A4B0002DE9F0411746027902F06003402B054672
:10A4C0000C462BD10026524FDFF8608115E02B7926
:10A4D00003F00703022B15D0032B19D0012B14BF57
:10A4E000A15DA1573846FFF76FFF6B79013BB3427F
:10A4F00002DD4046FFF7E2FB01366B79B342E6DC52
:10A50000BDE8F08134F816103846FFF75DFFECE740
:10A5100034F916103846FFF757FFE6E702F0070256
:10A52000042A67D8DFE802F0031E27292C002478CC
:10A53000202B3CD0602B49D0002BE1D1B5F8056031
:10A54000B5F8078032482146FFF73EFFA64249DCB6
:10A55000A04547DB002FD3D0424631462D48BDE809
:10A56000F04131E794F90040202B20D0602B2DD012
:10A57000002BC5D146E02488DAE7B4F90040F3E7C0
:10A580002668202B344612D0602B1FD0002BB7D169
:10A5900031461F48FFF718FFD5F805108E4221D825
:10A5A000002FADD01C48BDE8F0410DE700246A79CA
:10A5B0001A4B03EBC2010979A14213DD53F8323083
:10A5C00053F82400BDE8F041FFF778BB6A791441E5
:10A5D000E30703D51248BDE8F041F5E61148BDE8B0
:10A5E000F041F1E6FFF77AFB224629680E48BDE804
:10A5F000F041CDE6202BD9D0602BEFD0002B7FF49B
:10A600007FAF1C46B5F90560B5F907809AE700BF32
:10A6100015A90508F0D6050857A90508E475050829
:10A6200052A90508E5D205085DA9050855A9050840
:10A630000CB407B510F020000BD079B92320FFF738
:10A6400036FB05A904980191FFF75AFEFFF746FB78
:10A65000012003B05DF804EB02B070470020F8E77A
:10A660000CB4C30607B500D561B905A904980191DA
:10A67000FFF746FEFFF732FB012003B05DF804EB65
:10A6800002B070470020F8E70EB400B584B005AB07
:10A69000019053F8042B0649039301A8FFF768FDC6
:10A6A000019B00221A7004B05DF804EB03B0704700
:10A6B0000180000870B406688E4217D90139751EF2
:10A6C000002311F8014F0822634013F0800F4FEA76
:10A6D000430318BF83F0D503013ADBB2F5D18D42B5
:10A6E000EFD1721C0260337070BC7047721C002383
:10A6F0000260337070BC70470A44914215D010B4A8
:10A700000139541E11F8012F0823504010F0800F1A
:10A710004FEA400018BF80F0D500013BC0B2F5D130
:10A72000A142EFD15DF8044B7047704748400823C1
:10A7300010F0800F4FEA400018BF80F0D500013BB9
:10A74000C0B2F5D1704700BF0A44914215D030B471
:10A750000139551E41F2210211F8014F082380EA08
:10A76000042004044CBF82EA40004000013B80B258
:10A77000F7D18D42F0D130BC7047704770B50222DE
:10A780001349144C144E4FF6FF70FFF7DDFF22887B
:10A790004AB1A518B54218D2052A16D92146FFF7A5
:10A7A000D3FF2C46F3E721460222FFF7CDFF02221A
:10A7B000A118FFF7C9FF094BE41A094B1C8041F6A9
:10A7C0000F53C31A5842584170BD0020FCE700BF28
:10A7D000004000080240000800800008FA3F00081E
:10A7E000508900200F4B2DE93048D3E9004554EA49
:10A7F00005020AD1034640F2011200201880988019
:10A8000098715A801881BDE83088074B1A6814EB9C
:10A81000020B45F1000C5A466346FDF733FC01205C
:10A82000BDE83088B8800020B48B002030B40388A5
:10A830008278C478154DA3F5FA6303F0030101EBA8
:10A840004101013A02EB81029B0835F8125002796E
:10A85000611E40F2B55404FB03132B4403EB430386
:10A8600002EBC3034279847909490089C3EB0313DE
:10A8700002EB83032144C3EB031301EB83034FF487
:10A880007A720021C2FB030130BC7047F042050818
:10A8900080436D382DE9F04707468CB01E4692463E
:10A8A000002A5CD1154614460A88B2F5FA6F36D3F1
:10A8B0008B78581E0B2832D891F803C00CF1FF306A
:10A8C0001E282CD891F804E0BEF1170F27D891F874
:10A8D0000590B9F13B0F22D888793B281FD8B1F8F1
:10A8E0000880B8F57A7F1AD24FF001085EBB09895B
:10A8F0000491002CB4BF2D212B21002CB8BF644241
:10A90000CDE90290CDE905140795CDE900CE384692
:10A910002A49FFF7B9FE40460CB0BDE8F087002396
:10A920002749ADF828304FF0010C18468DF82A3031
:10A93000ADF82C3099469E461A46984609916346D2
:10A9400009A9002ED3D0CDE90290CDE900CE38463A
:10A950001C49FFF799FE40460CB0BDE8F0871A4C41
:10A9600084FB0234A318D417C4EB6314C4EB04159E
:10A97000A2EB85052DB2002D0846B8BF6D42FFF74A
:10A9800055FF4FF47A7200238046894647F09CFEBB
:10A990003C230AFB030A4FF47A72002340464946DF
:10A9A00047F092FE4FF47A7192B20023C1FB0A2362
:10A9B00009A8FDF767FB24B209A975E7B8A905083E
:10A9C0000000010198A90508898888880378202B50
:10A9D000024600F10100F9D0092BF7D02D2B00F031
:10A9E000A4802B2B03BF5378B7EE000A0246B7EEC4
:10A9F000000AA3F13001C8B209289FED577A10D898
:10AA0000F2EE046A07EE901AF8EEE77A12F8013FC8
:10AA1000E7EE267AA3F13001C8B20928B0EE677AD2
:10AA2000F0D92E2B63D003F0DF03452B02D020EEAC
:10AA3000070A704710B451782D294FD02B2979D0AF
:10AA4000A1F13003092B02F101027AD8002400237E
:10AA500003EB830301EB430312F8011FA1F1300064
:10AA60000928A3F13003F3D9B3F59A7F1A4628BF1A
:10AA70004FF49A72072B6CD9DFED386A1346F7EE64
:10AA8000007A083B072B67EEA67AFAD802F0070295
:10AA9000DAB1F2EE046A012A67EEA67A15D0022A2C
:10AAA00067EEA67A11D0032A67EEA67A0DD0042AA3
:10AAB00067EEA67A09D0052A67EEA67A05D067EE7A
:10AAC000A67A062A18BF67EEA67A002C3BD087EE3E
:10AAD000277A5DF8044B20EE070A70479178A1F1C0
:10AAE0003003092B02F1020230D80124AFE753787A
:10AAF000A3F13001C8B2092802F1010293D8F2EEA5
:10AB0000046AF0EE665A07EE901AF8EEE77A12F849
:10AB1000013F87EEA66AA3F13001C8B2092866EEAC
:10AB2000A56A37EE067AEED97DE75378BFEE000AC4
:10AB300002465EE79178A1F13003092B02F102028F
:10AB400084D9F7EE007A27EE277AC2E7F7EE007A8B
:10AB5000BDE7F7EE007A9BE70000000020BCBE4C8A
:10AB6000B5EEC00ADFED317AF1EE10FACCBF30EE6F
:10AB7000270A30EE670ADFED2E7A20EE270A30B57D
:10AB8000FDEEC07A87B017EE904A054684EAE4707D
:10AB9000002303A9A0EBE470CDE90033029345F054
:10ABA000A3FF002CACBF20232D2303A88DF8003079
:10ABB00047F094F8012803A924D002282DD00328B7
:10ABC00005BF3023684668468DF8013049F044FBE4
:10ABD000684647F083F80338C4B2224669462846DF
:10ABE00049F070FB00232B55284647F077F82E22BA
:10ABF000431C2A540DEB0401E81849F049FB284690
:10AC000007B030BD302368468DF801308DF8023032
:10AC10008DF8033049F020FBDAE7302368468DF8E1
:10AC200001308DF8023049F017FBD1E76F12033A7B
:10AC300000007A44F8B5064615460846B6FBF2F41D
:10AC400034B905FB14640C4B1B5D00F8013BF8BDE7
:10AC5000B4FBF2F75FB905FB1747074B05FB14641C
:10AC6000DA5D00F8012B1B5D00F8013BF8BD3846AA
:10AC7000FFF7E0FFEFE700BFE8A9050802B370B4F3
:10AC80008E1803E0121B14D1B14215D010F8012B1D
:10AC9000A2F14103192B11F8013BA3F1410598BF23
:10ACA0002032192D03F12004ECD9D21A01D1002B46
:10ACB000EAD1104670BC70470022104670BC704745
:10ACC0001046704770B5044608460D4647F006F832
:10ACD000064602E014F8013F43B1324629462046B9
:10ACE000FFF7CCFF0028F5D1204670BD1C4620465A
:10ACF00070BD00BF4FF0FF32FFF7C0BFA0F161038E
:10AD0000192B98BF20387047A0F14103192B98BF29
:10AD100020307047202805D0093804288CBF002037
:10AD200001207047012070472DE9F0411F4606467B
:10AD300003461C782046FFF7EDFF1D46013300282F
:10AD4000F7D12B2C51D02D2C24D0102A804628D07E
:10AD50004FF0FF33B3FBF2F302FB03FC6FEA0C0C82
:10AD60005FFA8CFC013500200BE0303CE4B29442E9
:10AD700025DA98422E461DD81AD002FB004015F85D
:10AD8000014B392CF1D944F02004602C17D9573CE1
:10AD9000E4B2ECE74FF00108102A6C7805F10105E8
:10ADA000D6D1302C23D06FF070434FF00F0CD9E781
:10ADB0006445E2D907EA08084FF0FF30DFE701B148
:10ADC0000E60B8F1000F08D027B1B0F1004F28BFD6
:10ADD0004FF000404042BDE8F081002FFBD06FF003
:10ADE0000043984228BF1846F5E78046D4E76C78C0
:10ADF0002046FFF789FF782805F1010605D0354682
:10AE00006FF070434FF00F0CACE7AC786FF070430D
:10AE100002354FF00F0CA5E701230A22002183E73A
:10AE200070B50D461446FEF7A3FE0646A0B1FFF727
:10AE3000F3FF40F634039842A8BF1846B0F5617F8F
:10AE4000B8BF4FF461701923A0F5617090FBF3F067
:10AE500028702378013323703046FEF789FE0646BA
:10AE6000A0B1FFF7D9FF40F634039842A8BF1846B7
:10AE7000B0F5617FB8BF4FF461701923A0F5617020
:10AE800090FBF3F06870237801332370304670BD77
:10AE9000613819288CBF00200120704741381928DB
:10AEA0008CBF002001207047303809288CBF00205B
:10AEB00001207047A0F13003092B07D920F02000B2
:10AEC000413819288CBF00200120704701207047AD
:10AED00007EE901AF8EE677A9FED807A27EE800AE7
:10AEE00020EE070AFDEEC07A17EE903A2033402B91
:10AEF0007BD8DFED7B7AB4EEE70AF1EE10FA40F38F
:10AF0000E180B0EE407A9FED776ADFED776A01E08D
:10AF1000B0EE677AB4EEE67AF1EE10FA77EE467AA2
:10AF2000F6DC9FED727AF4EEC77AF1EE10FA40F19A
:10AF3000CC809FED6C6ADFED6E6A01E0F0EE477A3F
:10AF4000F4EEE67AF1EE10FA37EE867AF6D4DFED1B
:10AF5000697AB4EEE77AF1EE10FA40F3A280DFED01
:10AF6000607A37EEC77A27EE076ADFED635ADFEDC6
:10AF7000637ADFED636A9FED635AE6EE257A67EE4A
:10AF8000065AE6EE276AF7EE007AA5EEA67AF0EE0C
:10AF9000675AE7EE055AE7EE457A87EEA55ADFEDE8
:10AFA000557A30EE277AFDEEC76A16EE903A2033D6
:10AFB000402B1FD99FED547AF6EE006AB7EE006A77
:10AFC000F7EE004AC4EEA57A80ED045A67EEA66A51
:10AFD00027EE866A27EE877AC0ED006AC0ED026A26
:10AFE00080ED016A80ED037A7047B7EE005AF0EE0B
:10AFF000455AD4E7B4EEE70AF1EE10FA6BDD9FEDA7
:10B00000396ADFED396A01E0B0EE677AB4EEE67ACC
:10B01000F1EE10FA77EE467AF6DC9FED347AF4EE34
:10B02000C77AF1EE10FA53D59FED2E6ADFED306A44
:10B0300001E0F0EE477AF4EEE67AF1EE10FA37EE40
:10B04000867AF6D4DFED2B7AB4EEE77AF1EE10FAD9
:10B0500033DCDFED2E7AB4EEE77AF1EE10FA44BF7E
:10B06000DFED227A37EEC77A27EE076ADFED224A54
:10B07000DFED226ADFED227AE6EE246A67EE064A09
:10B08000E6EE267AB7EE006AA4EEA77AF6EE006A3C
:10B0900036EE476AF8EE007A27EE277A66EE266AE1
:10B0A0008EE7DFED1A7AB4EEE77AF1EE10FA44BFDC
:10B0B000DFED0E7A37EEC77A55E7DFED097A37EE26
:10B0C000C77AD1E7F0EE407A2BE7B0EE677A3EE739
:10B0D000B0EE677AB6E7F0EE477A9EE727D4D2362D
:10B0E000DB0F4940DB0FC940E4CB1641DB0F49C001
:10B0F000E4CB16C1DB0FC93F92E741B99730083C5A
:10B1000015A82ABEF304353F00000000DB0FC9BFBD
:10B1100007EE901AF8EE677A9FED837A27EE800AA1
:10B1200020EE070AFDEEC07A17EE903A2033402B4E
:10B1300000F28180DFED7D7AB4EEE70AF1EE10FADD
:10B1400040F3E680B0EE407A9FED796ADFED796AF0
:10B1500001E0B0EE677AB4EEE67AF1EE10FA77EE3F
:10B16000467AF6DC9FED747AF4EEC77AF1EE10FAC7
:10B1700040F1D1809FED6E6ADFED706A01E0F0EE84
:10B18000477AF4EEE67AF1EE10FA37EE867AF6D4E4
:10B19000DFED6B7AB4EEE77AF1EE10FA40F3A780B8
:10B1A000DFED627A37EEC77A27EE076ADFED655A80
:10B1B000DFED657ADFED656A9FED655AE6EE257A8B
:10B1C00067EE065AE6EE276AF7EE007AA5EEA67A53
:10B1D000F0EE675AE7EE055AE7EE457A87EEA55A94
:10B1E000DFED577A30EE277AFDEEC76A16EE903A19
:10B1F0002033402B24D99FED577AF6EE006AB7EE44
:10B20000006AF7EE004AC4EEA57A00238361436129
:10B210000362C36180ED045A67EEA66A27EE866A70
:10B2200027EE877AC0ED006AC0ED026A80ED016A00
:10B2300080ED037A7047B7EE005AF0EE455ACFE73B
:10B24000B4EEE70AF1EE10FA6BDD9FED396ADFED3F
:10B25000396A01E0B0EE677AB4EEE67AF1EE10FA00
:10B2600077EE467AF6DC9FED347AF4EEC77AF1EEAB
:10B2700010FA53D59FED2E6ADFED306A01E0F0EE53
:10B28000477AF4EEE67AF1EE10FA37EE867AF6D4E3
:10B29000DFED2B7AB4EEE77AF1EE10FA33DCDFED76
:10B2A0002E7AB4EEE77AF1EE10FA44BFDFED227A9F
:10B2B00037EEC77A27EE076ADFED224ADFED226A12
:10B2C000DFED227AE6EE246A67EE064AE6EE267A9B
:10B2D000B7EE006AA4EEA77AF6EE006A36EE476A89
:10B2E000F8EE007A27EE277A66EE266A89E7DFED28
:10B2F0001A7AB4EEE77AF1EE10FA44BFDFED0E7A77
:10B3000037EEC77A50E7DFED097A37EEC77AD1E733
:10B31000F0EE407A26E7B0EE677A39E7B0EE677A6A
:10B32000B6E7F0EE477A9EE727D4D236DB0F4940E6
:10B33000DB0FC940E4CB1641DB0F49C0E4CB16C19B
:10B34000DB0FC93F92E741B99730083C15A82ABEE8
:10B35000F304353F00000000DB0FC9BF30B40268C2
:10B360001146531C036011F8024B0160D31C517845
:10B3700003609378151D05601B0443EA0123D07810
:10B38000234343EA006030BC704700BF0368591C88
:10B390001A46016012F8021B0260587841EA002048
:10B3A000704700BF03685A1C02601878704700BFDE
:10B3B00070B5044608460E4646F090FC31460546F8
:10B3C0000246206847F01AFC20682844206070BDBF
:10B3D00038B504460068154647F010FC22682A4438
:10B3E000226038BD036810B40A0E5C1C04601A7039
:10B3F00003680A0C5C1C04601A7003680A0A5C1C6F
:10B4000004601A7003685A1C026019705DF8044BDE
:10B41000704700BF036810B40A0A5C1C04601A700D
:10B4200003685A1C026019705DF8044B704700BF36
:10B4300003685A1C026010B4197003680A0A5C1C85
:10B4400004601A7003680A0C5C1C04601A700368BC
:10B45000090E5A1C026019705DF8044B704700BF5A
:10B4600003685A1C026019700368090A5A1C0260BA
:10B470001970704770B544880546C4F30B04224622
:10B480000846002148F0E0FE2969094A9142034636
:10B4900002D3084A914204D341B11846BDE8704036
:10B4A00008472246BDE8704047F0A8BB70BD00BF0A
:10B4B000080700085008000838B5064C064DAC4295
:10B4C00006D2616820461434FFF7D4FFAC42F8D3AB
:10B4D00038BD00BF9001000808070008084B094963
:10B4E0008B4203D309E014338B4206D21A88C2F38D
:10B4F0000B029042F7D11846704700231846704758
:10B5000090010008080700082DE9F74FDFF8C0B0E8
:10B5100081468A460025D8462A4B0D2418686C437C
:10B520003FF0AAFD04EB0B031B7903F018034B4516
:10B5300004D0B9F1000F3ED1182B3CD10D2303FBF1
:10B5400005820093B2F80900FFF7C8FF444407469C
:10B550002046FEF71AFBD7E90121064602440144C2
:10B560002046FEF74BFB1AF0100F0246009B00D05E
:10B5700008BB03FB05831AF0200F1B680FD072B9BC
:10B580001946114800930192FEF71EFF7968019A4F
:10B5900031442046FEF78CFFFEF7A0FB009B0B48D2
:10B5A0001946FEF711FFB968002231442046FEF724
:10B5B0007FFFFEF793FB0135B5F5EE7FACD103B00D
:10B5C000BDE8F08F7C1E002077A9050878A9050842
:10B5D000807B050870B50546B0F80900FFF77EFFCF
:10B5E000064B1E7804462846FEF7CFFA16B1A3682C
:10B5F000184470BD63681844FBE700BF4C89002005
:10B6000038B505460C46FFF7E5FF2A7902F0070337
:10B6100002F06002602A28D1022B0ED0042B18D031
:10B620003BB96A7901239340DBB2027814B113432A
:10B63000037038BD22EA0303FAE76A7901239340D5
:10B640009BB2028814B113430380F2E722EA03039A
:10B65000FAE76A79012303FA02F2036814B113438B
:10B660000360E6E723EA0203FAE7042BE1D8DFE808
:10B6700003F00303050507000470DAE70480D8E748
:10B680000460D6E738B50D460446FFF7A3FF2A4607
:10B6900001462046BDE83840FEF70ABF70B41A4B99
:10B6A0001B78032B21D0022B07D0042B24D0052B91
:10B6B00003D0164B00221A7102E0154B2E221A708D
:10B6C000144B1E2003F5BA762D251421322228248E
:10B6D00018725D7299729873DA7319741C755A75C1
:10B6E0007C33B342F4D170BC704709490A4B2E2019
:10B6F000002208705A71E3E705480849034A00230D
:10B7000083808B701371DBE730730020088C00207E
:10B710008468002078550020787E0020283300209F
:10B7200070B53D203EF09EFF044618B11122012362
:10B730008271C371202120463FF010F93E203EF077
:10B7400091FF054618B1112201238271C371202196
:10B7500028463FF003F93F203EF084FF064618B12B
:10B76000112201238271C371202130463FF0F6F887
:10B770000A2008F0D9FA20463FF0A0F918B9284667
:10B780003FF09CF9E0B920463FF098F918B12846FF
:10B790003FF094F9D8B120463FF090F938B13046E7
:10B7A0003FF08CF90C4B78B101221A7070BD28461D
:10B7B0003FF084F90028F2D1074B03221A7070BDC4
:10B7C000054B04221A7070BD05221A7070BD024B21
:10B7D00002221A7070BD00BF307300202DE9F84FAF
:10B7E000DFF8C88298F8003003B1FEE7A94FAA4AF3
:10B7F0007B6812881C88A94E24F04004240401258B
:10B80000240C88F800501C801D8825F038052D0474
:10B81000B3424FEA154500F0DD81A14CA34200F090
:10B82000D981B2F5807FA8BF4FF48072022AB8BFD9
:10B830000222002A92FAA2F2B2FA82F208BF4FF074
:10B84000FF32013A45EAC20292B21A801C88BA68F5
:10B8500044F040041C8012B1146892886283914ABB
:10B860008B46998901211170044640F2E93202E0C9
:10B87000002A00F0B1811989013A11F0020F92B249
:10B88000F6D000229A8140F2E93202E0002A00F06C
:10B89000A3811989013A11F0010F92B2F6D09A8969
:10B8A0009A8940F2E93202E0002A00F0AE8119895B
:10B8B000013A11F0020F92B2F6D000229A8140F2C2
:10B8C000E93202E0002A00F0A0811989013A11F062
:10B8D000010F92B2F6D09A899A8940F2E93202E0D9
:10B8E000002A00F08D811989013A11F0020F92B2FD
:10B8F000F6D009229A8140F2E93202E0002A00F0F3
:10B900007F811989013A11F0010F92B2F6D09A891C
:10B910009A8940F2E93202E0002A00F06C8119892C
:10B92000013A11F0020F92B2F6D0A4B29C8140F21B
:10B93000E93202E0002A00F05E811989013A11F033
:10B94000010F92B2F6D09A89574E0BF1FF3B0025BA
:10B950004FF00A0A4FF00B099A8940F2E93202E0EF
:10B96000002A00F018811989013A11F0020F92B2F1
:10B97000F6D0A3F80CA040F2E93202E0002A00F071
:10B980000A811989013A11F0010F92B2F6D09A8911
:10B990009A8940F2E93202E0002A00F00681198912
:10B9A000013A11F0020F92B2F6D0AAB29A8140F297
:10B9B000E93202E0002A00F0F8801989013A11F01A
:10B9C000010F92B2F6D09A899A891BF8014F40F282
:10B9D000E93202E0002A00F0ED801989013A11F005
:10B9E000020F92B2F6D0A3F80C9040F2E93202E0D6
:10B9F000002A00F0DF801989013A11F0010F92B29C
:10BA0000F6D09A899A8940F2E93202E0002A00F0E1
:10BA1000C7801989013A11F0020F92B2F6D0A4B290
:10BA20009C8140F2E93202E0002A00F0B9801989D5
:10BA3000013A11F0010F92B2F6D09A89326832B110
:10BA4000116892884869024214BF4A830A8301350B
:10BA5000362D81D19A8940F2E93202E0002A00F0C5
:10BA6000C5801989013A11F0020F92B2F6D008226E
:10BA70009A8140F2E93202E0002A00F0B780198989
:10BA8000013A11F0010F92B2F6D09A899A8940F2E8
:10BA9000E93210E058890020C80D0020003800402D
:10BAA000003C00403E5B0020808B00203D5B00207E
:10BAB000002A00F096801989013A11F0020F92B223
:10BAC000F6D0A0229A8140F2E93202E0002A00F08A
:10BAD00088801989013A11F0010F92B2F6D09A8943
:10BAE000A02500249A8940F2E93201E0002A66D0BC
:10BAF0001989013A11F0020F92B2F7D09D8140F2FC
:10BB0000E93201E0002A5AD01989013A11F0010FF7
:10BB100092B2F7D09A899A8940F2E93201E0002A7C
:10BB200052D01989013A11F0020F92B2F7D09C81DC
:10BB300040F2E93201E0002A46D01989013A11F0B9
:10BB4000010F92B2F7D09889C0B28206CAD4BA68FF
:10BB500012B1116892880A831A882E4922F0400295
:10BB60001204120C1A801A8822F0380212048B4236
:10BB70004FEA124205D001F580618B4218BF42F0B6
:10BB800008021A801A88002142F040021A8088F8C0
:10BB90000010BDE8F88F18463FF052FA7B68F7E6D0
:10BBA00018463FF04DFA7B6848E718463FF048FAE0
:10BBB0007B6809E718463FF043FA7B6822E718469E
:10BBC0003FF03EFA7B68A6E718463FF039FA7B68FB
:10BBD000C0B2BAE7520824E618463FF031FA7B6853
:10BBE0005EE618463FF02CFA7B6879E718463FF08E
:10BBF00027FA7B684AE718463FF022FA7B68A3E6FB
:10BC000018463FF01DFA7B6882E618463FF018FAA6
:10BC10007B6861E6003800400388174A23F0400340
:10BC20001B041B0C0380038823F038031B04904281
:10BC30004FEA13431DD002F58062904219D0B1F54E
:10BC4000807FA8BF4FF480710229B8BF022100296C
:10BC500091FAA1F1B1FA81F108BF4FF0FF3101393A
:10BC600043EAC10189B20180038843F040030380A5
:10BC700070474908E3E700BF003800402DE9F04F66
:10BC800083B00346009090F86100002840F04E8792
:10BC9000009C4FF480716069FFF7BEFFA36913B188
:10BCA0001A689B885383009B586940F2E933828964
:10BCB00002E0002B00F068870289013B12F0020FBE
:10BCC0009BB2F6D06B23838140F2E93302E0002B74
:10BCD00000F05A870289013B12F0010F9BB2F6D0A7
:10BCE0008389838940F2E93302E0002B00F0588712
:10BCF0000289013B12F0020F9BB2F6D080238381B0
:10BD000040F2E93302E0002B00F04A870289013B50
:10BD100012F0010F9BB2F6D08389009B9B6913B18F
:10BD20001A689B8813836423904C914EDFF84CE291
:10BD30009048DFF84C82904F01934FF01009DEF8E5
:10BD40000430C3F30803002B40F0E185EFF31183C7
:10BD5000002B40F0DC852568826823689D42FAD17B
:10BD60003B689A42F7D8D6F800C04FF47A7101FBCD
:10BD70000CF39B1AB3FBFCF301FB05354FF47A7C03
:10BD80004FF0010ADEF80430C3F30803002B40F043
:10BD90009F85EFF31183002B40F09A85236881681B
:10BDA00022689342FAD13A689142F7D832680CFB84
:10BDB00002FBABEB0101B1FBF2F10CFB03135B1BCC
:10BDC000B3F57A7FDED3019B013B0193B7D1009B92
:10BDD0009B6913B11A689B885383009B586940F292
