:020000040800F2
:10000000F0FF00106D370508FDAA0108DD7001083A
:100010000D3805080D3805080D38050800000000EA
:1000200000000000000000000000000009AB010813
:1000300005AB01080000000001AB01084171010897
:100040000D3805080D3805080D3805080D38050868
:100050000D3805080D3805086DAA040899AB040889
:100060005DAB040821AB0408E5AA040805F7000805
:10007000F5F60008E5F60008D5F60008C1F6000818
:10008000ADF6000899F600080D3805080D3805088A
:100090000D3805080D3805080D380508A9AA04080B
:1000A00089280108252E0108B9270108F52E010825
:1000B000652D0108A52C0108D92B0108DD070108D1
:1000C000E5070108D1070108D90701080D3805081F
:1000D0000D380508957F0108F97E01085D7E01084D
:1000E00033AA04080D380508FDF40108E9260108C3
:1000F0005929010819260108392A010885F600083E
:100100000D3805080D380508092B01080D380508BC
:10011000C17D0108257D010859470308E145030811
:1001200071F600085DF6000849F6000835F600088B
:1001300021F600080D3805080D3805080D380508AA
:100140000D3805080D3805080D380508C5C5010826
:100150000DF60008F9F50008E5F500080D3805086A
:10016000C5070108CD0701080D3805080D38050839
:100170000D3805080D3805080D3805080D38050837
:080180000D3805080D380508D3
:08018800143305000100000022
:1001900010020100102000200C20002000000000B0
:1001A000300700081F021000242000201420002027
:1001B000000000006D8500081A023C00604000202D
:1001C000EC44002000000000718E000827000400AD
:1001D0005C40002028450020000000003207000895
:1001E00026100C0044600020386000200000000051
:1001F000F99501080B301800BC5700207C600020E6
:1002000000000000380700081F302400F84E0020CE
:100210009460002000000000500700080502040060
:10022000785A0020B8600020000000007407000821
:1002300003010A00204F0020BC60002000000000E5
:1002400078070008130204005C4D0020C8600020FD
:100250000000000082070008281010004C7B0020DE
:100260003C7B002000000000E5FE01081C0210009D
:100270007C7700205C7B002000000000B183000838
:1002800020320A00787B00206C7B002000000000F8
:100290006DFE010814000300E07A0020847B00203A
:1002A000000000008607000801200800A07300205D
:1002B000887B0020000000008A0700080A702800E0
:1002C0001C730020907B0020000000008DFE0108C0
:1002D0000EA07401A8710020B87B0020000000006F
:1002E00075D50308010104000C7100202C7D00204D
:1002F0000000000000000000000104000471002064
:10030000307D002000000000920700080201030079
:1003100000710020347D002000000000718F020871
:1003200007020200D07E0020187F0020000000009D
:1003300098070008F6210C000C7E00201C7F00208E
:10034000000000009C07000802000C00B87D00209F
:10035000287F0020000000000000000006020C00C2
:10036000A87E0020347F002000000000018F0008DC
:1003700008120F00287E0020407F002000000000AF
:10038000FD840008F7010600207E0020507F002039
:1003900000000000A80700080A020A003C870020AD
:1003A000848900200000000069F8020803000100B1
:1003B00064820020908900200000000000000000FE
:1003C00003123300508900209489002000000000AF
:1003D000AE07000825102C0170870020C889002076
:1003E000000000000000000010100200AC8100209E
:1003F000F48A002000000000E20700080C109C00B6
:1004000018930020A4A1002000000000458F0208DE
:1004100001020500F892002040A200200000000028
:10042000197C030800020500F092002048A2002079
:1004300000000000000000001B021000DC92002001
:1004400050A2002000000000D98300081E00060012
:100450004890002060A2002000000000E40700088F
:100460001B100C00188D002068A200200000000066
:100470001D9103082102F000988B002074A2002037
:1004800000000000358603080510060030940020A7
:1004900064A3002000000000EA07000837102400D1
:1004A000789200206CA3002000000000F0070008F4
:1004B0000E0202001894002090A30020000000000B
:1004C0001408000816100600FC8A002094A30020DF
:1004D00000000000160800082F10220080A1002054
:1004E0009CA30020000000001C08000823100E0040
:1004F0008C8F0020C0A3002000000000FDFE01083A
:10050000F5518C00048B0020D0A3002000000000D7
:10051000B9BE03081A000E0054AC00207CAC0020C9
:10052000000000003E0800081900050098AB0020FC
:100530008CAC0020000000004C080008F8210600E8
:1005400008AA002094AC0020000000005208000817
:1005500015007000F8A700209CAC002000000000EF
:10056000000000002A006000F4AB00200CAD002069
:10057000000000004DD503082C0010007CAD0020C9
:100580006CAD00200000000045D403082B002400BF
:10059000B0AD00208CAD00200000000015D4030891
:1005A00029207800E8A50020D4AD0020000000003C
:1005B000000000000D004400ACD9002068DA0020E3
:1005C00000000000710B010809020100C4D80020DE
:1005D000ACDA002000000000580800080400800089
:1005E00044D80020B0DA0020000000000000000025
:1005F0001300040030D8002030DB00200000000091
:100600005C080008FD0124000CD8002034DB002029
:10061000000000005178040818202E00D8D70020D0
:1006200058DB0020000000001190000806101A009E
:10063000D8C5002088DB0020000000008DD703080B
:10064000FB010100D4C50020A4DB00200000000055
:100650007D900008FC010900A0C40020A8DB002058
:10066000000000008D90000816023F0060C40020CA
:10067000B4DB0020000000001D84000834001000DE
:1006800090C30020F4DB00200000000061D70308C5
:100690001102080068C3002004DC002000000000F4
:1006A000600800081212040060C300200CDC002067
:1006B00000000000680800081220100050C300204D
:1006C00010DC0020000000006C080008F9010400A4
:1006D000C0BF002020DC002000000000C778040814
:1006E000FA010200A8B9002024DC0020000000006C
:1006F0009986000802020300A8AE002028DC002032
:1007000000000000000000000C02040064AE0020A5
:100710002CDC00200000000055850008FE011400BC
:1007200074B9002030DC002000000000ED830008D8
:100730000000200300000000AE014A015E012C0110
:1007400064010100000001000A019A01001E0A0074
:10075000000000000001000000050000010203008D
:100760000000000000000000000000000000000089
:100770000080070000000000040101006C1600006A
:1007800000000000010003000000E8036400040A08
:100790000001A60000000000013C00000000000075
:1007A000010000000202000014010000000000002F
:1007B0000000000000000000000000000000000039
:1007C0000000000000000000000000000000000029
:1007D0000000000000000000000000000000000019
:1007E00001000005000001000000200001010000E0
:1007F00020003200C800D007960014003200280004
:10080000B00440060005500014000F00080064000A
:10081000010001000000C4090000190000000000F0
:1008200000000000000000000000000000000000C8
:1008300000000000000000000000000000007E0535
:10084000EA05B4053200E803D007000000002801E3
:1008500000000401F40114001300000008004030FF
:100860000000000001010101FFFFFFFF0000000187
:0C08700000000546584634000008000057
:10087C001A0300000000000000000000000000004F
:10088C000000000000000000000000000403090448
:10089C0012010002000000408304205700020102F4
:1008AC000301000011C80008F5850008F185000857
:1008BC00ED850008A9900008E9850008E585000889
:1008CC00485205089DAC01087D8E0108DDB7010872
:1008DC000000000000000000E1B40108FDB30108B5
:1008EC00000000000000000000000000B5890108B5
:1008FC008D860008818600084D96000869960008D0
:10090C003986000831960008159600080068214CBD
:10091C001F0000001C0000001F0000001E00000053
:10092C001F0000001E0000001F0000001F00000040
:10093C001E0000001F0000001E0000001F00000031
:10094C00FF01FF0000000401000000000000000295
:10095C001000000007000000000000000000000074
:10096C000102030406070809D58F0108C18E01088E
:10097C0079BA0108000000003D8A010831B601086F
:10098C00118E0108A9B5010800000000000000004C
:10099C00F98901088D89010881890108ADAB01082D
:1009AC00C9AB010891AB010875AB010859AB010843
:1009BC008D8F01089D8E0108B9B901080000000057
:1009CC00118A0108ADB50108E58D010809B50108CA
:1009DC000000000000000000058A01080100000072
:1009EC00A00F0000B80B00000102FFFF0100000087
:1009FC000403090412010002EF0201408304563281
:100A0C000002010203010000120100020202004078
:100A1C008304405700020102030100000902200078
:100A2C00010104C032090400000208065005070544
:100A3C008102400000070501024000000902640029
:100A4C00030100C032090400000103000000092169
:100A5C00110100012226000705830308000A080B78
:100A6C000102020201000904010001020201000559
:100A7C0024001001052401000204240202052406AE
:100A8C000102070582030800FF09040200020A00A4
:100A9C00000007050102400000070581024000002C
:100AAC0009024300020100C03209040000010202E5
:100ABC000100052400100105240100010424020298
:100ACC000524060001070582030800FF0904010044
:100ADC00020A000000070501024000000705810220
:100AEC0040000000FF000000E46305080000000067
:100AFC0000000000000000000000000000000000EA
:100B0C0000000000000000000000000000000000D9
:100B1C0000FFFF0000000000AA55050100000100C5
:100B2C00B863050800000000000000000000000091
:100B3C0000000000000000000000000000000000A9
:100B4C000000000000000000FF1FFF1F0501090549
:100B5C00A101A10005010930093109320933093518
:100B6C000934094009381581257F750895088102DB
:100B7C00C0C0000009022200010100E0320904009B
:100B8C0000010301020009211101000122260007C6
:100B9C0005830308000A00000000000001020304A2
:100BAC00010203040607080941B7010845B601080C
:100BBC009DBA0108798A0108F18F0108898A010818
:100BCC00A58A0108518A0108418A01080000000029
:100BDC00000000002D202D2D202D2D2D2D202D2D14
:100BEC002D2D00000000000000000000000000009F
:100BFC00000000AA550B010000AA5507010000AA2D
:100C0C00550902000000AA5503009F0001000000D6
:100C1C00C012000050600020000000007460002032
:100C2C0000000000010000001DF60108000000009B
:100C3C000C65050820700020702D7200FFFFFFFF6F
:100C4C00D6010100000101010001012D202D2D20F4
:100C5C002D2D2D2D202D2D2D00000000000000002D
:100C6C000000000000000000000000000000000078
:100C7C00000000000C7A05080000000000000000D5
:100C8C00987A050801000000FA000000010000003D
:100C9C0001000000010100007273002000C8010077
:100CAC00717300200050010070730020005A010085
:100CBC006E730020020000008869050828D9050819
:100CCC0030D9050852DA00200100C40900000000E8
:100CDC0050DA00200100C409000000004EDA0020A8
:100CEC000100C409000000004CDA00200100C40916
:100CFC000000000048DA00200100C40900000000D8
:100D0C004ADA00200100C4090000000046DA002085
:100D1C000100C4090000000044DA00200100C409ED
:100D2C0000000000227100200100C800010000003A
:100D3C002071002032003075320000001E7100203E
:100D4C00055A05001B71002000FF01001D710020D9
:100D5C0001000000D40500201971002002000000E1
:100D6C00108C05081A71002000FF01001C71002076
:100D7C0001000000D40500201871002002000000C2
:100D8C00108C0508AC730020EE02CA0801000000AC
:100D9C00AA73002000C8010064000000A9730020A1
:100DAC0000C8010064000000A873002002000000CD
:100DBC00946905081271002080C1803E0500000076
:100DCC001071002080C1803E050000000A710020D7
:100DDC0080C1803E050000000871002080C1803E6B
:100DEC00050000000371002000FF0100FC700020D2
:100DFC006400F40101000000FB70002004000000FE
:100E0C00A0690508FA70002002000000B46905080A
:100E1C00997100200D000000C06905089671002032
:100E2C000064010094710020320010270A000000B9
:100E3C00937100200D000000C0690508927100201C
:100E4C000D000000C069050891710020020000002F
:100E5C00F86905080000000000000000046A05089D
:100E6C00305A00209CFF2C0100000000007800206C
:100E7C00E0150C1700000000E676002002000000D0
:100E8C003C6A0508B87300200100FF7F01000000D8
:100E9C00B773002002000000486A05089B7100200F
:100EAC0003000000586A05089A7100200300000036
:100EBC00586A0508507300200000E8030100000088
:100ECC004E7300200000E803010000004C7300206A
:100EDC000000E803010000004A7300200000E80352
:100EEC0001000000487300200000E803010000002E
:100EFC00467300200000E803010000004573002049
:100F0C00001401004473002003000000686A050807
:100F1C005C7300200000F401010000005A730020F3
:100F2C000000F40101000000587300200000F401DF
:100F3C0001000000567300200000F40101000000C5
:100F4C00547300200000803E01000000527300200A
:100F5C000000803E01000000857300201964010030
:100F6C008473002002000000786A05088273002058
:100F7C00E803D0070A000000807300200064010021
:100F8C000A000000757300200064010074730020D7
:100F9C00006401007C730020006401000A00000062
:100FAC007B730020006401000A0000007A730020AB
:100FBC00006401000A0000007F730020006401003F
:100FCC000A0000007E730020006401000A0000008B
:100FDC007D730020006401000A000000797300207A
:100FEC0001FF01000A0000007873002001FF0100DE
:100FFC000A0000007773002001FF01000A000000C6
:10100C00A47100200000F40101000000A271002076
:10101C000000F40101000000A07100200000F401A8
:10102C00010000009E7100200000F401010000008E
:10103C009C7100200000F401010000006D73002081
:10104C00006401006C730020006401006B730020CD
:10105C00006401006A730020FF080100697300201E
:10106C0001640100FDFB0108C1FB0108846A05084D
:10107C006873002000640100667300201400E8030C
:10108C000100000064730020E80330750A000000C2
:10109C006273002000C801006173002000C80100C9
:1010AC006073002000C801005F7300200064010021
:1010BC000A0000009C7300200000D0070100000013
:1010CC009773002000C801009673002000C801002F
:1010DC009573002000C801009A7300200000D0070F
:1010EC00010000009473002000C8010093730020DD
:1010FC0000C801009273002000C801009873002002
:10110C000000D007010000009173002000C801000E
:10111C009073002000C801008F73002000C80100EC
:10112C000000000031F90108F46A05088F710020F5
:10113C0034000000906B05088E71002000C801007F
:10114C008C710020E803D00701000000464F584581
:10115C004552463430350000177100200003010061
:10116C00167100200003010091F8010869F80108CC
:10117C00646C050825F80108D9F70108B86C050856
:10118C00B9F801082D1B0208386D050814710020F0
:10119C00010301005DFD010831FD01082C700508FB
:1011AC0069F7010829F701089070050847F901084B
:1011BC00592F02082C710508352502080000000083
:1011CC00D4710508151F0208BDFD010870720508D1
:1011DC0099F9010800000000F072050871FA010885
:1011EC001DFA01085473050801FB0108C5FA010832
:1011FC00F073050839FC010881FC010870740508BE
:10120C007373002001060100E1F90108ADF9010832
:10121C006C7505083DFB0108911B0208DC7505087F
:10122C00B5FC0108151C0208BC7605085E7300208D
:10123C000103010001F90108D1F8010890770508B4
:10124C0089FD010800000000F4770508A9F70108E2
:10125C00FD1A020858780508000000000000000084
:10126C00E478050809FD01088D1C0208647905085D
:10127C00F670002088136F1701000000F870002032
:10128C0088136F17000000007E4F00200000000044
:10129C00000000007C4F0020000000000000000057
:1012AC007A4F00200000000000000000784F002062
:1012BC000000000000000000764F0020000000003D
:1012CC0000000000744F002000000000000000002F
:1012DC00280500200000000000000000CC70002059
:1012EC0002000000EC7A0508F470002088136F17D8
:1012FC0001000000705A002088136F1700000000D6
:10130C00BDF6010800000000F87A0508F17600200F
:10131C00010000004C7B0508725A002001000000FF
:10132C00587B0508685A002002000000607B050805
:10133C0000000000000000006C7B0508A9F6010805
:10134C0000000000087C0508000000000000000000
:10135C005C7C05080000000000000000CC7C050847
:10136C006C5A0020E0150C17000000000000000073
:10137C00087F00200800000000000000F87E00201C
:10138C000800000074EA050880EA05088CEA0508E4
:10139C0098EA0508A4EA0508B0EA0508C0E70508BC
:1013AC00DC0E06080C0E060800EA050804360608D2
:1013BC0064EA050868EA05086CEA050870EA05089D
:1013CC0054EA050858EA05085CEA0508740C060896
:1013DC0060EA05081900C800F401200354EA050866
:1013EC0058EA0508BCEA05085CEA0508C0EA0508E5
:1013FC00C4EA0508C19002080000000000000000CB
:10140C00000000000000803F000000000000000011
:10141C00000000000000803FFFFFFFFFFF00000006
:10142C0000000100E0010000FFFFFFFFFFFF0801CB
:10143C0001FF0000FFFFFFFF0000803F00000000E5
:10144C0000000000000000000000803F00000000D1
:10145C000000000000000000000000000000000080
:10146C000000000000000000000000000000000070
:10147C000000803F000000000000000000000000A1
:10148C0001000000FFFF0000FFFFFFFF0432060811
:10149C0000000802050303000C32060801000802D4
:1014AC000504030028F205080200FE0101100300E8
:1014BC0084DC050803001402000300001432060843
:1014CC0004001F02010008001C32060805001F0260
:1014DC0001010800080000007D89010879890108D4
:1014EC0075890108698901086589010871890108F4
:1014FC006D8901080100000000600240106002408C
:10150C000000000000000000000B000000000000C4
:10151C000000000000000000006002402860024053
:10152C000100000000000000060C0000000000009C
:10153C00000000000000000000600240406002401B
:10154C000200000000000000100D00000000000070
:10155C0000000000000000000060024058600240E3
:10156C000300000000000000160E00000000000048
:10157C0000000000000000000060024070600240AB
:10158C000400000000000000200F0000000000001C
:10159C000000000000000000006002408860024073
:1015AC0005000000000000002610000000000000F4
:1015BC00000000000000000000600240A06002403B
:1015CC0006000000000000003011000000000000C8
:1015DC00000000000000000000600240B860024003
:1015EC000700000000000000362F00000000000083
:1015FC000000000000000000006402401064024083
:10160C000000000000000000003800000000000096
:10161C00000000000000000000640240286402404A
:10162C00010000000000000006390000000000006E
:10163C000000000000000000006402404064024012
:10164C000200000000000000103A00000000000042
:10165C0000000000000000000064024058640240DA
:10166C000300000000000000163B0000000000001A
:10167C0000000000000000000064024070640240A2
:10168C000400000000000000203C000000000000EE
:10169C00000000000000000000640240886402406A
:1016AC0005000000000000002644000000000000BF
:1016BC00000000000000000000640240A064024032
:1016CC000600000000000000304500000000000093
:1016DC00000000000000000000640240B8640240FA
:1016EC00070000000000000036460000000000006B
:1016FC000000000000000000A0320608BCF905083C
:10170C0000000000858F0208A08601000400000084
:10171C0000000000000000000000000000000000BD
:10172C0000000000000000000000000000000000AD
:10173C000000000000000000A03206081836060861
:10174C00000000000D0A0108E8030000040000007E
:10175C00000000000000000000000000000000007D
:10176C00000000000000000000000000000000006D
:10177C0000000000000000007CDF0508F00C0608EB
:10178C0000000000150603087D00000006000000A4
:10179C00000000000000000000000000000000003D
:1017AC00000000000000000000000000000000002D
:1017BC000000000000000000F031060800000000EE
:1017CC000000000035750108E8030000030000006C
:1017DC0000000000000000000000000000000000FD
:1017EC0000000000000000000000000000000000ED
:1017FC000000000000000000203606080000000079
:10180C0000000000695604081027000003000000C7
:10181C0000000000000000000000000000000000BC
:10182C0000000000000000000000000000000000AC
:10183C00000000000000000010320608000000004C
:10184C00851602080D1001085F76000005000000E7
:10185C00000000000000000000000000000000007C
:10186C00000000000000000000000000000000006C
:10187C000000000000000000A43406080000000076
:10188C00000000003180010810270000010000005A
:10189C00000000000000000000000000000000003C
:1018AC00000000000000000000000000000000002C
:1018BC0000000000000000002C36060800000000AC
:1018CC0000000000110A0108E803000005000000F8
:1018DC0000000000000000000000000000000000FC
:1018EC0000000000000000000000000000000000EC
:1018FC000000000000000000383606080000000060
:10190C000000000081970208204E00000300000038
:10191C0000000000000000000000000000000000BB
:10192C0000000000000000000000000000000000AB
:10193C00000000000000000048360608000000000F
:10194C000000000085950208204E000003000000F6
:10195C00000000000000000000000000000000007B
:10196C00000000000000000000000000000000006B
:10197C0000000000000000005836060800000000BF
:10198C0000000000F1790108400D03000300000085
:10199C00000000000000000000000000000000003B
:1019AC00000000000000000000000000000000002B
:1019BC000000000000000000D0E805080000000056
:1019CC00000000008D7201081027000001000000CB
:1019DC0000000000000000000000000000000000FB
:1019EC0000000000000000000000000000000000EB
:1019FC00000000000000000004F7050800000000D3
:101A0C0000000000819C0308102700000300000068
:101A1C0000000000000000000000000000000000BA
:101A2C0000000000000000000000000000000000AA
:101A3C00000000000000000070DB05080000000042
:101A4C0000000000E5080108A8610000010000008A
:101A5C00000000000000000000000000000000007A
:101A6C00000000000000000000000000000000006A
:101A7C0000000000000000006836060800000000AE
:101A8C000000000011D00308A08601000100000036
:101A9C00000000000000000000000000000000003A
:101AAC00000000000000000000000000000000002A
:101ABC000000000000000000F8E80508000000002D
:101ACC0000000000713E0108A00F000001000000A2
:101ADC0000000000000000000000000000000000FA
:101AEC0000000000000000000000000000000000EA
:101AFC000000000000000000743606080000000022
:101B0C0000000000B1BF0308102700000100000016
:101B1C0000000000000000000000000000000000B9
:101B2C0000000000000000000000000000000000A9
:101B3C000000000000000000C0E6050800000000E6
:101B4C000000000035B303081A410000010000003A
:101B5C000000000000000000000000000000000079
:101B6C000000000000000000000000000000000069
:101B7C00000000000000000030DB05080000000041
:101B8C0000000000A99201081027000001000000CD
:101B9C000000000000000000000000000000000039
:101BAC000000000000000000000000000000000029
:101BBC000000000000000000C8F90508000000004B
:101BCC0000000000ED3602081A4100000100000080
:101BDC0000000000000000000000000000000000F9
:101BEC0000000000000000000000000000000000E9
:101BFC000000000000000000803606080000000015
:101C0C0000000000B1980108400D03000000000026
:101C1C0000000000000000000000000000000000B8
:101C2C0000000000000000000000000000000000A8
:101C3C0000000000000000008836060800000000CC
:101C4C0000000000A1080108400D03000000000086
:101C5C000000000000000000000000000000000078
:101C6C000000000000000000000000000000000068
:101C7C000000000000000000903606080000000084
:101C8C000000000031CA030850C30000030000002C
:101C9C000000000000000000000000000000000038
:101CAC000000000000000000000000000000000028
:101CBC0000000000000000009C3606080000000038
:101CCC0000000000F994020840420F0000000000E0
:101CDC0000000000000000000000000000000000F8
:101CEC0000000000000000000000000000000000E8
:101CFC000000000000000000A836060800000000EC
:101D0C0000000000B90B010850C3000000000000E7
:101D1C0000000000000000000000000000000000B7
:101D2C0000000000000000000000000000000000A7
:0C1D3C0000000000000000000000803FDC
:1080000003685A1C02601970704700BF2DE9F047E1
:10801000089C2578002B804689460CBF4FF0200A2B
:108020004FF0300A661C25B3002A26DD334601E0F6
:10803000024698B113F8011B501E0029F8D1971E73
:1080400060B13D46013D51464046C8476B1C002B80
:10805000F8DC257827EAE770013045B1041B294692
:108060004046C847301916F8015B002DF7D1BDE82E
:10807000F087002A03DC2846F9E70020EEE7571EC8
:10808000DFE700BF2DE9F04714461D4606464FF4D2
:108090007A720023204629464BF09CF94D4BDFF8BD
:1080A00048814D4A4D4F034488FB03101844D917AB
:1080B00082FB032CC1EB601088FB002887FB0327A1
:1080C0009C44474AC1EBEC2CC0EB001E82FB0C2900
:1080D000A3EB8E0E1F44434A86F806E0C1EB274708
:1080E0004FEAEC7E08EB000ACEEBA90E82FB07827A
:1080F0004FEAE0780EEB4E0EC8EB6A18ACEBCE0CF4
:10810000C8EB0818DFF8E4E086F804C0A0EB8800AC
:1081100070718EFB0303F817C0EBE21240F2B5500A
:1081200000FB1272C1EBE353B2F5896F4FEA83078C
:108130003CDA40F2DA239A4242DCB2F5B77FB4BFB0
:108140004FF0000E4FF0010E4FEA4E09DFF8A0800D
:1081500009EB0E0308EBC3031FFA8EFCD88A09EB68
:108160000E0108EBC10116310B2301E031F8020DBD
:10817000904218DD013BF9D1CE44012338F83E008E
:10818000B37007F5FA670132121ABC44F270A6F810
:1081900000C0204629464FF47A7200234BF01AF9AA
:1081A0003281BDE8F0870133DBB2E9E74FF0030C21
:1081B000E64640F29650DFF838804FF00609CEE7E9
:1081C0004FF0020CDFF82880E64640F229404FF0DD
:1081D0000409C4E780BC92C7C5B3A29107452EC26B
:1081E000ABAAAA2A73B06D1689888888792D0311E5
:1081F000005005080028F0B403DA2D230B7040422C
:108200000131092804464FF0010307DD03EB830326
:108210005B00B0FBF3F2092AF8D883B10F48A0FB4A
:108220000326B4FBF3F2092A02F1570C02F13007DE
:1082300009DD03FB1244F30801F801CBEFD1002361
:108240000B70F0BC704703FB1244F30801F8017B8C
:10825000E5D100230B70F0BC704700BFCDCCCCCC77
:10826000884270B44FF0010442D301FB04F4B0FB28
:10827000F4F58D42F9D2ECB142BB092D04FB150097
:1082800005F1570605F130020EDDB4FBF1F403F8F9
:10829000016B7CB1B0FBF4F5092D04FB150005F171
:1082A000570605F13002F0DCB4FBF1F403F8012BC2
:1082B000002CEFD100221A7070BC704703F8016BDC
:1082C000B4FBF1F4002CF5D0B0FBF4F5092D04FB60
:1082D000150005F1370605F13002EFDCB4FBF1F4CF
:1082E00003F8012B002CEFD100221A7070BC7047EC
:1082F0000546002AEAD1C0E790ED057A90ED004AE4
:10830000D0ED066AD0ED014AD0ED047A90ED035A23
:10831000D0ED025AA4EE007AB0EE406AB0EE470A01
:10832000B0EE667AA4EE867A67EEC07AA5EE407A61
:10833000E5EE867A80ED057AC0ED067A704700BFDB
:10834000D0ED057A90ED013AD0ED003AD0ED064A35
:1083500090ED024A90ED077A90ED035A90ED086A8D
:10836000D0ED045AC0ED067AF0EE406A27EE830A9B
:10837000C0ED056AA3EEA60A80ED087AA4EE240AF1
:10838000A5EE470AA5EEC60A80ED070A704700BFB2
:10839000D0ED007A90ED017A30EE670AE7EE007AD0
:1083A000B0EE670AC0ED007A704700BF704700BFAB
:1083B00030B400230221012222253424C5708471A7
:1083C0000370C3728373C3734170C1714172827051
:1083D0000272827230BC7047002306214FF47A7219
:1083E0000170C0E901230373704700BF30B430232C
:1083F000312210254FF47F44FF2143704271012345
:108400000022C5700482817403720370037183704B
:1084100042818281C28130BC704700BF2DE9F04F9C
:108420003149324B83B001F5907B01902F274FF0FB
:1084300000092F481022012603E0203098420BD07B
:1084400002799742F9D102680C68A24209D0203023
:10845000984206F10106F3D1203159453AD00F79FF
:10846000E7E744794D79A542F1D19446019A214834
:1084700009EB490502EB050A57558AF8016000F53A
:1084800072751D4E624603E0A8421AD050F82C6F58
:10849000B242F9D10679A642F6D1CF6806464FF02E
:1084A000000C96468046F268BA4216D00CF1010CD8
:1084B000BCF1030F06F10C06F5D14046A842724606
:1084C000E4D14FF0FF3C203159458AF802C009F150
:1084D0000109C4D103B0BDE8F08F08693269824256
:1084E000E4D14FFA8CFCEEE75C90050874BE0508F9
:1084F000B4B4050874BE050800000140144BFF2207
:10850000F0B54FF0FF34C2700271027242724273D2
:10851000827303F10C0EA446172716261525002298
:1085200002EB820281189E4585544E708F7081F84F
:1085300003C00C710AD093F90620DD791E7A5F7AA8
:1085400093F90AC093F90B400633E9E7F0BD00BF89
:108550006050050810B41F21012403220023047079
:1085600041708270C3705DF8044B704770B403466D
:1085700000F11001FF221A705A7002338B42FAD1B7
:108580000E4B00224FF0FF3103F10C0600EB4205C9
:108590000C469E4200F8124069700CD093F90440DA
:1085A00093F9051013F8032F00EB42059E4200F8E3
:1085B00012406970F2D170BC704700BF745005085A
:1085C00030B41D6995420AD314460A4621448D42AF
:1085D000996938BF2A1B214430BC4BF099B930BC93
:1085E000704700BF0020704701207047012070478E
:1085F000002070474FF40070024B10609B680B60C6
:1086000000207047C8BF0020013A30B4D2B28C1CA1
:1086100004EB42040025020F092AD3B203F1300211
:108620008ABF37330A700B704D7002318C424FEAAB
:108630000010F0D130BC70470B4A0C4B10681B681F
:108640001A22C0180A8001D10948704710B5094B99
:1086500009491C680822FFF7D7FF20460422074972
:10866000FFF7D2FF024810BDE8F7FF1FECF7FF1F2E
:1086700088010020EAF7FF1F8A0100209A010020EC
:1086800004230B8000487047A401002012230B80B4
:1086900000487047A80100202C220223027043707A
:1086A000704700BF08307047704700BF8161704756
:1086B0004FF40063038370474FF4006303837047F4
:1086C000012380F850307047F0B4037C456902689C
:1086D0001F2B37D9203B2021546899400C4223D0CE
:1086E00010249C40D160D4605168D940CE074ED44C
:1086F000EFF31183502282F31288EA6B1168C907E5
:1087000009D45468002C52D1D5E909618E4243D175
:10871000012285F86020DBB283F31188037C0268B4
:108720001F2B194614D9203B082150689940084254
:1087300000D0D1600421506801FA03F3184223D11C
:10874000F0BC7047202416689C4026420FD1194681
:10875000082310688B40184200D0936004231068EF
:1087600003FA01F10842EBD09160F0BC7047102190
:108770009940946091601168D940CC07B8D5012127
:1087800001FA03F39360B3E7D360F0BC70470121B3
:1087900001FA03F3D360ABE7AF690F44D7600ED89B
:1087A0002E69711A5160AC62002185F86010116861
:1087B00041F00101DBB2116083F31188AEE7711A59
:1087C0005160AE62F0E700BF2DE9F843AE4DAF4C0B
:1087D0002A7823789A4240F02D81AD4B1A78002AEE
:1087E00000F08D80AB4B1E78AB4B002E40F08980A3
:1087F0001968B3F830714E628889012A40EA07008F
:108800008881A3F8306157D0D3F83411B3F864727B
:108810004E628889022A40EA07008881A3F86462D0
:108820004AD0D3F86812B3F898734E628889032A45
:1088300040EA07008881A3F898633DD0D3F89C13E1
:10884000B3F8CC744E628889042A40EA0700888114
:10885000A3F8CC6430D0D3F8D014B3F800764E62CD
:108860008889052A40EA07008881A3F8006623D09A
:10887000D3F80416B3F834774E628889062A40EAA2
:1088800007008881A3F8346716D0D3F83817B3F8F7
:1088900068784E628889072A40EA07008881A3F831
:1088A000686809D0D3F86C28B3F89C09566291899E
:1088B00001439181A3F89C6995F800E023789E45D7
:1088C0001DD0764F9C469B0063449B00FD18FB58CF
:1088D000ABB92B7A9BB96A7A8AB90CF1010303F020
:1088E0000303D9B28E45217009D003EB83039C00AA
:1088F0003B191A720BF06AFA6B6803443B51BDE8EE
:10890000F8835E68198971603768186847F0010755
:1089100040F20D313760A0F848108689012A46F4EC
:1089200080768681C8D0D3F83861B3F83C71D3F82B
:1089300034017760376847F001073760A0F84810C6
:108940008689022A46F480768681B5D0D3F86C6297
:10895000B3F87072D3F868027760376847F00107A0
:108960003760A0F848108689032A46F4807686810D
:10897000A2D0D3F8A063B3F8A473D3F89C037760B4
:10898000376847F001073760A0F848108689042A45
:1089900046F4807686818FD0D3F8D464B3F8D87447
:1089A000D3F8D0047760376847F001073760A0F844
:1089B00048108689052A46F4807686813FF47CAF8C
:1089C000D3F80866B3F80C76D3F8040677603768F6
:1089D00047F001073760A0F848108689062A46F458
:1089E000807686813FF468AFD3F83C67B3F8407770
:1089F000D3F838077760376847F001073760A0F889
:108A000048108689072A46F4807686813FF454AF61
:108A1000D3F87028B3F87408D3F86C385060106835
:108A200040F001001060A3F848109A8942F4807267
:108A30009A8141E780460BF0C9F994F800C095F897
:108A400000E0F4452ED04FEA8C03144F03EB0C02E8
:108A500007EB8202167A46B3B8F1000F3ED01049F8
:108A60000022B1F808900132B9F1000F18BF0026BA
:108A7000904501F58471F4D186BB054A1278002A2D
:108A80003FF422AFAEE600BF1CD900201DD9002064
:108A9000B8320010B432001034CE002020D90020AB
:108AA000F4C50020154F4FEA8C0363449B00F9186E
:108AB000FA58821A002AFFF622AF4A7A3AB1013AEE
:108AC000D2B24A72AAB100F57A70F85000E0FA50BA
:108AD0000B4B1A78002A7FF485AEEDE603EB0C020F
:108AE000920000F51C50B9181030B85000220A72DC
:108AF000C3E74A681044F850EAE700BF20D90020D5
:108B0000B832001010B5027C01681F2A4FF0200314
:108B10000ED94C68203A93401C4208D00B4A40685A
:108B200000241470026822F001020260CB6010BDC4
:108B30000C6893401C42FAD0044A40680024147028
:108B4000026822F0010202608B60F0E74794002087
:108B50002DE9F041C40023189B00B749CA58526858
:108B6000958AADB2EFB2FE070B4461D4BE0737D58C
:108B7000BFF35F8F1D7EEDB2012D00F0BB80AF4EC5
:108B8000138BBFF35F8F231801EB83031D7E022D30
:108B900000F0CE80231801EB83031D7E032D05D149
:108BA0009B7E1BB17378002B40F01A81938896F955
:108BB00000C043F480639380231801EB83031B7E82
:108BC000013363450AD1B37800257570002B40F05E
:108BD0008A80204401EB800000234375BDE8F081CA
:108BE000964E17F0040F96F900C04DD117F04007CC
:108BF00000F0B280178A1D6AFFB205F80C705FFAA8
:108C00008CF56F1C93F818E07BB2DF1CBE45337007
:108C10009C4600F00981271801EB87073F7EBB4285
:108C2000CAD105F1020C4FFA8CFC86F800C0C3E7EC
:108C30001588824E25F400652D042D0C15801588AD
:108C400045F4806515809D7E00273770002D3DD04E
:108C50007578002D37D0231801EB830301251B7E87
:108C60007570022B03D1138843F40063138023181B
:108C700001EB83039B7D43F001031382204401EB4E
:108C80008000037EBDE8F0819F7E75784FF0010E75
:108C900086F802E0002F5CD0002D78D1231801EB7C
:108CA00083035B7E002B00F0A48013880CF1010C81
:108CB0004FFA8CFC43F4007386F800C013801388CD
:108CC000DF05FCD478E7DB7DFF2BC4D0231801EB54
:108CD00083039D7D05F0FE051582DB7DFF2BCDD046
:108CE000FF233370CAE7938823F440731B041B0CE3
:108CF00093806EE79B7E514E002B3FF441AF73781B
:108D0000002B3FF43DAF138823F480631B041B0C3E
:108D10001380BFF35F8F138B1388B57043F4007318
:108D20001380938896F900C043F48063938043E7EF
:108D30009B7E002B3FF42EAF7378002B3FF42AAFBD
:108D4000138896F900C023F480631B041B0C138066
:108D500016E0002DA2D0A8E72D067FF52DAFBCF1BF
:108D6000FF3F6DD0DD6915F80C5015820CF1010C38
:108D70001D7E4FFA8CF39D429C4633707FF41CAFEE
:108D8000938823F480631B041B0C938014E71F7EDD
:108D9000D3F820805FFA8CF5AE44022F4FFA8EFE96
:108DA00017882DD927F480673F043F0C1780178A56
:108DB000FFB208F80C701788D3F820C047F400738E
:108DC0001380138ADBB20CF80E30938805F1020C85
:108DD0004FFA8CFC43F4806386F800C093806EE702
:108DE000938896F900C023F480631B041B0C9380C6
:108DF000E2E61388012543F48073138075705EE703
:108E000047F400771780178AFFB208F80C70178AAA
:108E1000D3F8208005F1030C4FFA8CFCFBB286F8E6
:108E200000C008F80E304AE7978827F480673F04AF
:108E30003F0C9780EFE600BF3C7E002058160020D4
:108E4000DD7D15829D7E37701DB91B7E002B7FF462
:108E500015AF938823F480631B041B0C93800DE7EC
:108E600042F0ECB9014B186841F063BB9844002014
:108E700038B51D4B1B78044600F1250593B104223B
:108E80001A4920304CF0A6F82846142218494CF014
:108E9000A1F8012384F83A30164B1B7873B984F893
:108EA0003B3038BD2846142213494CF093F8012377
:108EB00084F83A300F4B1B78002BF0D00F4B18681A
:108EC00059689A68DD68E56020606160A260DD69CC
:108ED000186959699A69A2610123E561206161619C
:108EE00084F83B3038BD00BF197E0020DC7D0020B7
:108EF000C47D00201A7E002060CA0508E47D0020A1
:108F000010B42921282401220023047041708270AA
:108F1000C3705DF8044B70472DE9F84FDDE90A6432
:108F20008946174600212022984605464CF014F841
:108F30005EB1D6E900327189EB81C3F30F432B8216
:108F4000C2F30F43EA822B836982484649F04CFD05
:108F500017F0100B10D1431E70B119F803202E2A00
:108F600018BF09EB030104D14AE011F8016D2E2E60
:108F70003ED013F1FF33F8D208280246CA46A8BFF4
:108F800008224FF0000B4FF020336B602B60C5F8C8
:108F900007304946284605F108064AF0B9FC5A460A
:108FA000514630464AF0B4FC6B1EE81D13F8012F01
:108FB000A2F1610119299CBF203A1A708342F5D1B0
:108FC00005F10B0116F8013BA3F16102192A9CBFC0
:108FD000203B06F8013CB142F4D11823C8F30F42FC
:108FE000EF722B73A5F81A80AA82EC61BDE8F88FA6
:108FF000C01A00F1FF3BBBF1030FA8BF4FF0030BFA
:10900000082B03F1010AA8BF0823CA441A46BAE78D
:1090100038B52E2200214BF09FFF034640F2DC5171
:10902000642040F21A4240F202241874598213203C
:1090300019219A8240F2753240F26C751C83987641
:109040000E240A201977DA8302210122DD8283F8B7
:109050002D0040F64305197283F82C1083F8224046
:109060009A7383F8252083F82B201D841946024823
:10907000BDE838401FF05EBD6CCA050810B5002180
:10908000044601200AF076F9207010BD38B500249E
:109090000472451EE1B202200AF06CF90134082C7A
:1090A00005F8010FF6D138BD2DE9F04F002087B04B
:1090B0000C461D460121924641F098FC002D63D0DC
:1090C00005EB0A03DFF8D094DFF8D0B403935546DC
:1090D0001CE0002D00F0C581D9F81430AB4264D0FB
:1090E000D9F81030AB4200F09780D9E90631AB4295
:1090F00052D8A94200F26F81691A204646F072F8F0
:10910000039B01359D4204F500743DD0D9F82060E1
:10911000AE42DED8D9F83080AE1B4FEAD60AD8F876
:1091200030300AF1020A9A4506F0070603D3D8F850
:1091300038309A4509D94146504646F021F88046D4
:10914000002800F04D81C9F8300098F80430002B59
:1091500040F0E280D8F82870002F00F0DF81D8F8C6
:109160003030D8F80C20AAEB030A06EBCA0A4346B3
:10917000204602EB4A224FF40071B847039B0135A9
:109180009D4204F50074C1D10021084641F02EFC37
:10919000002007B0BDE8F08FA942ADD94FF40072AE
:1091A000002120464BF0D8FEAAE75222612041233D
:1091B000002622706270A070722284F8E70184F8A1
:1091C000E631D9F82800E3704FF0FF33314684F8D8
:1091D000E42184F8E521C4F8E8014FF4F07284F842
:1091E000EC3184F8ED3184F8EE3184F8EF31201D54
:1091F0004BF0B2FE55216FF05502C4F8F061C4F88F
:10920000F461C4F8F86184F8FC6184F8FD6184F8C5
:10921000FE1184F8FF2173E74FF40072002120460D
:109220004BF09AFED44BD54F03CBEB230222237095
:109230004FF0080C9026F8234FF0580EC4F80300A6
:10924000227484F80DC0C4F8071084F801E0A670F9
:109250006375D9F81010D9F80830D9F81C6022735A
:10926000591A21624FF0FF3100233F20A1763E21A1
:10927000A273E372E3736374A374E3742375A37539
:10928000E3756376E3766377A377E37720762177D8
:1092900084F82C2007CFD9F8187084F82830F61BF2
:1092A00084F8293084F82A3084F82B3084F82D3063
:1092B00084F82E3084F82F3084F8313084F832303E
:1092C00084F8333080236662C4F8470004F147060F
:1092D00084F8403029209423A94F84F846C084F8AC
:1092E000420084F843300E200D234FF0010C84F827
:1092F000440084F8453084F830C0716003CF3346B1
:109300005527AA269A60C4F85200C4F8561084F86B
:10931000FE7184F8FF61F3E64FF4007200212046ED
:109320004BF01AFED8F84030002E61D104F120072E
:10933000002B77D0D8F8303092491122CDE9006661
:109340002046FFF7E9FDD8F840301A6C04F1400AD6
:10935000002A79D01B6B8C49CDE900663846112272
:10936000FFF7DAFDD8F84460002E3FF4C9AE4FF4A1
:10937000E078CDE904450CE00024CDE900C4FFF716
:10938000CBFDB66CBA46A8F120080EB3B8F11F0F9A
:109390001ED93468356B96F804E011222B4621461D
:1093A00050460AF1200706F11C0CBEF1000FE3D174
:1093B00072793369019342F021022B46CDF800C047
:1093C000FFF7AAFDB66CBA46A8F12008002EDDD141
:1093D000DDE9044594E6E91A204645F003FF8FE6EF
:1093E000231F04F5FE7243F804BF9A42FBD187E6BF
:1093F000002BD8F844200CBF01230223C3EB061333
:10940000002A3FF47DAE966C013B002E3FF478AE0F
:10941000013BB66CF9D1002E3FF472AEA2464FF478
:109420000078A6E7CDE900663346D9F80C1008228B
:109430002046FFF771FDD8F84460002E3FF460AE7F
:10944000BA464FF4F07894E7CDE9006633463846E3
:1094500011224D49FFF760FDD8F84460002E86D1F7
:109460004EE64FF40072294620464BF075FD8022EF
:109470000C2384F8BE2184F8C231D9F81000434B84
:10948000D9F8086084F8B85183FB0032C117C1EBEA
:109490002232B2F5806F84F8B95184F8BA5184F859
:1094A000BB5184F8BC5184F8BD51C4F8C601C4F85E
:1094B000CA6142DBFF2384F8BF3184F8C13184F8EC
:1094C000C031324B711E83FB0132CE17C6EB223204
:1094D000B2F5806F29DA2E4B84F8C52183FB010396
:1094E0000B442C48C6EB6313C3EB831680FB03705D
:1094F000891B1844DE17921022F03F020131C6EB9F
:10950000E0100A43034484F8C42184F8C33155228F
:10951000AA2384F8FE2184F8FF31F1E539464FF49F
:10952000007220464BF018FDEAE5FF2384F8C331B2
:1095300084F8C53184F8C431E9E7154B84F8C121BA
:1095400083FB00730344134FC1EB631387FB0317C3
:10955000C3EB831C9110A0EB0C02F818DF1721F06D
:109560003F010132C7EBE0100A43034484F8C021F5
:1095700084F8BF31A5E700BF80CA05088CCA05087A
:109580009CCA050878CA05087CCA05089755454154
:109590008320088281808080C8BF0020DEADBEEFBE
:1095A00008B5012012F0C6FD174A936803F00C03BA
:1095B000042B1ED0082B18D151685368490203F0C0
:1095C0003F0319D452681148B0FBF3F0C2F388137B
:1095D00000FB03F00C4B0E4A5B68C3F301430133FD
:1095E0005B00B0FBF3F0106008BD094B074A1A603E
:1095F00008BD074B186008BDB0FBF3F05368C3F318
:10960000881300FB03F0E5E7003802400024F40073
:10961000B0AE002010B5044C04480A46214611F0B3
:1096200075FA204610BD00BF5C160020A8CA0508C8
:1096300010B5044C04480A46214611F067FA20464A
:1096400010BD00BF5C160020B8CA050810B5044C58
:1096500004480A46214611F059FA204610BD00BFC1
:109660005C160020C4CA05080A4608B5054920B1A1
:10967000054811F04BFA034808BD044811F046FABA
:10968000004808BD5C160020F0CA0508D8CA0508C5
:109690002DE9F04F87B0A94A02904068038823F073
:1096A00040031B041B0C0380038823F038031B04B6
:1096B00090424FEA134300F03F8102F580629042EE
:1096C0000CBF3022382213430380029B02889B6820
:1096D00042F04002028013B11A689B885383838949
:1096E00040F2E93302E0002B00F090810289013B57
:1096F00012F0020F9BB2F6D06B23838140F2E93364
:1097000002E0002B00F082810289013B12F0010F80
:109710009BB2F6D08389838940F2E93302E0002BC3
:1097200000F071810289013B12F0020F9BB2F6D06A
:109730008023838140F2E93302E0002B00F0638153
:109740000289013B12F0010F9BB2F6D08389029B84
:109750009B6813B11A689B8813830623784CDFF843
:10976000EC81DFF8ECA1774D774E04939623DFF878
:10977000E4C101934FF0100EDAF80430C3F308038C
:10978000002B40F0B280EFF31183002B40F0AD804E
:109790002068AA6823689842FAD133689A42F7D8B9
:1097A000D8F800704FF47A7101FB07F39B1AB3FBF2
:1097B000F7F301FB00304FF47A774FF00109DAF844
:1097C0000430C3F30803002B70D1EFF31183002B97
:1097D0006CD12368A96822689342FAD13268914219
:1097E000F7D8D8F8002007FB02FBABEB0101B1FB77
:1097F000F2F107FB03131B1AB3F57A7FDFD3019B4A
:10980000013B0193B8D1029B9B6813B11A689B88F6
:109810005383029B586840F2E933828902E0002BAF
:1098200000F085800289013B12F0020F9BB2F6D056
:10983000F523838140F2E93301E0002B77D00289E0
:10984000013B12F0010F9BB2F7D08389838940F26C
:10985000E93301E0002B67D00289013B12F0020FCF
:109860009BB2F7D0FF23838140F2E93301E0002B64
:109870005AD00289013B12F0010F9BB2F7D08389C5
:10988000DBB20393029B9A6812B113689188198323
:10989000039B682B60D0049B013B13F0FF030493F0
:1098A0007FF464AF184607B0BDE8F08FEFF3118185
:1098B0008EF31288D5F808B02B68DB0344BFCCF8D0
:1098C0000090D5F808B02368DCF80020C9B281F315
:1098D0001188D8F80010134407FB01F2A2EB0B0229
:1098E000B2FBF1F207FB032385E7EFF311838EF35D
:1098F0001288AF682A68D20303D50122CCF8002071
:10990000AF682068DCF80090DBB283F31188D8F8E8
:1099100000104FF47A72484402FB01F3DB1BB3FBE7
:10992000F1F302FB003046E741F098FBAAE741F073
:1099300095FB029B586889E73022C4E60038004056
:1099400020B9002010E000E028B9002024B9002050
:1099500000ED00E01CB9002012B1136892885A8310
:10996000029B586840F2E933828901E0002B45D020
:109970000289013B12F0020F9BB2F7D08C23838146
:1099800040F2E93301E0002B38D00289013B12F0AC
:10999000010F9BB2F7D08389838940F2E9330289B2
:1099A000013B12F0020F9BB215D1002BF7D141F011
:1099B00055FB029B9B6813B11A689B881383059B18
:1099C000142B04D3182B17D9543B062B14D9002081
:1099D00007B0BDE8F08FFF23838140F2E93301E057
:1099E000002BE4D00289013B12F0010F9BB2F7D0AB
:1099F0008389DBB20593DCE7032054E741F02EFBBB
:109A0000029B5868C8E741F029FBA0E641F026FB1D
:109A1000029B58687FE600BF2DE9F04F974C4368E2
:109A200094F8032185B00190002A00F0FB801A8889
:109A3000934922F040021204120C1A801A8822F074
:109A4000380212048B424FEA124200F0E98001F51D
:109A500080618B420CBF302138210A431A801A885A
:109A60000198884CDFF82882874DDFF828A242F061
:109A700040021A806B21802241F012FB15230393D0
:109A80009623DFF81492814E00930AF09FF94FF469
:109A90007A774FF0100C4FF0010ED9F80430C3F371
:109AA0000803002B40F08D80EFF31183002B40F072
:109AB00088802368A96822689342FAD1326891426B
:109AC000F7D8D8F8002007FB02FBABEB0101B1FB94
:109AD000F2F107FB03131B1AB3F57A7FDDD3009B6A
:109AE000013B0093D1D1019B9B6813B11A689B88FD
:109AF0005383019B586840F2E933828902E0002BCE
:109B000000F089800289013B12F0020F9BB2F6D06F
:109B1000F523838140F2E93301E0002B7BD00289F9
:109B2000013B12F0010F9BB2F7D08389838940F289
:109B3000E93301E0002B63D00289013B12F0020FF0
:109B40009BB2F7D0FF23838140F2E93301E0002B81
:109B500056D00289013B12F0010F9BB2F7D08389E6
:109B6000DBB20293019B9B6813B11A689B88138335
:109B7000029B982B7ED048D9AC2B44D0AF2B70D110
:109B80000920019B3E495A68138823F040031B04B7
:109B90001B0C1380138823F038031B048A424FEAFE
:109BA000134336D001F580618A420CBF0821102191
:109BB0000B431380138843F04003138005B0BDE8C6
:109BC000F08FEFF311818CF31288D5F808B02B6871
:109BD000DB0344BFCAF800E0D5F808B02368DAF820
:109BE0000020C9B281F31188D8F80010134407FB94
:109BF00001F2A2EB0B02B2FBF1F207FB03236AE7CF
:109C000041F02CFAAEE70720BBE7122B29D1082040
:109C1000B7E70821CCE741F021FA019B586885E7B6
:109C200030211AE71A88164922F040021204120C59
:109C30001A801A8822F0380212048B424FEA12422C
:109C40001AD001F580618B420CBF082110210A4314
:109C50001A801A88012142F040021A8084F8031108
:109C6000E5E6039B013B13F0FF0303937FF408AF8A
:109C70000398A3E70B2084E70821E8E758160020A3
:109C80000038004020B9002010E000E028B9002092
:109C900024B900201CB9002000ED00E0F0B5876970
:109CA00083B0064617B13B68BA885A837069DFF8FB
:109CB000A8E08389C3244FF47A734FF0060C6D46F5
:109CC0004FF6FF710EF1010E03E0013B9BB28B4298
:109CD00020D002899207F8D5A3B283814FF47A731A
:109CE00002E0A3B28B4215D00289D20703F1FF3400
:109CF000F7D5828992B20DB12A700135BCF1000FFF
:109D00000BD00CF1FF3CFF24BEF1000FE1D09EF818
:109D10000040D7E741F0A2F9B76917B13B68BA88AC
:109D20001A839DF805009DF801509DF802109DF8DA
:109D300003409DF804209DF8063041EA052143EADE
:109D4000002342EA04220120A6F85010A6F852206F
:109D5000A6F8543003B0F0BD845005082DE9F04F4B
:109D600085B00346039090F86100002840F02C85F0
:109D7000039BC4495A69138823F040031B041B0C3E
:109D80001380138823F038031B048A424FEA1343DD
:109D900000F0398501F580618A420CBF30213821FD
:109DA0000B43138013880399B74CB84EDFF8E88251
:109DB000B74F43F0400310311380029108468022D0
:109DC0006B2141F06DF96423DFF8D0E2B1480193D3
:109DD0004FF01009DEF80430C3F30803002B40F005
:109DE000E883EFF31183002B40F0E383256882685A
:109DF00023689D42FAD13B689A42F7D8D6F800C052
:109E00004FF47A7101FB0CF39B1AB3FBFCF301FBDB
:109E100005354FF47A7C4FF0010ADEF80430C3F3C5
:109E20000803002B40F0A783EFF31183002B40F0D1
:109E3000A2832368816822689342FAD13A689142EA
:109E4000F7D832680CFB02FBABEB0101B1FBF2F17E
:109E50000CFB03135B1BB3F57A7FDED3019B013B45
:109E60000193B7D1032268210298DFF82C82884F32
:109E700041F016F96423DFF824E2864801934FF09D
:109E80001009DEF80430C3F30803002B40F01584FA
:109E9000EFF31183002B40F010842568826823685B
:109EA0009D42FAD13B689A42F7D8D6F800C04FF4E9
:109EB0007A7101FB0CF39B1AB3FBFCF301FB053534
:109EC0004FF47A7C4FF0010ADEF80430C3F3080344
:109ED000002B40F03283EFF31183002B40F02D83F1
:109EE0002368816822689342FAD13A689142F7D890
:109EF00032680CFB02FBABEB0101B1FBF2F10CFB96
:109F000003135B1BB3F57A7FDED3019B013B019307
:109F1000B7D101226B210298DFF87C815C4F41F0C0
:109F2000BFF80F23DFF874E15A4801934FF010098E
:109F3000DEF80430C3F30803002B40F09D83EFF3F9
:109F40001183002B40F098832568826823689D4226
:109F5000FAD13B689A42F7D8D6F800C04FF47A712C
:109F600001FB0CF39B1AB3FBFCF301FB05354FF42B
:109F70007A7C4FF0010ADEF80430C3F30803002BAB
:109F800040F0BD82EFF31183002B40F0B8822368CC
:109F9000816822689342FAD13A689142F7D83268D0
:109FA0000CFB02FBABEB0101B1FBF2F10CFB031369
:109FB0005B1BB3F57A7FDED3019B013B0193B7D1E5
:109FC00018221B210298DFF8D080314F41F068F849
:109FD0000F23DFF8C8E02F4801934FF01009DEF897
:109FE0000430C3F30803002B40F02583EFF3118303
:109FF000002B40F020832568826823689D42FAD1B7
:10A000003B689A42F7D8D6F800C04FF47A7101FB4A
:10A010000CF39B1AB3FBFCF301FB05354FF47A7C80
:10A020004FF0010ADEF80430C3F30803002B40F0C0
:10A030004882EFF31183002B40F04382236881684C
:10A0400022689342FAD13A689142F7D832680CFB01
:10A0500002FBABEB0101B1FBF2F10CFB03135B1B49
:10A06000B3F57A7FDED3019B013B0193B7D1182270
:10A070001C210298DFF82080054F41F011F80F23D2
:10A080000EE000BF0038004020B9002024B90020B5
:10A0900028B9002010E000E01CB9002000ED00E02D
:10A0A000DFF814E3C14801934FF01009DEF80430E3
:10A0B000C3F30803002B40F09D82EFF31183002BC4
:10A0C00040F098822568826823689D42FAD13B68F7
:10A0D0009A42F7D8D6F800C04FF47A7101FB0CF31E
:10A0E0009B1AB3FBFCF301FB05354FF47A7C4FF070
:10A0F000010ADEF80430C3F30803002B40F0C381EB
:10A10000EFF31183002B40F0BE8123688168226841
:10A110009342FAD13A689142F7D832680CFB02FBBD
:10A12000ABEB0101B1FBF2F10CFB03135B1BB3F5CD
:10A130007A7FDED3019B013B0193B7D1039A92F85A
:10A140005B30032B00F23E8392F85E20012A0BD095
:10A15000022A40F03783039B93F8633003F0FB033C
:10A16000022B0CBF002207221A210298DFF84C8232
:10A170008F4F40F095FF0F23DFF83CE28B480193AF
:10A180004FF01009DEF80430C3F30803002B40F051
:10A19000F882EFF31183002B40F0F3822568826888
:10A1A00023689D42FAD13B689A42F7D8D6F800C09E
:10A1B0004FF47A7101FB0CF39B1AB3FBFCF301FB28
:10A1C00005354FF47A7C4FF0010ADEF80430C3F312
:10A1D0000803002B40F03981EFF31183002B40F08E
:10A1E00034812368816822689342FAD13A689142A7
:10A1F000F7D832680CFB02FBABEB0101B1FBF2F1CB
:10A200000CFB03135B1BB3F57A7FDED3019B013B91
:10A210000193B7D1039B029893F86020DFF89C81EB
:10A22000634F192140F03CFF6423DFF88CE15F4865
:10A2300001934FF01009DEF80430C3F30803002B3C
:10A2400040F07E82EFF31183002B40F07982256885
:10A25000826823689D42FAD13B689A42F7D8D6F8C3
:10A2600000C04FF47A7101FB0CF39B1AB3FBFCF3B3
:10A2700001FB05354FF47A7C4FF0010ADEF804301B
:10A28000C3F30803002B40F0C280EFF31183002BCF
:10A2900040F0BD802368816822689342FAD13A6811
:10A2A0009142F7D832680CFB02FBABEB0101B1FB2A
:10A2B000F2F10CFB03135B1BB3F57A7FDED3019B3A
:10A2C000013B0193B7D1102237210298DFF8EC80CF
:10A2D000374F40F0E5FE0F23DFF8DCE03348019311
:10A2E0004FF01009DEF80430C3F30803002B40F0F0
:10A2F0000682EFF31183002B40F00182256882680B
:10A3000023689D42FAD13B689A42F7D8D6F800C03C
:10A310004FF47A7101FB0CF39B1AB3FBFCF301FBC6
:10A3200005354FF47A7C4FF0010ADEF80430C3F3B0
:10A330000803002B4DD1EFF31183002B49D1236883
:10A34000816822689342FAD13A689142F7D832681C
:10A350000CFB02FBABEB0101B1FBF2F10CFB0313B5
:10A360005B1BB3F57A7FE0D3019B013B0193B9D12D
:10A3700001223821029840F093FE039B0D495A694F
:10A38000138823F040031B041B0C1380138823F055
:10A3900038031B048A424FEA134300F0378201F569
:10A3A00080618A420CBF0821102109E010E000E022
:10A3B00028B900200038004000ED00E01CB9002062
:10A3C0000B431380138843F04003138005B0BDE8AE
:10A3D000F08FEFF3118189F31288D0F808B0036889
:10A3E000DB0344BFC8F800A0D0F808B02368D8F851
:10A3F0000020C9B281F31188316813440CFB01F2CB
:10A40000A2EB0B02B2FBF1F20CFB0323A8E7EFF384
:10A41000118189F31288D0F808B00368DB0344BFC8
:10A42000C8F800A0D0F808B02368D8F80020C9B256
:10A4300081F31188316813440CFB01F2A2EB0B028B
:10A44000B2FBF1F20CFB032335E7EFF3118189F343
:10A450001288D0F808B00368DB0344BFC8F800A036
:10A46000D0F808B02368D8F80020C9B281F3118869
:10A47000316813440CFB01F2A2EB0B02B2FBF1F2C8
:10A480000CFB0323BEE6EFF3118189F31288D0F8A9
:10A4900008B00368DB0344BFC8F800A0D0F808B0D8
:10A4A0002368D8F80020C9B281F3118831681344B9
:10A4B0000CFB01F2A2EB0B02B2FBF1F20CFB03234B
:10A4C00034E6EFF3118189F31288D0F808B00368FD
:10A4D000DB0344BFC8F800A0D0F808B02368D8F860
:10A4E0000020C9B281F31188316813440CFB01F2DA
:10A4F000A2EB0B02B2FBF1F20CFB0323AFE5EFF38F
:10A50000118189F31288D0F808B00368DB0344BFD7
:10A51000C8F800A0D0F808B02368D8F80020C9B265
:10A5200081F31188316813440CFB01F2A2EB0B029A
:10A53000B2FBF1F20CFB03233AE5EFF3118189F34F
:10A540001288D0F808B00368DB0344BFC8F800A045
:10A55000D0F808B02368D8F80020C9B281F3118878
:10A56000316813440CFB01F2A2EB0B02B2FBF1F2D7
:10A570000CFB0323C5E4EFF3118189F31288D0F8B3
:10A5800008B00368DB0344BFC8F800A0D0F808B0E7
:10A590002368D8F80020C9B281F3118831681344C8
:10A5A0000CFB01F2A2EB0B02B2FBF1F20CFB03235A
:10A5B00050E4EFF3118389F31288D0F808C00268E1
:10A5C000D20304D50122C8F80020D0F808C02568BD
:10A5D000D8F800A0DBB283F3118831684FF47A72A7
:10A5E000554402FB01F3A3EB0C03B3FBF1F302FBB5
:10A5F00005350EE4EFF3118389F31288D0F808C013
:10A600000268D20304D50122C8F80020D0F808C09F
:10A610002568D8F800A0DBB283F3118831684FF4C5
:10A620007A72554402FB01F3A3EB0C03B3FBF1F385
:10A6300002FB053559E5EFF3118389F31288D0F851
:10A6400008C00268D20304D50122C8F80020D0F85F
:10A6500008C02568D8F800A0DBB283F31188316800
:10A660004FF47A72554402FB01F3A3EB0C03B3FBE6
:10A67000F1F302FB0535D1E4EFF3118389F312887E
:10A68000D0F808C00268D20304D50122C8F800201F
:10A69000D0F808C02568D8F800A0DBB283F3118891
:10A6A00031684FF47A72554402FB01F3A3EB0C03BB
:10A6B000B3FBF1F302FB053559E4EFF3118389F3A2
:10A6C0001288D0F808C00268D20304D50122C8F865
:10A6D0000020D0F808C02568D8F800A0DBB283F3CA
:10A6E000118831684FF47A72554402FB01F3A3EBF1
:10A6F0000C03B3FBF1F302FB0535FFF7E1BBEFF30E
:10A70000118389F31288D0F808C00268D20304D5F7
:10A710000122C8F80020D0F808C02568D8F800A0A9
:10A72000DBB283F3118831684FF47A72554402FB2F
:10A7300001F3A3EB0C03B3FBF1F302FB0535F0E5EA
:10A74000EFF3118389F31288D0F808C00268D203AE
:10A7500004D50122C8F80020D0F808C02568D8F830
:10A7600000A0DBB283F3118831684FF47A7255444C
:10A7700002FB01F3A3EB0C03B3FBF1F302FB053582
:10A7800078E5EFF3118389F31288D0F808C00268E6
:10A79000D20304D50122C8F80020D0F808C02568EB
:10A7A000D8F800A0DBB283F3118831684FF47A72D5
:10A7B000554402FB01F3A3EB0C03B3FBF1F302FBE3
:10A7C0000535FEE4019ACFE41D463FF0D3FE05F1C6
:10A7D0000C010446E0B12023002283710F4BC271AB
:10A7E000EB6042F015FEA388B3FA83F3C3F11F03B5
:10A7F000012212FA03F33FF4BBAA09490A68134382
:10A800000B60FFF7B5BA3021FFF7CABA0821D7E5C8
:10A81000024BEB6042F0FCFDFFF7AABAC1860008CC
:10A82000003C01402DE9F84F037C02681F2B86BFD6
:10A83000203B51681168202202FA03F30B4214BF37
:10A84000012300230BB9BDE8F88F4569DFF878A133
:10A850006F01044609F0BAFA7B190AEBC3030646F6
:10A860001A7C002A34D153495A680978D2F80090EA
:10A87000C9B9D96F58890A6822F001020A60B9F88B
:10A880000C3023EA0003A9F80C304B4B1B78002B4B
:10A8900031D1237C21681F2B13D8202202FA03F325
:10A8A0008B60BDE8F88F5269136823F001031360D1
:10A8B000B9F80C3023F480731B041B0CA9F80C307E
:10A8C000E3E7203B202202FA03F3CB60BDE8F88FD8
:10A8D000DE6F3A485F8901225A7431685A6803680A
:10A8E000156821F001013160AA89013322EA0702CB
:10A8F000AA810360CDE72F44FF000AEB070530373C
:10A90000D5F87C80404611F0ADFB01232B74D5F8BF
:10A9100080B009F05BFA0AEB0701CBF82C0148463E
:10A9200011F060FCD5E91470EB6BD5E916123B43CE
:10A9300003430B4313432A6E2F6FD8F800002049BE
:10A9400013436A6E13436A6F3B43014013430B4347
:10A950000022AA64C8F80030D8F81420AB6EE96C65
:10A9600022F0070CEA6ED5E91070134343EA0C039A
:10A97000C8F81430C8F80410C8F80870C8F80C00FB
:10A98000D8F80020EB6F95F87800696842F0100263
:10A99000C8F8002058601A68096842F001021A607D
:10A9A0008B896A8913438B8109F010FA054B801B50
:10A9B00018606EE7B4320010B03200108C810020B5
:10A9C0003F801CF05C310010F4C5002020B10078FD
:10A9D000B0FA80F0400970470120704708B5202187
:10A9E0004AF0D1FA0346184623B10278202A03F12F
:10A9F0000103F8D008BD037903F01803082B0AD02F
:10AA000002D82BB100207047102B14D0182BF9D18D
:10AA1000B0F80B007047114BB0F80B0093F9003001
:10AA2000591C06BF0E4B1B78DBB2C3EB431300EB84
:10AA3000830080B270470B4BB0F80B0093F90030E5
:10AA40005A1C06BF064B5B78DBB203EB430203EBF9
:10AA5000820300EB430080B2704700BF9D0D0020D1
:10AA600050C300209C0D0020F0B5067906F060036D
:10AA7000402B09D144794FF0FF350023012006F027
:10AA80000706A3420BD1F0BD602B08BF45794FF0FC
:10AA900001040CBF04FA05F54FF0FF35EDE7042E75
:10AAA0000CD8DFE806F0030D18242E0030B1C85C86
:10AAB000D75C784028420CBF012000200133E0E73A
:10AAC0000028FBD0C856D756A0EB070CDCF10000DD
:10AAD00040EB0C00F2E70028F0D031F8130032F818
:10AAE0001370784028420CBF01200020E6E70028C0
:10AAF000E4D031F9130032F91370C71B7842784162
:10AB0000DCE70028DAD051F8230052F823707840AF
:10AB100028420CBF01200020D0E7024B01461868F4
:10AB200040F08CBB8C43002038B5064D441E14F811
:10AB3000011F286819B9BDE8384040F0F9BA40F063
:10AB40007DFBF4E78C4300200048EDE7F60506089E
:10AB500008B5FFF7E9FFBDE80840F5E710B5044682
:10AB60000348FFF7E1FF2046BDE81040F0E700BFD3
:10AB7000A4C9050838B5074C074DAC4203D3074BB1
:10AB800000221A7038BD6288D4E9010148F0C0FE85
:10AB90001434F2E790010008300700084CAE0020A2
:10ABA00038B5074C074DAC4203D3074B01221A704E
:10ABB00038BD6288D4E9011048F0AAFE1434F2E7E7
:10ABC00090010008300700084CAE0020024A1368CC
:10ABD00023EA00001060704730D80020DFED2E7AA5
:10ABE000B4EEE70AF1EE10FA4ADDDFED2C6A9FEDD4
:10ABF0002C7A01E0B0EE670AB4EEC70AF1EE10FA63
:10AC000070EE667AF6DC9FED277AF4EEC77AF1EE05
:10AC100010FA3ED5DFED216A9FED237A01E0F0EED8
:10AC2000407AF4EEC77AF1EE10FA37EEA60AF6D4BF
:10AC3000DFED1E7AB4EEE70AF1EE10FA14DDDFED77
:10AC4000167A37EEC00A60EE006A9FED196A9FED32
:10AC5000197ADFED197AA6EE867A20EE266AE6EEFC
:10AC6000877AA6EE270A7047DFED147AB4EEE70A7A
:10AC7000F1EE10FA44BFDFED0B7A37EEC00AE2E7DF
:10AC80009FED087AF0EE407AF4EEC77AF1EE10FA12
:10AC9000C0D4B0EE670ACBE7DB0F4940DB0FC940F9
:10ACA000E4CB1641DB0F49C0E4CB16C1DB0FC93F33
:10ACB00092E741B99730083C15A82ABEDB0FC9BFFF
:10ACC000F0EEC07AB0EEE07AB4EEE77AF1EE10FA88
:10ACD000B4BFB0EE676AB0EE476AB5EE406AF1EE17
:10ACE00010FA46D0B4EEE77AF1EE10FA8CBFF0EE2F
:10ACF000675AF0EE475AC5EE866A9FED1F3A9FED00
:10AD00001F6A9FED1F4A9FED1F5ADFED1F3ADFEDCF
:10AD10001F4ADFED1F5AA6EEC36AE6EEA34AA6EE6F
:10AD2000864AB7EE006AA6EE845AA6EEA46AE6EE5C
:10AD3000855AC5EE866AB4EEE77AF1EE10FA48BF9E
:10AD4000DFED147AF5EEC00A48BF77EEE66AF1EE61
:10AD500010FA48BFDFED107AB5EEC00A48BF77EEB3
:10AD6000E66AF1EE10FA48BFF1EE666AB0EE660AE6
:10AD70007047DFED076ADEE739094E3DE3B59E3ED9
:10AD800088FA163E45FE7F3F99FB243F69A2163E96
:10AD9000A7DFA834DB0FC93FDB0F4940DFED317A75
:10ADA00030EE277AFDEEC76A16EE903A2033402B3C
:10ADB00002D99FED2D0A7047B4EEE70AF1EE10FAC2
:10ADC0004DDD9FED2A6ADFED2A6A01E0B0EE677A79
:10ADD000B4EEE67AF1EE10FA77EE467AF6DC9FED05
:10ADE000257AF4EEC77AF1EE10FA35D5DFED1F6A59
:10ADF0009FED217A01E0F0EE407AF4EEC77AF1EEB1
:10AE000010FA37EEA60AF6D4DFED167AB4EEE70AAA
:10AE1000F1EE10FA1BDCDFED197AB4EEE70AF1EE81
:10AE200010FA44BFDFED137A37EEC00A60EE006A15
:10AE30009FED136A9FED137ADFED137AA6EE867A03
:10AE400020EE266AE6EE877AA6EE270A7047DFED47
:10AE50000F7A37EEC00AE9E7B0EE670AD4E7F0EE02
:10AE6000477ABCE7DB0FC93F00000000DB0FC94099
:10AE7000E4CB1641DB0F49C0E4CB16C1DB0FC9BFE1
:10AE800092E741B99730083C15A82ABEDB0F49402C
:10AE900010B44C09012250F8243001F01F0102FACD
:10AEA00001F123EA010340F824305DF8044B7047B8
:10AEB00010B44C09012250F8243001F01F0102FAAD
:10AEC00001F10B4340F824305DF8044B704700BF9C
:10AED0004B0901F01F0150F82320012303FA01F16F
:10AEE000114214BF18460020704700BF2DE9F043FF
:10AEF000002489B006460D461F46A04605E02529D8
:10AF00000CD030460134A847039A531C03931178A0
:10AF10000029F4D1204609B0BDE8F083931CCDE9A7
:10AF200003385078302842D0A0F13003DBB2092B2F
:10AF30004FF0000945D96C282AD0642873D019D95C
:10AF4000732858D063D9752840F0828007F1040C2B
:10AF5000386805AB00220A216746FDF781F905AB89
:10AF6000049A009329464B463046FDF74FF8039A62
:10AF70000444CAE725283CD051D958286BD063280F
:10AF8000C2D139783046A84704370134039ABCE768
:10AF9000039B5A1C03921B78642B52D016D8252B86
:10AFA00027D064D9582B18D0632BEAD0ADE7D31C37
:10AFB00003939078A0F13003DBB2092B4FF0010925
:10AFC000B9D804AA03A944F05FF9B4E7732B12D0EF
:10AFD00051D9752B2DD0782B97D1A3F15802B2FA05
:10AFE00082F23868520905AB10210437FDF738F9B1
:10AFF000B5E7252185E73B68049A0093294600239D
:10B000003046FDF703F804370444039A7DE76E28C1
:10B010007FF47AAF039A3B6804371C6075E7002819
:10B020003FF478AF70E7386805A9FDF7E3F8043717
:10B0300095E7386805AB00220A21FDF711F90437BE
:10B040008DE73B1D386805A91F46FDF7D3F886E755
:10B0500078287FF459AFA0F15802B2FA82F238682A
:10B06000520905AB1021FDF7FBF8043777E7002BF9
:10B070003FF450AF49E76E2BCDD046E710B5064CF4
:10B080000B46024605492068FFF730FF2068BDE8FF
:10B09000104040F04DB800BF8C430020618E000886
:10B0A00038B504460D460848FFF73EFD29462046C0
:10B0B000FFF7E4FF0548FFF737FD054B1B7813B199
:10B0C000044B01221A7038BDA9C90508B4C9050886
:10B0D000E8440020E94400200FB407B504A951F862
:10B0E000040B0191FFF7DCFFFFF72EFD03B05DF8C5
:10B0F00004EB04B0704713460A4601460048EBE7EC
:10B10000B8C905080048E7E7D1C905080FB407B575
:10B1100004A951F8040B0191FFF7C2FF03B05DF8D9
:10B1200004EB04B070470FB407B504A951F8040B41
:10B130000191FFF7A3FFFFF707FD03B05DF804EBF4
:10B1400004B070470FB407B504A951F8040B01917E
:10B15000FFF794FF03B05DF804EB04B070472DE9EE
:10B16000F843037903F06001202928D002D849B1BF
:10B17000BDE8F883402945D06029F9D12448BDE8CD
:10B18000F843D0E703F00703022B02D0042B08D0CA
:10B190006BB9B0F80720B0F805101E48BDE8F843B9
:10B1A000C1E7D0F805201B48BDE8F843BBE7B0F97C
:10B1B0000720B0F905101748BDE8F843B3E7457913
:10B1C000154E1648FFF7B0FC06EBC502002492F8B6
:10B1D00004800123A04502D8BDE8F843B4E456F842
:10B1E000357057F824204FEA84094AB113B90C4846
:10B1F000FFF79AFC57F809100A48FFF7A3FF00234E
:10B200000134E7E741790848BDE8F8438BE700BF20
:10B2100019CA0508DDC9050848970508F4C90508D5
:10B2200005CA0508DAFA050808CA05082DE9F0413B
:10B230001746027902F06003402B05460C462BD1DD
:10B240000026524FDFF8608115E02B7903F00703E9
:10B25000022B15D0032B19D0012B14BFA15DA157D0
:10B260003846FFF76FFF6B79013BB34202DD404682
:10B27000FFF75AFC01366B79B342E6DCBDE8F0819A
:10B2800034F816103846FFF75DFFECE734F9161076
:10B290003846FFF757FFE6E702F00702042A67D8AF
:10B2A000DFE802F0031E27292C002478202B3CD055
:10B2B000602B49D0002BE1D1B5F80560B5F80780C7
:10B2C00032482146FFF73EFFA64249DCA04547DB56
:10B2D000002FD3D0424631462D48BDE8F04131E73A
:10B2E00094F90040202B20D0602B2DD0002BC5D10D
:10B2F00046E02488DAE7B4F90040F3E72668202B1B
:10B30000344612D0602B1FD0002BB7D131461F48D6
:10B31000FFF718FFD5F805108E4221D8002FADD0C9
:10B320001C48BDE8F0410DE700246A791A4B03EB95
:10B33000C2010979A14213DD53F8323053F82400D9
:10B34000BDE8F041FFF7F0BB6A791441E30703D58C
:10B350001248BDE8F041F5E61148BDE8F041F1E6DC
:10B36000FFF7F2FB224629680E48BDE8F041CDE622
:10B37000202BD9D0602BEFD0002B7FF47FAF1C4661
:10B38000B5F90560B5F907809AE700BFF1C905086E
:10B3900009FB050833CA0508489705082ECA0508A1
:10B3A000A4F3050839CA050831CA05080CB407B565
:10B3B00010F020000BD079B92320FFF7AEFB05A9D0
:10B3C00004980191FFF75AFEFFF7BEFB012003B07E
:10B3D0005DF804EB02B070470020F8E70CB4C30638
:10B3E00007B500D561B905A904980191FFF746FE9C
:10B3F000FFF7AAFB012003B05DF804EB02B0704731
:10B400000020F8E70EB400B584B005AB019053F806
:10B41000042B0649039301A8FFF768FD019B002256
:10B420001A7004B05DF804EB03B0704701800008A7
:10B4300070B406688E4217D90139751E002311F8C1
:10B44000014F0822634013F0800F4FEA430318BFF7
:10B4500083F0D503013ADBB2F5D18D42EFD1721CF6
:10B460000260337070BC7047721C0023026033703E
:10B4700070BC70470A44914215D010B40139541E73
:10B4800011F8012F0823504010F0800F4FEA4000C0
:10B4900018BF80F0D500013BC0B2F5D1A142EFD179
:10B4A0005DF8044B704770474840082310F0800F48
:10B4B0004FEA400018BF80F0D500013BC0B2F5D183
:10B4C000704700BF0A44914215D030B40139551E6F
:10B4D00041F2210211F8014F082380EA04200404FC
:10B4E0004CBF82EA40004000013B80B2F7D18D4260
:10B4F000F0D130BC7047704770B502221349144C2C
:10B50000144E4FF6FF70FFF7DDFF22884AB1A518F1
:10B51000B54218D2052A16D92146FFF7D3FF2C468B
:10B52000F3E721460222FFF7CDFF0222A118FFF721
:10B53000C9FF094BE41A094B1C8041F60F53C31A8B
:10B540005842584170BD0020FCE700BF0040000891
:10B550000240000800800008FA3F00084EAE0020BC
:10B560000F4B2DE93048D3E9004554EA05020AD1D2
:10B57000034640F2011200201880988098715A808A
:10B580001881BDE83088074B1A6814EB020B45F1AF
:10B59000000C5A466346FCF775FD0120BDE8308873
:10B5A0009058002020B9002030B403888278C478F5
:10B5B000154DA3F5FA6303F0030101EB4101013AD4
:10B5C00002EB81029B0835F812500279611E40F2AD
:10B5D000B55404FB03132B4403EB430302EBC303F7
:10B5E0004279847909490089C3EB031302EB830391
:10B5F0002144C3EB031301EB83034FF47A72002160
:10B60000C2FB030130BC70470050050880436D3811
:10B610002DE9F04707468CB01E469246002A5CD1C1
:10B62000154614460A88B2F5FA6F36D38B78581E41
:10B630000B2832D891F803C00CF1FF301E282CD80B
:10B6400091F804E0BEF1170F27D891F80590B9F1F1
:10B650003B0F22D888793B281FD8B1F80880B8F56D
:10B660007A7F1AD24FF001085EBB09890491002C41
:10B67000B4BF2D212B21002CB8BF6442CDE902902C
:10B68000CDE905140795CDE900CE38462A49FFF7E4
:10B69000B9FE40460CB0BDE8F08700232749ADF85D
:10B6A00028304FF0010C18468DF82A30ADF82C30B8
:10B6B00099469E461A4698460991634609A9002E66
:10B6C000D3D0CDE90290CDE900CE38461C49FFF732
:10B6D00099FE40460CB0BDE8F0871A4C84FB02345A
:10B6E000A318D417C4EB6314C4EB0415A2EB8505AF
:10B6F0002DB2002D0846B8BF6D42FFF755FF4FF43D
:10B700007A7200238046894647F064FE3C230AFB98
:10B71000030A4FF47A7200234046494647F05AFE26
:10B720004FF47A7192B20023C1FB0A2309A8FCF7F7
:10B73000A9FC24B209A975E728CB0508000001017E
:10B7400008CB0508898888880378202B024600F1F9
:10B750000100F9D0092BF7D02D2B00F0A4802B2B62
:10B7600003BF5378B7EE000A0246B7EE000AA3F112
:10B770003001C8B209289FED577A10D8F2EE046A5A
:10B7800007EE901AF8EEE77A12F8013FE7EE267A14
:10B79000A3F13001C8B20928B0EE677AF0D92E2B98
:10B7A00063D003F0DF03452B02D020EE070A704779
:10B7B00010B451782D294FD02B2979D0A1F1300325
:10B7C000092B02F101027AD80024002303EB830342
:10B7D00001EB430312F8011FA1F130000928A3F186
:10B7E0003003F3D9B3F59A7F1A4628BF4FF49A7203
:10B7F000072B6CD9DFED386A1346F7EE007A083B69
:10B80000072B67EEA67AFAD802F00702DAB1F2EE59
:10B81000046A012A67EEA67A15D0022A67EEA67A94
:10B8200011D0032A67EEA67A0DD0042A67EEA67A15
:10B8300009D0052A67EEA67A05D067EEA67A062A11
:10B8400018BF67EEA67A002C3BD087EE277A5DF80A
:10B85000044B20EE070A70479178A1F13003092BC1
:10B8600002F1020230D80124AFE75378A3F130018E
:10B87000C8B2092802F1010293D8F2EE046AF0EE90
:10B88000665A07EE901AF8EEE77A12F8013F87EE53
:10B89000A66AA3F13001C8B2092866EEA56A37EEA0
:10B8A000067AEED97DE75378BFEE000A02465EE7DE
:10B8B0009178A1F13003092B02F1020284D9F7EE4D
:10B8C000007A27EE277AC2E7F7EE007ABDE7F7EEB7
:10B8D000007A9BE70000000020BCBE4CB5EEC00A19
:10B8E000DFED317AF1EE10FACCBF30EE270A30EE00
:10B8F000670ADFED2E7A20EE270A30B5FDEEC07A1A
:10B9000087B017EE904A054684EAE470002303A945
:10B91000A0EBE470CDE90033029345F06FFD002CFD
:10B92000ACBF20232D2303A88DF8003047F05CF82E
:10B93000012803A924D002282DD0032805BF3023D5
:10B94000684668468DF8013049F00EFB684647F0BE
:10B950004BF80338C4B222466946284649F03AFB00
:10B9600000232B55284647F03FF82E22431C2A542B
:10B970000DEB0401E81849F013FB284607B030BD71
:10B98000302368468DF801308DF802308DF8033091
:10B9900049F0EAFADAE7302368468DF801308DF88D
:10B9A000023049F0E1FAD1E76F12033A00007A441D
:10B9B000F8B5064615460846B6FBF2F434B905FB61
:10B9C00014640C4B1B5D00F8013BF8BDB4FBF2F7AF
:10B9D0005FB905FB1747074B05FB1464DA5D00F8F8
:10B9E000012B1B5D00F8013BF8BD3846FFF7E0FF77
:10B9F000EFE700BF58CB050802B370B48E1803E020
:10BA0000121B14D1B14215D010F8012BA2F1410341
:10BA1000192B11F8013BA3F1410598BF2032192DD4
:10BA200003F12004ECD9D21A01D1002BEAD110463F
:10BA300070BC70470022104670BC704710467047BB
:10BA400070B5044608460D4646F0CEFF064602E0B5
:10BA500014F8013F43B1324629462046FFF7CCFF98
:10BA60000028F5D1204670BD1C46204670BD00BFA1
:10BA70004FF0FF32FFF7C0BFA0F16103192B98BF51
:10BA800020387047A0F14103192B98BF2030704730
:10BA9000202805D0093804288CBF002001207047D9
:10BAA000012070472DE9F0411F46064603461C78E9
:10BAB0002046FFF7EDFF1D4601330028F7D12B2C60
:10BAC00051D02D2C24D0102A804628D04FF0FF339F
:10BAD000B3FBF2F302FB03FC6FEA0C0C5FFA8CFC85
:10BAE000013500200BE0303CE4B2944225DA984264
:10BAF0002E461DD81AD002FB004015F8014B392CF8
:10BB0000F1D944F02004602C17D9573CE4B2ECE79B
:10BB10004FF00108102A6C7805F10105D6D1302CC0
:10BB200023D06FF070434FF00F0CD9E76445E2D992
:10BB300007EA08084FF0FF30DFE701B10E60B8F107
:10BB4000000F08D027B1B0F1004F28BF4FF00040E0
:10BB50004042BDE8F081002FFBD06FF000439842D7
:10BB600028BF1846F5E78046D4E76C782046FFF7F3
:10BB700089FF782805F1010605D035466FF070433E
:10BB80004FF00F0CACE7AC786FF0704302354FF01C
:10BB90000F0CA5E701230A22002183E770B50D46AB
:10BBA0001446FEF71BFF0646A0B1FFF7F3FF40F671
:10BBB00034039842A8BF1846B0F5617FB8BF4FF470
:10BBC00061701923A0F5617090FBF3F02870237861
:10BBD000013323703046FEF701FF0646A0B1FFF7A0
:10BBE000D9FF40F634039842A8BF1846B0F5617FEC
:10BBF000B8BF4FF461701923A0F5617090FBF3F0AA
:10BC00006870237801332370304670BD613819287D
:10BC10008CBF002001207047413819288CBF0020BC
:10BC200001207047303809288CBF00200120704760
:10BC3000A0F13003092B07D920F020004138192842
:10BC40008CBF0020012070470120704707EE901A3A
:10BC5000F8EE677A9FED807A27EE800A20EE070AD9
:10BC6000FDEEC07A17EE903A2033402B7BD8DFED03
:10BC70007B7AB4EEE70AF1EE10FA40F3E180B0EE21
:10BC8000407A9FED776ADFED776A01E0B0EE677A80
:10BC9000B4EEE67AF1EE10FA77EE467AF6DC9FED36
:10BCA000727AF4EEC77AF1EE10FA40F1CC809FED93
:10BCB0006C6ADFED6E6A01E0F0EE477AF4EEE67A48
:10BCC000F1EE10FA37EE867AF6D4DFED697AB4EE4B
:10BCD000E77AF1EE10FA40F3A280DFED607A37EEFA
:10BCE000C77A27EE076ADFED635ADFED637ADFED8F
:10BCF000636A9FED635AE6EE257A67EE065AE6EE32
:10BD0000276AF7EE007AA5EEA67AF0EE675AE7EE1C
:10BD1000055AE7EE457A87EEA55ADFED557A30EE03
:10BD2000277AFDEEC76A16EE903A2033402B1FD9D2
:10BD30009FED547AF6EE006AB7EE006AF7EE004A1D
:10BD4000C4EEA57A80ED045A67EEA66A27EE866AED
:10BD500027EE877AC0ED006AC0ED026A80ED016AC5
:10BD600080ED037A7047B7EE005AF0EE455AD4E7FB
:10BD7000B4EEE70AF1EE10FA6BDD9FED396ADFED04
:10BD8000396A01E0B0EE677AB4EEE67AF1EE10FAC5
