:020000040800F2
:10000000F0FF0010D5F904084BB10208F58F010884
:1000100075FA040875FA040875FA0408000000006F
:1000200000000000000000000000000051B10208C4
:100030004FB10208000000004DB1020855570108F9
:1000400075FA040875FA040875FA040875FA0408C4
:1000500075FA040875FA0408819E0108AD9F01082D
:10006000719F0108359F0108F99E0108C920030806
:10007000B9200308A9200308992003088520030854
:10008000712003085D20030875FA040875FA040856
:1000900075FA040875FA040875FA0408BD9E01088B
:1000A000F53C010859400108E53C01088140010880
:1000B000993F0108D93E01080D3E01085D40030843
:1000C000654003084D4003085540030875FA0408CD
:1000D00075FA0408D1570108C5570108B957010836
:1000E000459E010875FA040881F00208D53C010814
:1000F000053D0108C53C01082D3D010849200308C4
:1001000075FA040875FA04083D3D010875FA0408FB
:10011000AD570108A157010879500408655004083B
:1001200035200308212003080D200308F91F0308C8
:10013000E51F030875FA040875FA040875FA04083F
:1001400075FA040875FA040875FA04084DC2020825
:10015000D11F0308BD1F0308A91F030895570108F5
:100160003D4003084540030875FA040875FA040881
:1001700075FA040875FA040875FA040875FA040893
:0801800075FA040875FA040881
:080188007CF5040001000000F9
:100190002C001000B4210020A42100200000000049
:1001A000C39300082B002400E8210020C421002074
:1001B000000000009593000829207800A42000206A
:1001C0000C22002000000000000000002810100099
:1001D000942200208422002000000000D98800081A
:1001E0001C021000481D0020A42200200000000076
:1001F000D9B4010820320A00C0220020B422002015
:100200000000000061880008140003000C2000209A
:10021000CC220020000000001C070008012008007C
:1002200044180020D0220020000000002007000811
:100230000A702800C0170020D8220020000000000B
:10024000818800080EA074014C16002000230020B5
:10025000000000004D41030801010400B01500201A
:1002600074240020000000000000000000010400D1
:10027000A8150020782400200000000028070008AE
:1002800002010300A41500207C24002000000000CF
:10029000993804081A023C00A0240020B829002044
:1002A0000000000049B80108270004009424002041
:1002B000F4290020000000002C0700081F02100095
:1002C000602E0020502E00200000000061B60108C2
:1002D000090201002C4500209C4500200000000080
:1002E000300700080C109C00B8430020A0450020F7
:1002F000000000006D380408010205004C43002096
:100300003C460020000000004528020800020500CD
:10031000444300204446002000000000000000008C
:100320001B021000184300204C4600200000000073
:1003300003B501081E000600844000205C46002032
:1003400000000000320700081B100C009030002055
:1003500064460020000000008D3D02082102F000EC
:10036000102F00207046002000000000E534020835
:1003700037102400B4420020604700200000000035
:10038000380700080E02020088440020844700203D
:10039000000000005C07000816100600742E002004
:1003A00088470020000000005E0700082F10220090
:1003B00078450020904700200000000064070008F6
:1003C000051006006C3F0020B4470020000000002C
:1003D0008607000823100E00CC3F0020BC470020F9
:1003E00000000000F1880008F5518C007C2E0020F0
:1003F000CC47002000000000ED6F020826100C0022
:10040000B4590020A859002000000000D19C020827
:100410000B3018005C520020EC5900200000000056
:100420008C0700081F302400D0490020045A002007
:1004300000000000A407000805020400E8530020A3
:10044000285A002000000000C807000803010A0025
:10045000FC5100202C5A002000000000CC070008AE
:10046000130204007C480020385A002000000000DD
:10047000D607000810020100605A00205C5A0020D4
:1004800000000000DA070008031233002C6200208D
:100490006862002000000000DC07000825102C0125
:1004A0000C6000209C6200200000000000000000A2
:1004B00010100200F45F0020C8630020000000005C
:1004C000100800081A000E00A45F0020CC63002072
:1004D000000000001208000819000500E85E002076
:1004E000DC6300200000000020080008F82106005E
:1004F000585D0020E463002000000000260800088A
:1005000015007000885B0020EC63002000000000F4
:10051000000000002A006000445F00205C640020AE
:100520000000000025410308070202007469002052
:10053000BC690020000000002C080008F6210C0017
:100540004C690020C069002000000000300800084D
:1005500002000C0040690020CC690020000000006F
:100560000000000006020C0034690020D869002059
:1005700000000000D9B8010808120F00B868002078
:10058000E4690020000000001DB60108F701060024
:10059000AC680020F4690020000000003C0800085E
:1005A0000A020A0020680020FC6900200000000008
:1005B000C13B040803000100A0680020086A002075
:1005C00000000000000000000D003C0058970020D3
:1005D00044A100200000000065F003080400800032
:1005E000E08D002080A1002000000000000000003D
:1005F000F9010400CC8D002000A2002000000000C2
:100600001927010813000400C88D002004A200204F
:100610000000000044080008FD011E00A88D002015
:1006200008A2002000000000A126010818202E00CA
:10063000748D002028A2002000000000DDB7010812
:1006400006101A00B478002058A200200000000014
:10065000AD410308FB010100B078002074A2002026
:1006600000000000D5B90108FC0109007C770020DA
:1006700078A2002000000000E5B9010816023F0042
:100680003477002084A20020000000003DB501085E
:100690003400100064760020C4A200200000000096
:1006A00081410308110208003C760020D4A20020FA
:1006B00000000000480800081212040034760020F0
:1006C000DCA20020000000005008000812201000EA
:1006D00024760020E0A2002000000000540800085A
:1006E000020203005C6A0020F0A20020000000006B
:1006F000000000000C020400186A0020F4A2002090
:100700000000000049B60108FE011400BC6C002086
:0C071000F8A200200000000015B5010850
:10071C0003000000E8036400040A000190010000DB
:10072C002003000020000000010000002000320027
:10073C00C800D0079600140032002800B004400610
:10074C000005500014000F000800640001000100B7
:10075C000000C409000019000000000000000000A7
:10076C00000000000000000000000000000000007D
:10077C000000000000000000000020000301000049
:10078C00AE014A015E012C01640101000000010070
:10079C000A019A01001E0A0000000000000100007E
:1007AC000005000001020300000000000000000032
:1007BC0000000000000000000080070000000000A6
:1007CC00040101006C160000000000000100000094
:1007DC00000000000000000000000000000000000D
:1007EC0000000000000000000000000000000000FD
:1007FC0000000000000000000000000000000000ED
:10080C000000010000057E05EA05B4053200E8038E
:10081C00D00700000000280100000401F4011400BE
:10082C00033C000000000000010000000202000078
:10083C002301000000000000080040300000000010
:10084C0001010101FFFFFFFF000000010000054650
:08085C004F52330000080000B8
:100864000100000015800008000000005C1305086A
:1008740020700020702D7200FFFFFFFF010101D6E0
:100884000100000000010101002D202D2D202D2D3F
:100894002D2D202D2D2D0000000000000000000053
:1008A4000000000000000000000000000000000044
:1008B4009C2505080000000000000000282605080B
:1008C40001000000FA000000010000000100000027
:1008D400010100001618002000C8010015180020AE
:1008E4000050010014180020005A010012180020C2
:1008F4000200000034150508347C05083C7C05081A
:10090400EE9700200100C40900000000EC970020CD
:100914000100C40900000000EA9700200100C40996
:1009240000000000E89700200100C4090000000056
:10093400E49700200100C40900000000E6970020AD
:100944000100C40900000000E29700200100C4096E
:1009540000000000E09700200100C409000000002E
:10096400C61500200100C80001000000C4150020C5
:100974003200307532000000C2150020055A05000F
:10098400BF15002000FF0100C11500200100000078
:1009940020020020BD15002002000000805505083B
:1009A400BE15002000FF0100C0150020010000005A
:1009B40020020020BC15002002000000805505081C
:1009C40050180020EE02CA08010000004E18002052
:1009D40000C80100640000004D18002000C8010098
:1009E400640000004C1800200200000040150508B7
:1009F400B615002080C1803E05000000B41500201B
:100A040080C1803E05000000AE15002080C1803EFC
:100A140005000000AC15002080C1803E05000000E8
:100A2400A715002000FF0100A01500206400F401B8
:100A3400010000009F150020040000004C1505086B
:100A44009E15002002000000601505083D160020D8
:100A54000D0000006C1505083A1600200064010022
:100A640038160020320010270A0000003716002034
:100A74000D0000006C150508361600200D0000005E
:100A84006C1505083516002002000000A4150508A1
:100A94000000000000000000B0150508A05300206D
:100AA4009CFF2C01000000005E1B0020E0150C17C9
:100AB40000000000601B002002000000E81505088B
:100AC4005C1800200100FF7F010000005B1800207B
:100AD40002000000F41505083F1600200300000082
:100AE400041605083E16002003000000041605083D
:100AF400F41700200000E80301000000F2170020B2
:100B04000000E80301000000F01700200000E803E3
:100B140001000000EE1700200000E80301000000BF
:100B2400EC1700200000E80301000000EA17002091
:100B34000000E80301000000E91700200014010090
:100B4400E817002003000000141605080018002010
:100B54000000F40101000000FE1700200000F40171
:100B640001000000FC1700200000F4010100000057
:100B7400FA1700200000F40101000000F81700201B
:100B84000000803E01000000F61700200000803EB7
:100B94000100000029180020196401002818002011
:100BA400020000002416050826180020E803D007D8
:100BB4000A00000024180020006401000A0000005C
:100BC40019180020006401001818002000640100B6
:100BD40020180020006401000A0000001F180020F3
:100BE400006401000A0000001E18002000640100D7
:100BF4000A00000023180020006401000A0000001D
:100C040022180020006401000A00000021180020BE
:100C1400006401000A0000001D18002001FF01000B
:100C24000A0000001C18002001FF01000A00000057
:100C34001B18002001FF01000A00000048160020D4
:100C44000000F40101000000461600200000F40139
:100C540001000000441600200000F401010000001F
:100C6400421600200000F40101000000401600209C
:100C74000000F401010000001118002000640100CC
:100C840010180020006401000F1800200064010007
:100C94000E180020FF0801000D1800200164010057
:100CA400F5850008B9850008301605080C180020E1
:100CB400006401000A1800201400E8030100000089
:100CC40008180020E80330750A0000000618002008
:100CD40000C801000518002000C801000418002005
:100CE40000C8010003180020006401000A0000008D
:100CF400401800200000D007010000003B1800202D
:100D040000C801003A18002000C80100391800206A
:100D140000C801003E1800200000D00701000000B8
:100D24003818002000C801003718002000C801004E
:100D34003618002000C801003C1800200000D0072D
:100D4400010000003518002000C8010034180020FC
:100D540000C801003318002000C801000000000092
:100D640029830008A016050833160020310000006E
:100D74003C1705083216002000C801003016002078
:100D8400E803D0070100000046465F464F5254492D
:100D94004E4946345F52455630330000BB1500209F
:100DA40000030100BA150020000301008982000835
:100DB40061820008041805081D820008D18100081A
:100DC40058180508B182000845990008D818050884
:100DD400B815002001030100558700082987000881
:100DE400CC1B05086181000821810008301C05081E
:100DF4003F83000861990008CC1C0508FD94000895
:100E040000000000741D0508B9960008B5870008A5
:100E1400101E05089183000800000000801E0508CC
:100E24006984000815840008E41E0508F984000894
:100E3400BD840008801F05083186000879860008F3
:100E4400002005081718002001060100D9830008B6
:100E5400A5830008FC20050835850008219A0008B0
:100E64006C210508AD860008A59A00084C220508E7
:100E74000218002001030100F9820008C982000859
:100E8400202305088187000800000000842305084A
:100E9400A181000815990008E82305080000000056
:100EA4000000000074240508018700081D9B000849
:100EB400F42405089A15002088136F170100000018
:100EC4009C15002088136F17000000003298002042
:100ED4000000000000000000309800200000000026
:100EE400000000002E980020000000000000000018
:100EF4002C98002000000000000000002A98002028
:100F040000000000000000002898002000000000FD
:100F140000000000500B0020000000000000000052
:100F240070150020020000007C260508981500209A
:100F340088136F1701000000E053002088136F1717
:100F440000000000B58000080000000088260508A5
:100F5400AA1B002001000000DC260508E253002043
:100F640001000000E8260508D85300200200000014
:100F7400F02605080000000000000000FC2605081B
:100F8400A180000800000000982705080000000068
:100F940000000000EC27050800000000000000002D
:100FA4005C280508DC530020E0150C170000000045
:100FB400FFFF0100A00F0000B80B00000102FFFFBB
:100FC40001000000FFFFFFFF70D2050800000802C7
:100FD4000503030078D20508010008020504030094
:100FE400E8E405080200FE0101100300907F0508F3
:100FF400030014020003000080D2050804001F024D
:101004000100080088D2050805001F02010108003C
:10101400FFFF000000000100E0010000FFFFFFFFF0
:10102400080101FFFFFF000004030904120100028C
:10103400EF02014083045632000201020301000062
:101044001201000202020040830440570002010220
:101054000301000009026400030100C03209040016
:1010640000010300000009211101000122260007EC
:1010740005830308000A080B0102020201000904A7
:1010840001000102020100052400100105240100F1
:101094000204240202052406010207058203080053
:1010A400FF09040200020A000000070501024000D3
:1010B400000705810240000009024300020100C04C
:1010C4003209040000010202010005240010010598
:1010D40024010001042402020524060001070582FC
:1010E400030800FF09040100020A000000070501CB
:1010F400024000000705810240000000FF000000DC
:10110400D4580508000000000000000000000000A2
:1011140000000000000000000000000000000000CB
:10112400000000000000000000FFFF0000000000BD
:10113400AA55050100000100A85805080000000098
:10114400000000000000000000000000000000009B
:10115400000000000000000000000000000000008B
:10116400FF1FFF1F05010905A101A10005010930A9
:10117400093109320933093509340940093815811F
:10118400257F750895088102C0C00000090222006D
:10119400010100E0320904000001030102000921F9
:1011A400110100012226000705830308000A00003C
:1011B40000000000010203040102030406070809F9
:1011C400F7B40208FBB302082BB7020863920208C3
:1011D4007B950208739202088F9202083D920208DE
:1011E4002F92020800000000000000002D202D2D89
:1011F400202D2D2D2D202D2D2D2D00000000000043
:101204000000000000000000000000AA550B0100CF
:1012140000AA5507010000AA550902000000AA55BA
:1012240003009F0001000000C0120000C05900200C
:1012340000000000E459002000000000010000004C
:101244000000040100000000000000021000000083
:101254000700000000000000000000000102030479
:1012640006070809FFFFFFFF0000803F00000000A1
:1012740000000000000000000000803F00000000AB
:10128400000000000000000000000000000000005A
:10129400000000000000000000000000000000004A
:1012A4000000803F0000000000000000000000007B
:1012B40001000000FFFFFFFF0000803F000000006E
:1012C4000000000000000000FF000000D1960208AA
:1012D4000395020809B70208000000002D920208D5
:1012E400E9B30208419602086DB302080000000049
:1012F40000000000ED91020843960208C59402081C
:1013040051B6020800000000059202086FB30208FB
:1013140015960208DBB2020800000000000000007D
:10132400F991020800000000AC69002008000000E8
:10133400000000009C690020080000000000803FBD
:1013440078E3050884E3050890E305089CE30508B1
:10135400A8E30508B4E30508A48A05089CAC0508BD
:10136400CCAB05081CE305083491050868E30508BF
:101374006CE3050870E3050874E3050858E3050801
:101384005CE3050860E3050824AA050864E305088E
:101394001900C800F401200358E305085CE30508BC
:1013A400C0E3050860E30508C4E30508C8E30508CD
:1013B400E73B0408000000000000000000000000FB
:1013C40008000000B5910208B3910208B191020827
:1013D400AB910208A9910208AF910208AD910208ED
:1013E400C5910208B7910208419E0208559E020861
:1013F4002D9E0208199E0208039E020801000000A7
:101404000060024010600240000000000000000084
:10141400000B0000000000000000000000000000BD
:10142400006002402860024001000000000000004B
:10143400060C000000000000000000000000000096
:101444000060024040600240020000000000000012
:10145400100D00000000000000000000000000006B
:1014640000600240586002400300000000000000D9
:10147400160E000000000000000000000000000044
:1014840000600240706002400400000000000000A0
:10149400200F000000000000000000000000000019
:1014A4000060024088600240050000000000000067
:1014B40026100000000000000000000000000000F2
:1014C40000600240A060024006000000000000002E
:1014D40030110000000000000000000000000000C7
:1014E40000600240B86002400700000000000000F5
:1014F400362F000000000000000000000000000083
:10150400006402401064024000000000000000007B
:10151400003800000000000000000000000000008F
:101524000064024028640240010000000000000042
:101534000639000000000000000000000000000068
:101544000064024040640240020000000000000009
:10155400103A00000000000000000000000000003D
:1015640000640240586402400300000000000000D0
:10157400163B000000000000000000000000000016
:101584000064024070640240040000000000000097
:10159400203C0000000000000000000000000000EB
:1015A400006402408864024005000000000000005E
:1015B40026440000000000000000000000000000BD
:1015C40000640240A0640240060000000000000025
:1015D4003045000000000000000000000000000092
:1015E40000640240B86402400700000000000000EC
:1015F400364600000000000000000000000000006B
:101604000CD3050840DC050800000000AD380408D0
:10161400A08601000400000000000000000000009B
:1016240000000000000000000000000000000000B6
:1016340000000000000000000000000000000000A6
:101644000CD3050810E50508000000003D2501083D
:10165400E803000004000000000000000000000097
:101664000000000000000000000000000000000076
:101674000000000000000000000000000000000066
:1016840064820508A0AA050800000000E15C0408C3
:101694007D000000060000000000000000000000C3
:1016A4000000000000000000000000000000000036
:1016B4000000000000000000000000000000000026
:1016C4005CD205080000000000000000E14C0108A5
:1016D400E803000003000000000000000000000018
:1016E40000000000000000000000000000000000F6
:1016F40000000000000000000000000000000000E6
:1017040018E505080000000000000000A1A8030877
:10171400102700000300000000000000000000008B
:1017240000000000000000000000000000000000B5
:1017340000000000000000000000000000000000A5
:101744007CD20508000000007D9100085990010832
:101754005F760000050000000000000000000000AB
:101764000000000000000000000000000000000075
:101774000000000000000000000000000000000065
:101784009C8F05080000000000000000C1A40108AF
:10179400102700000100000000000000000000000D
:1017A4000000000000000000000000000000000035
:1017B4000000000000000000000000000000000025
:1017C40024E5050800000000000000004125010890
:1017D400E803000005000000000000000000000015
:1017E40000000000000000000000000000000000F5
:1017F40000000000000000000000000000000000E5
:1018040030E50508000000000000000079550408D8
:10181400204E000003000000000000000000000053
:1018240000000000000000000000000000000000B4
:1018340000000000000000000000000000000000A4
:1018440040E505080000000000000000655304089E
:10185400204E000003000000000000000000000013
:101864000000000000000000000000000000000074
:101874000000000000000000000000000000000064
:1018840050E50508000000000000000001340108D4
:10189400400D0300030000000000000000000000F1
:1018A4000000000000000000000000000000000034
:1018B4000000000000000000000000000000000024
:1018C400CCD305080000000000000000B90904089A
:1018D40010270000010000000000000000000000CC
:1018E40000000000000000000000000000000000F4
:1018F40000000000000000000000000000000000E4
:10190400A48F05080000000000000000E948020858
:101914001027000003000000000000000000000089
:1019240000000000000000000000000000000000B3
:1019340000000000000000000000000000000000A3
:101944007C7E05080000000000000000152401084A
:10195400A861000001000000000000000000000079
:101964000000000000000000000000000000000073
:101974000000000000000000000000000000000063
:1019840060E505080000000000000000058E020864
:10199400A08601000100000000000000000000001B
:1019A4000000000000000000000000000000000033
:1019B4000000000000000000000000000000000023
:1019C400A88F0508000000000000000091580108DD
:1019D400A00F000001000000000000000000000053
:1019E40000000000000000000000000000000000F3
:1019F40000000000000000000000000000000000E3
:101A04006CE50508000000000000000005890208DC
:101A1400102700000100000000000000000000008A
:101A240000000000000000000000000000000000B2
:101A340000000000000000000000000000000000A2
:101A4400A4890508000000000000000049650208A0
:101A54001A41000001000000000000000000000026
:101A64000000000000000000000000000000000072
:101A74000000000000000000000000000000000062
:101A84003C7E050800000000000000008199020867
:101A9400102700000100000000000000000000000A
:101AA4000000000000000000000000000000000032
:101AB4000000000000000000000000000000000022
:101AC40054DC0508000000000000000081BC000890
:101AD4001A410000010000000000000000000000A6
:101AE40000000000000000000000000000000000F2
:101AF40000000000000000000000000000000000E2
:101B040078E505080000000000000000899F020835
:101B1400400D030000000000000000000000000071
:101B240000000000000000000000000000000000B1
:101B340000000000000000000000000000000000A1
:101B440080E50508000000000000000023F0030801
:101B5400400D030000000000000000000000000031
:101B64000000000000000000000000000000000071
:101B74000000000000000000000000000000000061
:101B840088E505080000000000000000C97602088E
:101B940050C300000300000000000000000000002B
:101BA4000000000000000000000000000000000031
:101BB4000000000000000000000000000000000021
:101BC40094E505080000000000000000D952040854
:101BD40040420F0000000000000000000000000070
:101BE40000000000000000000000000000000000F1
:101BF40000000000000000000000000000000000E1
:101C0400A0E505080000000000000000BD04040871
:101C140050C30000000000000000000000000000AD
:101C240000000000000000000000000000000000B0
:101C340000000000000000000000000000000000A0
:041C44000000803FDD
:10800000034B1A780AB901221A700020704700BF8A
:1080100088010020124B134A1978F1B112490978EE
:10802000C1B91249D160124A1249126859601179D6
:108030001972D168D960104919615179197511699E
:1080400099610E49D9619179D26983F820105A62F9
:10805000002070470A49D160E5E70A49D160E2E7AC
:108060007015002088010020E253002060120508EE
:1080700034520020DA530020DB530020DE5300206E
:10808000EC1205085C130508034B1A8D034B4FF0E7
:10809000FF301A80704700BF70150020E0530020A9
:1080A000024B1A88024B00201A857047E0530020CB
:1080B00070150020064B93F90030012B1FBF054BB4
:1080C0009A8D5A85002008BF4FF0FF30704700BFDF
:1080D000500A00207015002008B5064B1A782AB106
:1080E000054A1278012A1CBF00221A70FFF792FF7E
:1080F000002008BDE2530020D8530020064B93F91E
:108100000020064B12B91A70002070471A78002A16
:10811000FAD10122F7E700BF500A0020DE53002009
:108120000D4B0E4A93F82E10517293F82F10917246
:10813000198E118093F8372083F834209A8F1A878C
:10814000DA8F5A87B3F84420A3F84020B3F84620CA
:10815000A3F8422000207047701500205C520020D8
:108160000D4A0E4B517A83F82E10917A12881A8696
:1081700093F8342083F837201A8F9A875A8FDA873A
:10818000B3F84020A3F84420B3F8422083F82F101E
:10819000A3F84620002070475C5200207015002094
:1081A000084A094B92F8882083F84820074A9178BA
:1081B00083F84910D178127983F84A1083F84B205C
:1081C000002070477C2E0020701500204C430020BA
:1081D000104A114892F84C3092F84E1003F00F03F9
:1081E00043EA012392F850100901C9B20B43A0F8E9
:1081F0006E3092F84F1092F84D3092F8512003F003
:108200000F03120143EA0123D2B21343A0F87030E6
:1082100000207047701500207C2E00200E490F4B67
:10822000B1F86E2002F00F0083F84C00C2F3031087
:10823000120A83F84E20B1F8702083F8500002F043
:108240000F0183F84D10C2F30311120A83F8511085
:1082500083F84F20002070477C2E002070150020EE
:10826000074A084B92F8521083F86C10B2F8541079
:10827000B2F85620A3F86810A3F86A2000207047CF
:10828000701500207C2E0020074A084B92F86C10D5
:1082900083F85210B2F86810B2F86A20A3F85410AC
:1082A000A3F85620002070477C2E00207015002077
:1082B00008B568220249034847F05AFC002008BD6F
:1082C0007C2E0020C8150020084A0949B2F8C030A9
:1082D0004B8292F8C23092F8C32003EB83035B0019
:1082E0000B82044B00209A70704700BF701500206D
:1082F000B478002024760020084A094B518AA3F85C
:10830000C010128A0A21B2FBF1F283F8C220054A9A
:10831000927883F8C3200020704700BFB478002013
:10832000701500202476002030B1007910F1FF3064
:1083300018BF4FF0FF3070474FF0FF307047114AC1
:10834000114B528802F0010283F8C4200F4AD17801
:1083500083F8C510117983F8C610517983F8C710D6
:10836000D188A3F8C810117A83F8CA10517A83F81B
:10837000CB101178927A83F8CC1083F8CD200020AE
:10838000704700BFC88D002070150020903000207D
:10839000034B002083F8CE0083F8CF00704700BF66
:1083A000701500200A4B0B4A1B68B2F8D010598098
:1083B000B2F8D210A3F84C10B2F8D4109980B2F8E9
:1083C000D610B2F8D820D9801A800020704700BF9C
:1083D000F4550020701500200D4B93F8DA207C2115
:1083E00001FB02320020B2F8DE10A3F8D010B2F880
:1083F0002811A3F8D210B2F8E010A3F8D410B2F804
:10840000E210B2F8DC20A3F8D610A3F8D820704709
:1084100070150020124B93F8782283F8702293F89D
:10842000792283F87122B3F87A22A3F87222B3F882
:108430007C22A3F874220B4AB3F87E121268A3F8C8
:108440006C12B3F88012A3F86E12B3F88212B3F86C
:108450008432A2F86210A2F864300020704700BF96
:1084600070150020F4550020134B93F8702283F808
:10847000782293F8712283F87922B3F87222B3F844
:108480006C12A3F87A22B3F87422A3F87C22A3F822
:108490007E1293F8DA20B3F86E12A3F880127C21D2
:1084A00001FB02320020B2F83E11B2F84021A3F8DD
:1084B0008212A3F884227047701500200D4BB3F888
:1084C0008622A3F85622B3F88822A3F85822B3F8DC
:1084D0008A22A3F85A22B3F88C22A3F85C22B3F8BC
:1084E0008E22A3F85E22B3F89022A3F86022002027
:1084F000704700BF701500200D4BB3F85622A3F84B
:108500008622B3F85822A3F88822B3F85A22A3F897
:108510008A22B3F85C22A3F88C22B3F85E22A3F877
:108520008E22B3F86022A3F890220020704700BF8B
:10853000701500201E4B1F4993F8922230324A7466
:1085400093F8DA207C2101FB0232002092F82311FB
:1085500083F8931292F8F61083F8941292F8F710B9
:1085600083F8951292F8F81083F89612B2F8101169
:10857000A3F89812B2F80E11A3F89A1292F82B11E0
:1085800083F89C1292F84F1183F89D1292F85011C3
:1085900083F89E1292F84A1183F89F1292F84B11B9
:1085A00092F84C2183F8A01283F8A122704700BFF3
:1085B00070150020880100200D4A92F8DA307C21E5
:1085C00001FB032392F8A21283F8421192F8A3123E
:1085D00083F8461192F8A41283F8431192F8A51279
:1085E00092F8A62283F8441183F8452100207047B1
:1085F000701500200D4B93F8DA207C2101FB02322C
:10860000002092F8421183F8A21292F8461183F8E2
:10861000A31292F8431183F8A41292F8441192F82D
:10862000452183F8A51283F8A62270477015002013
:108630000E4B0F4993F8922230320A7593F8A72215
:1086400030328A7593F8C2220A491A2000FB0212BE
:1086500003F52A7302F1180152F8040B43F8040BD6
:108660008A42F9D112881A800020704770150020C4
:1086700088010020B843002010B50A4A0A4892F841
:10868000C2321A2402F52A7104FB030302F5307288
:1086900051F8040B43F8040B9142F9D10A881A806F
:1086A000002010BD70150020B843002010B5124AFC
:1086B000124992F8923230334B7492F8DA1002F188
:1086C000DC03C1EB411103EB8103002002F2C32163
:1086D00002F533721C7A0C705C7A4C709C7A8C7048
:1086E0009C8922F810400130032803F1060301F1B0
:1086F0000301EFD1002010BD70150020880100207B
:108700000749084B0A7883F8DA20013283F892226D
:108710004A7883F8C222013283F8A72200207047EA
:108720002476002070150020094B93F8DC2283F892
:10873000DB2293F8DD2283F8D82293F8DE2283F837
:10874000D922B3F8E022A3F8D4220020704700BF5A
:1087500070150020094B93F8DB2283F8DC2293F894
:10876000D82283F8DD2293F8D92283F8DE22B3F8E9
:10877000D422A3F8E0220020704700BF701500202B
:108780000A4930B50A4C002201F2E220135DA3F140
:108790006105052D9CBF203BDBB283540132072AC3
:1087A000F4D1002081F8E90230BD00BF701500202F
:1087B000C87B0508084B93F8EA22012A074A05D826
:1087C00093F8EB12032918BF03219170B3F8EC3230
:1087D00013800020704700BF701500206C3F002000
:1087E00010B5044623790E2B00D110BD032B04D104
:1087F000D4F809309868FFF7F3FF0E34F2E70B491D
:10880000D1F8F0329A68134618790E280CD19B1AC9
:108810005A10074B5343013B91F8F92293FBF2F3B3
:10882000013381F8F83270470E33EDE77015002000
:10883000B76DDBB6084BD3F8FC0210B558B1074C46
:10884000A169013191FBF0F200FB121003EB8003F0
:10885000A061D3F8000310BD70150020880100202E
:1088600010B44FF4FA7346F203444FF4C841962211
:108870000480818002814380C3805DF8044B70478F
:1088800030B44FF4987240F29E73104D026003832F
:108890004FF4E17203230E4C0E49C0F81A50C28304
:1088A0000825962280F82030002380F82150C0F857
:1088B00022404161C0F8062003714382C0F80A30AB
:1088C000C0F80E3080F8263030BC70477D0096002E
:1088D000780096000201000100230122C27083701B
:1088E0000380037143718371C371037243727047D4
:1088F00000230A2203604360836083810280704703
:1089000003788B4283BF034B03EB4101B1F81003A3
:108910000020704770150020044B93F8280318B10D
:10892000002283F828230120704700BF7015002023
:10893000F0B4C24D95F84F6305F54B720244B41E76
:108940001444A24200F07881013A013C002341F234
:10895000210112F8017F83EA07231FB2BBB2002F67
:10896000ACBF5B0081EA43039BB21F0454BF5B00B2
:1089700081EA43039BB21F0454BF5B0081EA4303B7
:108980009BB21F0454BF5B0081EA43039BB21F04E8
:1089900054BF5B0081EA43039BB21F0454BF5B00DA
:1089A00081EA43039BB21F0454BF5B0081EA430387
:1089B0009BB21F0454BF5B0081EA4303A2429BB2F7
:1089C000C7D10644B21E013E2A442E4492F82C130D
:1089D00096F82C2302EB012292B29A4201D0F0BC0D
:1089E000704795F85023002A00F02181431CDBB228
:1089F0005C1C2C442B444FF4AF6193F82C6394F827
:108A00002C3303EB06239BB201FB03F31B1303F58B
:108A10004873012AA5F8103300F00981C31CDBB2AA
:108A20005C1C2C442B44022A93F82C6394F82C33BE
:108A300003EB06239BB201FB03F34FEA233303F559
:108A40004873A5F8123300F0F280431DDBB25C1CC2
:108A50002C442B44032A93F82C6394F82C3303EB17
:108A600006239BB201FB03F34FEA233303F548735C
:108A7000A5F8143300F0DB80C31DDBB25C1C2C4472
:108A80002B44042A93F82C6394F82C3303EB06232D
:108A90009BB201FB03F34FEA233303F54873A5F8B8
:108AA000163300F0C48000F10903DBB25C1C2C44D7
:108AB0002B44052A93F82C6394F82C3303EB0623FC
:108AC0009BB201FB03F34FEA233303F54873A5F888
:108AD000183300F0AC8000F10B03DBB25C1C2C44BB
:108AE0002B44062A93F82C6394F82C3303EB0623CB
:108AF0009BB201FB03F34FEA233303F54873A5F858
:108B00001A3300F0948000F10D03DBB25C1C2C449E
:108B10002B44072A93F82C6394F82C3303EB062399
:108B20009BB201FB03F34FEA233303F54873A5F827
:108B30001C337CD000F10F03DBB25C1C2C442B44B3
:108B4000082A93F82C6394F82C3303EB06239BB28A
:108B500001FB03F34FEA233303F54873A5F81E33F3
:108B600065D000F11103DBB25C1C2C442B44092AB4
:108B700093F82C6394F82C3303EB06239BB201FB90
:108B800003F34FEA233303F54873A5F820334ED09F
:108B900000F11303DBB25C1C2C442B440A2A93F82B
:108BA0002C6394F82C3303EB06239BB201FB03F3F5
:108BB0004FEA233303F54873A5F8223337D000F189
:108BC0001503DBB25C1C2C442B440B2A93F82C635A
:108BD00094F82C3303EB06239BB201FB03F34FEA1B
:108BE000233303F54873A5F8243320D000F117038D
:108BF000DBB25C1C2C442B440C2A93F82C6394F8B5
:108C00002C3303EB06239BB201FB03F34FEA233320
:108C100003F54873A5F8263309D000F11903DBB238
:108C20005A1C2A442B4493F82C3392F82C330123FA
:108C300085F82833F0BC70470023C2E67015002089
:108C400007299DBF034B03EB8101B1F854030020BA
:108C5000704700BF701500201A4B93F8742332B18F
:108C600093F878230021A82A83F8741301D00020F8
:108C7000704793F88B23002AF9D110B4DFED126A04
:108C800003F55E7103F5547003F56272B4EE047A75
:108C9000CC780B7903EB042307EE903AF8EEE77AF1
:108CA000B0EE666AA7EE876A02318A42FCEEC67AA7
:108CB00017EE903A40F8043FEAD101205DF8044BEA
:108CC000704700BF701500200080BBC3034B03EB4F
:108CD0004101B1F89003C008704700BF7015002033
:108CE0001D4B93F8B4239AB370B493F8B543B3F81B
:108CF000B65303EB4401002091F8BB6391F8BC2309
:108D000083F8B40342EA0622954202D0002070BCE8
:108D1000704793F8B933032B03D0812B1AD0012B62
:108D2000F5D10120122C2546A8BF1225002CEED02B
:108D30000A4B03EB4505A3F12801DC781A790233CD
:108D400042EA04229D4221F8022BF6D170BC704702
:108D5000002070470320E5E7701500202819002047
:108D6000F8B5134D95F815240AB90120F8BD114B3B
:108D70001C6823685E6A46B1204605F58061B047ED
:108D8000002385F815340120F8BD05F58067BE186D
:108D900000E023689B68204698470028F9D02368A4
:108DA00017F8011B1B6820469847B742F1D1E7E747
:108DB00070150020A059002003788B4210D9094B70
:108DC00003EB810193F84834D1F818041BB900F57E
:108DD000777080B27047400800F5777080B27047B6
:108DE0000020704770150020036933F8110000EB74
:108DF0008000C01000F55C7080B27047436993F842
:108E00002120002A00F0AF80F0B5594A93F802E023
:108E10001278DC7D5F78DD7893F806C0DE791B2A56
:108E200004BF544A148002690EF0070047EA002785
:108E3000002183F82110187A1979178005F03F0571
:108E40009F7893F805E06D0145EAD7059F7A558034
:108E5000DD78890041EA95110EF0010E41EA8E217C
:108E60009D7B91800CF00F0C59794FEACC1C4CEA99
:108E70005101D18006F07F06997993F807C0360139
:108E800046EA1116597A1681400040EADC1001F0DA
:108E9000030140EA41205E7BD97A508107F01F0729
:108EA000587ABF0147EA900090819F7A187B93F827
:108EB0000EC006F0070640EA062005F03F055E7B7F
:108EC0001082C90041EA57116D01D18145EAD601EE
:108ED0005182D97B5F7CDD7C9E7C587D890041EA94
:108EE0009C1193F810C00CF0010C41EA8C2107F0A2
:108EF0000F0793F812C09182197C6D00FF0147EAB9
:108F0000510145EADC1C5F7C1D7DD18206F07F06A5
:108F1000360146EA171605F00305997D1F7D168375
:108F20004CEA45255E7D558340F2147314F0010F21
:108F300014BF1D46AD2500F01F0014F0020F08BF3E
:108F4000AD238001C90040EA970041EA56115384DD
:108F500023079083D183158407D414F0040F0CBF2A
:108F600001200920F0BD104670470320F0BD00BF6E
:108F70004D6A0020506A00200A4BDFED0B6ADFEDDE
:108F80000B7A03EB8101D1F84C3407EE103AB8EEBE
:108F9000477AE7EE267AFCEEE77A17EE903A98B237
:108FA000704700BF7015002001F11F3F00405C4476
:108FB000714A92F88C3433B192F892340021162B16
:108FC00082F88C1401D00020704792F89134022B63
:108FD000F0B440F2CE8002F59260184402F2924161
:108FE000D32311F8014F634013F0800F4FEA43037E
:108FF00018BF83F0D503DBB213F0800F4FEA4303B1
:1090000018BF83F0D503DBB213F0800F4FEA4303A0
:1090100018BF83F0D503DBB213F0800F4FEA430390
:1090200018BF83F0D503DBB213F0800F4FEA430380
:1090300018BF83F0D503DBB213F0800F4FEA430370
:1090400018BF83F0D503DBB213F0800F4FEA430360
:1090500018BF83F0D503DBB213F0800F4FEA430350
:1090600018BF83F0D5038842DBB2BAD192F8A914B5
:10907000994202D00020F0BC704792F8980492F810
:10908000976492F89C1492F8A03492F8A44492F851
:109090009454B2F894C4D2F8947400F00F00C00154
:1090A00040EA560001F01F0192F89B64C2F8580490
:1090B000890141EA960103F03F0392F89F6492F818
:1090C000A304C2F864145B0143EAD60392F8931434
:1090D000C2F8703404F07F04B2F89834D2F898647F
:1090E000240105F0070544EA101041EA0521C3F305
:1090F0000A13C2F87C04B2F89C54C2F84C14B2F8BB
:109100009E44D2F8A004B2F8A214C2F85C34D2F89B
:10911000A434C0F38A10C1F34A01C3F3CA13CCF3D9
:10912000CA0CC7F38A37C6F3CA366D09C4F30A04FA
:10913000C2F87404C2F87814C2F850C4C2F8547467
:10914000C2F86064C2F86854C2F86C44C2F8803453
:1091500092F8A83492F8A704B2F8A614DB0043EA08
:109160005013C1F38A01C2F88834C2F88414012074
:1091700081E7D3237AE700BF70150020684B2DE903
:10918000F0411C68E707054617D5664B93F8D024D5
:1091900093F8D114914258D1D3F8D424AA429EBF57
:1091A000614A00211170D3F83805281A00283DDDE6
:1091B000012083F83C05BDE8F08114F400547BD114
:1091C0005A4883689847C60738D5594BC0F34002C0
:1091D00010F00A0F1A7746D0524B2246A646274671
:1091E000A44693F8F414D3F808655C18013194F898
:1091F000F88484F8F8E4A2EB080293F80C453244B2
:109200004C4EC3F8082501F00F011209052C83F814
:10921000F414327032D0410744BF012283F836255E
:10922000002FB9D0404A01211170C1E793F83C05E5
:109230000028C0D193F83605BDE8F0814207394BCC
:1092400044BF012283F83625A6E7D3F8D804384C6A
:10925000354983F8D124284401220025C3F8D404D9
:1092600025770A70A4E72F4BD3F8D814FF2229449E
:109270000127C3F8D4149646BC46B2E7BCF1000FF0
:1092800001D040F2FF3C93F80D25D3F8301503EBE5
:109290004206541CB6F81025A6F810C5ACEB020225
:1092A0000A4404F00F011409E64683F80D15C3F8CB
:1092B0003025A3F83445AEE71A4BB3F8DC2412BBD3
:1092C000B3F8DE24FAB9B3F8E024E2B9B3F8E22443
:1092D000CAB9B3F8E424B2B9B3F8E6249AB9B3F83A
:1092E000E82482B9B3F8EA246AB9B3F8EC2452B995
:1092F000B3F8EE243AB9B3F8F02422B9B3F8F22463
:10930000002A3FF449AFD3F8D824094806492A4433
:109310000024C3F8D424012204770A7043E700BF75
:10932000C88D0020701500208230002008450020E4
:1093300088010020643F0020002070470020704713
:1093400001207047024B03EB4101B1F84005704723
:1093500070150020044B93F8640518B1002283F8BF
:1093600064250120704700BF70150020024B03EBFD
:109370008101B1F8680570477015002003788B42B1
:1093800083BF034B03EB4101B1F8A00500207047F8
:109390007015002030B40246002305251E2400E08D
:1093A0000232032BD4BF0021012100F81310013336
:1093B000042B04D0122B5470F2D130BC704755707E
:1093C000EEE7034B036043608360C360704700BFF8
:1093D000E803D007024B03EB4101B1F8DC0470470E
:1093E00070150020024B03EB4101B1F8DC0470471B
:1093F0007015002030B4264C94F8C035022B02D0F2
:10940000002030BC704794F8C655EDB1013D04F220
:10941000C55353FA85F504F2C450002210F8013BFD
:10942000534083EA0313DBB2120AD90042EA032253
:10943000854281EA131382EA0302EFD122B10020B0
:1094400084F8C00530BC7047B4F8C4355BBA9BB231
:1094500043F60162934209D043F60362934205D07A
:10946000002384F8C035012030BC7047094AA2F1BE
:10947000260102F12005D0799379023203EB002313
:10948000C3F3CC03AA4221F8023FF4D1E8E700BFBE
:1094900070150020341B00200D49B1F8EC3530B5B3
:1094A00008224AF2010580EA030414F0010F4FEA92
:1094B000530318BF6B4002F1FF3218BF9BB212F08A
:1094C000FF024FEA5000EED1A1F8EC3530BD00BFED
:1094D0007015002008B5064B597F41B19A7F32B113
:1094E000044B18681EF098FC034BA3F8EE0508BD6A
:1094F000880100203452002070150020F8B51F4F5D
:109500003D68002D36D01E4B1E4E1B7803B173777D
:109510001D4B1B7803B1B377FFF7DCFF1B4B1C4CD3
:109520001B78013384F8F0351A4B1B8833B1154989
:1095300038681EF088FC08B9012333702A79164B6D
:1095400084F8F825EA68C4F8FC25C4F8F43501333A
:10955000C4F800366B7984F804362B69C4F80836F1
:10956000AB7984F81036EB69C4F80C66C4F814368D
:109570000020F8BD4FF0FF30FBE700BF3452002061
:10958000D948002088010020DA480020D448002073
:1095900070150020D6480020A501002008B5054B15
:1095A0009A7F1AB901229A77002008BDFFF792FF2F
:1095B000FAE700BF8801002008B5054B5A7F1AB9A9
:1095C00001225A77002008BDFFF784FFFAE700BFA9
:1095D0008801002008B5054B1A78054B1978054B12
:1095E00018681EF019FC044B188008BDDB530020DE
:1095F000DA53002034520020DC53002070B5114EA5
:10960000114C3568617FA27F28461EF048FD217805
:10961000AB798B4203D32B6828461B6998470B4DC7
:1096200023F08EF9617FA27F2378306829706A70F9
:10963000AB701EF0F1FBA8800BF048FB4FF0FF3041
:1096400070BD00BF3452002088010020FC51002072
:1096500008B5084B93F8F01521B9012283F8F025DD
:10966000002008BD4B1E59425941492023F0C6F93C
:10967000F6E700BF7015002010B5044B044C1A88A3
:109680000449204614F05CF9204610BDE053002048
:10969000881B00208CD6050810B5054B05499A8D0E
:1096A00003F21D64204614F04BF9204610BD00BFA4
:1096B000701500208CD6050870B50F4C0F4E104D5C
:1096C000104904F2226014F03BF933462946002287
:1096D00004F22A6014F034F933460022294604F2D9
:1096E000326014F02DF9084B9A781B8884F8EB222D
:1096F000A4F8EC32002070BD701500205ED505087E
:10970000D27B0508B8D705086C3F002008B5044B8C
:10971000588D40F4004023F0A7FB002008BD00BF97
:109720007015002070B5384B86B01A788DF80C2073
:109730005A788DF80D2000269A78CDF80E608DF8B5
:109740000E209A88ADF810201A7ACDF8126003AD79
:109750008DF8142095E807006C4603C422802B4A3C
:109760001278022A1C4632D1294B1978294B8DF8E0
:1097700000101A78284B8DF8012018681EF04CFB59
:10978000264BADF8040093F83A36E3B9052023F0F0
:1097900017FB234B0A221E788DF802606946284683
:1097A00047F0E2FC58B19DF8003023709DF801307D
:1097B0006370BDF80430A670A3800BF087FA4FF0F9
:1097C000FF3006B070BD062023F0FAFAE1E7154B32
:1097D0001B7873B90E4B19780E4B8DF800101A7860
:1097E0000D4B8DF8012018681EF016FBADF8040033
:1097F000CFE7304623F0E4FA0B4B8DF800601B886E
:10980000ADF80430C5E700BFFC510020D85300205C
:10981000DA530020DB530020345200207015002062
:10982000DE530020E2530020E053002008B50C4B2B
:1098300093F90030012B0B4B04D1002283F83A2618
:10984000002008BD93F83A0618B9012283F83A2699
:10985000F6E7012818BF022023F0B2FAF0E700BFB4
:10986000500A00207015002070B5124C124B94F96C
:1098700000401A78012C05460E4605D1012A01D078
:1098800001221A70002070BD012A03D1002023F0AC
:1098900097FAF7E7022AF3D1084B002483F83A46F7
:1098A000FFF7C4FF064B314628461C70FEF714FC38
:1098B000E8E700BF500A0020D853002070150020B0
:1098C000E253002008B5074B93F90020064B12B96C
:1098D0001A70002008BD1A780AB90122F8E7FFF7CC
:1098E00079FEF6E7500A0020DA53002008B5074B4E
:1098F00093F90020064B12B91A70002008BD1A789F
:109900000AB90122F8E7FFF765FEF6E7500A0020E2
:10991000DB53002010B5094C94F84800032801D807
:109920001DF044FB064B94F849209A7094F84A20A5
:10993000DA7094F84B201A71002010BD70150020C9
:109940004C43002008B568220349044846F010F94A
:1099500025F046FB002008BDC81500207C2E002005
:1099600010B5194C94F8C43033B3184A136843F453
:10997000803313601EF0F8FD154B01221A7094F825
:10998000C520144B022A98BFDA7094F8C6201A71C9
:1099900094F8C7205A71B4F8C820DA8094F8CA2025
:1099A0001A7294F8CB205A7294F8CC201A7094F85A
:1099B000CD209A72002010BD1DF07CFB4FF480304A
:1099C00012F032F9DBE700BF70150020C88D0020CF
:1099D000AD4400209030002008B5064B93F8CF002E
:1099E00028B1054B01385978C0B23BF04FFB00203D
:1099F00008BD00BF701500202476002008B5064B76
:109A000093F8CE0028B1054B01381978C0B22DF07B
:109A100013FC002008BD00BF701500202476002034
:109A200038B51E4D95F8DA407C2303FB045495F8B5
:109A3000933284F823311A4B18682DF013FC95F8F3
:109A4000943284F8F63095F8953284F8F73095F82A
:109A5000963284F8F830B5F89832A4F81031B5F899
:109A60009A32A4F80E3195F89C3284F82B3195F88F
:109A70009D3284F84F3195F89E3284F8503195F834
:109A80009F3284F84A3195F8A03284F84B3195F82A
:109A9000A13284F84C31002038BD00BF7015002081
:109AA000F455002038B50D4B0D4A186800210346C7
:109AB00002F1090514781C7254785C7294789C72D7
:109AC00035F811409C810131032902F1030203F1B1
:109AD0000603EFD12DF0C6FB002038BDF455002061
:109AE0003318002008B5054B93F8A7020138C0B21F
:109AF00083F8C2023BF0F2FA002008BD7015002086
:109B000008B5054B93F892020138C0B283F8DA0029
:109B100009F05AFC002008BD7015002010B5054C56
:109B200094F8DA0009F050FC94F8C2023BF0D6FA3F
:109B3000002010BD701500202DE9F0411E460023C5
:109B40008B55074608460C46904645F081F8751E31
:109B5000301A2118254440426A1A002AA5EB040352
:109B600012DA234420211A1B002A11DA0023A355FC
:109B7000094B93F83B16891B234642463846C9B227
:109B8000BDE8F04110F018BB2B5C05F80139E3E7A4
:109B900003F80119E7E700BF70150020F0B4224A6E
:109BA00092F9F84292F8F952214491FBF4F304FB44
:109BB0001311D2F8F04282F8F412CBB2A1686B43D1
:109BC0000E2404FB031392F84016C2F83C36C1EB96
:109BD000C10103EB410102F5C8661C46A1421BD23C
:109BE000002182F840161E790E2ECCB201F101013F
:109BF00017D1AC42234628BF2B46102B82F84036A3
:109C000084BF102382F8403692F84036013B82F838
:109C10004036F0BC10F0F4BA677B06F8017F0E34D2
:109C2000DCE70E33DFE700BF7015002038B5164BB8
:109C3000D3F8F022526805461C46BAB994F851068A
:109C400098B10138C0B284F8510604EBC00000F2AC
:109C5000546003C80D4B83E80300FEF7D0FD28468F
:109C600094F9F412FFF79AFF002038BD93F9F5023A
:109C7000D3F83C36C0EBC00003EB4000904700280F
:109C8000DCDA4FF0FF30F0E770150020601800209C
:109C900038B505460C4641B31D4BD3F8F0228A4235
:109CA00025D093F85126082A1FD8511C83F8511645
:109CB00003F53C7103C903EBC20202F2546282E86D
:109CC00003000022C3F8F04283F8F522236833B181
:109CD0009847013003D12846BDE83840A6E7FEF793
:109CE0008EFD00212846FFF759FF002038BD93F96B
:109CF000F51293F8F92291FBF2F402FB141283F8A7
:109D0000F522FEF77CFD21462846FFF747FFECE7EA
:109D100070150020F0B5184E002383B004460821CA
:109D2000D6F8A80686F8A43602AD0BF0ADFDD6F83D
:109D3000A80681210BF0A8FD8923D6F8A86625F88E
:109D4000023DE71D14F8010B3246294624F0F0FAD3
:109D5000BC42F7D1BDF806301A0A52FA83F3C3F1B8
:109D6000FF039BB23246D8B20021ADF8063024F092
:109D7000DFFA03B0F0BD00BF701500200FB400B5CE
:109D800083B004AB054953F8042B0193002012F073
:109D900051F903B05DF804EB04B070474BC60008FE
:109DA0002DE9F843794C94F8B32694F8B4369A42E6
:109DB00000F0898094F8B32694F8B336C2EBC2025F
:109DC00004EB8202C3EBC30304EB830392F8D716C0
:109DD00093F8BC668B1E9E4230D06D4AB4F81037A3
:109DE0001278D4F8B81601339BB21C2AA4F81037A5
:109DF0006DD0002594F8B336664A0133A2FB030206
:109E0000520802EB42029B1ADBB284F8B3360029F7
:109E10003ED00BF027FBD4F81C37C01AB0F5FA7F00
:109E2000A4BF002384F81A37D4F81437A8BF45F02C
:109E30000405002B34D12846BDE8F88394F8B336E6
:109E400004F2BC67C3EBC30307EB830361B119449E
:109E5000002213F8015B2A44994292B2F9D1D3B29D
:109E600003EB1222FF2A3AD0494AB4F8103712788D
:109E7000D4F8B81601339BB21C2AA4F81037B8D115
:109E8000454BB4F810275A8004229A800025B1E788
:109E900094F81A37002BBCD1D4F81437002BCAD051
:109EA0003E4A1268D31AB3F5FA7FC4D994F80C3538
:109EB000032B04BF0023A4F834350023C4F814375F
:109EC0002846BDE8F883D4F8B81600259FE7324B42
:109ED000B4F810275A8003229A8000258AE794F864
:109EE000B33601221C2101FB0323FA18FD5C6DB37C
:109EF000012D16D1082E3FD0254AB4F8103712781C
:109F0000D4F8B81601339BB21C2AA4F810377FF49A
:109F100070AF214BB4F810275A8006229A80002592
:109F200068E71B4AB4F810371278D4F8B816013332
:109F30009BB21C2AA4F810377FF45BAF164BB4F821
:109F400010275A8005229A80002553E7192ED4F84D
:109F5000B81625D00E4AB4F81037127801339BB2E8
:109F60001C2AA4F810377FF445AF0B4BB4F8102728
:109F70005A8006229A803DE794F81837002B40F06B
:109F8000EC801D46D4F8B81634E700BF70150020E9
:109F90004D6A0020ABAAAAAA506A0020686C002073
:109FA00092F802C05578036992F8038092F8049001
:109FB0009679D77992F808E00CF0070C45EA0C2561
:109FC00008F03F0892F80AC01D8095784FEA4818BB
:109FD00048EAD508957BA3F8028092F803804FEAFF
:109FE000890040EA981092F8058008F0010840EADC
:109FF0008820988006F00F06507992F80780F601C5
:10A0000046EA5000567AD8804FEA4E0E4EEAD81EE5
:10A0100006F0030692F80680D07A07F07F074EEA32
:10A02000462E3F01567BA3F80AE047EA18171F8126
:10A0300006F00707967A92F809E0C00040EA561049
:10A04000167B0CF01F0C46EA072605F03F05577BF0
:10A05000D8816D014FEA8C1C45EAD7004CEA9E0C72
:10A06000A3F80CC01E825882D07B92F80EE0D77CF9
:10A0700092F8128092F811C0967C557D800040EADB
:10A080009E1092F810E07F000EF0010E47EAD817FC
:10A090000CF00F0C92F8108040EA8E204FEACC1C96
:10A0A00092F814E098824CEA580C907DA3F816C000
:10A0B00006F07F0692F811C00EF0030E47EA4E2715
:10A0C000360146EA1C165F8392F814C0577D1E8342
:10A0D00005F01F05AD01C00045EA9C0540EA571098
:10A0E000D8839D83D57D40F2147015F0010F14BF05
:10A0F0000646AD2615F0020F08BFAD201E84588419
:10A100002B075FD415F0040F0CBF0125092594F827
:10A110000C35032B1CD1137E94F80D052E4ED4F86C
:10A120003025C3EB8323A6FB036304EB40065B09E6
:10A13000B6F81075A6F81035DB1B1344013000F09B
:10A140000F02180984F80D25C4F83035A4F8340539
:10A15000224B1B68C4F814374CE65378102B15D0EB
:10A1600020D8DBB994F81937D4F8B816002B7FF44F
:10A1700040AE94F81B37012B26D919B10A78303A32
:10A18000012A21D9002584F81B5733E694F81937A2
:10A190000BB984F81957012384F81A37D4F8B81684
:10A1A000002527E6303B012BF8D852F8010F0C4967
:10A1B000C4F8AC069379908888808B71C4F8B8167F
:10A1C000002517E60325A2E70133012284F81B3797
:10A1D00084F81A2700250DE61F85EB51686C0020D6
:10A1E0001C1C002010B504460BF03CF9544B002217
:10A1F00083F8202793F8A426012A19D9D3F8242715
:10A2000040F6AC51821A8A4212DD4E49B3F810274B
:10A210000978013292B21C29A3F8102705D14A4AC5
:10A22000B3F81017518001219180002283F8A426F1
:10A23000E2B27E2A29D093F8A41629B393F8A41683
:10A240001B295AD893F83017002973D0002182F0C7
:10A25000200283F8301793F8A416022903D1012AAB
:10A2600008BF83F8282793F8B41693F8A44693F808
:10A27000A406C1EBC10103EB810121440130C0B24E
:10A2800081F8BB2683F8A40610BD93F8A426012A02
:10A290002DD993F8B4262D4993F8B3460132A1FB8A
:10A2A00002C1490801EB4101521AD2B294420CD0CA
:10A2B00093F8A44693F8B41683F8B426C1EBC10111
:10A2C00003EB8101621E81F8D72693F8282742BB51
:10A2D0001C4A12781C2A04BFD3F82C271A49C3F849
:10A2E0002C0704BF821A0A80002283F8302701223B
:10A2F00083F8A426C3F8240710BD002283F8A426FF
:10A300001049B3F810270978013292B21C29A3F83A
:10A310001027B9D10C4AB3F8103753800223938029
:10A3200010BD0121002283F8201783F82827C3F8E5
:10A330001C07CDE77D2A8ED1012283F8302710BD7E
:10A34000701500204D6A0020506A0020ABAAAAAA0E
:10A3500070B55C4C06460BF085F8D4F83437C4F879
:10A360003407C01AB0F5FA5F1AD9002384F83837D9
:10A3700084F83937A12E2FD0A22E00F09C8094F8BB
:10A38000392794F84F330025A2B16A1C6119D5B260
:10A39000F6B29D4281F82C6384F838570CD070BD1A
:10A3A00094F83857002DE5D094F8392794F84F33B6
:10A3B000002AEAD19D42F2D194F83A37052B72D0A7
:10A3C000062B03D194F82D331E2B0DD0002384F8D7
:10A3D000393784F8383770BD01221B2384F83927B8
:10A3E00084F84F330025D0E76A1E002A4FF00001A1
:10A3F00050DD08460B462344013093F82C33DBB282
:10A4000083EA0105ED074FEA530348BF83F08C034D
:10A4100083EA5105EE074FEA530348BF83F08C03EC
:10A4200083EA9105ED074FEA530344BF83F08C03A1
:10A43000DBB283EAD105EE074FEA530344BF83F052
:10A440008C03DBB283EA1115ED074FEA530344BFD7
:10A4500083F08C03DBB283EA5115EE074FEA530316
:10A4600044BF83F08C03DBB283EA9115ED074FEA1A
:10A47000530344BF83F08C03DBB283EAD115590840
:10A48000EB0748BF81F08C01C0B248BFC9B282421D
:10A490000346B0DC224492F82C338B4296D1032041
:10A4A000FEF746FA92E70020FEF742FA94F82D33C1
:10A4B0001E2B8BD198E70122232384F8392784F8B7
:10A4C0004F338FE77015002010B504460AF0CAFF1D
:10A4D0000F4BD3F83C27C3F83C07801A41F288326F
:10A4E0009042E4B205D983F87843012283F84027EB
:10A4F00010BD93F840279918142A81F8784303D1A6
:10A50000012283F8742310BD0132D2B2EEE700BFFE
:10A510007015002038B504460AF0A4FF444AD2F86A
:10A520004437C31AB3F57A6F1CD892F84837C2F88B
:10A530004407E3B1022B25D0442B92F8B51374D90C
:10A5400001330231DBB249008B4282F8483721DB0C
:10A5500001318B4201BF0021012382F8481782F8A4
:10A56000B43338BD0023C2F8440782F84837A82C1A
:10A57000F7D1002382F8B433A2F8B63392F8B513BA
:10A58000204603E0E0B282F8B5030146D51885F80D
:10A59000B803D5E7B2F8B633E4B283EA042424B2B0
:10A5A000002CB8BF41F22101A3B2B4BF81EA43033A
:10A5B0005B009BB21C0446BF41F2210181EA4303C8
:10A5C0005B009BB2180446BF41F2210181EA4303BC
:10A5D0005B009BB2190446BF41F2210181EA4303AB
:10A5E0005B009BB21D0446BF41F2210181EA430397
:10A5F0005B009BB21C0446BF41F2210181EA430388
:10A600005B009BB2180446BF41F2210181EA43037B
:10A610005B009BB2190446BF41F2210181EA43036A
:10A620005B009BB2A2F8B63338BDE0B2AEE700BF24
:10A63000701500202DE9F0410AF014FFBF4C0546CB
:10A6400094F8490780B9042294F8153453B1D4F82A
:10A650006C373BB1ED1AB5F57A7F03DB002310466A
:10A66000C4F86C37BDE8F08194F84A17002284F8EA
:10A670004927002900F06C8194F84C375BB213F144
:10A68000630FC0F21D81AE4F84F85C2794F85D27FC
:10A69000002A41D013F1310F80F2C98113F1380F34
:10A6A00080F2CA8113F13D0F80F2CB8113F1420F8A
:10A6B00080F2CC8113F1450F80F2CD8113F1470F69
:10A6C00080F2CE8113F1490F80F2CF8113F14A0F4E
:10A6D00000F0D08113F14B0F00F0D08113F14C0F3B
:10A6E00000F0D18113F14D0F00F0D18113F15C0F17
:10A6F000B8BF642680F2F480D4F86007DFF84CC25B
:10A7000000FB06F08CFB00C6C017C0EB661004EB24
:10A71000820680B2C6F81804FB7794F8587794F84C
:10A72000593794F85A0794F85B671B0443EA0763A8
:10A73000334343EA002303F0F020B0F1E02F00F0B0
:10A74000F380102794F8700794F84E37D4F87467A4
:10A7500094F878C73678034103F00F039E4210D96E
:10A760000B2B0ED8002A40F0348194F84E8794F8D1
:10A770004FE704EB83030CEA08080EEB082EC3F83E
:10A7800018E494F85037034103F00F039E4210D9A8
:10A790000B2B0ED8002A40F0208194F8508794F8B3
:10A7A00051E704EB83030CEA08080EEB082EC3F80C
:10A7B00018E494F85237034103F00F039E4210D976
:10A7C0000B2B0ED8002A40F00C8194F8528794F895
:10A7D00053E704EB83030CEA08080EEB082EC3F8DA
:10A7E00018E494F85437034103F00F039E4210D944
:10A7F0000B2B0ED8002A40F0F88094F8548794F878
:10A8000055E704EB83030CEA08080EEB082EC3F8A7
:10A8100018E494F85637034103F00F039E4210D911
:10A820000B2B0ED80AB19A420BD094F8568794F8A5
:10A8300057E704EB83030CEA08080EEB082EC3F875
:10A8400018E40D2F32DD94F85837034103F00F035D
:10A850009E4210D90B2B0ED80AB19A420BD094F815
:10A86000588794F859E704EB83030CEA08080EEBC9
:10A87000082EC3F818E4102F18D194F85A3743FA69
:10A8800000F000F00F00864210D90B280ED80AB154
:10A8900090420BD094F85A2794F85B3704EB800071
:10A8A00002EA0C0C03EB0C23C0F81834C9B394F87B
:10A8B0004E371B0635D4C4F86C5705220120C3E679
:10A8C00094F85C370133DBB2042B84F85C376DD924
:10A8D00094F85D271A4F6FF05B03002A3FF41CAF1A
:10A8E0006FF05B0C4FF00C0E16480EF1FF3600EBCC
:10A8F000460600EB4E0096F9448196F845E190F843
:10A900004501A0EB0E06A3EB0800ACEB080C00FB26
:10A9100006F090FBFCF0704440B200286CDA002690
:10A92000EAE6052201208FE694F84E0700063FF57F
:10A9300008AF05480C27036004E700BF701500202E
:10A940008801002060120508880A00201F85EB514D
:10A950000AF088FD5049514B91F82020A3FB0003D9
:10A960005B0C3AB394F84C0794F84D27D2B2122AF4
:10A9700018BF012A09D002F0EF02A2F1A202B2FA36
:10A9800082F252090AB981F82020D4F8641794F8A9
:10A990005D27B9B18B422CD0591A012931D094F8D6
:10A9A0004A17A4F86807C4F86437B6E63A4F97F92F
:10A9B0001F306BE694F84C2794F84D0700EB02200B
:10A9C00080B2E2E7A4F86807C4F8643794F84A173D
:10A9D000A3E693427FF4C9AED3E693427FF4DDAEA3
:10A9E000E7E693427FF4F1AEFBE693427FF405AFD6
:10A9F0000FE794F84A1790E66428A8BF642006463B
:10AA00007AE6002ACBD0B4F86867D4F86017244FF0
:10AA1000861B143E01FB06F187FB0176C917A1EBEB
:10AA2000E60104EB820689B2C6F81814B7E76FF0A6
:10AA3000300C4FF0010E57E76FF0370C4FF0020E5D
:10AA400052E76FF03C0C4FF0030E4DE76FF0410CF6
:10AA50004FF0040E48E76FF0440C4FF0050E43E74B
:10AA60006FF0460C4FF0060E3EE76FF0480C4FF0CB
:10AA7000070E39E79C464FF0080E35E76FF04A0C99
:10AA80004FF0090E30E79C464FF00A0E2CE79C462B
:10AA90004FF00B0E28E700BF8801002083DE1B4328
:10AAA0006766666610B504460AF0DCFC124BD3F804
:10AAB0007C27C3F87C07801A41F28832904209D97A
:10AAC000E4B2012283F84C4783F88027002283F800
:10AAD000492710BD93F880270F2AFAD89918013218
:10AAE000D2B2E4B2102A81F84C4783F88027EDD126
:10AAF000012283F8492710BD7015002038B50C4697
:10AB000005460AF0AFFCE36940F6AC52C31A934223
:10AB100005DD002384F820300F2D19D038BD94F8BE
:10AB20002020002AF8D0182AF8D8511CC9B21929B7
:10AB300084F82010A55410D10A4A12781B2A08BFA5
:10AB4000094A4FF0010184F8211008BF938038BDF5
:10AB50000123E061257084F82030002384F821303F
:10AB600038BD00BF4D6A0020506A002038B5044649
:10AB70000AF078FC2E4BD3F88427821AB2F5FA7FBC
:10AB800014D90022C3F8840783F8882783F889271B
:10AB9000E1B2042924D0202922D093F88C270AB9C5
:10ABA000552C35D0A24216D1002209E093F889270E
:10ABB00092B993F88827C3F88407E1B2002AE8D055
:10ABC00093F88A079C180138824284F894171BD0A6
:10ABD000013283F8882738BD013A83F8892738BDC8
:10ABE000002202244FF6FF7083F89047A3F88E07E7
:10ABF0009C18481E824283F88C1783F88A1783F8C2
:10AC00008B2784F89417E3D1012283F8B42738BD49
:10AC100001201F2583F88C47A3F88E2783F894170B
:10AC200083F88B0783F8900783F88A57D0E700BF33
:10AC30007015002038B5394C05460AF013FCD4F8DD
:10AC4000C437C4F8C407C01AB0F57A7F1CDD0023EE
:10AC5000282284F8C83784F8C03584F8CA3784F8C5
:10AC6000C9273D2D42D03E2D0DD12D4AC4F8CC2709
:10AC7000012384F8C0350123157084F8C83794F88F
:10AC8000C9279A4220D038BD94F8C827002AE8D0B6
:10AC9000531CDBB2D4F8CC1784F8C837062B8D547C
:10ACA000EDD194F8C035012B27D094F8CA37012B89
:10ACB00027D00023282284F8C83784F8C03584F8C8
:10ACC000CA3784F8C92738BD94F8C035012B04BFB2
:10ACD000022384F8C03594F8CA37012B15D000221E
:10ACE000282384F8C82784F8C93738BD0D4AC4F82A
:10ACF000CC27012384F8CA37BDE78B78282BD4D81A
:10AD0000F1E78B78092BD4D8EDE7022384F8CA3712
:10AD10000AF0A8FBC4F8D007E1E700BF70150020D7
:10AD2000341B0020281D00205148F8B53C22514D0D
:10AD3000514E0021044646F03FFA504B95F8D41787
:10AD400095F8DF2784F8222003F5D262012918BF85
:10AD5000134603F1100207CAB3F8583095F854723D
:10AD60002384F37884F8243004F10C03012F83E862
:10AD70000700B07804BF95F8E73784F822300E2832
:10AD800016D80123834013F4E85F4AD094F82030AA
:10AD9000042B63D05A1F042A48D83949394A063B44
:10ADA000C4E90112032B61D8DFE803F05654525E68
:10ADB000002094F82030032BE8D1334A314BC4E90A
:10ADC00001230722314B022083F8252035F0F0FEC5
:10ADD0004FF480732383264863689847238B07EEDC
:10ADE000903AF8EEE77AF7EE006A86EEA77AB5F8C1
:10ADF000E8374FF47A72A26284ED007A7BB1244E78
:10AE000006F16C07B5F8E837A16A00EE103A304653
:10AE1000B8EE400A243614F0FBFFB742F2D101200D
:10AE2000F8BD13F0810FC4D15B0405D594F8203030
:10AE3000082B07D00B2B05D00028F1D00128B7D163
:10AE40000020F8BD134A0F4BC4E901230E22B9E7D5
:10AE50000B22B7E70A22B5E70922B3E70E4A094BEE
:10AE6000C4E901230822ADE70C22ABE70822A9E7D9
:10AE7000080F001070150020CC3F00201C000010AF
:10AE8000E5F00208152E0308D5F00208880100201D
:10AE90005C1D0020DDF00208EDF0020838B51B4C07
:10AEA0000AF0E0FAD4F81C37C31AB3F5FA6FC4BF3E
:10AEB000002384F8203794F82037054623B900236F
:10AEC000C4F8B836012038BD00221149D4F8B806BC
:10AED00022F060FE94F8203783B90E4B1B781C2BB0
:10AEE00004BFD4F858380C4AC4F8585804BFEB1AB9
:10AEF000D3800023C4F8B836012038BD0748FEF7D8
:10AF000009FF002384F82037E7E700BF7015002011
:10AF1000901C00204D6A0020506A0020C0130508D4
:10AF20002DE9F04FDE4C94F8B4378BB023B90023F1
:10AF300018460BB0BDE8F08F94F88B3794F88A0769
:10AF40000022012B84F8B42745D094F89457023D91
:10AF500015F0FF0500F09F8104F294710D444FF647
:10AF6000FF7311F8012B9B1AA9429BB2F9D11A0A5F
:10AF7000204490F893179142D9D190F89227DBB2F0
:10AF80009A42D4D194F88C37202B40F07D8194F8EC
:10AF900090178B1C09938B1D019301F108030293F9
:10AFA00001F10A03039301F10C03049301F10E0371
:10AFB000059301F11003069301F11603079301F1C4
:10AFC000180301F1040A01F1120801F114070893B2
:10AFD00001F11A0BAFE094F89017B4F88EE78B1CD0
:10AFE000671854FA83F6099301F1040A97F8943725
:10AFF00097F895C796F8945796F8957754FA8AF685
:10B0000073448A1D96F895E701921D4496F894378B
:10B0100054FA82F605EB0C2501F1080296F895C763
:10B0200002922B4496F8945754FA82F603EB0723C6
:10B0300001F10A0254FA82F72B4496F894570392CE
:10B0400003EB0E2301F10C0297F895E796F895674C
:10B0500004921D4497F8943754FA82F705EB0C25B7
:10B0600001F10E0254FA82FC1D4497F894370592C0
:10B0700005EB062501F110029CF8946797F8957787
:10B080009CF895C706922B4454FA82F503EB0E23E5
:10B0900001F1120895F895E7334495F8946754FA4E
:10B0A00088F503EB072301F1140795F895973344CE
:10B0B00095F8946754FA87F501F1160203EB0C2317
:10B0C000334495F894C7079254FA82F603EB0E23A3
:10B0D00001F1180295F895570892634496F894E7A1
:10B0E00096F895C703EB092354FA82F6734401F1ED
:10B0F0001A0B96F894E796F8956703EB052354FA34
:10B100008BF52044734495F894E790F8939795F85D
:10B11000955790F8920703EB0C239E440EEB062EF6
:10B120000EEB052E00EB09291FFA8EFE1FFA89F996
:10B13000F1457FF4FCAE099B54FA83F2019B54FA6B
:10B1400083FC029B9CF895979CF894C754FA83F370
:10B150000193039B54FA83F6049B54FA83F5059BF1
:10B1600054FA83F0069B54FA83F3029354FA88F35B
:10B170000393079B92F8958792F8942754FA83F3E8
:10B1800021440593089B54FA8AFE54FA87F791F8F4
:10B1900095A791F89417049754FA83F39EF895773E
:10B1A00006939EF894E7019B01EB0A2102EB08222B
:10B1B0000EEB072E93F8958793F89477C4F86815EB
:10B1C00096F8953701930CEB0921C4F8741595F89E
:10B1D00095C796F8946795F89457019BC4F86C2529
:10B1E00006EB0326049B029AC4F870E593F895E7F2
:10B1F00093F8943792F8959792F89417039A0196DA
:10B2000003EB0E23C4F89035059B90F895A7019E9B
:10B2100090F89407C4F87C6507EB082701EB092137
:10B2200092F8958792F8942793F89567C4F8881553
:10B2300054FA8BFB93F89417069BC4F8787505EBCA
:10B240000C2500EB0A2002EB0822C4F88055C4F854
:10B25000840593F895579BF89507C4F88C2593F8C7
:10B2600094279BF8943701EB062103EB0023C4F8E5
:10B270009415C4F89C35012302EB05221846C4F846
:10B2800098250BB0BDE8F08F064822F0ABF90023FB
:10B2900084F889074CE6FF224FF6FF7368E600BF8B
:10B2A00070150020041D0020F8B50AF0DBF8274EC9
:10B2B000054600F1FA07344696F87C3806EB83031E
:10B2C000D3F85C080EF0B4FD38BB94F87C3804EB7E
:10B2D0008303D3F85C080EF0ABFD28B30AF0C2F884
:10B2E000D4F88438401B9842C4F880082BD805F560
:10B2F000FA7594F87C3804EB8303D3F85C080EF0FD
:10B3000097FDB0B994F87C3804EB8303D3F85C085C
:10B310000EF08EFD90B1002005E00AF0A3F8B842CF
:10B32000CAD94FF0FF30F8BD0AF09CF8B842CCD92A
:10B33000F7E70AF097F8A842DBD9F2E70AF092F8AB
:10B34000A842DFD9EDE70120EDE700BF701500202E
:10B3500038B5002405460470FFF7A6FF431C13D040
:10B36000012802BF2B78A040184304F1010408BF54
:10B370002870082CF0D1054A2B7892F888184B4099
:10B3800082F88838012038BD0020FCE770150020C5
:10B390002DE9F843204C214D266807460236A84681
:10B3A00095F87C3805EB8303D3F85C080EF040FD7C
:10B3B00010BB0AF057F800F127060AF053F886424E
:10B3C000FBD800252C464FF0010998F87C3808EB93
:10B3D0008303D3F85C080EF02BFD18B109FA05F3CE
:10B3E0001C43A4B2092D06F134060BD00AF03AF83A
:10B3F0008642FBD80135E8E723689E42D0D800207A
:10B40000BDE8F88340F201232340B3F5007FF6D175
:10B4100064083C700120F3E7686C00207015002080
:10B4200037B502ADFF2305F8013D04462846FFF776
:10B43000AFFF00B91CB99DF8070003B030BD013C57
:10B44000F4E773B5204C002284F8EC2584F8ED2550
:10B4500084F8892884F88A280144FF228DF807207F
:10B460000546CEB22846FFF793FFF8B115F8010B59
:10B47000FEF712F8EBB2B342F4D194F88B38EBB18B
:10B480001248FFF785FF88B11148FFF781FF68B1C7
:10B490000DF10700FFF77CFF40B1B4F8EC25B4F8DC
:10B4A00089389A4202D0C2238DF807309DF80700F0
:10B4B000A0F130035842584102B070BD0DF10700B1
:10B4C000FFF766FFF2E700BF70150020F91D0020AE
:10B4D000FA1D002070B540F2014444EA800409F0EE
:10B4E000C1FF0C4E054696F87C3806EB8303D3F873
:10B4F0005C08E3070AD50DF055FD640805F1340535
:10B5000007D009F0AFFF8542FBD8ECE70DF044FD12
:10B51000F3E770BD7015002070B51A4C94F87C38B4
:10B520000D4604EB8303013D06460121D3F85C0878
:10B53000EDB20DF095FC0135002384F8EC3584F86C
:10B54000ED3535443078FFF7C5FF16F8010BFDF7F0
:10B55000A3FFAE42F6D194F88B383BB194F8EC05DA
:10B56000FFF7B8FF94F8ED05FFF7B4FF94F87C38C7
:10B5700004EB83042021D4F85C08BDE870400DF092
:10B580006FBC00BF7015002013B5FE23ADF804306A
:10B5900000238DF8063003788DF80730044613B980
:10B5A00001238DF8063004210DEB0100FFF7B4FFF5
:10B5B0000220FFF735FFFF280CD121786068FFF7E4
:10B5C000ABFF2820FFF72CFFA0F130035842584171
:10B5D00002B010BD0020FBE737B50546084614460B
:10B5E000FFF7D2FF78B10123022101A88DF80530C1
:10B5F0008DF80450FFF790FF2046FFF711FFA0F1F0
:10B6000030035842584103B030BD07B50E4B0268B5
:10B61000934317D0FF230421ADF8043043788DF80D
:10B62000063083788DF807300DEB0100FFF774FFCB
:10B630000220FFF7F5FEA0F130035842584103B055
:10B640005DF804FB0120FAE700FFFF0037B505466F
:10B6500008460C46FFF7D9FF60B123788DF80450F7
:10B66000022101A88DF80530FFF756FF21786068A8
:10B67000FFF7E7FE03B030BDF8B5584C94F9002051
:10B68000002A5FD0564B197801B91A70998D11B9FB
:10B69000E18801B199855349088810B9A08800B1A3
:10B6A0000880022AE17805D111F0080218BF0122B2
:10B6B00083F83A264C4B4D4A1B784D4DD35C85F8A8
:10B6C00029304C4B4C4E1B783068002B3FD194F9FD
:10B6D0000130082293FBF2F20132002833D047698F
:10B6E000BA5C85F82B2080B35A4202F0070203F0BF
:10B6F000070358BF53420133026952F823301B78C5
:10B7000085F82C3001F00A030A2B3C4F26D1E28841
:10B710003B49384612F014F9202385F83230E3789B
:10B720009A073AD513F0040F0CBF4F23492385F82D
:10B7300034305223502285F83530002385F83320E9
:10B7400085F83630F8BD3F22CBE72E4BD7E755239F
:10B7500085F82B30462385F82C30D3E7C90705D56B
:10B76000A2882749384612F0EBF8D5E794F9011082
:10B7700030684B4203F0070301F0070258BF5A42FA
:10B780000132082391FBF3F101311CF045FB1C4908
:10B790000246384612F0D4F8BEE794F9002094F936
:10B7A0000230022A07D0272B11DC182B11DC0F2BBB
:10B7B000D4BF0023012332686AB10133D26952F841
:10B7C000232011491148BDE8F84012F0B9B803230D
:10B7D000F1E70223EFE70B4AF3E700BF500A00202E
:10B7E00070150020E0530020D8530020DA7B0508B4
:10B7F00088010020D953002034520020B6010020D7
:10B800008CD60508D87B050836D50508BB01002075
:10B810003C4A117870B53C4C002949D1D4F8FC322F
:10B8200013B9C4F8903870BD384B98690028B8BF78
:10B8300099619B6904EB8303D3F80033C4F8903813
:10B84000002BF0D001231370314BC4F8F0324FF4C9
:10B8500000500023A4F8F43284F8513635F0E0F9B2
:10B86000D4F890080EF0BEFCD4F89008437A027A1F
:10B87000112B4FF0010136D884F89418022184F876
:10B880009518002184F89618510884F83B3684F8FE
:10B89000F912017B31B1002184F8961884F83B3607
:10B8A00084F8F922D4F8F012BDE87040FEF7F0B940
:10B8B000FCF7C0FFD4F8905885420646B3D094F800
:10B8C000F52294F8F41294F8F93201FB032384F87A
:10B8D000F5322B6828465B689847EB7BC4F8906884
:10B8E000013BEB73BCE784F89518022184F89618A5
:10B8F000991E002584F83B16911E84F8945884F80C
:10B90000F912C6E7044500207015002088010020C8
:10B91000D0010020F8B5BE4BD3F8F02206460D4604
:10B920001C460AB9FA2005E0062904D1FFF770FF8A
:10B930004FF4FA70F8BD05290ED193F897282AB173
:10B94000002283F897284FF4FA70F3E73046FEF7A9
:10B950006DF94FF4FA70EDE7072908D10022AD49DF
:10B9600083F89728FEF794F94FF4FA70E2E702297A
:10B9700045D193F897785FB993F9F53294F840265A
:10B98000934233DA013384F8F5326B1E012B03D86E
:10B9900094F89738002BC5D094F9F532D4F83C16BA
:10B9A000C3EBC30201EB42010A79013A0C2AB9D870
:10B9B00001A050F822F000BFB3BA000899BA0008FD
:10B9C0005FBA000875BA0008C5BA00089FBB000836
:10B9D0002DBB0008E3BB00081DBC000825B900080A
:10B9E0002DBB0008E9BA00085BBB000894F8F4120C
:10B9F000013149B2FEF7D2F884F8F572C5E70129A2
:10BA0000C3D193F89738002BC2D194F8F512D4F82B
:10BA10003C264B1E5BB2C3EBC30002EB400084F834
:10BA2000F532007920B9002BC4BF023984F8F51231
:10BA300094F9F532581C06D0C3EBC30302EB430361
:10BA40001B79002BA4D194F8F412013949B2304685
:10BA5000FEF7A4F894F8403684F8F53295E7042D03
:10BA60007FF460AFD1F809103046FEF711F94FF4BA
:10BA7000FA705FE7D1F80530002B3FF453AF042D87
:10BA80007FF450AFD1F809103046984701303FF4A9
:10BA90005DAF4FF4FA704DE7D1F80530002B3FF45D
:10BAA00041AF042D7FF43EAFD1F8091030469847DE
:10BAB000EFE73046FEF7BAF8002384F897384FF4E2
:10BAC000FA7037E7D1F80920002A3FF42BAF291F7D
:10BAD0004D424D4115701C44FA2094F8412642F025
:10BAE000010284F8412625E7D1F8091000293FF426
:10BAF00019AF042D94F8972840F0B280464922B936
:10BB0000012284F897280A66E5E70A6E022AE2D83D
:10BB100001320A66DFE7012D40F094803E4A126E42
:10BB20000A3295400A8815430D80D4E7D1F8090000
:10BB300000283FF4F7AE0768042D3A7806D145791E
:10BB400095423AD9807902443A7036E005799542B7
:10BB500033D28079121A3A702FE0D1F809000268C6
:10BB6000042D137816D10079984201D9013313704E
:10BB7000D1F805301BB1D1F809103046984794F937
:10BB8000F5321C44FA2094F8413643F0010384F85E
:10BB90004136CFE6002BEBD0013B1370E8E7D1F83C
:10BBA000090000283FF4BEAE07683A78042D55B26C
:10BBB00012D190F905C0AC45C4DC1C4494F8412670
:10BBC00042F0010284F84126D1F80530002B3FF401
:10BBD000A9AE30469847A5E690F904C0AC45ECDA2A
:10BBE000B7E7D1F8090000283FF49CAE0768042DA0
:10BBF0003A8806D1C5889542DFD9008902443A8047
:10BC0000DBE785889542D8D20089121A3A80D4E7BA
:10BC100070150020DC01002088010020D1F8090007
:10BC200000283FF47FAE0768042DB7F9002004D147
:10BC3000B0F906509542C0DDDFE7B0F904509542F7
:10BC4000BBDAE1E7022D7FF446AF0C4A106E012209
:10BC50000A3002FA00F00A8822EA00020A803AE773
:10BC6000002A3FF438AF032D7FF455AF03490A6E25
:10BC7000012A7FF630AF013A0A662CE788010020DE
:10BC80002DE9F04F7D4CD4F8FC32002B8BB0804670
:10BC900038DBD4F8983803F543435033984231D316
:10BCA000774BC4F898081E7866BB764B1B781BB997
:10BCB000754B1B78012B25D0744B1F782FBB744B11
:10BCC000DA88A2F2E342B2F5F97F16D8B3F904108C
:10BCD00040F2E142914210DCB3F9022040F2D66317
:10BCE0009A420ADD6B4B1B78DF0706D4FFF790FD05
:10BCF000694B4FF4FA72A3F86420684B1A685F4BE3
:10BD0000C3F8A0280BB0BDE8F08F94F88F58D4F892
:10BD100090B8DFF884914FF47A73B8FBF3F3019392
:10BD2000EDB129465846FFF7F5FD0023A9F8640058
:10BD300084F88F38D4F83C36002B40F0B1804F4C5B
:10BD4000019AD4F8A43803F5FA739A42D5D9D4F8F5
:10BD500090080EF023FA019BC4F8A438CDE74C4BB1
:10BD6000D988B3F90220A1F2E341B1F5F97F194670
:10BD700014D8B3F9040040F2E14398420EDC40F2DB
:10BD8000D6639A420EDD434B1B7813F0010F0CBFB4
:10BD900006250125D9F86C3001331BE040F2D6634B
:10BDA0009A4225DC40F2E1439A4223DDB1F90000DA
:10BDB000984221DD40F2D66290421FDCB1F90410B6
:10BDC00099421DDD91421DDC01230022C9F8683033
:10BDD000C4F89C28B9F96420C9F86C30002A13DD36
:10BDE000D4F8A0381344019A9B1AA9F86430A1E74B
:10BDF0000125CFE70225CDE70325CBE70425C9E7D9
:10BE00000525C7E70725C5E7002D93D04FF0000AA9
:10BE1000D9F868305046534526DC033D00B2012D69
:10BE2000A9F8640086D8D9F86C30142B82DDA3F110
:10BE3000140290FBF2F03228A9F864003FF77AAFC1
:10BE4000D4F89C280AB9C4F89C38D4F89C289B1ACA
:10BE5000D9F86820052193FBF1F313448B42C8BF46
:10BE60000B46C9F8683065E72946584600930AF141
:10BE7000010AFFF74FFD009BCDE700BF70150020C2
:10BE80002A4300204A5200207C480020044500201C
