:020000040800F2
:10000000F0FF0010B50D0508814602084D060208F4
:10001000550E0508550E0508550E05080000000090
:100020000000000000000000000000008D460208F3
:1000300089460208000000008546020855CD0108E7
:10004000550E0508550E0508550E0508550E0508F0
:10005000550E0508550E0508DD1402081D16020888
:10006000DD1502089D1502085D15020891F80008CB
:1000700081F8000871F8000861F800084DF80008E0
:1000800039F8000825F80008550E0508550E050832
:10009000550E0508550E0508550E05081D150208D4
:1000A00061B00108FDB5010891AF0108D9B601089A
:1000B0003DB501087DB40108B1B30108550E05082E
:1000C000550E0508550E0508550E0508550E050870
:1000D000550E0508CDCE0108550E050831CE010894
:1000E0009D140208550E050801900208C1AE0108D2
:1000F00031B10108F1AD010811B2010811F8000891
:10010000550E0508550E0508E1B20108550E050803
:10011000550E0508550E0508B5700308A1700308B3
:10012000FDF70008E9F70008D5F70008C1F7000857
:10013000ADF70008550E0508550E0508550E0508C3
:10014000550E0508550E0508550E050849610208AB
:1001500099F7000885F7000871F7000895CD0108A8
:10016000550E0508550E0508550E0508550E0508CF
:10017000550E0508550E0508550E0508550E0508BF
:08018000550E0508550E050897
:080188005C0905000100000004
:1001900010020100C41F0020C01F0020000000004A
:1001A000080700081F021000D81F0020C81F0020E9
:1001B00000000000718500082C001000A04C0020F9
:1001C000904C002000000000CF1F01082B002400ED
:1001D000D44C0020B04C002000000000A11F0108FA
:1001E000292078009C4B0020F84C002000000000E3
:1001F0000000000028101000804D0020704D0020ED
:1002000000000000250401081C021000984700208F
:10021000904D002000000000B183000820320A0049
:10022000AC4D0020A04D002000000000AD030108EF
:1002300014000300044B0020B84D00200000000013
:100240000A0700080120080084420020BC4D00205D
:10025000000000000E0700080C109C00D841002090
:10026000C44D002000000000795303080A702800E4
:1002700064410020604E002000000000CD03010812
:100280000EA07401F03F0020884E00200000000006
:10029000AD90020801010400543F0020FC4F0020F3
:1002A0000000000000000000000104004C3F00209E
:1002B00000500020000000001607000802010300A3
:1002C000483F00200450002000000000F9530308BC
:1002D0001A023C001C5000207C5500200000000049
:1002E000F18A00082700040018500020B8550020AB
:1002F000000000001A07000826100C00D87000202B
:10030000CC70002000000000553102080B301800AE
:100310004C68002010710020000000002007000839
:100320001F302400885F002028710020000000009A
:1003300038070008050204000C6B00204C710020F7
:10034000000000005C07000803010A00B05F002005
:100350005071002000000000600700081302040034
:10036000EC5D00205C710020000000006A070008BE
:10037000031233003C89002078890020000000002F
:100380006E07000825102C011C870020AC89002076
:100390000000000000000000101002000487002090
:1003A000D88A002000000000A20700081A000E00F2
:1003B000B4860020DC8A002000000000A4070008AA
:1003C00019000500F8850020EC8A002000000000DC
:1003D000B2070008F821060068840020F48A002093
:1003E00000000000B8070008150070009882002087
:1003F000FC8A002000000000000000002A006000CD
:10040000548600206C8B00200000000085900208BC
:10041000F6210C00089400205894002000000000F1
:10042000C007000802000C00FC9300206494002028
:10043000000000000000000008120F00E8930020F8
:10044000709400200000000001850008F7010600FC
:10045000DC9300208094002000000000CC070008FE
:100460000A020A0050930020889400200000000037
:100470002D5A030803000100D0930020949400201B
:100480000000000000000000090201000CAB002089
:1004900084AB002000000000D20700080102050024
:1004A000689D002088AB002000000000210F040898
:1004B00000020500609D002090AB002000000000BD
:1004C000000000001B0210004C9D002098AB002093
:1004D00000000000DD8300081E000600B89A00201E
:1004E000A8AB002000000000D40700081B100C007F
:1004F0008C970020B0AB0020000000007D22040893
:100500002102F000E4950020BCAB002000000000B8
:100510007919040805100600C09D0020ACAC00202D
:1005200000000000DA07000837102400E89C0020D3
:10053000B4AC002000000000E00700080E0202003A
:10054000A89D0020D8AC002000000000040800088E
:100550001610060048950020DCAC002000000000CA
:10056000060800082F10220060AB0020E4AC002039
:10057000000000000C08000823100E00009A002064
:1005800008AD0020000000003D040108F5518C007A
:100590005095002018AD002000000000C14C040858
:1005A0000D00340008D8002080D800200000000092
:1005B00059BF03080400800090CE0020B4D800206A
:1005C0000000000000000000130004007CCE0020AA
:1005D00034D900200000000030080008FD0124008C
:1005E00058CE002038D90020000000001DA10108CD
:1005F00018202E0024CE00205CD90020000000002E
:10060000818B000806101A0084BC00208CD90020C1
:10061000000000000D910208FB01010080BC0020D9
:10062000A8D9002000000000ED8B0008FC010900A3
:100630004CBB0020ACD9002000000000FD8B00085E
:1006400016023F0004BB0020B8D9002000000000C3
:10065000218400083400100034BA0020F8D90020AA
:1006600000000000E1900208110208000CBA00200E
:1006700008DA00200000000034080008121204000C
:1006800004BA002010DA0020000000003C08000836
:1006900012201000F4B9002014DA0020000000003D
:1006A00040080008F901040060B6002024DA0020A8
:1006B0000000000095A10108FA01020048B00020E6
:1006C00028DA00200000000069860008020203000A
:1006D000F8AD00202CDA002000000000000000002F
:1006E0000C020400B4AD002030DA0020000000004D
:1006F00059850008FE01140014B0002034DA0020EF
:0807000000000000F183000875
:10070800000003000000E8036400040A0001BC01C3
:100718000000200300000000AE014A015E012C0128
:1007280064010200000001000A019A01001E0A008B
:1007380000000000000100000005000001020300A5
:1007480000000000000000000000000000000000A1
:100758000080070000000000040101006C16000082
:10076800000000000135000000000000000000004B
:100778000000000000000000000000000000000071
:100788000000000000000000000000000000000061
:100798000000000000000000010000057E05EA05D9
:1007A800B4053200E803D00700000000280100006B
:1007B8000401F40114000000000000000100000022
:1007C80002020000180001000000130000000100F0
:1007D800000020000301000020003200C800D007FC
:1007E8009600140032002800B004400600055000AE
:1007F80014000F0008006400010001000000C40993
:1008080000001900000000000000000000000000C7
:1008180000000000000000000000000000000000D0
:100828000000000000000000080044300000000044
:1008380001010101FFFFFFFF00000001000005505A
:080848004C554D0000080000B2
:100850001A0300000000000000000000000000007B
:100860000000000000000000000000000403090474
:100870001201000200000040830420570002010220
:100880000301000061C00008C5850008C18500089B
:10089000BD850008118D0008B9850008B5850008E0
:1008A0009828050821480208DD290208615302083A
:1008B000000000000000000065500208814F02089F
:1008C00000000000000000000000000015250208E4
:1008D0005D86000851860008B5920008D192000894
:1008E00009860008999200087D9200080068214C52
:1008F0001F0000001C0000001F0000001E00000080
:100900001F0000001E0000001F0000001F0000006C
:100910001E0000001F0000001E0000001F0000005D
:10092000FF01FF00000004010000000000000002C1
:1009300010000000070000000000000000000000A0
:1009400001020304060708090100000061FB00081A
:10095000000000003433050820700020702D720064
:10096000FFFFFFFFD60101010100000000010101AE
:10097000002D202D2D202D2D2D2D202D2D2D000055
:100980000000000000000000000000000000000067
:100990000000000000000000704505080000000095
:1009A00000000000FC45050801000000FA000000FE
:1009B000010000000100000001010000BA41002018
:1009C00000C80100B941002000500100B8410020DA
:1009D000005A0100B641002002000000F83405086A
:1009E000FC9C0508049D0508669700200100C409C9
:1009F00000000000649700200100C409000000000E
:100A0000629700200100C4090000000060970020E8
:100A10000100C409000000005C9700200100C40927
:100A2000000000005E9700200100C40900000000E3
:100A30005A9700200100C4090000000058970020C8
:100A40000100C409000000006A3F00200100C80046
:100A500001000000683F00203200307532000000C5
:100A6000663F0020055A0500633F002000FF01009B
:100A7000653F00200100000018030020613F0020B6
:100A80000200000078640508623F002000FF0100BA
:100A9000643F00200100000018030020603F002098
:100AA000020000007864050890420020EE02CA08A7
:100AB000010000008E42002000C801006400000018
:100AC0008D42002000C80100640000008C4200201C
:100AD00002000000043505085A3F002080C1803E16
:100AE00005000000583F002080C1803E0500000046
:100AF000523F002080C1803E05000000503F002092
:100B000080C1803E050000004B3F002000FF010037
:100B1000443F00206400F40101000000433F002036
:100B20000400000010350508423F002002000000CC
:100B300024350508E13F00200D0000003035050890
:100B4000DE3F002000640100DC3F0020320010275F
:100B50000A000000DB3F00200D00000030350508D2
:100B6000DA3F00200D00000030350508D93F002095
:100B700002000000683505080000000000000000C9
:100B800074350508C46A00209CFF2C010000000099
:100B9000D8460020E0150C1700000000DA460020BF
:100BA00002000000AC3505089C4200200100FF7FD8
:100BB000010000009B42002002000000B83505083B
:100BC000E33F002003000000C8350508E23F002095
:100BD00003000000C8350508984100200000E80324
:100BE00001000000964100200000E8030100000021
:100BF000944100200000E803010000009241002021
:100C00000000E80301000000904100200000E8031C
:100C1000010000008E4100200000E80301000000F8
:100C20008D410020001401008C41002003000000D1
:100C3000D8350508A44100200000F401010000009F
:100C4000A24100200000F40101000000A0410020AA
:100C50000000F401010000009E4100200000F401AA
:100C6000010000009C4100200000803E01000000C7
:100C70009A4100200000803E01000000CD4100208C
:100C800019640100CC41002002000000E83505088D
:100C9000CA410020E803D0070A000000C841002034
:100CA000006401000A000000BD4100200064010052
:100CB000BC41002000640100C44100200064010028
:100CC0000A000000C3410020006401000A00000087
:100CD000C2410020006401000A000000C74100205A
:100CE000006401000A000000C64100200064010009
:100CF0000A000000C5410020006401000A00000055
:100D0000C141002001FF01000A000000C041002095
:100D100001FF01000A000000BF41002001FF0100A7
:100D20000A000000EC3F00200000F4010100000078
:100D3000EA3F00200000F40101000000E83F00202D
:100D40000000F40101000000E63F00200000F40173
:100D500001000000E43F00200000F4010100000059
:100D6000B541002000640100B4410020006401008E
:100D7000B341002000640100B2410020FF080100DF
:100D8000B141002001640100410101080501010891
:100D9000F4350508B041002000640100AE41002098
:100DA0001400E80301000000AC410020E8033075A6
:100DB0000A000000AA41002000C80100A94100204B
:100DC00000C80100A841002000C80100A741002080
:100DD000006401000A000000824200200000D007E9
:100DE000010000007D42002000C801007C4200207C
:100DF00000C801007B42002000C8010080420020A2
:100E00000000D007010000007A42002000C8010065
:100E10007942002000C801007842002000C801008B
:100E20007E4200200000D007010000007742002031
:100E300000C801007642002000C801007542002071
:100E400000C801000000000075FE000864360508B7
:100E5000D73F00203100000000370508D63F0020B2
:100E600000C80100D43F0020E803D00701000000C3
:100E7000504C554D463400005F3F002000030100F8
:100E80005E3F002000030100D5FD0008ADFD000815
:100E9000C837050869FD00081DFD00081C38050855
:100EA000FDFD0008CD2401089C3805085C3F0020AA
:100EB000010301009D02010871020108903B050831
:100EC000ADFC00086DFC0008F43B05088BFE000833
:100ED000C5360108903C0508D1200108000000003B
:100EE000383D050851280108FD020108D43D0508D8
:100EF000DDFE000800000000543E0508B5FF0008B4
:100F000061FF0008B83E0508450001080900010816
:100F1000543F05087D010108C5010108D43F0508BB
:100F2000BB4100200106010025FF0008F1FE00087A
:100F3000D04005088100010831250108404105081D
:100F4000F5010108B525010820420508A641002049
:100F50000103010045FE000815FE0008F4420508E3
:100F6000C90201080000000058430508EDFC000814
:100F70009D240108BC43050800000000000000009B
:100F800048440508490201082D260108C8440508FF
:100F90003E3F002088136F1701000000403F0020F3
:100FA00088136F17000000000E6000200000000092
:100FB000000000000C6000200000000000000000A5
:100FC0000A6000200000000000000000086000200F
:100FD000000000000000000006600020000000008B
:100FE000000000000460002000000000000000007D
:100FF000F80B00200000000000000000143F00205B
:1010000002000000504605083C3F002088136F177F
:1010100001000000046B002088136F17000000001F
:1010200001FC0008000000005C4605080A4700209B
:1010300001000000B0460508066B0020010000001A
:10104000BC460508FC6A002002000000C4460508F2
:101050000000000000000000D0460508EDFB00087D
:10106000000000006C4705080000000000000000C0
:10107000C0470508000000000000000030480508D7
:10108000006B0020E0150C170000000001000000BC
:10109000A00F0000B80B00000102FFFF01000000DC
:1010A0000403090412010002EF02014083045632D6
:1010B00000020102030100001201000202020040CE
:1010C00083044057000201020301000009022000CE
:1010D000010104C03209040000020806500507059A
:1010E000810240000007050102400000090264007F
:1010F000030100C0320904000001030000000921BF
:10110000110100012226000705830308000A080BCD
:1011100001020202010009040100010202010005AE
:101120002400100105240100020424020205240603
:101130000102070582030800FF09040200020A00F9
:101140000000070501024000000705810240000081
:1011500009024300020100C032090400000102023A
:1011600001000524001001052401000104240202ED
:101170000524060001070582030800FF0904010099
:10118000020A000000070501024000000705810275
:1011900040000000FF0000000851050800000000AA
:1011A000000000000000000000000000000000003F
:1011B000000000000000000000000000000000002F
:1011C00000FFFF0000000000AA550501000001001B
:1011D000DC500508000000000000000000000000D6
:1011E00000000000000000000000000000000000FF
:1011F0000000000000000000FF1FFF1F050109059F
:10120000A101A1000501093009310932093309356D
:101210000934094009381581257F75089508810230
:10122000C0C0000009022200010100E032090400F0
:10123000000103010200092111010001222600071B
:1012400005830308000A00000000000001020304F7
:101250000102030406070809C5520208C951020821
:1012600021560208D9250208512B0208E925020857
:1012700005260208B1250208A12502080000000089
:10128000000000002D202D2D202D2D2D2D202D2D69
:101290002D2D0000000000000000000000000000F4
:1012A000000000AA550B010000AA5507010000AA82
:1012B000550902000000AA5503009F00010000002C
:1012C000C0120000E470002000000000087100203F
:1012D00000000000FFFFFFFF0000803F0000000053
:1012E00000000000000000000000803F000000003F
:1012F00000000000000000000000000000000000EE
:1013000000000000000000000000000000000000DD
:101310000000803F0000000000000000000000000E
:1013200001000000FFFFFFFF0000803F0000000001
:101330000000000000000000FF00000000000000AE
:1013400048940020080000000000000038940020AD
:10135000080000000000803F74BF050880BF05083A
:101360008CBF050898BF0508A4BF0508B0BF0508D5
:1013700078AB050850DD050880DC050800BF0508CE
:101380006C04060864BF050868BF05086CBF050843
:1013900070BF050854BF050858BF05085CBF0508A5
:1013A000F0DA050860BF05081900C800F401200341
:1013B00054BF050858BF0508BCBF05085CBF050839
:1013C000C0BF0508C4BF0508352B0208212A020842
:1013D000FD550208000000009D250208B5510208D5
:1013E000712902082D5102080000000000000000D1
:1013F00059250208ED240208E124020831470208B9
:101400004D47020815470208F9460208DD46020862
:10141000ED2A0208FD2902083D55020800000000DF
:101420007125020831510208452902088D50020831
:101430000000000000000000652502080000010017
:10144000E0010000FFFFFFFF080101FFFFFF0000B8
:1014500008000000DD240208D9240208D52402086F
:10146000C9240208C5240208D1240208CD24020898
:10147000A15603080000000000000000000000006A
:101480000100000000600240106002400000000007
:1014900000000000000B0000000000000000000041
:1014A00000000000006002402860024001000000CF
:1014B00000000000060C000000000000000000001A
:1014C0000000000000600240406002400200000096
:1014D00000000000100D00000000000000000000EF
:1014E000000000000060024058600240030000005D
:1014F00000000000160E00000000000000000000C8
:101500000000000000600240706002400400000023
:1015100000000000200F000000000000000000009C
:1015200000000000006002408860024005000000EA
:101530000000000026100000000000000000000075
:101540000000000000600240A060024006000000B1
:10155000000000003011000000000000000000004A
:101560000000000000600240B86002400700000078
:1015700000000000362F0000000000000000000006
:1015800000000000006402401064024000000000FF
:101590000000000000380000000000000000000013
:1015A00000000000006402402864024001000000C6
:1015B00000000000063900000000000000000000EC
:1015C000000000000064024040640240020000008D
:1015D00000000000103A00000000000000000000C1
:1015E0000000000000640240586402400300000054
:1015F00000000000163B000000000000000000009A
:10160000000000000064024070640240040000001A
:1016100000000000203C000000000000000000006E
:1016200000000000006402408864024005000000E1
:101630000000000026440000000000000000000040
:101640000000000000640240A064024006000000A8
:101650000000000030450000000000000000000015
:101660000000000000640240B8640240070000006F
:1016700000000000364600000000000000000000EE
:101680000000000098C8050858C8050800000000C0
:101690000D540308A08601000400000000000000B3
:1016A000000000000000000000000000000000003A
:1016B000000000000000000000000000000000002A
:1016C0000000000098C80508A0C805080000000038
:1016D000B99F0108E80300000400000000000000BA
:1016E00000000000000000000000000000000000FA
:1016F00000000000000000000000000000000000EA
:10170000000000002CA30508A8C805080000000080
:101710001D7D03087D0000000600000000000000A1
:1017200000000000000000000000000000000000B9
:1017300000000000000000000000000000000000A9
:1017400000000000B0C80508000000000000000014
:1017500029C30108E80300000300000000000000A6
:101760000000000000000000000000000000000079
:101770000000000000000000000000000000000069
:1017800000000000B4C805080000000000000000D0
:1017900021FF0208102700000300000000000000E5
:1017A0000000000000000000000000000000000039
:1017B0000000000000000000000000000000000029
:1017C000000000008000060800000000CD1B01089A
:1017D000B10602085F76000005000000000000006E
:1017E00000000000000000000000000000000000F9
:1017F00000000000000000000000000000000000E9
:10180000000000000C0306080000000000000000BB
:10181000751B0208102700000100000000000000F6
:1018200000000000000000000000000000000000B8
:1018300000000000000000000000000000000000A8
:1018400000000000C0C80508000000000000000003
:10185000BD9F0108E8030000050000000000000033
:101860000000000000000000000000000000000078
:101870000000000000000000000000000000000068
:1018800000000000CCC805080000000000000000B7
:10189000B5750308204E00000300000000000000A2
:1018A0000000000000000000000000000000000038
:1018B0000000000000000000000000000000000028
:1018C00000000000DCC80508000000000000000067
:1018D000A1730308204E0000030000000000000078
:1018E00000000000000000000000000000000000F8
:1018F00000000000000000000000000000000000E8
:1019000000000000ECC80508000000000000000016
:1019100075A40108400D0300030000000000000052
:1019200000000000000000000000000000000000B7
:1019300000000000000000000000000000000000A7
:1019400000000000D0BD05080000000000000000FD
:1019500015D9030810270000010000000000000056
:101960000000000000000000000000000000000077
:101970000000000000000000000000000000000067
:10198000000000006CC80508000000000000000016
:10199000ED2D0408102700000300000000000000E7
:1019A0000000000000000000000000000000000037
:1019B0000000000000000000000000000000000027
:1019C00000000000449F0508000000000000000027
:1019D000919E0108A86100000100000000000000C5
:1019E00000000000000000000000000000000000F7
:1019F00000000000000000000000000000000000E7
:101A000000000000F8BD0508000000000000000014
:101A10001DD00108A00F0000010000000000000020
:101A200000000000000000000000000000000000B6
:101A300000000000000000000000000000000000A6
:101A400000000000FCC805080000000000000000C5
:101A5000B94D04081027000001000000000000003C
:101A60000000000000000000000000000000000076
:101A70000000000000000000000000000000000066
:101A80000000000078AA0508000000000000000027
:101A90009D4104081A410000010000000000000000
:101AA0000000000000000000000000000000000036
:101AB0000000000000000000000000000000000026
:101AC00000000000049F0508000000000000000066
:101AD000092E02081027000001000000000000008D
:101AE00000000000000000000000000000000000F6
:101AF00000000000000000000000000000000000E6
:101B00000000000064C8050800000000000000009C
:101B1000453D01081A4100000100000000000000DE
:101B200000000000000000000000000000000000B5
:101B300000000000000000000000000000000000A5
:101B40000000000008C905080000000000000000B7
:101B50000D340208400D03000000000000000000EA
:101B60000000000000000000000000000000000075
:101B70000000000000000000000000000000000065
:101B80000000000010C9050800000000000000006F
:101B900017BF0308400D0300000000000000000014
:101BA0000000000000000000000000000000000035
:101BB0000000000000000000000000000000000025
:101BC0000000000018C90508000000000000000027
:101BD0007D58040850C3000003000000000000000E
:101BE00000000000000000000000000000000000F5
:101BF00000000000000000000000000000000000E5
:101C00000000000024C905080000000000000000DA
:101C10001573030840420F000000000000000000A0
:101C200000000000000000000000000000000000B4
:101C300000000000000000000000000000000000A4
:101C40000000000030C9050800000000000000008E
:101C5000F1D3030850C300000000000000000000A2
:101C60000000000000000000000000000000000074
:101C70000000000000000000000000000000000064
:101C8000000000000000803FFFFF00007400060815
:101C900000000802050303007C000608010008029A
:101CA00005040300E4C005080200FE010110030062
:101CB00058A0050803001402000300008400060871
:101CC00004001F02010008008C00060805001F0226
:081CD00001010800FFFFFFFF06
:1080000003685A1C02601970704700BF2DE9F047E1
:10801000089C2578002B804689460CBF4FF0200A2B
:108020004FF0300A661C25B3002A26DD334601E0F6
:10803000024698B113F8011B501E0029F8D1971E73
:1080400060B13D46013D51464046C8476B1C002B80
:10805000F8DC257827EAE770013045B1041B294692
:108060004046C847301916F8015B002DF7D1BDE82E
:10807000F087002A03DC2846F9E70020EEE7571EC8
:10808000DFE700BF2DE9F04714461D4606464FF4D2
:108090007A7200232046294648F0C0FC4D4BDFF899
:1080A00048814D4A4D4F034488FB03101844D917AB
:1080B00082FB032CC1EB601088FB002887FB0327A1
:1080C0009C44474AC1EBEC2CC0EB001E82FB0C2900
:1080D000A3EB8E0E1F44434A86F806E0C1EB274708
:1080E0004FEAEC7E08EB000ACEEBA90E82FB07827A
:1080F0004FEAE0780EEB4E0EC8EB6A18ACEBCE0CF4
:10810000C8EB0818DFF8E4E086F804C0A0EB8800AC
:1081100070718EFB0303F817C0EBE21240F2B5500A
:1081200000FB1272C1EBE353B2F5896F4FEA83078C
:108130003CDA40F2DA239A4242DCB2F5B77FB4BFB0
:108140004FF0000E4FF0010E4FEA4E09DFF8A0800D
:1081500009EB0E0308EBC3031FFA8EFCD88A09EB68
:108160000E0108EBC10116310B2301E031F8020DBD
:10817000904218DD013BF9D1CE44012338F83E008E
:10818000B37007F5FA670132121ABC44F270A6F810
:1081900000C0204629464FF47A72002348F03EFC86
:1081A0003281BDE8F0870133DBB2E9E74FF0030C21
:1081B000E64640F29650DFF838804FF00609CEE7E9
:1081C0004FF0020CDFF82880E64640F229404FF0DD
:1081D0000409C4E780BC92C7C5B3A29107452EC26B
:1081E000ABAAAA2A73B06D1689888888792D0311E5
:1081F000482605080028F0B403DA2D230B7040420E
:108200000131092804464FF0010307DD03EB830326
:108210005B00B0FBF3F2092AF8D883B10F48A0FB4A
:108220000326B4FBF3F2092A02F1570C02F13007DE
:1082300009DD03FB1244F30801F801CBEFD1002361
:108240000B70F0BC704703FB1244F30801F8017B8C
:10825000E5D100230B70F0BC704700BFCDCCCCCC77
:10826000884270B44FF0010442D301FB04F4B0FB28
:10827000F4F58D42F9D2ECB142BB092D04FB150097
:1082800005F1570605F130020EDDB4FBF1F403F8F9
:10829000016B7CB1B0FBF4F5092D04FB150005F171
:1082A000570605F13002F0DCB4FBF1F403F8012BC2
:1082B000002CEFD100221A7070BC704703F8016BDC
:1082C000B4FBF1F4002CF5D0B0FBF4F5092D04FB60
:1082D000150005F1370605F13002EFDCB4FBF1F4CF
:1082E00003F8012B002CEFD100221A7070BC7047EC
:1082F0000546002AEAD1C0E790ED057A90ED004AE4
:10830000D0ED066AD0ED014AD0ED047A90ED035A23
:10831000D0ED025AA4EE007AB0EE406AB0EE470A01
:10832000B0EE667AA4EE867A67EEC07AA5EE407A61
:10833000E5EE867A80ED057AC0ED067A704700BFDB
:10834000D0ED057A90ED013AD0ED003AD0ED064A35
:1083500090ED024A90ED077A90ED035A90ED086A8D
:10836000D0ED045AC0ED067AF0EE406A27EE830A9B
:10837000C0ED056AA3EEA60A80ED087AA4EE240AF1
:10838000A5EE470AA5EEC60A80ED070A704700BFB2
:10839000D0ED007A90ED017A30EE670AE7EE007AD0
:1083A000B0EE670AC0ED007A704700BF704700BFAB
:1083B00030B414220023342503240221C270012288
:1083C0008571C4710370C3728373C373417041724A
:1083D00082700272827230BC704700BF0023062197
:1083E0004FF47A720170C0E901230373704700BF34
:1083F00030B43123332232254FF60174FF2143700C
:10840000427101230022C5700482817403720370DB
:108410000371837042818281C28130BC704700BF8A
:108420002DE9F04F3149324B83B001F1A00B01909F
:1084300013274FF000092F481022012603E02030B7
:1084400098420BD002799742F9D102680C68A24297
:1084500009D02030984206F10106F3D12031594568
:108460003AD00F79E7E744794D79A542F1D19446A6
:10847000019A214809EB490502EB050A57558AF88C
:10848000016000F572751D4E624603E0A8421AD0E5
:1084900050F82C6FB242F9D10679A642F6D1CF68D6
:1084A00006464FF0000C96468046F268BA4216D057
:1084B0000CF1010CBCF1030F06F10C06F5D140469E
:1084C000A8427246E4D14FF0FF3C203159458AF86A
:1084D00002C009F10109C4D103B0BDE8F08F0869F9
:1084E00032698242E4D14FFA8CFCEEE71C54050855
:1084F00004700508446605080C700508000001407A
:10850000144BFF22F0B54FF0FF34C27002710272BB
:1085100042724273827303F10C0EA446172716268B
:108520001525002202EB820281189E4585544E706B
:108530008F7081F803C00C710AD093F90620DD79A1
:108540001E7A5F7A93F90AC093F90B400633E9E784
:10855000F0BD00BFA826050810B42C21012402227A
:108560000023047041708270C3705DF8044B704743
:10857000034600F11001FF221A705A70023399422B
:10858000FAD102704270027142718272C2727047F7
:1085900030B41D6995420AD314460A4621448D42DF
:1085A000996938BF2A1B214430BC48F0D5BC30BC87
:1085B000704700BF002070470120704701207047BE
:1085C000002070474FF40070024B10609B680B60F6
:1085D0000020704768B60020013A30B4D2B28C1C3B
:1085E00004EB42040025020F092AD3B203F1300242
:1085F0008ABF37330A700B704D7002318C424FEADC
:108600000010F0D130BC70470B4A0C4B10681B684F
:108610001A22C0180A8001D10948704710B5094BC9
:1086200009491C680822FFF7D7FF204604220749A2
:10863000FFF7D2FF024810BDE8F7FF1FECF7FF1F5E
:1086400088010020EAF7FF1F8A0100209A0100201C
:1086500004230B8000487047A401002012230B80E4
:1086600000487047A80100201F22032302704370B6
:10867000704700BF08307047704700BF8161704786
:108680004FF4006303837047012380F85030704734
:10869000F0B4037C456902681F2B37D9203B2021A9
:1086A000546899400C4223D010249C40D160D4607F
:1086B0005168D940CE074ED4EFF31183502282F394
:1086C0001288EA6B1168C90709D45468002C52D18A
:1086D000D5E909618E4243D1012285F86020DBB2E1
:1086E00083F31188037C02681F2B194614D9203BA1
:1086F000082150689940084200D0D1600421506898
:1087000001FA03F3184223D1F0BC70472024166805
:108710009C4026420FD11946082310688B4018420E
:1087200000D093600423106803FA01F10842EBD0F3
:108730009160F0BC7047102199409460916011687D
:10874000D940CC07B8D5012101FA03F39360B3E710
:10875000D360F0BC7047012101FA03F3D360ABE7AB
:10876000AF690F44D7600ED82E69711A5160AC62A0
:10877000002185F86010116841F00101DBB2116041
:1087800083F31188AEE7711A5160AE62F0E700BF63
:108790002DE9F041B14DB24C2A7823789A4240F04D
:1087A0001B81B04B1A78002A7CD0AF4B1E78AF4BA0
:1087B000002E79D11968B3F82C714E628889012A8C
:1087C00040EA07008881A3F82C6157D0D3F8301114
:1087D000B3F85C724E628889022A40EA07008881F9
:1087E000A3F85C624AD0D3F86012B3F88C734E627F
:1087F0008889032A40EA07008881A3F88C633DD06A
:10880000D3F89013B3F8BC744E628889042A40EA06
:1088100007008881A3F8BC6430D0D3F8C014B3F843
:10882000EC754E628889052A40EA07008881A3F822
:10883000EC6523D0D3F8F015B3F81C774E62888925
:10884000062A40EA07008881A3F81C6716D0D3F8EF
:108850002017B3F84C784E628889072A40EA07004F
:108860008881A3F84C6809D0D3F85028B3F87C0964
:108870005662918901439181A3F87C692A78237813
:108880009A420FD07A481F469B003B449B00C21877
:10889000C3583BB9137A2BB9537A1BB97B1C03F02D
:1088A00003032370BDE8F0815E6819897160376841
:1088B000186847F0010740F20D313760A0F8481002
:1088C0008689012A46F480768681D7D0D3F8346130
:1088D000B3F83871D3F830017760376847F0010793
:1088E0003760A0F848108689022A46F4807686818F
:1088F000C4D0D3F86462B3F86872D3F860027760CA
:10890000376847F001073760A0F848108689032AC6
:1089100046F480768681B1D0D3F89463B3F8987327
:10892000D3F890037760376847F001073760A0F805
:1089300048108689042A46F4807686819ED0D3F832
:10894000C464B3F8C874D3F8C0047760376847F0DC
:1089500001073760A0F848108689052A46F480761A
:1089600086818BD0D3F8F465B3F8F875D3F8F005A9
:108970007760376847F001073760A0F848108689AC
:10898000062A46F4807686813FF478AFD3F82467D0
:10899000B3F82877D3F820077760376847F00107E6
:1089A0003760A0F848108689072A46F480768681C9
:1089B0003FF464AFD3F85428B3F85808D3F85038CC
:1089C0005060106840F001001060A3F848109A89C8
:1089D00042F480729A8151E7804614F067F8277854
:1089E0002B78BB4286461DD0BB002148DA1900EB2C
:1089F0008202167AC6B1B8F1000F3DD01D4900229F
:108A0000B1F808C00132BCF1000F18BF0026424582
:108A100001F58071F4D17EBB124A1278002A3FF42E
:108A200034AFC2E61248BB003B449B00C118C25899
:108A3000AEEB0202002AFFF635AF4A7A3AB1013AAC
:108A4000D2B24A7212B30EF57A72C25000E0C2502E
:108A5000044B1A78002A7FF4A8AE0FE778D70020DD
:108A600079D70020542E0010502E0010A0C40020F2
:108A70007CD70020A0BC0020DA1992000EF51C5112
:108A800086181031815000223272C5E74A6872445C
:108A9000C250DDE710B5027C01681F2A4FF02003A9
:108AA0000ED94C68203A93401C4208D00B4A4068CB
:108AB00000241470026822F001020260CB6010BD35
:108AC0000C6893401C42FAD0044A40680024147099
:108AD000026822F0010202608B60F0E7D79D00205F
:108AE00018F0B2BF014B186814F094BA2855002052
:108AF00038B51D4B1B78044600F1250593B10422BF
:108B00001A49203049F08AFD28461422184949F0B4
:108B100085FD012384F83A30164B1B7873B984F82D
:108B20003B3038BD28461422134949F077FD012314
:108B300084F83A300F4B1B78002BF0D00F4B18689D
:108B400059689A68DD68E56020606160A260DD694F
:108B5000186959699A69A2610123E561206161611F
:108B600084F83B3038BD00BF4195002010950020AF
:108B7000F894002042950020009B050818950020DD
:108B800038B52E22002149F00BFD034640F2DC519E
:108B9000642040F21A4240F20224187459821320D1
:108BA00019219A8240F2753240F26C751C839876D6
:108BB0000E240A201977DA8302210122DD8283F84C
:108BC0002D0040F64305197283F82C1083F82240DB
:108BD0009A7383F8252083F82B201D8419460248B8
:108BE000BDE8384010F032B9089B050810B50021E7
:108BF0000446012012F0B0FF207010BD38B50024EB
:108C00000472451EE1B2022012F0A6FF0134082CC6
:108C100005F8010FF6D138BD2DE9F84FDDE90A64FA
:108C200089461746002120229846054649F0B8FC9F
:108C30005EB1D6E900327189EB81C3F30F432B8219
:108C4000C2F30F43EA822B836982484647F0F0F96A
:108C500017F0100B10D1431E70B119F803202E2A03
:108C600018BF09EB030104D14AE011F8016D2E2E63
:108C70003ED013F1FF33F8D208280246CA46A8BFF7
:108C800008224FF0000B4FF020336B602B60C5F8CB
:108C900007304946284605F1080648F05DF95A466E
:108CA0005146304648F058F96B1EE81D13F8012F65
:108CB000A2F1610119299CBF203A1A708342F5D1B3
:108CC00005F10B0116F8013BA3F16102192A9CBFC3
:108CD000203B06F8013CB142F4D11823C8F30F42FF
:108CE000EF722B73A5F81A80AA82EC61BDE8F88FA9
:108CF000C01A00F1FF3BBBF1030FA8BF4FF0030BFD
:108D0000082B03F1010AA8BF0823CA441A46BAE790
:108D10002DE9F04F002087B00C461D4601219246F8
:108D200017F07AFC002D63D005EB0A03DFF8D0942E
:108D3000DFF8D0B4039355461CE0002D00F0C58148
:108D4000D9F81430AB4264D0D9F81030AB4200F0FF
:108D50009780D9E90631AB4252D8A94200F26F811F
:108D6000691A20463FF0D6F9039B01359D4204F570
:108D700000743DD0D9F82060AE42DED8D9F83080FA
:108D8000AE1B4FEAD60AD8F830300AF1020A9A45EB
:108D900006F0070603D3D8F838309A4509D941467A
:108DA00050463FF085F98046002800F04D81C9F813
:108DB000300098F80430002B40F0E280D8F828709A
:108DC000002F00F0DF81D8F83030D8F80C20AAEB63
:108DD000030A06EBCA0A4346204602EB4A224FF436
:108DE0000071B847039B01359D4204F50074C1D161
:108DF0000021084617F010FC002007B0BDE8F08FF6
:108E0000A942ADD94FF400720021204649F0C8FBB9
:108E1000AAE7522261204123002622706270A070CE
:108E2000722284F8E70184F8E631D9F82800E3706B
:108E30004FF0FF33314684F8E42184F8E521C4F88B
:108E4000E8014FF4F07284F8EC3184F8ED3184F8E5
:108E5000EE3184F8EF31201D49F0A2FB55216FF06F
:108E60005502C4F8F061C4F8F461C4F8F86184F8FC
:108E7000FC6184F8FD6184F8FE1184F8FF2173E73A
:108E80004FF400720021204649F08AFBD44BD54FA5
:108E900003CBEB23022223704FF0080C9026F8231B
:108EA0004FF0580EC4F80300227484F80DC0C4F8C3
:108EB000071084F801E0A6706375D9F81010D9F88E
:108EC0000830D9F81C602273591A21624FF0FF3123
:108ED00000233F20A1763E21A273E372E373637403
:108EE000A374E3742375A375E3756376E376637700
:108EF000A377E3772076217784F82C2007CFD9F861
:108F0000187084F82830F61B84F8293084F82A3049
:108F100084F82B3084F82D3084F82E3084F82F30EC
:108F200084F8313084F8323084F83330802366623C
:108F3000C4F8470004F1470684F840302920942300
:108F4000A94F84F846C084F8420084F843300E20CC
:108F50000D234FF0010C84F8440084F8453084F868
:108F600030C0716003CF33465527AA269A60C4F8F3
:108F70005200C4F8561084F8FE7184F8FF61F3E6DD
:108F80004FF400720021204649F00AFBD8F8403027
:108F9000002E61D104F12007002B77D0D8F83030B3
:108FA00092491122CDE900662046FFF735FED8F838
:108FB00040301A6C04F1400A002A79D01B6B8C49AE
:108FC000CDE9006638461122FFF726FED8F8446046
:108FD000002E3FF4C9AE4FF4E078CDE904450CE033
:108FE0000024CDE900C4FFF717FEB66CBA46A8F11D
:108FF00020080EB3B8F11F0F1ED93468356B96F8F0
:1090000004E011222B46214650460AF1200706F1C2
:109010001C0CBEF1000FE3D172793369019342F069
:1090200021022B46CDF800C0FFF7F6FDB66CBA461C
:10903000A8F12008002EDDD1DDE9044594E6E91A07
:1090400020463FF067F88FE6231F04F5FE7243F8D1
:1090500004BF9A42FBD187E6002BD8F844200CBF0E
:1090600001230223C3EB0613002A3FF47DAE966C66
:10907000013B002E3FF478AE013BB66CF9D1002ED7
:109080003FF472AEA2464FF40078A6E7CDE9006641
:109090003346D9F80C1008222046FFF7BDFDD8F85A
:1090A0004460002E3FF460AEBA464FF4F07894E787
:1090B000CDE900663346384611224D49FFF7ACFD35
:1090C000D8F84460002E86D14EE64FF4007229464F
:1090D000204649F065FA80220C2384F8BE2184F8EA
:1090E000C231D9F81000434BD9F8086084F8B85160
:1090F00083FB0032C117C1EB2232B2F5806F84F8D6
:10910000B95184F8BA5184F8BB5184F8BC5184F841
:10911000BD51C4F8C601C4F8CA6142DBFF2384F81C
:10912000BF3184F8C13184F8C031324B711E83FBEA
:109130000132CE17C6EB2232B2F5806F29DA2E4B00
:1091400084F8C52183FB01030B442C48C6EB631351
:10915000C3EB831680FB0370891B1844DE17921043
:1091600022F03F020131C6EBE0100A43034484F8C9
:10917000C42184F8C3315522AA2384F8FE2184F83F
:10918000FF31F1E539464FF40072204649F008FA04
:10919000EAE5FF2384F8C33184F8C53184F8C4318B
:1091A000E9E7154B84F8C12183FB00730344134F97
:1091B000C1EB631387FB0317C3EB831C9110A0EB78
:1091C0000C02F818DF1721F03F010132C7EBE01065
:1091D0000A43034484F8C02184F8BF31A5E700BFE7
:1091E0001C9B0508289B0508389B0508149B05084F
:1091F000189B05089755454183200882818080800F
:1092000068B60020DEADBEEF08B501201CF054FDAD
:10921000174A936803F00C03042B1ED0082B18D1B7
:1092200051685368490203F03F0319D4526811484A
:10923000B0FBF3F0C2F3881300FB03F00C4B0E4AB3
:109240005B68C3F3014301335B00B0FBF3F01060D4
:1092500008BD094B074A1A6008BD074B186008BDD6
:10926000B0FBF3F05368C3F3881300FB03F0E5E7AA
:10927000003802400024F40044BB002010B5044C28
:1092800004480A4621461BF003FA204610BD00BFE1
:1092900010160020449B050810B5044C04480A46EB
:1092A00021461BF0F5F9204610BD00BF1016002026
:1092B000549B050810B5044C04480A4621461BF08F
:1092C000E7F9204610BD00BF10160020609B05087E
:1092D0000A4608B5054920B105481BF0D9F90348ED
:1092E00008BD04481BF0D4F9004808BD1016002042
:1092F0008C9B0508749B05082DE9F04F87B0A94A9F
:1093000002904068038823F040031B041B0C038079
:10931000038823F038031B0490424FEA134300F004
:109320003F8102F5806290420CBF30223822134305
:109330000380029B02889B6842F04002028013B1C6
:109340001A689B885383838940F2E93302E0002B3B
:1093500000F090810289013B12F0020F9BB2F6D01F
:109360006B23838140F2E93302E0002B00F082811D
:109370000289013B12F0010F9BB2F6D083898389E9
:1093800040F2E93302E0002B00F071810289013BD9
:1093900012F0020F9BB2F6D08023838140F2E933B2
:1093A00002E0002B00F063810289013B12F0010F03
:1093B0009BB2F6D08389029B9B6813B11A689B8885
:1093C00013830623784CDFF8EC81DFF8ECA1774DAE
:1093D000774E04939623DFF8E4C101934FF0100E0B
:1093E000DAF80430C3F30803002B40F0B280EFF347
:1093F0001183002B40F0AD802068AA682368984252
:10940000FAD133689A42F7D8D8F800704FF47A71DD
:1094100001FB07F39B1AB3FBF7F301FB00304FF49A
:109420007A774FF00109DAF80430C3F30803002B10
:1094300070D1EFF31183002B6CD12368A9682268E7
:109440009342FAD132689142F7D8D8F8002007FB4E
:1094500002FBABEB0101B1FBF2F107FB03131B1A9B
:10946000B3F57A7FDFD3019B013B0193B8D1029B17
:109470009B6813B11A689B885383029B586840F21B
:10948000E933828902E0002B00F085800289013BEC
:1094900012F0020F9BB2F6D0F523838140F2E9333C
:1094A00001E0002B77D00289013B12F0010F9BB243
:1094B000F7D08389838940F2E93301E0002B67D03C
:1094C0000289013B12F0020F9BB2F7D0FF23838188
:1094D00040F2E93301E0002B5AD00289013B12F03F
:1094E000010F9BB2F7D08389DBB20393029B9A688A
:1094F00012B1136891881983039B682B60D0049B79
:10950000013B13F0FF0304937FF464AF184607B0E8
:10951000BDE8F08FEFF311818EF31288D5F808B013
:109520002B68DB0344BFCCF80090D5F808B0236863
:10953000DCF80020C9B281F31188D8F80010134478
:1095400007FB01F2A2EB0B02B2FBF1F207FB0323D4
:1095500085E7EFF311838EF31288AF682A68D20390
:1095600003D50122CCF80020AF682068DCF8009019
:10957000DBB283F31188D8F800104FF47A724844B4
:1095800002FB01F3DB1BB3FBF1F302FB003046E708
:1095900018F0ECF9AAE718F0E9F9029B586889E796
:1095A0003022C4E600380040C0AF002010E000E0E8
:1095B000C8AF0020C4AF002000ED00E0BCAF002029
:1095C00012B1136892885A83029B586840F2E933BB
:1095D000828901E0002B45D00289013B12F0020F85
:1095E0009BB2F7D08C23838140F2E93301E0002B5A
:1095F00038D00289013B12F0010F9BB2F7D083896A
:10960000838940F2E9330289013B12F0020F9BB2D9
:1096100015D1002BF7D118F0A9F9029B9B6813B163
:109620001A689B881383059B142B04D3182B17D916
:10963000543B062B14D9002007B0BDE8F08FFF2360
:10964000838140F2E93301E0002BE4D00289013B41
:1096500012F0010F9BB2F7D08389DBB20593DCE7F0
:10966000032054E718F082F9029B5868C8E718F005
:109670007DF9A0E618F07AF9029B58687FE600BFF2
:10968000F0B5876983B0064617B13B68BA885A833C
:109690007069DFF8A8E08389C3244FF47A734FF030
:1096A000060C6D464FF6FF710EF1010E03E0013B13
:1096B0009BB28B4220D002899207F8D5A3B2838156
:1096C0004FF47A7302E0A3B28B4215D00289D2071D
:1096D00003F1FF34F7D5828992B20DB12A700135BA
:1096E000BCF1000F0BD00CF1FF3CFF24BEF1000FCA
:1096F000E1D09EF80040D7E718F038F9B76917B104
:109700003B68BA881A839DF805009DF801509DF8C2
:1097100002109DF803409DF804209DF8063041EAB0
:10972000052143EA002342EA04220120A6F8501052
:10973000A6F85220A6F8543003B0F0BDBC260508A8
:109740008A4B1B78002B00F09880002800F0958051
:109750002DE9F04F431E85B0854C0190032B4FF04F
:109760000006A8BF0323A4F114070393B0464FEAF1
:10977000062A07EB0A03256E5B7C002B7ED06A6805
:1097800092B2002A65D114F8050CD4E91B13002805
:1097900000F0AA84603377485B1AA0FB0351890963
:1097A00001EB4101A3EB4113182B00F17785173B27
:1097B000A0FB0323DB0003F0F003D4E91D126D4886
:1097C0006032521AA0FB0251890901EB4101A2EB60
:1097D0004112182A05D4173AA0FB0212C2F3430221
:1097E0001343D4E91F1263486032521AA0FB02519E
:1097F000890901EB4101A2EB4112182A5EBF173A19
:10980000A0FB0212C2F34305D4E92112594802F128
:109810006002A2EB0102A0FB02C14FEA911101EB31
:109820004101A2EB411248BF0025182A58BF173A40
:1098300045EA03155ABFA0FB0223C3F343030023E9
:1098400043EA051383EA132282EA1212100700F09A
:109850000C85494A13680133136026B980224749B1
:10986000474847F079FB07EB0A0383F8118054F867
:10987000109C256ED9F800B00CE0704754F8109C8D
:1098800034F80A1CD9F800B0BBF80C2022EA010217
:10989000ABF80C202A683B4B22F0010221219D42AB
:1098A0002A60C5F80080C5F80480C5F80880C5F8AE
:1098B0000C80C5F8108069611FD0334B9D4200F0C9
:1098C0003783324B9D4200F03D83314B9D4200F087
:1098D000DF84304B9D4200F002852F4A954200F014
:1098E00003852E4A954200F07E852D4A954200F070
:1098F000EC8428461CF0E8F802E02A4A3D219160F9
:10990000BA448AF8108099F805100C2916D8DFE8B7
:1099100011F044011500150015004D01150015004A
:1099200015003B011500150015000D00BBF81C20AB
:1099300022F400621204120CABF81C202246584696
:1099400011F0D2F899F805300C2B37D8DFE813F076
:1099500006013600360036001101360036003600AA
:10996000FB003600360036002C0000BF4C2E0010E5
:10997000B4BC0020ABAAAAAA0C27001020BD00206E
:109980000830001010600240286002404060024031
:10999000586002407060024088600240A06002404F
:1099A000B860024000600240BBF81C3023F4006342
:1099B0001B041B0C43F40063ABF81C30D4E90D12FC
:1099C000236AE06B43F040030B431343226CB1491D
:1099D00003431343626C13434022E262A26C286883
:1099E0001343A26D0292626D1343029A0140134326
:1099F0000B432B60D4E913316A69206B22F0070214
:109A00000B431343D4E909126B616860A960EA60F3
:109A10002B6843F010032B60039B01369E4204F534
:109A200080747FF7A4AE019B9E4280F2CC814FEA06
:109A3000062A0AF114043C444FF0000807EB0A031D
:109A4000256E5B7C002B00F0BA806A6892B2002A17
:109A500065D114F8050CD4E91B13002800F07C82B2
:109A600060338D485B1AA0FB0351890901EB41016A
:109A7000A3EB4113182B00F11484173BA0FB032325
:109A8000DB0003F0F003D4E91D1283486032521A60
:109A9000A0FB0251890901EB4101A2EB4112182AF6
:109AA00005D4173AA0FB0212C2F343021343D4E9D0
:109AB0001F1279486032521AA0FB0251890901EB4A
:109AC0004101A2EB4112182A5EBF173AA0FB021215
:109AD000C2F34305D4E921126F4802F16002A2EB00
:109AE0000102A0FB02C14FEA911101EB4101A2EB7F
:109AF000411248BF0025182A58BF173A45EA0315F6
:109B00005ABFA0FB0223C3F34303002343EA051318
:109B100083EA132282EA1212120700F0E0825F4AFF
:109B200013680133136026B980225D495D4847F010
:109B300013FA07EB0A0383F8118054F8109C256E82
:109B4000D9F800B047E0BBF81C3023F008031B0431
:109B50001B0C43F00803ABF81C302FE7BBF81830A0
:109B600023F008031B041B0C43F00803ABF8183068
:109B700024E7BBF8183023F400631B041B0C43F4E8
:109B80000063ABF8183019E7BBF81C2022F008027C
:109B90001204120CABF81C20D0E6BBF8182022F0FF
:109BA00008021204120CABF81820C7E6BBF8182004
:109BB00022F400621204120CABF81820BEE654F82E
:109BC000109C34F80A1CD9F800B0BBF80C2022EA2B
:109BD0000102ABF80C202A68334B22F0010221214C
:109BE0009D422A60C5F80080C5F80480C5F8088049
:109BF000C5F80C80C5F8108069611FD02B4B9D42C1
:109C000000F091812A4B9D4200F09781294B9D42A3
:109C100000F03983284B9D4200F05D83274A95422E
:109C200000F06783264A954200F0E283254A954278
:109C300000F0468328461BF047FF02E0224A3D2100
:109C40009160BA448AF8108099F805100C2910D850
:109C5000DFE801F0A70F0F0F9E0F0F0FB00F0F0FD0
:109C60000700BBF81C2022F400621204120CABF8AF
:109C70001C202246584610F037FF99F805300C2B6F
:109C80002ED8DFE803F06F2D2D2D7A2D2D2D642D8C
:109C90002D2D23003F801CF0ABAAAAAA0C27001090
:109CA00020BD0020083000101060024028600240F3
:109CB000406002405860024070600240886002408C
:109CC000A0600240B860024000600240BBF81C3057
:109CD00023F400631B041B0C43F40063ABF81C303B
:109CE000D4E90D12236AE06B43F040030B431343A6
:109CF000226C974903431343626C13434022E26290
:109D0000A26C28681343A26D0292626D1343029AFB
:109D1000014013430B432B60D4E913316A69206B74
:109D200022F007020B431343D4E909126B61686008
:109D3000A960EA602B6843F010032B60019B013699
:109D4000B34204F580743ED04FEA062A76E6BBF8AB
:109D50001C3023F008031B041B0C43F00803ABF872
:109D60001C30BDE7BBF8183023F008031B041B0CA4
:109D700043F00803ABF81830B2E7BBF8183023F40F
:109D800000631B041B0C43F40063ABF81830A7E717
:109D9000BBF8182022F400621204120CABF8182051
:109DA00067E7BBF8182022F008021204120CABF887
:109DB00018205EE7BBF81C2022F008021204120CE7
:109DC000ABF81C2055E77A68787B136851798007D7
:109DD00054BF012204228A40198C92B221EA020166
:109DE0001984198C0A431A84019B012B00F0988076
:109DF000D7F8042197F80D0113685179820754BFF1
:109E0000012204228A40198C92B221EA02011984AB
:109E1000198C0A431A84019B022B00F08180D7F829
:109E2000042297F80D0213685179860754BF012266
:109E300004228A40198C92B221EA02011984198CF9
:109E40000A431A84019B032B6AD0D7F8042397F89E
:109E50000D0313685179850754BF012204228A40FB
:109E6000198C92B221EA02011984198C0A431A84CE
:109E7000019B042B54D0D7F8042497F80D141368D1
:109E800050798C0754BF01220422198C824092B26F
:109E900021EA02011984198C0A431A84019B052BBB
:109EA0003ED0D7F8042597F80D051368517980073F
:109EB00054BF012204228A40198C92B221EA020185
:109EC0001984198C0A431A84019B062B28D0D7F8D1
:109ED000042697F80D1613685079890754BF01229C
:109EE0000422198C824092B221EA02011984198C51
:109EF0000A431A84019B072B12D0D7F8042797F83E
:109F00000D071368517982074CBF042201228A4051
:109F1000198C92B221EA02011984198C0A431A841D
:109F200005B0BDE8F08F0B4A4FF47461916088E68C
:109F3000084A4FF474619160E2E4064A4FF47411E8
:109F400091607EE6034A4FF474119160D8E400BF3B
:109F50003F801CF0006002405B1A002B40F3AA8196
:109F60000A2BD4BF00230123D4E91D12521A002A60
:109F70004FEA430340F3FB810A2A01DD43F001036A
:109F8000D4E91F12521A002A4FEA430340F3F78123
:109F90000A2A01DD43F00103D4E92112521A002AF2
:109FA0004FEA430340F3E7810A2A01DD43F001034E
:109FB000D4E92312521A002A4FEA430340F3CF8117
:109FC0000A2A01DD43F00103D4E92512521A002ABE
:109FD0004FEA430340F3BF810A2A01DD43F0010346
:109FE000D4E92712521A002A4FEA430340F3AF8103
:109FF0000A2A01DD43F00103D4E92912521A002A8A
:10A000004FEA430340F39F810A2A01DD43F0010335
:10A01000D4E92B12521A002A4FEA430340F38F81EE
:10A020000A2A01DD43F00103D4E92D12521A002A55
:10A030004FEA430340F37F810A2A01DD43F0010325
:10A04000D4E92F12521A002A4FEA430340F36F81DA
:10A050000A2A01DD43F00103D4E93112521A002A21
:10A060004FEA430340F35F810A2A01DD43F0010315
:10A07000D4E93312521A002A4FEA430340F34F81C6
:10A080000A2A01DD43F00103D4E93512521A002AED
:10A090004FEA430340F33F810A2A01DD43F0010305
:10A0A000D4E93712521A002A4FEA430340F32F81B2
:10A0B0000A2A01DD43F00103D4E93912521A002AB9
:10A0C0004FEA430340F31F810A2A01DD43F00103F5
:10A0D00083EA132282EA121215077FF420ADC3F33C
:10A0E0000F1324F8023C24E55B1A002B40F3DC80BC
:10A0F0000A2BD4BF00230123D4E91D12521A002ACF
:10A100004FEA430340F32F810A2A01DD43F00103A4
:10A11000D4E91F12521A002A4FEA430340F35F8129
:10A120000A2A01DD43F00103D4E92112521A002A60
:10A130004FEA430340F34F810A2A01DD43F0010354
:10A14000D4E92312521A002A4FEA430340F33F8115
:10A150000A2A01DD43F00103D4E92512521A002A2C
:10A160004FEA430340F32F810A2A01DD43F0010344
:10A17000D4E92712521A002A4FEA430340F31F8101
:10A180000A2A01DD43F00103D4E92912521A002AF8
:10A190004FEA430340F30F810A2A01DD43F0010334
:10A1A000D4E92B12521A002A4FEA430340F3FF80EE
:10A1B0000A2A01DD43F00103D4E92D12521A002AC4
:10A1C0004FEA430340F3EF800A2A01DD43F0010325
:10A1D000D4E92F12521A002A4FEA430340F3DF80DA
:10A1E0000A2A01DD43F00103D4E93112521A002A90
:10A1F0004FEA430340F3CF800A2A01DD43F0010315
:10A20000D4E93312521A002A4FEA430340F3BF80C5
:10A210000A2A01DD43F00103D4E93512521A002A5B
:10A220004FEA430340F3AF800A2A01DD43F0010304
:10A23000D4E93712521A002A4FEA430360DD0A2A92
:10A2400001DD43F00103D4E93912521A002A4FEA22
:10A25000430352DD0A2A01DD43F0010383EA13229E
:10A2600082EA121211077FF4F4AA634A1278C3F348
:10A270000F132F2A24F8023C7FF4F5AA5F4A22F834
:10A280001630FFF7F0BA5E4A4FF074619160D8E47F
:10A290005B4A4FF074619160FFF732BB1346FFF7E2
:10A2A0008CBA1346FFF7EFBB13F1090FB4BF0023BD
:10A2B000012321E713F1090FB4BF0023012353E663
:10A2C0004FF03D5142F8AC1CBBE44FF03D5142F819
:10A2D000AC1CFFF715BB4A4A4A49D160B1E4484A71
:10A2E0004849D160FFF70CBB474942F87C1CFFF797
:10A2F00007BB454942F87C1CA3E40932AEDBABE75F
:10A300000932A0DB9DE70932FFF6E2AEDEE6093254
:10A31000FFF6D2AECEE60932FFF6C2AEBEE6093295
:10A32000FFF6B2AEAEE60932FFF6A2AE9EE6093205
:10A33000FFF692AE8EE60932FFF682AE7EE6093275
:10A34000FFF672AE6EE60932FFF662AE5EE60932E5
:10A35000FFF652AE4EE60932FFF642AE3EE6093255
:10A36000FFF632AE2EE60932FFF6D2AECEE6093265
:10A37000FFF606AE02E60932FFF61AAE16E609321D
:10A38000FFF60AAE06E60932FFF652AF4EE7093293
:10A39000FFF642AF3EE70932FFF632AF2EE7093251
:10A3A000FFF622AF1EE70932FFF612AF0EE70932C1
:10A3B000FFF602AFFEE60932FFF6F2AEEEE6093234
:10A3C000FFF6E2AEDEE60932FFF6D2AECEE60932A5
:10A3D000FFF6C2AEBEE60932FFF6B2AEAEE6093215
:10A3E000FFF6A2AE9EE6094942F8941CFFF788BA30
:10A3F000064942F8941C24E4E9AD0020ECAD0020AD
:10A40000006002403D000020400F002000003D2081
:10A41000037C02681F2B86BF203B516811682022F5
:10A4200002FA03F30B4214BF0123002303B9704760
:10A430002DE9F0474569DFF868A12D02044612F0C6
:10A4400035FB0AEB050307461A7C002A34D14F4935
:10A450005A680978D2F80090C9B9596F58890A68C2
:10A4600022F001020A60B9F80C3023EA0003A9F8CF
:10A470000C30474B1B78002B31D1237C21681F2BDC
:10A4800013D8202202FA03F38B60BDE8F0875269EB
:10A49000136823F001031360B9F80C3023F48073C0
:10A4A0001B041B0CA9F80C30E3E7203B202202FA26
:10A4B00003F3CB60BDE8F0875E6F36485F89012209
:10A4C0005A7431685A680368156821F001013160D7
:10A4D000AA89013322EA0702AA810360CDE70AEBC9
:10A4E00005062835D6F8748040461BF07DFB012315
:10A4F0000AEB0501484633741BF036FCD6E912021C
:10A50000736B316DD8F8005003431343D6E915201F
:10A510000B431343F16DB26E03430B431E48F16EC0
:10A52000134328400B43034300223264C8F8003031
:10A53000D6E91831D8F81420B06B756C22F00702F8
:10A540000B431343F26BC8F81430C8F80450C8F832
:10A550000800C8F80C20D8F80020736F96F8700037
:10A56000716842F01002C8F8002058601A68096843
:10A5700042F001021A608B89728913438B8112F0B9
:10A5800095FA064BC01B186077E700BF502E0010ED
:10A590004C2E0010048E00203F801CF00430001070
:10A5A000A0BC0020F0B5067906F06003402B09D16D
:10A5B00044794FF0FF350023012006F00706A3423F
:10A5C0000BD1F0BD602B08BF45794FF001040CBFE3
:10A5D00004FA05F54FF0FF35EDE7042E0CD8DFE85F
:10A5E00006F0030D18242E0030B1C85CD75C78400B
:10A5F00028420CBF012000200133E0E70028FBD0F7
:10A60000C856D756A0EB070CDCF1000040EB0C005D
:10A61000F2E70028F0D031F8130032F813707840D8
:10A6200028420CBF01200020E6E70028E4D031F9E1
:10A63000130032F91370C71B78427841DCE7002819
:10A64000DAD051F8230052F82370784028420CBF2A
:10A6500001200020D0E7024B0146186817F0F4B93A
:10A660001C54002038B5064D441E14F8011F2868FC
:10A6700019B9BDE8384017F09BB917F0E5F9F4E7D0
:10A680001C5400200048EDE767D7050808B5FFF720
:10A69000E9FFBDE80840F5E710B504460348FFF7B9
:10A6A000E1FF2046BDE81040F0E700BFC99A050869
:10A6B00038B5074C074DAC4203D3074B00221A7044
:10A6C00038BD6288D4E9010146F046FC1434F2E753
:10A6D000900100080807000848DA002038B5074C48
:10A6E000074DAC4203D3074B01221A7038BD628874
:10A6F000D4E9011046F030FC1434F2E79001000870
:10A700000807000848DA0020024A136823EA00001C
:10A71000106070477CCE0020DFED2E7AB4EEE70AA1
:10A72000F1EE10FA4ADDDFED2C6A9FED2C7A01E0A4
:10A73000B0EE670AB4EEC70AF1EE10FA70EE667A70
:10A74000F6DC9FED277AF4EEC77AF1EE10FA3ED5EB
:10A75000DFED216A9FED237A01E0F0EE407AF4EE1E
:10A76000C77AF1EE10FA37EEA60AF6D4DFED1E7ABC
:10A77000B4EEE70AF1EE10FA14DDDFED167A37EEEB
:10A78000C00A60EE006A9FED196A9FED197ADFED4D
:10A79000197AA6EE867A20EE266AE6EE877AA6EE8B
:10A7A000270A7047DFED147AB4EEE70AF1EE10FAEB
:10A7B00044BFDFED0B7A37EEC00AE2E79FED087A7F
:10A7C000F0EE407AF4EEC77AF1EE10FAC0D4B0EEB3
:10A7D000670ACBE7DB0F4940DB0FC940E4CB1641EA
:10A7E000DB0F49C0E4CB16C1DB0FC93F92E741B98B
:10A7F0009730083C15A82ABEDB0FC9BFF0EEC07A1F
:10A80000B0EEE07AB4EEE77AF1EE10FAB4BFB0EE53
:10A81000676AB0EE476AB5EE406AF1EE10FA46D0CC
:10A82000B4EEE77AF1EE10FA8CBFF0EE675AF0EE74
:10A83000475AC5EE866A9FED1F3A9FED1F6A9FED4E
:10A840001F4A9FED1F5ADFED1F3ADFED1F4ADFED74
:10A850001F5AA6EEC36AE6EEA34AA6EE864AB7EEF4
:10A86000006AA6EE845AA6EEA46AE6EE855AC5EE04
:10A87000866AB4EEE77AF1EE10FA48BFDFED147A9B
:10A88000F5EEC00A48BF77EEE66AF1EE10FA48BF6F
:10A89000DFED107AB5EEC00A48BF77EEE66AF1EE5A
:10A8A00010FA48BFF1EE666AB0EE660A7047DFED57
:10A8B000076ADEE739094E3DE3B59E3E88FA163E4B
:10A8C00045FE7F3F99FB243F69A2163EA7DFA834CF
:10A8D000DB0FC93FDB0F4940DFED317A30EE277ADD
:10A8E000FDEEC76A16EE903A2033402B02D99FED59
:10A8F0002D0A7047B4EEE70AF1EE10FA4DDD9FED38
:10A900002A6ADFED2A6A01E0B0EE677AB4EEE67AF1
:10A91000F1EE10FA77EE467AF6DC9FED257AF4EE4A
:10A92000C77AF1EE10FA35D5DFED1F6A9FED217A77
:10A9300001E0F0EE407AF4EEC77AF1EE10FA37EE6D
:10A94000A60AF6D4DFED167AB4EEE70AF1EE10FAB5
:10A950001BDCDFED197AB4EEE70AF1EE10FA44BF22
:10A96000DFED137A37EEC00A60EE006A9FED136ADE
:10A970009FED137ADFED137AA6EE867A20EE266A33
:10A98000E6EE877AA6EE270A7047DFED0F7A37EEFC
:10A99000C00AE9E7B0EE670AD4E7F0EE477ABCE711
:10A9A000DB0FC93F00000000DB0FC940E4CB1641BC
:10A9B000DB0F49C0E4CB16C1DB0FC9BF92E741B939
:10A9C0009730083C15A82ABEDB0F494010B44C094B
:10A9D000012250F8243001F01F0102FA01F123EAAC
:10A9E000010340F824305DF8044B704710B44C0963
:10A9F000012250F8243001F01F0102FA01F10B434B
:10AA000040F824305DF8044B704700BF4B0901F05B
:10AA10001F0150F82320012303FA01F1114214BF52
:10AA200018460020704700BF2DE9F043002489B08C
:10AA300006460D461F46A04605E025290CD03046A7
:10AA40000134A847039A531C039311780029F4D1C9
:10AA5000204609B0BDE8F083931CCDE90338507857
:10AA6000302842D0A0F13003DBB2092B4FF00009AF
:10AA700045D96C282AD0642873D019D9732858D0A6
:10AA800063D9752840F0828007F1040C386805AB63
:10AA900000220A216746FDF7E3FB05AB049A009309
:10AAA00029464B463046FDF7B1FA039A0444CAE7FB
:10AAB00025283CD051D958286BD06328C2D1397889
:10AAC0003046A84704370134039ABCE7039B5A1C5D
:10AAD00003921B78642B52D016D8252B27D064D92B
:10AAE000582B18D0632BEAD0ADE7D31C0393907892
:10AAF000A0F13003DBB2092B4FF00109B9D804AA49
:10AB000003A93DF059FBB4E7732B12D051D9752B33
:10AB10002DD0782B97D1A3F15802B2FA82F238687F
:10AB2000520905AB10210437FDF79AFBB5E7252143
:10AB300085E73B68049A0093294600233046FDF7D9
:10AB400065FA04370444039A7DE76E287FF47AAFF0
:10AB5000039A3B6804371C6075E700283FF478AF20
:10AB600070E7386805A9FDF745FB043795E73868B5
:10AB700005AB00220A21FDF773FB04378DE73B1D6F
:10AB8000386805A91F46FDF735FB86E778287FF46E
:10AB900059AFA0F15802B2FA82F23868520905ABF7
:10ABA0001021FDF75DFB043777E7002B3FF450AF32
:10ABB00049E76E2BCDD046E710B5064C0B46024652
:10ABC00005492068FFF730FF2068BDE8104016F007
:10ABD000EFBE00BF1C540020E18A000838B50446CF
:10ABE0000D460848FFF73EFD29462046FFF7E4FFE3
:10ABF0000548FFF737FD054B1B7813B1044B0122C5
:10AC00001A7038BDCE9A0508D99A050878550020E3
:10AC1000795500200FB407B504A951F8040B019130
:10AC2000FFF7DCFFFFF72EFD03B05DF804EB04B087
:10AC300070470FB407B504A951F8040B0191FFF751
:10AC4000CDFF03B05DF804EB04B070470FB407B557
:10AC500004A951F8040B0191FFF7AEFFFFF712FDB5
:10AC600003B05DF804EB04B070470FB407B504A956
:10AC700051F8040B0191FFF79FFF03B05DF804EB5F
:10AC800004B070472DE9F0411746027902F06003E5
:10AC9000402B05460C462BD10026514FDFF85C8136
:10ACA00015E02B7903F00703022B15D0032B19D0E5
:10ACB000012B14BFA15DA1573846FFF7D6FF6B7972
:10ACC000013BB34202DD4046FFF7CCFC01366B7915
:10ACD000B342E6DCBDE8F08134F816103846FFF7E1
:10ACE000C4FFECE734F916103846FFF7BEFFE6E77D
:10ACF00002F00702042A66D8DFE802F0031E2729C3
:10AD00002C002478202B3CD0602B48D0002BE1D1A4
:10AD1000B5F80560B5F8078031482146FFF7A5FF73
:10AD2000A64248DCA04546DB002FD3D04246314640
:10AD30002C48BDE8F04198E794F90040202B20D042
:10AD4000602B2CD0002BC5D144E02488DAE7B4F97D
:10AD50000040F3E72668202B344612D0602B1ED02B
:10AD6000002BB7D131461E48FFF77FFFD5F80510FD
:10AD70008E4220D8002FADD01B48BDE8F04174E7CB
:10AD800000246A79194B03EBC2010979A14212DD53
:10AD900053F8323053F82400BDE8F04162E46A7998
:10ADA0001441E30703D51248BDE8F0415DE71148BF
:10ADB000BDE8F04159E7FFF765FC224629680E48D7
:10ADC000BDE8F04135E7202BDAD0602BEFD0002B27
:10ADD00080D11C46B5F90560B5F907809CE700BF36
:10ADE0001DCC050879C90508DF9A0508DC7C050833
:10ADF0005ACC0508C3C30508E59A0508DD9A05087D
:10AE00000CB407B510F020000BD079B92320FFF760
:10AE100022FC05A904980191FFF7CEFEFFF732FC52
:10AE2000012003B05DF804EB02B070470020F8E7A2
:10AE30000CB4C30607B500D561B905A90498019102
:10AE4000FFF7BAFEFFF71EFC012003B05DF804EB2C
:10AE500002B070470020F8E70EB400B584B005AB2F
:10AE6000019053F8042B0649039301A8FFF7DCFD7A
:10AE7000019B00221A7004B05DF804EB03B0704728
:10AE80000180000870B406688E4217D90139751E1A
:10AE9000002311F8014F0822634013F0800F4FEA9E
:10AEA000430318BF83F0D503013ADBB2F5D18D42DD
:10AEB000EFD1721C0260337070BC7047721C0023AB
:10AEC0000260337070BC70470A44914215D010B4D0
:10AED0000139541E11F8012F0823504010F0800F43
:10AEE0004FEA400018BF80F0D500013BC0B2F5D159
:10AEF000A142EFD15DF8044B7047704748400823EA
:10AF000010F0800F4FEA400018BF80F0D500013BE1
:10AF1000C0B2F5D1704700BF0A44914215D030B499
:10AF20000139551E41F2210211F8014F082380EA30
:10AF3000042004044CBF82EA40004000013B80B280
:10AF4000F7D18D42F0D130BC7047704770B5022206
:10AF50001349144C144E4FF6FF70FFF7DDFF2288A3
:10AF60004AB1A518B54218D2052A16D92146FFF7CD
:10AF7000D3FF2C46F3E721460222FFF7CDFF022242
:10AF8000A118FFF7C9FF094BE41A094B1C8041F6D1
:10AF90000F53C31A5842584170BD0020FCE700BF50
:10AFA000004000080240000800800008FA3F000846
:10AFB0004ADA00200F4B2DE93048D3E9004554EA26
:10AFC00005020AD1034640F2011200201880988041
:10AFD00098715A801881BDE83088074B1A6814EBC5
:10AFE000020B45F1000C5A466346FDF74BF8012071
:10AFF000BDE8308820690020C0AF002030B403884D
:10B000008278C478154DA3F5FA6303F0030101EBD0
:10B010004101013A02EB81029B0835F81250027996
:10B02000611E40F2B55404FB03132B4403EB4303AE
:10B0300002EBC3034279847909490089C3EB031306
:10B0400002EB83032144C3EB031301EB83034FF4AF
:10B050007A720021C2FB030130BC70474826050804
:10B0600080436D382DE9F04707468CB01E46924666
:10B07000002A5CD1154614460A88B2F5FA6F36D319
:10B080008B78581E0B2832D891F803C00CF1FF3092
:10B090001E282CD891F804E0BEF1170F27D891F89C
:10B0A0000590B9F13B0F22D888793B281FD8B1F819
:10B0B0000880B8F57A7F1AD24FF001085EBB098983
:10B0C0000491002CB4BF2D212B21002CB8BF644269
:10B0D000CDE90290CDE905140795CDE900CE3846BB
:10B0E0002A49FFF7B9FE40460CB0BDE8F0870023BF
:10B0F0002749ADF828304FF0010C18468DF82A305A
:10B10000ADF82C3099469E461A46984609916346FA
:10B1100009A9002ED3D0CDE90290CDE900CE384662
:10B120001C49FFF799FE40460CB0BDE8F0871A4C69
:10B1300084FB0234A318D417C4EB6314C4EB0415C6
:10B14000A2EB85052DB2002D0846B8BF6D42FFF772
:10B1500055FF4FF47A7200238046894645F05EFC25
:10B160003C230AFB030A4FF47A7200234046494607
:10B1700045F054FC4FF47A7192B20023C1FB0A23CC
:10B1800009A8FCF77FFF24B209A975E7C49B05084D
:10B1900000000101A49B0508898888880378202B7A
:10B1A000024600F10100F9D0092BF7D02D2B00F059
:10B1B000A4802B2B03BF5378B7EE000A0246B7EEEC
:10B1C000000AA3F13001C8B209289FED577A10D8C0
:10B1D000F2EE046A07EE901AF8EEE77A12F8013FF1
:10B1E000E7EE267AA3F13001C8B20928B0EE677AFB
:10B1F000F0D92E2B63D003F0DF03452B02D020EED5
:10B20000070A704710B451782D294FD02B2979D0D7
:10B21000A1F13003092B02F101027AD800240023A6
:10B2200003EB830301EB430312F8011FA1F130008C
:10B230000928A3F13003F3D9B3F59A7F1A4628BF42
:10B240004FF49A72072B6CD9DFED386A1346F7EE8C
:10B25000007A083B072B67EEA67AFAD802F00702BD
:10B26000DAB1F2EE046A012A67EEA67A15D0022A54
:10B2700067EEA67A11D0032A67EEA67A0DD0042ACB
:10B2800067EEA67A09D0052A67EEA67A05D067EEA2
:10B29000A67A062A18BF67EEA67A002C3BD087EE66
:10B2A000277A5DF8044B20EE070A70479178A1F1E8
:10B2B0003003092B02F1020230D80124AFE75378A2
:10B2C000A3F13001C8B2092802F1010293D8F2EECD
:10B2D000046AF0EE665A07EE901AF8EEE77A12F872
:10B2E000013F87EEA66AA3F13001C8B2092866EED5
:10B2F000A56A37EE067AEED97DE75378BFEE000AED
:10B3000002465EE79178A1F13003092B02F10202B7
:10B3100084D9F7EE007A27EE277AC2E7F7EE007AB3
:10B32000BDE7F7EE007A9BE70000000020BCBE4CB2
:10B33000B5EEC00ADFED317AF1EE10FACCBF30EE97
:10B34000270A30EE670ADFED2E7A20EE270A30B5A5
:10B35000FDEEC07A87B017EE904A054684EAE470A5
:10B36000002303A9A0EBE470CDE9003302933FF082
:10B37000BBF8002CACBF20232D2303A88DF8003090
:10B3800044F056FE012803A924D002282DD003281A
:10B3900005BF3023684668468DF8013047F008F94C
:10B3A000684644F045FE0338C4B222466946284642
:10B3B00047F034F900232B55284644F039FE2E225D
:10B3C000431C2A540DEB0401E81847F00DF92846F8
:10B3D00007B030BD302368468DF801308DF802305B
:10B3E0008DF8033047F0E4F8DAE7302368468DF84B
:10B3F00001308DF8023047F0DBF8D1E76F12033AE5
:10B4000000007A44F8B5064615460846B6FBF2F445
:10B4100034B905FB14640C4B1B5D00F8013BF8BD0F
:10B42000B4FBF2F75FB905FB1747074B05FB146444
:10B43000DA5D00F8012B1B5D00F8013BF8BD3846D2
:10B44000FFF7E0FFEFE700BFF49B050802B370B41D
:10B450008E1803E0121B14D1B14215D010F8012B45
:10B46000A2F14103192B11F8013BA3F1410598BF4B
:10B470002032192D03F12004ECD9D21A01D1002B6E
:10B48000EAD1104670BC70470022104670BC70476D
:10B490001046704770B5044608460D4644F0C8FD96
:10B4A000064602E014F8013F43B1324629462046E1
:10B4B000FFF7CCFF0028F5D1204670BD1C46204682
:10B4C00070BD00BF4FF0FF32FFF7C0BFA0F16103B6
:10B4D000192B98BF20387047A0F14103192B98BF52
:10B4E00020307047202805D0093804288CBF002060
:10B4F00001207047012070472DE9F0411F460646A4
:10B5000003461C782046FFF7EDFF1D460133002857
:10B51000F7D12B2C51D02D2C24D0102A804628D0A6
:10B520004FF0FF33B3FBF2F302FB03FC6FEA0C0CAA
:10B530005FFA8CFC013500200BE0303CE4B2944211
:10B5400025DA98422E461DD81AD002FB004015F885
:10B55000014B392CF1D944F02004602C17D9573C09
:10B56000E4B2ECE74FF00108102A6C7805F1010510
:10B57000D6D1302C23D06FF070434FF00F0CD9E7A9
:10B580006445E2D907EA08084FF0FF30DFE701B170
:10B590000E60B8F1000F08D027B1B0F1004F28BFFE
:10B5A0004FF000404042BDE8F081002FFBD06FF02B
:10B5B0000043984228BF1846F5E78046D4E76C78E8
:10B5C0002046FFF789FF782805F1010605D03546AA
:10B5D0006FF070434FF00F0CACE7AC786FF0704336
:10B5E00002354FF00F0CA5E701230A22002183E763
:10B5F000613819288CBF0020012070474138192874
:10B600008CBF002001207047303809288CBF0020F3
:10B6100001207047A0F13003092B07D920F020004A
:10B62000413819288CBF0020012070470120704745
:10B6300007EE901AF8EE677A9FED807A27EE800A7F
:10B6400020EE070AFDEEC07A17EE903A2033402B29
:10B650007BD8DFED7B7AB4EEE70AF1EE10FA40F327
:10B66000E180B0EE407A9FED776ADFED776A01E026
:10B67000B0EE677AB4EEE67AF1EE10FA77EE467A3B
:10B68000F6DC9FED727AF4EEC77AF1EE10FA40F133
:10B69000CC809FED6C6ADFED6E6A01E0F0EE477AD8
:10B6A000F4EEE67AF1EE10FA37EE867AF6D4DFEDB4
:10B6B000697AB4EEE77AF1EE10FA40F3A280DFED9A
:10B6C000607A37EEC77A27EE076ADFED635ADFED5F
:10B6D000637ADFED636A9FED635AE6EE257A67EEE3
:10B6E000065AE6EE276AF7EE007AA5EEA67AF0EEA5
:10B6F000675AE7EE055AE7EE457A87EEA55ADFED81
:10B70000557A30EE277AFDEEC76A16EE903A20336E
:10B71000402B1FD99FED547AF6EE006AB7EE006A0F
:10B72000F7EE004AC4EEA57A80ED045A67EEA66AE9
:10B7300027EE866A27EE877AC0ED006AC0ED026ABE
:10B7400080ED016A80ED037A7047B7EE005AF0EEA3
:10B75000455AD4E7B4EEE70AF1EE10FA6BDD9FED3F
:10B76000396ADFED396A01E0B0EE677AB4EEE67A65
:10B77000F1EE10FA77EE467AF6DC9FED347AF4EECD
:10B78000C77AF1EE10FA53D59FED2E6ADFED306ADD
:10B7900001E0F0EE477AF4EEE67AF1EE10FA37EED9
:10B7A000867AF6D4DFED2B7AB4EEE77AF1EE10FA72
:10B7B00033DCDFED2E7AB4EEE77AF1EE10FA44BF17
:10B7C000DFED227A37EEC77A27EE076ADFED224AED
:10B7D000DFED226ADFED227AE6EE246A67EE064AA2
:10B7E000E6EE267AB7EE006AA4EEA77AF6EE006AD5
:10B7F00036EE476AF8EE007A27EE277A66EE266A7A
:10B800008EE7DFED1A7AB4EEE77AF1EE10FA44BF74
:10B81000DFED0E7A37EEC77A55E7DFED097A37EEBE
:10B82000C77AD1E7F0EE407A2BE7B0EE677A3EE7D1
:10B83000B0EE677AB6E7F0EE477A9EE727D4D236C5
:10B84000DB0F4940DB0FC940E4CB1641DB0F49C099
:10B85000E4CB16C1DB0FC93F92E741B99730083CF2
:10B8600015A82ABEF304353F00000000DB0FC9BF56
:10B8700007EE901AF8EE677A9FED837A27EE800A3A
:10B8800020EE070AFDEEC07A17EE903A2033402BE7
:10B8900000F28180DFED7D7AB4EEE70AF1EE10FA76
:10B8A00040F3E680B0EE407A9FED796ADFED796A89
:10B8B00001E0B0EE677AB4EEE67AF1EE10FA77EED8
:10B8C000467AF6DC9FED747AF4EEC77AF1EE10FA60
:10B8D00040F1D1809FED6E6ADFED706A01E0F0EE1D
:10B8E000477AF4EEE67AF1EE10FA37EE867AF6D47D
:10B8F000DFED6B7AB4EEE77AF1EE10FA40F3A78051
:10B90000DFED627A37EEC77A27EE076ADFED655A18
:10B91000DFED657ADFED656A9FED655AE6EE257A23
:10B9200067EE065AE6EE276AF7EE007AA5EEA67AEB
:10B93000F0EE675AE7EE055AE7EE457A87EEA55A2C
:10B94000DFED577A30EE277AFDEEC76A16EE903AB1
:10B950002033402B24D99FED577AF6EE006AB7EEDC
:10B96000006AF7EE004AC4EEA57A002383614361C2
:10B970000362C36180ED045A67EEA66A27EE866A09
:10B9800027EE877AC0ED006AC0ED026A80ED016A99
:10B9900080ED037A7047B7EE005AF0EE455ACFE7D4
:10B9A000B4EEE70AF1EE10FA6BDD9FED396ADFEDD8
:10B9B000396A01E0B0EE677AB4EEE67AF1EE10FA99
:10B9C00077EE467AF6DC9FED347AF4EEC77AF1EE44
:10B9D00010FA53D59FED2E6ADFED306A01E0F0EEEC
:10B9E000477AF4EEE67AF1EE10FA37EE867AF6D47C
:10B9F000DFED2B7AB4EEE77AF1EE10FA33DCDFED0F
:10BA00002E7AB4EEE77AF1EE10FA44BFDFED227A37
:10BA100037EEC77A27EE076ADFED224ADFED226AAA
:10BA2000DFED227AE6EE246A67EE064AE6EE267A33
:10BA3000B7EE006AA4EEA77AF6EE006A36EE476A21
:10BA4000F8EE007A27EE277A66EE266A89E7DFEDC0
:10BA50001A7AB4EEE77AF1EE10FA44BFDFED0E7A0F
:10BA600037EEC77A50E7DFED097A37EEC77AD1E7CC
:10BA7000F0EE407A26E7B0EE677A39E7B0EE677A03
:10BA8000B6E7F0EE477A9EE727D4D236DB0F49407F
:10BA9000DB0FC940E4CB1641DB0F49C0E4CB16C134
:10BAA000DB0FC93F92E741B99730083C15A82ABE81
:10BAB000F304353F00000000DB0FC9BF30B402685B
:10BAC0001146531C036011F8024B0160D31C5178DE
:10BAD00003609378151D05601B0443EA0123D078A9
:10BAE000234343EA006030BC704700BF0368591C21
:10BAF0001A46016012F8021B0260587841EA0020E1
:10BB0000704700BF03685A1C02601878704700BF76
:10BB100070B5044608460E4644F08AFA314605469A
:10BB20000246206845F018FA20682844206070BD5D
:10BB300038B504460068154645F00EFA22682A44D6
:10BB4000226038BD036810B40A0E5C1C04601A70D1
:10BB500003680A0C5C1C04601A7003680A0A5C1C07
:10BB600004601A7003685A1C026019705DF8044B77
:10BB7000704700BF036810B40A0A5C1C04601A70A6
:10BB800003685A1C026019705DF8044B704700BFCF
:10BB900003685A1C026010B4197003680A0A5C1C1E
:10BBA00004601A7003680A0C5C1C04601A70036855
:10BBB000090E5A1C026019705DF8044B704700BFF3
:10BBC00003685A1C026019700368090A5A1C026053
:10BBD0001970704770B544880546C4F30B042246BB
:10BBE0000846002146F0DCFC2969094A91420346D7
:10BBF00002D3084A914204D341B11846BDE87040CF
:10BC000008472246BDE8704045F0A6B970BD00BFA8
:10BC1000080700085008000838B5064C064DAC422D
:10BC200006D2616820461434FFF7D4FFAC42F8D343
:10BC300038BD00BF9001000808070008084B0949FB
:10BC40008B4203D309E014338B4206D21A88C2F325
:10BC50000B029042F7D118467047002318467047F0
:10BC6000900100080807000808B5064B186838B1AD
:10BC700015F00AFC044B9B7813B180F00100C0B2B0
:10BC800008BD00BFF8930020EC5D002008B53CF033
:10BC9000C9F918F0CFFC1B2014F092FA18B1232236
:10BCA00000238271C3713AF06DFD18B12322002385
:10BCB0008271C371094B9B78012B01D0012008BD13
:10BCC000074B084A03F1200103F14C0013603BF0DD
:10BCD000A9FF054B002083F8230008BDC09D00206C
:10BCE000BC0100202C6A002000ED00E008B5002116
:10BCF000032019F0F1FF72B645F0B4F808B5FFF76C
:10BD0000B3FF0028FBD1142010F080FF00BFFFF725
:10BD1000ABFF0028FAD0FFF7E9FF00BF03212DE9B0
:10BD200000480446084619F0D7FF72B6114BD3E914
:10BD300000BC5BEA0C030AD100242146042019F060
:10BD4000CBFF2146052019F0C7FF45F08BF80A49C3
:10BD5000086824B24EF6602101FB04F41BEB0002DC
:10BD60004CF1000312EB040B43EBE47C61465C46B0
:10BD7000E4E700BF20690020C0AF0020074A084B5D
:10BD800010781B78074A834296BFC31AC3F1800319
:10BD90000020126818441044704700BF1449002066
:10BDA000904800208C480020064A074B10781B78EA
:10BDB00083428ABFC3F18003C01AC018C0F17F005C
:10BDC000704700BF1449002090480020064808B57D
:10BDD0004368DB68984705480549064A0023037015
:10BDE0000B70136008BD00BF4CB000201449002048
:10BDF000904800208C4800200348436813B19B6A98
