:020000040800F2
:10000000F0FF00105D42050899800208192A0108D6
:10001000FD420508FD420508FD42050800000000FC
:10002000000000000000000000000000A5800208A1
:10003000A1800208000000009D8002087D2A0108BE
:10004000FD420508FD420508FD420508FD42050880
:10005000FD420508FD420508E14904080D4B04086E
:10006000D14A0408954A0408594A040875EC000866
:1000700065EC000855EC000845EC000831EC000880
:100080001DEC000809EC0008FD420508FD420508CA
:10009000FD420508FD420508FD4205081D4A040809
:1000A000B511010851170108E510010821180108D0
:1000B00091160108D115010805150108FD42050832
:1000C000FD420508FD420508FD420508FD42050800
:1000D000FD420508E9370108FD4205084D370108D2
:1000E000A5490408FD42050815CA020815100108B3
:1000F00085120108450F010865130108F5EB00089A
:10010000FD420508FD42050835140108FD420508B9
:10011000FD420508FD42050821450208A9430208E1
:10012000E1EB0008CDEB0008B9EB0008A5EB0008F7
:1001300091EB0008FD420508FD420508FD42050857
:10014000FD420508FD420508FD42050881B9020887
:100150007DEB000869EB000855EB0008B13601089B
:10016000FD420508FD420508FD420508FD4205085F
:10017000FD420508FD420508FD420508FD4205084F
:08018000FD420508FD420508DF
:08018800043E05000100000027
:1001900010020100501C00204C1C00200000000038
:1001A000440700081F021000641C0020541C00209B
:1001B000000000008D8500081A023C00281D002068
:1001C000AC21002000000000118B00082700040073
:1001D000241D0020E8210020000000004607000840
:1001E00038100100801C0020EC21002000000000DD
:1001F0004A07000802000C006C2200206C2300203B
:100200000000000000000000F70106001C23002091
:1002100078230020000000004C0700081D020200A7
:10022000182300208023002000000000520700084F
:100230000A020A00F02B0020442E002000000000DB
:10024000BDD70108F6210C0054260020502E0020B6
:10025000000000005407000803000100C42600202D
:100260005C2E0020000000000000000003123D0092
:10027000042E0020602E002000000000600700080F
:1002800025102C01242C0020A02E002000000000AE
:100290000000000003010A0044420020D842002070
:1002A000000000009E07000813020400FC37002035
:1002B000E442002000000000A80700082C00100005
:1002C000785B0020685B002000000000B9E60208AF
:1002D0002B002400AC5B0020885B002000000000A5
:1002E00089E60208292078006C5A0020D05B0020A3
:1002F000000000000000000028101000585C0020E2
:10030000485C002000000000E5CB02081C02100041
:100310001C570020685C002000000000B18300082A
:1003200020320A00845C0020785C0020000000007D
:1003300069CB020814000300D0590020905C002013
:1003400000000000AC070008101002004058002018
:10035000945C002000000000B007000819000500B0
:1003600038580020985C002000000000B207000808
:10037000F821060030580020A05C0020000000009A
:10038000B807000801200C0094700020707700204E
:1003900000000000BE0700080C109C00C46F002085
:1003A0007C77002000000000197101080A70280005
:1003B000506F0020187800200000000089CB020850
:1003C0000EA06E01E06D00204078002000000000CB
:1003D000ADC50408010104003C6D0020B079002087
:1003E000000000000000000000010400346D002047
:1003F000B479002000000000CA07000802010300D1
:10040000306D0020B879002000000000457101081F
:1004100022021401C0740020BC79002000000000FA
:100420004D8C000801020500486D0020D07A0020A4
:10043000000000000967030800020500D4730020D3
:10044000D87A002000000000000000001B0210000D
:10045000B4730020E07A002000000000DD83000873
:100460001E00060038710020F07A00200000000015
:10047000CE0700081B100C002C5E0020F87A00202C
:1004800000000000B57503082102F000B05C0020F8
:10049000047B002000000000917403082312100068
:1004A000B88500204486002000000000D407000822
:1004B00037102800F485002054860020000000003A
:1004C000E40700080E020200B08500207C860020B0
:1004D000000000000C08000816100600D07D002067
:1004E00080860020000000000E0800082F10220067
:1004F00020860020888600200000000014080008E4
:1005000005100600547F0020AC860020000000008B
:100510003608000823100E00D87F0020B486002083
:1005200000000000FDCB0208F5518C00FC7C00208F
:10053000C486002000000000C57303080B301A00B9
:10054000E07C00207C870020000000003C080008C0
:100550001F302400B87C0020988700200000000095
:100560005808000805020400A47F0020BC87002072
:10057000000000007C0800080D0034003CB600209C
:10058000B4B60020000000009572010809020100C5
:1005900038B50020E8B60020000000008008000800
:1005A00004008000B8B40020ECB600200000000079
:1005B0000000000013000400A4B400206CB7002069
:1005C0000000000084080008FD01240080B4002021
:1005D00070B700200000000019F200081820300059
:1005E0004CB4002094B7002000000000AD8B000840
:1005F00006101A006C9F0020C4B700200000000005
:1006000009C60408FB010100689F0020E0B7002034
:1006100000000000218C0008FC010900349E00202D
:10062000E4B7002000000000318C000816023F00F3
:10063000F49D0020F0B70020000000002184000895
:1006400034001000249D002030B80020000000007D
:10065000DDC5040811020800FC9C002040B8002001
:10066000000000008808000812120400F49C00201A
:1006700048B8002000000000900800081220100078
:10068000E49C00204CB80020000000009408000802
:10069000FF110600789900205CB8002000000000DF
:1006A0007185000808120F008499002064B80020AA
:1006B0000000000001850008F90104007499002081
:1006C00074B8002000000000451A0408020203006C
:1006D000D488002078B8002000000000000000004E
:1006E0000C020400908800207CB80020000000006C
:1006F00059850008FE0114005C93002080B800209A
:1007000000000000F18300081A000E000CCF00204A
:100710004CD0002000000000A40800081500700064
:10072000DCCB00205CD000200000000000000000B6
:100730002A006000D4CF0020CCD0002000000000B0
:0407400085C504085F
:100744000000200300000000180001000000000069
:100754000000000001000000020200000000000090
:100764000000000000000000000000000000000085
:100774000000000000000000000000000000000075
:100784000000000000000000000000000000000065
:1007940000000000000000000100040101006C16CC
:1007A4000000000000000135030000000005000007
:1007B400280100000401F4011400E8036400040AA1
:1007C400000114001E00BC01000000000100000034
:1007D4000000000000000000000000000000000015
:1007E40020003200C800D007960014003200280010
:1007F400B00440060005500014000F000800640017
:100804000100000005000A000000C40900001900EE
:1008140000000000000000000000000000000000D4
:1008240000000000000000000000000000000000C4
:100834000000200003010000AE014A015E012C010A
:1008440064010200000001000A019A01001E0A006E
:10085400000000000000000000010000000500008E
:10086400010203000000000000000000000000007E
:1008740000000000008007000000000013000000DA
:10088400080044300000000001010101FFFFFFFFE8
:10089400000000010000054B495732000008000029
:0E08A4007E05EA05B4053200E803D007000027
:1008B2001A03000000000000000000000000000019
:1008C2000000000000000000000000000403090412
:1008D20012010002000000408304205700020102BE
:1008E20003010000698D0008518D0008418D000848
:1008F200B1850008ED8C0008958C0008AD850008D4
:100902004C020020BD9E0208AD760208FDA9020835
:10091200000000000000000001A702081DA6020856
:10092200000000000000000000000000E571020865
:10093200398600082D860008C58D0008E18D000863
:10094200E5850008A98D00088D8D0008FF01FF00D4
:10095200000004010000000000000002100000007E
:100962000700000000000000000000000102030474
:1009720006070809008002021F00000053544D20A0
:100982002020202050726F647574202020202020A7
:1009920020202020302E303101000000A00F000066
:1009A200B80B00000102FFFF010000000000000080
:1009B2005C23002008000000000000004C230020FF
:1009C2000800000005780208F176020899AC0208D6
:1009D200000000006D72020851A802084176020868
:1009E200C9A70208000000000000000029720208E6
:1009F200B9700208AD700208CD9D0208E99D020897
:100A0200B19D0208959D0208799D0208BD770208F2
:100A1200CD760208D9AB020800000000417202083C
:100A2200CDA702081576020829A7020800000000D7
:100A32000000000035720208A0D20508ACD20508F9
:100A4200B8D20508C4D20508D0D20508DCD2050800
:100A52002CED0508980B0608C80A06082CD20508D2
:100A62003434060890D2050894D2050898D20508B5
:100A72009CD20508E8D20508ECD20508F0D2050898
:100A820030090608F4D205081900C800F401200351
:100A92000000803FFFFFFFFF0000803F00000000DA
:100AA2000000000000000000FFFFFFFFFF00000049
:100AB2000403090412010002EF02014083045632CA
:100AC20000020102030100001201000202020040C2
:100AD20083044057000201020301000009022000C2
:100AE200010104C03209040000020806500507058E
:100AF2008102400000070501024000000902640073
:100B0200030100C0320904000001030000000921B2
:100B1200110100012226000705830308000A080BC1
:100B220001020202010009040100010202010005A2
:100B320024001001052401000204240202052406F7
:100B42000102070582030800FF09040200020A00ED
:100B52000000070501024000000705810240000075
:100B620009024300020100C032090400000102022E
:100B720001000524001001052401000104240202E1
:100B82000524060001070582030800FF090401008D
:100B9200020A000000070501024000000705810269
:100BA20040000000FF000000346A05080000000059
:100BB2000000000000000000000000000000000033
:100BC2000000000000000000000000000000000023
:100BD20000FFFF0000000000086A05080000000096
:100BE2000000000000000000000000000000000003
:100BF20000000000000000000000000000000000F3
:100C0200AA5505010000000005010905A101A10086
:100C1200050109300931093209330935093409401E
:100C220009381581257F750895088102C0C000002A
:100C320009022200010100E032090400000103015F
:100C42000200092111010001222600070583030881
:100C5200000A000000000000010203040102030474
:100C62000607080961A9020865A80208BDAC0208C6
:100C7200A972020821780208B9720208D572020824
:100C82008172020871720208000000000000000078
:100C92002D202D2D202D2D2D2D202D2D2D2D000003
:100CA200000000000000000000000000000000AA98
:100CB200550B010000AA5507010000AA55090200C0
:100CC2000000AA5503009F0001000000C0120000AE
:100CD200D6010000B80B0000010000000001010174
:100CE2000001010000000100E001FF01FD690308AD
:100CF20000000000346D050820700020702D720085
:100D0200FFFFFFFF080101FFFF2D202D2D202D2DBC
:100D12002D2D202D2D2D00000000000000000000D0
:100D220000000000000000000000000000000000C1
:100D32003C8105080000000000000000C881050891
:100D420001000000FA0000000100000001000000A4
:100D5200907000200000F401010000008E7000205D
:100D62000000F401010000008C7000200000F4017A
:100D7200010000008A7000200000F4010100000060
:100D8200887000200000F40101000000867000203D
:100D92000000F40101000000847000200000F40152
:100DA2000100000035720308F9710308486F050855
:100DB2007E700020053201007C700020E803D0071D
:100DC200010000007A700020E803D0070100000053
:100DD20078700020E803D007010000007670002040
:100DE2001E00B80B01000000747000201E00F40108
:100DF2000100000072700020140064000100000075
:100E0200807000203200E8030100000070700020B2
:100E12000000C80001000000A66F002000C8010009
:100E2200A56F002000500100A46F0020005A0100AD
:100E3200A26F002002000000D46F0508E4DD05085F
:100E4200ECDD05083E7F00200100C409000000001F
:100E52003C7F00200100C409000000003A7F00200E
:100E62000100C40900000000387F00200100C4090D
:100E720000000000347F00200100C40900000000CF
:100E8200367F00200100C40900000000327F0020EC
:100E92000100C40900000000307F00200100C409E5
:100EA200000000005B6D002000C801005A6D0020A8
:100EB20000C80100586D00200100C80001000000B8
:100EC200566D00203200307532000000556D002052
:100ED200055A0500526D002000FF0100546D0020EC
:100EE2000100000014070020506D002003000000E4
:100EF2002C860508516D002000FF0100536D002073
:100F020001000000140700204F6D002003000000C4
:100F12002C860508A971030859710308E06F0508BA
:100F2200A4700020EE02CA0801000000A270002096
:100F320000C8010064000000A170002000C8010088
:100F420064000000A070002002000000A4700508E8
:100F5200426D002080C1803E05000000406D0020EF
:100F620080C1803E050000003A6D002080C1803EB5
:100F720005000000386D002080C1803E05000000A1
:100F8200336D002000FF01002C6D00206400F4018D
:100F9200010000002B6D002004000000B070050865
:100FA2002A6D002002000000C4700508D16D0020E7
:100FB2000D000000D0700508CE6D00200064010015
:100FC200CC6D0020320010270A000000CB6D0020FB
:100FD2000D000000D0700508CA6D00200D00000051
:100FE200D0700508C96D00200200000008710508D4
:100FF2000000000000000000147105088842002073
:101002009CFF2C0100000000E4760020E0150C1784
:1010120000000000E0730020020000004C7105088F
:10102200B07000200100FF7F01000000AF700020BF
:101032000200000058710508D36D00200300000073
:1010420068710508D26D0020030000006871050870
:10105200846F00200000E80301000000826F00207E
:101062000000E80301000000806F00200000E80398
:10107200010000007E6F00200000E8030100000074
:101082007C6F00200000E803010000007A6F00205E
:101092000000E80301000000796F00200014010045
:1010A200786F00200300000078710508906F00201F
:1010B2000000F401010000008E6F00200000F40126
:1010C200010000008C6F00200000F401010000000C
:1010D2008A6F00200000F40101000000886F0020E8
:1010E2000000803E01000000866F00200000803E6C
:1010F20001000000B96F002019640100B86F0020E0
:101102000200000088710508B66F0020E803D007CE
:101112000A000000B46F0020006401000A00000011
:10112200A96F002000640100A86F00200064010084
:10113200B06F0020006401000A000000AF6F0020C1
:10114200006401000A000000AE6F0020006401008C
:101152000A000000B36F0020006401000A000000D2
:10116200B26F0020006401000A000000B16F00208D
:10117200006401000A000000AD6F002001FF0100C1
:101182000A000000AC6F002001FF01000A0000000D
:10119200AB6F002001FF01000A000000DC6D00209F
:1011A2000000F40101000000DA6D00200000F401EB
:1011B20001000000D86D00200000F40101000000D1
:1011C200D66D00200000F40101000000D46D002063
:1011D2000000F40101000000A16F00200064010082
:1011E200A06F0020006401009F6F002000640100D6
:1011F2009E6F0020FF0801009D6F00200164010026
:1012020029700308ED6F0308947105089C6F002094
:10121200006401009A6F00201400E803010000003E
:10122200986F0020E80330750A000000966F0020D6
:1012320000C80100956F002000C80100946F0020D3
:1012420000C80100936F0020006401000A00000042
:101252006E7000200000D0070100000069700020BD
:1012620000C801006870002000C8010067700020FB
:1012720000C801006C7000200000D00701000000CF
:101282006670002000C801006570002000C80100DF
:101292006470002000C801006A7000200000D007BE
:1012A200010000006370002000C80100627000208D
:1012B20000C801006170002000C8010000000000A9
:1012C200656D030804720508C76D00203600000032
:1012D200A0720508C66D002000C80100C46D002080
:1012E200E803D007010000004B4957494634563203
:1012F200000000004E6D0020000301004D6D002033
:1013020000030100B96C03087D6C03087C730508B7
:10131200396C0308ED6B0308EC730508F56C0308E0
:10132200019403086C740508446D00200103010058
:101332009D7203087172030860770508716B0308D8
:10134200256B0308D07705087B6D030891B6030867
:101352006C780508B9A70308000000001479050895
:1013620081950308FD720308B0790508D96D030859
:1013720000000000207A05089D6E0308496E0308EC
:10138200847A05082D6F0308F16E0308207B050897
:1013920065700308AD700308A07B0508A76F0020E5
:1013A20001060100156E0308ED6D03089C7C05081B
:1013B200696F0308659403080C7D0508DD70030856
:1013C200ED940308EC7D0508926F002001030100F3
:1013D200396D03080D6D0308C07E0508C972030844
:1013E20000000000247F0508BD6B0308D1930308A9
:1013F200887F050800000000000000001480050836
:10140200317103086595030894800508266D002054
:1014120088136F1701000000286D002088136F17D2
:1014220000000000D2400020000000000000000088
:10143200D04000200000000000000000CE4000204C
:101442000000000000000000CC400020000000006E
:1014520000000000CA400020000000000000000060
:10146200C84000200000000000000000A405002089
:101472000000000000000000FD6C002002000000DF
:101482001C820508246D002088136F1701000000DC
:10149200C842002088136F1700000000B56A0308D5
:1014A2000000000028820508E1730020010000000E
:1014B2007C820508CA4200200100000088820508DB
:1014C200C0420020020000009082050800000000D7
:1014D200000000009C8205089D6A030800000000CD
:1014E2003883050800000000000000008C83050816
:1014F2000000000000000000FC830508C442002038
:10150200E0150C170000000001010000FF1FFF1F83
:10151200FFFFFFFF508700200000000074870020BB
:101522000000000001000000FFFF0000FFFFFFFFBE
:101532003430060800000802050303003C300608A8
:1015420001000802050403009CD505080200FE0103
:1015520001100300FCE1050803001402000300006F
:101562004430060804001F02010008004C3006083F
:1015720005001F020101080008000000A97002080E
:10158200A5700208A1700208957002089170020805
:101592009D70020899700208257E0208A97C020843
:1015A200557E02084D97020855B30208C9970208F2
:1015B200D1710208BD710208B57102080100000074
:1015C20000600240106002400000000000000000C5
:1015D200000B0000000000000000000000000000FE
:1015E200006002402860024001000000000000008C
:1015F200060C0000000000000000000000000000D7
:101602000060024040600240020000000000000052
:10161200100D0000000000000000000000000000AB
:101622000060024058600240030000000000000019
:10163200160E000000000000000000000000000084
:1016420000600240706002400400000000000000E0
:10165200200F000000000000000000000000000059
:1016620000600240886002400500000000000000A7
:101672002610000000000000000000000000000032
:1016820000600240A060024006000000000000006E
:101692003011000000000000000000000000000007
:1016A20000600240B8600240070000000000000035
:1016B200362F0000000000000000000000000000C3
:1016C20000640240106402400000000000000000BC
:1016D20000380000000000000000000000000000D0
:1016E2000064024028640240010000000000000083
:1016F20006390000000000000000000000000000A9
:101702000064024040640240020000000000000049
:10171200103A00000000000000000000000000007D
:101722000064024058640240030000000000000010
:10173200163B000000000000000000000000000056
:1017420000640240706402400400000000000000D7
:10175200203C00000000000000000000000000002B
:10176200006402408864024005000000000000009E
:1017720026440000000000000000000000000000FD
:1017820000640240A0640240060000000000000065
:1017920030450000000000000000000000000000D2
:1017A20000640240B864024007000000000000002C
:1017B20036460000000000000000000000000000AB
:1017C200D03006084CF305080000000059710108EA
:1017D200A0860100040000000000000000000000DC
:1017E20000000000000000000000000000000000F7
:1017F20000000000000000000000000000000000E7
:10180200D0300608483406080000000091F20008B3
:10181200E8030000040000000000000000000000D7
:1018220000000000000000000000000000000000B6
:1018320000000000000000000000000000000000A6
:1018420024E50508AC090608000000001DE00108B7
:101852007D00000006000000000000000000000003
:101862000000000000000000000000000000000076
:101872000000000000000000000000000000000066
:101882002030060800000000000000008D2E010834
:10189200E803000003000000000000000000000058
:1018A2000000000000000000000000000000000036
:1018B2000000000000000000000000000000000026
:1018C2005034060800000000000000000D1005085A
:1018D20010270000030000000000000000000000CC
:1018E20000000000000000000000000000000000F6
:1018F20000000000000000000000000000000000E6
:10190200403006080000000035E3020805F900082F
:101912005F760000050000000000000000000000EB
:1019220000000000000000000000000000000000B5
:1019320000000000000000000000000000000000A5
:10194200D43206080000000000000000716901089E
:10195200102700000100000000000000000000004D
:101962000000000000000000000000000000000075
:101972000000000000000000000000000000000065
:101982005C3406080000000000000000B9F0000806
:10199200E803000005000000000000000000000055
:1019A2000000000000000000000000000000000035
:1019B2000000000000000000000000000000000025
:1019C200683406080000000000000000157A0108D3
:1019D200204E000003000000000000000000000094
:1019E20000000000000000000000000000000000F5
:1019F20000000000000000000000000000000000E5
:101A02007834060800000000000000001978010880
:101A1200204E000003000000000000000000000053
:101A220000000000000000000000000000000000B4
:101A320000000000000000000000000000000000A4
:101A4200883406080000000000000000213301086D
:101A5200400D030003000000000000000000000031
:101A62000000000000000000000000000000000074
:101A72000000000000000000000000000000000064
:101A8200E4D005080000000000000000CD2B010892
:101A9200102700000100000000000000000000000C
:101AA2000000000000000000000000000000000034
:101AB2000000000000000000000000000000000024
:101AC20060F3050800000000000000002581030803
:101AD20010270000030000000000000000000000CA
:101AE20000000000000000000000000000000000F4
:101AF20000000000000000000000000000000000E4
:101B0200E8E00508000000000000000089EF00087E
:101B1200A8610000010000000000000000000000B9
:101B220000000000000000000000000000000000B3
:101B320000000000000000000000000000000000A3
:101B42000CD105080000000000000000393901082E
:101B5200A00F0000010000000000000000000000D3
:101B62000000000000000000000000000000000073
:101B72000000000000000000000000000000000063
:101B8200983406080000000000000000D9B10308E4
:101B9200102700000100000000000000000000000B
:101BA2000000000000000000000000000000000033
:101BB2000000000000000000000000000000000023
:101BC2002CEC05080000000000000000A51304082A
:101BD2001A410000010000000000000000000000A7
:101BE20000000000000000000000000000000000F3
:101BF20000000000000000000000000000000000E3
:101C0200A8E005080000000000000000A9C90308C0
:101C1200102700000100000000000000000000008A
:101C220000000000000000000000000000000000B2
:101C320000000000000000000000000000000000A2
:101C420058F30508000000000000000021BD030851
:101C52001A41000001000000000000000000000026
:101C62000000000000000000000000000000000072
:101C72000000000000000000000000000000000062
:101C8200A4340608000000000000000051CF030841
:101C9200400D0300000000000000000000000000F2
:101CA2000000000000000000000000000000000032
:101CB2000000000000000000000000000000000022
:101CC200AC340608000000000000000045EF0008E8
:101CD200400D0300000000000000000000000000B2
:101CE20000000000000000000000000000000000F2
:101CF20000000000000000000000000000000000E2
:101D0200B43406080000000000000000499E0308E9
:101D120050C30000030000000000000000000000AB
:101D220000000000000000000000000000000000B1
:101D320000000000000000000000000000000000A1
:101D4200C03406080000000000000000917701087E
:101D520040420F00000000000000000000000000F0
:101D62000000000000000000000000000000000071
:101D72000000000000000000000000000000000061
:101D8200CC34060800000000000000009575010830
:101D920050C300000000000000000000000000002E
:101DA2000000000000000000000000000000000031
:101DB2000000000000000000000000000000000021
:101DC2000000803F7D0000000000803F0000000016
:101DD20000000000000000000000803F0000000042
:101DE20000000000000000000000000000000000F1
:101DF20000000000000000000000000000000000E1
:101E02000000803F00000000000000000000000011
:041E120001000000CB
:1080000003685A1C02601970704700BF2DE9F047E1
:10801000089C2578002B804689460CBF4FF0200A2B
:108020004FF0300A661C25B3002A26DD334601E0F6
:10803000024698B113F8011B501E0029F8D1971E73
:1080400060B13D46013D51464046C8476B1C002B80
:10805000F8DC257827EAE770013045B1041B294692
:108060004046C847301916F8015B002DF7D1BDE82E
:10807000F087002A03DC2846F9E70020EEE7571EC8
:10808000DFE700BF2DE9F04714461D4606464FF4D2
:108090007A720023204629464BF014FF4D4BDFF83F
:1080A00048814D4A4D4F034488FB03101844D917AB
:1080B00082FB032CC1EB601088FB002887FB0327A1
:1080C0009C44474AC1EBEC2CC0EB001E82FB0C2900
:1080D000A3EB8E0E1F44434A86F806E0C1EB274708
:1080E0004FEAEC7E08EB000ACEEBA90E82FB07827A
:1080F0004FEAE0780EEB4E0EC8EB6A18ACEBCE0CF4
:10810000C8EB0818DFF8E4E086F804C0A0EB8800AC
:1081100070718EFB0303F817C0EBE21240F2B5500A
:1081200000FB1272C1EBE353B2F5896F4FEA83078C
:108130003CDA40F2DA239A4242DCB2F5B77FB4BFB0
:108140004FF0000E4FF0010E4FEA4E09DFF8A0800D
:1081500009EB0E0308EBC3031FFA8EFCD88A09EB68
:108160000E0108EBC10116310B2301E031F8020DBD
:10817000904218DD013BF9D1CE44012338F83E008E
:10818000B37007F5FA670132121ABC44F270A6F810
:1081900000C0204629464FF47A7200234BF092FE2D
:1081A0003281BDE8F0870133DBB2E9E74FF0030C21
:1081B000E64640F29650DFF838804FF00609CEE7E9
:1081C0004FF0020CDFF82880E64640F229404FF0DD
:1081D0000409C4E780BC92C7C5B3A29107452EC26B
:1081E000ABAAAA2A73B06D1689888888792D0311E5
:1081F000E85A05080028F0B403DA2D230B7040423A
:108200000131092804464FF0010307DD03EB830326
:108210005B00B0FBF3F2092AF8D883B10F48A0FB4A
:108220000326B4FBF3F2092A02F1570C02F13007DE
:1082300009DD03FB1244F30801F801CBEFD1002361
:108240000B70F0BC704703FB1244F30801F8017B8C
:10825000E5D100230B70F0BC704700BFCDCCCCCC77
:10826000884270B44FF0010442D301FB04F4B0FB28
:10827000F4F58D42F9D2ECB142BB092D04FB150097
:1082800005F1570605F130020EDDB4FBF1F403F8F9
:10829000016B7CB1B0FBF4F5092D04FB150005F171
:1082A000570605F13002F0DCB4FBF1F403F8012BC2
:1082B000002CEFD100221A7070BC704703F8016BDC
:1082C000B4FBF1F4002CF5D0B0FBF4F5092D04FB60
:1082D000150005F1370605F13002EFDCB4FBF1F4CF
:1082E00003F8012B002CEFD100221A7070BC7047EC
:1082F0000546002AEAD1C0E790ED057A90ED004AE4
:10830000D0ED066AD0ED014AD0ED047A90ED035A23
:10831000D0ED025AA4EE007AB0EE406AB0EE470A01
:10832000B0EE667AA4EE867A67EEC07AA5EE407A61
:10833000E5EE867A80ED057AC0ED067A704700BFDB
:10834000D0ED057A90ED013AD0ED003AD0ED064A35
:1083500090ED024A90ED077A90ED035A90ED086A8D
:10836000D0ED045AC0ED067AF0EE406A27EE830A9B
:10837000C0ED056AA3EEA60A80ED087AA4EE240AF1
:10838000A5EE470AA5EEC60A80ED070A704700BFB2
:10839000D0ED007A90ED017A30EE670AE7EE007AD0
:1083A000B0EE670AC0ED007A704700BF704700BFAB
:1083B00030B414220023342503240221C270012288
:1083C0008571C4710370C3728373C373417041724A
:1083D00082700272827230BC704700BF0023062197
:1083E0004FF47A720170C0E901230373704700BF34
:1083F00030B43123332232254FF60174FF2143700C
:10840000427101230022C5700482817403720370DB
:108410000371837042818281C28130BC704700BF8A
:108420002DE9F04F3149324B83B001F1A00B01909F
:1084300013274FF000092F481022012603E02030B7
:1084400098420BD002799742F9D102680C68A24297
:1084500009D02030984206F10106F3D12031594568
:108460003AD00F79E7E744794D79A542F1D19446A6
:10847000019A214809EB490502EB050A57558AF88C
:10848000016000F572751D4E624603E0A8421AD0E5
:1084900050F82C6FB242F9D10679A642F6D1CF68D6
:1084A00006464FF0000C96468046F268BA4216D057
:1084B0000CF1010CBCF1030F06F10C06F5D140469E
:1084C000A8427246E4D14FF0FF3C203159458AF86A
:1084D00002C009F10109C4D103B0BDE8F08F0869F9
:1084E00032698242E4D14FFA8CFCEEE758C20508AB
:1084F000DCB405081CAB0508DCB40508000001402D
:10850000144BFF22F0B54FF0FF34C27002710272BB
:1085100042724273827303F10C0EA446172716268B
:108520001525002202EB820281189E4585544E706B
:108530008F7081F803C00C710AD093F90620DD79A1
:108540001E7A5F7A93F90AC093F90B400633E9E784
:10855000F0BD00BF485B050810B41F2101240322B1
:108560000023047041708270C3705DF8044B704743
:10857000002310B42C21022401224470C1704271E6
:108580008370037103705DF8044B7047034600F17C
:108590001001FF221A705A7002339942FAD1027008
:1085A0004270027142718272C2727047002070473D
:1085B00000207047013A30B4D2B28C1C04EB420464
:1085C0000025020F092AD3B203F130028ABF3733E4
:1085D0000A700B704D7002318C424FEA0010F0D1DE
:1085E00030BC70470B4A0C4B10681B681A22C0182D
:1085F0000A8001D10948704710B5094B09491C6828
:108600000822FFF7D7FF204604220749FFF7D2FFD1
:10861000024810BDE8F7FF1FECF7FF1F880100209C
:10862000EAF7FF1F8A0100209A01002004230B8033
:1086300000487047A401002012230B8000487047B7
:10864000A80100204FF4006303837047012380F8E2
:1086500050307047F0B4037C456902681F2B37D94E
:10866000203B2021546899400C4223D010249C4088
:10867000D160D4605168D940CE074ED4EFF3118356
:10868000502282F31288EA6B1168C90709D4546832
:10869000002C52D1D5E909618E4243D1012285F8DF
:1086A0006020DBB283F31188037C02681F2B19461C
:1086B00014D9203B082150689940084200D0D1606D
:1086C0000421506801FA03F3184223D1F0BC70472B
:1086D000202416689C4026420FD1194608231068B2
:1086E0008B40184200D093600423106803FA01F114
:1086F0000842EBD09160F0BC704710219940946023
:1087000091601168D940CC07B8D5012101FA03F373
:108710009360B3E7D360F0BC7047012101FA03F323
:10872000D360ABE7AF690F44D7600ED82E69711ADA
:108730005160AC62002185F86010116841F00101C0
:10874000DBB2116083F31188AEE7711A5160AE623B
:10875000F0E700BFF0B4B34BB3491A780B789A42F4
:1087600040F00781B14B1A78002A68D0B04B1978D5
:10877000B04B002965D11868B3F830514162848943
:10878000012A44EA05048481A3F8301157D0D3F8B4
:108790003401B3F8645241628489022A44EA050430
:1087A0008481A3F864124AD0D3F86802B3F89853CE
:1087B00041628489032A44EA05048481A3F898135A
:1087C0003DD0D3F89C03B3F8CC5441628489042A89
:1087D00044EA05048481A3F8CC1430D0D3F8D00443
:1087E000B3F8005641628489052A44EA050484816D
:1087F000A3F8001623D0D3F80406B3F83457416227
:108800008489062A44EA05048481A3F8341716D023
:10881000D3F83807B3F8685841628489072A44EAD4
:1088200005048481A3F8681809D0D3F86C28B3F83C
:108830009C495162908920439081A3F89C19F0BC17
:1088400070475C68198961602568186845F0010502
:1088500040F20D312560A0F848108489012A44F4C3
:1088600080748481EBD0D3F83841B3F83C51D3F80D
:1088700034016560256845F001052560A0F84810C1
:108880008489022A44F480748481D8D0D3F86C425D
:10889000B3F87052D3F868026560256845F00105A9
:1088A0002560A0F848108489032A44F480748481E8
:1088B000C5D0D3F8A043B3F8A453D3F89C036560A4
:1088C000256845F001052560A0F848108489042A30
:1088D00044F480748481B2D0D3F8D444B3F8D8542B
:1088E000D3F8D0046560256845F001052560A0F83F
:1088F00048108489052A44F4807484819FD0D3F879
:108900000846B3F80C56D3F804066560256845F0B0
:1089100001052560A0F848108489062A44F4807473
:1089200084818CD0D3F83C47B3F84057D3F838074C
:108930006560256845F001052560A0F84810848928
:10894000072A44F4807484813FF479AFD3F8702807
:10895000B3F87408D3F86C385060106840F0010028
:108960001060A3F848109A8942F480729A81F0BC92
:1089700070475C00E618304D15F83660032E3FF660
:10898000F1AEDFE806F05D261C02E01805EBC00042
:108990004468661E012C46603FF651AF013303F078
:1089A0000303D8B2824208703FF4DCAE03EB43030A
:1089B000DB00EA1802200021E85451603FE7E1188B
:1089C00005EBC1014868461E01284E603FF637AFEF
:1089D0000DE0E118C90068184668771E012E47604F
:1089E0003FF62DAF02274FF0FF366F544660E61872
:1089F000F600AF191148397B00680139C9B23973E3
:108A0000002940D04FF47A722344B2FBF0F200FB0D
:108A100002F0B0F57A7F05EBC30518BF01326A603A
:108A2000A0E600BFB8250020B92500208016001060
:108A30007C160010A8AA0020BC2500209C1600204F
:108A400070B11D49012600220F890132002F18BF85
:108A50000026904201F5B271F6D1002E3FF482AEAD
:108A6000164A126842F21076E018B6FBF2F102FBE9
:108A70001162012605F8306002B13144234405EB50
:108A8000C30569606EE6BF68B7FBF0F100FB1170CB
:108A90000327AF5500B101311C44013305EBC40578
:108AA00003F00303934269603FF45CAE00293FF496
:108AB00059AE0139696055E6889F00209C16002058
:108AC00010B5027C01681F2A4FF020030ED94C68B4
:108AD000203A93401C4208D00B4A4068002414708E
:108AE000026822F001020260CB6010BD0C68934066
:108AF0001C42FAD0044A406800241470026822F034
:108B0000010202608B60F0E7416000203CF070BA27
:108B100038B51D4B1B78044600F1250593B104229E
:108B20001A4920304CF0CAFF2846142218494CF04C
:108B3000C5FF012384F83A30164B1B7873B984F8CB
:108B40003B3038BD2846142213494CF0B7FF0123AF
:108B500084F83A300F4B1B78002BF0D00F4B18687D
:108B600059689A68DD68E56020606160A260DD692F
:108B7000186959699A69A2610123E56120616161FF
:108B800084F83B3038BD00BFC12200209022002075
:108B900078220020C2220020B4C3050898220020B9
:108BA000014B18680AF0C4BE5821002038B53022A5
:108BB00000214CF045FF0346642440F2DC5040F2B3
:108BC0001A4140F26C7240F202251C745882132440
:108BD00019209982DA8240F2753140F643021D83F2
:108BE0009C760E250A241877D9831E2002211A8428
:108BF000012283F82E00197283F82C1083F822507A
:108C000083F82D409A7383F8252083F82B2019468A
:108C10000248BDE838402BF0CBBE00BFC0C30508FA
:108C200010B500210446012009F03AF8207010BD6B
:108C300038B500240472451EE1B2022009F030F874
:108C40000134082C05F8010FF6D138BD38B50024E1
:108C50000546048021462846013431F0B3FB082C38
:108C6000F8D1002185F8E210A5F8E410A5F8E61087
:108C7000A5F8E810A5F8EA10A5F8EC10A5F8EE1094
:108C8000A5F8F010A5F8F2102846BDE8384031F0FC
:108C90005BBB00BF2DE9F0410D4601211C46084693
:108CA000164607F0D1FDC4B105EB44280E4F01E094
:108CB00020F00EFD3A680023146929461A46304612
:108CC000A0470028F4D120F003FD0028FBD005F5D3
:108CD0000075454506F10106ECD10021012007F0A1
:108CE000B3FD0020BDE8F081809900202DE9F0411E
:108CF0000D4601211C460846164607F0A5FDACB1FD
:108D00000E4F05EB44283A680023946829461A461A
:108D10003046A0470028F6D020F0DAFC0028FBD02F
:108D200005F50075454506F10106ECD1002101204D
:108D300007F08AFD0020BDE8F08100BF8099002087
:108D400008B520F0C5FC80F00100404240B208BDEB
:108D500038B514460D4620F0ADFC4FF400730268A0
:108D60002A600020236038BD002108B5084607F0BE
:108D70006BFD40F04DF920F0ABFC0028FBD0012149
:108D8000002007F061FD002008BD00BF10B5044CB5
:108D900004480A46214620F0C9FF204610BD00BF06
:108DA000F0160020CCC3050810B5044C04480A4650
:108DB000214620F0BBFF204610BD00BFF01600206A
:108DC000DCC3050810B5044C04480A46214620F0CF
:108DD000ADFF204610BD00BFF0160020E8C3050817
:108DE0000A4608B5054920B1054820F09FFF034811
:108DF00008BD044820F09AFF004808BDF016002086
:108E000014C40508FCC305082DE9F04F87B0A94A32
:108E100002904068038823F040031B041B0C03806E
:108E2000038823F038031B0490424FEA134300F0F9
:108E30003F8102F5806290420CBF302238221343FA
:108E40000380029B02889B6842F04002028013B1BB
:108E50001A689B885383838940F2E93302E0002B30
:108E600000F090810289013B12F0020F9BB2F6D014
:108E70006B23838140F2E93302E0002B00F0828112
:108E80000289013B12F0010F9BB2F6D083898389DE
:108E900040F2E93302E0002B00F071810289013BCE
:108EA00012F0020F9BB2F6D08023838140F2E933A7
:108EB00002E0002B00F063810289013B12F0010FF8
:108EC0009BB2F6D08389029B9B6813B11A689B887A
:108ED00013830623784CDFF8EC81DFF8ECA1774DA3
:108EE000774E04939623DFF8E4C101934FF0100E00
:108EF000DAF80430C3F30803002B40F0B280EFF33C
:108F00001183002B40F0AD802068AA682368984246
:108F1000FAD133689A42F7D8D8F800704FF47A71D2
:108F200001FB07F39B1AB3FBF7F301FB00304FF48F
:108F30007A774FF00109DAF80430C3F30803002B05
:108F400070D1EFF31183002B6CD12368A9682268DC
:108F50009342FAD132689142F7D8D8F8002007FB43
:108F600002FBABEB0101B1FBF2F107FB03131B1A90
:108F7000B3F57A7FDFD3019B013B0193B8D1029B0C
:108F80009B6813B11A689B885383029B586840F210
:108F9000E933828902E0002B00F085800289013BE1
:108FA00012F0020F9BB2F6D0F523838140F2E93331
:108FB00001E0002B77D00289013B12F0010F9BB238
:108FC000F7D08389838940F2E93301E0002B67D031
:108FD0000289013B12F0020F9BB2F7D0FF2383817D
:108FE00040F2E93301E0002B5AD00289013B12F034
:108FF000010F9BB2F7D08389DBB20393029B9A687F
:1090000012B1136891881983039B682B60D0049B6D
:10901000013B13F0FF0304937FF464AF184607B0DD
:10902000BDE8F08FEFF311818EF31288D5F808B008
:109030002B68DB0344BFCCF80090D5F808B0236858
:10904000DCF80020C9B281F31188D8F8001013446D
:1090500007FB01F2A2EB0B02B2FBF1F207FB0323C9
:1090600085E7EFF311838EF31288AF682A68D20385
:1090700003D50122CCF80020AF682068DCF800900E
:10908000DBB283F31188D8F800104FF47A724844A9
:1090900002FB01F3DB1BB3FBF1F302FB003046E7FD
:1090A0003BF076FFAAE73BF073FF029B586889E725
:1090B0003022C4E6003800400893002010E000E0B1
:1090C000109300200C93002000ED00E0049300209A
:1090D00012B1136892885A83029B586840F2E933B0
:1090E000828901E0002B45D00289013B12F0020F7A
:1090F0009BB2F7D08C23838140F2E93301E0002B4F
:1091000038D00289013B12F0010F9BB2F7D083895E
:10911000838940F2E9330289013B12F0020F9BB2CE
:1091200015D1002BF7D13BF033FF029B9B6813B1A5
:109130001A689B881383059B142B04D3182B17D90B
:10914000543B062B14D9002007B0BDE8F08FFF2355
:10915000838140F2E93301E0002BE4D00289013B36
:1091600012F0010F9BB2F7D08389DBB20593DCE7E5
:10917000032054E73BF00CFF029B5868C8E73BF024
:1091800007FFA0E63BF004FF029B58687FE600BFA4
:10919000F0B5876983B0064617B13B68BA885A8331
:1091A0007069DFF8A8E08389C3244FF47A734FF025
:1091B000060C6D464FF6FF710EF1010E03E0013B08
:1091C0009BB28B4220D002899207F8D5A3B283814B
:1091D0004FF47A7302E0A3B28B4215D00289D20712
:1091E00003F1FF34F7D5828992B20DB12A700135AF
:1091F000BCF1000F0BD00CF1FF3CFF24BEF1000FBF
:10920000E1D09EF80040D7E73BF0C2FEB76917B146
:109210003B68BA881A839DF805009DF801509DF8B7
:1092200002109DF803409DF804209DF8063041EAA5
:10923000052143EA002342EA04220120A6F8501047
:10924000A6F85220A6F8543003B0F0BD5C5B0508C8
:10925000037B022B01D000207047F0B5436983B037
:1092600013B11A689B8853830446006940F2E933BE
:10927000828901E0002B5DD00289013B12F0020FD0
:109280009BB2F7D0BB23838140F2E93301E0002B8E
:1092900050D00289013B12F0010F9BB2F7D08389B5
:1092A0008389038999074FF005076E464FF47A7258
:1092B0004FF0FF0C4FF6FF7506D4531E9BB2D2B190
:1092C0001A4603899907F8D5A0F80CC04FF47A73B1
:1092D00002E08BB2AB420ED00289D20703F1FF311C
:1092E000F7D5828992B20EB1327001367A1E27B15B
:1092F00017461A46E5E73BF04BFE636913B11A685F
:109300009B8813839DF804009DF800609DF8011070
:109310009DF802509DF803209DF8053041EA062192
:1093200043EA002342EA052201206183A283E3830A
:1093300003B0F0BD3BF02CFE2069B1E708B5012079
:1093400022F0D6F8174A936803F00C03042B1ED0C2
:10935000082B18D151685368490203F03F0319D410
:1093600052681148B0FBF3F0C2F3881300FB03F01E
:109370000C4B0E4A5B68C3F3014301335B00B0FB47
:10938000F3F0106008BD094B074A1A6008BD074B8F
:10939000186008BDB0FBF3F05368C3F3881300FBFB
:1093A00003F0E5E7003802400024F400DC880020E8
:1093B0002DE9F84F037C02681F2B86BF203B5168C4
:1093C0001168202202FA03F30B4214BF0123002389
:1093D0000BB9BDE8F88F4569604F044609F0C8F93C
:1093E0004FF4B27303FB057306461A7C002A35D18D
:1093F0005B495A680978D2F80090D1B9D3F8D810EF
:1094000058890A6822F001020A60B9F80C3023EA90
:109410000003A9F80C30534B1B78002B32D1237C6E
:1094200021681F2B13D8202202FA03F38B60BDE8BA
:10943000F88F5269136823F001031360B9F80C30F8
:1094400023F480731B041B0CA9F80C30E3E7203BCA
:10945000202202FA03F3CB60BDE8F88FD3F8D8607E
:1094600041485F8901225A7431685A680368156857
:1094700021F001013160AA89013322EA0702AA81A1
:109480000360CCE74FF4B27A0AFB05FA07EB0A0552
:10949000D5F8D880404621F0F5FE01232B74D5F88D
:1094A000DCB009F065F90AF18C013944CBF82C01E4
:1094B000484622F075F8D5E92B70D5F89830D5E9F3
:1094C0002D123B4303430B431343D5F8BC20D5F87F
:1094D000CC70D8F8000025491343D5F8C0201343B9
:1094E000D5F8D0203B43014013430B430022C5F87D
:1094F000A420C8F80030D8F81420D5F8C430D5F826
:10950000A81022F0070CD5F8C820D5E9277013431E
:1095100043EA0C03C8F81430C8F80410C8F80870FF
:10952000C8F80C00D8F80020D5F8D83095F8D40049
:10953000696842F01002C8F8002058601A6809688B
:1095400042F001021A608B896A8913438B8109F00A
:109550000FF9074B801B186061E700BF889F002050
:109560007C160010781600101C2600203F801CF08E
:109570002415001020B10078B0FA80F0400970473F
:109580000120704708B520214CF071FA03461846B7
:1095900023B10278202A03F10103F8D008BD037932
:1095A00003F01803082B0AD002D82BB10020704713
:1095B000102B16D0182BF9D1B0F80B007047124BB6
:1095C000B0F80B0093F90030591C06BF0F4B1B7805
:1095D000DBB2C3EB031203EB820300EB430080B268
:1095E00070470B4BB0F80B0093F900305A1C06BFC4
:1095F000064B5B78DBB203EB430203EB820300EB29
:10960000430080B2704700BF010E0020E49C0020A0
:10961000000E0020F0B5067906F0E003402B09D1DA
:1096200044794FF0FF350023012006F00706A342DE
:109630000BD1F0BD602B08BF45794FF001040CBF82
:1096400004FA05F54FF0FF35EDE7042E0CD8DFE8FE
:1096500006F0030D18242E0030B1C85CD75C7840AA
:1096600028420CBF012000200133E0E70028FBD096
:10967000C856D756A0EB070CDCF1000040EB0C00FD
:10968000F2E70028F0D031F8130032F81370784078
:1096900028420CBF01200020E6E70028E4D031F981
:1096A000130032F91370C71B78427841DCE70028B9
:1096B000DAD051F8230052F82370784028420CBFCA
:1096C00001200020D0E7024B014618683BF090BC17
:1096D0004C20002038B5064D441E14F8011F2868A0
:1096E00019B9BDE838403BF075BC3BF081FCF4E7AC
:1096F0004C2000200048EDE7A3FF050808B5FFF760
:10970000E9FFBDE80840F5E710B504460348FFF758
:10971000E1FF2046BDE81040F0E700BFF8C20508B1
:1097200038B5074C074DAC4203D3074B00221A70E3
:1097300038BD6288D4E901014AF05EFE1434F2E7D4
:109740009001000844070008C087002038B5074C86
:10975000074DAC4203D3074B01221A7038BD628813
:10976000D4E901104AF048FE1434F2E790010008F1
:1097700044070008C0870020024A136823EA00005B
:1097800010607047A4B40020DFED2E7AB4EEE70A33
:10979000F1EE10FA4ADDDFED2C6A9FED2C7A01E044
:1097A000B0EE670AB4EEC70AF1EE10FA70EE667A10
:1097B000F6DC9FED277AF4EEC77AF1EE10FA3ED58B
:1097C000DFED216A9FED237A01E0F0EE407AF4EEBE
:1097D000C77AF1EE10FA37EEA60AF6D4DFED1E7A5C
:1097E000B4EEE70AF1EE10FA14DDDFED167A37EE8B
:1097F000C00A60EE006A9FED196A9FED197ADFEDED
:10980000197AA6EE867A20EE266AE6EE877AA6EE2A
:10981000270A7047DFED147AB4EEE70AF1EE10FA8A
:1098200044BFDFED0B7A37EEC00AE2E79FED087A1E
:10983000F0EE407AF4EEC77AF1EE10FAC0D4B0EE52
:10984000670ACBE7DB0F4940DB0FC940E4CB164189
:10985000DB0F49C0E4CB16C1DB0FC93F92E741B92A
:109860009730083C15A82ABEDB0FC9BFF0EEC07ABE
:10987000B0EEE07AB4EEE77AF1EE10FAB4BFB0EEF3
:10988000676AB0EE476AB5EE406AF1EE10FA46D06C
:10989000B4EEE77AF1EE10FA8CBFF0EE675AF0EE14
:1098A000475AC5EE866A9FED1F3A9FED1F6A9FEDEE
:1098B0001F4A9FED1F5ADFED1F3ADFED1F4ADFED14
:1098C0001F5AA6EEC36AE6EEA34AA6EE864AB7EE94
:1098D000006AA6EE845AA6EEA46AE6EE855AC5EEA4
:1098E000866AB4EEE77AF1EE10FA48BFDFED147A3B
:1098F000F5EEC00A48BF77EEE66AF1EE10FA48BF0F
:10990000DFED107AB5EEC00A48BF77EEE66AF1EEF9
:1099100010FA48BFF1EE666AB0EE660A7047DFEDF6
:10992000076ADEE739094E3DE3B59E3E88FA163EEA
:1099300045FE7F3F99FB243F69A2163EA7DFA8346E
:10994000DB0FC93FDB0F4940DFED317A30EE277A7C
:10995000FDEEC76A16EE903A2033402B02D99FEDF8
:109960002D0A7047B4EEE70AF1EE10FA4DDD9FEDD7
:109970002A6ADFED2A6A01E0B0EE677AB4EEE67A91
:10998000F1EE10FA77EE467AF6DC9FED257AF4EEEA
:10999000C77AF1EE10FA35D5DFED1F6A9FED217A17
:1099A00001E0F0EE407AF4EEC77AF1EE10FA37EE0D
:1099B000A60AF6D4DFED167AB4EEE70AF1EE10FA55
:1099C0001BDCDFED197AB4EEE70AF1EE10FA44BFC2
:1099D000DFED137A37EEC00A60EE006A9FED136A7E
:1099E0009FED137ADFED137AA6EE867A20EE266AD3
:1099F000E6EE877AA6EE270A7047DFED0F7A37EE9C
:109A0000C00AE9E7B0EE670AD4E7F0EE477ABCE7B0
:109A1000DB0FC93F00000000DB0FC940E4CB16415B
:109A2000DB0F49C0E4CB16C1DB0FC9BF92E741B9D8
:109A30009730083C15A82ABEDB0F494010B44C09EA
:109A4000012250F8243001F01F0102FA01F123EA4B
:109A5000010340F824305DF8044B704710B44C0902
:109A6000012250F8243001F01F0102FA01F10B43EA
:109A700040F824305DF8044B704700BF4B0901F0FB
:109A80001F0150F82320012303FA01F1114214BFF2
:109A900018460020704700BF2DE9F043002489B02C
:109AA00006460D461F46A04605E025290CD0304647
:109AB0000134A847039A531C039311780029F4D169
:109AC000204609B0BDE8F083931CCDE903385078F7
:109AD000302842D0A0F13003DBB2092B4FF000094F
:109AE00045D96C282AD0642873D019D9732858D046
:109AF00063D9752840F0828007F1040C386805AB03
:109B000000220A216746FEF7ABFB05AB049A0093DF
:109B100029464B463046FEF779FA039A0444CAE7D1
:109B200025283CD051D958286BD06328C2D1397828
:109B30003046A84704370134039ABCE7039B5A1CFC
:109B400003921B78642B52D016D8252B27D064D9CA
:109B5000582B18D0632BEAD0ADE7D31C0393907831
:109B6000A0F13003DBB2092B4FF00109B9D804AAE8
:109B700003A93FF0B1FCB4E7732B12D051D9752B78
:109B80002DD0782B97D1A3F15802B2FA82F238681F
:109B9000520905AB10210437FEF762FBB5E725211A
:109BA00085E73B68049A0093294600233046FEF778
:109BB0002DFA04370444039A7DE76E287FF47AAFC8
:109BC000039A3B6804371C6075E700283FF478AFC0
:109BD00070E7386805A9FEF70DFB043795E738688C
:109BE00005AB00220A21FEF73BFB04378DE73B1D46
:109BF000386805A91F46FEF7FDFA86E778287FF446
:109C000059AFA0F15802B2FA82F23868520905AB96
:109C10001021FEF725FB043777E7002B3FF450AF08
:109C200049E76E2BCDD046E710B5064C0B460246F1
:109C300005492068FFF730FF2068BDE810403BF081
:109C4000C9B900BF4C2000200D8B000838B5044670
:109C50000D460848FFF73EFD29462046FFF7E4FF82
:109C60000548FFF737FD054B1B7813B1044B012264
:109C70001A7038BDFDC2050808C30508A8210020D8
:109C8000A92100200FB407B504A951F8040B0191D4
:109C9000FFF7DCFFFFF72EFD03B05DF804EB04B027
:109CA000704713460A4601460048EBE70CC3050817
:109CB0000048E7E725C305080FB407B504A951F824
:109CC000040B0191FFF7C2FF03B05DF804EB04B091
:109CD00070470FB407B504A951F8040B0191FFF7C1
:109CE000A3FFFFF707FD03B05DF804EB04B0704776
:109CF0000FB407B504A951F8040B0191FFF794FFC5
:109D000003B05DF804EB04B070472DE9F843037924
:109D100003F0E001202928D002D849B1BDE8F8833A
:109D2000402945D06029F9D12448BDE8F843D0E75F
:109D300003F00703022B02D0042B08D06BB9B0F854
:109D40000720B0F805101E48BDE8F843C1E7D0F879
:109D500005201B48BDE8F843BBE7B0F90720B0F980
:109D600005101748BDE8F843B3E74579154E164886
:109D7000FFF7B0FC06EBC502002492F80480012333
:109D8000A04502D8BDE8F843B4E456F8357057F85A
:109D900024204FEA84094AB113B90C48FFF79AFC12
:109DA00057F809100A48FFF7A3FF00230134E7E73B
:109DB00041790848BDE8F8438BE700BF6DC305084B
:109DC00031C30508C48C050848C3050859C30508F4
:109DD0006DF405085CC305082DE9F04117460279CA
:109DE00002F0E003402B05460E462BD10024554FD0
:109DF000DFF8708115E02B7903F00703022B15D0F3
:109E0000032B19D0012B14BF315D31573846FFF7B2
:109E10006FFF6B79013BA34202DD4046FFF75AFC1E
:109E200001346B79A342E6DCBDE8F08136F814100A
:109E30003846FFF75DFFECE736F914103846FFF7B8
:109E400057FFE6E702F00702042A5DD8DFE802F0D8
:109E5000031D25272A003478202B3AD068D8002B00
:109E6000E2D1B5F80560B5F8078036482146FFF71E
:109E70003FFFA64240DCA0453EDB002FD4D0424647
:109E800031463148BDE8F04132E796F90040202BD9
:109E90001FD04DD8002B3DD0C6E73488DCE7B6F99B
:109EA0000040F4E7D6F80080202B444611D03FD87C
:109EB000002BB9D141462348FFF71AFFD5F805100A
:109EC000884519D8002FAFD02048BDE8F0410FE7F2
:109ED00000246A791E4B03EBC2010979A1420BDD14
:109EE00053F8323053F82400BDE8F041FFF7F2BBDD
:109EF0001848BDE8F041FBE6FFF7FCFB2246296865
:109F00001548BDE8F041D7E6202BE1D007D8002B5B
:109F10008AD11C46B5F90560B5F90780A5E7602B25
:109F2000E6D0802B80D131460C48BDE8F041DFE619
:109F3000602BF6D16A791441E307D9D50848BDE80A
:109F4000F041D5E645C305089FF4050887C3050819
:109F5000C48C05081BF005088DC305086DF40508C1
:109F600082C3050885C305080CB407B510F02000AE
:109F70000BD079B92320FFF7A6FB05A9049801911E
:109F8000FFF752FEFFF7B6FB012003B05DF804EBCC
:109F900002B070470020F8E70CB4C30607B500D53F
:109FA00061B905A904980191FFF73EFEFFF7A2FBF6
:109FB000012003B05DF804EB02B070470020F8E721
:109FC0000EB400B584B005AB019053F8042B0649DC
:109FD000039301A8FFF760FD019B00221A7004B0F3
:109FE0005DF804EB03B070470180000870B40668A8
:109FF0008E4217D90139751E002311F8014F08222E
:10A00000634013F0800F4FEA430318BF83F0D5037A
:10A01000013ADBB2F5D18D42EFD1721C0260337090
:10A0200070BC7047721C00230260337070BC7047B4
:10A030000A44914215D010B40139541E11F8012F71
:10A040000823504010F0800F4FEA400018BF80F006
:10A05000D500013BC0B2F5D1A142EFD15DF8044B70
:10A06000704770474840082310F0800F4FEA4000C7
:10A0700018BF80F0D500013BC0B2F5D1704700BFDA
:10A080000A44914215D030B40139551E41F22102E3
:10A0900011F8014F082380EA042004044CBF82EA2F
:10A0A00040004000013B80B2F7D18D42F0D130BC7E
:10A0B0007047704770B502221349144C144E4FF686
:10A0C000FF70FFF7DDFF22884AB1A518B54218D20C
:10A0D000052A16D92146FFF7D3FF2C46F3E7214680
:10A0E0000222FFF7CDFF0222A118FFF7C9FF094B9B
:10A0F000E41A094B1C8041F60F53C31A58425841C9
:10A1000070BD0020FCE700BF0040000802400008CE
:10A1100000800008FA3F0008368800200F4B2DE928
:10A120003048D3E9004554EA05020AD1034640F21B
:10A13000011200201880988098715A801881BDE81B
:10A140003088074B1A6814EB020B45F1000C5A4695
:10A150006346FDF797FF0120BDE83088007F0020AF
:10A160000893002030B403888278C478154DA3F595
:10A17000FA6303F0030101EB4101013A02EB8102B2
:10A180009B0835F812500279611E40F2B55404FB69
:10A1900003132B4403EB430302EBC303427984799B
:10A1A00009490089C3EB031302EB83032144C3EB8A
:10A1B000031301EB83034FF47A720021C2FB030106
:10A1C00030BC7047E85A050880436D382DE9F047E8
:10A1D00007468CB01E469246002A5CD115461446AE
:10A1E0000A88B2F5FA6F36D38B78581E0B2832D80E
:10A1F00091F803C00CF1FF301E282CD891F804E030
:10A20000BEF1170F27D891F80590B9F13B0F22D86E
:10A2100088793B281FD8B1F80880B8F57A7F1AD220
:10A220004FF001085EBB09890491002CB4BF2D21B9
:10A230002B21002CB8BF6442CDE90290CDE9051472
:10A240000795CDE900CE38462A49FFF7B9FE4046CA
:10A250000CB0BDE8F08700232749ADF828304FF057
:10A26000010C18468DF82A30ADF82C3099469E46E0
:10A270001A4698460991634609A9002ED3D0CDE924
:10A280000290CDE900CE38461C49FFF799FE4046C2
:10A290000CB0BDE8F0871A4C84FB0234A318D41725
:10A2A000C4EB6314C4EB0415A2EB85052DB2002D9D
:10A2B0000846B8BF6D42FFF755FF4FF47A7200238E
:10A2C0008046894649F0FEFD3C230AFB030A4FF411
:10A2D0007A7200234046494649F0F4FD4FF47A7102
:10A2E00092B20023C1FB0A2309A8FDF7CBFE24B2DA
:10A2F00009A975E74CC40508000001012CC4050834
:10A30000898888880378202B024600F10100F9D063
:10A31000092BF7D02D2B00F0A4802B2B03BF5378F3
:10A32000B7EE000A0246B7EE000AA3F13001C8B248
:10A3300009289FED577A10D8F2EE046A07EE901ABA
:10A34000F8EEE77A12F8013FE7EE267AA3F1300142
:10A35000C8B20928B0EE677AF0D92E2B63D003F08B
:10A36000DF03452B02D020EE070A704710B4517866
:10A370002D294FD02B2979D0A1F13003092B02F1DF
:10A3800001027AD80024002303EB830301EB43038B
:10A3900012F8011FA1F130000928A3F13003F3D90D
:10A3A000B3F59A7F1A4628BF4FF49A72072B6CD9DF
:10A3B000DFED386A1346F7EE007A083B072B67EEAD
:10A3C000A67AFAD802F00702DAB1F2EE046A012A9C
:10A3D00067EEA67A15D0022A67EEA67A11D0032A74
:10A3E00067EEA67A0DD0042A67EEA67A09D0052A70
:10A3F00067EEA67A05D067EEA67A062A18BF67EE42
:10A40000A67A002C3BD087EE277A5DF8044B20EE2D
:10A41000070A70479178A1F13003092B02F102027B
:10A4200030D80124AFE75378A3F13001C8B209282E
:10A4300002F1010293D8F2EE046AF0EE665A07EEDA
:10A44000901AF8EEE77A12F8013F87EEA66AA3F1B8
:10A450003001C8B2092866EEA56A37EE067AEED951
:10A460007DE75378BFEE000A02465EE79178A1F1DE
:10A470003003092B02F1020284D9F7EE007A27EEAD
:10A48000277AC2E7F7EE007ABDE7F7EE007A9BE79E
:10A490000000000020BCBE4CF8B506461546084634
:10A4A000B6FBF2F434B905FB14640C4B1B5D00F8E9
:10A4B000013BF8BDB4FBF2F75FB905FB1747074B4B
:10A4C00005FB1464DA5D00F8012B1B5D00F8013B0D
:10A4D000F8BD3846FFF7E0FFEFE700BF7CC4050892
:10A4E000B5EEC00ADFED677A674AF1EE10FACCBF2D
:10A4F00030EE270A30EE670ADFED647A20EE270A95
:10A500002DE9F047FDEEC07A88B017EE904A84EA54
:10A51000E4760023A6EBE476CDE902330493A2FBB4
:10A5200006325FEAD208054641D105AF58483946A0
:10A53000554BA3FB0623DB0803EB8303A6EB430386
:10A54000002CC35C0B704FF00002ACBF20232D2306
:10A550004A7038468DF8083048F0BEFF0128394669
:10A5600039D0022842D0032805BF302302A802A810
:10A570008DF809304BF06CFA02A848F0ADFF0338B3
:10A58000C4B2224602A928464BF098FA00232B5564
:10A59000284648F0A1FF2E22431C02A92A54214438
:10A5A000E8184BF071FA284608B0BDE8F087394B3F
:10A5B000A3FB06235B0922D105AF35483946324A51
:10A5C000A2FB0832D20802EB8202A8EB4202835CB3
:10A5D00001F8013BACE7302302A88DF809308DF873
:10A5E0000A308DF80B304BF033FAC5E7302302A860
:10A5F0008DF809308DF80A304BF02AFABCE7264A6C
:10A60000A2FB06125FEA92190ED105AF2048394627
:10A610001D4AA2FB03C2D20802EB8202A3EB420353
:10A62000C35C01F8013BCAE71C4AA2FB06125FEAC1
:10A63000523A0ED105AF16483946134AA2FB09C259
:10A64000D20802EB8202A9EB4202825C01F8012BE4
:10A65000DEE71348B6FBF0F058B905AF39460A20DB
:10A66000BAFBF0F200FB12A20948825C01F8012B50
:10A67000E3E705AF39460A220193FFF70DFF019B7F
:10A680000146ECE76F12033ACDCCCCCC00007A4403
:10A690007CC405081F85EB51D34D62105917B7D103
:10A6A000A086010002B370B48E1803E0121B14D10F
:10A6B000B14215D010F8012BA2F14103192B11F86A
:10A6C000013BA3F1410598BF2032192D03F120046D
:10A6D000ECD9D21A01D1002BEAD1104670BC7047D8
:10A6E0000022104670BC70471046704770B5044693
:10A6F00008460D4648F0F0FE064602E014F8013F19
:10A7000043B1324629462046FFF7CCFF0028F5D159
:10A71000204670BD1C46204670BD00BF4FF0FF3282
:10A72000FFF7C0BFA0F16103192B98BF2038704715
:10A73000A0F14103192B98BF20307047202805D085
:10A74000093804288CBF0020012070470120704781
:10A750002DE9F0411F46064603461C782046FFF7C8
:10A76000EDFF1D4601330028F7D12B2C51D02D2CA5
:10A7700024D0102A804628D04FF0FF33B3FBF2F3E9
:10A7800002FB03FC6FEA0C0C5FFA8CFC0135002025
:10A790000BE0303CE4B2944225DA98422E461DD8B4
:10A7A0001AD002FB004015F8014B392CF1D944F0C6
:10A7B0002004602C17D9573CE4B2ECE74FF00108B5
:10A7C000102A6C7805F10105D6D1302C23D06FF01A
:10A7D00070434FF00F0CD9E76445E2D907EA080847
:10A7E0004FF0FF30DFE701B10E60B8F1000F08D085
:10A7F00027B1B0F1004F28BF4FF000404042BDE804
:10A80000F081002FFBD06FF00043984228BF18461C
:10A81000F5E78046D4E76C782046FFF789FF782873
:10A8200005F1010605D035466FF070434FF00F0C6F
:10A83000ACE7AC786FF0704302354FF00F0CA5E732
:10A8400001230A22002183E770B50D461446FEF766
:10A8500099FE0646A0B1FFF7F3FF40F63403984295
:10A86000A8BF1846B0F5617FB8BF4FF461701923D7
:10A87000A0F5617090FBF3F028702378013323700A
:10A880003046FEF77FFE0646A0B1FFF7D9FF40F63F
:10A8900034039842A8BF1846B0F5617FB8BF4FF4A3
:10A8A00061701923A0F5617090FBF3F06870237854
:10A8B00001332370304670BD613819288CBF0020E9
:10A8C00001207047413819288CBF002001207047B3
:10A8D000303809288CBF002001207047A0F13003D8
:10A8E000092B07D920F02000413819288CBF0020FF
:10A8F000012070470120704707EE901AF8EE677A42
:10A900009FED807A27EE800A20EE070AFDEEC07ADE
:10A9100017EE903A2033402B7BD8DFED7B7AB4EEF4
:10A92000E70AF1EE10FA40F3E180B0EE407A9FEDD5
:10A93000776ADFED776A01E0B0EE677AB4EEE67A27
:10A94000F1EE10FA77EE467AF6DC9FED727AF4EECD
:10A95000C77AF1EE10FA40F1CC809FED6C6ADFED22
:10A960006E6A01E0F0EE477AF4EEE67AF1EE10FA64
:10A9700037EE867AF6D4DFED697AB4EEE77AF1EE57
:10A9800010FA40F3A280DFED607A37EEC77A27EE47
:10A99000076ADFED635ADFED637ADFED636A9FEDEF
:10A9A000635AE6EE257A67EE065AE6EE276AF7EE78
:10A9B000007AA5EEA67AF0EE675AE7EE055AE7EEC2
:10A9C000457A87EEA55ADFED557A30EE277AFDEE0F
:10A9D000C76A16EE903A2033402B1FD99FED547A68
:10A9E000F6EE006AB7EE006AF7EE004AC4EEA57A0A
:10A9F00080ED045A67EEA66A27EE866A27EE877A0C
:10AA0000C0ED006AC0ED026A80ED016A80ED037A54
:10AA10007047B7EE005AF0EE455AD4E7B4EEE70AB5
:10AA2000F1EE10FA6BDD9FED396ADFED396A01E076
:10AA3000B0EE677AB4EEE67AF1EE10FA77EE467A87
:10AA4000F6DC9FED347AF4EEC77AF1EE10FA53D5C6
:10AA50009FED2E6ADFED306A01E0F0EE477AF4EE0A
:10AA6000E67AF1EE10FA37EE867AF6D4DFED2B7A3D
:10AA7000B4EEE77AF1EE10FA33DCDFED2E7AB4EEC5
:10AA8000E77AF1EE10FA44BFDFED227A37EEC77AAB
:10AA900027EE076ADFED224ADFED226ADFED227A38
:10AAA000E6EE246A67EE064AE6EE267AB7EE006A1C
:10AAB000A4EEA77AF6EE006A36EE476AF8EE007A60
:10AAC00027EE277A66EE266A8EE7DFED1A7AB4EE75
:10AAD000E77AF1EE10FA44BFDFED0E7A37EEC77A6F
:10AAE00055E7DFED097A37EEC77AD1E7F0EE407A25
:10AAF0002BE7B0EE677A3EE7B0EE677AB6E7F0EEA6
:10AB0000477A9EE727D4D236DB0F4940DB0FC94096
:10AB1000E4CB1641DB0F49C0E4CB16C1DB0FC93FC4
:10AB200092E741B99730083C15A82ABEF304353F97
:10AB300000000000DB0FC9BF07EE901AF8EE677A3D
:10AB40009FED837A27EE800A20EE070AFDEEC07A99
:10AB500017EE903A2033402B00F28180DFED7D7AB2
:10AB6000B4EEE70AF1EE10FA40F3E680B0EE407A78
:10AB70009FED796ADFED796A01E0B0EE677AB4EEB5
:10AB8000E67AF1EE10FA77EE467AF6DC9FED747A0B
:10AB9000F4EEC77AF1EE10FA40F1D1809FED6E6AC3
:10ABA000DFED706A01E0F0EE477AF4EEE67AF1EE5E
:10ABB00010FA37EE867AF6D4DFED6B7AB4EEE77AE8
:10ABC000F1EE10FA40F3A780DFED627A37EEC77A34
:10ABD00027EE076ADFED655ADFED657ADFED656A1E
:10ABE0009FED655AE6EE257A67EE065AE6EE276A8D
:10ABF000F7EE007AA5EEA67AF0EE675AE7EE055A70
:10AC0000E7EE457A87EEA55ADFED577A30EE277AE0
:10AC1000FDEEC76A16EE903A2033402B24D99FED03
:10AC2000577AF6EE006AB7EE006AF7EE004AC4EE15
:10AC3000A57A0023836143610362C36180ED045AF6
:10AC400067EEA66A27EE866A27EE877AC0ED006A6D
:10AC5000C0ED026A80ED016A80ED037A7047B7EEBD
:10AC6000005AF0EE455ACFE7B4EEE70AF1EE10FADB
:10AC70006BDD9FED396ADFED396A01E0B0EE677A8E
:10AC8000B4EEE67AF1EE10FA77EE467AF6DC9FED56
:10AC9000347AF4EEC77AF1EE10FA53D59FED2E6AAE
:10ACA000DFED306A01E0F0EE477AF4EEE67AF1EE9D
:10ACB00010FA37EE867AF6D4DFED2B7AB4EEE77A27
:10ACC000F1EE10FA33DCDFED2E7AB4EEE77AF1EE36
:10ACD00010FA44BFDFED227A37EEC77A27EE076A13
:10ACE000DFED224ADFED226ADFED227AE6EE246A0A
:10ACF00067EE064AE6EE267AB7EE006AA4EEA77A79
:10AD0000F6EE006A36EE476AF8EE007A27EE277A0A
:10AD100066EE266A89E7DFED1A7AB4EEE77AF1EE9D
:10AD200010FA44BFDFED0E7A37EEC77A50E7DFED59
:10AD3000097A37EEC77AD1E7F0EE407A26E7B0EE2F
:10AD4000677A39E7B0EE677AB6E7F0EE477A9EE7C2
:10AD500027D4D236DB0F4940DB0FC940E4CB164184
:10AD6000DB0F49C0E4CB16C1DB0FC93F92E741B905
:10AD70009730083C15A82ABEF304353F00000000B8
:10AD8000DB0FC9BF30B402681146531C036011F8D1
:10AD9000024B0160D31C517803609378151D056048
:10ADA0001B0443EA0123D078234343EA006030BC0C
:10ADB000704700BF0368591C1A46016012F8021B55
:10ADC0000260587841EA0020704700BF03685A1CAF
:10ADD00002601878704700BF70B5044608460E46FA
:10ADE00048F07AFB314605460246206849F004FBEC
:10ADF00020682844206070BD38B5044600681546B8
:10AE000049F0FAFA22682A44226038BD036810B477
:10AE10000A0E5C1C04601A7003680A0C5C1C046057
:10AE20001A7003680A0A5C1C04601A7003685A1CD2
:10AE3000026019705DF8044B704700BF036810B4DE
:10AE40000A0A5C1C04601A7003685A1C02601970BC
:10AE50005DF8044B704700BF03685A1C026010B4D1
:10AE6000197003680A0A5C1C04601A7003680A0CF3
:10AE70005C1C04601A700368090E5A1C0260197089
:10AE80005DF8044B704700BF03685A1C02601970DC
:10AE90000368090A5A1C02601970704770B544882B
:10AEA0000546C4F30B042246084600214AF0C8FDBB
:10AEB0002969094A9142034602D3084A914204D3C0
:10AEC00041B11846BDE8704008472246BDE87040D1
:10AED00049F092BA70BD00BF44070008B2080008EC
:10AEE00038B5064C064DAC4206D261682046143493
:10AEF000FFF7D4FFAC42F8D338BD00BF9001000883
:10AF000044070008084B09498B4203D309E0143376
:10AF10008B4206D21A88C2F30B029042F7D1184630
:10AF20007047002318467047900100084407000846
:10AF30002DE9F74FDFF8C0B081468A460025D84694
:10AF40002A4B0D2418686C433AF044F804EB0B03C9
:10AF50001B7903F018034B4504D0B9F1000F3ED123
:10AF6000182B3CD10D2303FB05820093B2F8090096
:10AF7000FFF7C8FF444407462046FEF710FBD7E919
:10AF800001210646024401442046FEF743FB1AF025
:10AF9000100F0246009B00D008BB03FB05831AF08C
:10AFA000200F1B680FD072B9194611480093019207
:10AFB000FEF79EFE7968019A31442046FEF70CFFA9
:10AFC000FEF798FB009B0B481946FEF791FEB96807
:10AFD000002231442046FEF7FFFEFEF78BFB0135D1
:10AFE000B5F5F87FACD103B0BDE8F08F4C20002060
:10AFF000A7C30508A8C305089091050870B50546C4
:10B00000B0F80900FFF77EFF064B1E78044628467D
:10B01000FEF7C5FA16B1A368184470BD63681844FA
:10B02000FBE700BFC087002038B505460C46FFF798
:10B03000E5FF2A7902F0070302F0E002602A28D136
:10B04000022B0ED0042B18D03BB96A790123934010
:10B05000DBB2027814B11343037038BD22EA030354
:10B06000FAE76A79012393409BB2028814B1134333
:10B070000380F2E722EA0303FAE76A79012303FA7D
:10B0800002F2036814B113430360E6E723EA020304
:10B09000FAE7042BE1D8DFE803F003030505070016
:10B0A0000470DAE70480D8E70460D6E738B50D46C7
:10B0B0000446FFF7A3FF2A4601462046BDE8384074
:10B0C000FEF78ABE08B5064B186838B139F060FC47
:10B0D000044B9B7813B180F00100C0B208BD00BFE3
:10B0E00028230020FC37002008B53DF049FF1CF064
:10B0F000AFFF1B2039F020FA18B123220023827100
:10B10000C3713CF093FB18B1232200238271C371F9
:10B110000B4B9B78022B03D10A4B5B79012B01D09F
:10B12000012008BD084B094A03F1200103F14C003E
:10B1300013603DF01DFD064B002083F8230008BD81
:10B14000547F002078990020BC010020E0410020BD
:10B1500000ED00E008B50021032020F0D9F972B617
:10B1600049F0D4F808B5FFF7ADFF0028FBD1142053
:10B1700007F0AEFB00BFFFF7A5FF0028FAD0FFF7EE
:10B18000E9FF00BF0388174A23F040031B041B0C90
:10B190000380038823F038031B0490424FEA1343D3
:10B1A0001DD002F58062904219D0B1F5807FA8BF12
:10B1B0004FF480710229B8BF0221002991FAA1F150
:10B1C000B1FA81F108BF4FF0FF31013943EAC10103
:10B1D00089B20180038843F0400303807047490827
:10B1E000E3E700BF003800401378A3B11D2812DC4C
:10B1F00070B41E24084E14FB0101151A281931449D
:10B2000001E0824205D001F8013F12F8013F002B16
:10B21000F7D170BC70477047375E00202DE9F84FBA
:10B22000DFF8C88298F8003003B1FEE7A94FAA4AB8
:10B230007B6812881C88A94E24F040042404012550
:10B24000240C88F800501C801D8825F038052D043A
:10B25000B3424FEA154500F0DD81A14CA34200F056
:10B26000D981B2F5807FA8BF4FF48072022AB8BF9F
:10B270000222002A92FAA2F2B2FA82F208BF4FF03A
:10B28000FF32013A45EAC20292B21A801C88BA68BB
:10B2900044F040041C8012B1146892886283914A81
:10B2A0008B46998901211170044640F2E93202E08F
:10B2B000002A00F0B1811989013A11F0020F92B20F
:10B2C000F6D000229A8140F2E93202E0002A00F032
:10B2D000A3811989013A11F0010F92B2F6D09A892F
:10B2E0009A8940F2E93202E0002A00F0AE81198921
:10B2F000013A11F0020F92B2F6D000229A8140F288
:10B30000E93202E0002A00F0A0811989013A11F027
:10B31000010F92B2F6D09A899A8940F2E93202E09E
:10B32000002A00F08D811989013A11F0020F92B2C2
:10B33000F6D009229A8140F2E93202E0002A00F0B8
:10B340007F811989013A11F0010F92B2F6D09A89E2
:10B350009A8940F2E93202E0002A00F06C811989F2
:10B36000013A11F0020F92B2F6D0A4B29C8140F2E1
:10B37000E93202E0002A00F05E811989013A11F0F9
:10B38000010F92B2F6D09A89574E0BF1FF3B002580
:10B390004FF00A0A4FF00B099A8940F2E93202E0B5
:10B3A000002A00F018811989013A11F0020F92B2B7
:10B3B000F6D0A3F80CA040F2E93202E0002A00F037
:10B3C0000A811989013A11F0010F92B2F6D09A89D7
:10B3D0009A8940F2E93202E0002A00F006811989D8
:10B3E000013A11F0020F92B2F6D0AAB29A8140F25D
:10B3F000E93202E0002A00F0F8801989013A11F0E0
:10B40000010F92B2F6D09A899A891BF8014F40F247
:10B41000E93202E0002A00F0ED801989013A11F0CA
:10B42000020F92B2F6D0A3F80C9040F2E93202E09B
:10B43000002A00F0DF801989013A11F0010F92B261
:10B44000F6D09A899A8940F2E93202E0002A00F0A7
:10B45000C7801989013A11F0020F92B2F6D0A4B256
:10B460009C8140F2E93202E0002A00F0B98019899B
:10B47000013A11F0010F92B2F6D09A89326832B1D6
:10B48000116892884869024214BF4A830A830135D1
:10B49000362D81D19A8940F2E93202E0002A00F08B
:10B4A000C5801989013A11F0020F92B2F6D0082234
:10B4B0009A8140F2E93202E0002A00F0B78019894F
:10B4C000013A11F0010F92B2F6D09A899A8940F2AE
:10B4D000E93210E084880020500E0020003800403F
:10B4E000003C0040DA730020D4920020D973002081
:10B4F000002A00F096801989013A11F0020F92B2E9
:10B50000F6D0A0229A8140F2E93202E0002A00F04F
:10B5100088801989013A11F0010F92B2F6D09A8908
:10B52000A02500249A8940F2E93201E0002A66D081
:10B530001989013A11F0020F92B2F7D09D8140F2C1
:10B54000E93201E0002A5AD01989013A11F0010FBD
:10B5500092B2F7D09A899A8940F2E93201E0002A42
:10B5600052D01989013A11F0020F92B2F7D09C81A2
:10B5700040F2E93201E0002A46D01989013A11F07F
:10B58000010F92B2F7D09889C0B28206CAD4BA68C5
:10B5900012B1116892880A831A882E4922F040025B
:10B5A0001204120C1A801A8822F0380212048B42FC
:10B5B0004FEA124205D001F580618B4218BF42F07C
:10B5C00008021A801A88002142F040021A8088F886
:10B5D0000010BDE8F88F184639F0DAFC7B68F7E612
:10B5E000184639F0D5FC7B6848E7184639F0D0FC9E
:10B5F0007B6809E7184639F0CBFC7B6822E71846E0
:10B6000039F0C6FC7B68A6E7184639F0C1FC7B68B8
:10B61000C0B2BAE7520824E6184639F0B9FC7B6894
:10B620005EE6184639F0B4FC7B6879E7184639F0D5
:10B63000AFFC7B684AE7184639F0AAFC7B68A3E6B2
:10B64000184639F0A5FC7B6882E6184639F0A0FC64
:10B650007B6861E60038004030B5214D6B6883B0EF
:10B660009A8940F2E93200E06AB31C89013A14F089
:10B67000020F92B2F8D080B2988140F2E93200E035
:10B680000AB31889013A10F0010F92B2F8D09A89E2
:10B690009A8940F2E93200E0E2B11889013A10F0EB
:10B6A000020F92B2F8D089B2998140F2E93200E0FB
:10B6B00082B11989013A11F0010F92B2F8D098893C
:10B6C000C0B203B030BD1846019139F061FC6B681F
:10B6D0000199DDE7184639F05BFCC0B2F1E700BF25
:10B6E0008488002008B5838940F2E93300E0A3B1E3
:10B6F0000289013B12F0020F9BB2F8D089B281811E
:10B7000040F2E93300E043B10289013B12F0010F3E
:10B710009BB2F8D08089C0B208BD39F039FCC0B204
:10B7200008BD00BF2DE9F84FDFF8D882B14BD8F83B
:10B7300004001B880288B04922F040021204120C57
:10B740000280028822F03802120488424FEA124234
:10B7500000F0B48201F58061884200F0AF82B3F559
:10B76000807FA8BF4FF48073022BB8BF0223002B49
:10B7700093FAA3F3B3FA83F308BF4FF0FF33013B0F
:10B7800042EAC3039BB203800388D8F8082043F041
:10B790004003038012B1136892885A83838940F270
:10B7A000E93302E0002B00F0C5820289013B12F070
:10B7B000020F9BB2F6D00523838140F2E93302E009
:10B7C000002B00F0B7820289013B12F0010F9BB2FF
:10B7D000F6D08389838940F2E93302E0002B00F040
:10B7E000A4820289013B12F0020F9BB2F6D0002323
:10B7F000838140F2E93302E0002B00F09682028957
:10B80000013B12F0010F9BB2F6D08389838940F28D
:10B81000E93302E0002B00F0A1820289013B12F023
:10B82000020F9BB2F6D00623838140F2E93302E097
:10B83000002B00F093820289013B12F0010F9BB2B2
:10B84000F6D08389838940F2E93302E0002B00F0CF
:10B8500080820289013B12F0020F9BB2F6D00023D6
:10B86000838140F2E93302E0002B00F0728202890A
:10B87000013B12F0010F9BB2F6D0838983895F4BA5
:10B8800093F8FF4040F2E93344F0010402E0002B5A
:10B8900000F05A820289013B12F0020F9BB2F6D0EF
:10B8A0000423838140F2E93302E0002B00F04C8254
:10B8B0000289013B12F0010F9BB2F6D08389838984
:10B8C00040F2E93302E0002B00F039820289013BAB
:10B8D00012F0020F9BB2F6D0A4B2848140F2E93399
:10B8E00002E0002B00F02B820289013B12F0010FD5
:10B8F0009BB2F6D08389424E3388002B4BD0DFF8C1
:10B900000891DFF808A14F4607254FF0200B1AF8E1
:10B91000014F8389FF2C40F2E93303D1A4E1002BCE
:10B9200000F0D3810189013B11F0020F9BB2F6D0E8
:10B93000858140F2E93302E0002B00F0C6810189E5
:10B94000013B11F0010F9BB2F6D08389838940F24D
:10B95000E93302E0002B00F0B3810189013B11F0D3
:10B96000020F9BB2F6D0A4B2848140F2E93302E028
:10B97000002B00F0A5810189013B11F0010F9BB262
:10B98000F6D083899AF8003007F8013B3188A7EB9D
:10B9900009039942BBDC838940F2E93302E0002BC2
:10B9A00000F0F0810289013B12F0020F9BB2F6D049
:10B9B0000723838140F2E93302E0002B00F0E281AB
:10B9C0000289013B12F0010F9BB2F6D08389838973
:10B9D00040F2E93302E0002B00F0CF810289013B05
:10B9E00012F0020F9BB2F6D0FF23838140F2E933BD
:10B9F00011E000BF500E002000380040F01600207B
:10BA0000C005002084880020F0170020375E002049
:10BA1000002B00F0B2810289013B12F0010F9BB2B2
:10BA2000F6D08389AE4B93F8FF40838940F2E93327
:10BA300002E0002B00F09C810289013B12F0020F12
:10BA40009BB2F6D00423838140F2E93302E0002B5D
:10BA500000F08E810289013B12F0010F9BB2F6D0FB
:10BA60008389838940F2E93302E0002B00F07B8177
:10BA70000289013B12F0020F9BB2F6D0A4B284817E
:10BA800040F2E93302E0002B00F06D810289013BB6
:10BA900012F0010F9BB2F6D083893388002B00F09F
:10BAA000BF80DFF844920024FF27072503E001341C
:10BAB000A34240F3B58019F80420FF2AF7D1838907
:10BAC0004FEA242A40F2E93302E0002B00F02881FB
:10BAD0000289013B12F0020F9BB2F6D0052383814D
:10BAE00040F2E93302E0002B00F01A810289013BA9
:10BAF00012F0010F9BB2F6D08389838940F2E933BB
:10BB000002E0002B00F007810289013B12F0020FD6
:10BB10009BB2F6D01FFA8AFAA0F80CA040F2E933E3
:10BB200002E0002B00F0F7800289013B12F0010FC8
:10BB30009BB2F6D0838983895FFA84FA40F2E933B5
:10BB400002E0002B00F0E2800289013B12F0020FBC
:10BB50009BB2F6D00623838140F2E93302E0002B4A
:10BB600000F0D4800289013B12F0010F9BB2F6D0A5
:10BB70008389838940F2E93302E0002B00F0C18021
:10BB80000289013B12F0020F9BB2F6D01FFA8AFA2B
:10BB9000A0F80CA040F2E93302E0002B00F0B180E5
:10BBA0000289013B12F0010F9BB2F6D08389838991
:10BBB00040F2E93302E0002B00F09E800289013B55
:10BBC00012F0020F9BB2F6D0858140F2E93302E019
:10BBD000002B00F091800289013B12F0010F9BB213
:10BBE000F6D08389838940F2E93301E0002B7DD0D0
:10BBF0000289013B12F0020F9BB2F7D0878140F21D
:10BC0000E93301E0002B71D00289013B12F0010FF2
:10BC10009BB2F7D0838933880134A3423FF74BAFFF
:10BC2000D8F8083013B11A689B88138303882D4A0B
:10BC300023F040031B041B0C0380038823F038030C
:10BC40001B0490424FEA134305D002F580629042F4
:10BC500018BF43F008030380038843F040030380C8
:10BC6000BDE8F88F002B35D00189013B11F0020FA0
:10BC70009BB2F7D0858140F2E93300E053B30189EC
:10BC8000013B11F0010F9BB2F8D08389838940F208
:10BC9000E93300E0A3B10189013B11F0020F9BB22F
:10BCA000F8D0A0F80CB040F2E93300E043B10189CC
:10BCB000013B11F0010F9BB2F8D062E65B084EE544
