:020000040800F2
:10000000F0FF00100D120508A5CD0108957E02082D
:10001000AD120508AD120508AD120508000000007C
:10002000000000000000000000000000B1CD010849
:10003000ADCD010800000000A9CD01083547020838
:10004000AD120508AD120508AD120508AD12050880
:10005000AD120508AD120508218D02084D8E02086B
:10006000118E0208D58D0208998D02086D050108D0
:100070005D0501084D0501083D0501082905010838
:100080001505010801050108AD120508AD120508A6
:10009000AD120508AD120508AD1205085D8D020808
:1000A000F12902088D2F0208212902085D3002087B
:1000B000CD2E02080D2E0208412D0208AD120508B2
:1000C000AD120508AD120508AD120508AD12050800
:1000D000AD120508A5470208AD12050899470208A8
:1000E000E58C0208AD120508A51702085128020880
:1000F000C12A020881270208A12B0208ED04010889
:10010000AD120508AD120508712C0208AD120508E4
:100110008D47020881470208951C0408811C0408C9
:10012000D9040108C5040108B10401089D040108AF
:1001300089040108AD120508AD120508AD120508C5
:10014000AD120508AD120508AD1205086DE80108ED
:1001500075040108610401084D040108754702088F
:10016000AD120508AD120508AD120508AD1205085F
:10017000AD120508AD120508AD120508AD1205084F
:08018000AD120508AD120508DF
:08018800B40D050001000000A8
:1001900010020100D41F0020D01F0020000000002A
:1001A000080700081F021000E81F0020D81F0020C9
:1001B000000000003D8500082C001000944C002039
:1001C000844C002000000000EB1B01082B002400E1
:1001D000C84C0020A44C002000000000BD1B0108FA
:1001E00029207800844B0020EC4C00200000000007
:1001F0000000000028101000744D0020644D002005
:1002000000000000011101081C021000AC47002092
:10021000844D002000000000B183000820320A0055
:10022000A04D0020944D002000000000891001081E
:1002300014000300EC4A0020AC4D00200000000038
:100240000A0700080120080094420020B04D002059
:10025000000000000E0700080C109C00E841002080
:10026000B84D002000000000750404080A70280042
:1002700074410020544E002000000000A910010825
:100280000EA07401004000207C4E00200000000001
:10029000159C020801010400643F0020F04F00207B
:1002A0000000000000000000000104005C3F00208E
:1002B000F44F0020000000001607000802010300B0
:1002C000583F0020F84F002000000000A10404085F
:1002D00026100C00146B0020086B002000000000AA
:1002E000A1B801080B3018008C6200204C6B002074
:1002F000000000001C0700081F302400C85900201F
:10030000646B0020000000003407000805020400B0
:1003100048650020886B0020000000005807000896
:1003200003010A00F05900208C6B0020000000003F
:100330005C070008130204002C580020986B002072
:1003400000000000660700081A023C00B47B002091
:10035000CC80002000000000098B0008270004006A
:10036000B07B002008810020000000006A07000820
:10037000031233004489002080890020000000001F
:100380006E07000825102C0124870020B489002066
:100390000000000000000000101002000C87002088
:1003A000E08A002000000000A20700081A000E00EA
:1003B000C0860020E48A002000000000A407000896
:1003C0001900050004860020F48A002000000000C7
:1003D000B2070008F821060074840020FC8A00207F
:1003E00000000000B80700081500700064820020BB
:1003F000048B002000000000000000002A006000C4
:1004000060860020748B002000000000ED9B020835
:100410000902010050A20020C8A200200000000034
:10042000BE07000801020500AC940020CCA2002009
:100430000000000031A7030800020500A49400207A
:10044000D4A2002000000000000000001B021000E9
:1004500090940020DCA2002000000000DD83000852
:100460001E000600FC910020ECA20020000000000D
:10047000C00700081B100C00D08E0020F4A2002042
:100480000000000085BA03082102F000288D00203A
:1004900000A300200000000081B103080510060041
:1004A00004950020F0A3002000000000C60700080B
:1004B000371024002C940020F8A300200000000036
:1004C000CC0700080E020200EC9400201CA40020BF
:1004D00000000000F0070008161006008C8C0020B9
:1004E00020A4002000000000F20700082F102200C6
:1004F000A4A2002028A4002000000000F8070008A3
:1005000023100E00449100204CA4002000000000A5
:1005100019110108F5518C00948C00205CA4002076
:100520000000000009E50308F6210C0050A8002097
:10053000A0A80020000000001C08000802000C0019
:1005400044A80020ACA8002000000000000000002B
:1005500008120F0030A80020B8A8002000000000FA
:10056000F9840008F701060024A80020C8A800208C
:1005700000000000280800080A020A0098A70020CE
:10058000D0A8002000000000C107040803000100FB
:1005900018A80020DCA800200000000000000000D7
:1005A0000D003400D8D3002050D4002000000000FB
:1005B0006D5703080400800060CA002084D4002026
:1005C0000000000000000000130004004CCA0020DE
:1005D00004D500200000000030080008FD011E00C6
:1005E0002CCA002008D50020000000007D1A020857
:1005F00018202E00F8C9002028D500200000000097
:10060000998B000806101A00F8B7002058D5002072
:1006100000000000759C0208FB010100F4B70020F7
:1006200074D5002000000000058C0008FC010900C2
:10063000C0B6002078D5002000000000158C00080E
:1006400016023F0078B6002084D50020000000008C
:100650001984000834001000A8B50020C4D500207B
:1006600000000000499C02081102080080B500202B
:10067000D4D5002000000000340800081212040045
:1006800078B50020DCD50020000000003C08000800
:100690001220100068B50020E0D500200000000006
:1006A00040080008F9010400DCB10020F0D500206A
:1006B00000000000F51A0208FA010200C4AB002095
:1006C000F4D5002000000000698600080202030043
:1006D00030A90020F8D50020000000000000000034
:1006E0000C020400ECA80020FCD500200000000053
:1006F00025850008FE01140090AB002000D60020E4
:0807000000000000F183000875
:10070800000003000000E8036400040A00019001EF
:1007180000000000AE014A015E012C0164010100E5
:10072800000001000A019A01001E0A0000000000F2
:1007380000010000000500000102030000000000A5
:10074800000000000000000000000000008007001A
:1007580000000000040101006C1600000000000009
:10076800010020030000000000000000000000005D
:100778000000000000000000000000000000000071
:100788000000000000000000000000000000000061
:100798000000000000000000010000057E05EA05D9
:1007A800B4053200E803D00700000000280100006B
:1007B8000401F401140020000000010000002000E2
:1007C8000301000020003200C800D0079600140082
:1007D80032002800B00440060005500014000F0045
:1007E80008006400010001000000C40900001900AD
:1007F80000000000000000000000000000000000F1
:1008080000000000000000000000000000000000E0
:1008180000000000000000000100000002020000CB
:100828002401000000000000080040300000000023
:1008380001010101FFFFFFFF000000010000054664
:080848004F52540000080000AB
:100850001A0300000000000000000000000000007B
:100860000000000000000000000000000403090474
:100870001201000200000040830420570002010220
:1008800003010000E1C20008C5850008C185000819
:10089000BD850008298D0008B9850008B5850008C8
:1008A000D42C050845CF010825B1010885DA0108D7
:1008B000000000000000000089D70108A5D601084B
:1008C0000000000000000000000000005DAC010816
:1008D0005D86000851860008CD920008E992000864
:1008E00009860008B1920008959200080068214C22
:1008F0001F0000001C0000001F0000001E00000080
:100900001F0000001E0000001F0000001F0000006C
:100910001E0000001F0000001E0000001F0000005D
:10092000FF01FF00000004010000000000000002C1
:1009300010000000070000000000000000000000A0
:100940000102030406070809010000003D08010830
:10095000000000007037050820700020702D720024
:10096000FFFFFFFF010101D60100000000010101AE
:10097000002D202D2D202D2D2D2D202D2D2D000055
:100980000000000000000000000000000000000067
:100990000000000000000000C84905080000000039
:1009A00000000000544A050801000000FA000000A1
:1009B000010000000100000001010000CA41002008
:1009C00000C80100C941002000500100C8410020BA
:1009D000005A0100C6410020020000004439050809
:1009E000C0A10508C8A10508AA8E00200100C409FD
:1009F00000000000A88E00200100C40900000000D3
:100A0000A68E00200100C40900000000A48E002072
:100A10000100C40900000000A08E00200100C409EC
:100A200000000000A28E00200100C40900000000A8
:100A30009E8E00200100C409000000009C8E002052
:100A40000100C409000000007A3F00200100C80036
:100A500001000000783F00203200307532000000B5
:100A6000763F0020055A0500733F002000FF01007B
:100A7000753F00200100000018030020713F002096
:100A8000020000002C620508723F002000FF0100F8
:100A9000743F00200100000018030020703F002078
:100AA000020000002C620508A0420020EE02CA08E5
:100AB000010000009E42002000C801006400000008
:100AC0009D42002000C80100640000009C420020FC
:100AD00002000000503905086A3F002080C1803EB6
:100AE00005000000683F002080C1803E0500000036
:100AF000623F002080C1803E05000000603F002072
:100B000080C1803E050000005B3F002000FF010027
:100B1000543F00206400F40101000000533F002016
:100B2000040000005C390508523F0020020000006C
:100B300070390508F13F00200D0000007C390508E0
:100B4000EE3F002000640100EC3F0020320010273F
:100B50000A000000EB3F00200D0000007C39050872
:100B6000EA3F00200D0000007C390508E93F002025
:100B700002000000B4390508000000000000000079
:100B8000C0390508006500209CFF2C010000000012
:100B9000C4450020E0150C1700000000C6450020E9
:100BA00002000000F8390508AC4200200100FF7F78
:100BB00001000000AB42002002000000043A0508DA
:100BC000F33F002003000000143A0508F23F002024
:100BD00003000000143A0508A84100200000E803C3
:100BE00001000000A64100200000E8030100000011
:100BF000A44100200000E80301000000A241002001
:100C00000000E80301000000A04100200000E8030C
:100C1000010000009E4100200000E80301000000E8
:100C20009D410020001401009C41002003000000B1
:100C3000243A0508B44100200000F401010000003E
:100C4000B24100200000F40101000000B04100208A
:100C50000000F40101000000AE4100200000F4019A
:100C600001000000AC4100200000803E01000000B7
:100C7000AA4100200000803E01000000DD4100206C
:100C800019640100DC41002002000000343A05082C
:100C9000DA410020E803D0070A000000D841002014
:100CA000006401000A000000CD4100200064010042
:100CB000CC41002000640100D44100200064010008
:100CC0000A000000D3410020006401000A00000077
:100CD000D2410020006401000A000000D74100203A
:100CE000006401000A000000D641002000640100F9
:100CF0000A000000D5410020006401000A00000045
:100D0000D141002001FF01000A000000D041002075
:100D100001FF01000A000000CF41002001FF010097
:100D20000A000000FC3F00200000F4010100000068
:100D3000FA3F00200000F40101000000F83F00200D
:100D40000000F40101000000F63F00200000F40163
:100D500001000000F43F00200000F4010100000049
:100D6000C541002000640100C4410020006401006E
:100D7000C341002000640100C2410020FF080100BF
:100D8000C1410020016401001D0E0108E10D0108B0
:100D9000403A0508C041002000640100BE41002027
:100DA0001400E80301000000BC410020E803307596
:100DB0000A000000BA41002000C80100B94100202B
:100DC00000C80100B841002000C80100B741002060
:100DD000006401000A000000924200200000D007D9
:100DE000010000008D42002000C801008C4200205C
:100DF00000C801008B42002000C801009042002082
:100E00000000D007010000008A42002000C8010055
:100E10008942002000C801008842002000C801006B
:100E20008E4200200000D007010000008742002011
:100E300000C801008642002000C801008542002051
:100E400000C8010000000000510B0108B03A05087D
:100E5000E73F0020340000004C3B0508E63F00203F
:100E600000C80100E43F0020E803D00701000000B3
:100E700046465F464F5254494E49463400000000F2
:100E80006F3F0020000301006E3F002000030100BF
:100E9000B10A0108890A0108203C0508450A010831
:100EA000F9090108743C0508D90A0108DD20010888
:100EB000F43C05086C3F002001030100790F010894
:100EC0004D0F0108E83F0508890901084909010893
:100ED0004C400508670B010895410108E8400508EA
:100EE000E91C010800000000904105086124010888
:100EF000D90F01082C420508B90B010800000000B9
:100F0000AC420508910C01083D0C0108104305088E
:100F1000210D0108E50C0108AC430508590E010834
:100F2000A10E01082C440508CB4100200106010058
:100F3000010C0108CD0B0108284505085D0D0108CD
:100F40004121010898450508D10E0108C521010875
:100F500078460508B641002001030100210B010875
:100F6000F10A01084C470508A50F01080000000020
:100F7000B0470508C9090108AD2001081448050853
:100F80000000000000000000A0480508250F01082F
:100F90003D220108204905084E3F002088136F17A5
:100FA00001000000503F002088136F170000000070
:100FB0004E5A002000000000000000004C5A0020A3
:100FC00000000000000000004A5A0020000000005D
:100FD00000000000485A002000000000000000004F
:100FE000465A00200000000000000000445A002083
:100FF0000000000000000000EC0B002000000000DA
:1010000000000000243F002002000000A84A05085C
:101010004C3F002088136F1701000000406500203E
:1010200088136F1700000000DD08010800000000B1
:10103000B44A0508F645002001000000084B0508E9
:101040004265002001000000144B050838650020AF
:10105000020000001C4B050800000000000000001A
:10106000284B0508C908010800000000C44B05080A
:101070000000000000000000184C050800000000FF
:1010800000000000884C05083C650020E0150C17A6
:10109000000000000403090412010002EF020140F5
:1010A0008304563200020102030100001201000213
:1010B00002020040830440570002010203010000C5
:1010C00009022000010104C03209040000020806E0
:1010D000500507058102400000070501024000009D
:1010E00009026400030100C032090400000103008A
:1010F00000000921110100012226000705830308D1
:10110000000A080B010202020100090401000102A9
:10111000020100052400100105240100020424023C
:10112000020524060102070582030800FF090402E4
:1011300000020A00000007050102400000070581C7
:101140000240000009024300020100C0320904000D
:101150000001020201000524001001052401000124
:10116000042402020524060001070582030800FF8B
:1011700009040100020A0000000705010240000006
:101180000705810240000000FF000000184E05081E
:10119000000000000000000000000000000000004F
:1011A000000000000000000000000000000000003F
:1011B0000000000000FFFF0000000000AA5505012C
:1011C00000000100EC4D05080000000000000000D8
:1011D000000000000000000000000000000000000F
:1011E000000000000000000000000000FF1FFF1FC3
:1011F00005010905A101A1000501093009310932E4
:10120000093309350934094009381581257F7508E6
:1012100095088102C0C0000009022200010100E01F
:10122000320904000001030102000921110100013B
:101230002226000705830308000A000000000000C2
:10124000010203040102030406070809E9D90108A1
:10125000EDD8010845DD010821AD010899B201086A
:1012600031AD01084DAD0108F9AC0108E9AC010848
:1012700000000000000000002D202D2D202D2D2D20
:101280002D202D2D2D2D000000000000000000005D
:1012900000000000000000AA550B010000AA55073D
:1012A000010000AA550902000000AA5503009F0092
:1012B00001000000C0120000206B002000000000B0
:1012C000446B00200000000001000000A00F00009F
:1012D000B80B00000102FFFF01000000FFFFFFFF4D
:1012E0000000803F0000000000000000000000003F
:1012F0000000803F0000000000000000000000002F
:1013000000000000000000000000000000000000DD
:1013100000000000000000000000803F000000000E
:10132000000000000000000001000000FFFFFFFFC0
:101330000000803F000000000000000000000000EE
:10134000FF0000007DB2010869B1010821DD01083C
:1013500000000000E5AC0108D9D80108B9B00108C7
:1013600051D801080000000000000000A1AC0108F5
:1013700035AC010829AC010855CE010871CE010831
:1013800039CE01081DCE010801CE010835B2010891
:1013900045B1010861DC010800000000B9AC01089A
:1013A00055D801088DB00108B1D701080000000030
:1013B00000000000ADAC010800000100E0010000E9
:1013C000FFFFFFFF080101FFFFFF0000000000001A
:1013D00090A80020080000000000000080A8002065
:1013E000080000000000803F7CCC050888CC050880
:1013F00094CC0508A0CC0508ACCC0508B8CC0508F1
:1014000064B0050860E3050890E2050820CC0508F3
:10141000540A06086CCC050870CC050874CC050885
:1014200078CC05085CCC050860CC050864CC0508C0
:1014300000E1050868CC05081900C800F401200384
:101440005CCC050860CC0508C4CC050864CC050854
:10145000C8CC0508CCCC0508E7070408000000004C
:1014600000000000000000000800000025AC01089A
:1014700021AC01081DAC010811AC01080DAC01083C
:1014800019AC010815AC0108010000000060024021
:10149000106002400000000000000000000B00008F
:1014A000000000000000000000000000006002409A
:1014B000286002400100000000000000060C00004F
:1014C000000000000000000000000000006002407A
:1014D000406002400200000000000000100D00000B
:1014E000000000000000000000000000006002405A
:1014F000586002400300000000000000160E0000CB
:101500000000000000000000000000000060024039
:10151000706002400400000000000000200F000086
:101520000000000000000000000000000060024019
:101530008860024005000000000000002610000046
:1015400000000000000000000000000000600240F9
:10155000A060024006000000000000003011000002
:1015600000000000000000000000000000600240D9
:10157000B86002400700000000000000362F0000A5
:1015800000000000000000000000000000640240B5
:10159000106402400000000000000000003800005D
:1015A0000000000000000000000000000064024095
:1015B000286402400100000000000000063900001D
:1015C0000000000000000000000000000064024075
:1015D000406402400200000000000000103A0000D9
:1015E0000000000000000000000000000064024055
:1015F000586402400300000000000000163B000099
:101600000000000000000000000000000064024034
:10161000706402400400000000000000203C000054
:101620000000000000000000000000000064024014
:10163000886402400500000000000000264400000D
:1016400000000000000000000000000000640240F4
:10165000A0640240060000000000000030450000C9
:1016600000000000000000000000000000640240D4
:10167000B864024007000000000000003646000089
:1016800000000000000000000000000014CE05086B
:1016900010C4050800000000B5040408A08601007D
:1016A0000400000000000000000000000000000036
:1016B000000000000000000000000000000000002A
:1016C00000000000000000000000000014CE05082B
:1016D0001CCE05080000000019190208E8030000EC
:1016E00004000000000000000000000000000000F6
:1016F00000000000000000000000000000000000EA
:1017000000000000000000000000000018A805080C
:1017100024CE050800000000FD2804087D0000001C
:1017200006000000000000000000000000000000B3
:1017300000000000000000000000000000000000A9
:101740000000000000000000000000002CCE050892
:101750000000000000000000C13C0208E803000097
:101760000300000000000000000000000000000076
:101770000000000000000000000000000000000069
:1017800000000000000000000000000030CE05084E
:101790000000000000000000F51003081027000002
:1017A0000300000000000000000000000000000036
:1017B0000000000000000000000000000000000029
:1017C000000000000000000000000000680606089D
:1017D00000000000A5190108F97E02085F760000EC
:1017E00005000000000000000000000000000000F4
:1017F00000000000000000000000000000000000E9
:10180000000000000000000000000000F4080608CE
:1018100000000000000000002594020810270000CE
:1018200001000000000000000000000000000000B7
:1018300000000000000000000000000000000000A8
:101840000000000000000000000000003CCE050881
:1018500000000000000000001D190208E80300005D
:101860000500000000000000000000000000000073
:101870000000000000000000000000000000000068
:1018800000000000000000000000000048CE050835
:10189000000000000000000095210408204E000018
:1018A0000300000000000000000000000000000035
:1018B0000000000000000000000000000000000028
:1018C00000000000000000000000000058CE0508E5
:1018D0000000000000000000811F0408204E0000EE
:1018E00003000000000000000000000000000000F5
:1018F00000000000000000000000000000000000E8
:1019000000000000000000000000000068CE050894
:101910000000000000000000C11E0208400D03008E
:1019200003000000000000000000000000000000B4
:1019300000000000000000000000000000000000A7
:10194000000000000000000000000000F8CA0508C8
:1019500000000000000000000971030810270000CB
:101960000100000000000000000000000000000076
:101970000000000000000000000000000000000067
:1019800000000000000000000000000038C405084E
:101990000000000000000000EDC503081027000053
:1019A0000300000000000000000000000000000034
:1019B0000000000000000000000000000000000027
:1019C00000000000000000000000000008A405085E
:1019D0000000000000000000F1170208A8610000EC
:1019E00001000000000000000000000000000000F6
:1019F00000000000000000000000000000000000E7
:101A000000000000000000000000000018CB0508E6
:101A1000000000000000000065480208A00F000060
:101A200001000000000000000000000000000000B5
:101A300000000000000000000000000000000000A6
:101A400000000000000000000000000078CE050843
:101A5000000000000000000001E60308102700005D
:101A60000100000000000000000000000000000075
:101A70000000000000000000000000000000000066
:101A800000000000000000000000000064AF050836
:101A90000000000000000000B1D903081A41000056
:101AA0000100000000000000000000000000000035
:101AB0000000000000000000000000000000000026
:101AC000000000000000000000000000C8A305089E
:101AD000000000000000000051B5010810270000C0
:101AE00001000000000000000000000000000000F5
:101AF00000000000000000000000000000000000E6
:101B000000000000000000000000000024C40508E0
:101B10000000000000000000154801081A41000004
:101B200001000000000000000000000000000000B4
:101B300000000000000000000000000000000000A5
:101B400000000000000000000000000084CE050836
:101B5000000000000000000059BB0108400D030018
:101B60000000000000000000000000000000000075
:101B70000000000000000000000000000000000065
:101B80000000000000000000000000008CCE0508EE
:101B900000000000000000002B570308400D030068
:101BA0000000000000000000000000000000000035
:101BB0000000000000000000000000000000000025
:101BC00000000000000000000000000094CE0508A6
:101BD0000000000000000000C5F0030850C3000032
:101BE00003000000000000000000000000000000F2
:101BF00000000000000000000000000000000000E5
:101C0000000000000000000000000000A0CE050859
:101C10000000000000000000F51E040840420F0014
:101C200000000000000000000000000000000000B4
:101C300000000000000000000000000000000000A4
:101C4000000000000000000000000000ACCE05080D
:101C50000000000000000000096C030850C30000F1
:101C60000000000000000000000000000000000074
:101C70000000000000000000000000000000000064
:101C80000000000000000000000000000000803F95
:101C90005C06060800000802050303006406060847
:101CA0000100080205040300ECCD05080200FE0156
:101CB000011003001CA50508030014020003000026
:101CC0006C06060804001F020100080074060608DE
:101CD00005001F0201010800FFFF0000FFFFFFFFDA
:1080000003685A1C02601970704700BF2DE9F047E1
:10801000089C2578002B804689460CBF4FF0200A2B
:108020004FF0300A661C25B3002A26DD334601E0F6
:10803000024698B113F8011B501E0029F8D1971E73
:1080400060B13D46013D51464046C8476B1C002B80
:10805000F8DC257827EAE770013045B1041B294692
:108060004046C847301916F8015B002DF7D1BDE82E
:10807000F087002A03DC2846F9E70020EEE7571EC8
:10808000DFE700BF2DE9F04714461D4606464FF4D2
:108090007A7200232046294648F0ECFE4D4BDFF86B
:1080A00048814D4A4D4F034488FB03101844D917AB
:1080B00082FB032CC1EB601088FB002887FB0327A1
:1080C0009C44474AC1EBEC2CC0EB001E82FB0C2900
:1080D000A3EB8E0E1F44434A86F806E0C1EB274708
:1080E0004FEAEC7E08EB000ACEEBA90E82FB07827A
:1080F0004FEAE0780EEB4E0EC8EB6A18ACEBCE0CF4
:10810000C8EB0818DFF8E4E086F804C0A0EB8800AC
:1081100070718EFB0303F817C0EBE21240F2B5500A
:1081200000FB1272C1EBE353B2F5896F4FEA83078C
:108130003CDA40F2DA239A4242DCB2F5B77FB4BFB0
:108140004FF0000E4FF0010E4FEA4E09DFF8A0800D
:1081500009EB0E0308EBC3031FFA8EFCD88A09EB68
:108160000E0108EBC10116310B2301E031F8020DBD
:10817000904218DD013BF9D1CE44012338F83E008E
:10818000B37007F5FA670132121ABC44F270A6F810
:1081900000C0204629464FF47A72002348F06AFE58
:1081A0003281BDE8F0870133DBB2E9E74FF0030C21
:1081B000E64640F29650DFF838804FF00609CEE7E9
:1081C0004FF0020CDFF82880E64640F229404FF0DD
:1081D0000409C4E780BC92C7C5B3A29107452EC26B
:1081E000ABAAAA2A73B06D1689888888792D0311E5
:1081F000A02A05080028F0B403DA2D230B704042B2
:108200000131092804464FF0010307DD03EB830326
:108210005B00B0FBF3F2092AF8D883B10F48A0FB4A
:108220000326B4FBF3F2092A02F1570C02F13007DE
:1082300009DD03FB1244F30801F801CBEFD1002361
:108240000B70F0BC704703FB1244F30801F8017B8C
:10825000E5D100230B70F0BC704700BFCDCCCCCC77
:10826000884270B44FF0010442D301FB04F4B0FB28
:10827000F4F58D42F9D2ECB142BB092D04FB150097
:1082800005F1570605F130020EDDB4FBF1F403F8F9
:10829000016B7CB1B0FBF4F5092D04FB150005F171
:1082A000570605F13002F0DCB4FBF1F403F8012BC2
:1082B000002CEFD100221A7070BC704703F8016BDC
:1082C000B4FBF1F4002CF5D0B0FBF4F5092D04FB60
:1082D000150005F1370605F13002EFDCB4FBF1F4CF
:1082E00003F8012B002CEFD100221A7070BC7047EC
:1082F0000546002AEAD1C0E790ED057A90ED004AE4
:10830000D0ED066AD0ED014AD0ED047A90ED035A23
:10831000D0ED025AA4EE007AB0EE406AB0EE470A01
:10832000B0EE667AA4EE867A67EEC07AA5EE407A61
:10833000E5EE867A80ED057AC0ED067A704700BFDB
:10834000D0ED057A90ED013AD0ED003AD0ED064A35
:1083500090ED024A90ED077A90ED035A90ED086A8D
:10836000D0ED045AC0ED067AF0EE406A27EE830A9B
:10837000C0ED056AA3EEA60A80ED087AA4EE240AF1
:10838000A5EE470AA5EEC60A80ED070A704700BFB2
:10839000D0ED007A90ED017A30EE670AE7EE007AD0
:1083A000B0EE670AC0ED007A704700BF704700BFAB
:1083B00030B418220023342503240221C270012284
:1083C0008571C4710370C3728373C373417041724A
:1083D00082700272827230BC704700BF0023062197
:1083E0004FF47A720170C0E901230373704700BF34
:1083F00030B43223012231254FF60174FF2143703E
:1084000000234571048281740272027002714381FB
:108410008381C38130BC70472DE9F04F3149324B25
:1084200083B001F1C00B019020274FF000092F48C5
:108430001022012603E0203098420BD002799742A7
:10844000F9D102680C68A24209D02030984206F1A6
:108450000106F3D1203159453AD00F79E7E7447945
:108460004D79A542F1D19446019A214809EB49057D
:1084700002EB050A57558AF8016000F572751D4E2A
:10848000624603E0A8421AD050F82C6FB242F9D1EC
:108490000679A642F6D1CF6806464FF0000C964604
:1084A0008046F268BA4216D00CF1010CBCF1030F01
:1084B00006F10C06F5D14046A8427246E4D14FF0D1
:1084C000FF3C203159458AF802C009F10109C4D1A5
:1084D00003B0BDE8F08F086932698242E4D14FFAF7
:1084E0008CFCEEE774580508B8740508F86A0508AE
:1084F000B87405080000014030B415221623172572
:108500003A243B21027043703C22FF238570847221
:10851000C1720273C3700371037243724373837336
:1085200030BC704710B423210124032200230470BF
:1085300041708270C3705DF8044B704770B403469D
:1085400000F11001FF221A705A7002338B42FAD1E7
:108550000E4B00224FF0FF3103F10C0600EB4205F9
:108560000C469E4200F8124069700CD093F904400A
:1085700093F9051013F8032F00EB42059E4200F813
:1085800012406970F2D170BC704700BF002B050823
:1085900030B41D6995420AD314460A4621448D42DF
:1085A000996938BF2A1B214430BC48F001BF30BC58
:1085B000704700BF002070470120704701207047BE
:1085C000002070474FF40070024B10609B680B60F6
:1085D00000207047E0B10020013A30B4D2B28C1CC8
:1085E00004EB42040025020F092AD3B203F1300242
:1085F0008ABF37330A700B704D7002318C424FEADC
:108600000010F0D130BC70470B4A0C4B10681B684F
:108610001A22C0180A8001D10948704710B5094BC9
:1086200009491C680822FFF7D7FF204604220749A2
:10863000FFF7D2FF024810BDE8F7FF1FECF7FF1F5E
:1086400088010020EAF7FF1F8A0100209A0100201C
:1086500004230B8000487047A401002012230B80E4
:1086600000487047A80100202322032302704370B2
:10867000704700BF08307047704700BF8161704786
:10868000012380F8503070474FF400630383704734
:108690004FF40063038370474FF400630383704714
:1086A0004FF4006303837047F0B4037C45690268AC
:1086B0001F2B37D9203B2021546899400C4223D0EE
:1086C00010249C40D160D4605168D940CE074ED46C
:1086D000EFF31183502282F31288EA6B1168C90705
:1086E00009D45468002C52D1D5E909618E4243D196
:1086F000012285F86020DBB283F31188037C0268D5
:108700001F2B194614D9203B082150689940084274
:1087100000D0D1600421506801FA03F3184223D13C
:10872000F0BC7047202416689C4026420FD11946A1
:10873000082310688B40184200D09360042310680F
:1087400003FA01F10842EBD09160F0BC70471021B0
:108750009940946091601168D940CC07B8D5012147
:1087600001FA03F39360B3E7D360F0BC70470121D3
:1087700001FA03F3D360ABE7AF690F44D7600ED8BB
:108780002E69711A5160AC62002185F86010116881
:1087900041F00101DBB2116083F31188AEE7711A79
:1087A0005160AE62F0E700BF2DE9F041B14DB24C2F
:1087B0002A7823789A4240F01B81B04B1A78002A1D
:1087C0007CD0AF4B1E78AF4B002E79D11968B3F82F
:1087D00030714E628889012A40EA07008881A3F837
:1087E000306157D0D3F83411B3F864724E6288897F
:1087F000022A40EA07008881A3F864624AD0D3F8CD
:108800006812B3F898734E628889032A40EA070019
:108810008881A3F898633DD0D3F89C13B3F8CC7447
:108820004E628889042A40EA07008881A3F8CC6454
:1088300030D0D3F8D014B3F800764E628889052A78
:1088400040EA07008881A3F8006623D0D3F8041615
:10885000B3F834774E628889062A40EA0700888197
:10886000A3F8346716D0D3F83817B3F868784E6297
:108870008889072A40EA07008881A3F8686809D038
:10888000D3F86C28B3F89C09566291890143918111
:10889000A3F89C692A7823789A420FD07A481F4619
:1088A0009B003B449B00C218C3583BB9137A2BB9B9
:1088B000537A1BB97B1C03F003032370BDE8F081DE
:1088C0005E68198971603768186847F0010740F2DF
:1088D0000D313760A0F848108689012A46F4807669
:1088E0008681D7D0D3F83861B3F83C71D3F834011E
:1088F0007760376847F001073760A0F8481086892D
:10890000022A46F480768681C4D0D3F86C62B3F82C
:108910007072D3F868027760376847F001073760F4
:10892000A0F848108689032A46F480768681B1D063
:10893000D3F8A063B3F8A473D3F89C0377603768C7
:1089400047F001073760A0F848108689042A46F4EA
:10895000807686819ED0D3F8D464B3F8D874D3F8E7
:10896000D0047760376847F001073760A0F84810F7
:108970008689052A46F4807686818BD0D3F80866EE
:10898000B3F80C76D3F804067760376847F0010730
:108990003760A0F848108689062A46F480768681DA
:1089A0003FF478AFD3F83C67B3F84077D3F8380793
:1089B0007760376847F001073760A0F8481086896C
:1089C000072A46F4807686813FF464AFD3F8702896
:1089D000B3F87408D3F86C385060106840F00100A8
:1089E0001060A3F848109A8942F480729A8151E786
:1089F00080461BF027FD27782B78BB4286461DD08A
:108A0000BB002148DA1900EB8202167AC6B1B8F130
:108A1000000F3DD01D490022B1F808C00132BCF161
:108A2000000F18BF0026424501F58471F4D17EBBCA
:108A3000124A1278002A3FF434AFC2E61248BB0053
:108A40003B449B00C118C258AEEB0202002AFFF65D
:108A500035AF4A7A3AB1013AD2B24A7212B30EF540
:108A60007A72C25000E0C250044B1A78002A7FF498
:108A7000A8AE0FE748D3002049D3002030320010C1
:108A80002C32001054C000204CD3002014B8002019
:108A9000DA1992000EF51C5186181031815000220F
:108AA0003272C5E74A687244C250DDE710B5027CF5
:108AB00001681F2A4FF020030ED94C68203A9340DA
:108AC0001C4208D00B4A406800241470026822F04F
:108AD00001020260CB6010BD0C6893401C42FAD0CA
:108AE000044A406800241470026822F00102026007
:108AF0008B60F0E71B95002020F0FEBB014B18684F
:108B00001BF0ACBE7880002038B51D4B1B780446A6
:108B100000F1250593B104221A49203049F0AAFF3B
:108B200028461422184949F0A5FF012384F83A3059
:108B3000164B1B7873B984F83B3038BD2846142295
:108B4000134949F097FF012384F83A300F4B1B7803
:108B5000002BF0D00F4B186859689A68DD68E56003
:108B600020606160A260DD69186959699A69A26133
:108B70000123E5612061616184F83B3038BD00BFAD
:108B8000858C0020548C00203C8C0020868C00209A
:108B9000B09F05085C8C002038B52E22002149F0DA
:108BA0002BFF034640F2DC51642040F21A4240F2AF
:108BB000022418745982132019219A8240F27532C6
:108BC00040F26C751C8398760E240A201977DA839C
:108BD00002210122DD8283F82D0040F6430519723F
:108BE00083F82C1083F822409A7383F8252083F8A9
:108BF0002B201D8419460248BDE8384010F012BFF2
:108C0000C09F050810B50021044601201AF066FC3B
:108C1000207010BD38B500240472451EE1B2022058
:108C20001AF05CFC0134082C05F8010FF6D138BDB0
:108C30002DE9F84FDDE90A64894617460021202214
:108C40009846054649F0D8FE5EB1D6E900327189F2
:108C5000EB81C3F30F432B82C2F30F43EA822B83D2
:108C60006982484647F010FC17F0100B10D1431EE4
:108C700070B119F803202E2A18BF09EB030104D1A3
:108C80004AE011F8016D2E2E3ED013F1FF33F8D2D9
:108C900008280246CA46A8BF08224FF0000B4FF032
:108CA00020336B602B60C5F807304946284605F134
:108CB000080648F07DFB5A465146304648F078FB9E
:108CC0006B1EE81D13F8012FA2F1610119299CBF49
:108CD000203A1A708342F5D105F10B0116F8013BD9
:108CE000A3F16102192A9CBF203B06F8013CB14266
:108CF000F4D11823C8F30F42EF722B73A5F81A8032
:108D0000AA82EC61BDE8F88FC01A00F1FF3BBBF10D
:108D1000030FA8BF4FF0030B082B03F1010AA8BFF4
:108D20000823CA441A46BAE72DE9F04F002087B05D
:108D30000C461D46012192461FF092F8002D63D08B
:108D400005EB0A03DFF8D094DFF8D0B4039355465F
:108D50001CE0002D00F0C581D9F81430AB4264D07E
:108D6000D9F81030AB4200F09780D9E90631AB4218
:108D700052D8A94200F26F81691A20463FF0DAFC0E
:108D8000039B01359D4204F500743DD0D9F8206065
:108D9000AE42DED8D9F83080AE1B4FEAD60AD8F8FA
:108DA00030300AF1020A9A4506F0070603D3D8F8D4
:108DB00038309A4509D9414650463FF089FC8046F3
:108DC000002800F04D81C9F8300098F80430002BDD
:108DD00040F0E280D8F82870002F00F0DF81D8F84A
:108DE0003030D8F80C20AAEB030A06EBCA0A434637
:108DF000204602EB4A224FF40071B847039B01352D
:108E00009D4204F50074C1D1002108461FF028F8E6
:108E1000002007B0BDE8F08FA942ADD94FF4007231
:108E20000021204649F0E8FDAAE7522261204123B3
:108E3000002622706270A070722284F8E70184F824
:108E4000E631D9F82800E3704FF0FF33314684F85B
:108E5000E42184F8E521C4F8E8014FF4F07284F8C5
:108E6000EC3184F8ED3184F8EE3184F8EF31201DD7
:108E700049F0C2FD55216FF05502C4F8F061C4F805
:108E8000F461C4F8F86184F8FC6184F8FD6184F849
:108E9000FE1184F8FF2173E74FF400720021204691
:108EA00049F0AAFDD44BD54F03CBEB23022223700C
:108EB0004FF0080C9026F8234FF0580EC4F803002A
:108EC000227484F80DC0C4F8071084F801E0A6707D
:108ED0006375D9F81010D9F80830D9F81C602273DE
:108EE000591A21624FF0FF3100233F20A1763E2125
:108EF000A273E372E3736374A374E3742375A375BD
:108F0000E3756376E3766377A377E377207621775B
:108F100084F82C2007CFD9F8187084F82830F61B75
:108F200084F8293084F82A3084F82B3084F82D30E6
:108F300084F82E3084F82F3084F8313084F83230C1
:108F400084F8333080236662C4F8470004F1470692
:108F500084F8403029209423A94F84F846C084F82F
:108F6000420084F843300E200D234FF0010C84F8AA
:108F7000440084F8453084F830C0716003CF334634
:108F80005527AA269A60C4F85200C4F8561084F8EF
:108F9000FE7184F8FF61F3E64FF400720021204671
:108FA00049F02AFDD8F84030002E61D104F12007A5
:108FB000002B77D0D8F8303092491122CDE90066E5
:108FC0002046FFF735FED8F840301A6C04F1400A0D
:108FD000002A79D01B6B8C49CDE9006638461122F6
:108FE000FFF726FED8F84460002E3FF4C9AE4FF4D8
:108FF000E078CDE904450CE00024CDE900C4FFF79A
:1090000017FEB66CBA46A8F120080EB3B8F11F0FD0
:109010001ED93468356B96F804E011222B462146A0
:1090200050460AF1200706F11C0CBEF1000FE3D1F7
:1090300072793369019342F021022B46CDF800C0CA
:10904000FFF7F6FDB66CBA46A8F12008002EDDD178
:10905000DDE9044594E6E91A20463FF06BFB8FE614
:10906000231F04F5FE7243F804BF9A42FBD187E642
:10907000002BD8F844200CBF01230223C3EB0613B6
:10908000002A3FF47DAE966C013B002E3FF478AE93
:10909000013BB66CF9D1002E3FF472AEA2464FF4FC
:1090A0000078A6E7CDE900663346D9F80C1008220F
:1090B0002046FFF7BDFDD8F84460002E3FF460AEB7
:1090C000BA464FF4F07894E7CDE900663346384667
:1090D00011224D49FFF7ACFDD8F84460002E86D12F
:1090E0004EE64FF400722946204649F085FC802266
:1090F0000C2384F8BE2184F8C231D9F81000434B08
:10910000D9F8086084F8B85183FB0032C117C1EB6D
:109110002232B2F5806F84F8B95184F8BA5184F8DC
:10912000BB5184F8BC5184F8BD51C4F8C601C4F8E1
:10913000CA6142DBFF2384F8BF3184F8C13184F86F
:10914000C031324B711E83FB0132CE17C6EB223287
:10915000B2F5806F29DA2E4B84F8C52183FB010319
:109160000B442C48C6EB6313C3EB831680FB0370E0
:10917000891B1844DE17921022F03F020131C6EB22
:10918000E0100A43034484F8C42184F8C331552213
:10919000AA2384F8FE2184F8FF31F1E539464FF423
:1091A0000072204649F028FCEAE5FF2384F8C33129
:1091B00084F8C53184F8C431E9E7154B84F8C1213E
:1091C00083FB00730344134FC1EB631387FB031747
:1091D000C3EB831C9110A0EB0C02F818DF1721F0F1
:1091E0003F010132C7EBE0100A43034484F8C02179
:1091F00084F8BF31A5E700BFD49F0508E09F0508AC
:10920000F09F0508CC9F0508D09F0508975545415C
:109210008320088281808080E0B10020DEADBEEF37
:1092200008B5012015F0DAF8174A936803F00C032B
:10923000042B1ED0082B18D151685368490203F043
:109240003F0319D452681148B0FBF3F0C2F38813FE
:1092500000FB03F00C4B0E4A5B68C3F30143013380
:109260005B00B0FBF3F0106008BD094B074A1A60C1
:1092700008BD074B186008BDB0FBF3F05368C3F39B
:10928000881300FB03F0E5E7003802400024F400F7
:10929000B8B6002010B5044C04480A46214613F025
:1092A00089FD204610BD00BF18160020FC9F050850
:1092B00010B5044C04480A46214613F07BFD2046B5
:1092C00010BD00BF181600200CA0050810B5044CF6
:1092D00004480A46214613F06DFD204610BD00BF2C
:1092E0001816002018A005080A4608B5054920B13F
:1092F000054813F05FFD034808BD044813F05AFD0C
:10930000004808BD1816002044A005082CA0050838
:1093100038B5054640683B4A038823F040031B04E8
:109320001B0C0380038823F038031B0490424FEA90
:10933000134305D002F58062904201D043F0080348
:1093400003800388AA6843F04003038012B11368C6
:1093500092885A83838940F2E93301E0002B43D09D
:109360000289013B12F0020F9BB2F7D0F5238381F3
:1093700040F2E93301E0002B36D00289013B12F0C4
:10938000010F9BB2F7D08389838940F2E93300E073
:109390000BB30289013B12F0020F9BB2F8D0FF23FE
:1093A000838140F2E93300E0ABB10289013B12F066
:1093B000010F9BB2F8D08489E4B2AB6813B11A688C
:1093C0009B881383712C19D008D9AC2C14D0AF2CE6
:1093D0000ED1092038BD1FF0DFFEEEE7122C0FD0B2
:1093E000702C07D1052038BD1FF0D6FE6868CBE78A
:1093F000732C03D0002038BD072038BD062038BDAF
:10940000082038BD00380040F0B5876983B00646B3
:1094100017B13B68BA885A837069DFF8A8E083897E
:10942000C3244FF47A734FF0060C6D464FF6FF716C
:109430000EF1010E03E0013B9BB28B4220D002896A
:109440009207F8D5A3B283814FF47A7302E0A3B2F6
:109450008B4215D00289D20703F1FF34F7D58289F8
:1094600092B20DB12A700135BCF1000F0BD00CF196
:10947000FF3CFF24BEF1000FE1D09EF80040D7E78B
:109480001FF08AFEB76917B13B68BA881A839DF846
:1094900005009DF801509DF802109DF803409DF8CD
:1094A00004209DF8063041EA052143EA002342EA00
:1094B00004220120A6F85010A6F85220A6F8543035
:1094C00003B0F0BD102B05082DE9F04F87B00290D6
:1094D00090F86100002840F05586029B93F85830C0
:1094E000072B00F046861823CDE90433029A137C3B
:1094F0001032022B039204D110466B2180221FF000
:1095000067FE6423C14CC24EDFF810E3C148DFF8A8
:109510001083C14F01934FF01009DEF80430C3F3FC
:109520000803002B40F0D484EFF31183002B40F0AC
:10953000CF842568826823689D42FAD13B689A42AD
:10954000F7D8D6F800C04FF47A7101FB0CF39B1AE0
:10955000B3FBFCF301FB05354FF47A7C4FF0010AB5
:10956000DEF80430C3F30803002B40F08C84EFF3E3
:109570001183002B40F0878423688168226893421E
:10958000FAD13A689142F7D832680CFB02FBABEB98
:109590000101B1FBF2F10CFB03135B1BB3F57A7F06
:1095A000DED3019B013B0193B7D1029B1B7C022BB5
:1095B00004D10722682103981FF00AFE6423DFF814
:1095C0005CE29448DFF85882934F01934FF0100902
:1095D000DEF80430C3F30803002B40F0BD84EFF342
:1095E0001183002B40F0B8842568826823689D426F
:1095F000FAD13B689A42F7D8D6F800C04FF47A7196
:1096000001FB0CF39B1AB3FBFCF301FB05354FF494
:109610007A7C4FF0010ADEF80430C3F30803002B14
:1096200040F01284EFF31183002B40F00D84236887
:10963000816822689342FAD13A689142F7D8326839
:109640000CFB02FBABEB0101B1FBF2F10CFB0313D2
:109650005B1BB3F57A7FDED3019B013B0193B7D14E
:10966000029B1B7C022B04D1019A03986B211FF0F3
:10967000AFFD6423DFF8A4E16648DFF8A481664FFC
:1096800001934FF01009DEF80430C3F30803002BF8
:1096900040F04084EFF31183002B40F03B842568B9
:1096A000826823689D42FAD13B689A42F7D8D6F87F
:1096B00000C04FF47A7101FB0CF39B1AB3FBFCF36F
:1096C00001FB05354FF47A7C4FF0010ADEF80430D7
:1096D000C3F30803002B40F09983EFF31183002BB1
:1096E00040F094832368816822689342FAD13A68F3
:1096F0009142F7D832680CFB02FBABEB0101B1FBE6
:10970000F2F10CFB03135B1BB3F57A7FDED3019BF5
:10971000013B0193B7D1029B1B7C022B04D1012298
:109720006B2103981FF054FD0F23DFF8F0E0394858
:10973000DFF8EC80384F01934FF01009DEF8043069
:10974000C3F30803002B40F0F084EFF31183002BE8
:1097500040F0EB842568826823689D42FAD13B681B
:109760009A42F7D8D6F800C04FF47A7101FB0CF397
:109770009B1AB3FBFCF301FB05354FF47A7C4FF0E9
:10978000010ADEF80430C3F30803002B40F0208305
:10979000EFF31183002B40F01B832368816822685C
:1097A0009342FAD13A689142F7D832680CFB02FB37
:1097B000ABEB0101B1FBF2F10CFB03135B1BB3F547
:1097C0007A7FDED3019B013B0193B7D1029B1B7CC7
:1097D000022B04D1059A03981B211FF0F9FC0F23DB
:1097E000DFF838E00B48DFF838800B4F01934FF07B
:1097F0001009DEF80430C3F30803002B40F0738433
:10980000EFF31183002B40F06E840BE03CAB0020A3
:1098100040AB002010E000E044AB002000ED00E091
:1098200038AB00202568826823689D42FAD13B68E6
:109830009A42F7D8D6F800C04FF47A7101FB0CF3C6
:109840009B1AB3FBFCF301FB05354FF47A7C4FF018
:10985000010ADEF80430C3F30803002B40F09A82BB
:10986000EFF31183002B40F0958223688168226812
:109870009342FAD13A689142F7D832680CFB02FB66
:10988000ABEB0101B1FBF2F10CFB03135B1BB3F576
:109890007A7FDED3019B013B0193AAD1029B1B7C03
:1098A000022B04D1049A03981C211FF091FC0F2372
:1098B000DFF810E3C148DFF81083C14F01934FF088
:1098C0001009DEF80430C3F30803002B40F0EA83EC
:1098D000EFF31183002B40F0E5832568826823684D
:1098E0009D42FAD13B689A42F7D8D6F800C04FF4AF
:1098F0007A7101FB0CF39B1AB3FBFCF301FB0535FA
:109900004FF47A7C4FF0010ADEF80430C3F3080309
:10991000002B40F02182EFF31183002B40F01C82DA
:109920002368816822689342FAD13A689142F7D855
:1099300032680CFB02FBABEB0101B1FBF2F10CFB5B
:1099400003135B1BB3F57A7FDED3019B013B0193CD
:10995000B7D1029A92F85B30032B00F2088492F898
:109960005E20012A0BD0022A40F00184029B93F86A
:10997000633003F0FB03022B0CBF00220722029B83
:109980001B7C022B03D11A2103981FF021FC0F230B
:10999000DFF830E28948DFF83082894F01934FF0D9
:1099A0001009DEF80430C3F30803002B40F03883BD
:1099B000EFF31183002B40F033832568826823681E
:1099C0009D42FAD13B689A42F7D8D6F800C04FF4CE
:1099D0007A7101FB0CF39B1AB3FBFCF301FB053519
:1099E0004FF47A7C4FF0010ADEF80430C3F3080329
:1099F000002B40F09381EFF31183002B40F08E8118
:109A00002368816822689342FAD13A689142F7D874
:109A100032680CFB02FBABEB0101B1FBF2F10CFB7A
:109A200003135B1BB3F57A7FDED3019B013B0193EC
:109A3000B7D1029B1B7C022B06D1029B039893F8A3
:109A4000602019211FF0C4FB6423DFF878E15B4834
:109A5000DFF874815A4F01934FF01009DEF804309B
:109A6000C3F30803002B40F0FC82EFF31183002BBB
:109A700040F0F7822568826823689D42FAD13B68EE
:109A80009A42F7D8D6F800C04FF47A7101FB0CF374
:109A90009B1AB3FBFCF301FB05354FF47A7C4FF0C6
:109AA000010ADEF80430C3F30803002B40F01881EC
:109AB000EFF31183002B40F0138123688168226843
:109AC0009342FAD13A689142F7D832680CFB02FB14
:109AD000ABEB0101B1FBF2F10CFB03135B1BB3F524
:109AE0007A7FDED3019B013B0193B7D1029B1B7CA4
:109AF000022B04D11022372103981FF069FB0F239A
:109B0000DFF8C0E02D48DFF8C0802D4F01934FF003
:109B10001009DEF80430C3F30803002B40F05F8225
:109B2000EFF31183002B40F05A8225688268236886
:109B30009D42FAD13B689A42F7D8D6F800C04FF45C
:109B40007A7101FB0CF39B1AB3FBFCF301FB0535A7
:109B50004FF47A7C4FF0010ADEF80430C3F30803B7
:109B6000002B40F09F80EFF31183002B40F09A8090
:109B70002368816822689342FAD13A689142F7D803
:109B800032680CFB02FBABEB0101B1FBF2F10CFB09
:109B900003135B1BB3F57A7FDED3019B013B01937B
:109BA000B7D1029B1B7C022B04D1039801223821E0
:109BB0001FF00EFB0F23DFF80CE007E010E000E0E1
:109BC00044AB002000ED00E038AB0020BD48DFF8DA
:109BD000FC82BD4F01934FF01009DEF80430C3F34F
:109BE0000803002B40F0DA81EFF31183002B40F0E3
:109BF000D5812568826823689D42FAD13B689A42E4
:109C0000F7D8D6F800C04FF47A7101FB0CF39B1A19
:109C1000B3FBFCF301FB05354FF47A7C4FF0010AEE
:109C2000DEF80430C3F30803F3B9EFF31183DBB9B3
:109C30002368816822689342FAD13A689142F7D842
:109C400032680CFB02FBABEB0101B1FBF2F10CFB48
:109C500003135B1BB3F57A7FE2D3019B013B0193B6
:109C6000BBD107B0BDE8F08FEFF3118189F3128803
:109C7000D0F808B00368DB0344BFC8F800A0D0F8F0
:109C800008B02368D8F80020C9B281F31188316880
:109C900013440CFB01F2A2EB0B02B2FBF1F20CFB42
:109CA0000323D6E7EFF3118189F31288D0F808B0C7
:109CB0000368DB0344BFC8F800A0D0F808B02368ED
:109CC000D8F80020C9B281F31188316813440CFB25
:109CD00001F2A2EB0B02B2FBF1F20CFB032358E7FB
:109CE000EFF3118189F31288D0F808B00368DB0321
:109CF00044BFC8F800A0D0F808B02368D8F8002006
:109D0000C9B281F31188316813440CFB01F2A2EB54
:109D10000B02B2FBF1F20CFB0323DFE6EFF3118140
:109D200089F31288D0F808B00368DB0344BFC8F891
:109D300000A0D0F808B02368D8F80020C9B281F399
:109D40001188316813440CFB01F2A2EB0B02B2FB49
:109D5000F1F20CFB032364E6EFF3118189F312881F
:109D6000D0F808B00368DB0344BFC8F800A0D0F8FF
:109D700008B02368D8F80020C9B281F3118831688F
:109D800013440CFB01F2A2EB0B02B2FBF1F20CFB51
:109D90000323D6E5EFF3118189F31288D0F808B0D8
:109DA0000368DB0344BFC8F800A0D0F808B02368FC
:109DB000D8F80020C9B281F31188316813440CFB34
:109DC00001F2A2EB0B02B2FBF1F20CFB03235DE507
:109DD000EFF3118189F31288D0F808B00368DB0330
:109DE00044BFC8F800A0D0F808B02368D8F8002015
:109DF000C9B281F31188316813440CFB01F2A2EB64
:109E00000B02B2FBF1F20CFB0323D7E4EFF3118159
:109E100089F31288D0F808B00368DB0344BFC8F8A0
:109E200000A0D0F808B02368D8F80020C9B281F3A8
:109E30001188316813440CFB01F2A2EB0B02B2FB58
:109E4000F1F20CFB03235EE4EFF3118189F3128836
:109E5000D0F808B00368DB0344BFC8F800A0D0F80E
:109E600008B02368D8F80020C9B281F3118831689E
:109E700013440CFB01F2A2EB0B02B2FBF1F20CFB60
:109E80000323FFF7E5BBEFF3118189F31288D0F8C4
:109E900008B00368DB0344BFC8F800A0D0F808B0DE
:109EA0002368D8F80020C9B281F3118831681344BF
:109EB0000CFB01F2A2EB0B02B2FBF1F20CFB032351
:109EC000FFF76BBB10E000E044AB002038AB002094
:109ED000EFF3118389F31288D0F808C00268D20327
:109EE00004D50122C8F80020D0F808C02568D8F8A9
:109EF00000A0DBB283F3118831684FF47A725544C5
:109F000002FB01F3A3EB0C03B3FBF1F302FB0535FA
:109F1000FFF722BBEFF3118389F31288D0F808C052
:109F20000268D20304D50122C8F80020D0F808C086
:109F30002568D8F800A0DBB283F3118831684FF4AC
:109F40007A72554402FB01F3A3EB0C03B3FBF1F36C
:109F500002FB0535FFF7B6BBEFF3118389F31288D7
:109F6000D0F808C00268D20304D50122C8F8002046
:109F7000D0F808C02568D8F800A0DBB283F31188B8
:109F800031684FF47A72554402FB01F3A3EB0C03E2
:109F9000B3FBF1F302FB0535FFF739BBEFF3118398
:109FA00089F31288D0F808C00268D20304D50122D0
:109FB000C8F80020D0F808C02568D8F800A0DBB2A7
:109FC00083F3118831684FF47A72554402FB01F330
:109FD000A3EB0C03B3FBF1F302FB05351CE6EFF337
:109FE000118389F31288D0F808C00268D20304D51F
:109FF0000122C8F80020D0F808C02568D8F800A0D1
:10A00000DBB283F3118831684FF47A72554402FB56
:10A0100001F3A3EB0C03B3FBF1F302FB053597E56A
:10A02000EFF3118389F31288D0F808C00268D203D5
:10A0300004D50122C8F80020D0F808C02568D8F857
:10A0400000A0DBB283F3118831684FF47A72554473
:10A0500002FB01F3A3EB0C03B3FBF1F302FB0535A9
:10A06000BEE4EFF3118389F31288D0F808C00268C8
:10A07000D20304D50122C8F80020D0F808C0256812
:10A08000D8F800A0DBB283F3118831684FF47A72FC
:10A09000554402FB01F3A3EB0C03B3FBF1F302FB0A
:10A0A0000535FAE4EFF3118389F31288D0F808C07C
:10A0B0000268D20304D50122C8F80020D0F808C0F5
:10A0C0002568D8F800A0DBB283F3118831684FF41B
:10A0D0007A72554402FB01F3A3EB0C03B3FBF1F3DB
:10A0E00002FB05350CE4EFF3118389F31288D0F8F5
:10A0F00008C00268D20304D50122C8F80020D0F8B5
:10A1000008C02568D8F800A0DBB283F31188316855
:10A110004FF47A72554402FB01F3A3EB0C03B3FB3B
:10A12000F1F302FB0535FFF790BBEFF3118389F3E1
:10A130001288D0F808C00268D20304D50122C8F8FA
:10A140000020D0F808C02568D8F800A0DBB283F35F
:10A15000118831684FF47A72554402FB01F3A3EB86
:10A160000C03B3FBF1F302FB0535FFF706BB019AC5
:10A1700005E4029B93F85D303BBB1023CDE904332B
:10A18000FFF7B4B91DF040FC044620B30268838891
:10A19000126913407FF4A1A90299C3712022124BC6
:10A1A000827141F80C3F3CF04BFDA388B3FA83F376
:10A1B000C3F11F03012212FA03F33FF48EA90B49E6
:10A1C0000A6813430B60FFF788B910211823CDE903
:10A1D0000413FFF78BB90299034B41F80C3F3CF095
:10A1E0002FFDFFF77AB900BF81860008003C0140CF
:10A1F00042699849138823F040032DE9F04F1B046E
:10A200001B0C1380138883B023F038031B048A428D
:10A2100001904FEA134300F0138101F580618A42F7
:10A220000CBF282130210B431380138843F04003D7
:10A2300013801AF007F904461AF004F98442FBD09F
:10A24000019C2046FFF740F9A36913B11A689B8867
:10A250005383019B586940F2E933828902E0002B65
:10A2600000F0F3800289013B12F0020F9BB2F6D09E
:10A270006A23838140F2E93302E0002B00F0E5809D
:10A280000289013B12F0010F9BB2F6D083898389CA
:10A2900040F2E93302E0002B00F0D4800289013B58
:10A2A00012F0020F9BB2F6D01023838140F2E93303
:10A2B00002E0002B00F0C6800289013B12F0010F82
:10A2C0009BB2F6D08389019B9B6913B11A689B8866
:10A2D000138364236048DFF88CE1DFF88CC15F4CA6
:10A2E000DFF888815E4E00934FF01009DCF80430EF
:10A2F000C3F30803002B40F08480EFF31183002B9D
:10A300007FD10568A26803689D42FAD133689A42FA
:10A31000F7D8DEF800704FF47A7101FB07F39B1A4F
:10A32000B3FBF7F301FB05354FF47A774FF0010AE1
:10A33000DCF80430C3F30803002B43D1EFF311839F
:10A34000002B3FD10368A16802689342FAD13268BA
:10A350009142F7D8DEF8002007FB02FBABEB0101CE
:10A36000B1FBF2F107FB03135B1BB3F57A7FDFD37D
:10A37000009B013B0093B9D1019B36495A69138870
:10A3800023F040031B041B0C1380138823F03803B5
:10A390001B048A424FEA134305D001F580618A42CB
:10A3A00001D043F008031380138843F04003138067
:10A3B0001AF048F804461AF045F88442FBD003B07E
:10A3C000BDE8F08FEFF3118189F31288D4F808B05B
:10A3D0002368DB0344BFC8F800A0D4F808B00368C2
:10A3E000D8F80020C9B281F31188DEF800101344B8
:10A3F00007FB01F2A2EB0B02B2FBF1F207FB032316
:10A40000B2E7EFF3118389F31288A7682268D203B9
:10A4100003D50122C8F80020A7680568D8F800A075
:10A42000DBB283F31188DEF800104FF47A725544E2
:10A4300002FB01F3DB1BB3FBF1F302FB053573E712
:10A440002821F0E61EF0A8FE3DE71EF0A5FE019BC8
:10A4500058691CE7003800403CAB002010E000E0E9
:10A4600044AB002040AB002000ED00E038AB002002
:10A470002DE9F84F037C02681F2B86BF203B5168F3
:10A480001168202202FA03F30B4214BF01230023B8
:10A490000BB9BDE8F88F4569DFF878A16F01044674
:10A4A00019F0D0FF7B190AEBC30306461A7C002A79
:10A4B00034D153495A680978D2F80090C9B9D96F94
:10A4C00058890A6822F001020A60B9F80C3023EAC0
:10A4D0000003A9F80C304B4B1B78002B31D1237CA7
:10A4E00021681F2B13D8202202FA03F38B60BDE8EA
:10A4F000F88F5269136823F001031360B9F80C3028
:10A5000023F480731B041B0CA9F80C30E3E7203BF9
:10A51000202202FA03F3CB60BDE8F88FDE6F3A48E1
:10A520005F8901225A7431685A680368156821F0FE
:10A5300001013160AA89013322EA0702AA8103607E
:10A54000CDE72F44FF000AEB07053037D5F87C80B4
:10A55000404613F0DBFE01232B74D5F880B019F0D0
:10A5600071FF0AEB0701CBF82C01484613F08EFF70
:10A57000D5E91470EB6BD5E916123B4303430B434B
:10A5800013432A6E2F6FD8F80000204913436A6ED8
:10A5900013436A6F3B43014013430B430022AA64F9
:10A5A000C8F80030D8F81420AB6EE96C22F0070C24
:10A5B000EA6ED5E91070134343EA0C03C8F814306F
:10A5C000C8F80410C8F80870C8F80C00D8F80020C3
:10A5D000EB6F95F87800696842F01002C8F8002027
:10A5E00058601A68096842F001021A608B896A890A
:10A5F00013438B8119F026FF054B801B18606EE713
:10A600002C320010283200101CA700203F801CF0C4
:10A61000E033001014B80020037903F01803082B6E
:10A620000AD002D82BB100207047102B14D0182B61
:10A63000F9D1B0F80B007047104BB0F80B0093F94C
:10A640000030591C06BF0E4B1B78DBB2C3EB431323
:10A6500000EB830080B270470A4BB0F80B0093F90F
:10A6600000305A1C06BF064B5B78DBB203EB43029B
:10A6700003EB820300EB430080B270471116002009
:10A6800068B5002010160020F0B5067906F06003CA
:10A69000402B09D144794FF0FF350023012006F00B
:10A6A0000706A3420BD1F0BD602B08BF45794FF0E0
:10A6B00001040CBF04FA05F54FF0FF35EDE7042E59
:10A6C0000CD8DFE806F0030D18242E0030B1C85C6A
:10A6D000D75C784028420CBF012000200133E0E71E
:10A6E0000028FBD0C856D756A0EB070CDCF10000C1
:10A6F00040EB0C00F2E70028F0D031F8130032F8FC
:10A700001370784028420CBF01200020E6E70028A3
:10A71000E4D031F9130032F91370C71B7842784145
:10A72000DCE70028DAD051F8230052F82370784093
:10A7300028420CBF01200020D0E7024B01461868D8
:10A740001EF0DABD6C7F002038B5064D441E14F8AB
:10A75000011F286819B9BDE838401EF081BD1EF000
:10A76000CBFDF4E76C7F00200048EDE799DA05089F
:10A7700008B5FFF7E9FFBDE80840F5E710B5044666
:10A780000348FFF7E1FF2046BDE81040F0E700BFB7
:10A790007A9F050838B5074C074DAC4203D3074BE9
:10A7A00000221A7038BD6288D4E9010146F000FE2B
:10A7B0001434F2E7900100080807000814D60020BE
:10A7C00038B5074C074DAC4203D3074B01221A7032
:10A7D00038BD6288D4E9011046F0EAFD1434F2E78E
:10A7E000900100080807000814D60020024A1368E8
:10A7F00023EA0000106070474CCA0020DFED2E7A7B
:10A80000B4EEE70AF1EE10FA4ADDDFED2C6A9FEDB7
:10A810002C7A01E0B0EE670AB4EEC70AF1EE10FA46
:10A8200070EE667AF6DC9FED277AF4EEC77AF1EEE9
:10A8300010FA3ED5DFED216A9FED237A01E0F0EEBC
:10A84000407AF4EEC77AF1EE10FA37EEA60AF6D4A3
:10A85000DFED1E7AB4EEE70AF1EE10FA14DDDFED5B
:10A86000167A37EEC00A60EE006A9FED196A9FED16
:10A87000197ADFED197AA6EE867A20EE266AE6EEE0
:10A88000877AA6EE270A7047DFED147AB4EEE70A5E
:10A89000F1EE10FA44BFDFED0B7A37EEC00AE2E7C3
:10A8A0009FED087AF0EE407AF4EEC77AF1EE10FAF6
:10A8B000C0D4B0EE670ACBE7DB0F4940DB0FC940DD
:10A8C000E4CB1641DB0F49C0E4CB16C1DB0FC93F17
:10A8D00092E741B99730083C15A82ABEDB0FC9BFE3
:10A8E000F0EEC07AB0EEE07AB4EEE77AF1EE10FA6C
:10A8F000B4BFB0EE676AB0EE476AB5EE406AF1EEFB
:10A9000010FA46D0B4EEE77AF1EE10FA8CBFF0EE12
:10A91000675AF0EE475AC5EE866A9FED1F3A9FEDE3
:10A920001F6A9FED1F4A9FED1F5ADFED1F3ADFEDB3
:10A930001F4ADFED1F5AA6EEC36AE6EEA34AA6EE53
:10A94000864AB7EE006AA6EE845AA6EEA46AE6EE40
:10A95000855AC5EE866AB4EEE77AF1EE10FA48BF82
:10A96000DFED147AF5EEC00A48BF77EEE66AF1EE45
:10A9700010FA48BFDFED107AB5EEC00A48BF77EE97
:10A98000E66AF1EE10FA48BFF1EE666AB0EE660ACA
:10A990007047DFED076ADEE739094E3DE3B59E3EBD
:10A9A00088FA163E45FE7F3F99FB243F69A2163E7A
:10A9B000A7DFA834DB0FC93FDB0F4940DFED317A59
:10A9C00030EE277AFDEEC76A16EE903A2033402B20
:10A9D00002D99FED2D0A7047B4EEE70AF1EE10FAA6
:10A9E0004DDD9FED2A6ADFED2A6A01E0B0EE677A5D
:10A9F000B4EEE67AF1EE10FA77EE467AF6DC9FEDE9
:10AA0000257AF4EEC77AF1EE10FA35D5DFED1F6A3C
:10AA10009FED217A01E0F0EE407AF4EEC77AF1EE94
:10AA200010FA37EEA60AF6D4DFED167AB4EEE70A8E
:10AA3000F1EE10FA1BDCDFED197AB4EEE70AF1EE65
:10AA400010FA44BFDFED137A37EEC00A60EE006AF9
:10AA50009FED136A9FED137ADFED137AA6EE867AE7
:10AA600020EE266AE6EE877AA6EE270A7047DFED2B
:10AA70000F7A37EEC00AE9E7B0EE670AD4E7F0EEE6
:10AA8000477ABCE7DB0FC93F00000000DB0FC9407D
:10AA9000E4CB1641DB0F49C0E4CB16C1DB0FC9BFC5
:10AAA00092E741B99730083C15A82ABEDB0F494010
:10AAB000FDEEC07A17EE903A2033402B45D8DFEDFB
:10AAC0002D7AB4EEE70AF1EE10FA4DDDDFED2A6AD9
:10AAD0009FED2A7A01E0B0EE670AB4EEC70AF1EE04
:10AAE00010FA70EE667AF6DC9FED257AF4EEC77AFE
:10AAF000F1EE10FA3BD5DFED206A9FED227A01E0FE
:10AB0000F0EE407AF4EEC77AF1EE10FA37EEA60ACC
:10AB1000F6D4DFED1D7AB4EEE70AF1EE10FA17DD98
:10AB2000DFED147A37EEC00A60EE006A9FED176A17
:10AB30009FED177ADFED177AA6EE867A20EE266A69
:10AB4000E6EE877AA6EE270A70479FED130A704754
:10AB5000DFED127AB4EEE70AF1EE10FA44BFDFED52
:10AB6000087A37EEC00ADFE7F0EE407ABCE7B0EED5
:10AB7000670ACEE7DB0F4940DB0FC940E4CB164143
:10AB8000DB0F49C0E4CB16C1DB0FC93F92E741B9E7
:10AB90009730083C15A82ABE00000000DB0FC9BF93
:10ABA00010B44C09012250F8243001F01F0102FAC0
:10ABB00001F123EA010340F824305DF8044B7047AB
:10ABC00010B44C09012250F8243001F01F0102FAA0
:10ABD00001F10B4340F824305DF8044B704700BF8F
:10ABE0004B0901F01F0150F82320012303FA01F162
:10ABF000114214BF18460020704700BF2DE9F043F2
:10AC0000002489B006460D461F46A04605E02529CA
:10AC10000CD030460134A847039A531C0393117893
:10AC20000029F4D1204609B0BDE8F083931CCDE99A
:10AC300003385078302842D0A0F13003DBB2092B22
:10AC40004FF0000945D96C282AD0642873D019D94F
:10AC5000732858D063D9752840F0828007F1040C1E
:10AC6000386805AB00220A216746FDF7F9FA05AB03
:10AC7000049A009329464B463046FDF7C7F9039ADC
:10AC80000444CAE725283CD051D958286BD0632802
:10AC9000C2D139783046A84704370134039ABCE75B
:10ACA000039B5A1C03921B78642B52D016D8252B79
:10ACB00027D064D9582B18D0632BEAD0ADE7D31C2A
:10ACC00003939078A0F13003DBB2092B4FF0010918
:10ACD000B9D804AA03A93DF07FFDB4E7732B12D0C5
:10ACE00051D9752B2DD0782B97D1A3F15802B2FAF8
:10ACF00082F23868520905AB10210437FDF7B0FA2B
:10AD0000B5E7252185E73B68049A0093294600238F
:10AD10003046FDF77BF904370444039A7DE76E283B
:10AD20007FF47AAF039A3B6804371C6075E700280C
:10AD30003FF478AF70E7386805A9FDF75BFA043790
:10AD400095E7386805AB00220A21FDF789FA043738
:10AD50008DE73B1D386805A91F46FDF74BFA86E7CE
:10AD600078287FF459AFA0F15802B2FA82F238681D
:10AD7000520905AB1021FDF773FA043777E7002B72
:10AD80003FF450AF49E76E2BCDD046E710B5064CE7
:10AD90000B46024605492068FFF730FF2068BDE8F2
:10ADA00010401EF05DBA00BF6C7F0020F98A0008D9
:10ADB00038B504460D460848FFF7C6FC294620462C
:10ADC000FFF7E4FF0548FFF7BFFC054B1B7813B105
:10ADD000044B01221A7038BD7F9F05088A9F050821
:10ADE000C8800020C98000200FB407B504A951F81D
:10ADF000040B0191FFF7DCFFFFF7B6FC03B05DF831
:10AE000004EB04B070470FB407B504A951F8040B64
:10AE10000191FFF7CDFF03B05DF804EB04B070477C
:10AE20000FB407B504A951F8040B0191FFF7AEFF69
:10AE3000FFF79AFC03B05DF804EB04B070470FB461
:10AE400007B504A951F8040B0191FFF79FFF03B068
:10AE50005DF804EB04B070472DE9F0411746027924
:10AE600002F06003402B05460C462BD10026524FC2
:10AE7000DFF8608115E02B7903F00703022B15D072
:10AE8000032B19D0012B14BFA15DA1573846FFF742
:10AE9000D6FF6B79013BB34202DD4046FFF754FC1D
:10AEA00001366B79B342E6DCBDE8F08134F8161068
:10AEB0003846FFF7C4FFECE734F916103846FFF7C1
:10AEC000BEFFE6E702F00702042A67D8DFE802F0D7
:10AED000031E27292C002478202B3CD0602B49D03E
:10AEE000002BE1D1B5F80560B5F80780324821465E
:10AEF000FFF7A5FFA64249DCA04547DB002FD3D0D2
:10AF0000424631462D48BDE8F04198E794F90040AB
:10AF1000202B20D0602B2DD0002BC5D146E02488DB
:10AF2000DAE7B4F90040F3E72668202B344612D064
:10AF3000602B1FD0002BB7D131461F48FFF77FFF92
:10AF4000D5F805108E4221D8002FADD01C48BDE8A1
:10AF5000F04174E700246A791A4B03EBC2010979C6
:10AF6000A14213DD53F8323053F82400BDE8F0411C
:10AF7000FFF7EABB6A791441E30703D51248BDE83D
:10AF8000F0415CE71148BDE8F04158E7FFF7ECFB02
:10AF9000224629680E48BDE8F04134E7202BD9D07D
:10AFA000602BEFD0002B7FF47FAF1C46B5F9056016
:10AFB000B5F907809AE700BF9FD10508F5CE0508CF
:10AFC000909F050880810508DCD1050860BF050851
:10AFD000969F05088E9F05080CB407B510F0200059
:10AFE0000BD079B92320FFF7A8FB05A9049801919C
:10AFF000FFF7CCFEFFF7B8FB012003B05DF804EBD0
:10B0000002B070470020F8E70CB4C30607B500D5BE
:10B0100061B905A904980191FFF7B8FEFFF7A4FBF9
:10B02000012003B05DF804EB02B070470020F8E7A0
:10B030000EB400B584B005AB019053F8042B06495B
:10B04000039301A8FFF7DAFD019B00221A7004B0F8
:10B050005DF804EB03B070470180000870B4066827
:10B060008E4217D90139751E002311F8014F0822AD
:10B07000634013F0800F4FEA430318BF83F0D503FA
:10B08000013ADBB2F5D18D42EFD1721C0260337010
:10B0900070BC7047721C00230260337070BC704734
:10B0A0000A44914215D010B40139541E11F8012FF1
:10B0B0000823504010F0800F4FEA400018BF80F086
:10B0C000D500013BC0B2F5D1A142EFD15DF8044BF0
:10B0D000704770474840082310F0800F4FEA400047
:10B0E00018BF80F0D500013BC0B2F5D1704700BF5A
:10B0F0000A44914215D030B40139551E41F2210263
:10B1000011F8014F082380EA042004044CBF82EAAE
:10B1100040004000013B80B2F7D18D42F0D130BCFD
:10B120007047704770B502221349144C144E4FF605
:10B13000FF70FFF7DDFF22884AB1A518B54218D28B
:10B14000052A16D92146FFF7D3FF2C46F3E72146FF
:10B150000222FFF7CDFF0222A118FFF7C9FF094B1A
:10B16000E41A094B1C8041F60F53C31A5842584148
:10B1700070BD0020FCE700BF00400008024000084E
:10B1800000800008FA3F000816D600200F4B2DE97A
:10B190003048D3E9004554EA05020AD1034640F29B
:10B1A000011200201880988098715A801881BDE89B
:10B1B0003088074B1A6814EB020B45F1000C5A4615
:10B1C0006346FCF75FFF0120BDE830886063002024
:10B1D0003CAB002030B403888278C478154DA3F5C9
:10B1E000FA6303F0030101EB4101013A02EB810232
:10B1F0009B0835F812500279611E40F2B55404FBE9
:10B2000003132B4403EB430302EBC303427984791A
:10B2100009490089C3EB031302EB83032144C3EB09
:10B22000031301EB83034FF47A720021C2FB030185
:10B2300030BC7047A02A050880436D382DE9F047DF
:10B2400007468CB01E469246002A5CD1154614462D
:10B250000A88B2F5FA6F36D38B78581E0B2832D88D
:10B2600091F803C00CF1FF301E282CD891F804E0AF
:10B27000BEF1170F27D891F80590B9F13B0F22D8EE
:10B2800088793B281FD8B1F80880B8F57A7F1AD2A0
:10B290004FF001085EBB09890491002CB4BF2D2139
:10B2A0002B21002CB8BF6442CDE90290CDE90514F2
:10B2B0000795CDE900CE38462A49FFF7B9FE40464A
:10B2C0000CB0BDE8F08700232749ADF828304FF0D7
:10B2D000010C18468DF82A30ADF82C3099469E4660
:10B2E0001A4698460991634609A9002ED3D0CDE9A4
:10B2F0000290CDE900CE38461C49FFF799FE404642
:10B300000CB0BDE8F0871A4C84FB0234A318D417A4
:10B31000C4EB6314C4EB0415A2EB85052DB2002D1C
:10B320000846B8BF6D42FFF755FF4FF47A7200230D
:10B330008046894645F09EFD3C230AFB030A4FF4F4
:10B340007A7200234046494645F094FD4FF47A71E5
:10B3500092B20023C1FB0A2309A8FCF793FE24B292
:10B3600009A975E77CA00508000001015CA005089B
:10B37000898888880378202B024600F10100F9D0E3
:10B38000092BF7D02D2B00F0A4802B2B03BF537873
:10B39000B7EE000A0246B7EE000AA3F13001C8B2C8
:10B3A00009289FED577A10D8F2EE046A07EE901A3A
:10B3B000F8EEE77A12F8013FE7EE267AA3F13001C2
:10B3C000C8B20928B0EE677AF0D92E2B63D003F00B
:10B3D000DF03452B02D020EE070A704710B45178E6
:10B3E0002D294FD02B2979D0A1F13003092B02F15F
:10B3F00001027AD80024002303EB830301EB43030B
:10B4000012F8011FA1F130000928A3F13003F3D98C
:10B41000B3F59A7F1A4628BF4FF49A72072B6CD95E
:10B42000DFED386A1346F7EE007A083B072B67EE2C
:10B43000A67AFAD802F00702DAB1F2EE046A012A1B
:10B4400067EEA67A15D0022A67EEA67A11D0032AF3
:10B4500067EEA67A0DD0042A67EEA67A09D0052AEF
:10B4600067EEA67A05D067EEA67A062A18BF67EEC1
:10B47000A67A002C3BD087EE277A5DF8044B20EEAD
:10B48000070A70479178A1F13003092B02F10202FB
:10B4900030D80124AFE75378A3F13001C8B20928AE
:10B4A00002F1010293D8F2EE046AF0EE665A07EE5A
:10B4B000901AF8EEE77A12F8013F87EEA66AA3F138
:10B4C0003001C8B2092866EEA56A37EE067AEED9D1
:10B4D0007DE75378BFEE000A02465EE79178A1F15E
:10B4E0003003092B02F1020284D9F7EE007A27EE2D
:10B4F000277AC2E7F7EE007ABDE7F7EE007A9BE71E
:10B500000000000020BCBE4CB5EEC00ADFED317A71
:10B51000F1EE10FACCBF30EE270A30EE670ADFED0D
:10B520002E7A20EE270A30B5FDEEC07A87B017EEEE
:10B53000904A054684EAE470002303A9A0EBE47076
:10B54000CDE9003302933FF005F9002CACBF202376
:10B550002D2303A88DF8003044F096FF012803A99D
:10B5600024D002282DD0032805BF30236846684622
:10B570008DF8013047F048FA684644F085FF0338FB
:10B58000C4B222466946284647F074FA00232B5578
:10B59000284644F079FF2E22431C2A540DEB040167
:10B5A000E81847F04DFA284607B030BD302368460A
:10B5B0008DF801308DF802308DF8033047F024FA11
:10B5C000DAE7302368468DF801308DF8023047F015
:10B5D0001BFAD1E76F12033A00007A44F8B5064629
:10B5E00015460846B6FBF2F434B905FB14640C4B5F
:10B5F0001B5D00F8013BF8BDB4FBF2F75FB905FB3A
:10B600001747074B05FB1464DA5D00F8012B1B5D3F
:10B6100000F8013BF8BD3846FFF7E0FFEFE700BF59
:10B62000ACA0050802B370B48E1803E0121B14D14D
:10B63000B14215D010F8012BA2F14103192B11F8DA
:10B64000013BA3F1410598BF2032192D03F12004DD
:10B65000ECD9D21A01D1002BEAD1104670BC704748
:10B660000022104670BC70471046704770B5044603
:10B6700008460D4644F008FF064602E014F8013F74
:10B6800043B1324629462046FFF7CCFF0028F5D1CA
:10B69000204670BD1C46204670BD00BF4FF0FF32F3
:10B6A000FFF7C0BFA0F16103192B98BF2038704786
:10B6B000A0F14103192B98BF20307047202805D0F6
:10B6C000093804288CBF00200120704701207047F2
:10B6D0002DE9F0411F46064603461C782046FFF739
:10B6E000EDFF1D4601330028F7D12B2C51D02D2C16
:10B6F00024D0102A804628D04FF0FF33B3FBF2F35A
:10B7000002FB03FC6FEA0C0C5FFA8CFC0135002095
:10B710000BE0303CE4B2944225DA98422E461DD824
:10B720001AD002FB004015F8014B392CF1D944F036
:10B730002004602C17D9573CE4B2ECE74FF0010825
:10B74000102A6C7805F10105D6D1302C23D06FF08A
:10B7500070434FF00F0CD9E76445E2D907EA0808B7
:10B760004FF0FF30DFE701B10E60B8F1000F08D0F5
:10B7700027B1B0F1004F28BF4FF000404042BDE874
:10B78000F081002FFBD06FF00043984228BF18468D
:10B79000F5E78046D4E76C782046FFF789FF7828E4
:10B7A00005F1010605D035466FF070434FF00F0CE0
:10B7B000ACE7AC786FF0704302354FF00F0CA5E7A3
:10B7C00001230A22002183E7613819288CBF002059
:10B7D00001207047413819288CBF00200120704794
:10B7E000303809288CBF002001207047A0F13003B9
:10B7F000092B07D920F02000413819288CBF0020E0
:10B80000012070470120704707EE901AF8EE677A22
:10B810009FED807A27EE800A20EE070AFDEEC07ABF
:10B8200017EE903A2033402B7BD8DFED7B7AB4EED5
:10B83000E70AF1EE10FA40F3E180B0EE407A9FEDB6
:10B84000776ADFED776A01E0B0EE677AB4EEE67A08
:10B85000F1EE10FA77EE467AF6DC9FED727AF4EEAE
:10B86000C77AF1EE10FA40F1CC809FED6C6ADFED03
:10B870006E6A01E0F0EE477AF4EEE67AF1EE10FA45
:10B8800037EE867AF6D4DFED697AB4EEE77AF1EE38
:10B8900010FA40F3A280DFED607A37EEC77A27EE28
:10B8A000076ADFED635ADFED637ADFED636A9FEDD0
:10B8B000635AE6EE257A67EE065AE6EE276AF7EE59
:10B8C000007AA5EEA67AF0EE675AE7EE055AE7EEA3
:10B8D000457A87EEA55ADFED557A30EE277AFDEEF0
:10B8E000C76A16EE903A2033402B1FD99FED547A49
:10B8F000F6EE006AB7EE006AF7EE004AC4EEA57AEB
:10B9000080ED045A67EEA66A27EE866A27EE877AEC
:10B91000C0ED006AC0ED026A80ED016A80ED037A35
:10B920007047B7EE005AF0EE455AD4E7B4EEE70A96
:10B93000F1EE10FA6BDD9FED396ADFED396A01E057
:10B94000B0EE677AB4EEE67AF1EE10FA77EE467A68
:10B95000F6DC9FED347AF4EEC77AF1EE10FA53D5A7
:10B960009FED2E6ADFED306A01E0F0EE477AF4EEEB
:10B97000E67AF1EE10FA37EE867AF6D4DFED2B7A1E
:10B98000B4EEE77AF1EE10FA33DCDFED2E7AB4EEA6
:10B99000E77AF1EE10FA44BFDFED227A37EEC77A8C
:10B9A00027EE076ADFED224ADFED226ADFED227A19
:10B9B000E6EE246A67EE064AE6EE267AB7EE006AFD
:10B9C000A4EEA77AF6EE006A36EE476AF8EE007A41
:10B9D00027EE277A66EE266A8EE7DFED1A7AB4EE56
:10B9E000E77AF1EE10FA44BFDFED0E7A37EEC77A50
:10B9F00055E7DFED097A37EEC77AD1E7F0EE407A06
:10BA00002BE7B0EE677A3EE7B0EE677AB6E7F0EE86
:10BA1000477A9EE727D4D236DB0F4940DB0FC94077
:10BA2000E4CB1641DB0F49C0E4CB16C1DB0FC93FA5
:10BA300092E741B99730083C15A82ABEF304353F78
:10BA400000000000DB0FC9BF07EE901AF8EE677A1E
:10BA50009FED837A27EE800A20EE070AFDEEC07A7A
:10BA600017EE903A2033402B00F28180DFED7D7A93
:10BA7000B4EEE70AF1EE10FA40F3E680B0EE407A59
:10BA80009FED796ADFED796A01E0B0EE677AB4EE96
:10BA9000E67AF1EE10FA77EE467AF6DC9FED747AEC
:10BAA000F4EEC77AF1EE10FA40F1D1809FED6E6AA4
:10BAB000DFED706A01E0F0EE477AF4EEE67AF1EE3F
:10BAC00010FA37EE867AF6D4DFED6B7AB4EEE77AC9
:10BAD000F1EE10FA40F3A780DFED627A37EEC77A15
:10BAE00027EE076ADFED655ADFED657ADFED656AFF
:10BAF0009FED655AE6EE257A67EE065AE6EE276A6E
:10BB0000F7EE007AA5EEA67AF0EE675AE7EE055A50
:10BB1000E7EE457A87EEA55ADFED577A30EE277AC1
:10BB2000FDEEC76A16EE903A2033402B24D99FEDE4
:10BB3000577AF6EE006AB7EE006AF7EE004AC4EEF6
:10BB4000A57A0023836143610362C36180ED045AD7
:10BB500067EEA66A27EE866A27EE877AC0ED006A4E
:10BB6000C0ED026A80ED016A80ED037A7047B7EE9E
:10BB7000005AF0EE455ACFE7B4EEE70AF1EE10FABC
:10BB80006BDD9FED396ADFED396A01E0B0EE677A6F
:10BB9000B4EEE67AF1EE10FA77EE467AF6DC9FED37
:10BBA000347AF4EEC77AF1EE10FA53D59FED2E6A8F
:10BBB000DFED306A01E0F0EE477AF4EEE67AF1EE7E
:10BBC00010FA37EE867AF6D4DFED2B7AB4EEE77A08
:10BBD000F1EE10FA33DCDFED2E7AB4EEE77AF1EE17
:10BBE00010FA44BFDFED227A37EEC77A27EE076AF4
:10BBF000DFED224ADFED226ADFED227AE6EE246AEB
:10BC000067EE064AE6EE267AB7EE006AA4EEA77A59
:10BC1000F6EE006A36EE476AF8EE007A27EE277AEB
:10BC200066EE266A89E7DFED1A7AB4EEE77AF1EE7E
:10BC300010FA44BFDFED0E7A37EEC77A50E7DFED3A
:10BC4000097A37EEC77AD1E7F0EE407A26E7B0EE10
:10BC5000677A39E7B0EE677AB6E7F0EE477A9EE7A3
:10BC600027D4D236DB0F4940DB0FC940E4CB164165
:10BC7000DB0F49C0E4CB16C1DB0FC93F92E741B9E6
:10BC80009730083C15A82ABEF304353F0000000099
:10BC9000DB0FC9BF30B402681146531C036011F8B2
:10BCA000024B0160D31C517803609378151D056029
:10BCB0001B0443EA0123D078234343EA006030BCED
:10BCC000704700BF0368591C1A46016012F8021B36
:10BCD0000260587841EA0020704700BF03685A1C90
:10BCE00002601878704700BF70B5044608460E46DB
:10BCF00044F0CAFB314605460246206845F058FB31
:10BD000020682844206070BD38B504460068154698
:10BD100045F04EFB22682A44226038BD036810B407
:10BD20000A0E5C1C04601A7003680A0C5C1C046038
:10BD30001A7003680A0A5C1C04601A7003685A1CB3
:10BD4000026019705DF8044B704700BF036810B4BF
:10BD50000A0A5C1C04601A7003685A1C026019709D
:10BD60005DF8044B704700BF03685A1C026010B4B2
:10BD7000197003680A0A5C1C04601A7003680A0CD4
:10BD80005C1C04601A700368090E5A1C026019706A
:10BD90005DF8044B704700BF03685A1C02601970BD
:10BDA0000368090A5A1C02601970704770B544880C
:10BDB0000546C4F30B0422460846002146F01CFE4B
:10BDC0002969094A9142034602D3084A914204D3A1
:10BDD00041B11846BDE8704008472246BDE87040B2
:10BDE00045F0E6BA70BD00BF08070008500800081B
