:020000040800F2
:10000000F0FF0010812D0508951A0208259C0208B2
:10001000212E0508212E0508212E050800000000CC
:10002000000000000000000000000000A11A02080B
:100030009D1A020800000000991A0208899C020813
:10004000212E0508212E0508212E0508212E050840
:10005000212E0508212E05087D130408A914040883
:100060006D14040831140408F5130408D1FA0008CB
:10007000C1FA0008B1FA0008A1FA00088DFA0008D8
:1000800079FA000865FA0008212E0508212E0508D6
:10009000212E0508212E0508212E0508B913040874
:1000A000C18302085D890208F18202082D8A0208D4
:1000B0009D880208DD87020811870208212E0508A5
:1000C000212E0508212E0508212E0508212E0508C0
:1000D000212E0508E5A90208212E050849A90208D4
:1000E00041130408212E05089164020821820208A8
:1000F00091840208518102087185020851FA0008B2
:10010000212E0508212E050841860208212E05080A
:10011000212E0508212E0508715A0308F9580308F5
:100120003DFA000829FA000815FA000801FA00084B
:10013000EDF90008212E0508212E0508212E0508BD
:10014000212E0508212E0508212E05085D350208FF
:10015000D9F90008C5F90008B1F90008ADA80208EE
:10016000212E0508212E0508212E0508212E05081F
:10017000212E0508212E0508212E0508212E05080F
:08018000212E0508212E0508BF
:08018800282905000100000018
:1001900010020100882000208420002000000000C0
:1001A000440700081F0210009C2000208C20002023
:1001B0000000000071850008F6210C00A840002016
:1001C00070410020000000004807000802000C00F9
:1001D000544000207C41002000000000000000008E
:1001E00008120F001C410020884100200000000080
:1001F00001850008F7010600104100209841002009
:1002000000000000540700081D0202000C410020FD
:10021000A0410020000000005A070008281010002C
:100220001C4D00200C4D0020000000001D64010842
:100230001C021000644900202C4D0020000000002A
:10024000B183000820320A00484D00203C4D0020B8
:1002500000000000A163010814000300B04C00205E
:10026000544D0020000000005C0700081010020040
:10027000204B0020584D00200000000060070008BF
:1002800019000500184B00205C4D00200000000004
:1002900062070008F8210600104B0020644D002082
:1002A000000000006807000801200C00384500200D
:1002B0006C4D0020000000006E0700080C109C0030
:1002C00068440020784D00200000000099FD0008DF
:1002D0000A702800F4430020144E002000000000A3
:1002E000C16301080EA06E01844200203C4E002034
:1002F00000000000E944040801010400E44100207A
:10030000AC4F0020000000000000000000010400CD
:10031000DC410020B04F0020000000007A070008F8
:1003200002010300D8410020B44F0020000000006B
:10033000C5FD00080B301A0048620020F86A002052
:1003400000000000800700081F30240080590020B2
:10035000146B0020000000009C0700080502040048
:100360000C650020386B002000000000C00700086A
:1003700003010A00A85900203C6B00200000000087
:10038000C407000813020400E4570020486B002053
:1003900000000000CE0700081A023C00007C00208C
:1003A00090800020000000004D8B00082700040012
:1003B000FC7B0020CC80002000000000D207000859
:1003C00038100100587B0020D08000200000000081
:1003D000D60700080A020A00288900207C8B00202A
:1003E000000000009DF1020803000100FC830020D2
:1003F000888B0020000000000000000003123D0078
:100400003C8B00208C8B002000000000D8070008E7
:1004100025102C015C890020CC8B002000000000FE
:100420000000000022021401E4A2002034A50020F4
:1004300000000000898C00080102050034950020AE
:1004400048A6002000000000F58D0308000205000A
:100450002C95002050A600200000000000000000A5
:100460001B0210001895002058A600200000000074
:10047000DD8300081E0006007092002068A60020A0
:1004800000000000180800081B100C00448F00201A
:1004900070A6002000000000B1A103082102F000B6
:1004A0009C8D00207CA6002000000000E998030835
:1004B00023121000809500206CA70020000000008F
:1004C0002008000805100600789500207CA7002071
:1004D000000000003008000837102800A094002019
:1004E00084A7002000000000360800080E02020069
:1004F00074950020ACA70020000000005E080008F2
:1005000016100600008D0020B0A70020000000009B
:10051000600800082F10220010A50020B8A70020B6
:10052000000000006608000823100E00B8910020AB
:10053000DCA700200000000035640108F5518C00A4
:10054000088D0020ECA7002000000000F1CD03087A
:100550001A000E0008B0002048B100200000000082
:100560008808000815007000D8AC002058B10020A1
:1005700000000000000000002A006000D0B0002051
:10058000C8B1002000000000C14404082C00100085
:1005900038B2002028B200200000000065410408A5
:1005A0002B0024006CB2002048B2002000000000A4
:1005B0003541040829207800C4AA002090B2002008
:1005C00000000000000000000D003400A0E000204A
:1005D00018E10020000000002B6802080902010059
:1005E0000CE000204CE1002000000000980800080A
:1005F000040080008CDF002050E10020000000009B
:10060000000000001300040078DF0020D0E100208B
:10061000000000009C080008FD01240054DF0020B9
:10062000D4E1002000000000B56702081820300067
:1006300020DF0020F8E1002000000000E98B000826
:1006400006101A0040CA002028E200200000000026
:1006500045450408FB0101003CCA002044E200209B
:10066000000000005D8C0008FC01090008C90020A2
:1006700048E20020000000006D8C000816023F00D8
:10068000C8C8002054E200200000000021840008B7
:1006900034001000F8C7002094E2002000000000A1
:1006A0001945040811020800D0C70020A4E2002068
:1006B00000000000A008000812120400C8C70020B3
:1006C000ACE2002000000000A80800081220100082
:1006D000B8C70020B0E2002000000000AC0800080D
:1006E000F90104002CC40020C0E20020000000003A
:1006F0009DE40308FA01020014BE0020C4E20020B9
:1007000000000000698600080202030058B30020C0
:10071000C8E2002000000000000000000C020400FD
:1007200014B30020CCE2002000000000598500082E
:10073000FE011400E0BD0020D0E200200000000017
:04074000F183000839
:1007440000000000000000000100000002020000A0
:100754001800010000000000030000000005000074
:10076400280100000401F4011400E8036400040AF1
:10077400000114001E00BC0100000000AE014A018B
:100784005E012C0164010200000001000A019A01CB
:10079400001E0A000000000000000000000100002C
:1007A400000500000102030000000000000000003A
:1007B40000000000000000000080070000000000AE
:1007C400040101006C160000000000000135200344
:1007D4000000000000000000000000000000000015
:1007E4000000000000000000000000000000000005
:1007F40000000000000000000000000000000000F5
:1008040000000000000000000000000000000000E4
:1008140001000000000001000000000000000000D2
:1008240000000000000000000000000020000301A0
:10083400000020003200C800D007960014003200E7
:100844002800B00440060005500014000F00080002
:1008540064000100000005000A000000C409000053
:10086400190000000000000000000000000000006B
:100874000000000000000000000000000000000074
:10088400000000007E05EA05B4053200E803D00745
:1008940000000000130000000800443000000000C5
:1008A40001010101FFFFFFFF0000000100000550EE
:0808B4004C554D000008000046
:1008BC001A0300000000000000000000000000000F
:1008CC000000000000000000000000000403090408
:1008DC0012010002000000408304205700020102B4
:1008EC0003010000F5B90008C5850008C1850008A2
:1008FC00BD850008C98D0008B9850008B5850008BC
:10090C0068480508351C0208E10002087527020832
:10091C000000000000000000792402089523020862
:10092C0000000000000000000000000019FC01089D
:10093C005D860008518600086D93000889930008B5
:10094C000986000851930008359300080068214C73
:10095C001F0000001C0000001F0000001E00000013
:10096C001F0000001E0000001F0000001F00000000
:10097C001E0000001F0000001E0000001F000000F1
:10098C00FF01FF0000000401000000000000000255
:10099C001000000007000000000000000000000034
:1009AC000102030406070809000000006041002052
:1009BC00080000000000000050410020080000006A
:1009CC003902020825010208112A02080000000061
:1009DC00A1FC0108C925020875000208412502087E
:1009EC0000000000000000005DFC0108F1FB0108A4
:1009FC00E5FB0108451B0208611B0208291B0208C4
:100A0C000D1B0208F11A0208F1010208010102088B
:100A1C00512902080000000075FC01084525020858
:100A2C0049000208A1240208000000000000000098
:100A3C0069FC0108FCC1050808C2050814C20508B8
:100A4C0020C205082CC2050838C20508D0D80508F4
:100A5C00640606089405060888C10508D02E060809
:100A6C00ECC10508F0C10508F4C10508F8C105087A
:100A7C0044C2050848C205084CC20508FC03060818
:100A8C0050C205081900C800F40120030100000041
:100A9C00155A010800000000F45A050820700020C7
:100AAC00702D7200FFFFFFFFD6010000B80B000095
:100ABC000101010000010101002D202D2D202D2D03
:100ACC002D2D202D2D2D0000000000000000000019
:100ADC00000000000000000000000000000000000A
:100AEC00BC6E05080000000000000000486F0508FF
:100AFC0001000000FA0000000100000001000000ED
:100B0C0001010000344500200000F4010100000048
:100B1C00324500200000F4010100000030450020A7
:100B2C000000F401010000002E4500200000F4013B
:100B3C00010000002C4500200000F4010100000021
:100B4C002A4500200000F401010000002845002087
:100B5C000000F4010100000029620108ED610108A8
:100B6C00B85C050822450020053201002045002014
:100B7C00E803D007010000001E450020E803D00761
:100B8C00010000001C450020E803D0070100000014
:100B9C001A4500201E00B80B01000000184500206B
:100BAC001E00F40101000000164500201400640032
:100BBC0001000000244500203200E8030100000081
:100BCC00144500200000C800010000004A44002029
:100BDC0000C8010049440020005001004844002096
:100BEC00005A01004644002002000000445D050844
:100BFC0078C9050880C905081E8F00200100C409AA
:100C0C00000000001C8F00200100C409000000003F
:100C1C001A8F00200100C40900000000188F00206A
:100C2C000100C40900000000148F00200100C40959
:100C3C0000000000168F00200100C4090000000015
:100C4C00128F00200100C40900000000108F00204A
:100C5C000100C40900000000FD41002000C8010093
:100C6C00FC41002000C80100FA4100200100C8002E
:100C7C0001000000F8410020320030753200000005
:100C8C00F6410020055A0500F341002000FF010049
:100C9C00F541002001000000C8040020F1410020B3
:100CAC000300000054800508F241002000FF010001
:100CBC00F441002001000000C8040020F041002095
:100CCC0003000000548005089D6101084D61010876
:100CDC00505D050848450020EE02CA0801000000DE
:100CEC004645002000C80100640000004545002076
:100CFC0000C8010064000000444500200200000010
:100D0C00145E0508EA41002080C1803E0500000009
:100D1C00E841002080C1803E05000000E241002037
:100D2C0080C1803E05000000E041002080C1803E73
:100D3C0005000000DB41002000FF0100D441002031
:100D4C006400F40101000000D34100200400000005
:100D5C00205E0508D241002002000000345E050828
:100D6C00734200200D000000405E05087042002018
:100D7C00006401006E420020320010270A000000BF
:100D8C006D4200200D000000405E05086C42002002
:100D9C000D000000405E05086B42002002000000C0
:100DAC00785E05080000000000000000845E050865
:100DBC00C46400209CFF2C0100000000A648002009
:100DCC00E0150C1700000000A848002002000000ED
:100DDC00BC5E0508544500200100FF7F01000000A7
:100DEC005345002002000000C85E05087542002033
:100DFC0003000000D85E05087442002003000000C8
:100E0C00D85E0508284400200000E803010000001B
:100E1C00264400200000E8030100000024440020C8
:100E2C000000E80301000000224400200000E80359
:100E3C0001000000204400200000E8030100000035
:100E4C001E4400200000E803010000001D440020A7
:100E5C00001401001C44002003000000E85E05089B
:100E6C00344400200000F401010000003244002052
:100E7C000000F40101000000304400200000F401E7
:100E8C00010000002E4400200000F40101000000CD
:100E9C002C4400200000803E010000002A44002069
:100EAC000000803E010000005D4400201964010038
:100EBC005C44002002000000F85E05085A44002043
:100ECC00E803D0070A000000584400200064010029
:100EDC000A0000004D440020006401004C44002036
:100EEC000064010054440020006401000A0000006A
:100EFC0053440020006401000A000000524400200A
:100F0C00006401000A000000574400200064010046
:100F1C000A00000056440020006401000A00000092
:100F2C0055440020006401000A00000051440020D8
:100F3C0001FF01000A0000005044002001FF0100E5
:100F4C000A0000004F44002001FF01000A000000CD
:100F5C007E4200200000F401010000007C420020D1
:100F6C000000F401010000007A4200200000F401AE
:100F7C0001000000784200200000F4010100000094
:100F8C00764200200000F4010100000045440020DE
:100F9C00006401004444002000640100434400202C
:100FAC000064010042440020FF080100414400207D
:100FBC00016401001D600108E15F0108045F050880
:100FCC0040440020006401003E4400201400E8036B
:100FDC00010000003C440020E80330750A000000CA
:100FEC003A44002000C801003944002000C8010028
:100FFC003844002000C80100374400200064010080
:10100C000A000000124500200000D007010000007B
:10101C000D45002000C801000C45002000C801004F
:10102C000B45002000C80100104500200000D0072F
:10103C00010000000A45002000C8010009450020FD
:10104C0000C801000845002000C801000E45002022
:10105C000000D007010000000745002000C8010077
:10106C000645002000C801000545002000C801000D
:10107C0000000000515D0108745F05086942002002
:10108C0036000000106005086842002000C801000E
:10109C0066420020E803D00701000000504C554D7B
:1010AC0046340000EF41002000030100EE41002017
:1010BC00000301009D5C0108615C0108EC600508FF
:1010CC001D5C0108D15B01085C610508D95C010855
:1010DC0009820108DC610508EC41002001030100D4
:1010EC009162010865620108D0640508615B010822
:1010FC00215B010840650508675D01084D900108FA
:10110C00DC650508017E0108000000008466050806
:10111C0091850108F162010820670508B95D010895
:10112C0000000000A0670508915E01083D5E010803
:10113C0004680508215F0108E55E0108A068050840
:10114C0059600108A1600108206905084B44002082
:10115C0001060100015E0108CD5D01081C6A05084D
:10116C005D5F01086D8201088C6A0508D160010879
:10117C00F58201086C6B0508364400200103010060
:10118C00215D0108F15C0108406C0508BD62010895
:10119C0000000000A46C0508A15B0108D9810108BE
:1011AC00086D05080000000000000000946D0508A3
:1011BC00256101086D830108146E0508CE410020DD
:1011CC0088136F1701000000D041002088136F179F
:1011DC00000000000A5A002000000000000000007F
:1011EC00085A00200000000000000000065A0020F1
:1011FC000000000000000000045A00200000000065
:10120C0000000000025A0020000000000000000056
:10121C00005A00200000000000000000B00D00206B
:10122C000000000000000000A441002002000000AB
:10123C009C6F0508CC41002088136F17010000003B
:10124C000465002088136F1700000000B55A0108D0
:10125C0000000000A86F0508DA480020010000001B
:10126C00FC6F0508066500200100000008700508E9
:10127C00FC64002002000000107005080000000053
:10128C00000000001C700508A15A010800000000B5
:10129C00B870050800000000000000000C71050883
:1012AC0000000000000000007C71050800650020B3
:1012BC00E0150C17000000000403090412010002E1
:1012CC00EF020140830456320002010203010000C8
:1012DC001201000202020040830440570002010286
:1012EC000301000009022000010104C032090400BE
:1012FC0000020806500507058102400000070501A1
:10130C000240000009026400030100C0320904001D
:10131C000001030000000921110100012226000731
:10132C0005830308000A080B0102020201000904EC
:10133C000100010202010005240010010524010036
:10134C000204240202052406010207058203080098
:10135C00FF09040200020A00000007050102400018
:10136C00000705810240000009024300020100C091
:10137C0032090400000102020100052400100105DD
:10138C002401000104240202052406000107058241
:10139C00030800FF09040100020A00000007050110
:1013AC00024000000705810240000000FF00000021
:1013BC001873050800000000000000000000000089
:1013CC000000000000000000000000000000000011
:1013DC00000000000000000000FFFF000000000003
:1013EC00AA55050100000100EC7205080000000080
:1013FC0000000000000000000000000000000000E1
:10140C0000000000000000000000000000000000D0
:10141C00FF1FFF1F05010905A101A10005010930EE
:10142C000931093209330935093409400938158164
:10143C00257F750895088102C0C0000009022200B2
:10144C00010100E03209040000010301020009213E
:10145C00110100012226000705830308000A000081
:10146C00000000000102030401020304060708093E
:10147C00D9260208DD250208352A0208DDFC010800
:10148C0055020208EDFC010809FD0108B5FC010834
:10149C00A5FC010800000000000000002D202D2DEF
:1014AC00202D2D2D2D202D2D2D2D00000000000088
:1014BC000000000000000000000000AA550B010015
:1014CC0000AA5507010000AA550902000000AA5500
:1014DC0003009F0001000000C0120000CC6A002035
:1014EC0000000000F06A0020000000000100000075
:1014FC00A00F0000B80B00000102FFFF010000006C
:10150C000000803FFFFFFFFF0000803F0000000055
:10151C000000000000000000FFFFFFFFFF000000C4
:10152C0000000100E0010000FFFFFFFF080101FFC8
:10153C00FFFF0000FFFF0000FFFFFFFFD02A06089F
:10154C000000080205030300D82A0608010008025F
:10155C0005040300D4E705080200FE010110030096
:10156C0090CD05080300140200030000E02A0608D1
:10157C0004001F0201000800E82A060805001F02EB
:10158C00010108007D0000000000803F0000000009
:10159C0000000000000000000000803F0000000080
:1015AC00000000000000000000000000000000002F
:1015BC00000000000000000000000000000000001F
:1015CC000000803F00000000000000000000000050
:1015DC000100000008000000E1FB0108DDFB010830
:1015EC00D9FB0108CDFB0108C9FB0108D5FB01089B
:1015FC00D1FB0108010000000060024010600240B5
:10160C000000000000000000000B000000000000C3
:10161C000000000000000000006002402860024052
:10162C000100000000000000060C0000000000009B
:10163C00000000000000000000600240406002401A
:10164C000200000000000000100D0000000000006F
:10165C0000000000000000000060024058600240E2
:10166C000300000000000000160E00000000000047
:10167C0000000000000000000060024070600240AA
:10168C000400000000000000200F0000000000001B
:10169C000000000000000000006002408860024072
:1016AC0005000000000000002610000000000000F3
:1016BC00000000000000000000600240A06002403A
:1016CC0006000000000000003011000000000000C7
:1016DC00000000000000000000600240B860024002
:1016EC000700000000000000362F00000000000082
:1016FC000000000000000000006402401064024082
:10170C000000000000000000003800000000000095
:10171C000000000000000000006402402864024049
:10172C00010000000000000006390000000000006D
:10173C000000000000000000006402404064024011
:10174C000200000000000000103A00000000000041
:10175C0000000000000000000064024058640240D9
:10176C000300000000000000163B00000000000019
:10177C0000000000000000000064024070640240A1
:10178C000400000000000000203C000000000000ED
:10179C000000000000000000006402408864024069
:1017AC0005000000000000002644000000000000BE
:1017BC00000000000000000000640240A064024031
:1017CC000600000000000000304500000000000092
:1017DC00000000000000000000640240B8640240F9
:1017EC00070000000000000036460000000000006A
:1017FC0000000000000000006C2B06084CEE0508F1
:10180C0000000000D9FD0008A086010004000000C3
:10181C0000000000000000000000000000000000BC
:10182C0000000000000000000000000000000000AC
:10183C0000000000000000006C2B0608EC2E0608CF
:10184C000000000051660208E803000004000000DC
:10185C00000000000000000000000000000000007C
:10186C00000000000000000000000000000000006C
:10187C000000000000000000BCD005087804060839
:10188C000000000099F902087D000000060000002D
:10189C00000000000000000000000000000000003C
:1018AC00000000000000000000000000000000002C
:1018BC000000000000000000BC2A06080000000028
:1018CC000000000089A00208E803000003000000EB
:1018DC0000000000000000000000000000000000FC
:1018EC0000000000000000000000000000000000EC
:1018FC000000000000000000F42E060800000000AC
:10190C00000000001DAA04081027000003000000BE
:10191C0000000000000000000000000000000000BB
:10192C0000000000000000000000000000000000AB
:10193C000000000000000000DC2A06080000000087
:10194C00BD7B0108116B02085F76000005000000EA
:10195C00000000000000000000000000000000007B
:10196C00000000000000000000000000000000006B
:10197C000000000000000000702D060800000000B0
:10198C000000000099DB0208102700000100000095
:10199C00000000000000000000000000000000003B
:1019AC00000000000000000000000000000000002B
:1019BC000000000000000000002F060800000000DE
:1019CC000000000055660208E80300000500000056
:1019DC0000000000000000000000000000000000FB
:1019EC0000000000000000000000000000000000EB
:1019FC0000000000000000000C2F06080000000092
:101A0C00000000009D050108204E000003000000AE
:101A1C0000000000000000000000000000000000BA
:101A2C0000000000000000000000000000000000AA
:101A3C0000000000000000001C2F06080000000041
:101A4C0000000000A1030108204E0000030000006C
:101A5C00000000000000000000000000000000007A
:101A6C00000000000000000000000000000000006A
:101A7C0000000000000000002C2F060800000000F1
:101A8C00000000001DA50208400D0300030000002B
:101A9C00000000000000000000000000000000003A
:101AAC00000000000000000000000000000000002A
:101ABC00000000000000000040C00508000000000D
:101ACC0000000000D59D0208102700000100000056
:101ADC0000000000000000000000000000000000FA
:101AEC0000000000000000000000000000000000EA
:101AFC00000000000000000060EE0508000000007F
:101B0C000000000015AD03081027000003000000C2
:101B1C0000000000000000000000000000000000B9
:101B2C0000000000000000000000000000000000A9
:101B3C0000000000000000007CCC05080000000044
:101B4C000000000021650208A861000001000000EF
:101B5C000000000000000000000000000000000079
:101B6C000000000000000000000000000000000069
:101B7C00000000000000000068C005080000000024
:101B8C000000000035AB0208A00F000001000000AF
:101B9C000000000000000000000000000000000039
:101BAC000000000000000000000000000000000029
:101BBC0000000000000000003C2F060800000000A0
:101BCC0000000000F1CE0308102700000100000007
:101BDC0000000000000000000000000000000000F9
:101BEC0000000000000000000000000000000000E9
:101BFC000000000000000000D0D705080000000025
:101C0C000000000085C703081A4100000100000015
:101C1C0000000000000000000000000000000000B8
:101C2C0000000000000000000000000000000000A8
:101C3C0000000000000000003CCC05080000000083
:101C4C00000000000D050208102700000100000034
:101C5C000000000000000000000000000000000078
:101C6C000000000000000000000000000000000068
:101C7C00000000000000000058EE05080000000005
:101C8C0000000000CD9601081A4100000100000080
:101C9C000000000000000000000000000000000038
:101CAC000000000000000000000000000000000028
:101CBC000000000000000000482F06080000000093
:101CCC0000000000F50A0208400D030000000000AF
:101CDC0000000000000000000000000000000000F8
:101CEC0000000000000000000000000000000000E8
:101CFC000000000000000000502F0608000000004B
:101D0C0000000000DD640208400D0300000000002C
:101D1C0000000000000000000000000000000000B7
:101D2C0000000000000000000000000000000000A7
:101D3C000000000000000000582F06080000000002
:101D4C0000000000B1D9030850C3000003000000DC
:101D5C000000000000000000000000000000000077
:101D6C000000000000000000000000000000000067
:101D7C000000000000000000642F060800000000B6
:101D8C00000000001903010840420F000000000091
:101D9C000000000000000000000000000000000037
:101DAC000000000000000000000000000000000027
:101DBC000000000000000000702F0608000000006A
:101DCC000000000071DB020850C30000000000009E
:101DDC0000000000000000000000000000000000F7
:101DEC0000000000000000000000000000000000E7
:0C1DFC0000000000000000000000803F1C
:1080000003685A1C02601970704700BF2DE9F047E1
:10801000089C2578002B804689460CBF4FF0200A2B
:108020004FF0300A661C25B3002A26DD334601E0F6
:10803000024698B113F8011B501E0029F8D1971E73
:1080400060B13D46013D51464046C8476B1C002B80
:10805000F8DC257827EAE770013045B1041B294692
:108060004046C847301916F8015B002DF7D1BDE82E
:10807000F087002A03DC2846F9E70020EEE7571EC8
:10808000DFE700BF2DE9F04714461D4606464FF4D2
:108090007A720023204629464AF0A6FC4D4BDFF8B1
:1080A00048814D4A4D4F034488FB03101844D917AB
:1080B00082FB032CC1EB601088FB002887FB0327A1
:1080C0009C44474AC1EBEC2CC0EB001E82FB0C2900
:1080D000A3EB8E0E1F44434A86F806E0C1EB274708
:1080E0004FEAEC7E08EB000ACEEBA90E82FB07827A
:1080F0004FEAE0780EEB4E0EC8EB6A18ACEBCE0CF4
:10810000C8EB0818DFF8E4E086F804C0A0EB8800AC
:1081100070718EFB0303F817C0EBE21240F2B5500A
:1081200000FB1272C1EBE353B2F5896F4FEA83078C
:108130003CDA40F2DA239A4242DCB2F5B77FB4BFB0
:108140004FF0000E4FF0010E4FEA4E09DFF8A0800D
:1081500009EB0E0308EBC3031FFA8EFCD88A09EB68
:108160000E0108EBC10116310B2301E031F8020DBD
:10817000904218DD013BF9D1CE44012338F83E008E
:10818000B37007F5FA670132121ABC44F270A6F810
:1081900000C0204629464FF47A7200234AF024FC9E
:1081A0003281BDE8F0870133DBB2E9E74FF0030C21
:1081B000E64640F29650DFF838804FF00609CEE7E9
:1081C0004FF0020CDFF82880E64640F229404FF0DD
:1081D0000409C4E780BC92C7C5B3A29107452EC26B
:1081E000ABAAAA2A73B06D1689888888792D0311E5
:1081F000184605080028F0B403DA2D230B7040421E
:108200000131092804464FF0010307DD03EB830326
:108210005B00B0FBF3F2092AF8D883B10F48A0FB4A
:108220000326B4FBF3F2092A02F1570C02F13007DE
:1082300009DD03FB1244F30801F801CBEFD1002361
:108240000B70F0BC704703FB1244F30801F8017B8C
:10825000E5D100230B70F0BC704700BFCDCCCCCC77
:10826000884270B44FF0010442D301FB04F4B0FB28
:10827000F4F58D42F9D2ECB142BB092D04FB150097
:1082800005F1570605F130020EDDB4FBF1F403F8F9
:10829000016B7CB1B0FBF4F5092D04FB150005F171
:1082A000570605F13002F0DCB4FBF1F403F8012BC2
:1082B000002CEFD100221A7070BC704703F8016BDC
:1082C000B4FBF1F4002CF5D0B0FBF4F5092D04FB60
:1082D000150005F1370605F13002EFDCB4FBF1F4CF
:1082E00003F8012B002CEFD100221A7070BC7047EC
:1082F0000546002AEAD1C0E790ED057A90ED004AE4
:10830000D0ED066AD0ED014AD0ED047A90ED035A23
:10831000D0ED025AA4EE007AB0EE406AB0EE470A01
:10832000B0EE667AA4EE867A67EEC07AA5EE407A61
:10833000E5EE867A80ED057AC0ED067A704700BFDB
:10834000D0ED057A90ED013AD0ED003AD0ED064A35
:1083500090ED024A90ED077A90ED035A90ED086A8D
:10836000D0ED045AC0ED067AF0EE406A27EE830A9B
:10837000C0ED056AA3EEA60A80ED087AA4EE240AF1
:10838000A5EE470AA5EEC60A80ED070A704700BFB2
:10839000D0ED007A90ED017A30EE670AE7EE007AD0
:1083A000B0EE670AC0ED007A704700BF704700BFAB
:1083B00030B414220023342503240221C270012288
:1083C0008571C4710370C3728373C373417041724A
:1083D00082700272827230BC704700BF0023062197
:1083E0004FF47A720170C0E901230373704700BF34
:1083F00030B43123332232254FF60174FF2143700C
:10840000427101230022C5700482817403720370DB
:108410000371837042818281C28130BC704700BF8A
:108420002DE9F04F3149324B83B001F1A00B01909F
:1084300013274FF000092F481022012603E02030B7
:1084400098420BD002799742F9D102680C68A24297
:1084500009D02030984206F10106F3D12031594568
:108460003AD00F79E7E744794D79A542F1D19446A6
:10847000019A214809EB490502EB050A57558AF88C
:10848000016000F572751D4E624603E0A8421AD0E5
:1084900050F82C6FB242F9D10679A642F6D1CF68D6
:1084A00006464FF0000C96468046F268BA4216D057
:1084B0000CF1010CBCF1030F06F10C06F5D140469E
:1084C000A8427246E4D14FF0FF3C203159458AF86A
:1084D00002C009F10109C4D103B0BDE8F08F0869F9
:1084E00032698242E4D14FFA8CFCEEE764A70508BA
:1084F0004CB205088CA805084CB2050800000140E4
:10850000144BFF22F0B54FF0FF34C27002710272BB
:1085100042724273827303F10C0EA446172716268B
:108520001525002202EB820281189E4585544E706B
:108530008F7081F803C00C710AD093F90620DD79A1
:108540001E7A5F7A93F90AC093F90B400633E9E784
:10855000F0BD00BF7846050810B42C21012402228A
:108560000023047041708270C3705DF8044B704743
:10857000034600F11001FF221A705A70023399422B
:10858000FAD102704270027142718272C2727047F7
:1085900030B41D6995420AD314460A4621448D42DF
:1085A000996938BF2A1B214430BC4AF0BBBC30BC9F
:1085B000704700BF002070470120704701207047BE
:1085C000002070474FF40070024B10609B680B60F6
:1085D0000020704730C40020013A30B4D2B28C1C65
:1085E00004EB42040025020F092AD3B203F1300242
:1085F0008ABF37330A700B704D7002318C424FEADC
:108600000010F0D130BC70470B4A0C4B10681B684F
:108610001A22C0180A8001D10948704710B5094BC9
:1086200009491C680822FFF7D7FF204604220749A2
:10863000FFF7D2FF024810BDE8F7FF1FECF7FF1F5E
:1086400088010020EAF7FF1F8A0100209A0100201C
:1086500004230B8000487047A401002012230B80E4
:1086600000487047A80100201F22032302704370B6
:10867000704700BF08307047704700BF8161704786
:108680004FF4006303837047012380F85030704734
:10869000F0B4037C456902681F2B37D9203B2021A9
:1086A000546899400C4223D010249C40D160D4607F
:1086B0005168D940CE074ED4EFF31183502282F394
:1086C0001288EA6B1168C90709D45468002C52D18A
:1086D000D5E909618E4243D1012285F86020DBB2E1
:1086E00083F31188037C02681F2B194614D9203BA1
:1086F000082150689940084200D0D1600421506898
:1087000001FA03F3184223D1F0BC70472024166805
:108710009C4026420FD11946082310688B4018420E
:1087200000D093600423106803FA01F10842EBD0F3
:108730009160F0BC7047102199409460916011687D
:10874000D940CC07B8D5012101FA03F39360B3E710
:10875000D360F0BC7047012101FA03F3D360ABE7AB
:10876000AF690F44D7600ED82E69711A5160AC62A0
:10877000002185F86010116841F00101DBB2116041
:1087800083F31188AEE7711A5160AE62F0E700BF63
:10879000F0B4B34BB3491A780B789A4240F0078192
:1087A000B14B1A78002A68D0B04B1978B04B002929
:1087B00065D11868B3F8305141628489012A44EACE
:1087C00005048481A3F8301157D0D3F83401B3F8ED
:1087D000645241628489022A44EA05048481A3F830
:1087E00064124AD0D3F86802B3F89853416284897E
:1087F000032A44EA05048481A3F898133DD0D3F8F2
:108800009C03B3F8CC5441628489042A44EA0504E9
:108810008481A3F8CC1430D0D3F8D004B3F8005638
:1088200041628489052A44EA05048481A3F800167C
:1088300023D0D3F80406B3F8345741628489062A5A
:1088400044EA05048481A3F8341716D0D3F8380716
:10885000B3F8685841628489072A44EA0504848190
:10886000A3F8681809D0D3F86C28B3F89C49516272
:10887000908920439081A3F89C19F0BC70475C68F4
:10888000198961602568186845F0010540F20D31CD
:108890002560A0F848108489012A44F480748481FA
:1088A000EBD0D3F83841B3F83C51D3F834016560CC
:1088B000256845F001052560A0F848108489022A42
:1088C00044F480748481D8D0D3F86C42B3F87052E9
:1088D000D3F868026560256845F001052560A0F8B9
:1088E00048108489032A44F480748481C5D0D3F865
:1088F000A043B3F8A453D3F89C036560256845F002
:1089000001052560A0F848108489042A44F4807485
:108910008481B2D0D3F8D444B3F8D854D3F8D00477
:108920006560256845F001052560A0F84810848938
:10893000052A44F4807484819FD0D3F80846B3F8A4
:108940000C56D3F804066560256845F001052560DE
:10895000A0F848108489062A44F4807484818CD05D
:10896000D3F83C47B3F84057D3F83807656025681B
:1089700045F001052560A0F848108489072A44F4D1
:10898000807484813FF479AFD3F87028B3F8740809
:10899000D3F86C385060106840F001001060A3F804
:1089A00048109A8942F480729A81F0BC70475C004A
:1089B000E618304D15F83660032E3FF6F1AEDFE8CD
:1089C00006F05D261C02E01805EBC0004468661E38
:1089D000012C46603FF651AF013303F00303D8B2D8
:1089E000824208703FF4DCAE03EB4303DB00EA187D
:1089F00002200021E85451603FE7E11805EBC10176
:108A00004868461E01284E603FF637AF0DE0E1187A
:108A1000C90068184668771E012E47603FF62DAFE3
:108A200002274FF0FF366F544660E618F600AF1984
:108A30001148397B00680139C9B23973002940D027
:108A40004FF47A722344B2FBF0F200FB02F0B0F56F
:108A50007A7F05EBC30518BF01326A60A0E600BF4C
:108A60000883002009830020DC2E0010D82E00107F
:108A70007CD500200C8300205C0E002070B11D49C5
:108A8000012600220F890132002F18BF00269042D4
:108A900001F5B271F6D1002E3FF482AE164A12688B
:108AA00042F21076E018B6FBF2F102FB11620126E9
:108AB00005F8306002B13144234405EBC305696019
:108AC0006EE6BF68B7FBF0F100FB11700327AF55EE
:108AD00000B101311C44013305EBC40503F003036D
:108AE000934269603FF45CAE00293FF459AE01390E
:108AF000696055E65CCA00205C0E002010B5027C5F
:108B000001681F2A4FF020030ED94C68203A934089
:108B10001C4208D00B4A406800241470026822F0FE
:108B200001020260CB6010BD0C6893401C42FAD079
:108B3000044A406800241470026822F001020260B6
:108B40008B60F0E7B395002038F0BCBF38B51D4B03
:108B50001B78044600F1250593B104221A49203000
:108B60004BF044FD2846142218494BF03FFD0123E9
:108B700084F83A30164B1B7873B984F83B3038BD13
:108B80002846142213494BF031FD012384F83A3072
:108B90000F4B1B78002BF0D00F4B186859689A6860
:108BA000DD68E56020606160A260DD69186959696F
:108BB0009A69A2610123E5612061616184F83B301B
:108BC00038BD00BFB5400020784000206040002044
:108BD000B640002020BE050880400020014B1868E8
:108BE00021F0A4BF3C80002038B5302200214BF09A
:108BF000BFFC0346642440F2DC5040F21A4140F2CC
:108C00006C7240F202251C74588213241920998238
:108C1000DA8240F2753140F643021D839C760E25C0
:108C20000A241877D9831E2002211A84012283F88E
:108C30002E00197283F82C1083F8225083F82D40EF
:108C40009A7383F8252083F82B2019460248BDE843
:108C5000384016F0DFBC00BF28BE050810B5002163
:108C60000446012020F022F9207010BD38B5002400
:108C70000472451EE1B2022020F018F90134082CDC
:108C800005F8010FF6D138BD38B50024054604803B
:108C900021462846013435F071F9082CF8D100211D
:108CA00085F8E210A5F8E410A5F8E610A5F8E8109C
:108CB000A5F8EA10A5F8EC10A5F8EE10A5F8F0104C
:108CC000A5F8F2102846BDE8384035F019B900BFC4
:108CD0002DE9F84FDDE90A64894617460021202274
:108CE000984605464BF044FC5EB1D6E900327189E6
:108CF000EB81C3F30F432B82C2F30F43EA822B8332
:108D00006982484649F07AF917F0100B10D1431EDA
:108D100070B119F803202E2A18BF09EB030104D102
:108D20004AE011F8016D2E2E3ED013F1FF33F8D238
:108D300008280246CA46A8BF08224FF0000B4FF091
:108D400020336B602B60C5F807304946284605F193
:108D500008064AF0E7F85A46514630464AF0E2F82B
:108D60006B1EE81D13F8012FA2F1610119299CBFA8
:108D7000203A1A708342F5D105F10B0116F8013B38
:108D8000A3F16102192A9CBF203B06F8013CB142C5
:108D9000F4D11823C8F30F42EF722B73A5F81A8091
:108DA000AA82EC61BDE8F88FC01A00F1FF3BBBF16D
:108DB000030FA8BF4FF0030B082B03F1010AA8BF54
:108DC0000823CA441A46BAE72DE9F04F002087B0BD
:108DD0000C461D46012192461EF03CFE002D63D03C
:108DE00005EB0A03DFF8D094DFF8D0B403935546BF
:108DF0001CE0002D00F0C581D9F81430AB4264D0DE
:108E0000D9F81030AB4200F09780D9E90631AB4277
:108E100052D8A94200F26F81691A204645F04AFEF5
:108E2000039B01359D4204F500743DD0D9F82060C4
:108E3000AE42DED8D9F83080AE1B4FEAD60AD8F859
:108E400030300AF1020A9A4506F0070603D3D8F833
:108E500038309A4509D94146504645F0FBFD8046D9
:108E6000002800F04D81C9F8300098F80430002B3C
:108E700040F0E280D8F82870002F00F0DF81D8F8A9
:108E80003030D8F80C20AAEB030A06EBCA0A434696
:108E9000204602EB4A224FF40071B847039B01358C
:108EA0009D4204F50074C1D1002108461EF0D2FD98
:108EB000002007B0BDE8F08FA942ADD94FF4007291
:108EC000002120464BF054FBAAE7522261204123A7
:108ED000002622706270A070722284F8E70184F884
:108EE000E631D9F82800E3704FF0FF33314684F8BB
:108EF000E42184F8E521C4F8E8014FF4F07284F825
:108F0000EC3184F8ED3184F8EE3184F8EF31201D36
:108F10004BF02EFB55216FF05502C4F8F061C4F8F8
:108F2000F461C4F8F86184F8FC6184F8FD6184F8A8
:108F3000FE1184F8FF2173E74FF4007200212046F0
:108F40004BF016FBD44BD54F03CBEB2302222370FF
:108F50004FF0080C9026F8234FF0580EC4F8030089
:108F6000227484F80DC0C4F8071084F801E0A670DC
:108F70006375D9F81010D9F80830D9F81C6022733D
:108F8000591A21624FF0FF3100233F20A1763E2184
:108F9000A273E372E3736374A374E3742375A3751C
:108FA000E3756376E3766377A377E37720762177BB
:108FB00084F82C2007CFD9F8187084F82830F61BD5
:108FC00084F8293084F82A3084F82B3084F82D3046
:108FD00084F82E3084F82F3084F8313084F8323021
:108FE00084F8333080236662C4F8470004F14706F2
:108FF00084F8403029209423A94F84F846C084F88F
:10900000420084F843300E200D234FF0010C84F809
:10901000440084F8453084F830C0716003CF334693
:109020005527AA269A60C4F85200C4F8561084F84E
:10903000FE7184F8FF61F3E64FF4007200212046D0
:109040004BF096FAD8F84030002E61D104F1200799
:10905000002B77D0D8F8303092491122CDE9006644
:109060002046FFF735FED8F840301A6C04F1400A6C
:10907000002A79D01B6B8C49CDE900663846112255
:10908000FFF726FED8F84460002E3FF4C9AE4FF437
:10909000E078CDE904450CE00024CDE900C4FFF7F9
:1090A00017FEB66CBA46A8F120080EB3B8F11F0F30
:1090B0001ED93468356B96F804E011222B46214600
:1090C00050460AF1200706F11C0CBEF1000FE3D157
:1090D00072793369019342F021022B46CDF800C02A
:1090E000FFF7F6FDB66CBA46A8F12008002EDDD1D8
:1090F000DDE9044594E6E91A204645F0DBFC8FE6FD
:10910000231F04F5FE7243F804BF9A42FBD187E6A1
:10911000002BD8F844200CBF01230223C3EB061315
:10912000002A3FF47DAE966C013B002E3FF478AEF2
:10913000013BB66CF9D1002E3FF472AEA2464FF45B
:109140000078A6E7CDE900663346D9F80C1008226E
:109150002046FFF7BDFDD8F84460002E3FF460AE16
:10916000BA464FF4F07894E7CDE9006633463846C6
:1091700011224D49FFF7ACFDD8F84460002E86D18E
:109180004EE64FF40072294620464BF0F1F980225A
:109190000C2384F8BE2184F8C231D9F81000434B67
:1091A000D9F8086084F8B85183FB0032C117C1EBCD
:1091B0002232B2F5806F84F8B95184F8BA5184F83C
:1091C000BB5184F8BC5184F8BD51C4F8C601C4F841
:1091D000CA6142DBFF2384F8BF3184F8C13184F8CF
:1091E000C031324B711E83FB0132CE17C6EB2232E7
:1091F000B2F5806F29DA2E4B84F8C52183FB010379
:109200000B442C48C6EB6313C3EB831680FB03703F
:10921000891B1844DE17921022F03F020131C6EB81
:10922000E0100A43034484F8C42184F8C331552272
:10923000AA2384F8FE2184F8FF31F1E539464FF482
:10924000007220464BF094F9EAE5FF2384F8C3311D
:1092500084F8C53184F8C431E9E7154B84F8C1219D
:1092600083FB00730344134FC1EB631387FB0317A6
:10927000C3EB831C9110A0EB0C02F818DF1721F050
:109280003F010132C7EBE0100A43034484F8C021D8
:1092900084F8BF31A5E700BF3CBE050848BE0508FD
:1092A00058BE050834BE050838BE05089755454127
:1092B000832008828180808030C40020DEADBEEF34
:1092C00008B5012019F002FF174A936803F00C0358
:1092D000042B1ED0082B18D151685368490203F0A3
:1092E0003F0319D452681148B0FBF3F0C2F388135E
:1092F00000FB03F00C4B0E4A5B68C3F301430133E0
:109300005B00B0FBF3F0106008BD094B074A1A6020
:1093100008BD074B186008BDB0FBF3F05368C3F3FA
:10932000881300FB03F0E5E7003802400024F40056
:1093300060B3002010B5044C04480A46214618F0DA
:10934000B1FB204610BD00BFD816002064BE050842
:1093500010B5044C04480A46214618F0A3FB2046E9
:1093600010BD00BFD816002074BE050810B5044C0F
:1093700004480A46214618F095FB204610BD00BF60
:10938000D816002080BE05080A4608B5054920B158
:10939000054818F087FB034808BD044818F082FB15
:1093A000004808BDD8160020ACBE050894BE0508CC
:1093B0002DE9F04F87B0A94A02904068038823F056
:1093C00040031B041B0C0380038823F038031B0499
:1093D00090424FEA134300F03F8102F580629042D1
:1093E0000CBF3022382213430380029B02889B6803
:1093F00042F04002028013B11A689B88538383892C
:1094000040F2E93302E0002B00F090810289013B39
:1094100012F0020F9BB2F6D06B23838140F2E93346
:1094200002E0002B00F082810289013B12F0010F63
:109430009BB2F6D08389838940F2E93302E0002BA6
:1094400000F071810289013B12F0020F9BB2F6D04D
:109450008023838140F2E93302E0002B00F0638136
:109460000289013B12F0010F9BB2F6D08389029B67
:109470009B6813B11A689B8813830623784CDFF826
:10948000EC81DFF8ECA1774D774E04939623DFF85B
:10949000E4C101934FF0100EDAF80430C3F308036F
:1094A000002B40F0B280EFF31183002B40F0AD8031
:1094B0002068AA6823689842FAD133689A42F7D89C
:1094C000D8F800704FF47A7101FB07F39B1AB3FBD5
:1094D000F7F301FB00304FF47A774FF00109DAF827
:1094E0000430C3F30803002B70D1EFF31183002B7A
:1094F0006CD12368A96822689342FAD132689142FC
:10950000F7D8D8F8002007FB02FBABEB0101B1FB59
:10951000F2F107FB03131B1AB3F57A7FDFD3019B2C
:10952000013B0193B8D1029B9B6813B11A689B88D9
:109530005383029B586840F2E933828902E0002B92
:1095400000F085800289013B12F0020F9BB2F6D039
:10955000F523838140F2E93301E0002B77D00289C3
:10956000013B12F0010F9BB2F7D08389838940F24F
:10957000E93301E0002B67D00289013B12F0020FB2
:109580009BB2F7D0FF23838140F2E93301E0002B47
:109590005AD00289013B12F0010F9BB2F7D08389A8
:1095A000DBB20393029B9A6812B113689188198306
:1095B000039B682B60D0049B013B13F0FF030493D3
:1095C0007FF464AF184607B0BDE8F08FEFF3118168
:1095D0008EF31288D5F808B02B68DB0344BFCCF8B3
:1095E0000090D5F808B02368DCF80020C9B281F3F8
:1095F0001188D8F80010134407FB01F2A2EB0B020C
:10960000B2FBF1F207FB032385E7EFF311838EF33F
:109610001288AF682A68D20303D50122CCF8002053
:10962000AF682068DCF80090DBB283F31188D8F8CB
:1096300000104FF47A72484402FB01F3DB1BB3FBCA
:10964000F1F302FB003046E738F094F9AAE738F06E
:1096500091F9029B586889E73022C4E6003800403F
:109660008CBD002010E000E094BD002090BD0020E3
:1096700000ED00E088BD002012B1136892885A8383
:10968000029B586840F2E933828901E0002B45D003
:109690000289013B12F0020F9BB2F7D08C23838129
:1096A00040F2E93301E0002B38D00289013B12F08F
:1096B000010F9BB2F7D08389838940F2E933028995
:1096C000013B12F0020F9BB215D1002BF7D138F0FD
:1096D00051F9029B9B6813B11A689B881383059B01
:1096E000142B04D3182B17D9543B062B14D9002064
:1096F00007B0BDE8F08FFF23838140F2E93301E03A
:10970000002BE4D00289013B12F0010F9BB2F7D08D
:109710008389DBB20593DCE7032054E738F02AF9AC
:10972000029B5868C8E738F025F9A0E638F022F91E
:10973000029B58687FE600BFF0B5876983B0064694
:1097400017B13B68BA885A837069DFF8A8E083894B
:10975000C3244FF47A734FF0060C6D464FF6FF7139
:109760000EF1010E03E0013B9BB28B4220D0028937
:109770009207F8D5A3B283814FF47A7302E0A3B2C3
:109780008B4215D00289D20703F1FF34F7D58289C5
:1097900092B20DB12A700135BCF1000F0BD00CF163
:1097A000FF3CFF24BEF1000FE1D09EF80040D7E758
:1097B00038F0E0F8B76917B13B68BA881A839DF8AA
:1097C00005009DF801509DF802109DF803409DF89A
:1097D00004209DF8063041EA052143EA002342EACD
:1097E00004220120A6F85010A6F85220A6F8543002
:1097F00003B0F0BD8C460508037B022B01D000208E
:109800007047F0B5436983B013B11A689B885383DE
:109810000446006940F2E933828901E0002B5DD003
:109820000289013B12F0020F9BB2F7D0BB23838168
:1098300040F2E93301E0002B50D00289013B12F0E5
:10984000010F9BB2F7D083898389038999074FF071
:1098500005076E464FF47A724FF0FF0C4FF6FF7516
:1098600006D4531E9BB2D2B11A4603899907F8D584
:10987000A0F80CC04FF47A7302E08BB2AB420ED06A
:109880000289D20703F1FF31F7D5828992B20EB176
:10989000327001367A1E27B117461A46E5E738F0CE
:1098A00069F8636913B11A689B8813839DF80400F3
:1098B0009DF800609DF801109DF802509DF803206E
:1098C0009DF8053041EA062143EA002342EA0522D9
:1098D00001206183A283E38303B0F0BD38F04AF82E
:1098E0002069B1E72DE9F84F037C02681F2B86BF82
:1098F000203B51681168202202FA03F30B4214BF87
:10990000012300230BB9BDE8F88F4569604F044679
:1099100020F034F84FF4B27303FB057306461A7C4B
:10992000002A35D15B495A680978D2F80090D1B93C
:10993000D3F8D81058890A6822F001020A60B9F8F1
:109940000C3023EA0003A9F80C30534B1B78002B92
:1099500032D1237C21681F2B13D8202202FA03F373
:109960008B60BDE8F88F5269136823F00103136020
:10997000B9F80C3023F480731B041B0CA9F80C30CD
:10998000E3E7203B202202FA03F3CB60BDE8F88F27
:10999000D3F8D86041485F8901225A7431685A6807
:1099A0000368156821F001013160AA89013322EAB8
:1099B0000702AA810360CCE74FF4B27A0AFB05FAEA
:1099C00007EB0A05D5F8D880404619F017FB0123AC
:1099D0002B74D5F8DCB01FF0D1FF0AF18C013944AB
:1099E000CBF82C01484619F0C9FBD5E92B70D5F806
:1099F0009830D5E92D123B4303430B431343D5F86D
:109A0000BC20D5F8CC70D8F8000025491343D5F810
:109A1000C0201343D5F8D0203B43014013430B43F0
:109A20000022C5F8A420C8F80030D8F81420D5F8D2
:109A3000C430D5F8A81022F0070CD5F8C820D5E915
:109A40002770134343EA0C03C8F81430C8F8041015
:109A5000C8F80870C8F80C00D8F80020D5F8D8303D
:109A600095F8D400696842F01002C8F800205860E8
:109A70001A68096842F001021A608B896A891343E7
:109A80008B811FF07BFF074B801B186061E700BFD5
:109A90005CCA0020D82E0010D42E00106C83002049
:109AA0003F801CF02415001020B10078B0FA80F03F
:109AB000400970470120704708B520214AF06FFD2A
:109AC0000346184623B10278202A03F10103F8D097
:109AD00008BD037903F01803082B0AD002D82BB174
:109AE00000207047102B16D0182BF9D1B0F80B00BE
:109AF0007047124BB0F80B0093F90030591C06BFA9
:109B00000F4B1B78DBB2C3EB031203EB820300EBBA
:109B1000430080B270470B4BB0F80B0093F9003054
:109B20005A1C06BF064B5B78DBB203EB430203EB28
:109B3000820300EB430080B2704700BF0D0E00208F
:109B4000B8C700200C0E0020F0B5067906F0E0033F
:109B5000402B09D144794FF0FF350023012006F056
:109B60000706A3420BD1F0BD602B08BF45794FF02B
:109B700001040CBF04FA05F54FF0FF35EDE7042EA4
:109B80000CD8DFE806F0030D18242E0030B1C85CB5
:109B9000D75C784028420CBF012000200133E0E769
:109BA0000028FBD0C856D756A0EB070CDCF100000C
:109BB00040EB0C00F2E70028F0D031F8130032F847
:109BC0001370784028420CBF01200020E6E70028EF
:109BD000E4D031F9130032F91370C71B7842784191
:109BE000DCE70028DAD051F8230052F823707840DF
:109BF00028420CBF01200020D0E7024B0146186824
:109C000037F060BF307F002038B5064D441E14F891
:109C1000011F286819B9BDE8384037F0CDBE37F0CC
:109C200051FFF4E7307F00200048EDE7E4FA050833
:109C300008B5FFF7E9FFBDE80840F5E710B50446B1
:109C40000348FFF7E1FF2046BDE81040F0E700BF02
:109C500064BD050838B5074C074DAC4203D3074B2C
:109C600000221A7038BD6288D4E9010149F05AF91E
:109C70001434F2E7900100084407000878A8002097
:109C800038B5074C074DAC4203D3074B01221A707D
:109C900038BD6288D4E9011049F044F91434F2E780
:109CA000900100084407000878A80020024A1368C1
:109CB00023EA00001060704778DF0020DFED2E7A85
:109CC000B4EEE70AF1EE10FA4ADDDFED2C6A9FED03
:109CD0002C7A01E0B0EE670AB4EEC70AF1EE10FA92
:109CE00070EE667AF6DC9FED277AF4EEC77AF1EE35
:109CF00010FA3ED5DFED216A9FED237A01E0F0EE08
:109D0000407AF4EEC77AF1EE10FA37EEA60AF6D4EE
:109D1000DFED1E7AB4EEE70AF1EE10FA14DDDFEDA6
:109D2000167A37EEC00A60EE006A9FED196A9FED61
:109D3000197ADFED197AA6EE867A20EE266AE6EE2B
:109D4000877AA6EE270A7047DFED147AB4EEE70AA9
:109D5000F1EE10FA44BFDFED0B7A37EEC00AE2E70E
:109D60009FED087AF0EE407AF4EEC77AF1EE10FA41
:109D7000C0D4B0EE670ACBE7DB0F4940DB0FC94028
:109D8000E4CB1641DB0F49C0E4CB16C1DB0FC93F62
:109D900092E741B99730083C15A82ABEDB0FC9BF2E
:109DA000F0EEC07AB0EEE07AB4EEE77AF1EE10FAB7
:109DB000B4BFB0EE676AB0EE476AB5EE406AF1EE46
:109DC00010FA46D0B4EEE77AF1EE10FA8CBFF0EE5E
:109DD000675AF0EE475AC5EE866A9FED1F3A9FED2F
:109DE0001F6A9FED1F4A9FED1F5ADFED1F3ADFEDFF
:109DF0001F4ADFED1F5AA6EEC36AE6EEA34AA6EE9F
:109E0000864AB7EE006AA6EE845AA6EEA46AE6EE8B
:109E1000855AC5EE866AB4EEE77AF1EE10FA48BFCD
:109E2000DFED147AF5EEC00A48BF77EEE66AF1EE90
:109E300010FA48BFDFED107AB5EEC00A48BF77EEE2
:109E4000E66AF1EE10FA48BFF1EE666AB0EE660A15
:109E50007047DFED076ADEE739094E3DE3B59E3E08
:109E600088FA163E45FE7F3F99FB243F69A2163EC5
:109E7000A7DFA834DB0FC93FDB0F4940DFED317AA4
:109E800030EE277AFDEEC76A16EE903A2033402B6B
:109E900002D99FED2D0A7047B4EEE70AF1EE10FAF1
:109EA0004DDD9FED2A6ADFED2A6A01E0B0EE677AA8
:109EB000B4EEE67AF1EE10FA77EE467AF6DC9FED34
:109EC000257AF4EEC77AF1EE10FA35D5DFED1F6A88
:109ED0009FED217A01E0F0EE407AF4EEC77AF1EEE0
:109EE00010FA37EEA60AF6D4DFED167AB4EEE70ADA
:109EF000F1EE10FA1BDCDFED197AB4EEE70AF1EEB1
:109F000010FA44BFDFED137A37EEC00A60EE006A44
:109F10009FED136A9FED137ADFED137AA6EE867A32
:109F200020EE266AE6EE877AA6EE270A7047DFED76
:109F30000F7A37EEC00AE9E7B0EE670AD4E7F0EE31
:109F4000477ABCE7DB0FC93F00000000DB0FC940C8
:109F5000E4CB1641DB0F49C0E4CB16C1DB0FC9BF10
:109F600092E741B99730083C15A82ABEDB0F49405B
:109F700010B44C09012250F8243001F01F0102FAFC
:109F800001F123EA010340F824305DF8044B7047E7
:109F900010B44C09012250F8243001F01F0102FADC
:109FA00001F10B4340F824305DF8044B704700BFCB
:109FB0004B0901F01F0150F82320012303FA01F19E
:109FC000114214BF18460020704700BF2DE9F0432E
:109FD000002489B006460D461F46A04605E0252907
:109FE0000CD030460134A847039A531C03931178D0
:109FF0000029F4D1204609B0BDE8F083931CCDE9D7
:10A0000003385078302842D0A0F13003DBB2092B5E
:10A010004FF0000945D96C282AD0642873D019D98B
:10A02000732858D063D9752840F0828007F1040C5A
:10A03000386805AB00220A216746FEF711F905AB27
:10A04000049A009329464B463046FDF7DFFF039AFA
:10A050000444CAE725283CD051D958286BD063283E
:10A06000C2D139783046A84704370134039ABCE797
:10A07000039B5A1C03921B78642B52D016D8252BB5
:10A0800027D064D9582B18D0632BEAD0ADE7D31C66
:10A0900003939078A0F13003DBB2092B4FF0010954
:10A0A000B9D804AA03A944F057FDB4E7732B12D022
:10A0B00051D9752B2DD0782B97D1A3F15802B2FA34
:10A0C00082F23868520905AB10210437FEF7C8F850
:10A0D000B5E7252185E73B68049A009329460023CC
:10A0E0003046FDF793FF04370444039A7DE76E285A
:10A0F0007FF47AAF039A3B6804371C6075E7002849
:10A100003FF478AF70E7386805A9FEF773F80437B5
:10A1100095E7386805AB00220A21FEF7A1F804375D
:10A120008DE73B1D386805A91F46FEF763F886E7F3
:10A1300078287FF459AFA0F15802B2FA82F2386859
:10A14000520905AB1021FEF78BF8043777E7002B97
:10A150003FF450AF49E76E2BCDD046E710B5064C23
:10A160000B46024605492068FFF730FF2068BDE82E
:10A17000104037F021BC00BF307F0020498B000821
:10A1800038B504460D460848FFF73EFD29462046EF
:10A19000FFF7E4FF0548FFF737FD054B1B7813B1C8
:10A1A000044B01221A7038BD69BD050874BD05084D
:10A1B0008C8000208D8000200FB407B504A951F8D1
:10A1C000040B0191FFF7DCFFFFF72EFD03B05DF8F4
:10A1D00004EB04B0704713460A4601460048EBE71B
:10A1E00078BD05080048E7E791BD05080FB407B53D
:10A1F00004A951F8040B0191FFF7C2FF03B05DF809
:10A2000004EB04B070470FB407B504A951F8040B70
:10A210000191FFF7A3FFFFF707FD03B05DF804EB23
:10A2200004B070470FB407B504A951F8040B0191AD
:10A23000FFF794FF03B05DF804EB04B070472DE91D
:10A24000F843037903F0E001202928D002D849B16E
:10A25000BDE8F883402945D06029F9D12448BDE8FC
:10A26000F843D0E703F00703022B02D0042B08D0F9
:10A270006BB9B0F80720B0F805101E48BDE8F843E8
:10A28000C1E7D0F805201B48BDE8F843BBE7B0F9AB
:10A290000720B0F905101748BDE8F843B3E7457942
:10A2A000154E1648FFF7B0FC06EBC502002492F8E5
:10A2B00004800123A04502D8BDE8F843B4E456F871
:10A2C000357057F824204FEA84094AB113B90C4875
:10A2D000FFF79AFC57F809100A48FFF7A3FF00237D
:10A2E0000134E7E741790848BDE8F8438BE700BF50
:10A2F000D9BD05089DBD050824870508B4BD05081E
:10A30000C5BD05086BEF0508C8BD05082DE9F0417E
:10A310001746027902F0E003402B05460E462BD18A
:10A320000024554FDFF8708115E02B7903F0070307
:10A33000022B15D0032B19D0012B14BF315D3157DF
:10A340003846FFF76FFF6B79013BA34202DD4046C1
:10A35000FFF75AFC01346B79A342E6DCBDE8F081DB
:10A3600036F814103846FFF75DFFECE736F91410A5
:10A370003846FFF757FFE6E702F00702042A5DD8E8
:10A38000DFE802F0031D25272A003478202B3AD07D
:10A3900068D8002BE2D1B5F80560B5F807803648DB
:10A3A0002146FFF73FFFA64240DCA0453EDB002FE1
:10A3B000D4D0424631463148BDE8F04132E796F903
:10A3C0000040202B1FD04DD8002B3DD0C6E734884D
:10A3D000DCE7B6F90040F4E7D6F80080202B4446CD
:10A3E00011D03FD8002BB9D141462348FFF71AFFBF
:10A3F000D5F80510884519D8002FAFD02048BDE802
:10A40000F0410FE700246A791E4B03EBC201097982
:10A41000A1420BDD53F8323053F82400BDE8F0417F
:10A42000FFF7F2BB1848BDE8F041FBE6FFF7FCFB85
:10A43000224629681548BDE8F041D7E6202BE1D037
:10A4400007D8002B8AD11C46B5F90560B5F90780FD
:10A45000A5E7602BE6D0802B80D131460C48BDE8C3
:10A46000F041DFE6602BF6D16A791441E307D9D5D4
:10A470000848BDE8F041D5E6B1BD05089DEF0508E7
:10A48000F3BD05082487050862E90508F9BD05083C
:10A490006BEF0508EEBD0508F1BD05080CB407B566
:10A4A00010F020000BD079B92320FFF7A6FB05A9F7
:10A4B00004980191FFF752FEFFF7B6FB012003B0AD
:10A4C0005DF804EB02B070470020F8E70CB4C30657
:10A4D00007B500D561B905A904980191FFF73EFEC3
:10A4E000FFF7A2FB012003B05DF804EB02B0704758
:10A4F0000020F8E70EB400B584B005AB019053F826
:10A50000042B0649039301A8FFF760FD019B00227D
:10A510001A7004B05DF804EB03B0704701800008C6
:10A5200070B406688E4217D90139751E002311F8E0
:10A53000014F0822634013F0800F4FEA430318BF16
:10A5400083F0D503013ADBB2F5D18D42EFD1721C15
:10A550000260337070BC7047721C0023026033705D
:10A5600070BC70470A44914215D010B40139541E92
:10A5700011F8012F0823504010F0800F4FEA4000DF
:10A5800018BF80F0D500013BC0B2F5D1A142EFD198
:10A590005DF8044B704770474840082310F0800F67
:10A5A0004FEA400018BF80F0D500013BC0B2F5D1A2
:10A5B000704700BF0A44914215D030B40139551E8E
:10A5C00041F2210211F8014F082380EA042004041B
:10A5D0004CBF82EA40004000013B80B2F7D18D427F
:10A5E000F0D130BC7047704770B502221349144C4B
:10A5F000144E4FF6FF70FFF7DDFF22884AB1A51811
:10A60000B54218D2052A16D92146FFF7D3FF2C46AA
:10A61000F3E721460222FFF7CDFF0222A118FFF740
:10A62000C9FF094BE41A094B1C8041F60F53C31AAA
:10A630005842584170BD0020FCE700BF00400008B0
:10A640000240000800800008FA3F00087AA80020B5
:10A650000F4B2DE93048D3E9004554EA05020AD1F1
:10A66000034640F2011200201880988098715A80A9
:10A670001881BDE83088074B1A6814EB020B45F1CE
:10A68000000C5A466346FDF7FDFC0120BDE830880A
:10A69000206300208CBD002030B403888278C47809
:10A6A000154DA3F5FA6303F0030101EB4101013AF3
:10A6B00002EB81029B0835F812500279611E40F2CC
:10A6C000B55404FB03132B4403EB430302EBC30316
:10A6D0004279847909490089C3EB031302EB8303B0
:10A6E0002144C3EB031301EB83034FF47A7200217F
:10A6F000C2FB030130BC70471846050880436D3823
:10A700002DE9F04707468CB01E469246002A5CD1E0
:10A71000154614460A88B2F5FA6F36D38B78581E60
:10A720000B2832D891F803C00CF1FF301E282CD82A
:10A7300091F804E0BEF1170F27D891F80590B9F110
:10A740003B0F22D888793B281FD8B1F80880B8F58C
:10A750007A7F1AD24FF001085EBB09890491002C60
:10A76000B4BF2D212B21002CB8BF6442CDE902904B
:10A77000CDE905140795CDE900CE38462A49FFF703
:10A78000B9FE40460CB0BDE8F08700232749ADF87C
:10A7900028304FF0010C18468DF82A30ADF82C30D7
:10A7A00099469E461A4698460991634609A9002E85
:10A7B000D3D0CDE90290CDE900CE38461C49FFF751
:10A7C00099FE40460CB0BDE8F0871A4C84FB023479
:10A7D000A318D417C4EB6314C4EB0415A2EB8505CE
:10A7E0002DB2002D0846B8BF6D42FFF755FF4FF45C
:10A7F0007A7200238046894648F0F6F83C230AFB2B
:10A80000030A4FF47A7200234046494648F0ECF8B8
:10A810004FF47A7192B20023C1FB0A2309A8FDF715
:10A8200031FC24B209A975E7E4BE05080000010166
:10A83000C4BE0508898888880378202B024600F169
:10A840000100F9D0092BF7D02D2B00F0A4802B2B81
:10A8500003BF5378B7EE000A0246B7EE000AA3F131
:10A860003001C8B209289FED577A10D8F2EE046A79
:10A8700007EE901AF8EEE77A12F8013FE7EE267A33
:10A88000A3F13001C8B20928B0EE677AF0D92E2BB7
:10A8900063D003F0DF03452B02D020EE070A704798
:10A8A00010B451782D294FD02B2979D0A1F1300344
:10A8B000092B02F101027AD80024002303EB830361
:10A8C00001EB430312F8011FA1F130000928A3F1A5
:10A8D0003003F3D9B3F59A7F1A4628BF4FF49A7222
:10A8E000072B6CD9DFED386A1346F7EE007A083B88
:10A8F000072B67EEA67AFAD802F00702DAB1F2EE79
:10A90000046A012A67EEA67A15D0022A67EEA67AB3
:10A9100011D0032A67EEA67A0DD0042A67EEA67A34
:10A9200009D0052A67EEA67A05D067EEA67A062A30
:10A9300018BF67EEA67A002C3BD087EE277A5DF829
:10A94000044B20EE070A70479178A1F13003092BE0
:10A9500002F1020230D80124AFE75378A3F13001AD
:10A96000C8B2092802F1010293D8F2EE046AF0EEAF
:10A97000665A07EE901AF8EEE77A12F8013F87EE72
:10A98000A66AA3F13001C8B2092866EEA56A37EEBF
:10A99000067AEED97DE75378BFEE000A02465EE7FD
:10A9A0009178A1F13003092B02F1020284D9F7EE6C
:10A9B000007A27EE277AC2E7F7EE007ABDE7F7EED6
:10A9C000007A9BE70000000020BCBE4CF8B50646AC
:10A9D00015460846B6FBF2F434B905FB14640C4B7B
:10A9E0001B5D00F8013BF8BDB4FBF2F75FB905FB56
:10A9F0001747074B05FB1464DA5D00F8012B1B5D5C
:10AA000000F8013BF8BD3846FFF7E0FFEFE700BF75
:10AA100014BF0508B5EEC00ADFED677A674AF1EEAC
:10AA200010FACCBF30EE270A30EE670ADFED647A09
:10AA300020EE270A2DE9F047FDEEC07A88B017EE28
:10AA4000904A84EAE4760023A6EBE476CDE902336B
:10AA50000493A2FB06325FEAD208054641D105AF56
:10AA600058483946554BA3FB0623DB0803EB830309
:10AA7000A6EB4303002CC35C0B704FF00002ACBF8D
:10AA800020232D234A7038468DF8083047F0B6FA57
:10AA90000128394639D0022842D0032805BF302387
:10AAA00002A802A88DF8093049F06AFD02A847F013
:10AAB000A5FA0338C4B2224602A9284649F096FDF9
:10AAC00000232B55284647F099FA2E22431C02A951
:10AAD0002A542144E81849F06FFD284608B0BDE823
:10AAE000F087394BA3FB06235B0922D105AF35481C
:10AAF0003946324AA2FB0832D20802EB8202A8EBA6
:10AB00004202835C01F8013BACE7302302A88DF8D8
:10AB100009308DF80A308DF80B3049F031FDC5E76A
:10AB2000302302A88DF809308DF80A3049F028FD4D
:10AB3000BCE7264AA2FB06125FEA92190ED105AFC6
:10AB4000204839461D4AA2FB03C2D20802EB82020A
:10AB5000A3EB4203C35C01F8013BCAE71C4AA2FB1A
:10AB600006125FEA523A0ED105AF16483946134A2B
:10AB7000A2FB09C2D20802EB8202A9EB4202825C6C
:10AB800001F8012BDEE71348B6FBF0F058B905AF2A
:10AB900039460A20BAFBF0F200FB12A20948825C97
:10ABA00001F8012BE3E705AF39460A220193FFF7CD
:10ABB0000DFF019B0146ECE76F12033ACDCCCCCCE4
:10ABC00000007A4414BF05081F85EB51D34D621075
:10ABD0005917B7D1A086010002B370B48E1803E0F4
:10ABE000121B14D1B14215D010F8012BA2F1410370
:10ABF000192B11F8013BA3F1410598BF2032192D03
:10AC000003F12004ECD9D21A01D1002BEAD110466D
:10AC100070BC70470022104670BC704710467047E9
:10AC200070B5044608460D4647F0E8F9064602E0CE
:10AC300014F8013F43B1324629462046FFF7CCFFC6
:10AC40000028F5D1204670BD1C46204670BD00BFCF
:10AC50004FF0FF32FFF7C0BFA0F16103192B98BF7F
:10AC600020387047A0F14103192B98BF203070475E
:10AC7000202805D0093804288CBF00200120704707
:10AC8000012070472DE9F0411F46064603461C7817
:10AC90002046FFF7EDFF1D4601330028F7D12B2C8E
:10ACA00051D02D2C24D0102A804628D04FF0FF33CD
:10ACB000B3FBF2F302FB03FC6FEA0C0C5FFA8CFCB3
:10ACC000013500200BE0303CE4B2944225DA984292
:10ACD0002E461DD81AD002FB004015F8014B392C26
:10ACE000F1D944F02004602C17D9573CE4B2ECE7CA
:10ACF0004FF00108102A6C7805F10105D6D1302CEF
:10AD000023D06FF070434FF00F0CD9E76445E2D9C0
:10AD100007EA08084FF0FF30DFE701B10E60B8F135
:10AD2000000F08D027B1B0F1004F28BF4FF000400E
:10AD30004042BDE8F081002FFBD06FF00043984205
:10AD400028BF1846F5E78046D4E76C782046FFF721
:10AD500089FF782805F1010605D035466FF070436C
:10AD60004FF00F0CACE7AC786FF0704302354FF04A
:10AD70000F0CA5E701230A22002183E770B50D46D9
:10AD80001446FEF799FE0646A0B1FFF7F3FF40F622
:10AD900034039842A8BF1846B0F5617FB8BF4FF49E
:10ADA00061701923A0F5617090FBF3F0287023788F
:10ADB000013323703046FEF77FFE0646A0B1FFF751
:10ADC000D9FF40F634039842A8BF1846B0F5617F1A
:10ADD000B8BF4FF461701923A0F5617090FBF3F0D8
:10ADE0006870237801332370304670BD61381928AC
:10ADF0008CBF002001207047413819288CBF0020EB
:10AE000001207047303809288CBF0020012070478E
:10AE1000A0F13003092B07D920F020004138192870
:10AE20008CBF0020012070470120704707EE901A68
:10AE3000F8EE677A9FED807A27EE800A20EE070A07
:10AE4000FDEEC07A17EE903A2033402B7BD8DFED31
:10AE50007B7AB4EEE70AF1EE10FA40F3E180B0EE4F
:10AE6000407A9FED776ADFED776A01E0B0EE677AAE
:10AE7000B4EEE67AF1EE10FA77EE467AF6DC9FED64
:10AE8000727AF4EEC77AF1EE10FA40F1CC809FEDC1
:10AE90006C6ADFED6E6A01E0F0EE477AF4EEE67A76
:10AEA000F1EE10FA37EE867AF6D4DFED697AB4EE79
:10AEB000E77AF1EE10FA40F3A280DFED607A37EE28
:10AEC000C77A27EE076ADFED635ADFED637ADFEDBD
:10AED000636A9FED635AE6EE257A67EE065AE6EE60
:10AEE000276AF7EE007AA5EEA67AF0EE675AE7EE4B
:10AEF000055AE7EE457A87EEA55ADFED557A30EE32
:10AF0000277AFDEEC76A16EE903A2033402B1FD900
:10AF10009FED547AF6EE006AB7EE006AF7EE004A4B
:10AF2000C4EEA57A80ED045A67EEA66A27EE866A1B
:10AF300027EE877AC0ED006AC0ED026A80ED016AF3
:10AF400080ED037A7047B7EE005AF0EE455AD4E729
:10AF5000B4EEE70AF1EE10FA6BDD9FED396ADFED32
:10AF6000396A01E0B0EE677AB4EEE67AF1EE10FAF3
:10AF700077EE467AF6DC9FED347AF4EEC77AF1EE9E
:10AF800010FA53D59FED2E6ADFED306A01E0F0EE46
:10AF9000477AF4EEE67AF1EE10FA37EE867AF6D4D6
:10AFA000DFED2B7AB4EEE77AF1EE10FA33DCDFED69
:10AFB0002E7AB4EEE77AF1EE10FA44BFDFED227A92
:10AFC00037EEC77A27EE076ADFED224ADFED226A05
:10AFD000DFED227AE6EE246A67EE064AE6EE267A8E
:10AFE000B7EE006AA4EEA77AF6EE006A36EE476A7C
:10AFF000F8EE007A27EE277A66EE266A8EE7DFED16
:10B000001A7AB4EEE77AF1EE10FA44BFDFED0E7A69
:10B0100037EEC77A55E7DFED097A37EEC77AD1E721
:10B02000F0EE407A2BE7B0EE677A3EE7B0EE677A53
:10B03000B6E7F0EE477A9EE727D4D236DB0F4940D9
:10B04000DB0FC940E4CB1641DB0F49C0E4CB16C18E
:10B05000DB0FC93F92E741B99730083C15A82ABEDB
:10B06000F304353F00000000DB0FC9BF07EE901A64
:10B07000F8EE677A9FED837A27EE800A20EE070AC2
:10B08000FDEEC07A17EE903A2033402B00F281801B
:10B09000DFED7D7AB4EEE70AF1EE10FA40F3E680D8
:10B0A000B0EE407A9FED796ADFED796A01E0B0EEAB
:10B0B000677AB4EEE67AF1EE10FA77EE467AF6DCCD
:10B0C0009FED747AF4EEC77AF1EE10FA40F1D18078
:10B0D0009FED6E6ADFED706A01E0F0EE477AF4EE04
:10B0E000E67AF1EE10FA37EE867AF6D4DFED6B7A77
:10B0F000B4EEE77AF1EE10FA40F3A780DFED627A62
:10B1000037EEC77A27EE076ADFED655ADFED657A1D
:10B11000DFED656A9FED655AE6EE257A67EE065A21
:10B12000E6EE276AF7EE007AA5EEA67AF0EE675A09
:10B13000E7EE055AE7EE457A87EEA55ADFED577A36
:10B1400030EE277AFDEEC76A16EE903A2033402B98
:10B1500024D99FED577AF6EE006AB7EE006AF7EE53
:10B16000004AC4EEA57A0023836143610362C36190
:10B1700080ED045A67EEA66A27EE866A27EE877A84
:10B18000C0ED006AC0ED026A80ED016A80ED037ACD
:10B190007047B7EE005AF0EE455ACFE7B4EEE70A33
:10B1A000F1EE10FA6BDD9FED396ADFED396A01E0EF
:10B1B000B0EE677AB4EEE67AF1EE10FA77EE467A00
:10B1C000F6DC9FED347AF4EEC77AF1EE10FA53D53F
:10B1D0009FED2E6ADFED306A01E0F0EE477AF4EE83
:10B1E000E67AF1EE10FA37EE867AF6D4DFED2B7AB6
:10B1F000B4EEE77AF1EE10FA33DCDFED2E7AB4EE3E
:10B20000E77AF1EE10FA44BFDFED227A37EEC77A23
:10B2100027EE076ADFED224ADFED226ADFED227AB0
:10B22000E6EE246A67EE064AE6EE267AB7EE006A94
:10B23000A4EEA77AF6EE006A36EE476AF8EE007AD8
:10B2400027EE277A66EE266A89E7DFED1A7AB4EEF2
:10B25000E77AF1EE10FA44BFDFED0E7A37EEC77AE7
:10B2600050E7DFED097A37EEC77AD1E7F0EE407AA2
:10B2700026E7B0EE677A39E7B0EE677AB6E7F0EE28
:10B28000477A9EE727D4D236DB0F4940DB0FC9400F
:10B29000E4CB1641DB0F49C0E4CB16C1DB0FC93F3D
:10B2A00092E741B99730083C15A82ABEF304353F10
:10B2B00000000000DB0FC9BF30B402681146531C08
:10B2C000036011F8024B0160D31C5178036093783E
:10B2D000151D05601B0443EA0123D078234343EA8C
:10B2E000006030BC704700BF0368591C1A460160FB
:10B2F00012F8021B0260587841EA0020704700BF34
:10B3000003685A1C02601878704700BF70B5044685
:10B3100008460E4646F072FE314605460246206853
:10B3200047F000FE20682844206070BD38B5044610
:10B330000068154647F0F6FD22682A44226038BDB1
:10B34000036810B40A0E5C1C04601A7003680A0CCF
:10B350005C1C04601A7003680A0A5C1C04601A70A2
:10B3600003685A1C026019705DF8044B704700BFF7
:10B37000036810B40A0A5C1C04601A7003685A1C43
:10B38000026019705DF8044B704700BF03685A1CD7
:10B39000026010B4197003680A0A5C1C04601A7019
:10B3A00003680A0C5C1C04601A700368090E5A1CBE
:10B3B000026019705DF8044B704700BF03685A1CA7
:10B3C000026019700368090A5A1C026019707047FC
:10B3D00070B544880546C4F30B0422460846002194
:10B3E00049F0C6F82969094A9142034602D3084A3E
:10B3F000914204D341B11846BDE870400847224647
:10B40000BDE8704047F08EBD70BD00BF4407000826
:10B41000BC08000838B5064C064DAC4206D261683F
:10B4200020461434FFF7D4FFAC42F8D338BD00BF38
:10B430009001000844070008084B09498B4203D3D8
:10B4400009E014338B4206D21A88C2F30B029042F1
:10B45000F7D118467047002318467047900100083E
:10B46000440700082DE9F74FDFF8C4B081468A464B
:10B470000025D8462B4B0D2418686C4336F09CFAF7
:10B4800004EB0B031B7903F018034B4504D0B9F10F
:10B49000000F3ED1182B3CD10D2303FB05820093F6
:10B4A000B2F80900FFF7C8FF444407462046FEF7FC
:10B4B00010FBD7E901210646024401442046FEF76D
:10B4C00043FB1AF0100F0246009B00D008BB03FBA1
:10B4D00005831AF0200F1B680FD072B91946124865
:10B4E00000930192FEF79EFE7968019A314420464E
:10B4F000FEF70CFFFEF798FB009B0C481946FEF781
:10B5000091FEB968002231442046FEF7FFFEFEF7A7
:10B510008BFB013540F2ED139D42ABD103B0BDE88A
:10B52000F08F00BF307F002013BE050814BE050851
:10B53000DC8B050870B50546B0F80900FFF77CFF05
:10B54000064B1E7804462846FEF7C3FA16B1A368D8
:10B55000184470BD63681844FBE700BF78A800205A
:10B5600038B505460C46FFF7E5FF2A7902F00703D8
:10B5700002F0E002602A28D1022B0ED0042B18D052
:10B580003BB96A7901239340DBB2027814B11343CB
:10B59000037038BD22EA0303FAE76A790123934076
:10B5A0009BB2028814B113430380F2E722EA03033B
:10B5B000FAE76A79012303FA02F2036814B113432C
:10B5C0000360E6E723EA0203FAE7042BE1D8DFE8A9
:10B5D00003F00303050507000470DAE70480D8E7E9
:10B5E0000460D6E738B50D460446FFF7A3FF2A46A8
:10B5F00001462046BDE83840FEF788BE08B5064B38
:10B60000186838B135F092FE044B9B7813B180F086
:10B610000100C0B208BD00BF2C410020E45700204B
:10B6200008B543F0CFF916F00FFA1B2035F052FCA5
:10B6300018B1232200238271C37141F0F7FC18B1C5
:10B64000232200238271C371094B9B78012B01D007
:10B65000012008BD074B084A03F1200103F14C000B
:10B66000136042F0A7FF054B002083F8230008BDBC
:10B6700078950020BC0100202C64002000ED00E043
:10B6800008B50021032017F031FD72B647F0D0FB5A
:10B6900008B5FFF7B3FF0028FBD114201EF01EFAF7
:10B6A00000BFFFF7ABFF0028FAD0FFF7E9FF00BFAC
:10B6B00003212DE900480446084617F017FD72B62D
:10B6C000114BD3E900BC5BEA0C030AD100242146EC
:10B6D000042017F00BFD2146052017F007FD47F069
:10B6E000A7FB0A49086824B24EF6602101FB04F466
:10B6F0001BEB00024CF1000312EB040B43EBE47C68
:10B7000061465C46E4E700BF206300208CBD00205A
:10B71000074A084B10781B78074A834296BFC31A22
:10B72000C3F180030020126818441044704700BF22
:10B73000B04A00202C4A0020284A0020064A074B25
:10B7400010781B7883428ABFC3F18003C01AC018E7
:10B75000C0F17F00704700BFB04A00202C4A002093
:10B76000064808B54368DB68984705480549064A16
:10B77000002303700B70136008BD00BF18BE0020CB
:10B78000B04A00202C4A0020284A00200348436881
:10B7900013B19B6A03B118470148704718BE0020D7
:10B7A000944605082DE9F04784B0FFF7EFFF856860
:10B7B000ED0A1BD0DFF840800026C14604AFD8F860
:10B7C0000430AC196410D3F824A0E10210236A46B7
:10B7D0004846D0470F2809DD6B4653F8042B013249
:10B7E00008D19F42F9D12546B542E8DCE80204B011
:10B7F000BDE8F087661CF7E718BE00202DE9F04F82
:10B8000087B04FEA820A0491CDE9013000220B464D
:10B81000514453F8040B8B420244FAD1019B059228
:10B820002BB9424843681B689847002863D0FFF74C
:10B83000ADFF43880393059B002B4AD03C4B029AF3
:10B840003A4E1B68DDF814B092440399B3FBF1F94A
:10B8500001FB193303EB0B028A428CBFA1EB0309F6
:10B86000D946FFF793FF324B196883688B4248D95A
:10B8700073682E481B6998477168029C049D4F4667
:10B88000AC4655F8043B30461A468BB1D4F800E07C
:10B89000D1F81480BB4271461FD2C04755F8042C22
:10B8A00023687168134423600023BF1A45F8043CE1
:10B8B00004345445E4D18B69304698471C4A1368D8
:10B8C0004B441360019AABEB090B3AB3BBF1000F89
:10B8D000BBD1059807B0BDE8F08F4346E0463A4635
:10B8E00098472268D8F8003071683A44DF1B22601C
:10B8F000C8F80070DFE7019B0593059807B0BDE825
:10B90000F08F05980B490C4AA0EB0B0005900598A9
:10B9100000230B70137007B0BDE8F08F059BA3EBFD
:10B920000B030593059807B0BDE8F08F18BE002003
:10B93000284A0020B04A00202C4A002070B5104D43
:10B94000104E2B7831788B4284B016D00E4A039279
:10B950001A4402928CBF0C46CA1A04A98CBFC3F1C8
:10B9600080020024012341F8102D02A80222019434
:10B97000FFF744FF002333702B7004B070BD00BF8D
:10B980002C4A0020B04A0020304A002010B5FFF7B2
:10B99000FDFE836803B910BDFFF704FF0446FFF7FF
:10B9A000CDFF014B1C6010BD284A00202DE9F0415D
:10B9B000054614460F46FFF7E9FE83682A199A42A6
:10B9C00003D9FFF7E3FE8468641BFFF7B7FF054860
:10B9D00046682346746A3A462946A446BDE8F041C3
:10B9E000604700BF18BE002013460A4601461846AD
:10B9F000DCE700BF2DE9F04F01218BB000201CF0E7
:10BA000029F842F0B5FCFFF7C1FF41F62C72002186
:10BA1000B54848F0ADFD042017F058FB044605205A
:10BA200017F054FB0CB9002862D0002223461418EA
:10BA300043F10005204629464FF47A72002346F070
:10BA4000D3FFAA4B40F26D12A3FB00131B0C15464B
:10BA500040F2B271022408E0013111F00304A3EBBB
:10BA6000020314BF2A464FF4B7729A42F4DDDFF89E
:10BA7000ACB2002C00F03381DBF8A0209342C0F27E
:10BA8000E7819B4D01249B1A55F8042F9A4204F13B
:10BA90000104F8DD6501954C964AA4FB0064240C72
:10BAA00002FB14049448954EA0FB0420C20A4FF4F4
:10BAB000616707FB1242A6FB02646609C6EB061427
:10BAC000A2EB8402A1F2BC7120F4FF60541045EA9D
:10BAD0004121013320F0070044EA46140B4304439C
:10BAE00044EA03441C23CBF89C40CBF8A43003E089
:10BAF000DFF828B2DBF89C40DFF8EC81804E43464B
:10BB000000254C2271191846154447F00BFAE42D14
:10BB10000346C0E90744446203F14C03F1D1FFF747
:10BB200041FE031E40F392814FF0000A754ECDE9AD
:10BB300002B85746D14654469B46122205A92046D4
:10BB4000FFF734FF1222704905A848F03DFD50BBB5
:10BB50006E4B6F4907EB870507EB45051D446D4BA1
:10BB600001934C450AF101032846A4EB0908009310
:10BB700019D001373A46FEF7BDFC029B3560D3F879
:10BB80009C20019BC6F814800121642FC6E903980C
:10BB9000B362B160C6E90722726200F09B80DDF8F3
:10BBA00000A04C36A14604F50064A345C5DC642F13
:10BBB000DDE902B800F085804C4500F0828007EB9B
:10BBC0008703524D534A019207EB43031D447A1CED
:10BBD0004F492846FEF78EFCDBF89C307362012249
:10BBE000A4EB0904C6E90229C6E90733494A3560CE
:10BBF0000AF10103C6E90444B26200930AF10404A5
:10BC0000394B454EDFF818914C2707FB04F41D19FA
:10BC10003A460021284648F0ABFC3A460021284627
:10BC200048F0A6FC304B012243F80490019BAA6027
:10BC3000AB62C5E907666E62FFF7B4FDDBF89C20D6
:10BC4000009C6A62C5E90400C5E9072204344C2659
:10BC5000254A314FDFF8CC9006FB04F4151900217A
:10BC60003246284648F084FC32460021284648F0F7
:10BC70007FFC1D490123022241F804900E46AB606F
:10BC80006A71C5E907776F62FFF78CFDDBF89C30BE
:10BC9000B468EB61C0F100604000C5E90400C5E98B
:10BCA000083314B93279002A3ED14FF47A701DF06E
:10BCB00015FF002108461BF0CDFE00200BB0BDE8AB
:10BCC000F08F0AF10304BAF1000FC0D0114BCDE997
