:020000040800F2
:1000000000200010215B03082545030869E1000872
:1000100023450308214503081F450308000000008D
:100020000000000000000000000000001D45030863
:100030001B4503080000000019450308B123000810
:10004000895B0308895B0308895B0308895B0308F4
:10005000895B0308895B0308CD370008F93800087D
:10006000BD3800088138000845380008199E00088E
:10007000099E0008F99D0008E99D0008D99D000827
:10008000C59D0008B19D0008895B0308895B0308D2
:10009000AD480308895B0308895B03080938000839
:1000A000891700085D1B0008BD160008191C000810
:1000B000A11A0008E5190008895B0308895B030899
:1000C000895B0308895B0308895B0308895B030874
:1000D000895B0308E92400086D240008F123000867
:1000E00091370008895B030809450308895B030809
:1000F00055180008895B03081D190008895B03086F
:10010000000000000000000000000000895B030800
:10011000895B0308895B030895E1020881E1020815
:100120009D9D0008899D0008759D0008619D00083F
:100130004D9D0008895B03080000000000000000DE
:10014000895B0308895B0308895B030800000000E2
:10015000000000000000000000000000000000009F
:100160000000000000000000895B0308895B0308B1
:10017000895B030800000000000000000000000090
:0801800000000000895B030888
:100188002DE9F04391F800C0077BDFF8A8E0077578
:1001980000236FEA0C0C5FFA8CFC47758775C775EE
:1001A800077647768776C77607774777C3830384CA
:1001B80043848384C3849846142405254CFA05F3A4
:1001C80003F00103002B14BF19260A26434415F037
:1001D800010F04EB06015FFA83F889B214BFB94630
:1001E8004FF000092346C21801339BB2994282F8A6
:1001F8001490F8D1013D34446B1CA4B2DED118F040
:10020800010F14BF19250A25611989B22346C2189E
:1002180001339BB28B421775F9D12C44A4B2631CED
:1002280004449BB200222275AEF800300361BDE899
:10023800F08300BF300F00202DE9F04FDFF898A0C1
:10024800BAF802300B3383B01FFA83F901F1060BB9
:100258004FF001084FF0000E002711F801CB3E4681
:100268004D460122A5F10B039BB2019108E081895B
:10027800ADF8021001339BB289B2AB42217508D0A8
:10028800C418002AF3D1C41801339BB2AB422275BB
:10029800F6D103440136092F019983F814E0F6B228
:1002A8000CD0092E15D008FA07F313EA0C0F14BF67
:1002B800012200220C35ADB20137D3E709F17809E4
:1002C80059451FFA89F9C7D1AAF802E003B0BDE879
:1002D800F08F0022EEE700BF300F00202DE9F04735
:1002E800DFF860E0BEF8043004331FFA83FC01F144
:1002F8000908012711F8016BE1460025A9F104035B
:1003080007FA05F29BB23240CAB190F80CA0C418A3
:1003180001339BB24B4584F814A0F5D10135043361
:10032800082D1FFA83F9E9D10CF1200C41451FFA79
:100338008CFCDFD10023AEF80430BDE8F08792468C
:10034800E5E700BF300F0020436A8269D154436A51
:100358000169C26B01338B4228BF002343623AB361
:1003680070B4EFF31183502282F31288C66B32689F
:10037800D20704D5DBB283F3118870BC704771686B
:1003880069B9D0E90942944218D085691544F560E5
:1003980018D9A21A72608462002280F85820326844
:1003A80042F00102DBB2326083F3118870BC7047FF
:1003B800426D136843F0800313607047012280F890
:1003C8005820D7E70469A21A72608162E4E700BF87
:1003D800034610B4846BD968406954B19A6C8C1A7E
:1003E800013A005D5DF8044B08BF0A46C0B29A6442
:1003F80070471A6A805C01328A4228BF2246C0B21E
:100408001A625DF8044B7047C36B13B190F858003B
:100418007047D0E90903181AB0FA80F0400970470C
:10042800D0E909120369914238BFC9188A1AC16B09
:10043800013B19B149680A449A4201D2981A704797
:1004480000207047836B43B1826C5B689A4291BF0E
:10045800981AC0689B1AC0187047D0E907239A42B7
:100468002FBFD01AC0688018C01A70470A4B30B521
:1004780003F10C0493F900205D78072AC8BF143AE9
:10048800811804338D7213F8025C855413F8012C1B
:100498000A759C42EED130BD7460030803682DE9EB
:1004A800F0415D6A1DB12B46BDE8F0411847002AAE
:1004B800174611DD04460E460F4400E023689B688A
:1004C800204698470028F9D0236816F8011B1B68B6
:1004D80020469847BE42F1D1BDE8F08103681B6908
:1004E800184700BF00232822027043708370C3702E
:1004F800704700BF437A5A1C0344D2B242729972C1
:10050800037A93420AD84AB110B5044604F10A01A5
:10051800D0E9003098470023637210BD7047CB07BD
:1005280002D4024B024ADA60704700BF00ED00E0D7
:100538000400FA0520B10078B0FA80F0400970474D
:1005480001207047037903F01803082B05D0102BFE
:1005580015D033BBB0F80B007047134BB0F80B0045
:1005680093F90030591C06BF104B1B78DBB2C3EB64
:100578000312C3EB820300EB430080B270470A4BBF
:10058800B0F80B0093F901305A1C06BF074B5B7893
:10059800DBB203EB430203EB820300EB430080B2C0
:1005A80070470020704700BF000000200C14002096
:1005B800F0B5067906F06003402B09D144794FF075
:1005C800FF350023012006F00706A3420BD1F0BD3A
:1005D800602B08BF45794FF001040CBF04FA05F5FC
:1005E8004FF0FF35EDE7042E0CD8DFE806F0030DD9
:1005F80018242E0030B1C85CD75C784028420CBF64
:10060800012000200133E0E70028FBD0C856D75668
:10061800A0EB070CDCF1000040EB0C00F2E700282F
:10062800F0D031F8130032F81370784028420CBF2C
:1006380001200020E6E70028E4D031F9130032F960
:100648001370C71B78427841DCE70028DAD051F8EC
:10065800230052F82370784028420CBF0120002064
:10066800D0E747E703685A1C02601970704700BF5B
:100678002DE9F047089C2578002B804689460CBF59
:100688004FF0200A4FF0300A661C25B3002A26DDF9
:10069800334601E0024698B113F8011B501E0029A9
:1006A800F8D1971E60B13D46013D51464046C847C6
:1006B8006B1C002BF8DC257827EAE770013045B180
:1006C800041B29464046C847301916F8015B002D1F
:1006D800F7D1BDE8F087002A03DC2846F9E70020B7
:1006E800EEE7571EDFE700BF0378202B024600F134
:1006F8000100F9D0092BF7D02D2B00F0A4802B2B6B
:1007080003BF5378B7EE000A0246B7EE000AA3F11A
:100718003001C8B209289FED577A10D8F2EE046A62
:1007280007EE901AF8EEE77A12F8013FE7EE267A1C
:10073800A3F13001C8B20928B0EE677AF0D92E2BA0
:1007480063D003F0DF03452B02D020EE070A704781
:1007580010B451782D294FD02B2979D0A1F130032D
:10076800092B02F101027AD80024002303EB83034A
:1007780001EB430312F8011FA1F130000928A3F18E
:100788003003F3D9B3F59A7F1A4628BF4FF49A720B
:10079800072B6CD9DFED386A1346F7EE007A083B71
:1007A800072B67EEA67AFAD802F00702DAB1F2EE62
:1007B800046A012A67EEA67A15D0022A67EEA67A9D
:1007C80011D0032A67EEA67A0DD0042A67EEA67A1E
:1007D80009D0052A67EEA67A05D067EEA67A062A1A
:1007E80018BF67EEA67A002C3BD087EE277A5DF813
:1007F800044B20EE070A70479178A1F13003092BCA
:1008080002F1020230D80124AFE75378A3F1300196
:10081800C8B2092802F1010293D8F2EE046AF0EE98
:10082800665A07EE901AF8EEE77A12F8013F87EE5B
:10083800A66AA3F13001C8B2092866EEA56A37EEA8
:10084800067AEED97DE75378BFEE000A02465EE7E6
:100858009178A1F13003092B02F1020284D9F7EE55
:10086800007A27EE277AC2E7F7EE007ABDE7F7EEBF
:10087800007A9BE70000000020BCBE4C0028F0B4C2
:1008880003DA2D230B7040420131092804464FF04A
:10089800010307DD03EB83035B00B0FBF3F2092AD6
:1008A800F8D883B10F48A0FB0326B4FBF3F2092A5A
:1008B80002F1570C02F1300709DD03FB1244F3087B
:1008C80001F801CBEFD100230B70F0BC704703FB9C
:1008D8001244F30801F8017BE5D100230B70F0BC4A
:1008E800704700BFCDCCCCCC884270B44FF0010427
:1008F80042D301FB04F4B0FBF4F58D42F9D2ECB11C
:1009080042BB092D04FB150005F1570605F130021D
:100918000EDDB4FBF1F403F8016B7CB1B0FBF4F528
:10092800092D04FB150005F1570605F13002F0DC2E
:10093800B4FBF1F403F8012B002CEFD100221A705C
:1009480070BC704703F8016BB4FBF1F4002CF5D0D0
:10095800B0FBF4F5092D04FB150005F1370605F188
:100968003002EFDCB4FBF1F403F8012B002CEFD1DB
:1009780000221A7070BC70470546002AEAD1C0E709
:1009880090ED057A90ED004AD0ED066AD0ED014A67
:10099800D0ED047A90ED035AD0ED025AA4EE007A15
:1009A800B0EE406AB0EE470AB0EE667AA4EE867AF8
:1009B80067EEC07AA5EE407AE5EE867A80ED057A94
:1009C800C0ED067A704700BFD0ED057A90ED013A88
:1009D800D0ED003AD0ED064A90ED024A90ED077A44
:1009E80090ED035A90ED086AD0ED045AC0ED067AEE
:1009F800F0EE406A27EE830AC0ED056AA3EEA60A68
:100A080080ED087AA4EE240AA5EE470AA5EEC60AE8
:100A180080ED070A704700BFD0ED007A90ED017AAB
:100A280030EE670AE7EE007AB0EE670AC0ED007AAA
:100A3800704700BF704700BF30B40023022501246F
:100A480029213D220370032345708470C17082718F
:100A5800C37130BC704700BF002306214FF47A727F
:100A68000170C0E901230373704700BF30B423222B
:100A7800242325252D242E21027043702F22FF23A5
:100A8800857044718171C27143738373C37003713C
:100A98000372437230BC7047084B09498B4203D339
:100AA80009E014338B4206D21A88C2F30B02904233
:100AB800F7D11846704700231846704720D7030817
:100AC800D0DB030870B50546B0F80900FFF7E4FF6E
:100AD800064B9E7904462846FFF734FD16B1A368F5
:100AE800184470BD63681844FBE700BF300F00204E
:100AF80038B505460C46FFF7E5FF2A7902F00703EB
:100B080002F06002602A28D1022B0ED0042B18D0E4
:100B18003BB96A7901239340DBB2027814B11343DD
:100B2800037038BD22EA0303FAE76A790123934088
:100B38009BB2028814B113430380F2E722EA03034D
:100B4800FAE76A79012303FA02F2036814B113433E
:100B58000360E6E723EA0203FAE7042BE1D8DFE8BB
:100B680003F00303050507000470DAE70480D8E7FB
:100B78000460D6E7034600F11001FF221A705A708C
:100B880002339942FAD1027042708270C2700271C7
:100B9800427170474378007840EA032010FB01F067
:100BA8004FF4807190FBF1F000F30F0000B2704732
:100BB8002DE9F04FDFF8DCC1754CDCF808502288CD
:100BC800B4F90AA0C2EB25135200C2EBE502B4F94E
:100BD80002505B436A43B4F904501B135D43AD13E1
:100BE80005EBE225B5F5FA324FEAE57B85B04BF126
:100BF800FF33CDE90023DDE900325343009AA561B4
:100C0800A2FB0289CDE90201B4F9082001990098F4
:100C180009EB43095143D31700FB0311A2FB00233F
:100C28000B444FEAEA7B0AFB09F11F0308FB0B138D
:100C3800AAFB080119444FEA102A4AEA016A160376
:100C48004FEA212B47EA12571AEB0602E6884BEBCC
:100C5800070312F1000A43F5004BAAFB060106FB45
:100C68000B114A10CB1752EA030100F08E80B4F939
:100C78001060009806FB09F1F71708FB0711A6FB9F
:100C880008673944B4F90E808B4601994FEAE87930
:100C980008FB01F100FB0911A8FB00898944DCF875
:100CA8000C104FEA4947C1F5801C47EAD837B246CD
:100CB8004FEA4846B4F90C801AEB060A66464BEB35
:100CC800070BF7174FEAC806019600260096F907A2
:100CD800DDE900674FEACC7016EB0A0647EB0B0715
:100CE80041EA5C01801B61EB070140F6354C8946FF
:100CF800A0FB0C010CFB091134F042FDB4F91620DD
:100D0800B4F914A04E13470B47EAC14702FB06FC8F
:100D1800D31707FB03CCA2FB07236344564307FB07
:100D28000366A2FB07233344560E46EAC31632185D
:100D38004FEA636747EB010380460AFB01F14FEA7C
:100D4800EA7B08FB0B17AAFB08013944C60C46EAE4
:100D5800413612EB06084FEAE147B4F9122043EB9B
:100D680007094FEA182141EA096113010B44029A65
:100D78000AB11B0A1360039B23B105EB8505803577
:100D88002D121D6005B0BDE8F08F0023EFE700BF0E
:100D9800BC1E0020300F0020704770474FF40063DE
:100DA800038370474FF4006303837047012380F87F
:100DB8005030704707B5F7216A462FF073FB9DF84E
:100DC80001309DF800100C4A1B0143EA01339DF8DD
:100DD800021043EA1113D3609DF804309DF8031004
:100DE8001B0143EA01339DF8051043EA1113936090
:100DF80003B05DF804FB00BF300F002070B4D0E9E9
:100E08000041057B02690223AB4063600B684FF623
:100E1800FE7003400B60EFF31183502181F31288B9
:100E2800D66B3168C9071CD4706870B9D2E909411A
:100E38008C4213D095690D44F56017D81469611A6E
:100E480071609062002182F85810326842F0010205
:100E5800DBB2326083F3118870BC7047012182F8DD
:100E68005810DBB283F3118870BC7047611A716047
:100E78009462E7E770B40468037B2268022101FAF0
:100E880003F31A4216D0026911481249642505FB7A
:100E980002020D785068016875B915695289286889
:100EA8004FF6FE7630402860C868D24392B20240BE
:100EB800CA60636070BC7047006902684FF6FE75CF
:100EC8002A400260CA684FF6FF600240CA60F0E735
:100ED800385500203455002010B50168047B0A6895
:100EE8000223A3401A420AD0054A4068002414701D
:100EF800026822F001021204120C02604B6010BD5D
:100F0800C444002038B5074C074DAC4203D3074B07
:100F180000229A7138BD6288D4E9010135F02FF8B2
:100F28001434F2E720D70308D0DB0308300F002081
:100F380038B5074C074DAC4203D3074B01229A71D1
:100F480038BD6288D4E9011035F019F81434F2E795
:100F580020D70308D0DB0308300F002010B4272166
:100F6800262401220023047041708270C3705DF84A
:100F7800044B704770B544880546C4F30B042246F9
:100F88000846002135F01FF82969094A91420346AD
:100F980002D3084A914204D341B11846BDE87040D3
:100FA80008472246BDE8704034F0E9BF70BD00BF75
:100FB800D0DB0308E0DC030810B50368017B1A687E
:100FC80002238B40134204460FD00F4A13690133A2
:100FD800202B13610AD1182200210C4834F0F3FFAA
:100FE800217B226802238B40536010BD222BF7D14E
:100FF80000231361064A13704268136823F0010343
:101008001B041B0C1360EBE7300F0020041E0020AC
:10101800592A002030B40223152101221425222444
:101028000372417000234FF6FF714571C47002705E
:101038000271827043818381C3810182817430BCD3
:10104800704700BF30B50446406D21710368A2683F
:1010580023F00103036087B06379009213F0040F53
:101068004FEA03324FEA032314BF4FF4805500259B
:1010780003F4806302F400520195CDE902230025B0
:1010880011F0010305952ED1049308238D076946B5
:1010980048BF04931BF022FB2079636D617900F04F
:1010A8000202002A15BF4FF440324FF480324FF449
:1010B8000034002410F0010F586808BF2246CC07FE
:1010C8004CBF024320EA02025A609A6809074CBFE3
:1010D80042F0080222F008029A601A6842F00102FF
:1010E8001A6007B030BD042304930C23CEE700BF79
:1010F80030B50446406DA160036823F00103036026
:101108006379257987B013F0040F4FEA03324FEA69
:10111800032303F4806302F40052CDE90223009113
:1011280014BF4FF480510021EB0748BF04230191FD
:101138004FF00001CDE9041154BF08230493694618
:1011480048BF0C23AD0748BF04931BF0C7FA2079AA
:10115800636D617900F00202002A15BF4FF4403236
:101168004FF480324FF40034002410F0010F586817
:1011780008BF2246CC074CBF024320EA02025A604D
:101188009A6809074CBF42F0080222F008029A60E8
:101198001A6842F001021A6007B030BD08B5202174
:1011A80034F028FF0346184623B10278202A03F1B9
:1011B8000103F8D008BD00BF38B52C22002134F057
:1011C80002FF034640F2DC51642040F21A4240F22A
:1011D800022418745982132019219A8240F2753218
:1011E80040F26C751C8398760E2402201977DA83F6
:1011F8000A210122DD8283F82A0040F6430583F89C
:101208002B1083F822409A7383F8252083F829202D
:101218001D8419460248BDE8384017F005BA00BFDA
:1012280004A40308F8B52A4E2A4D32782B789A423E
:1012380042D1294B93F800C0BCF1000F3BD0274A9C
:10124800274B1078002140F20D3E11E05C681F89A1
:101258006760276847F001072760A2F848E0D4686C
:10126800013144F480746145D46003F598730FDA52
:101278001A680028EAD15062B3F82C41D7680131C6
:101288003C436145D46003F5987323F8040CEFDB05
:1012980032782B789A420ED003EB830292001149E0
:1012A80088580A4438B9117A29B9527A1AB90133D7
:1012B80003F003032B70F8BD2CF086FC0028FAD04D
:1012C800054B93F800C0BCF1000FB8D1E0E700BFB0
:1012D800453A0020443A0020585800203455002050
:1012E8005C580020483A0020014B18600CF092BF6F
:1012F8000853002070B5234923480A784B78CD7BE2
:101308002249234EC2EB0214C2EB840203EB4304CE
:10131800002D03EB84031F4D1F4C01EB430300EB2F
:10132800420214BF2821202133602260296022F064
:10133800F7FB30220021194834F045FE20681FF0E1
:10134800B3FE22F051FB164A16491079164A174B7C
:101358001160C822642111FB00210022C3E9011297
:10136800C3E90322C3E90522DA6183F8202083F860
:10137800212015F035FD0E4BBDE87040997D988A07
:1013880021F0ECB90C14002034140020D4150020EE
:101398000C290020100E0020082900200436002007
:1013A800E82B0020D01A002034120020DC25002071
:1013B800300F00200C290ED8DFE801F01B0D0D0DB1
:1013C800140D0D0D0E0D0D0D0700C36923F40063F8
:1013D80043EA0222C2617047C36923F008031A4333
:1013E800C2617047836923F4006343EA0222826181
:1013F8007047836923F008031A438261704700BF6E
:10140800F0B40C292BD8DFE801F0752A2A2A502AD3
:101418002A2A2C2A2A2A0700046AB2F80CC09788BC
:1014280016686B4D24F480540462036A4468C169E9
:1014380023F4005343EA0C3321F4E641A84243EA7B
:10144800073341EA062100F0BC8005F50065A84293
:1014580000F0B78092684460C16102640362F0BC26
:101468007047046AB2F80CC097881668584D24F47F
:1014780080740462036A4468C16923F4007343EA10
:101488000C2321F07301A84243EA072341EA06012D
:1014980000F0848005F50065A8427FD0926844601A
:1014A800C161F0BCC26303627047046AB2F80CC041
:1014B80097881668464D24F010040462036A44684D
:1014C800816923F0200321F0807143EA0C1321F491
:1014D800E641A84243EA071341EA06214BD005F545
:1014E8000065A84247D0926844608161F0BC82637D
:1014F80003627047046A9389B2F804C01768344ECF
:1015080024F001040462046A4568816921F4803189
:1015180024F0020443EA0C0321F07301B04243EAC9
:10152800040341EA07010ED02A4CA0420BD004F56F
:101538004064A04207D004F58064A04203D004F5BB
:101548008064A04210D1D489168A578AB2F806C09E
:1015580023F00803234325F4407523F0040346EAE7
:1015680007044CEA03032543926845608161F0BC97
:10157800426303627047D589178AD68823F08003AF
:1015880043EA051324F44064558A23F0400344EAEF
:10159800870443EA061344EA8504A4E7D589178A31
:1015A800D68823F4006343EA052324F44054558A7B
:1015B80023F4806344EA071443EA062344EA051443
:1015C8006CE7158A24F4804444EA851442E700BF96
:1015D800002C0140003401402DE9F047F0220021A1
:1015E8002848294C294E2A4FDFF8B480DFF8B490F8
:1015F800DFF8B4A034F0E7FC264A2748DFF8ACC08F
:10160800DFF8ACE002F590711368834221D0B3F1A2
:10161800804F24D0B34227D0BB4227D0634527D080
:10162800734527D043450ED04B4525D0534526D08A
:101638001A4DAB4208BF4FF4802506D018329142AC
:10164800E2D1BDE8F0874FF40055A3692B43A361AD
:10165800F4E7A3694FF400652B43A361EEE7012586
:10166800E3692B43E361E9E70225F9E70425F7E796
:101678001025F5E72025F3E74FF48035E5E74FF42B
:101688000035E2E74C390020001002400004004019
:1016980000080040E0940308002C01400048014085
:1016A8000034014000400140004401400010004067
:1016B800001400402DE9F8432F4D2A69EB6812EA1F
:1016C800030826D02D4E4FF00047B8FA88F327FAC2
:1016D80003F2D2431B3B2A6108EA0208042B15D8FF
:1016E800DFE803F0372D23190300D6F8EC30002B80
:1016F80039D1EB6A1FFA83F9D6F8E84034B1236888
:101708002046494698476468002CF8D1B8F1000F84
:10171800DBD1BDE8F883D6F8C800696B036889B2E5
:101728009847B8F1000FD0D1F3E7D6F8CC00A96BF1
:10173800036889B29847B8F1000FC6D1E9E7D6F82F
:10174800D000E96B036889B29847B8F1000FBCD1A3
:10175800DFE7D6F8D400296C036889B29847B8F156
:10176800000FB2D1D5E703F1FF3900231FFA89F939
:10177800C6F8EC30C0E700BF004801404C390020F3
:101788002DE9F8432F4D2A69EB6812EA030826D0A1
:101798002D4E4FF00047B8FA88F327FA03F2D243E8
:1017A8001B3B2A6108EA0208042B15D8DFE803F07E
:1017B800372D23190300D6F8C430002B39D1EB6A32
:1017C8001FFA83F9D6F8C04034B123682046494649
:1017D80098476468002CF8D1B8F1000FDBD1BDE858
:1017E800F883D6F8A000696B036889B29847B8F106
:1017F800000FD0D1F3E7D6F8A400A96B036889B22B
:101808009847B8F1000FC6D1E9E7D6F8A800E96B08
:10181800036889B29847B8F1000FBCD1DFE7D6F862
:10182800AC00296C036889B29847B8F1000FB2D1AF
:10183800D5E703F1FF3900231FFA89F9C6F8C43048
:10184800C0E700BF004001404C3900202DE9F843B3
:101858002E4D2A69EB6812EA030826D02C4E4FF069
:101868000047B8FA88F327FA03F2D2431B3B2A61F0
:1018780008EA0208042B15D8DFE803F0352B2219F3
:101888000300D6F89C30002B37D1EB6A1FFA83F996
:10189800D6F8984034B1236820464946984764688A
:1018A800002CF8D1B8F1000FDBD1BDE8F883B06F98
:1018B800696B036889B29847B8F1000FD1D1F4E792
:1018C800F06FA96B036889B29847B8F1000FC8D1C7
:1018D800EBE7D6F88000E96B036889B29847B8F15E
:1018E800000FBED1E1E7D6F88400296C036889B2FD
:1018F8009847B8F1000FB4D1D7E703F1FF390023B7
:101908001FFA89F9C6F89C30C2E700BF00340140CD
:101918004C3900202DE9F8432E4D2A69EB6812EA6C
:10192800030826D02C4E4FF00047B8FA88F327FA60
:1019380003F2D2431B3B2A6108EA0208042B15D89C
:10194800DFE803F0352B22190300D6F89C30002B72
:1019580037D1EB6A1FFA83F9D6F8984034B1236877
:101968002046494698476468002CF8D1B8F1000F22
:10197800DBD1BDE8F883B06F696B036889B298471B
:10198800B8F1000FD1D1F4E7F06FA96B036889B201
:101998009847B8F1000FC8D1EBE7D6F88000E96B9B
:1019A800036889B29847B8F1000FBED1E1E7D6F8CD
:1019B8008400296C036889B29847B8F1000FB4D144
:1019C800D7E703F1FF3900231FFA89F9C6F89C30DD
:1019D800C2E700BF003401404C3900202DE9F8432C
:1019E8002B4D2A69EB6812EA030824D0294E4FF0E0
:1019F8000047B8FA88F327FA03F2D2431B3B2A615F
:101A080008EA0208042B13D8DFE803F0322920176C
:101A18000300736F002B34D1EB6A1FFA83F9346F1C
:101A280034B123682046494698476468002CF8D1A9
:101A3800B8F1000FDDD1BDE8F883306D696B03683C
:101A480089B29847B8F1000FD3D1F4E7706DA96B4C
:101A5800036889B29847B8F1000FCAD1EBE7B06DB7
:101A6800E96B036889B29847B8F1000FC1D1E2E782
:101A7800F06D296C036889B29847B8F1000FB8D1A6
:101A8800D9E703F1FF3900231FFA89F97367C6E71D
:101A9800000400404C3900202DE9F8434FF0804500
:101AA8002A69EB6812EA030824D0294E4FF0004750
:101AB800B8FA88F327FA03F2D2431B3B2A6108EAF3
:101AC8000208042B13D8DFE803F03229201703009B
:101AD800F36C002B34D1EB6A1FFA83F9B46C34B180
:101AE80023682046494698476468002CF8D1B8F125
:101AF800000FDDD1BDE8F883B06A696B036889B26D
:101B08009847B8F1000FD3D1F4E7F06AA96B0368DE
:101B180089B29847B8F1000FCAD1EBE7306BE96B8F
:101B2800036889B29847B8F1000FC1D1E2E7706B3A
:101B3800296C036889B29847B8F1000FB8D1D9E782
:101B480003F1FF3900231FFA89F9F364C6E700BFE0
:101B58004C3900202DE9F8432B4D2A69EB6812EA2D
:101B6800030824D0294E4FF00047B8FA88F327FA23
:101B780003F2D2431B3B2A6108EA0208042B13D85C
:101B8800DFE803F0322920170300736A002B34D1F1
:101B9800EB6A1FFA83F9346A34B123682046494650
:101BA80098476468002CF8D1B8F1000FDDD1BDE882
:101BB800F8833068696B036889B29847B8F1000FF9
:101BC800D3D1F4E77068A96B036889B29847B8F174
:101BD800000FCAD1EBE7B068E96B036889B2984790
:101BE800B8F1000FC1D1E2E7F068296C036889B247
:101BF8009847B8F1000FB8D1D9E703F1FF390023AE
:101C08001FFA89F97362C6E7002C01404C3900209D
:101C18002DE9F8432B4D2A69EB6812EA030824D012
:101C2800294E4FF00047B8FA88F327FA03F2D24357
:101C38001B3B2A6108EA0208042B13D8DFE803F0EB
:101C4800322920170300736A002B34D1EB6A1FFA7C
:101C580083F9346A34B12368204649469847646852
:101C6800002CF8D1B8F1000FDDD1BDE8F883306859
:101C7800696B036889B29847B8F1000FD3D1F4E7CC
:101C88007068A96B036889B29847B8F1000FCAD188
:101C9800EBE7B068E96B036889B29847B8F1000FC1
:101CA800C1D1E2E7F068296C036889B29847B8F1B6
:101CB800000FB8D1D9E703F1FF3900231FFA89F9DA
:101CC8007362C6E7002C01404C390020F0B5066865
:101CD800494CB30AA34200F08C800AD9474CA3426E
:101CE80063D00234A34200F08180053CA3425FD058
:101CF800F0BDB3F5801F76D04A3CA342F8D17027D7
:101D0800022590F805C002232CFA03F0844683408C
:101D1800A800002954D0D6F80CE044190CEB440C68
:101D28009BB2374C43EA0E030CF1040E44F82C1016
:101D380044F82E20F360E319EFF31181502282F367
:101D48001288421904EBC202D2F810C0BCF1000F8D
:101D580003D044F807C013690433421904EBC202E4
:101D6800576917B11F6053690433421904EBC20263
:101D7800976917B11F6093690433421904EBC202D3
:101D8800D76917B11F60D36904330022C9B21A603A
:101D980081F31188284404EBC004236A5BB9F36813
:101DA8004FF6FE721340F360F0BDC0270425A8E784
:101DB80098270325A5E7F36843F00103F360F0BD16
:101DC800D6F80CE00E4CDB439BB203EA0E0300EBA3
:101DD800050E0CEB4E0CF3600CF1040344F82C10C8
:101DE80044F82320A7E7482701258AE7E82705259F
:101DF80087E72027002584E74B00100050001000DB
:101E08004C39002030B50368594D1888594CB4FB3B
:101E1800F2F20139013AAB4294B283B089B282B28C
:101E28000DD0554883420AD0B3F1804F07D0A0F5B2
:101E38009830834203D000F58060834202D122F0BB
:101E4800700292B24D48834269D000F580608342A7
:101E580041D022F4407200F58C3092B283421A804D
:101E6800D9621C8564D100221A8601225A611A8817
:101E78003F4942F001028B421A8069D0B3F1804F8A
:101E880068D03F4A934267D002F58062934265D09A
:101E980002F50062934263D002F58062934261D0FA
:101EA80002F5903293425FD002F5406293425DD0D2
:101EB80002F58062934217D002F58062934208BF10
:101EC800092212D002A84FF0012340F8043D1AF06D
:101ED80045F903B030BD01201A80D9621C855861CC
:101EE8001A8802431A80C9E70822264B03EBC2036B
:101EF80001A85C7C8DF80440012300228DF8053090
:101F08008DF807308DF806201AF028F91B2CE0D13F
:101F18001D4B019301A81AF021F903B030BD01202F
:101F28001A80D9621C8558611A8802431A80A8E76A
:101F3800114A934297D002F54062934293D002F53A
:101F4800806293428FD002F5806293428BD08CE7F7
:101F58000022CAE70122C8E70222C6E70322C4E733
:101F68000422C2E70522C0E70622BEE70722BCE733
:101F7800002C014000A24A04003401400010004037
:101F88000004004074600308190100011F4B9842C7
:101F98002CD0B0F1804F2BD0A3F59433984229D0A0
:101FA80003F58063984227D003F50063984225D053
:101FB80003F58063984223D003F59033984221D0EB
:101FC80003F5406398421FD003F58063984207D019
:101FD80003F58063984208BF092202D000207047A9
:101FE80008220B4B03EBC203187C70470022F8E76A
:101FF8000122F6E70222F4E70322F2E70422F0E7DF
:102008000522EEE70622ECE70722EAE7002C01406A
:102018007460030870B4104E002332461D46012434
:1020280003E001330C2B0CD0947930EA040402F15C
:102038001802F6D1A94207D0013301350C2BEDB2B5
:10204800F2D1002070BC704703EB430306EBC303D7
:1020580070BC1879704700BFE094030810B50021E0
:1020680004460120FFF7D6FF207010BD38B50024C4
:102078000472451EE1B20220FFF7CCFF0134082CA0
:1020880005F8010FF6D138BDC0B110B40C4C1F21B2
:102098002246002300E01179884202F1180206D096
:1020A80001330C2BF7D100205DF8044B704703EB8C
:1020B800430304EBC3005DF8044B7047704700BF4F
:1020C800E0940308224B5B68C3F3080330B4D3B928
:1020D800EFF31183BBB91F4A1F4D2048136884686A
:1020E80011688B42FAD129688C42F7D81C4A1168CA
:1020F8004FF47A7202FB01F0001B30BCB0FBF1F028
:1021080002FB03007047EFF31182102383F3128858
:1021180003F1E023D2B29C68196811F4803F114999
:102128001EBF012008609C680A4B18680B6882F380
:1021380011880B4A11684FF47A72034402FB01F0CC
:10214800001B30BCB0FBF1F002FB0300704700BF7E
:1021580000ED00E060430020F847002010E000E0B8
:10216800F4470020F04700202DE9F84F8046274C1F
:10217800274DDFF8A490274EFFF7A4FFDFF89CE077
:10218800DFF89CC04FF0100A4FF47A77DCF804307F
:10219800C3F30803CBB9EFF31183B3B92368A96874
:1021A80022689342FAD132689142F7D8DEF80020CB
:1021B80007FB02FBABEB0101B1FBF2F107FB0313D9
:1021C8001B1A4345E2D3BDE8F88FEFF311818AF378
:1021D8001288D5F808B02B68DB0304D50123C9F8A9
:1021E8000030D5F808B02368D9F80020C9B281F3C7
:1021F8001188DEF80010134407FB01F2A2EB0B0272
:10220800B2FBF1F207FB0323DAE700BF60430020CB
:1022180010E000E0F8470020F0470020F4470020D5
:1022280000ED00E010B5064C237E0BB9002010BD70
:10223800FFF748FFE369C01AD0F5FA50F7D5F5E77C
:10224800300F0020054B53F8203033B11A689B88B3
:10225800918A0B4218BF1B0493617047C047002046
:102268002DE9F04FDFF834C1494CDFF834E1DFF8ED
:102278003481484E824648481AF1FF3AC0F08680B9
:10228800DCF80430C3F30803002B5ED1EFF31183AD
:10229800002B5AD10568A26803689D42FAD13368B9
:1022A8009A42F7D8DEF800704FF47A7101FB07F311
:1022B8009B1AB3FBF7F301FB0535DCF80430C3F3D5
:1022C80008034FF010094FF47A77F3B9EFF311834D
:1022D800DBB90368A16802689342FAD13268914277
:1022E800F7D8DEF8002007FB02FBABEB0101B1FBDE
:1022F800F2F107FB03135B1BB3F57A7FBCD2DCF862
:102308000430C3F30803002BE0D0EFF3118189F305
:102318001288D4F808B02368DB0304D50123C8F871
:102328000030D4F808B00368D8F80020C9B281F3A7
:102338001188DEF80010134407FB01F2A2EB0B0230
:10234800B2FBF1F207FB0323D5E7EFF31183102269
:1023580082F31288A1682268D20303D50122C8F843
:102368000020A168D0F80090D8F80050DBB283F3C1
:102378001188DEF800704FF47A724D4402FB07F3BF
:102388005B1AB3FBF7F302FB053596E7BDE8F08F60
:1023980010E000E0F84700206043002000ED00E076
:1023A800F4470020F047002030B4EFF311831022E7
:1023B80082F31288084809490268094D094C01321C
:1023C80002608A682A6000222260DBB20A6883F30E
:1023D800118830BC704700BF6043002010E000E067
:1023E800F8470020F04700201D4B70B59C68636DCE
:1023F800A26BDD69CAB1E36B33B12B0700D470BDA2
:10240800636D08221A6270BD2A06F6D5D4E909025E
:102418008242616D11D0501CA669A062B25C266927
:102428000A85B042E9D3A362E7E7A906E3D5E26AE1
:1024380042B1988C216B9047DDE70B6823F080034D
:102448000B60DAE7E1699B8C6069DBB24E1CE661E0
:102458004354E169E368994228BFE261CBE700BFD2
:10246800E44100201D4B70B55C68636DA26BDD69AB
:10247800CAB1E36B33B12B0700D470BD636D08227A
:102488001A6270BD2A06F6D5D4E909028242616D46
:1024980011D0501CA669A062B25C26690A85B042B8
:1024A800E9D3A362E7E7A906E3D5E26A42B1988CCB
:1024B800216B9047DDE70B6823F080030B60DAE7B8
:1024C800E1699B8C6069DBB24E1CE6614354E169AB
:1024D800E368994228BFE261CBE700BFE4410020EE
:1024E8001D4B70B51C68636DA26BDD69CAB1E36BE7
:1024F80033B12B0700D470BD636D08221A6270BD1A
:102508002A06F6D5D4E909028242616D11D0501C21
:10251800A669A062B25C26690A85B042E9D3A362C3
:10252800E7E7A906E3D5E26A42B1988C216B9047A8
:10253800DDE70B6823F080030B60DAE7E1699B8C29
:102548006069DBB24E1CE6614354E169E368994275
:1025580028BFE261CBE700BFE4410020002A12DD7A
:1025680070B504460D468E18236820469B68984728
:102578000028F9D0236815F8011B1B6820469847E6
:10258800B542F1D170BD70470368DB6A03B11847E3
:10259800704700BF03689B6A03B11847704700BFC4
:1025A80003682DE9F0415D6A1DB12B46BDE8F04195
:1025B8001847002A174611DD04460E460F4400E06E
:1025C80023689B68204698470028F9D0236816F8A6
:1025D800011B1B6820469847BE42F1D1BDE8F08137
:1025E80003685B69184700BF0368DB68184700BFCA
:1025F80003689B68184700BF03685B68184700BFFB
:1026080003681B68184700BF014B1868F8E700BF4C
:102618007013002003682DE9F04F03F13845A94EE7
:10262800AD0A0124755D05F01F066D09022D04FA37
:1026380006F400F08D81032D00F08581012D00F056
:102648003B818088B0FA80F4C4F11F04A4B2E50885
:1026580003EB850504F007042E6AA4000F27A740A2
:1026680026EA07062E622E6A01F0030702FA04F42E
:102678007A1E3443012AC1F3810EC1F300182C627B
:10268800C1F3411140F22281C60700F10881850794
:1026980000F1F680440700F1E480020700F1D280DF
:1026A800C60600F1C080850600F1AE80440600F140
:1026B8009C80020600F18A80C60578D4850567D417
:1026C800440556D4020545D4C60434D4850423D41D
:1026D800440412D4020401D4BDE8F08F1A6822F031
:1026E80040421A601A6842EA87771F60DA6822F067
:1026F800404242EA8171D960EEE71A6822F04052FE
:102708001A601A6842EA07721A60DA6822F04052C0
:1027180042EA0172DA60DDE71A6822F040621A6064
:102728001A6842EA87621A60DA6822F0406242EA6E
:102738008162DA60CCE71A6822F040721A601A687F
:1027480042EA07621A60DA6822F0407242EA0162DD
:10275800DA60BBE71A6822F440021A601A6842EA93
:1027680087521A60DA6822F4400242EA8152DA603B
:10277800AAE71A6822F440121A601A6842EA075255
:102788001A60DA6822F4401242EA0152DA6099E7E4
:102798001A6822F440221A601A6842EA87421A60CC
:1027A800DA6822F4402242EA8142DA6088E71A684D
:1027B80022F440321A601A6842EA07421A60DA685C
:1027C80022F4403242EA0142DA6077E71A6822F4DA
:1027D80040421A601A6842EA87321A60DA6822F4BC
:1027E800404242EA8132DA6066E71A6822F44052CF
:1027F8001A601A6842EA07321A60DA6822F440520C
:1028080042EA0132DA6054E71A6822F440621A6038
:102818001A6842EA87221A60DA6822F4406242EAB9
:102828008122DA6042E71A6822F440721A601A6854
:1028380042EA07221A60DA6822F4407242EA012268
:10284800DA6030E71A6822F0C0021A601A6842EAB1
:1028580087121A60DA6822F0C00242EA8112DA604E
:102868001EE71A6822F030021A601A6842EA071254
:102878001A60DA6822F0300242EA0112DA600CE7E4
:102888001A6822F00C021A601A6842EA87021A6073
:10289800DA6822F00C0242EA8102DA60FAE61A6883
:1028A80022F003021A601A683A431A60DA6822F0C2
:1028B80003020A43DA60EAE6034D6E6934436C6149
:1028C800BFE600BF149603080010024000224FF034
:1028D800010C4FF003090CFA02F636EA00042ED177
:1028E8005400D3F808A009FA04F5ED4305EA0A0AEA
:1028F800C3F808A0D3F808B00EFA04FA4AEA0B0A9B
:10290800C3F808A0B3F804A02AEA06069E80B3F824
:1029180004A008FA02F646EA0A06B6B29E801E68C5
:102928002E401E60D3F800A007FA04F646EA0A060D
:102938001E60DE6801FA04F435402C43DC60013285
:10294800102AC8D1C8E6054DEE693443EC6178E633
:10295800024DAE693443AC6173E600BF001002401B
:1029680010B50409013C052C17D80E4B33F8142078
:1029780000F00F0042FA00F313F001030FD0012317
:1029880003FA00F00138104032F04AFF064A074BBC
:10299800125D104403EBC00010BD002010BD1846A6
:1029A80010BD00BF009603080C960308644300207E
:1029B8002DE9F04F4A484B4B4B4C4FF090414FF0AC
:1029C800010A4FF002094FF004084FF0080E4FF0CB
:1029D800100C20274026802530F8022B12F0010F1A
:1029E80003D01960A3F804A0083312F0020F03D033
:1029F8001960A3F80490083312F0040F03D019608B
:102A0800A3F80480083312F0080F03D01960A3F864
:102A180004E0083312F0100F03D01960A3F804C0C3
:102A2800083312F0200F02D019609F80083312F08B
:102A3800400F02D019609E80083312F0800F02D038
:102A480019609D80083312F4807F05D04FF4807B95
:102A58001960A3F804B0083312F4007F05D04FF4CE
:102A6800007B1960A3F804B0083312F4806F05D016
:102A78004FF4806B1960A3F804B0083312F4006FA8
:102A880005D04FF4006B1960A3F804B0083312F4B2
:102A9800805F05D04FF4805B1960A3F804B0083359
:102AA80012F4005F05D04FF4005B1960A3F804B07E
:102AB800083312F4804F05D04FF4804B1960A3F807
:102AC80004B00833D20B04D04FF4004219609A8046
:102AD800083301F58061A1427FF47EAFBDE8F08F35
:102AE80000960308644300200018004800B97047A6
:102AF80003682DE9F04F03F138449C4EA40A0125E0
:102B0800345D04F01F066409022C05FA06F500F08E
:102B18007481032C00F06C81012C00F022818088E4
:102B2800B0FA80F4C4F11F04A4B2E50803EB8505EC
:102B380004F007042E6AA4000F27A74026EA070618
:102B48002E622E6A01F00307A2407C1E3243012C3C
:102B5800C1F3810EC1F300182A62C1F3411140F29A
:102B68000981C6070BD51A6822F003021A601A6891
:102B78003A431A60DA6822F003020A43DA608507EA
:102B88000DD51A6822F00C021A601A6842EA870208
:102B98001A60DA6822F00C0242EA8102DA6044071D
:102BA8000DD51A6822F030021A601A6842EA071234
:102BB8001A60DA6822F0300242EA0112DA6002078B
:102BC8000DD51A6822F0C0021A601A6842EA871204
:102BD8001A60DA6822F0C00242EA8112DA60C60698
:102BE8000DD51A6822F440721A601A6842EA072260
:102BF8001A60DA6822F4407242EA0122DA60850635
:102C08000DD51A6822F440621A601A6842EA8722CF
:102C18001A60DA6822F4406242EA8122DA604406E5
:102C28000DD51A6822F440521A601A6842EA07322F
:102C38001A60DA6822F4405242EA0132DA60020687
:102C48000DD51A6822F440421A601A6842EA87329F
:102C58001A60DA6822F4404242EA8132DA60C60534
:102C68000DD51A6822F440321A601A6842EA0742FF
:102C78001A60DA6822F4403242EA0142DA608505D5
:102C88000DD51A6822F440221A601A6842EA87426F
:102C98001A60DA6822F4402242EA8142DA60440586
:102CA8000DD51A6822F440121A601A6842EA0752CF
:102CB8001A60DA6822F4401242EA0152DA60020528
:102CC8000DD51A6822F440021A601A6842EA87523F
:102CD8001A60DA6822F4400242EA8152DA60C604D5
:102CE8000DD51A6822F040721A601A6842EA076223
:102CF8001A60DA6822F0407242EA0162DA608504FA
:102D08000DD51A6822F040621A601A6842EA876292
:102D18001A60DA6822F0406242EA8162DA604404AA
:102D28000DD51A6822F040521A601A6842EA0772F2
:102D38001A60DA6822F0405242EA0172DA6002044C
:102D48000DD51A6822F040421A601A6842EA87775D
:102D58001F60DA6822F0404242EA8171D960BDE81A
:102D6800F08F034C666935436561D8E6149603080D
:102D78000010024000224FF0010C4FF003090CFA3A
:102D880002F636EA00042ED15400D3F808A009FA56
:102D980004F5ED4305EA0A0AC3F808A0D3F808B019
:102DA8000EFA04FA4AEA0B0AC3F808A0B3F804A01A
:102DB8002AEA06069E80B3F804A008FA02F646EA54
:102DC8000A06B6B29E801E682E401E60D3F800A088
:102DD80007FA04F646EA0A061E60DE6801FA04F4F9
:102DE80035402C43DC600132102AC8D1BDE8F08F91
:102DF800044CE6693543E56191E6024CA669354322
:102E0800A5618CE60010024000B97047036803F121
:102E180038422DE9F04F920AB24DAA5C02F01F0524
:102E280052090124022A04FA05F400F05F81032AFA
:102E380000F05381012A00F00D8101F003077A1E8A
:102E4800012AC1F3810EC1F300188488C1F341112E
:102E580040F20581E6070BD51A6822F003021A60D2
:102E68001A683A431A60DA6822F003020A43DA6001
:102E7800A5070DD51A6822F00C021A601A6842EAF2
:102E880087021A60DA6822F00C0242EA8102DA60EC
:102E980060070DD51A6822F030021A601A6842EAF3
:102EA80007121A60DA6822F0300242EA0112DA6088
:102EB80022070DD51A6822F0C0021A601A6842EA81
:102EC80087121A60DA6822F0C00242EA8112DA60D8
:102ED800E6060DD51A6822F440721A601A6842EAAA
:102EE80007221A60DA6822F4407242EA0122DA60A4
:102EF800A5060DD51A6822F440621A601A6842EADB
:102F080087221A60DA6822F4406242EA8122DA6093
:102F180060060DD51A6822F440521A601A6842EA0F
:102F280007321A60DA6822F4405242EA0132DA6063
:102F380022060DD51A6822F440421A601A6842EA3D
:102F480087321A60DA6822F4404242EA8132DA6053
:102F5800E6050DD51A6822F440321A601A6842EA6A
:102F680007421A60DA6822F4403242EA0142DA6023
:102F7800A5050DD51A6822F440221A601A6842EA9B
:102F880087421A60DA6822F4402242EA8142DA6013
:102F980060050DD51A6822F440121A601A6842EAD0
:102FA80007521A60DA6822F4401242EA0152DA60E3
:102FB80022050DD51A6822F440021A601A6842EAFE
:102FC80087521A60DA6822F4400242EA8152DA60D3
:102FD800E6040DD51A6822F040721A601A6842EAAF
:102FE80007621A60DA6822F0407242EA0162DA6027
:102FF800A5040DD51A6822F040621A601A6842EAE0
:1030080087621A60DA6822F0406242EA8162DA6016
:1030180060040DD51A6822F040521A601A6842EA14
:1030280007721A60DA6822F0405242EA0172DA60E6
:1030380022040DD51A6822F040421A601A6842EA42
:1030480087771F60DA6822F0404242EA8171D960CE
:10305800BDE8F08F244A55692C435461EDE60022FF
:103068004FF0010C4FF003090CFA02F636EA04009F
:103078002ED15000D3F808A009FA00F5ED430AEA6A
:10308800050AC3F808A0D3F808B00EFA00FA4AEA0D
:103098000B0AC3F808A0B3F804A02AEA06069E8023
:1030A800B3F804A008FA02F646EA0A06B6B29E8009
:1030B8001E682E401E60D3F800A007FA00F646EA04
:1030C8000A061E60DE6801FA00F035402843D86021
:1030D8000132102AC8D1BDE8F08F034AD5692C43C4
:1030E800D461AAE61496030800100240024A9569C2
:1030F8002C439461A1E600BF0010024010B10368A0
:1031080082881A85704700BF10B1036882889A6167
:10311800704700BF18B1838811B102689361704786
:103128001B04FAE70E4B1B8801463BB90D4B0E4AB0
:103138001B7810680BB981F00101EBE70B4B5A695A
:103148001AB11A6810B910605874704708480949CC
:10315800008891FBF0F1012011605874704700BF9E
:10316800CC470020CE470020D0470020D44700207D
:10317800EC47002020A1070010B40A4B0A4A1C782B
:1031880001238340234052F8200029B9B3FA83F180
:1031980049095DF8044BBDE7191C18BF01215DF80A
:1031A800044BB7E7BC470020C04700202DE9F04F8B
:1031B80085B0CDE90210A94DDFF8C4A2029B013BFE
:1031C8000293013300F0C9822DF0E3F9A44CDFF833
:1031D800B4B2DFF8A8C2A34E4FF4FA7301934FF0CC
:1031E800100EDCF80430C3F30803002B40F08B8189
:1031F800EFF31183002B40F086812068AA682368CA
:103208009842FAD133689A42F7D8DBF800704FF445
:103218007A7101FB07F39B1AB3FBF7F301FB00304C
:103228004FF47A774FF00108DCF80430C3F3080351
:10323800002B40F04981EFF31183002B40F04481CB
:103248002368A96822689342FAD132689142F7D874
:10325800DBF8002007FB02F9A9EB0101B1FBF2F151
:1032680007FB03131B1AB3F57A7FDDD3019B013BE0
:103278000193B6D17C4E039B31787C4F013378683B
:10328800C1F34001DBB20193FFF744FF317838689E
:10329800C94301F00101FFF73DFF019B013BDBB290
:1032A800FF2B019300F0C781704B5B6833B11A683C
:1032B8009B88918A0B4218BF1B0493616B4B1B6858
:1032C80033B11A689B88918A0B4218BF1B0493611B
:1032D800674B1B88002B40F09F81664A664B11782C
:1032E8001868FFF717FFFA235E484FF0100C9E4648
:1032F800624B5B68C3F30803002B40F06381EFF374
:103308001183002B40F05E812168AA6823689942E6
:10331800FAD103689A42F7D8DBF800704FF47A764E
:1033280006FB07F39B1AB3FBF7F306FB01314FF4D7
:103338007A76524B5B68C3F30803002B40F0228176
:10334800EFF31183002B40F01D812368AF682268DA
:103358009342FAD102689742F7D8DBF8008006FB5F
:1033680008F2D21BB2FBF8F206FB03235B1AB3F593
:103378007A7FDED3BEF1010EBAD13C4B5B6833B124
:103388001A689B88918A0B4218BF1B049361374BBC
:103398001B6833B11A689B88918A0B4218BF1B04BB
:1033A8009361334B1B88002B40F02C81314A324B00
:1033B8001178186881F00101FFF7ACFEFA239E46E8
:1033C8002E4B28485B68C3F308034FF0100C002B02
:1033D8005AD1EFF31183002B56D12168AA682368CC
:1033E8009942FAD103689A42F7D8DBF800704FF493
:1033F8007A7606FB07F39B1AB3FBF7F306FB01315A
:103408004FF47A761D4B5B68C3F30803002B40F03A
:103418009980EFF31183002B40F094802368AF6804
:1034280022689342FAD102689742F7D8DBF8008005
:1034380006FB08F2D21BB2FBF8F206FB03235B1A69
:10344800B3F57A7FDED3BEF1010E3FF426AF0B4B06
:103458005B68C3F30803002BBBD015E010E000E065
:1034680060430020F8470020BC470020C0470020E8
:10347800CC470020CE470020D047002000ED00E0D8
:10348800F0470020F4470020EFF311838CF31288F3
:10349800AE682A68D20303D50122CAF80020AE68B4
:1034A800D4F80080DAF80010DBB283F31188DBF877
:1034B80000704FF47A72414402FB07F39B1BB3FB85
:1034C800F7F302FB01319BE7EFF311818EF31288CA
:1034D800D5F808902B68DB0344BFCAF80080D5F8FC
:1034E80008902368DAF80020C9B281F31188DBF864
:1034F8000010134407FB01F2A2EB0902B2FBF1F240
:1035080007FB0323AEE6EFF311838EF31288AF684F
:103518002A68D20303D50122CAF80020AF682068C0
:10352800DAF80080DBB283F31188DBF800104FF47F
:103538007A72404402FB01F3DB1BB3FBF1F302FB9D
:1035480000306DE6EFF311828CF31288D5F808800D
:103558002B68DF0304D50123CAF80030D5F80880AA
:103568002368DAF80090D2B282F31188DBF8007091
:103578004B4406FB07F2A2EB0802B2FBF7F206FB8C
:1035880003235CE7EFF311828CF31288D5F80880E7
:103598002B68DF0304D50123CAF80030D5F808806A
:1035A8002368DAF80090D2B282F31188DBF8007051
:1035B8004B4406FB07F2A2EB0802B2FBF7F206FB4C
:1035C8000323D3E6EFF311838CF31288AE682A68DD
:1035D800D20303D50122CAF80020AE68D4F80080CF
:1035E800DAF80010DBB283F31188DBF800704FF4CF
:1035F8007A72414402FB07F39B1BB3FBF7F302FB10
:10360800013194E6564B5A69002A3FF4D7AE19683F
:1036180000220A605A74D1E6514B5A69002A3FF4D5
:1036280062AE504A196810884F4A92FBF0F20120A6
:103638000A60587457E6DFF838C14C4E4FF47A7375
:103648000193DCF80430C3F308034FF0100E002B8D
:1036580045D1EFF31183002B41D12068AA68236874
:103668009842FAD133689A42F7D8DBF800704FF4E1
:103678007A7101FB07F39B1AB3FBF7F301FB0030E8
:103688004FF47A774FF00108DCF80430C3F30803ED
:10369800002B43D1EFF31183002B3FD12368A96896
:1036A80022689342FAD132689142F7D8DBF80020B9
:1036B80007FB02F9A9EB0101B1FBF2F107FB0313C8
:1036C8001B1AB3F57A7FDFD3019B013B01933FF4CB
:1036D80075ADDCF80430C3F30803002BB9D0EFF361
:1036E80011838EF31288AF682A68D20303D50122AA
:1036F800CAF80020AF682068DAF80080DBB283F3EC
:103708001188DBF800104FF47A72404402FB01F391
:10371800DB1BB3FBF1F302FB0030B1E7EFF31181E0
:103728008EF31288D5F808902B68DB0344BFCAF8DB
:103738000080D5F808902368DAF80020C9B281F330
:103748001188DBF80010134407FB01F2A2EB090211
:10375800B2FBF1F207FB0323B2E705B0BDE8F08F37
:10376800D4470020EC47002020A10700F84700209C
:1037780000ED00E030B102688388128A1A4214BF53
:1037880001200020704700BF2DE9F0410B4E35683D
:1037980073691D4010D0DFF828800127B5FA85F439
:1037A800C4F11F0408EB840307FA04F4186A0368D9
:1037B8009847A5437461F1D1BDE8F0810004014048
:1037C800300F00202DE9F0410B4E356873691D401C
:1037D80010D0DFF828800127B5FA85F4C4F11F045A
:1037E80008EB840307FA04F4186A03689847A543AA
:1037F8007461F1D1BDE8F08100040140300F002070
:103808002DE9F0410B4E356873691D4010D0DFF883
:1038180028800127B5FA85F4C4F11F0408EB840356
:1038280007FA04F4186A03689847A5437461F1D14C
:10383800BDE8F08100040140300F00202DE9F0417F
:103848000B4E356873691D4010D0DFF828800127BA
:10385800B5FA85F4C4F11F0408EB840307FA04F4ED
:10386800186A03689847A5437461F1D1BDE8F081EF
:1038780000040140300F00202DE9F0410B4E35685F
:1038880073691D4010D0DFF828800127B5FA85F448
:10389800C4F11F0408EB840307FA04F4186A0368E8
:1038A8009847A5437461F1D1BDE8F0810004014057
:1038B800300F00202DE9F0410B4E356873691D402B
:1038C80010D0DFF828800127B5FA85F4C4F11F0469
:1038D80008EB840307FA04F4186A03689847A543B9
:1038E8007461F1D1BDE8F08100040140300F00207F
:1038F8002DE9F0410B4E356873691D4010D0DFF893
:1039080028800127B5FA85F4C4F11F0408EB840365
:1039180007FA04F4186A03689847A5437461F1D15B
:10392800BDE8F08100040140300F0020094A10B5BD
:103938009369094C43F00103936104F1200040228C
:10394800002132F040FB4FF0FF332366C4F86330A8
:1039580010BD00BF00100240300F00202DE9F041DB
:10396800044618460D4616461F4631F04DFC2844BD
:10397800A0722068E672294645693B4632462046D1
:10398800AC46BDE8F0416047036810B504461B68C3
:103998009847236820469B689847E37B0133E37385
:1039A80010BD70B5054600780E46FEF7D9FF0446EF
:1039B80018B1382301368371C67120466978FFF73C
:1039C80023FAAB7820461BB1BDE87040FFF79CBBDB
:1039D800BDE87040FFF792BB0B4B984211D0A3F59E
:1039E8007843984202D04FF0FF3070470122074BCE
:1039F80003EB02135A89013292B25A81588980B274
:103A080070470022F3E700BF00300140A0250020E6
:103A1800F8B584894FF6FF764FF47A7413F1FF33C3
:103A280025D311B30F78013101E0B44217D00589CD
:103A3800013CAD07A4B2F8D507734FF47A7402E0DD
:103A4800BCB2B4420BD00589ED0704F1FF37F7D5B6
:103A5800057BEDB2002AE1D015700132DEE7FFF7F1
:103A6800BBFF003018BF0120F8BDFF27DFE70120AA
:103A7800F8BD00BF08B5838940F2E93300E09BB187
:103A88000289013B12F0020F9BB2F8D0017340F299
:103A9800E93300E043B10289013B12F0010F9BB208
:103AA800F8D0007BC0B208BDFFF796FFC0B208BDD2
:103AB800F8B50546806816461F4610B10368828827
:103AC8001A85686840F2E934838901E0002C44D003
:103AD8000389013C13F0020FA4B2F7D0017340F23E
:103AE800E93101E0002938D00389013913F0010FC9
:103AF80089B2F7D0037B686883894FF0000C4FF4D4
:103B08007A714FF6FF724FF0FF0E674502D11DE044
:103B1800914219D0038901399C0789B2F8D580F8F8
:103B28000CE04FF47A7102E0A1B291420CD0038903
:103B3800DB0701F1FF34F7D5037BDBB20EB133703D
:103B480001360CF1010CE0E7FFF746FFAB6813B153
:103B58001A689B8893610120F8BDFFF73DFFCAE70B
:103B680038B504460D46FEF75DFB246808B1FEF73C
:103B7800FBFA054B00221A76C9215B7E2A462046AD
:103B8800FFF796FF012038BD300F002038B5836855
:103B98000446154613B11A689B881385606840F27D
:103BA800E933828901E0002B30D00289013B12F011
:103BB800020F9BB2F7D0017340F2E93300E02BB358
:103BC8000289013B12F0010F9BB2F8D0037B6068B9
:103BD80040F2E933828900E0DBB10189013B11F051
:103BE800020F9BB2F8D0057340F2E93300E083B1CD
:103BF8000289013B12F0010F9BB2F8D0037BA36846
:103C080013B11A689B889361012038BDFFF7E4FE61
:103C1800DDE7FFF7E1FEF2E710B504464068A26869
:103C2800038823F040031B041B0C0380038823F044
:103C380038031B041B0C0380038843F040030380F4
:103C480012B1136892881A85838940F2E93301E03A
:103C5800002B44D00289013B12F0020F9BB2F7D02F
:103C6800F523037340F2E93301E0002B37D00289D2
:103C7800013B12F0010F9BB2F7D0037B6068838988
:103C880040F2E93300E00BB30289013B12F0020F66
:103C98009BB2F8D0FF23037340F2E93300E0ABB1E5
:103CA8000289013B12F0010F9BB2F8D0017BC9B227
:103CB800A36813B11A689B889361712918D008D931
:103CC800AC2913D0AF290DD1092010BDFFF784FE10
:103CD800EEE712290ED0702906D1052010BDFFF796
:103CE8007BFECBE7732903D0002010BD072010BD51
:103CF800062010BD082010BDF0B5836983B00646C4
:103D080013B11A689B8813857069DFF8A0C083898E
:103D1800C3244FF47A7306276D464FF6FF710CF1F2
:103D2800010C03E0013B9BB28B421CD00289920735
:103D3800F8D504734FF47A7302E0A3B28B4212D021
:103D48000289D20703F1FF34F7D5027BD2B20DB155
:103D58002A7001354FB1013FFF24BCF1000FE5D0B7
:103D68009CF80040DBE7FFF737FEB36913B11A6828
:103D78009B8893619DF805009DF801509DF80210FD
:103D88009DF803409DF804209DF8063041EA05217E
:103D980043EA002342EA04220120A6F85010A6F8BC
:103DA8005220A6F8543003B0F0BD00BFD06003081D
:103DB800F8B50378012B49D0022B4DD1836801F067
:103DC8007F0113B11C689B8823850446406815460B
:103DD80040F2E933828902E0002B00F0A0800289DA
:103DE800013B12F0020F9BB2F6D0017340F2E933A7
:103DF80002E0002B00F093800289013B12F0010FD2
:103E08009BB2F6D0037B606840F2E933828902E016
:103E1800002B00F081800189013B11F0020F9BB259
:103E2800F6D0057340F2E93301E0002B74D0028923
:103E3800013B12F0010F9BB2F7D0037BA368002B64
:103E480068D01A689B8893610120F8BD90F9043006
:103E58005C1C01D0022B01DD0020F8BD434C03EBB4
:103E6800830304EB83035B68002B6DD04579404ED8
:103E78006D004FF42040EDB2B0669C69270400F154
:103E8800FF303DD45C683B4F45F080703C4040F4C7
:103E9800903020434FF420445860B46601E0671C1A
:103EA80054D0986910F0020004F1FF34F7D04FF4B1
:103EB80020409962B066014601E04F1C19D098690C
:103EC80010F0800001F1FF31F7D05968294845F01A
:103ED8000075014045F480350D434FF420415D6085
:103EE800B166986910F0020001F1FF311AD14C1C3B
:103EF800F7D1214AB166138801339BB21380F8BD0C
:103F0800441CBAD11C4AB066138801339BB2138093
:103F18000020F8BD0120F8BDFFF75EFD8EE7FFF732
:103F28005BFD70E74FF420419A62B1660A4602E0F1
:103F380012F1FF3211D3996911F02001F8D0202134
:103F4800B266D9610120F8BD1846F8BD0A4AB466C0
:103F5800138801339BB21380F8BD074CB2662388DF
:103F680001339BB208462380F8BD00BF1C420020E5
:103F7800300F0020009800FC1C1000203122F42192
:103F880016E700BF2DE9F04F8BB090F86130039031
:103F9800002B40F02086039B93F85830072B00F045
:103FA80010861823CDE90433039BBE4CBE4EDFF8C0
:103FB8000483BE4F1033184680226B210293FFF70B
:103FC800F7FE6423DFF8F0E2B94801934FF01009D7
:103FD800DEF80430C3F30803002B40F0C384EFF38A
:103FE8001183002B40F0BE842568826823689D42B7
:103FF800FAD13B689A42F7D8D6F800C04FF47A71E4
:1040080001FB0CF39B1AB3FBFCF301FB05354FF4E2
:104018007A7C4FF0010ADEF80430C3F30803002B62
:1040280040F05F84EFF31183002B40F05A8423683B
:10403800816822689342FAD13A689142F7D8326887
:104048000CFB02FBABEB0101B1FBF2F10CFB031320
:104058005B1BB3F57A7FDED3019B013B0193B7D19C
:10406800072268210298DFF84C82904FFFF7A0FEE4
:104078006423DFF844E28E4801934FF01009DEF81C
:104088000430C3F30803002B40F04A84EFF3118394
:10409800002B40F045842568826823689D42FAD148
:1040A8003B689A42F7D8D6F800C04FF47A7101FB02
:1040B8000CF39B1AB3FBFCF301FB05354FF47A7C38
:1040C8004FF0010ADEF80430C3F30803002B40F078
:1040D800EA83EFF31183002B40F0E58323688168BE
:1040E80022689342FAD13A689142F7D832680CFBB9
:1040F80002FBABEB0101B1FBF2F10CFB03135B1B01
:10410800B3F57A7FDED3019B013B0193B7D11A4601
:104118006B210298DFF89C81644FFFF749FE642306
:10412800DFF894E1624801934FF01009DEF804309B
:10413800C3F30803002B40F0DD84EFF31183002B59
:1041480040F0D8842568826823689D42FAD13B688C
:104158009A42F7D8D6F800C04FF47A7101FB0CF3F5
:104168009B1AB3FBFCF301FB05354FF47A7C4FF047
:10417800010ADEF80430C3F30803002B40F075830E
:10418800EFF31183002B40F0708323688168226865
:104198009342FAD13A689142F7D832680CFB02FB95
:1041A800ABEB0101B1FBF2F10CFB03135B1BB3F5A5
:1041B8007A7FDED3019B013B0193B7D101226B21AA
:1041C8000298DFF8F080394FFFF7F2FD0F23DFF890
:1041D800E8E0374801934FF01009DEF80430C3F3E4
:1041E8000803002B40F06484EFF31183002B40F0A8
:1041F8005F842568826823689D42FAD13B689A42A9
:10420800F7D8D6F800C04FF47A7101FB0CF39B1A6B
:10421800B3FBFCF301FB05354FF47A7C4FF0010A40
:10422800DEF80430C3F30803002B40F00083EFF3FB
:104238001183002B40F0FB82236881682268934237
:10424800FAD13A689142F7D832680CFB02FBABEB23
:104258000101B1FBF2F10CFB03135B1BB3F57A7F91
:10426800DED3019B013B0193B7D1049A0298DFF892
:1042780044800E4F1B21FFF79BFD0F23DFF838E02A
:104288000B4801934FF01009DEF80430C3F308031C
:10429800002B40F07284EFF31183002B40F06D8403
:1042A8000CE000BF60430020F4470020F8470020DE
:1042B80010E000E0F047002000ED00E0256882688B
:1042C80023689D42FAD13B689A42F7D8D6F800C0D5
:1042D8004FF47A7101FB0CF39B1AB3FBFCF301FB5F
:1042E80005354FF47A7C4FF0010ADEF80430C3F349
:1042F8000803002B40F07D82EFF31183002B40F080
:1043080078822368816822689342FAD13A68914298
:10431800F7D832680CFB02FBABEB0101B1FBF2F101
:104328000CFB03135B1BB3F57A7FDED3019B013BC8
:104338000193A9D1059A0298DFF80C83C04F1C217C
:10434800FFF736FD0F23DFF804E3BE4801934FF073
:104358001009DEF80430C3F30803002B40F0EC83A7
:10436800EFF31183002B40F0E78325688268236808
:104378009D42FAD13B689A42F7D8D6F800C04FF46C
:104388007A7101FB0CF39B1AB3FBFCF301FB0535B7
:104398004FF47A7C4FF0010ADEF80430C3F30803C7
:1043A800002B40F00882EFF31183002B40F00382CA
:1043B8002368816822689342FAD13A689142F7D813
:1043C80032680CFB02FBABEB0101B1FBF2F10CFB19
:1043D80003135B1BB3F57A7FDED3019B013B01938B
:1043E800B7D1039A92F85B30032B00F2E88392F876
:1043F8005E20A2F10102B2FA82F252091A21029851
:10440800DFF844828E4FFFF7D3FC0F23DFF83CE23E
:104418008C4801934FF01009DEF80430C3F3080309
:10442800002B40F0E282EFF31183002B40F0DD8295
:104438002568826823689D42FAD13B689A42F7D87A
:10444800D6F800C04FF47A7101FB0CF39B1AB3FB4A
:10445800FCF301FB05354FF47A7C4FF0010ADEF8D6
:104468000430C3F30803002B40F08781EFF3118376
:10447800002B40F082812368816822689342FAD138
:104488003A689142F7D832680CFB02FBABEB0101AA
:10449800B1FBF2F10CFB03135B1BB3F57A7FDED3A0
:1044A800019B013B0193B7D1039B029893F86020CD
:1044B800DFF89481624F1921FFF77AFC6423DFF853
:1044C8008CE1604801934FF01009DEF80430C3F323
:1044D8000803002B40F06882EFF31183002B40F0B3
:1044E80063822568826823689D42FAD13B689A42B4
:1044F800F7D8D6F800C04FF47A7101FB0CF39B1A79
:10450800B3FBFCF301FB05354FF47A7C4FF0010A4D
:10451800DEF80430C3F30803002B40F01081EFF3FA
:104528001183002B40F00B81236881682268934235
:10453800FAD13A689142F7D832680CFB02FBABEB30
:104548000101B1FBF2F10CFB03135B1BB3F57A7F9E
:10455800DED3019B013B0193B7D11022372102988A
:10456800DFF8E480364FFFF723FC0F23DFF8DCE0A9
:10457800344801934FF01009DEF80430C3F3080300
:10458800002B40F07482EFF31183002B40F06F8210
:104598002568826823689D42FAD13B689A42F7D819
:1045A800D6F800C04FF47A7101FB0CF39B1AB3FBE9
:1045B800FCF301FB05354FF47A7C4FF0010ADEF875
:1045C8000430C3F30803002B40F09B80EFF3118302
:1045D800002B40F096802368816822689342FAD1C4
:1045E8003A689142F7D832680CFB02FBABEB010149
:1045F800B1FBF2F10CFB03135B1BB3F57A7FDED33F
:10460800019B013B0193B7D10298DFF83C800C4F26
:1046180001223821FFF7CCFB0F23DFF830E00948EF
:1046280001934FF01009DEF80430C3F30803002BA0
:1046380040F0FC81EFF31183002B40F0F78107E095
:10464800F847002010E000E0F047002000ED00E00F
:104658002568826823689D42FAD13B689A42F7D858
:10466800D6F800C04FF47A7101FB0CF39B1AB3FB28
:10467800FCF301FB05354FF47A7C4FF0010ADEF8B4
:104688000430C3F30803F3B9EFF31183DBB92368EC
:10469800816822689342FAD13A689142F7D8326821
:1046A8000CFB02FBABEB0101B1FBF2F10CFB0313BA
:1046B8005B1BB3F57A7FE2D3019B013B0193B2D137
:1046C8000BB0BDE8F08FEFF3118189F31288D0F8B1
:1046D80008B00368DB0344BFC8F800A0D0F808B0EE
:1046E8002368D8F80020C9B281F3118831681344CF
:1046F8000CFB01F2A2EB0B02B2FBF1F20CFB032361
:10470800D6E7EFF3118189F31288D0F808B003686F
:10471800DB0344BFC8F800A0D0F808B02368D8F875
:104728000020C9B281F31188316813440CFB01F2EF
:10473800A2EB0B02B2FBF1F20CFB03235CE7EFF3F5
:10474800118189F31288D0F808B00368DB0344BFED
:10475800C8F800A0D0F808B02368D8F80020C9B27B
:1047680081F31188316813440CFB01F2A2EB0B02B0
:10477800B2FBF1F20CFB0323E7E6EFF3118189F3B7
:104788001288D0F808B00368DB0344BFC8F800A05B
:10479800D0F808B02368D8F80020C9B281F311888E
:1047A800316813440CFB01F2A2EB0B02B2FBF1F2ED
:1047B8000CFB032370E6EFF3118189F31288D0F81C
:1047C80008B00368DB0344BFC8F800A0D0F808B0FD
:1047D8002368D8F80020C9B281F3118831681344DE
:1047E8000CFB01F2A2EB0B02B2FBF1F20CFB032370
:1047F800EFE5EFF3118189F31288D0F808B0036868
:10480800DB0344BFC8F800A0D0F808B02368D8F884
:104818000020C9B281F31188316813440CFB01F2FE
:10482800A2EB0B02B2FBF1F20CFB03237AE5EFF3E8
:10483800118189F31288D0F808B00368DB0344BFFC
:10484800C8F800A0D0F808B02368D8F80020C9B28A
:1048580081F31188316813440CFB01F2A2EB0B02BF
:10486800B2FBF1F20CFB0323F7E4EFF3118189F3B8
:104878001288D0F808B00368DB0344BFC8F800A06A
:10488800D0F808B02368D8F80020C9B281F311889D
:10489800316813440CFB01F2A2EB0B02B2FBF1F2FC
:1048A8000CFB032382E4EFF3118189F31288D0F81B
:1048B80008B00368DB0344BFC8F800A0D0F808B00C
:1048C8002368D8F80020C9B281F3118831681344ED
:1048D8000CFB01F2A2EB0B02B2FBF1F20CFB03237F
:1048E8000DE4EFF3118189F31288D0F808B003685A
:1048F800DB0344BFC8F800A0D0F808B02368D8F894
:104908000020C9B281F31188316813440CFB01F20D
:10491800A2EB0B02B2FBF1F20CFB0323FFF798BBEF
:10492800EFF3118389F31288D0F808C00268D20324
:1049380004D50122C8F80020D0F808C02568D8F8A6
:1049480000A0DBB283F3118831684FF47A725544C2
:1049580002FB01F3A3EB0C03B3FBF1F302FB0535F8
:10496800FFF7ACBBEFF3118389F31288D0F808C0C6
:104978000268D20304D50122C8F80020D0F808C084
:104988002568D8F800A0DBB283F3118831684FF4AA
:104998007A72554402FB01F3A3EB0C03B3FBF1F36A
:1049A80002FB0535FFF733BBEFF3118389F3128858
:1049B800D0F808C00268D20304D50122C8F8002044
:1049C800D0F808C02568D8F800A0DBB283F31188B6
:1049D80031684FF47A72554402FB01F3A3EB0C03E0
:1049E800B3FBF1F302FB05358EE5EFF3118389F391
:1049F8001288D0F808C00268D20304D50122C8F88A
:104A08000020D0F808C02568D8F800A0DBB283F3EE
:104A1800118831684FF47A72554402FB01F3A3EB15
:104A28000C03B3FBF1F302FB053514E5EFF3118337
:104A380089F31288D0F808C00268D20304D501228D
:104A4800C8F80020D0F808C02568D8F800A0DBB264
:104A580083F3118831684FF47A72554402FB01F3ED
:104A6800A3EB0C03B3FBF1F302FB053503E6EFF30D
:104A7800118389F31288D0F808C00268D20304D5DC
:104A88000122C8F80020D0F808C02568D8F800A08E
:104A9800DBB283F3118831684FF47A72554402FB14
:104AA80001F3A3EB0C03B3FBF1F302FB053582E53D
:104AB800EFF3118389F31288D0F808C00268D20393
:104AC80004D50122C8F80020D0F808C02568D8F815
:104AD80000A0DBB283F3118831684FF47A72554431
:104AE80002FB01F3A3EB0C03B3FBF1F302FB053567
:104AF800FFF792BBEFF3118389F31288D0F808C04F
:104B08000268D20304D50122C8F80020D0F808C0F2
:104B18002568D8F800A0DBB283F3118831684FF418
:104B28007A72554402FB01F3A3EB0C03B3FBF1F3D8
:104B380002FB0535FFF719BBEFF3118389F31288E0
:104B4800D0F808C00268D20304D50122C8F80020B2
:104B5800D0F808C02568D8F800A0DBB283F3118824
:104B680031684FF47A72554402FB01F3A3EB0C034E
:104B7800B3FBF1F302FB05350AE4EFF3118389F384
:104B88001288D0F808C00268D20304D50122C8F8F8
:104B98000020D0F808C02568D8F800A0DBB283F35D
:104BA800118831684FF47A72554402FB01F3A3EB84
:104BB8000C03B3FBF1F302FB0535FFF792BB019A37
:104BC8001CE4039B93F85D30002B44D11023CDE9FE
:104BD8000433FFF7E9B91C09013C052C03F00F0366
:104BE8003FD8684A32F8140040FA03F2D60738D59D
:104BF800012707FA03F3013B184030F011FE624B1E
:104C0800DFF898A113F8049081441AEBC90428D05E
:104C18005AF83900A388028A1A407FF4BCA9B3FA6B
:104C280083F12025C1F11F01039EE271A571574A46
:104C3800F2604D1C1AD1B3FA83F3C3F11F03581C59
:104C48003FF4A9A9012202FA03F351490A68134360
:104C58000B60FFF7A0B918231021CDE90431FFF745
:104C6800A3B9039A494BD3600123EEE700F1384218
:104C7800920ADFF82CC1DFF82CB11CF802C0454DB0
:104C88000BEB01080CF01F0205EB81014FEA5C1CDD
:104C980006F10C0EBCF1020F07FA02F298F86480D4
:104CA800C1F820E04BD0BCF1030F66D0BC455FD003
:104CB80008A90027CDE9083717F06AFDA3885AF834
:104CC8003910DFF8E4C0B3FA83F3C3F11F03D8B295
:104CD80000F0FC0202F1804202F5803200F003008D
:104CE80080004FF00F0E0EFA00F9D2F808E02EEA15
:104CF800090EC2F808E0D2F80890C1F38721814074
:104D080041EA0901916003F01F0E23F01F014FF0E3
:104D1800010909FA0EFE454441F80CE0082208A8EA
:104D280008938DF824708DF826908DF825202BF0A7
:104D380047FB95F86030F02B06D8A3887BE7164F21
:104D4800B9690A43BA61B3E70BEB0806F02296F893
:104D580074308DF81C3007A803238DF81E708DF869
:104D68001F9085F860208DF81D3017F0F7F9E4E7FB
:104D7800094F79690A437A619AE70749CF693A4343
:104D8800CA6195E7009603080C960308B50D00085C
:104D980000040140300F002000100240644300204E
:104DA80014960308746003081404014042691388C8
:104DB80023F040031B041B0C2DE9F04F13801388CC
:104DC8009BB223F0380343F030031380138883B079
:104DD80043F0400313800190FDF774F90446FDF792
:104DE80071F98442FBD0019C2046FFF7CBF8A369F8
:104DF80013B11A689B881385019B586940F2E933FF
:104E0800828902E0002B00F0AB800289013B12F09E
:104E1800020F9BB2F6D06A23037340F2E93302E033
:104E2800002B00F09D800289013B12F0010F9BB21C
:104E3800F6D0037B019B586940F2E933828902E08E
:104E4800002B00F090800289013B12F0020F9BB208
:104E5800F6D01023037340F2E93302E0002B00F090
:104E680082800289013B12F0010F9BB2F6D0037BCE
:104E7800019B9B6913B11A689B88936164233B4C1F
:104E8800DFF8F490DFF8F480394DDFF8F4A0394EFC
:104E98000093FDF717F94FF47A774FF0100C4FF0A5
:104EA800010ED8F80430C3F30803002B39D1EFF30F
:104EB8001183002B35D12368A96822689342FAD15F
:104EC80032689142F7D8D9F8002007FB02FBABEB18
:104ED8000101B1FBF2F107FB03131B1AB3F57A7F4B
:104EE800DFD3009B013B0093D3D1019B5A69138800
:104EF80023F040031B041B0C1380138823F0380392
:104F08001B041B0C1380138843F040031380FDF728
:104F1800D9F80446FDF7D6F88442FBD003B0BDE8C3
:104F2800F08FEFF311818CF31288D5F808B02B6855
:104F3800DB0344BFCAF800E0D5F808B02368DAF804
:104F48000020C9B281F31188D9F80010134407FB77
:104F580001F2A2EB0B02B2FBF1F207FB0323BCE761
:104F6800FEF73AFD66E7FEF737FD81E7604300206C
:104F780010E000E0F8470020F447002000ED00E0D2
:104F8800F0470020427A4AB110B5044604F10A01FC
:104F9800D0E9003098470023637210BD704700BF06
:104FA800A8B10D4B012210B402FA01F103F1750406
:104FB80002E00333A3420BD013F8012C8242F8D14C
:104FC8001A780A42F5D001205DF8044B7047704703
:104FD80000205DF8044B7047F160030830B40A4DB7
:104FE800002305F17C0401E0272B0AD003EB4302E0
:104FF8000133A15C8142F7D12A4430BC92F87E008B
:105008007047002030BC704774600308024B0146AB
:105018001868FBF76FBA00BF6412002038B5064D58
:10502800441E14F8011F286811B9BDE83840A9E7E3
:10503800FBF760FAF5E700BF6412002010B50446DC
:105048000B48FFF7EBFF0B4B1868FFF79BFF0A4B6A
:10505800186807F0A1FE1CF0FFFD084B084A24B1B0
:10506800084909480860DA6010BDDA60FCE700BF4B
:10507800409A0308641200206812002000ED00E046
:105088000400FA05FC9F0020EFBEADDE38B5094DDF
:105098002868FFF777FF084B00241C70074B1C603B
:1050A800074B1C701CF066FF2046FFF7C7FF2C60FB
:1050B80038BD00BF64120020701200206C1200205E
:1050C8006126002008B5074B93F86C2032B1186FA1
:1050D800FCF70AF90020BDE80840AFE709F09AF8A4
:1050E800F8E700BF300F00200120A7E7004895E748
:1050F8000BA2030838B5064D002455F834000134D6
:10510800FFF78CFFFFF7F2FF272CF6D138BD00BF61
:10511800F878030808B5FFF781FFBDE80840E5E720
:105128002DE9F341056906460F467DBBD0F800809E
:10513800C8F30A0323B30023D6F8008001932CF0A8
:10514800C3FA042819D1224C236943F001032361CF
:10515800BBB2A8F800302CF0B7FA04282ED108F119
:1051680002030193019B3F0C1F802CF0ADFA2369C9
:10517800042823F00103236125D06FF0010505E021
:105188002CF0A2FA042805D04FF0FF35284602B0CB
:10519800BDE8F0810E4C236943F002032361C4F893
:1051A8001480236943F0400323612CF08DFA2369AE
:1051B800042823F002032361BDD0E5E7236923F027
:1051C80001032361D9E7336804333360DEE700BFA6
:1051D80000200240F8B504460D468E180027B54257
:1051E80001D12069F8BDE368591CE160234415F832
:1051F800012B1A720429F2D1A1682046FFF790FF0B
:10520800C4E90370EBE7034A136823EA000010605F
:10521800704700BF08530020464B1B68B3F5FA7F60
:1052280010B57FD8444B5A899989914224BF0022EE
:105238005A81198ADA89914228BF0022998B28BF9E
:10524800DA81DA8B914284BF00229A839A783B49AB
:10525800012A91F8581025D00A2928D00C295ED1A6
:105268009FED377A374CA278062A97BF3649DFED8B
:10527800376A01EB8201D1ED3D6A217919B3013A10
:10528800032A0AD8B7EE000A80EE260A30F01CFE80
:105298002388984228BF184620802D4B9A78012AE7
:1052A8000ED010BD2B485A700A29027035D19FEDD7
:1052B8002A7A012AD6D10A2939D19FED287AD1E74D
:1052C80000229A7010BD5B78224907EE903A0A785E
:1052D800F8EEE77A67EE877A07EE102AB8EEC77A13
:1052E80027EE277AF4EEC76AF1EE10FAD5DD86EEDE
:1052F800A77AFDEEC77A17EE903A102BA8BF1023B5
:10530800012BB8BF0123DBB29A4238BF1A46104BB3
:105318000A709A78012AC4D1D2E70C2907D09FEDE8
:10532800107AC6E74FF00050FFF76DFF7AE79FED60
:105338000D7A97E7F8520020D0520020404C002008
:105348000AD7A3390C550020746003086F1203387C
:105358008C160020D01F00205304E9380F506E3AF5
:105368006F1203396F12833A2DE9F041C1490B7866
:10537800A3F11702022A0FD9BF4A12F833000028F6
:1053880040F0CB81D800024452782AB1BB4A12F8C7
:105398003330002B00F013820024B94EB94F254654
:1053A800315B4B0803F077334FEA910C0CF0333C38
:1053B800CB1ACA08A3EB0C0302F011329B1A03EBB9
:1053C800231303F00F33A7FB03C2D209C2EB022257
:1053D8009A1A11F001031CBF0135EDB2012A06EB40
:1053E800040004F108040BDD022A40F08B8113B19C
:1053F80011F42F7F04D118F0CBFC002800F0828133
:10540800202CCDD1013D022D00F27C818020FFF7B8
:10541800FAFE9D4A5378052B00F2708103EB430096
:105428009A4903EB800301EB430113789848022B58
:10543800016000F25E81C3EB0311964CC3EB81015E
:1054480004EB4101762202FB0342934E9088D588F3
:105458003160854224BF00219180762202FB0342FD
:10546800B2F86410B2F86200884284BF0021A2F842
:105478006210762202FB034292F873100139632905
:1054880084BF642182F87310762202FB03438349A8
:1054980093F874200132D2B2092A84BF002283F81B
:1054A80074208B78042B00F0418133B90B88B3F555
:1054B800F07F84BF4FF4F0730B80794DFFF7ACFE9B
:1054C8002B68784A1A40002A00F05181DF0700F162
:1054D80051815E0400F13881180700F13C8199047C
:1054E80000F140811A04704D40F1FC800023EB73F9
:1054F80085F823301EF006FB002800F09F806B7EA5
:10550800032B00F09B805A1E012A40F2AE80002334
:105518002383A4F88E30A4F804311EF0F3FA00288F
:1055280040F0A280002384F84F3084F8C53084F816
:105538003B315E4BDA79022A08BF01224FF007009F
:1055480008BFDA711EF08CF8002840F020814FF473
:10555800806007F0B3FD002800F02381544E3446E4
:1055680004F17D057836617979B1207858B1514BCD
:1055780002E006339D4208D013F8052C8A42F8D180
:105588001A78002AF5D01EF015F80634A642EAD19A
:105598004020FFF738FE4FF40070FFF734FE4FF459
:1055A8008040FFF730FE4FF40030FFF72CFE4FF439
:1055B8008020FFF728FE404C4FF00070FFF723FED5
:1055C8004FF08060FFF71FFEA388002B40F0D780C4
:1055D8003A4A136813F07F4F1CBF00231360936887
:1055E80023F4007323F002030BB1002393601379B3
:1055F800013B042B84BF01231371264B4FF02D0C64
:1056080003F5B17164254FF001081E270A245026BE
:105618004FF0020E93F86B20002A51D05A7D1E2AB3
:1056280007D993F855201F75012A5C759C751E8350
:105638006CD076339942EDD1BDE8F0810023A38187
:105648006382A4F88230A4F88830A4F8F830A4F86B
:10565800FE301EF057FA00283FF459AF6B7E5A1EF1
:10566800012A3FF654AF00E06B7E023B022B3FF667
:1056780059AF5EE7201D002050960308E88D030807
:10568800486B0020818080800C140020D4150020F5
:105698000C29002034140020082900200C55002073
:1056A8000853002009600002386C0020E82B002015
:1056B800382000203D200020FC410020183B00201D
:1056C800987D0028B5D093F8550083F814C00228B7
:1056D8005D759A751D8308BF83F8558076339942A6
:1056E80098D1A9E7EA7B002A60D0002385F8233007
:1056F80000E7344C002321461370A3E60023324907
:10570800537092E6314805F039F97FE683F855E0A1
:10571800763399427FF47EAF8EE7D8001418646818
:10572800002C7FF430AE17240C702CE64FF4805018
:10573800FFF769FDCB8AB3F57A7F37BF4FF47A72EA
:105748008B788B78CA82B0E62148FFF75CFD2B681E
:1057580018077FF5C4AE1F48FFF755FD2B6899045D
:105768007FF5C0AE1C48FFF74EFD2B68BAE643F044
:1057780001032B601948FFF746FD2B68A9E620783E
:10578800FCF782FC00287FF423AFA08020E70720E5
:105798001DF010FF4FF4806007F090FC00287FF4A4
:1057A800DDAE4FF00060FFF72EFDD7E642F20102B2
:1057B80013423FF49FAE002385F823309AE618235E
:1057C8000B70E9E534140020D4150020486B002044
:1057D800092000020160000209400002086000027E
:1057E8002DE9F84F12F0AAFF2B4B2C4A934250D2C6
:1057F8002B4F03F114069B464FF00108294C2588CE
:1058080062197DB1BA420DD2052D0BD936F8143C78
:105818006188C3F30B0399420AD01446258862199C
:10582800002DEFD156F8101C5846FBF7A3FB0FE0EC
:10583800637913F0030AF0D156F8101C94F8049019
:105848005846FBF797FB36F8141CB9EB113F11D0FB
:105858004FF00008114B0BF1140B9B4506F1140691
:10586800CCD3FFF781FDFBF745FD12F0FDFE404666
:10587800BDE8F88F36F8123C56F8100CAA1FC3F38F
:105888000B039A4204F10601A8BF1A4630F077FBD1
:10589800E0E74FF00108E4E720D70308D0DB03086E
:1058A8000000040802F0030808B508F0B3FCFFF78D
:1058B80097FF0120BDE8084007F03ABDDFED2E7ADA
:1058C800B4EEE70AF1EE10FA4ADDDFED2C6A9FED3F
:1058D8002C7A01E0B0EE670AB4EEC70AF1EE10FACE
:1058E80070EE667AF6DC9FED277AF4EEC77AF1EE71
:1058F80010FA3ED5DFED216A9FED237A01E0F0EE44
:10590800407AF4EEC77AF1EE10FA37EEA60AF6D42A
:10591800DFED1E7AB4EEE70AF1EE10FA14DDDFEDE2
:10592800167A37EEC00A60EE006A9FED196A9FED9D
:10593800197ADFED197AA6EE867A20EE266AE6EE67
:10594800877AA6EE270A7047DFED147AB4EEE70AE5
:10595800F1EE10FA44BFDFED0B7A37EEC00AE2E74A
:105968009FED087AF0EE407AF4EEC77AF1EE10FA7D
:10597800C0D4B0EE670ACBE7DB0F4940DB0FC94064
:10598800E4CB1641DB0F49C0E4CB16C1DB0FC93F9E
:1059980092E741B99730083C15A82ABEDB0FC9BF6A
:1059A80010B44C09012250F8243001F01F0102FA0A
:1059B80001F123EA010340F824305DF8044B7047F5
:1059C80010B44C09012250F8243001F01F0102FAEA
:1059D80001F10B4340F824305DF8044B704700BFD9
:1059E8004B0901F01F0150F82320012303FA01F1AC
:1059F800114214BF18460020704700BF2DE9F0433C
:105A0800002489B006460D461F46A04605E0252914
:105A18000CD030460134A847039A531C03931178DD
:105A28000029F4D1204609B0BDE8F083931CCDE9E4
:105A380003385078302842D0A0F13003DBB2092B6C
:105A48004FF0000945D96C282AD0642873D019D999
:105A5800732858D063D9752840F0828007F1040C68
:105A6800386805AB00220A216746FAF73DFF05AB07
:105A7800049A009329464B463046FAF7F9FD039AF3
:105A88000444CAE725283CD051D958286BD063284C
:105A9800C2D139783046A84704370134039ABCE7A5
:105AA800039B5A1C03921B78642B52D016D8252BC3
:105AB80027D064D9582B18D0632BEAD0ADE7D31C74
:105AC80003939078A0F13003DBB2092B4FF0010962
